{
	"data": {
		"bytecode": {
			"linkReferences": {},
			"object": "608060405234801561000f575f5ffd5b50604051610c5c380380610c5c833981810160405281019061003191906100d4565b805f5f6101000a81548173ffffffffffffffffffffffffffffffffffffffff021916908373ffffffffffffffffffffffffffffffffffffffff160217905550506100ff565b5f5ffd5b5f73ffffffffffffffffffffffffffffffffffffffff82169050919050565b5f6100a38261007a565b9050919050565b6100b381610099565b81146100bd575f5ffd5b50565b5f815190506100ce816100aa565b92915050565b5f602082840312156100e9576100e8610076565b5b5f6100f6848285016100c0565b91505092915050565b610b508061010c5f395ff3fe608060405234801561000f575f5ffd5b5060043610610034575f3560e01c8063d2b04fd614610038578063f4de7a2914610054575b5f5ffd5b610052600480360381019061004d9190610787565b610070565b005b61006e60048036038101906100699190610823565b610109565b005b61007b8483836101a5565b5f5f9054906101000a900473ffffffffffffffffffffffffffffffffffffffff1673ffffffffffffffffffffffffffffffffffffffff166340c10f1985856040518363ffffffff1660e01b81526004016100d69291906108f0565b5f604051808303815f87803b1580156100ed575f5ffd5b505af11580156100ff573d5f5f3e3d5ffd5b5050505050505050565b6101148583836101a5565b5f5f9054906101000a900473ffffffffffffffffffffffffffffffffffffffff1673ffffffffffffffffffffffffffffffffffffffff1663beabacc88686866040518463ffffffff1660e01b815260040161017193929190610917565b5f604051808303815f87803b158015610188575f5ffd5b505af115801561019a573d5f5f3e3d5ffd5b505050505050505050565b5f6101af8361024e565b90505f5f5f6101bd8561028d565b9250925092506001848285856040515f81526020016040526040516101e5949392919061097f565b6020604051602081039080840390855afa158015610205573d5f5f3e3d5ffd5b5050506020604051035173ffffffffffffffffffffffffffffffffffffffff168773ffffffffffffffffffffffffffffffffffffffff1614610245575f5ffd5b50505050505050565b5f5f8251905061025d816102f4565b8360405160200161026f929190610a5e565b60405160208183030381529060405280519060200120915050919050565b5f5f5f604184511461029d575f5ffd5b602084015192506040840151915060608401515f1a9050601b8160ff1610156102ed57601b816102cd9190610ab9565b9050601b8160ff1614806102e45750601c8160ff16145b6102ec575f5ffd5b5b9193909250565b60605f6001610302846103be565b0190505f8167ffffffffffffffff8111156103205761031f6105c5565b5b6040519080825280601f01601f1916602001820160405280156103525781602001600182028036833780820191505090505b5090505f82602083010190505b6001156103b3578080600190039150507f3031323334353637383961626364656600000000000000000000000000000000600a86061a8153600a85816103a8576103a7610aed565b5b0494505f850361035f575b819350505050919050565b5f5f5f90507a184f03e93ff9f4daa797ed6e38ed64bf6a1f010000000000000000831061041a577a184f03e93ff9f4daa797ed6e38ed64bf6a1f01000000000000000083816104105761040f610aed565b5b0492506040810190505b6d04ee2d6d415b85acef81000000008310610457576d04ee2d6d415b85acef8100000000838161044d5761044c610aed565b5b0492506020810190505b662386f26fc10000831061048657662386f26fc10000838161047c5761047b610aed565b5b0492506010810190505b6305f5e10083106104af576305f5e10083816104a5576104a4610aed565b5b0492506008810190505b61271083106104d45761271083816104ca576104c9610aed565b5b0492506004810190505b606483106104f757606483816104ed576104ec610aed565b5b0492506002810190505b600a8310610506576001810190505b80915050919050565b5f604051905090565b5f5ffd5b5f5ffd5b5f73ffffffffffffffffffffffffffffffffffffffff82169050919050565b5f61054982610520565b9050919050565b6105598161053f565b8114610563575f5ffd5b50565b5f8135905061057481610550565b92915050565b5f819050919050565b61058c8161057a565b8114610596575f5ffd5b50565b5f813590506105a781610583565b92915050565b5f5ffd5b5f5ffd5b5f601f19601f8301169050919050565b7f4e487b71000000000000000000000000000000000000000000000000000000005f52604160045260245ffd5b6105fb826105b5565b810181811067ffffffffffffffff8211171561061a576106196105c5565b5b80604052505050565b5f61062c61050f565b905061063882826105f2565b919050565b5f67ffffffffffffffff821115610657576106566105c5565b5b610660826105b5565b9050602081019050919050565b828183375f83830152505050565b5f61068d6106888461063d565b610623565b9050828152602081018484840111156106a9576106a86105b1565b5b6106b484828561066d565b509392505050565b5f82601f8301126106d0576106cf6105ad565b5b81356106e084826020860161067b565b91505092915050565b5f67ffffffffffffffff821115610703576107026105c5565b5b61070c826105b5565b9050602081019050919050565b5f61072b610726846106e9565b610623565b905082815260208101848484011115610747576107466105b1565b5b61075284828561066d565b509392505050565b5f82601f83011261076e5761076d6105ad565b5b813561077e848260208601610719565b91505092915050565b5f5f5f5f6080858703121561079f5761079e610518565b5b5f6107ac87828801610566565b94505060206107bd87828801610599565b935050604085013567ffffffffffffffff8111156107de576107dd61051c565b5b6107ea878288016106bc565b925050606085013567ffffffffffffffff81111561080b5761080a61051c565b5b6108178782880161075a565b91505092959194509250565b5f5f5f5f5f60a0868803121561083c5761083b610518565b5b5f61084988828901610566565b955050602061085a88828901610566565b945050604061086b88828901610599565b935050606086013567ffffffffffffffff81111561088c5761088b61051c565b5b610898888289016106bc565b925050608086013567ffffffffffffffff8111156108b9576108b861051c565b5b6108c58882890161075a565b9150509295509295909350565b6108db8161053f565b82525050565b6108ea8161057a565b82525050565b5f6040820190506109035f8301856108d2565b61091060208301846108e1565b9392505050565b5f60608201905061092a5f8301866108d2565b61093760208301856108d2565b61094460408301846108e1565b949350505050565b5f819050919050565b61095e8161094c565b82525050565b5f60ff82169050919050565b61097981610964565b82525050565b5f6080820190506109925f830187610955565b61099f6020830186610970565b6109ac6040830185610955565b6109b96060830184610955565b95945050505050565b5f81905092915050565b7f19457468657265756d205369676e6564204d6573736167653a0a0000000000005f82015250565b5f610a00601a836109c2565b9150610a0b826109cc565b601a82019050919050565b5f81519050919050565b8281835e5f83830152505050565b5f610a3882610a16565b610a4281856109c2565b9350610a52818560208601610a20565b80840191505092915050565b5f610a68826109f4565b9150610a748285610a2e565b9150610a808284610a2e565b91508190509392505050565b7f4e487b71000000000000000000000000000000000000000000000000000000005f52601160045260245ffd5b5f610ac382610964565b9150610ace83610964565b9250828201905060ff811115610ae757610ae6610a8c565b5b92915050565b7f4e487b71000000000000000000000000000000000000000000000000000000005f52601260045260245ffdfea2646970667358221220da6ab9741054a8c27b1e661f74d639cffdffd7e2fd4b972f653bd0941025512564736f6c634300081e0033",
			"opcodes": "PUSH1 0x80 PUSH1 0x40 MSTORE CALLVALUE DUP1 ISZERO PUSH2 0xF JUMPI PUSH0 PUSH0 REVERT JUMPDEST POP PUSH1 0x40 MLOAD PUSH2 0xC5C CODESIZE SUB DUP1 PUSH2 0xC5C DUP4 CODECOPY DUP2 DUP2 ADD PUSH1 0x40 MSTORE DUP2 ADD SWAP1 PUSH2 0x31 SWAP2 SWAP1 PUSH2 0xD4 JUMP JUMPDEST DUP1 PUSH0 PUSH0 PUSH2 0x100 EXP DUP2 SLOAD DUP2 PUSH20 0xFFFFFFFFFFFFFFFFFFFFFFFFFFFFFFFFFFFFFFFF MUL NOT AND SWAP1 DUP4 PUSH20 0xFFFFFFFFFFFFFFFFFFFFFFFFFFFFFFFFFFFFFFFF AND MUL OR SWAP1 SSTORE POP POP PUSH2 0xFF JUMP JUMPDEST PUSH0 PUSH0 REVERT JUMPDEST PUSH0 PUSH20 0xFFFFFFFFFFFFFFFFFFFFFFFFFFFFFFFFFFFFFFFF DUP3 AND SWAP1 POP SWAP2 SWAP1 POP JUMP JUMPDEST PUSH0 PUSH2 0xA3 DUP3 PUSH2 0x7A JUMP JUMPDEST SWAP1 POP SWAP2 SWAP1 POP JUMP JUMPDEST PUSH2 0xB3 DUP2 PUSH2 0x99 JUMP JUMPDEST DUP2 EQ PUSH2 0xBD JUMPI PUSH0 PUSH0 REVERT JUMPDEST POP JUMP JUMPDEST PUSH0 DUP2 MLOAD SWAP1 POP PUSH2 0xCE DUP2 PUSH2 0xAA JUMP JUMPDEST SWAP3 SWAP2 POP POP JUMP JUMPDEST PUSH0 PUSH1 0x20 DUP3 DUP5 SUB SLT ISZERO PUSH2 0xE9 JUMPI PUSH2 0xE8 PUSH2 0x76 JUMP JUMPDEST JUMPDEST PUSH0 PUSH2 0xF6 DUP5 DUP3 DUP6 ADD PUSH2 0xC0 JUMP JUMPDEST SWAP2 POP POP SWAP3 SWAP2 POP POP JUMP JUMPDEST PUSH2 0xB50 DUP1 PUSH2 0x10C PUSH0 CODECOPY PUSH0 RETURN INVALID PUSH1 0x80 PUSH1 0x40 MSTORE CALLVALUE DUP1 ISZERO PUSH2 0xF JUMPI PUSH0 PUSH0 REVERT JUMPDEST POP PUSH1 0x4 CALLDATASIZE LT PUSH2 0x34 JUMPI PUSH0 CALLDATALOAD PUSH1 0xE0 SHR DUP1 PUSH4 0xD2B04FD6 EQ PUSH2 0x38 JUMPI DUP1 PUSH4 0xF4DE7A29 EQ PUSH2 0x54 JUMPI JUMPDEST PUSH0 PUSH0 REVERT JUMPDEST PUSH2 0x52 PUSH1 0x4 DUP1 CALLDATASIZE SUB DUP2 ADD SWAP1 PUSH2 0x4D SWAP2 SWAP1 PUSH2 0x787 JUMP JUMPDEST PUSH2 0x70 JUMP JUMPDEST STOP JUMPDEST PUSH2 0x6E PUSH1 0x4 DUP1 CALLDATASIZE SUB DUP2 ADD SWAP1 PUSH2 0x69 SWAP2 SWAP1 PUSH2 0x823 JUMP JUMPDEST PUSH2 0x109 JUMP JUMPDEST STOP JUMPDEST PUSH2 0x7B DUP5 DUP4 DUP4 PUSH2 0x1A5 JUMP JUMPDEST PUSH0 PUSH0 SWAP1 SLOAD SWAP1 PUSH2 0x100 EXP SWAP1 DIV PUSH20 0xFFFFFFFFFFFFFFFFFFFFFFFFFFFFFFFFFFFFFFFF AND PUSH20 0xFFFFFFFFFFFFFFFFFFFFFFFFFFFFFFFFFFFFFFFF AND PUSH4 0x40C10F19 DUP6 DUP6 PUSH1 0x40 MLOAD DUP4 PUSH4 0xFFFFFFFF AND PUSH1 0xE0 SHL DUP2 MSTORE PUSH1 0x4 ADD PUSH2 0xD6 SWAP3 SWAP2 SWAP1 PUSH2 0x8F0 JUMP JUMPDEST PUSH0 PUSH1 0x40 MLOAD DUP1 DUP4 SUB DUP2 PUSH0 DUP8 DUP1 EXTCODESIZE ISZERO DUP1 ISZERO PUSH2 0xED JUMPI PUSH0 PUSH0 REVERT JUMPDEST POP GAS CALL ISZERO DUP1 ISZERO PUSH2 0xFF JUMPI RETURNDATASIZE PUSH0 PUSH0 RETURNDATACOPY RETURNDATASIZE PUSH0 REVERT JUMPDEST POP POP POP POP POP POP POP POP JUMP JUMPDEST PUSH2 0x114 DUP6 DUP4 DUP4 PUSH2 0x1A5 JUMP JUMPDEST PUSH0 PUSH0 SWAP1 SLOAD SWAP1 PUSH2 0x100 EXP SWAP1 DIV PUSH20 0xFFFFFFFFFFFFFFFFFFFFFFFFFFFFFFFFFFFFFFFF AND PUSH20 0xFFFFFFFFFFFFFFFFFFFFFFFFFFFFFFFFFFFFFFFF AND PUSH4 0xBEABACC8 DUP7 DUP7 DUP7 PUSH1 0x40 MLOAD DUP5 PUSH4 0xFFFFFFFF AND PUSH1 0xE0 SHL DUP2 MSTORE PUSH1 0x4 ADD PUSH2 0x171 SWAP4 SWAP3 SWAP2 SWAP1 PUSH2 0x917 JUMP JUMPDEST PUSH0 PUSH1 0x40 MLOAD DUP1 DUP4 SUB DUP2 PUSH0 DUP8 DUP1 EXTCODESIZE ISZERO DUP1 ISZERO PUSH2 0x188 JUMPI PUSH0 PUSH0 REVERT JUMPDEST POP GAS CALL ISZERO DUP1 ISZERO PUSH2 0x19A JUMPI RETURNDATASIZE PUSH0 PUSH0 RETURNDATACOPY RETURNDATASIZE PUSH0 REVERT JUMPDEST POP POP POP POP POP POP POP POP POP JUMP JUMPDEST PUSH0 PUSH2 0x1AF DUP4 PUSH2 0x24E JUMP JUMPDEST SWAP1 POP PUSH0 PUSH0 PUSH0 PUSH2 0x1BD DUP6 PUSH2 0x28D JUMP JUMPDEST SWAP3 POP SWAP3 POP SWAP3 POP PUSH1 0x1 DUP5 DUP3 DUP6 DUP6 PUSH1 0x40 MLOAD PUSH0 DUP2 MSTORE PUSH1 0x20 ADD PUSH1 0x40 MSTORE PUSH1 0x40 MLOAD PUSH2 0x1E5 SWAP5 SWAP4 SWAP3 SWAP2 SWAP1 PUSH2 0x97F JUMP JUMPDEST PUSH1 0x20 PUSH1 0x40 MLOAD PUSH1 0x20 DUP2 SUB SWAP1 DUP1 DUP5 SUB SWAP1 DUP6 GAS STATICCALL ISZERO DUP1 ISZERO PUSH2 0x205 JUMPI RETURNDATASIZE PUSH0 PUSH0 RETURNDATACOPY RETURNDATASIZE PUSH0 REVERT JUMPDEST POP POP POP PUSH1 0x20 PUSH1 0x40 MLOAD SUB MLOAD PUSH20 0xFFFFFFFFFFFFFFFFFFFFFFFFFFFFFFFFFFFFFFFF AND DUP8 PUSH20 0xFFFFFFFFFFFFFFFFFFFFFFFFFFFFFFFFFFFFFFFF AND EQ PUSH2 0x245 JUMPI PUSH0 PUSH0 REVERT JUMPDEST POP POP POP POP POP POP POP JUMP JUMPDEST PUSH0 PUSH0 DUP3 MLOAD SWAP1 POP PUSH2 0x25D DUP2 PUSH2 0x2F4 JUMP JUMPDEST DUP4 PUSH1 0x40 MLOAD PUSH1 0x20 ADD PUSH2 0x26F SWAP3 SWAP2 SWAP1 PUSH2 0xA5E JUMP JUMPDEST PUSH1 0x40 MLOAD PUSH1 0x20 DUP2 DUP4 SUB SUB DUP2 MSTORE SWAP1 PUSH1 0x40 MSTORE DUP1 MLOAD SWAP1 PUSH1 0x20 ADD KECCAK256 SWAP2 POP POP SWAP2 SWAP1 POP JUMP JUMPDEST PUSH0 PUSH0 PUSH0 PUSH1 0x41 DUP5 MLOAD EQ PUSH2 0x29D JUMPI PUSH0 PUSH0 REVERT JUMPDEST PUSH1 0x20 DUP5 ADD MLOAD SWAP3 POP PUSH1 0x40 DUP5 ADD MLOAD SWAP2 POP PUSH1 0x60 DUP5 ADD MLOAD PUSH0 BYTE SWAP1 POP PUSH1 0x1B DUP2 PUSH1 0xFF AND LT ISZERO PUSH2 0x2ED JUMPI PUSH1 0x1B DUP2 PUSH2 0x2CD SWAP2 SWAP1 PUSH2 0xAB9 JUMP JUMPDEST SWAP1 POP PUSH1 0x1B DUP2 PUSH1 0xFF AND EQ DUP1 PUSH2 0x2E4 JUMPI POP PUSH1 0x1C DUP2 PUSH1 0xFF AND EQ JUMPDEST PUSH2 0x2EC JUMPI PUSH0 PUSH0 REVERT JUMPDEST JUMPDEST SWAP2 SWAP4 SWAP1 SWAP3 POP JUMP JUMPDEST PUSH1 0x60 PUSH0 PUSH1 0x1 PUSH2 0x302 DUP5 PUSH2 0x3BE JUMP JUMPDEST ADD SWAP1 POP PUSH0 DUP2 PUSH8 0xFFFFFFFFFFFFFFFF DUP2 GT ISZERO PUSH2 0x320 JUMPI PUSH2 0x31F PUSH2 0x5C5 JUMP JUMPDEST JUMPDEST PUSH1 0x40 MLOAD SWAP1 DUP1 DUP3 MSTORE DUP1 PUSH1 0x1F ADD PUSH1 0x1F NOT AND PUSH1 0x20 ADD DUP3 ADD PUSH1 0x40 MSTORE DUP1 ISZERO PUSH2 0x352 JUMPI DUP2 PUSH1 0x20 ADD PUSH1 0x1 DUP3 MUL DUP1 CALLDATASIZE DUP4 CALLDATACOPY DUP1 DUP3 ADD SWAP2 POP POP SWAP1 POP JUMPDEST POP SWAP1 POP PUSH0 DUP3 PUSH1 0x20 DUP4 ADD ADD SWAP1 POP JUMPDEST PUSH1 0x1 ISZERO PUSH2 0x3B3 JUMPI DUP1 DUP1 PUSH1 0x1 SWAP1 SUB SWAP2 POP POP PUSH32 0x3031323334353637383961626364656600000000000000000000000000000000 PUSH1 0xA DUP7 MOD BYTE DUP2 MSTORE8 PUSH1 0xA DUP6 DUP2 PUSH2 0x3A8 JUMPI PUSH2 0x3A7 PUSH2 0xAED JUMP JUMPDEST JUMPDEST DIV SWAP5 POP PUSH0 DUP6 SUB PUSH2 0x35F JUMPI JUMPDEST DUP2 SWAP4 POP POP POP POP SWAP2 SWAP1 POP JUMP JUMPDEST PUSH0 PUSH0 PUSH0 SWAP1 POP PUSH27 0x184F03E93FF9F4DAA797ED6E38ED64BF6A1F010000000000000000 DUP4 LT PUSH2 0x41A JUMPI PUSH27 0x184F03E93FF9F4DAA797ED6E38ED64BF6A1F010000000000000000 DUP4 DUP2 PUSH2 0x410 JUMPI PUSH2 0x40F PUSH2 0xAED JUMP JUMPDEST JUMPDEST DIV SWAP3 POP PUSH1 0x40 DUP2 ADD SWAP1 POP JUMPDEST PUSH14 0x4EE2D6D415B85ACEF8100000000 DUP4 LT PUSH2 0x457 JUMPI PUSH14 0x4EE2D6D415B85ACEF8100000000 DUP4 DUP2 PUSH2 0x44D JUMPI PUSH2 0x44C PUSH2 0xAED JUMP JUMPDEST JUMPDEST DIV SWAP3 POP PUSH1 0x20 DUP2 ADD SWAP1 POP JUMPDEST PUSH7 0x2386F26FC10000 DUP4 LT PUSH2 0x486 JUMPI PUSH7 0x2386F26FC10000 DUP4 DUP2 PUSH2 0x47C JUMPI PUSH2 0x47B PUSH2 0xAED JUMP JUMPDEST JUMPDEST DIV SWAP3 POP PUSH1 0x10 DUP2 ADD SWAP1 POP JUMPDEST PUSH4 0x5F5E100 DUP4 LT PUSH2 0x4AF JUMPI PUSH4 0x5F5E100 DUP4 DUP2 PUSH2 0x4A5 JUMPI PUSH2 0x4A4 PUSH2 0xAED JUMP JUMPDEST JUMPDEST DIV SWAP3 POP PUSH1 0x8 DUP2 ADD SWAP1 POP JUMPDEST PUSH2 0x2710 DUP4 LT PUSH2 0x4D4 JUMPI PUSH2 0x2710 DUP4 DUP2 PUSH2 0x4CA JUMPI PUSH2 0x4C9 PUSH2 0xAED JUMP JUMPDEST JUMPDEST DIV SWAP3 POP PUSH1 0x4 DUP2 ADD SWAP1 POP JUMPDEST PUSH1 0x64 DUP4 LT PUSH2 0x4F7 JUMPI PUSH1 0x64 DUP4 DUP2 PUSH2 0x4ED JUMPI PUSH2 0x4EC PUSH2 0xAED JUMP JUMPDEST JUMPDEST DIV SWAP3 POP PUSH1 0x2 DUP2 ADD SWAP1 POP JUMPDEST PUSH1 0xA DUP4 LT PUSH2 0x506 JUMPI PUSH1 0x1 DUP2 ADD SWAP1 POP JUMPDEST DUP1 SWAP2 POP POP SWAP2 SWAP1 POP JUMP JUMPDEST PUSH0 PUSH1 0x40 MLOAD SWAP1 POP SWAP1 JUMP JUMPDEST PUSH0 PUSH0 REVERT JUMPDEST PUSH0 PUSH0 REVERT JUMPDEST PUSH0 PUSH20 0xFFFFFFFFFFFFFFFFFFFFFFFFFFFFFFFFFFFFFFFF DUP3 AND SWAP1 POP SWAP2 SWAP1 POP JUMP JUMPDEST PUSH0 PUSH2 0x549 DUP3 PUSH2 0x520 JUMP JUMPDEST SWAP1 POP SWAP2 SWAP1 POP JUMP JUMPDEST PUSH2 0x559 DUP2 PUSH2 0x53F JUMP JUMPDEST DUP2 EQ PUSH2 0x563 JUMPI PUSH0 PUSH0 REVERT JUMPDEST POP JUMP JUMPDEST PUSH0 DUP2 CALLDATALOAD SWAP1 POP PUSH2 0x574 DUP2 PUSH2 0x550 JUMP JUMPDEST SWAP3 SWAP2 POP POP JUMP JUMPDEST PUSH0 DUP2 SWAP1 POP SWAP2 SWAP1 POP JUMP JUMPDEST PUSH2 0x58C DUP2 PUSH2 0x57A JUMP JUMPDEST DUP2 EQ PUSH2 0x596 JUMPI PUSH0 PUSH0 REVERT JUMPDEST POP JUMP JUMPDEST PUSH0 DUP2 CALLDATALOAD SWAP1 POP PUSH2 0x5A7 DUP2 PUSH2 0x583 JUMP JUMPDEST SWAP3 SWAP2 POP POP JUMP JUMPDEST PUSH0 PUSH0 REVERT JUMPDEST PUSH0 PUSH0 REVERT JUMPDEST PUSH0 PUSH1 0x1F NOT PUSH1 0x1F DUP4 ADD AND SWAP1 POP SWAP2 SWAP1 POP JUMP JUMPDEST PUSH32 0x4E487B7100000000000000000000000000000000000000000000000000000000 PUSH0 MSTORE PUSH1 0x41 PUSH1 0x4 MSTORE PUSH1 0x24 PUSH0 REVERT JUMPDEST PUSH2 0x5FB DUP3 PUSH2 0x5B5 JUMP JUMPDEST DUP2 ADD DUP2 DUP2 LT PUSH8 0xFFFFFFFFFFFFFFFF DUP3 GT OR ISZERO PUSH2 0x61A JUMPI PUSH2 0x619 PUSH2 0x5C5 JUMP JUMPDEST JUMPDEST DUP1 PUSH1 0x40 MSTORE POP POP POP JUMP JUMPDEST PUSH0 PUSH2 0x62C PUSH2 0x50F JUMP JUMPDEST SWAP1 POP PUSH2 0x638 DUP3 DUP3 PUSH2 0x5F2 JUMP JUMPDEST SWAP2 SWAP1 POP JUMP JUMPDEST PUSH0 PUSH8 0xFFFFFFFFFFFFFFFF DUP3 GT ISZERO PUSH2 0x657 JUMPI PUSH2 0x656 PUSH2 0x5C5 JUMP JUMPDEST JUMPDEST PUSH2 0x660 DUP3 PUSH2 0x5B5 JUMP JUMPDEST SWAP1 POP PUSH1 0x20 DUP2 ADD SWAP1 POP SWAP2 SWAP1 POP JUMP JUMPDEST DUP3 DUP2 DUP4 CALLDATACOPY PUSH0 DUP4 DUP4 ADD MSTORE POP POP POP JUMP JUMPDEST PUSH0 PUSH2 0x68D PUSH2 0x688 DUP5 PUSH2 0x63D JUMP JUMPDEST PUSH2 0x623 JUMP JUMPDEST SWAP1 POP DUP3 DUP2 MSTORE PUSH1 0x20 DUP2 ADD DUP5 DUP5 DUP5 ADD GT ISZERO PUSH2 0x6A9 JUMPI PUSH2 0x6A8 PUSH2 0x5B1 JUMP JUMPDEST JUMPDEST PUSH2 0x6B4 DUP5 DUP3 DUP6 PUSH2 0x66D JUMP JUMPDEST POP SWAP4 SWAP3 POP POP POP JUMP JUMPDEST PUSH0 DUP3 PUSH1 0x1F DUP4 ADD SLT PUSH2 0x6D0 JUMPI PUSH2 0x6CF PUSH2 0x5AD JUMP JUMPDEST JUMPDEST DUP2 CALLDATALOAD PUSH2 0x6E0 DUP5 DUP3 PUSH1 0x20 DUP7 ADD PUSH2 0x67B JUMP JUMPDEST SWAP2 POP POP SWAP3 SWAP2 POP POP JUMP JUMPDEST PUSH0 PUSH8 0xFFFFFFFFFFFFFFFF DUP3 GT ISZERO PUSH2 0x703 JUMPI PUSH2 0x702 PUSH2 0x5C5 JUMP JUMPDEST JUMPDEST PUSH2 0x70C DUP3 PUSH2 0x5B5 JUMP JUMPDEST SWAP1 POP PUSH1 0x20 DUP2 ADD SWAP1 POP SWAP2 SWAP1 POP JUMP JUMPDEST PUSH0 PUSH2 0x72B PUSH2 0x726 DUP5 PUSH2 0x6E9 JUMP JUMPDEST PUSH2 0x623 JUMP JUMPDEST SWAP1 POP DUP3 DUP2 MSTORE PUSH1 0x20 DUP2 ADD DUP5 DUP5 DUP5 ADD GT ISZERO PUSH2 0x747 JUMPI PUSH2 0x746 PUSH2 0x5B1 JUMP JUMPDEST JUMPDEST PUSH2 0x752 DUP5 DUP3 DUP6 PUSH2 0x66D JUMP JUMPDEST POP SWAP4 SWAP3 POP POP POP JUMP JUMPDEST PUSH0 DUP3 PUSH1 0x1F DUP4 ADD SLT PUSH2 0x76E JUMPI PUSH2 0x76D PUSH2 0x5AD JUMP JUMPDEST JUMPDEST DUP2 CALLDATALOAD PUSH2 0x77E DUP5 DUP3 PUSH1 0x20 DUP7 ADD PUSH2 0x719 JUMP JUMPDEST SWAP2 POP POP SWAP3 SWAP2 POP POP JUMP JUMPDEST PUSH0 PUSH0 PUSH0 PUSH0 PUSH1 0x80 DUP6 DUP8 SUB SLT ISZERO PUSH2 0x79F JUMPI PUSH2 0x79E PUSH2 0x518 JUMP JUMPDEST JUMPDEST PUSH0 PUSH2 0x7AC DUP8 DUP3 DUP9 ADD PUSH2 0x566 JUMP JUMPDEST SWAP5 POP POP PUSH1 0x20 PUSH2 0x7BD DUP8 DUP3 DUP9 ADD PUSH2 0x599 JUMP JUMPDEST SWAP4 POP POP PUSH1 0x40 DUP6 ADD CALLDATALOAD PUSH8 0xFFFFFFFFFFFFFFFF DUP2 GT ISZERO PUSH2 0x7DE JUMPI PUSH2 0x7DD PUSH2 0x51C JUMP JUMPDEST JUMPDEST PUSH2 0x7EA DUP8 DUP3 DUP9 ADD PUSH2 0x6BC JUMP JUMPDEST SWAP3 POP POP PUSH1 0x60 DUP6 ADD CALLDATALOAD PUSH8 0xFFFFFFFFFFFFFFFF DUP2 GT ISZERO PUSH2 0x80B JUMPI PUSH2 0x80A PUSH2 0x51C JUMP JUMPDEST JUMPDEST PUSH2 0x817 DUP8 DUP3 DUP9 ADD PUSH2 0x75A JUMP JUMPDEST SWAP2 POP POP SWAP3 SWAP6 SWAP2 SWAP5 POP SWAP3 POP JUMP JUMPDEST PUSH0 PUSH0 PUSH0 PUSH0 PUSH0 PUSH1 0xA0 DUP7 DUP9 SUB SLT ISZERO PUSH2 0x83C JUMPI PUSH2 0x83B PUSH2 0x518 JUMP JUMPDEST JUMPDEST PUSH0 PUSH2 0x849 DUP9 DUP3 DUP10 ADD PUSH2 0x566 JUMP JUMPDEST SWAP6 POP POP PUSH1 0x20 PUSH2 0x85A DUP9 DUP3 DUP10 ADD PUSH2 0x566 JUMP JUMPDEST SWAP5 POP POP PUSH1 0x40 PUSH2 0x86B DUP9 DUP3 DUP10 ADD PUSH2 0x599 JUMP JUMPDEST SWAP4 POP POP PUSH1 0x60 DUP7 ADD CALLDATALOAD PUSH8 0xFFFFFFFFFFFFFFFF DUP2 GT ISZERO PUSH2 0x88C JUMPI PUSH2 0x88B PUSH2 0x51C JUMP JUMPDEST JUMPDEST PUSH2 0x898 DUP9 DUP3 DUP10 ADD PUSH2 0x6BC JUMP JUMPDEST SWAP3 POP POP PUSH1 0x80 DUP7 ADD CALLDATALOAD PUSH8 0xFFFFFFFFFFFFFFFF DUP2 GT ISZERO PUSH2 0x8B9 JUMPI PUSH2 0x8B8 PUSH2 0x51C JUMP JUMPDEST JUMPDEST PUSH2 0x8C5 DUP9 DUP3 DUP10 ADD PUSH2 0x75A JUMP JUMPDEST SWAP2 POP POP SWAP3 SWAP6 POP SWAP3 SWAP6 SWAP1 SWAP4 POP JUMP JUMPDEST PUSH2 0x8DB DUP2 PUSH2 0x53F JUMP JUMPDEST DUP3 MSTORE POP POP JUMP JUMPDEST PUSH2 0x8EA DUP2 PUSH2 0x57A JUMP JUMPDEST DUP3 MSTORE POP POP JUMP JUMPDEST PUSH0 PUSH1 0x40 DUP3 ADD SWAP1 POP PUSH2 0x903 PUSH0 DUP4 ADD DUP6 PUSH2 0x8D2 JUMP JUMPDEST PUSH2 0x910 PUSH1 0x20 DUP4 ADD DUP5 PUSH2 0x8E1 JUMP JUMPDEST SWAP4 SWAP3 POP POP POP JUMP JUMPDEST PUSH0 PUSH1 0x60 DUP3 ADD SWAP1 POP PUSH2 0x92A PUSH0 DUP4 ADD DUP7 PUSH2 0x8D2 JUMP JUMPDEST PUSH2 0x937 PUSH1 0x20 DUP4 ADD DUP6 PUSH2 0x8D2 JUMP JUMPDEST PUSH2 0x944 PUSH1 0x40 DUP4 ADD DUP5 PUSH2 0x8E1 JUMP JUMPDEST SWAP5 SWAP4 POP POP POP POP JUMP JUMPDEST PUSH0 DUP2 SWAP1 POP SWAP2 SWAP1 POP JUMP JUMPDEST PUSH2 0x95E DUP2 PUSH2 0x94C JUMP JUMPDEST DUP3 MSTORE POP POP JUMP JUMPDEST PUSH0 PUSH1 0xFF DUP3 AND SWAP1 POP SWAP2 SWAP1 POP JUMP JUMPDEST PUSH2 0x979 DUP2 PUSH2 0x964 JUMP JUMPDEST DUP3 MSTORE POP POP JUMP JUMPDEST PUSH0 PUSH1 0x80 DUP3 ADD SWAP1 POP PUSH2 0x992 PUSH0 DUP4 ADD DUP8 PUSH2 0x955 JUMP JUMPDEST PUSH2 0x99F PUSH1 0x20 DUP4 ADD DUP7 PUSH2 0x970 JUMP JUMPDEST PUSH2 0x9AC PUSH1 0x40 DUP4 ADD DUP6 PUSH2 0x955 JUMP JUMPDEST PUSH2 0x9B9 PUSH1 0x60 DUP4 ADD DUP5 PUSH2 0x955 JUMP JUMPDEST SWAP6 SWAP5 POP POP POP POP POP JUMP JUMPDEST PUSH0 DUP2 SWAP1 POP SWAP3 SWAP2 POP POP JUMP JUMPDEST PUSH32 0x19457468657265756D205369676E6564204D6573736167653A0A000000000000 PUSH0 DUP3 ADD MSTORE POP JUMP JUMPDEST PUSH0 PUSH2 0xA00 PUSH1 0x1A DUP4 PUSH2 0x9C2 JUMP JUMPDEST SWAP2 POP PUSH2 0xA0B DUP3 PUSH2 0x9CC JUMP JUMPDEST PUSH1 0x1A DUP3 ADD SWAP1 POP SWAP2 SWAP1 POP JUMP JUMPDEST PUSH0 DUP2 MLOAD SWAP1 POP SWAP2 SWAP1 POP JUMP JUMPDEST DUP3 DUP2 DUP4 MCOPY PUSH0 DUP4 DUP4 ADD MSTORE POP POP POP JUMP JUMPDEST PUSH0 PUSH2 0xA38 DUP3 PUSH2 0xA16 JUMP JUMPDEST PUSH2 0xA42 DUP2 DUP6 PUSH2 0x9C2 JUMP JUMPDEST SWAP4 POP PUSH2 0xA52 DUP2 DUP6 PUSH1 0x20 DUP7 ADD PUSH2 0xA20 JUMP JUMPDEST DUP1 DUP5 ADD SWAP2 POP POP SWAP3 SWAP2 POP POP JUMP JUMPDEST PUSH0 PUSH2 0xA68 DUP3 PUSH2 0x9F4 JUMP JUMPDEST SWAP2 POP PUSH2 0xA74 DUP3 DUP6 PUSH2 0xA2E JUMP JUMPDEST SWAP2 POP PUSH2 0xA80 DUP3 DUP5 PUSH2 0xA2E JUMP JUMPDEST SWAP2 POP DUP2 SWAP1 POP SWAP4 SWAP3 POP POP POP JUMP JUMPDEST PUSH32 0x4E487B7100000000000000000000000000000000000000000000000000000000 PUSH0 MSTORE PUSH1 0x11 PUSH1 0x4 MSTORE PUSH1 0x24 PUSH0 REVERT JUMPDEST PUSH0 PUSH2 0xAC3 DUP3 PUSH2 0x964 JUMP JUMPDEST SWAP2 POP PUSH2 0xACE DUP4 PUSH2 0x964 JUMP JUMPDEST SWAP3 POP DUP3 DUP3 ADD SWAP1 POP PUSH1 0xFF DUP2 GT ISZERO PUSH2 0xAE7 JUMPI PUSH2 0xAE6 PUSH2 0xA8C JUMP JUMPDEST JUMPDEST SWAP3 SWAP2 POP POP JUMP JUMPDEST PUSH32 0x4E487B7100000000000000000000000000000000000000000000000000000000 PUSH0 MSTORE PUSH1 0x12 PUSH1 0x4 MSTORE PUSH1 0x24 PUSH0 REVERT INVALID LOG2 PUSH5 0x6970667358 0x22 SLT KECCAK256 0xDA PUSH11 0xB9741054A8C27B1E661F74 0xD6 CODECOPY 0xCF REVERT SELFDESTRUCT 0xD7 0xE2 REVERT 0x4B SWAP8 0x2F PUSH6 0x3BD094102551 0x25 PUSH5 0x736F6C6343 STOP ADDMOD 0x1E STOP CALLER "
		},
		"gasEstimates": {
			"creation": {
				"codeDepositCost": "579200",
				"executionCost": "infinite",
				"totalCost": "infinite"
			},
			"external": {
				"Send(address,address,uint256,string,bytes)": "infinite",
				"mint(address,uint256,string,bytes)": "infinite"
			},
			"internal": {
				"_Signtxn(address,string memory,bytes memory)": "infinite",
				"_getEthSignMsgHash(string memory)": "infinite",
				"_splitSign(bytes memory)": "infinite"
			}
		},
		"methodIdentifiers": {
			"Send(address,address,uint256,string,bytes)": "f4de7a29",
			"mint(address,uint256,string,bytes)": "d2b04fd6"
		}
	},
	"abi": [
		{
			"inputs": [
				{
					"internalType": "address",
					"name": "_CA",
					"type": "address"
				}
			],
			"stateMutability": "nonpayable",
			"type": "constructor"
		},
		{
			"inputs": [
				{
					"internalType": "address",
					"name": "sender",
					"type": "address"
				},
				{
					"internalType": "address",
					"name": "sendto",
					"type": "address"
				},
				{
					"internalType": "uint256",
					"name": "amount",
					"type": "uint256"
				},
				{
					"internalType": "string",
					"name": "message",
					"type": "string"
				},
				{
					"internalType": "bytes",
					"name": "signature",
					"type": "bytes"
				}
			],
			"name": "Send",
			"outputs": [],
			"stateMutability": "nonpayable",
			"type": "function"
		},
		{
			"inputs": [
				{
					"internalType": "address",
					"name": "accounts",
					"type": "address"
				},
				{
					"internalType": "uint256",
					"name": "tokens",
					"type": "uint256"
				},
				{
					"internalType": "string",
					"name": "messages",
					"type": "string"
				},
				{
					"internalType": "bytes",
					"name": "signature",
					"type": "bytes"
				}
			],
			"name": "mint",
			"outputs": [],
			"stateMutability": "nonpayable",
			"type": "function"
		}
	]
}