{
	"data": {
		"bytecode": {
			"linkReferences": {},
			"object": "60806040526040518060600160405280602881526020016150aa60289139600a908161002b919061046a565b50348015610037575f5ffd5b5033600a805461004690610291565b80601f016020809104026020016040519081016040528092919081815260200182805461007290610291565b80156100bd5780601f10610094576101008083540402835291602001916100bd565b820191905f5260205f20905b8154815290600101906020018083116100a057829003601f168201915b50505050506100d18161015760201b60201c565b505f73ffffffffffffffffffffffffffffffffffffffff168173ffffffffffffffffffffffffffffffffffffffff1603610142575f6040517f1e4fbdf70000000000000000000000000000000000000000000000000000000081526004016101399190610578565b60405180910390fd5b6101518161016a60201b60201c565b50610591565b8060029081610166919061046a565b5050565b5f60035f9054906101000a900473ffffffffffffffffffffffffffffffffffffffff1690508160035f6101000a81548173ffffffffffffffffffffffffffffffffffffffff021916908373ffffffffffffffffffffffffffffffffffffffff1602179055508173ffffffffffffffffffffffffffffffffffffffff168173ffffffffffffffffffffffffffffffffffffffff167f8be0079c531659141344cd1fd0a4f28419497f9722a3daafe3b4186f6b6457e060405160405180910390a35050565b5f81519050919050565b7f4e487b71000000000000000000000000000000000000000000000000000000005f52604160045260245ffd5b7f4e487b71000000000000000000000000000000000000000000000000000000005f52602260045260245ffd5b5f60028204905060018216806102a857607f821691505b6020821081036102bb576102ba610264565b5b50919050565b5f819050815f5260205f209050919050565b5f6020601f8301049050919050565b5f82821b905092915050565b5f6008830261031d7fffffffffffffffffffffffffffffffffffffffffffffffffffffffffffffffff826102e2565b61032786836102e2565b95508019841693508086168417925050509392505050565b5f819050919050565b5f819050919050565b5f61036b6103666103618461033f565b610348565b61033f565b9050919050565b5f819050919050565b61038483610351565b61039861039082610372565b8484546102ee565b825550505050565b5f5f905090565b6103af6103a0565b6103ba81848461037b565b505050565b5b818110156103dd576103d25f826103a7565b6001810190506103c0565b5050565b601f821115610422576103f3816102c1565b6103fc846102d3565b8101602085101561040b578190505b61041f610417856102d3565b8301826103bf565b50505b505050565b5f82821c905092915050565b5f6104425f1984600802610427565b1980831691505092915050565b5f61045a8383610433565b9150826002028217905092915050565b6104738261022d565b67ffffffffffffffff81111561048c5761048b610237565b5b6104968254610291565b6104a18282856103e1565b5f60209050601f8311600181146104d2575f84156104c0578287015190505b6104ca858261044f565b865550610531565b601f1984166104e0866102c1565b5f5b82811015610507578489015182556001820191506020850194506020810190506104e2565b868310156105245784890151610520601f891682610433565b8355505b6001600288020188555050505b505050505050565b5f73ffffffffffffffffffffffffffffffffffffffff82169050919050565b5f61056282610539565b9050919050565b61057281610558565b82525050565b5f60208201905061058b5f830184610569565b92915050565b614b0c8061059e5f395ff3fe608060405234801561000f575f5ffd5b50600436106101c0575f3560e01c80638da5cb5b116100f7578063d80a08da11610095578063ed498fa81161006f578063ed498fa81461059c578063f23a6e61146105cc578063f242432a146105fc578063f2fde38b14610618576101c0565b8063d80a08da14610534578063e356777414610550578063e985e9c51461056c576101c0565b8063b901fed5116100d1578063b901fed514610486578063bc197c81146104a4578063cc0a48d4146104d4578063d50bcc7114610504576101c0565b80638da5cb5b1461041b5780639145d13314610439578063a22cb4651461046a576101c0565b80634e1273f411610164578063681bec6c1161013e578063681bec6c14610394578063715018a6146103c557806375388a0f146103cf578063813d2ad8146103ff576101c0565b80634e1273f4146103025780635491a99f146103325780635c80a43514610362576101c0565b80630e89341c116101a05780630e89341c146102555780632b04e840146102855780632eb2c2d6146102b5578063434a49a1146102d1576101c0565b80628b96a1146101c4578062fdd58e146101f557806301ffc9a714610225575b5f5ffd5b6101de60048036038101906101d9919061313b565b610634565b6040516101ec9291906131b4565b60405180910390f35b61020f600480360381019061020a9190613205565b610682565b60405161021c9190613243565b60405180910390f35b61023f600480360381019061023a91906132b1565b6106d7565b60405161024c91906132f6565b60405180910390f35b61026f600480360381019061026a919061313b565b610750565b60405161027c919061337f565b60405180910390f35b61029f600480360381019061029a9190613205565b610835565b6040516102ac9190613243565b60405180910390f35b6102cf60048036038101906102ca919061358f565b610848565b005b6102eb60048036038101906102e6919061365a565b6108ef565b6040516102f992919061373c565b60405180910390f35b61031c60048036038101906103179190613831565b610af9565b60405161032991906138a7565b60405180910390f35b61034c60048036038101906103479190613205565b610c03565b6040516103599190613916565b60405180910390f35b61037c60048036038101906103779190613205565b610cd2565b60405161038b9392919061392f565b60405180910390f35b6103ae60048036038101906103a9919061365a565b610d22565b6040516103bc92919061373c565b60405180910390f35b6103cd610f2c565b005b6103e960048036038101906103e49190613205565b610f3f565b6040516103f69190613243565b60405180910390f35b61041960048036038101906104149190613964565b610f95565b005b61042361124f565b60405161043091906139a2565b60405180910390f35b610453600480360381019061044e9190613205565b611277565b6040516104619291906139bb565b60405180910390f35b610484600480360381019061047f9190613a0c565b6113ab565b005b61048e6113c1565b60405161049b9190613b1f565b60405180910390f35b6104be60048036038101906104b99190613bed565b61147b565b6040516104cb9190613cd3565b60405180910390f35b6104ee60048036038101906104e99190613d8a565b611492565b6040516104fb9190613243565b60405180910390f35b61051e6004803603810190610519919061365a565b611550565b60405161052b9190613243565b60405180910390f35b61054e60048036038101906105499190613de4565b611599565b005b61056a60048036038101906105659190613e48565b611a0c565b005b61058660048036038101906105819190613eac565b611d0e565b60405161059391906132f6565b60405180910390f35b6105b660048036038101906105b1919061365a565b611d9c565b6040516105c391906138a7565b60405180910390f35b6105e660048036038101906105e19190613eea565b611e2f565b6040516105f39190613cd3565b60405180910390f35b61061660048036038101906106119190613f80565b611e44565b005b610632600480360381019061062d919061365a565b611eeb565b005b60088181548110610643575f80fd5b905f5260205f2090600202015f91509050805f015f9054906101000a900473ffffffffffffffffffffffffffffffffffffffff16908060010154905082565b5f5f5f8381526020019081526020015f205f8473ffffffffffffffffffffffffffffffffffffffff1673ffffffffffffffffffffffffffffffffffffffff1681526020019081526020015f2054905092915050565b5f7f4e2312e0000000000000000000000000000000000000000000000000000000007bffffffffffffffffffffffffffffffffffffffffffffffffffffffff1916827bffffffffffffffffffffffffffffffffffffffffffffffffffffffff19161480610749575061074882611f6f565b5b9050919050565b60605f60075f8481526020019081526020015f20805461076f90614040565b80601f016020809104026020016040519081016040528092919081815260200182805461079b90614040565b80156107e65780601f106107bd576101008083540402835291602001916107e6565b820191905f5260205f20905b8154815290600101906020018083116107c957829003601f168201915b505050505090505f815111156107ff5780915050610830565b5f61080984612050565b90508060405160200161081c919061413e565b604051602081830303815290604052925050505b919050565b5f6108408383610682565b905092915050565b5f61085161211a565b90508073ffffffffffffffffffffffffffffffffffffffff168673ffffffffffffffffffffffffffffffffffffffff161415801561089657506108948682611d0e565b155b156108da5780866040517fe237d9220000000000000000000000000000000000000000000000000000000081526004016108d192919061416a565b60405180910390fd5b6108e78686868686612121565b505050505050565b6060805f60065f8573ffffffffffffffffffffffffffffffffffffffff1673ffffffffffffffffffffffffffffffffffffffff1681526020019081526020015f2080548060200260200160405190810160405280929190818152602001828054801561097857602002820191905f5260205f20905b815481526020019060010190808311610964575b50505050509050805167ffffffffffffffff81111561099a576109996133a3565b5b6040519080825280602002602001820160405280156109c85781602001602082028036833780820191505090505b509250805167ffffffffffffffff8111156109e6576109e56133a3565b5b604051908082528060200260200182016040528015610a145781602001602082028036833780820191505090505b5091505f5f90505b8151811015610af257818181518110610a3857610a37614191565b5b6020026020010151848281518110610a5357610a52614191565b5b60200260200101818152505060055f8673ffffffffffffffffffffffffffffffffffffffff1673ffffffffffffffffffffffffffffffffffffffff1681526020019081526020015f205f838381518110610ab057610aaf614191565b5b602002602001015181526020019081526020015f2054838281518110610ad957610ad8614191565b5b6020026020010181815250508080600101915050610a1c565b5050915091565b60608151835114610b4557815183516040517f5b059991000000000000000000000000000000000000000000000000000000008152600401610b3c9291906139bb565b60405180910390fd5b5f835167ffffffffffffffff811115610b6157610b606133a3565b5b604051908082528060200260200182016040528015610b8f5781602001602082028036833780820191505090505b5090505f5f90505b8451811015610bf857610bce610bb6828761221590919063ffffffff16565b610bc9838761222890919063ffffffff16565b610682565b828281518110610be157610be0614191565b5b602002602001018181525050806001019050610b97565b508091505092915050565b610c0b6130c3565b60045f8473ffffffffffffffffffffffffffffffffffffffff1673ffffffffffffffffffffffffffffffffffffffff1681526020019081526020015f205f8381526020019081526020015f206040518060600160405290815f82015f9054906101000a900473ffffffffffffffffffffffffffffffffffffffff1673ffffffffffffffffffffffffffffffffffffffff1673ffffffffffffffffffffffffffffffffffffffff16815260200160018201548152602001600282015481525050905092915050565b6004602052815f5260405f20602052805f5260405f205f9150915050805f015f9054906101000a900473ffffffffffffffffffffffffffffffffffffffff16908060010154908060020154905083565b6060805f60065f8573ffffffffffffffffffffffffffffffffffffffff1673ffffffffffffffffffffffffffffffffffffffff1681526020019081526020015f20805480602002602001604051908101604052809291908181526020018280548015610dab57602002820191905f5260205f20905b815481526020019060010190808311610d97575b50505050509050805167ffffffffffffffff811115610dcd57610dcc6133a3565b5b604051908082528060200260200182016040528015610dfb5781602001602082028036833780820191505090505b509250805167ffffffffffffffff811115610e1957610e186133a3565b5b604051908082528060200260200182016040528015610e475781602001602082028036833780820191505090505b5091505f5f90505b8151811015610f2557818181518110610e6b57610e6a614191565b5b6020026020010151848281518110610e8657610e85614191565b5b60200260200101818152505060055f8673ffffffffffffffffffffffffffffffffffffffff1673ffffffffffffffffffffffffffffffffffffffff1681526020019081526020015f205f838381518110610ee357610ee2614191565b5b602002602001015181526020019081526020015f2054838281518110610f0c57610f0b614191565b5b6020026020010181815250508080600101915050610e4f565b5050915091565b610f3461223b565b610f3d5f6122c2565b565b5f60055f8473ffffffffffffffffffffffffffffffffffffffff1673ffffffffffffffffffffffffffffffffffffffff1681526020019081526020015f205f8381526020019081526020015f2054905092915050565b5f60045f8373ffffffffffffffffffffffffffffffffffffffff1673ffffffffffffffffffffffffffffffffffffffff1681526020019081526020015f205f8481526020019081526020015f206040518060600160405290815f82015f9054906101000a900473ffffffffffffffffffffffffffffffffffffffff1673ffffffffffffffffffffffffffffffffffffffff1673ffffffffffffffffffffffffffffffffffffffff1681526020016001820154815260200160028201548152505090508173ffffffffffffffffffffffffffffffffffffffff16815f015173ffffffffffffffffffffffffffffffffffffffff16146110c8576040517f08c379a00000000000000000000000000000000000000000000000000000000081526004016110bf90614208565b60405180910390fd5b5f73ffffffffffffffffffffffffffffffffffffffff16815f015173ffffffffffffffffffffffffffffffffffffffff1603611139576040517f08c379a000000000000000000000000000000000000000000000000000000000815260040161113090614270565b60405180910390fd5b611158308385846020015160405180602001604052805f815250612385565b806020015160055f8473ffffffffffffffffffffffffffffffffffffffff1673ffffffffffffffffffffffffffffffffffffffff1681526020019081526020015f205f8581526020019081526020015f205f8282546111b791906142bb565b925050819055506111c8828461248b565b60045f8373ffffffffffffffffffffffffffffffffffffffff1673ffffffffffffffffffffffffffffffffffffffff1681526020019081526020015f205f8481526020019081526020015f205f5f82015f6101000a81549073ffffffffffffffffffffffffffffffffffffffff0219169055600182015f9055600282015f90555050505050565b5f60035f9054906101000a900473ffffffffffffffffffffffffffffffffffffffff16905090565b5f5f60065f8573ffffffffffffffffffffffffffffffffffffffff1673ffffffffffffffffffffffffffffffffffffffff1681526020019081526020015f208054905083106112fb576040517f08c379a00000000000000000000000000000000000000000000000000000000081526004016112f290614338565b60405180910390fd5b60065f8573ffffffffffffffffffffffffffffffffffffffff1673ffffffffffffffffffffffffffffffffffffffff1681526020019081526020015f20838154811061134a57611349614191565b5b905f5260205f200154915060055f8573ffffffffffffffffffffffffffffffffffffffff1673ffffffffffffffffffffffffffffffffffffffff1681526020019081526020015f205f8381526020019081526020015f205490509250929050565b6113bd6113b661211a565b838361253e565b5050565b60606008805480602002602001604051908101604052809291908181526020015f905b82821015611472578382905f5260205f2090600202016040518060400160405290815f82015f9054906101000a900473ffffffffffffffffffffffffffffffffffffffff1673ffffffffffffffffffffffffffffffffffffffff1673ffffffffffffffffffffffffffffffffffffffff168152602001600182015481525050815260200190600101906113e4565b50505050905090565b5f63bc197c8160e01b905098975050505050505050565b5f5f60095490506114b48382606460405180602001604052805f8152506126a7565b8360075f8381526020019081526020015f2090816114d291906144f6565b50606460055f8573ffffffffffffffffffffffffffffffffffffffff1673ffffffffffffffffffffffffffffffffffffffff1681526020019081526020015f205f8381526020019081526020015f208190555061152f838261248b565b60095f815480929190611541906145c5565b91905055508091505092915050565b5f60065f8373ffffffffffffffffffffffffffffffffffffffff1673ffffffffffffffffffffffffffffffffffffffff1681526020019081526020015f20805490509050919050565b816115a48585610682565b10156115e5576040517f08c379a00000000000000000000000000000000000000000000000000000000081526004016115dc90614656565b60405180910390fd5b5f8111611627576040517f08c379a000000000000000000000000000000000000000000000000000000000815260040161161e906146be565b60405180910390fd5b5f73ffffffffffffffffffffffffffffffffffffffff1660045f8673ffffffffffffffffffffffffffffffffffffffff1673ffffffffffffffffffffffffffffffffffffffff1681526020019081526020015f205f8581526020019081526020015f205f015f9054906101000a900473ffffffffffffffffffffffffffffffffffffffff1673ffffffffffffffffffffffffffffffffffffffff1614611702576040517f08c379a00000000000000000000000000000000000000000000000000000000081526004016116f990614726565b60405180910390fd5b5f8211611744576040517f08c379a000000000000000000000000000000000000000000000000000000000815260040161173b9061478e565b60405180910390fd5b8160055f8673ffffffffffffffffffffffffffffffffffffffff1673ffffffffffffffffffffffffffffffffffffffff1681526020019081526020015f205f8581526020019081526020015f205410156117d3576040517f08c379a00000000000000000000000000000000000000000000000000000000081526004016117ca906147f6565b60405180910390fd5b6117ee8430858560405180602001604052805f815250612385565b8160055f8673ffffffffffffffffffffffffffffffffffffffff1673ffffffffffffffffffffffffffffffffffffffff1681526020019081526020015f205f8581526020019081526020015f205f8282546118499190614814565b9250508190555060405180606001604052808573ffffffffffffffffffffffffffffffffffffffff1681526020018381526020018281525060045f8673ffffffffffffffffffffffffffffffffffffffff1673ffffffffffffffffffffffffffffffffffffffff1681526020019081526020015f205f8581526020019081526020015f205f820151815f015f6101000a81548173ffffffffffffffffffffffffffffffffffffffff021916908373ffffffffffffffffffffffffffffffffffffffff1602179055506020820151816001015560408201518160020155905050600860405180604001604052808673ffffffffffffffffffffffffffffffffffffffff16815260200185815250908060018154018082558091505060019003905f5260205f2090600202015f909190919091505f820151815f015f6101000a81548173ffffffffffffffffffffffffffffffffffffffff021916908373ffffffffffffffffffffffffffffffffffffffff1602179055506020820151816001015550507feba8cee8f0a2ab7b4cc8e75d10eae88eb6b625a15419821b6676d03a57ad77628483836040516119fe9392919061392f565b60405180910390a150505050565b5f60045f8673ffffffffffffffffffffffffffffffffffffffff1673ffffffffffffffffffffffffffffffffffffffff1681526020019081526020015f205f8481526020019081526020015f206040518060600160405290815f82015f9054906101000a900473ffffffffffffffffffffffffffffffffffffffff1673ffffffffffffffffffffffffffffffffffffffff1673ffffffffffffffffffffffffffffffffffffffff16815260200160018201548152602001600282015481525050905081816040015114611b14576040517f08c379a0000000000000000000000000000000000000000000000000000000008152600401611b0b90614891565b60405180910390fd5b805f015173ffffffffffffffffffffffffffffffffffffffff168473ffffffffffffffffffffffffffffffffffffffff1603611b85576040517f08c379a0000000000000000000000000000000000000000000000000000000008152600401611b7c906148f9565b60405180910390fd5b5f73ffffffffffffffffffffffffffffffffffffffff16815f015173ffffffffffffffffffffffffffffffffffffffff1603611bf6576040517f08c379a0000000000000000000000000000000000000000000000000000000008152600401611bed90614270565b60405180910390fd5b611c15308585846020015160405180602001604052805f815250612385565b806020015160055f8673ffffffffffffffffffffffffffffffffffffffff1673ffffffffffffffffffffffffffffffffffffffff1681526020019081526020015f205f8581526020019081526020015f205f828254611c7491906142bb565b92505081905550611c85848461248b565b60045f8673ffffffffffffffffffffffffffffffffffffffff1673ffffffffffffffffffffffffffffffffffffffff1681526020019081526020015f205f8481526020019081526020015f205f5f82015f6101000a81549073ffffffffffffffffffffffffffffffffffffffff0219169055600182015f9055600282015f905550505050505050565b5f60015f8473ffffffffffffffffffffffffffffffffffffffff1673ffffffffffffffffffffffffffffffffffffffff1681526020019081526020015f205f8373ffffffffffffffffffffffffffffffffffffffff1673ffffffffffffffffffffffffffffffffffffffff1681526020019081526020015f205f9054906101000a900460ff16905092915050565b606060065f8373ffffffffffffffffffffffffffffffffffffffff1673ffffffffffffffffffffffffffffffffffffffff1681526020019081526020015f20805480602002602001604051908101604052809291908181526020018280548015611e2357602002820191905f5260205f20905b815481526020019060010190808311611e0f575b50505050509050919050565b5f63f23a6e6160e01b90509695505050505050565b5f611e4d61211a565b90508073ffffffffffffffffffffffffffffffffffffffff168673ffffffffffffffffffffffffffffffffffffffff1614158015611e925750611e908682611d0e565b155b15611ed65780866040517fe237d922000000000000000000000000000000000000000000000000000000008152600401611ecd92919061416a565b60405180910390fd5b611ee38686868686612385565b505050505050565b611ef361223b565b5f73ffffffffffffffffffffffffffffffffffffffff168173ffffffffffffffffffffffffffffffffffffffff1603611f63575f6040517f1e4fbdf7000000000000000000000000000000000000000000000000000000008152600401611f5a91906139a2565b60405180910390fd5b611f6c816122c2565b50565b5f7fd9b67a26000000000000000000000000000000000000000000000000000000007bffffffffffffffffffffffffffffffffffffffffffffffffffffffff1916827bffffffffffffffffffffffffffffffffffffffffffffffffffffffff1916148061203957507f0e89341c000000000000000000000000000000000000000000000000000000007bffffffffffffffffffffffffffffffffffffffffffffffffffffffff1916827bffffffffffffffffffffffffffffffffffffffffffffffffffffffff1916145b8061204957506120488261273c565b5b9050919050565b60605f600161205e846127a5565b0190505f8167ffffffffffffffff81111561207c5761207b6133a3565b5b6040519080825280601f01601f1916602001820160405280156120ae5781602001600182028036833780820191505090505b5090505f82602083010190505b60011561210f578080600190039150507f3031323334353637383961626364656600000000000000000000000000000000600a86061a8153600a858161210457612103614917565b5b0494505f85036120bb575b819350505050919050565b5f33905090565b5f73ffffffffffffffffffffffffffffffffffffffff168473ffffffffffffffffffffffffffffffffffffffff1603612191575f6040517f57f447ce00000000000000000000000000000000000000000000000000000000815260040161218891906139a2565b60405180910390fd5b5f73ffffffffffffffffffffffffffffffffffffffff168573ffffffffffffffffffffffffffffffffffffffff1603612201575f6040517f01a835140000000000000000000000000000000000000000000000000000000081526004016121f891906139a2565b60405180910390fd5b61220e85858585856128f6565b5050505050565b5f60208202602084010151905092915050565b5f60208202602084010151905092915050565b61224361211a565b73ffffffffffffffffffffffffffffffffffffffff1661226161124f565b73ffffffffffffffffffffffffffffffffffffffff16146122c05761228461211a565b6040517f118cdaa70000000000000000000000000000000000000000000000000000000081526004016122b791906139a2565b60405180910390fd5b565b5f60035f9054906101000a900473ffffffffffffffffffffffffffffffffffffffff1690508160035f6101000a81548173ffffffffffffffffffffffffffffffffffffffff021916908373ffffffffffffffffffffffffffffffffffffffff1602179055508173ffffffffffffffffffffffffffffffffffffffff168173ffffffffffffffffffffffffffffffffffffffff167f8be0079c531659141344cd1fd0a4f28419497f9722a3daafe3b4186f6b6457e060405160405180910390a35050565b5f73ffffffffffffffffffffffffffffffffffffffff168473ffffffffffffffffffffffffffffffffffffffff16036123f5575f6040517f57f447ce0000000000000000000000000000000000000000000000000000000081526004016123ec91906139a2565b60405180910390fd5b5f73ffffffffffffffffffffffffffffffffffffffff168573ffffffffffffffffffffffffffffffffffffffff1603612465575f6040517f01a8351400000000000000000000000000000000000000000000000000000000815260040161245c91906139a2565b60405180910390fd5b5f5f61247185856129a2565b9150915061248287878484876128f6565b50505050505050565b5f60065f8473ffffffffffffffffffffffffffffffffffffffff1673ffffffffffffffffffffffffffffffffffffffff1681526020019081526020015f2090505f5f90505b818054905081101561251257828282815481106124f0576124ef614191565b5b905f5260205f2001540361250557505061253a565b80806001019150506124d0565b508082908060018154018082558091505060019003905f5260205f20015f9091909190915055505b5050565b5f73ffffffffffffffffffffffffffffffffffffffff168273ffffffffffffffffffffffffffffffffffffffff16036125ae575f6040517fced3e1000000000000000000000000000000000000000000000000000000000081526004016125a591906139a2565b60405180910390fd5b8060015f8573ffffffffffffffffffffffffffffffffffffffff1673ffffffffffffffffffffffffffffffffffffffff1681526020019081526020015f205f8473ffffffffffffffffffffffffffffffffffffffff1673ffffffffffffffffffffffffffffffffffffffff1681526020019081526020015f205f6101000a81548160ff0219169083151502179055508173ffffffffffffffffffffffffffffffffffffffff168373ffffffffffffffffffffffffffffffffffffffff167f17307eab39ab6107e8899845ad3d59bd9653f200f220920489ca2b5937696c318360405161269a91906132f6565b60405180910390a3505050565b5f73ffffffffffffffffffffffffffffffffffffffff168473ffffffffffffffffffffffffffffffffffffffff1603612717575f6040517f57f447ce00000000000000000000000000000000000000000000000000000000815260040161270e91906139a2565b60405180910390fd5b5f5f61272385856129a2565b915091506127345f878484876128f6565b505050505050565b5f7f01ffc9a7000000000000000000000000000000000000000000000000000000007bffffffffffffffffffffffffffffffffffffffffffffffffffffffff1916827bffffffffffffffffffffffffffffffffffffffffffffffffffffffff1916149050919050565b5f5f5f90507a184f03e93ff9f4daa797ed6e38ed64bf6a1f0100000000000000008310612801577a184f03e93ff9f4daa797ed6e38ed64bf6a1f01000000000000000083816127f7576127f6614917565b5b0492506040810190505b6d04ee2d6d415b85acef8100000000831061283e576d04ee2d6d415b85acef8100000000838161283457612833614917565b5b0492506020810190505b662386f26fc10000831061286d57662386f26fc10000838161286357612862614917565b5b0492506010810190505b6305f5e1008310612896576305f5e100838161288c5761288b614917565b5b0492506008810190505b61271083106128bb5761271083816128b1576128b0614917565b5b0492506004810190505b606483106128de57606483816128d4576128d3614917565b5b0492506002810190505b600a83106128ed576001810190505b80915050919050565b612902858585856129d2565b5f73ffffffffffffffffffffffffffffffffffffffff168473ffffffffffffffffffffffffffffffffffffffff161461299b575f61293e61211a565b9050600184510361298a575f61295d5f8661222890919063ffffffff16565b90505f6129735f8661222890919063ffffffff16565b9050612983838989858589612d65565b5050612999565b612998818787878787612f14565b5b505b5050505050565b60608060405191506001825283602083015260408201905060018152826020820152604081016040529250929050565b8051825114612a1c57815181516040517f5b059991000000000000000000000000000000000000000000000000000000008152600401612a139291906139bb565b60405180910390fd5b5f612a2561211a565b90505f5f90505b8351811015612c24575f612a49828661222890919063ffffffff16565b90505f612a5f838661222890919063ffffffff16565b90505f73ffffffffffffffffffffffffffffffffffffffff168873ffffffffffffffffffffffffffffffffffffffff1614612b82575f5f5f8481526020019081526020015f205f8a73ffffffffffffffffffffffffffffffffffffffff1673ffffffffffffffffffffffffffffffffffffffff1681526020019081526020015f2054905081811015612b2e57888183856040517f03dee4c5000000000000000000000000000000000000000000000000000000008152600401612b259493929190614944565b60405180910390fd5b8181035f5f8581526020019081526020015f205f8b73ffffffffffffffffffffffffffffffffffffffff1673ffffffffffffffffffffffffffffffffffffffff1681526020019081526020015f2081905550505b5f73ffffffffffffffffffffffffffffffffffffffff168773ffffffffffffffffffffffffffffffffffffffff1614612c1757805f5f8481526020019081526020015f205f8973ffffffffffffffffffffffffffffffffffffffff1673ffffffffffffffffffffffffffffffffffffffff1681526020019081526020015f205f828254612c0f91906142bb565b925050819055505b5050806001019050612a2c565b506001835103612cdf575f612c425f8561222890919063ffffffff16565b90505f612c585f8561222890919063ffffffff16565b90508573ffffffffffffffffffffffffffffffffffffffff168773ffffffffffffffffffffffffffffffffffffffff168473ffffffffffffffffffffffffffffffffffffffff167fc3d58168c5ae7397731d063d5bbf3d657854427343f4c083240f7aacaa2d0f628585604051612cd09291906139bb565b60405180910390a45050612d5e565b8373ffffffffffffffffffffffffffffffffffffffff168573ffffffffffffffffffffffffffffffffffffffff168273ffffffffffffffffffffffffffffffffffffffff167f4a39dc06d4c0dbc64b70af90fd698a233a518aa5d07e595d983b8c0526c8f7fb8686604051612d5592919061373c565b60405180910390a45b5050505050565b5f8473ffffffffffffffffffffffffffffffffffffffff163b1115612f0c578373ffffffffffffffffffffffffffffffffffffffff1663f23a6e6187878686866040518663ffffffff1660e01b8152600401612dc59594939291906149d9565b6020604051808303815f875af1925050508015612e0057506040513d601f19601f82011682018060405250810190612dfd9190614a45565b60015b612e81573d805f8114612e2e576040519150601f19603f3d011682016040523d82523d5f602084013e612e33565b606091505b505f815103612e7957846040517f57f447ce000000000000000000000000000000000000000000000000000000008152600401612e7091906139a2565b60405180910390fd5b805160208201fd5b63f23a6e6160e01b7bffffffffffffffffffffffffffffffffffffffffffffffffffffffff1916817bffffffffffffffffffffffffffffffffffffffffffffffffffffffff191614612f0a57846040517f57f447ce000000000000000000000000000000000000000000000000000000008152600401612f0191906139a2565b60405180910390fd5b505b505050505050565b5f8473ffffffffffffffffffffffffffffffffffffffff163b11156130bb578373ffffffffffffffffffffffffffffffffffffffff1663bc197c8187878686866040518663ffffffff1660e01b8152600401612f74959493929190614a70565b6020604051808303815f875af1925050508015612faf57506040513d601f19601f82011682018060405250810190612fac9190614a45565b60015b613030573d805f8114612fdd576040519150601f19603f3d011682016040523d82523d5f602084013e612fe2565b606091505b505f81510361302857846040517f57f447ce00000000000000000000000000000000000000000000000000000000815260040161301f91906139a2565b60405180910390fd5b805160208201fd5b63bc197c8160e01b7bffffffffffffffffffffffffffffffffffffffffffffffffffffffff1916817bffffffffffffffffffffffffffffffffffffffffffffffffffffffff1916146130b957846040517f57f447ce0000000000000000000000000000000000000000000000000000000081526004016130b091906139a2565b60405180910390fd5b505b505050505050565b60405180606001604052805f73ffffffffffffffffffffffffffffffffffffffff1681526020015f81526020015f81525090565b5f604051905090565b5f5ffd5b5f5ffd5b5f819050919050565b61311a81613108565b8114613124575f5ffd5b50565b5f8135905061313581613111565b92915050565b5f602082840312156131505761314f613100565b5b5f61315d84828501613127565b91505092915050565b5f73ffffffffffffffffffffffffffffffffffffffff82169050919050565b5f61318f82613166565b9050919050565b61319f81613185565b82525050565b6131ae81613108565b82525050565b5f6040820190506131c75f830185613196565b6131d460208301846131a5565b9392505050565b6131e481613185565b81146131ee575f5ffd5b50565b5f813590506131ff816131db565b92915050565b5f5f6040838503121561321b5761321a613100565b5b5f613228858286016131f1565b925050602061323985828601613127565b9150509250929050565b5f6020820190506132565f8301846131a5565b92915050565b5f7fffffffff0000000000000000000000000000000000000000000000000000000082169050919050565b6132908161325c565b811461329a575f5ffd5b50565b5f813590506132ab81613287565b92915050565b5f602082840312156132c6576132c5613100565b5b5f6132d38482850161329d565b91505092915050565b5f8115159050919050565b6132f0816132dc565b82525050565b5f6020820190506133095f8301846132e7565b92915050565b5f81519050919050565b5f82825260208201905092915050565b8281835e5f83830152505050565b5f601f19601f8301169050919050565b5f6133518261330f565b61335b8185613319565b935061336b818560208601613329565b61337481613337565b840191505092915050565b5f6020820190508181035f8301526133978184613347565b905092915050565b5f5ffd5b7f4e487b71000000000000000000000000000000000000000000000000000000005f52604160045260245ffd5b6133d982613337565b810181811067ffffffffffffffff821117156133f8576133f76133a3565b5b80604052505050565b5f61340a6130f7565b905061341682826133d0565b919050565b5f67ffffffffffffffff821115613435576134346133a3565b5b602082029050602081019050919050565b5f5ffd5b5f61345c6134578461341b565b613401565b9050808382526020820190506020840283018581111561347f5761347e613446565b5b835b818110156134a857806134948882613127565b845260208401935050602081019050613481565b5050509392505050565b5f82601f8301126134c6576134c561339f565b5b81356134d684826020860161344a565b91505092915050565b5f5ffd5b5f67ffffffffffffffff8211156134fd576134fc6133a3565b5b61350682613337565b9050602081019050919050565b828183375f83830152505050565b5f61353361352e846134e3565b613401565b90508281526020810184848401111561354f5761354e6134df565b5b61355a848285613513565b509392505050565b5f82601f8301126135765761357561339f565b5b8135613586848260208601613521565b91505092915050565b5f5f5f5f5f60a086880312156135a8576135a7613100565b5b5f6135b5888289016131f1565b95505060206135c6888289016131f1565b945050604086013567ffffffffffffffff8111156135e7576135e6613104565b5b6135f3888289016134b2565b935050606086013567ffffffffffffffff81111561361457613613613104565b5b613620888289016134b2565b925050608086013567ffffffffffffffff81111561364157613640613104565b5b61364d88828901613562565b9150509295509295909350565b5f6020828403121561366f5761366e613100565b5b5f61367c848285016131f1565b91505092915050565b5f81519050919050565b5f82825260208201905092915050565b5f819050602082019050919050565b6136b781613108565b82525050565b5f6136c883836136ae565b60208301905092915050565b5f602082019050919050565b5f6136ea82613685565b6136f4818561368f565b93506136ff8361369f565b805f5b8381101561372f57815161371688826136bd565b9750613721836136d4565b925050600181019050613702565b5085935050505092915050565b5f6040820190508181035f83015261375481856136e0565b9050818103602083015261376881846136e0565b90509392505050565b5f67ffffffffffffffff82111561378b5761378a6133a3565b5b602082029050602081019050919050565b5f6137ae6137a984613771565b613401565b905080838252602082019050602084028301858111156137d1576137d0613446565b5b835b818110156137fa57806137e688826131f1565b8452602084019350506020810190506137d3565b5050509392505050565b5f82601f8301126138185761381761339f565b5b813561382884826020860161379c565b91505092915050565b5f5f6040838503121561384757613846613100565b5b5f83013567ffffffffffffffff81111561386457613863613104565b5b61387085828601613804565b925050602083013567ffffffffffffffff81111561389157613890613104565b5b61389d858286016134b2565b9150509250929050565b5f6020820190508181035f8301526138bf81846136e0565b905092915050565b6138d081613185565b82525050565b606082015f8201516138ea5f8501826138c7565b5060208201516138fd60208501826136ae565b50604082015161391060408501826136ae565b50505050565b5f6060820190506139295f8301846138d6565b92915050565b5f6060820190506139425f830186613196565b61394f60208301856131a5565b61395c60408301846131a5565b949350505050565b5f5f6040838503121561397a57613979613100565b5b5f61398785828601613127565b9250506020613998858286016131f1565b9150509250929050565b5f6020820190506139b55f830184613196565b92915050565b5f6040820190506139ce5f8301856131a5565b6139db60208301846131a5565b9392505050565b6139eb816132dc565b81146139f5575f5ffd5b50565b5f81359050613a06816139e2565b92915050565b5f5f60408385031215613a2257613a21613100565b5b5f613a2f858286016131f1565b9250506020613a40858286016139f8565b9150509250929050565b5f81519050919050565b5f82825260208201905092915050565b5f819050602082019050919050565b604082015f820151613a875f8501826138c7565b506020820151613a9a60208501826136ae565b50505050565b5f613aab8383613a73565b60408301905092915050565b5f602082019050919050565b5f613acd82613a4a565b613ad78185613a54565b9350613ae283613a64565b805f5b83811015613b12578151613af98882613aa0565b9750613b0483613ab7565b925050600181019050613ae5565b5085935050505092915050565b5f6020820190508181035f830152613b378184613ac3565b905092915050565b5f5ffd5b5f5f83601f840112613b5857613b5761339f565b5b8235905067ffffffffffffffff811115613b7557613b74613b3f565b5b602083019150836020820283011115613b9157613b90613446565b5b9250929050565b5f5f83601f840112613bad57613bac61339f565b5b8235905067ffffffffffffffff811115613bca57613bc9613b3f565b5b602083019150836001820283011115613be657613be5613446565b5b9250929050565b5f5f5f5f5f5f5f5f60a0898b031215613c0957613c08613100565b5b5f613c168b828c016131f1565b9850506020613c278b828c016131f1565b975050604089013567ffffffffffffffff811115613c4857613c47613104565b5b613c548b828c01613b43565b9650965050606089013567ffffffffffffffff811115613c7757613c76613104565b5b613c838b828c01613b43565b9450945050608089013567ffffffffffffffff811115613ca657613ca5613104565b5b613cb28b828c01613b98565b92509250509295985092959890939650565b613ccd8161325c565b82525050565b5f602082019050613ce65f830184613cc4565b92915050565b5f67ffffffffffffffff821115613d0657613d056133a3565b5b613d0f82613337565b9050602081019050919050565b5f613d2e613d2984613cec565b613401565b905082815260208101848484011115613d4a57613d496134df565b5b613d55848285613513565b509392505050565b5f82601f830112613d7157613d7061339f565b5b8135613d81848260208601613d1c565b91505092915050565b5f5f60408385031215613da057613d9f613100565b5b5f83013567ffffffffffffffff811115613dbd57613dbc613104565b5b613dc985828601613d5d565b9250506020613dda858286016131f1565b9150509250929050565b5f5f5f5f60808587031215613dfc57613dfb613100565b5b5f613e09878288016131f1565b9450506020613e1a87828801613127565b9350506040613e2b87828801613127565b9250506060613e3c87828801613127565b91505092959194509250565b5f5f5f5f60808587031215613e6057613e5f613100565b5b5f613e6d878288016131f1565b9450506020613e7e878288016131f1565b9350506040613e8f87828801613127565b9250506060613ea087828801613127565b91505092959194509250565b5f5f60408385031215613ec257613ec1613100565b5b5f613ecf858286016131f1565b9250506020613ee0858286016131f1565b9150509250929050565b5f5f5f5f5f5f60a08789031215613f0457613f03613100565b5b5f613f1189828a016131f1565b9650506020613f2289828a016131f1565b9550506040613f3389828a01613127565b9450506060613f4489828a01613127565b935050608087013567ffffffffffffffff811115613f6557613f64613104565b5b613f7189828a01613b98565b92509250509295509295509295565b5f5f5f5f5f60a08688031215613f9957613f98613100565b5b5f613fa6888289016131f1565b9550506020613fb7888289016131f1565b9450506040613fc888828901613127565b9350506060613fd988828901613127565b925050608086013567ffffffffffffffff811115613ffa57613ff9613104565b5b61400688828901613562565b9150509295509295909350565b7f4e487b71000000000000000000000000000000000000000000000000000000005f52602260045260245ffd5b5f600282049050600182168061405757607f821691505b60208210810361406a57614069614013565b5b50919050565b5f81905092915050565b7f68747470733a2f2f6d7970726f6a6563742e636f6d2f6d657461646174612f005f82015250565b5f6140ae601f83614070565b91506140b98261407a565b601f82019050919050565b5f6140ce8261330f565b6140d88185614070565b93506140e8818560208601613329565b80840191505092915050565b7f2e6a736f6e0000000000000000000000000000000000000000000000000000005f82015250565b5f614128600583614070565b9150614133826140f4565b600582019050919050565b5f614148826140a2565b915061415482846140c4565b915061415f8261411c565b915081905092915050565b5f60408201905061417d5f830185613196565b61418a6020830184613196565b9392505050565b7f4e487b71000000000000000000000000000000000000000000000000000000005f52603260045260245ffd5b7f4f6e6c792073656c6c65722063616e2063616e63656c000000000000000000005f82015250565b5f6141f2601683613319565b91506141fd826141be565b602082019050919050565b5f6020820190508181035f83015261421f816141e6565b9050919050565b7f4e4654206e6f7420666f722073616c65000000000000000000000000000000005f82015250565b5f61425a601083613319565b915061426582614226565b602082019050919050565b5f6020820190508181035f8301526142878161424e565b9050919050565b7f4e487b71000000000000000000000000000000000000000000000000000000005f52601160045260245ffd5b5f6142c582613108565b91506142d083613108565b92508282019050808211156142e8576142e761428e565b5b92915050565b7f496e646578206f7574206f6620626f756e6473000000000000000000000000005f82015250565b5f614322601383613319565b915061432d826142ee565b602082019050919050565b5f6020820190508181035f83015261434f81614316565b9050919050565b5f819050815f5260205f209050919050565b5f6020601f8301049050919050565b5f82821b905092915050565b5f600883026143b27fffffffffffffffffffffffffffffffffffffffffffffffffffffffffffffffff82614377565b6143bc8683614377565b95508019841693508086168417925050509392505050565b5f819050919050565b5f6143f76143f26143ed84613108565b6143d4565b613108565b9050919050565b5f819050919050565b614410836143dd565b61442461441c826143fe565b848454614383565b825550505050565b5f5f905090565b61443b61442c565b614446818484614407565b505050565b5b818110156144695761445e5f82614433565b60018101905061444c565b5050565b601f8211156144ae5761447f81614356565b61448884614368565b81016020851015614497578190505b6144ab6144a385614368565b83018261444b565b50505b505050565b5f82821c905092915050565b5f6144ce5f19846008026144b3565b1980831691505092915050565b5f6144e683836144bf565b9150826002028217905092915050565b6144ff8261330f565b67ffffffffffffffff811115614518576145176133a3565b5b6145228254614040565b61452d82828561446d565b5f60209050601f83116001811461455e575f841561454c578287015190505b61455685826144db565b8655506145bd565b601f19841661456c86614356565b5f5b828110156145935784890151825560018201915060208501945060208101905061456e565b868310156145b057848901516145ac601f8916826144bf565b8355505b6001600288020188555050505b505050505050565b5f6145cf82613108565b91507fffffffffffffffffffffffffffffffffffffffffffffffffffffffffffffffff82036146015761460061428e565b5b600182019050919050565b7f496e73756666696369656e7420746f6b656e73000000000000000000000000005f82015250565b5f614640601383613319565b915061464b8261460c565b602082019050919050565b5f6020820190508181035f83015261466d81614634565b9050919050565b7f5072696365206d7573742062652067726561746572207468616e2030000000005f82015250565b5f6146a8601c83613319565b91506146b382614674565b602082019050919050565b5f6020820190508181035f8301526146d58161469c565b9050919050565b7f4e465420616c726561647920666f722073616c650000000000000000000000005f82015250565b5f614710601483613319565b915061471b826146dc565b602082019050919050565b5f6020820190508181035f83015261473d81614704565b9050919050565b7f4d7573742073656c6c206174206c65617374203120746f6b656e0000000000005f82015250565b5f614778601a83613319565b915061478382614744565b602082019050919050565b5f6020820190508181035f8301526147a58161476c565b9050919050565b7f4e6f7420656e6f75676820746f6b656e730000000000000000000000000000005f82015250565b5f6147e0601183613319565b91506147eb826147ac565b602082019050919050565b5f6020820190508181035f83015261480d816147d4565b9050919050565b5f61481e82613108565b915061482983613108565b92508282039050818111156148415761484061428e565b5b92915050565b7f496e636f727265637420707269636500000000000000000000000000000000005f82015250565b5f61487b600f83613319565b915061488682614847565b602082019050919050565b5f6020820190508181035f8301526148a88161486f565b9050919050565b7f43616e6e6f742062757920796f7572206f776e204e46540000000000000000005f82015250565b5f6148e3601783613319565b91506148ee826148af565b602082019050919050565b5f6020820190508181035f830152614910816148d7565b9050919050565b7f4e487b71000000000000000000000000000000000000000000000000000000005f52601260045260245ffd5b5f6080820190506149575f830187613196565b61496460208301866131a5565b61497160408301856131a5565b61497e60608301846131a5565b95945050505050565b5f81519050919050565b5f82825260208201905092915050565b5f6149ab82614987565b6149b58185614991565b93506149c5818560208601613329565b6149ce81613337565b840191505092915050565b5f60a0820190506149ec5f830188613196565b6149f96020830187613196565b614a0660408301866131a5565b614a1360608301856131a5565b8181036080830152614a2581846149a1565b90509695505050505050565b5f81519050614a3f81613287565b92915050565b5f60208284031215614a5a57614a59613100565b5b5f614a6784828501614a31565b91505092915050565b5f60a082019050614a835f830188613196565b614a906020830187613196565b8181036040830152614aa281866136e0565b90508181036060830152614ab681856136e0565b90508181036080830152614aca81846149a1565b9050969550505050505056fea26469706673582212208d71bb0d5d5c4ec45ce25246e1cf4bee934c2093e50b3dee38523e036322115064736f6c634300081e003368747470733a2f2f6d7970726f6a6563742e636f6d2f6d657461646174612f7b69647d2e6a736f6e",
			"opcodes": "PUSH1 0x80 PUSH1 0x40 MSTORE PUSH1 0x40 MLOAD DUP1 PUSH1 0x60 ADD PUSH1 0x40 MSTORE DUP1 PUSH1 0x28 DUP2 MSTORE PUSH1 0x20 ADD PUSH2 0x50AA PUSH1 0x28 SWAP2 CODECOPY PUSH1 0xA SWAP1 DUP2 PUSH2 0x2B SWAP2 SWAP1 PUSH2 0x46A JUMP JUMPDEST POP CALLVALUE DUP1 ISZERO PUSH2 0x37 JUMPI PUSH0 PUSH0 REVERT JUMPDEST POP CALLER PUSH1 0xA DUP1 SLOAD PUSH2 0x46 SWAP1 PUSH2 0x291 JUMP JUMPDEST DUP1 PUSH1 0x1F ADD PUSH1 0x20 DUP1 SWAP2 DIV MUL PUSH1 0x20 ADD PUSH1 0x40 MLOAD SWAP1 DUP2 ADD PUSH1 0x40 MSTORE DUP1 SWAP3 SWAP2 SWAP1 DUP2 DUP2 MSTORE PUSH1 0x20 ADD DUP3 DUP1 SLOAD PUSH2 0x72 SWAP1 PUSH2 0x291 JUMP JUMPDEST DUP1 ISZERO PUSH2 0xBD JUMPI DUP1 PUSH1 0x1F LT PUSH2 0x94 JUMPI PUSH2 0x100 DUP1 DUP4 SLOAD DIV MUL DUP4 MSTORE SWAP2 PUSH1 0x20 ADD SWAP2 PUSH2 0xBD JUMP JUMPDEST DUP3 ADD SWAP2 SWAP1 PUSH0 MSTORE PUSH1 0x20 PUSH0 KECCAK256 SWAP1 JUMPDEST DUP2 SLOAD DUP2 MSTORE SWAP1 PUSH1 0x1 ADD SWAP1 PUSH1 0x20 ADD DUP1 DUP4 GT PUSH2 0xA0 JUMPI DUP3 SWAP1 SUB PUSH1 0x1F AND DUP3 ADD SWAP2 JUMPDEST POP POP POP POP POP PUSH2 0xD1 DUP2 PUSH2 0x157 PUSH1 0x20 SHL PUSH1 0x20 SHR JUMP JUMPDEST POP PUSH0 PUSH20 0xFFFFFFFFFFFFFFFFFFFFFFFFFFFFFFFFFFFFFFFF AND DUP2 PUSH20 0xFFFFFFFFFFFFFFFFFFFFFFFFFFFFFFFFFFFFFFFF AND SUB PUSH2 0x142 JUMPI PUSH0 PUSH1 0x40 MLOAD PUSH32 0x1E4FBDF700000000000000000000000000000000000000000000000000000000 DUP2 MSTORE PUSH1 0x4 ADD PUSH2 0x139 SWAP2 SWAP1 PUSH2 0x578 JUMP JUMPDEST PUSH1 0x40 MLOAD DUP1 SWAP2 SUB SWAP1 REVERT JUMPDEST PUSH2 0x151 DUP2 PUSH2 0x16A PUSH1 0x20 SHL PUSH1 0x20 SHR JUMP JUMPDEST POP PUSH2 0x591 JUMP JUMPDEST DUP1 PUSH1 0x2 SWAP1 DUP2 PUSH2 0x166 SWAP2 SWAP1 PUSH2 0x46A JUMP JUMPDEST POP POP JUMP JUMPDEST PUSH0 PUSH1 0x3 PUSH0 SWAP1 SLOAD SWAP1 PUSH2 0x100 EXP SWAP1 DIV PUSH20 0xFFFFFFFFFFFFFFFFFFFFFFFFFFFFFFFFFFFFFFFF AND SWAP1 POP DUP2 PUSH1 0x3 PUSH0 PUSH2 0x100 EXP DUP2 SLOAD DUP2 PUSH20 0xFFFFFFFFFFFFFFFFFFFFFFFFFFFFFFFFFFFFFFFF MUL NOT AND SWAP1 DUP4 PUSH20 0xFFFFFFFFFFFFFFFFFFFFFFFFFFFFFFFFFFFFFFFF AND MUL OR SWAP1 SSTORE POP DUP2 PUSH20 0xFFFFFFFFFFFFFFFFFFFFFFFFFFFFFFFFFFFFFFFF AND DUP2 PUSH20 0xFFFFFFFFFFFFFFFFFFFFFFFFFFFFFFFFFFFFFFFF AND PUSH32 0x8BE0079C531659141344CD1FD0A4F28419497F9722A3DAAFE3B4186F6B6457E0 PUSH1 0x40 MLOAD PUSH1 0x40 MLOAD DUP1 SWAP2 SUB SWAP1 LOG3 POP POP JUMP JUMPDEST PUSH0 DUP2 MLOAD SWAP1 POP SWAP2 SWAP1 POP JUMP JUMPDEST PUSH32 0x4E487B7100000000000000000000000000000000000000000000000000000000 PUSH0 MSTORE PUSH1 0x41 PUSH1 0x4 MSTORE PUSH1 0x24 PUSH0 REVERT JUMPDEST PUSH32 0x4E487B7100000000000000000000000000000000000000000000000000000000 PUSH0 MSTORE PUSH1 0x22 PUSH1 0x4 MSTORE PUSH1 0x24 PUSH0 REVERT JUMPDEST PUSH0 PUSH1 0x2 DUP3 DIV SWAP1 POP PUSH1 0x1 DUP3 AND DUP1 PUSH2 0x2A8 JUMPI PUSH1 0x7F DUP3 AND SWAP2 POP JUMPDEST PUSH1 0x20 DUP3 LT DUP2 SUB PUSH2 0x2BB JUMPI PUSH2 0x2BA PUSH2 0x264 JUMP JUMPDEST JUMPDEST POP SWAP2 SWAP1 POP JUMP JUMPDEST PUSH0 DUP2 SWAP1 POP DUP2 PUSH0 MSTORE PUSH1 0x20 PUSH0 KECCAK256 SWAP1 POP SWAP2 SWAP1 POP JUMP JUMPDEST PUSH0 PUSH1 0x20 PUSH1 0x1F DUP4 ADD DIV SWAP1 POP SWAP2 SWAP1 POP JUMP JUMPDEST PUSH0 DUP3 DUP3 SHL SWAP1 POP SWAP3 SWAP2 POP POP JUMP JUMPDEST PUSH0 PUSH1 0x8 DUP4 MUL PUSH2 0x31D PUSH32 0xFFFFFFFFFFFFFFFFFFFFFFFFFFFFFFFFFFFFFFFFFFFFFFFFFFFFFFFFFFFFFFFF DUP3 PUSH2 0x2E2 JUMP JUMPDEST PUSH2 0x327 DUP7 DUP4 PUSH2 0x2E2 JUMP JUMPDEST SWAP6 POP DUP1 NOT DUP5 AND SWAP4 POP DUP1 DUP7 AND DUP5 OR SWAP3 POP POP POP SWAP4 SWAP3 POP POP POP JUMP JUMPDEST PUSH0 DUP2 SWAP1 POP SWAP2 SWAP1 POP JUMP JUMPDEST PUSH0 DUP2 SWAP1 POP SWAP2 SWAP1 POP JUMP JUMPDEST PUSH0 PUSH2 0x36B PUSH2 0x366 PUSH2 0x361 DUP5 PUSH2 0x33F JUMP JUMPDEST PUSH2 0x348 JUMP JUMPDEST PUSH2 0x33F JUMP JUMPDEST SWAP1 POP SWAP2 SWAP1 POP JUMP JUMPDEST PUSH0 DUP2 SWAP1 POP SWAP2 SWAP1 POP JUMP JUMPDEST PUSH2 0x384 DUP4 PUSH2 0x351 JUMP JUMPDEST PUSH2 0x398 PUSH2 0x390 DUP3 PUSH2 0x372 JUMP JUMPDEST DUP5 DUP5 SLOAD PUSH2 0x2EE JUMP JUMPDEST DUP3 SSTORE POP POP POP POP JUMP JUMPDEST PUSH0 PUSH0 SWAP1 POP SWAP1 JUMP JUMPDEST PUSH2 0x3AF PUSH2 0x3A0 JUMP JUMPDEST PUSH2 0x3BA DUP2 DUP5 DUP5 PUSH2 0x37B JUMP JUMPDEST POP POP POP JUMP JUMPDEST JUMPDEST DUP2 DUP2 LT ISZERO PUSH2 0x3DD JUMPI PUSH2 0x3D2 PUSH0 DUP3 PUSH2 0x3A7 JUMP JUMPDEST PUSH1 0x1 DUP2 ADD SWAP1 POP PUSH2 0x3C0 JUMP JUMPDEST POP POP JUMP JUMPDEST PUSH1 0x1F DUP3 GT ISZERO PUSH2 0x422 JUMPI PUSH2 0x3F3 DUP2 PUSH2 0x2C1 JUMP JUMPDEST PUSH2 0x3FC DUP5 PUSH2 0x2D3 JUMP JUMPDEST DUP2 ADD PUSH1 0x20 DUP6 LT ISZERO PUSH2 0x40B JUMPI DUP2 SWAP1 POP JUMPDEST PUSH2 0x41F PUSH2 0x417 DUP6 PUSH2 0x2D3 JUMP JUMPDEST DUP4 ADD DUP3 PUSH2 0x3BF JUMP JUMPDEST POP POP JUMPDEST POP POP POP JUMP JUMPDEST PUSH0 DUP3 DUP3 SHR SWAP1 POP SWAP3 SWAP2 POP POP JUMP JUMPDEST PUSH0 PUSH2 0x442 PUSH0 NOT DUP5 PUSH1 0x8 MUL PUSH2 0x427 JUMP JUMPDEST NOT DUP1 DUP4 AND SWAP2 POP POP SWAP3 SWAP2 POP POP JUMP JUMPDEST PUSH0 PUSH2 0x45A DUP4 DUP4 PUSH2 0x433 JUMP JUMPDEST SWAP2 POP DUP3 PUSH1 0x2 MUL DUP3 OR SWAP1 POP SWAP3 SWAP2 POP POP JUMP JUMPDEST PUSH2 0x473 DUP3 PUSH2 0x22D JUMP JUMPDEST PUSH8 0xFFFFFFFFFFFFFFFF DUP2 GT ISZERO PUSH2 0x48C JUMPI PUSH2 0x48B PUSH2 0x237 JUMP JUMPDEST JUMPDEST PUSH2 0x496 DUP3 SLOAD PUSH2 0x291 JUMP JUMPDEST PUSH2 0x4A1 DUP3 DUP3 DUP6 PUSH2 0x3E1 JUMP JUMPDEST PUSH0 PUSH1 0x20 SWAP1 POP PUSH1 0x1F DUP4 GT PUSH1 0x1 DUP2 EQ PUSH2 0x4D2 JUMPI PUSH0 DUP5 ISZERO PUSH2 0x4C0 JUMPI DUP3 DUP8 ADD MLOAD SWAP1 POP JUMPDEST PUSH2 0x4CA DUP6 DUP3 PUSH2 0x44F JUMP JUMPDEST DUP7 SSTORE POP PUSH2 0x531 JUMP JUMPDEST PUSH1 0x1F NOT DUP5 AND PUSH2 0x4E0 DUP7 PUSH2 0x2C1 JUMP JUMPDEST PUSH0 JUMPDEST DUP3 DUP2 LT ISZERO PUSH2 0x507 JUMPI DUP5 DUP10 ADD MLOAD DUP3 SSTORE PUSH1 0x1 DUP3 ADD SWAP2 POP PUSH1 0x20 DUP6 ADD SWAP5 POP PUSH1 0x20 DUP2 ADD SWAP1 POP PUSH2 0x4E2 JUMP JUMPDEST DUP7 DUP4 LT ISZERO PUSH2 0x524 JUMPI DUP5 DUP10 ADD MLOAD PUSH2 0x520 PUSH1 0x1F DUP10 AND DUP3 PUSH2 0x433 JUMP JUMPDEST DUP4 SSTORE POP JUMPDEST PUSH1 0x1 PUSH1 0x2 DUP9 MUL ADD DUP9 SSTORE POP POP POP JUMPDEST POP POP POP POP POP POP JUMP JUMPDEST PUSH0 PUSH20 0xFFFFFFFFFFFFFFFFFFFFFFFFFFFFFFFFFFFFFFFF DUP3 AND SWAP1 POP SWAP2 SWAP1 POP JUMP JUMPDEST PUSH0 PUSH2 0x562 DUP3 PUSH2 0x539 JUMP JUMPDEST SWAP1 POP SWAP2 SWAP1 POP JUMP JUMPDEST PUSH2 0x572 DUP2 PUSH2 0x558 JUMP JUMPDEST DUP3 MSTORE POP POP JUMP JUMPDEST PUSH0 PUSH1 0x20 DUP3 ADD SWAP1 POP PUSH2 0x58B PUSH0 DUP4 ADD DUP5 PUSH2 0x569 JUMP JUMPDEST SWAP3 SWAP2 POP POP JUMP JUMPDEST PUSH2 0x4B0C DUP1 PUSH2 0x59E PUSH0 CODECOPY PUSH0 RETURN INVALID PUSH1 0x80 PUSH1 0x40 MSTORE CALLVALUE DUP1 ISZERO PUSH2 0xF JUMPI PUSH0 PUSH0 REVERT JUMPDEST POP PUSH1 0x4 CALLDATASIZE LT PUSH2 0x1C0 JUMPI PUSH0 CALLDATALOAD PUSH1 0xE0 SHR DUP1 PUSH4 0x8DA5CB5B GT PUSH2 0xF7 JUMPI DUP1 PUSH4 0xD80A08DA GT PUSH2 0x95 JUMPI DUP1 PUSH4 0xED498FA8 GT PUSH2 0x6F JUMPI DUP1 PUSH4 0xED498FA8 EQ PUSH2 0x59C JUMPI DUP1 PUSH4 0xF23A6E61 EQ PUSH2 0x5CC JUMPI DUP1 PUSH4 0xF242432A EQ PUSH2 0x5FC JUMPI DUP1 PUSH4 0xF2FDE38B EQ PUSH2 0x618 JUMPI PUSH2 0x1C0 JUMP JUMPDEST DUP1 PUSH4 0xD80A08DA EQ PUSH2 0x534 JUMPI DUP1 PUSH4 0xE3567774 EQ PUSH2 0x550 JUMPI DUP1 PUSH4 0xE985E9C5 EQ PUSH2 0x56C JUMPI PUSH2 0x1C0 JUMP JUMPDEST DUP1 PUSH4 0xB901FED5 GT PUSH2 0xD1 JUMPI DUP1 PUSH4 0xB901FED5 EQ PUSH2 0x486 JUMPI DUP1 PUSH4 0xBC197C81 EQ PUSH2 0x4A4 JUMPI DUP1 PUSH4 0xCC0A48D4 EQ PUSH2 0x4D4 JUMPI DUP1 PUSH4 0xD50BCC71 EQ PUSH2 0x504 JUMPI PUSH2 0x1C0 JUMP JUMPDEST DUP1 PUSH4 0x8DA5CB5B EQ PUSH2 0x41B JUMPI DUP1 PUSH4 0x9145D133 EQ PUSH2 0x439 JUMPI DUP1 PUSH4 0xA22CB465 EQ PUSH2 0x46A JUMPI PUSH2 0x1C0 JUMP JUMPDEST DUP1 PUSH4 0x4E1273F4 GT PUSH2 0x164 JUMPI DUP1 PUSH4 0x681BEC6C GT PUSH2 0x13E JUMPI DUP1 PUSH4 0x681BEC6C EQ PUSH2 0x394 JUMPI DUP1 PUSH4 0x715018A6 EQ PUSH2 0x3C5 JUMPI DUP1 PUSH4 0x75388A0F EQ PUSH2 0x3CF JUMPI DUP1 PUSH4 0x813D2AD8 EQ PUSH2 0x3FF JUMPI PUSH2 0x1C0 JUMP JUMPDEST DUP1 PUSH4 0x4E1273F4 EQ PUSH2 0x302 JUMPI DUP1 PUSH4 0x5491A99F EQ PUSH2 0x332 JUMPI DUP1 PUSH4 0x5C80A435 EQ PUSH2 0x362 JUMPI PUSH2 0x1C0 JUMP JUMPDEST DUP1 PUSH4 0xE89341C GT PUSH2 0x1A0 JUMPI DUP1 PUSH4 0xE89341C EQ PUSH2 0x255 JUMPI DUP1 PUSH4 0x2B04E840 EQ PUSH2 0x285 JUMPI DUP1 PUSH4 0x2EB2C2D6 EQ PUSH2 0x2B5 JUMPI DUP1 PUSH4 0x434A49A1 EQ PUSH2 0x2D1 JUMPI PUSH2 0x1C0 JUMP JUMPDEST DUP1 PUSH3 0x8B96A1 EQ PUSH2 0x1C4 JUMPI DUP1 PUSH3 0xFDD58E EQ PUSH2 0x1F5 JUMPI DUP1 PUSH4 0x1FFC9A7 EQ PUSH2 0x225 JUMPI JUMPDEST PUSH0 PUSH0 REVERT JUMPDEST PUSH2 0x1DE PUSH1 0x4 DUP1 CALLDATASIZE SUB DUP2 ADD SWAP1 PUSH2 0x1D9 SWAP2 SWAP1 PUSH2 0x313B JUMP JUMPDEST PUSH2 0x634 JUMP JUMPDEST PUSH1 0x40 MLOAD PUSH2 0x1EC SWAP3 SWAP2 SWAP1 PUSH2 0x31B4 JUMP JUMPDEST PUSH1 0x40 MLOAD DUP1 SWAP2 SUB SWAP1 RETURN JUMPDEST PUSH2 0x20F PUSH1 0x4 DUP1 CALLDATASIZE SUB DUP2 ADD SWAP1 PUSH2 0x20A SWAP2 SWAP1 PUSH2 0x3205 JUMP JUMPDEST PUSH2 0x682 JUMP JUMPDEST PUSH1 0x40 MLOAD PUSH2 0x21C SWAP2 SWAP1 PUSH2 0x3243 JUMP JUMPDEST PUSH1 0x40 MLOAD DUP1 SWAP2 SUB SWAP1 RETURN JUMPDEST PUSH2 0x23F PUSH1 0x4 DUP1 CALLDATASIZE SUB DUP2 ADD SWAP1 PUSH2 0x23A SWAP2 SWAP1 PUSH2 0x32B1 JUMP JUMPDEST PUSH2 0x6D7 JUMP JUMPDEST PUSH1 0x40 MLOAD PUSH2 0x24C SWAP2 SWAP1 PUSH2 0x32F6 JUMP JUMPDEST PUSH1 0x40 MLOAD DUP1 SWAP2 SUB SWAP1 RETURN JUMPDEST PUSH2 0x26F PUSH1 0x4 DUP1 CALLDATASIZE SUB DUP2 ADD SWAP1 PUSH2 0x26A SWAP2 SWAP1 PUSH2 0x313B JUMP JUMPDEST PUSH2 0x750 JUMP JUMPDEST PUSH1 0x40 MLOAD PUSH2 0x27C SWAP2 SWAP1 PUSH2 0x337F JUMP JUMPDEST PUSH1 0x40 MLOAD DUP1 SWAP2 SUB SWAP1 RETURN JUMPDEST PUSH2 0x29F PUSH1 0x4 DUP1 CALLDATASIZE SUB DUP2 ADD SWAP1 PUSH2 0x29A SWAP2 SWAP1 PUSH2 0x3205 JUMP JUMPDEST PUSH2 0x835 JUMP JUMPDEST PUSH1 0x40 MLOAD PUSH2 0x2AC SWAP2 SWAP1 PUSH2 0x3243 JUMP JUMPDEST PUSH1 0x40 MLOAD DUP1 SWAP2 SUB SWAP1 RETURN JUMPDEST PUSH2 0x2CF PUSH1 0x4 DUP1 CALLDATASIZE SUB DUP2 ADD SWAP1 PUSH2 0x2CA SWAP2 SWAP1 PUSH2 0x358F JUMP JUMPDEST PUSH2 0x848 JUMP JUMPDEST STOP JUMPDEST PUSH2 0x2EB PUSH1 0x4 DUP1 CALLDATASIZE SUB DUP2 ADD SWAP1 PUSH2 0x2E6 SWAP2 SWAP1 PUSH2 0x365A JUMP JUMPDEST PUSH2 0x8EF JUMP JUMPDEST PUSH1 0x40 MLOAD PUSH2 0x2F9 SWAP3 SWAP2 SWAP1 PUSH2 0x373C JUMP JUMPDEST PUSH1 0x40 MLOAD DUP1 SWAP2 SUB SWAP1 RETURN JUMPDEST PUSH2 0x31C PUSH1 0x4 DUP1 CALLDATASIZE SUB DUP2 ADD SWAP1 PUSH2 0x317 SWAP2 SWAP1 PUSH2 0x3831 JUMP JUMPDEST PUSH2 0xAF9 JUMP JUMPDEST PUSH1 0x40 MLOAD PUSH2 0x329 SWAP2 SWAP1 PUSH2 0x38A7 JUMP JUMPDEST PUSH1 0x40 MLOAD DUP1 SWAP2 SUB SWAP1 RETURN JUMPDEST PUSH2 0x34C PUSH1 0x4 DUP1 CALLDATASIZE SUB DUP2 ADD SWAP1 PUSH2 0x347 SWAP2 SWAP1 PUSH2 0x3205 JUMP JUMPDEST PUSH2 0xC03 JUMP JUMPDEST PUSH1 0x40 MLOAD PUSH2 0x359 SWAP2 SWAP1 PUSH2 0x3916 JUMP JUMPDEST PUSH1 0x40 MLOAD DUP1 SWAP2 SUB SWAP1 RETURN JUMPDEST PUSH2 0x37C PUSH1 0x4 DUP1 CALLDATASIZE SUB DUP2 ADD SWAP1 PUSH2 0x377 SWAP2 SWAP1 PUSH2 0x3205 JUMP JUMPDEST PUSH2 0xCD2 JUMP JUMPDEST PUSH1 0x40 MLOAD PUSH2 0x38B SWAP4 SWAP3 SWAP2 SWAP1 PUSH2 0x392F JUMP JUMPDEST PUSH1 0x40 MLOAD DUP1 SWAP2 SUB SWAP1 RETURN JUMPDEST PUSH2 0x3AE PUSH1 0x4 DUP1 CALLDATASIZE SUB DUP2 ADD SWAP1 PUSH2 0x3A9 SWAP2 SWAP1 PUSH2 0x365A JUMP JUMPDEST PUSH2 0xD22 JUMP JUMPDEST PUSH1 0x40 MLOAD PUSH2 0x3BC SWAP3 SWAP2 SWAP1 PUSH2 0x373C JUMP JUMPDEST PUSH1 0x40 MLOAD DUP1 SWAP2 SUB SWAP1 RETURN JUMPDEST PUSH2 0x3CD PUSH2 0xF2C JUMP JUMPDEST STOP JUMPDEST PUSH2 0x3E9 PUSH1 0x4 DUP1 CALLDATASIZE SUB DUP2 ADD SWAP1 PUSH2 0x3E4 SWAP2 SWAP1 PUSH2 0x3205 JUMP JUMPDEST PUSH2 0xF3F JUMP JUMPDEST PUSH1 0x40 MLOAD PUSH2 0x3F6 SWAP2 SWAP1 PUSH2 0x3243 JUMP JUMPDEST PUSH1 0x40 MLOAD DUP1 SWAP2 SUB SWAP1 RETURN JUMPDEST PUSH2 0x419 PUSH1 0x4 DUP1 CALLDATASIZE SUB DUP2 ADD SWAP1 PUSH2 0x414 SWAP2 SWAP1 PUSH2 0x3964 JUMP JUMPDEST PUSH2 0xF95 JUMP JUMPDEST STOP JUMPDEST PUSH2 0x423 PUSH2 0x124F JUMP JUMPDEST PUSH1 0x40 MLOAD PUSH2 0x430 SWAP2 SWAP1 PUSH2 0x39A2 JUMP JUMPDEST PUSH1 0x40 MLOAD DUP1 SWAP2 SUB SWAP1 RETURN JUMPDEST PUSH2 0x453 PUSH1 0x4 DUP1 CALLDATASIZE SUB DUP2 ADD SWAP1 PUSH2 0x44E SWAP2 SWAP1 PUSH2 0x3205 JUMP JUMPDEST PUSH2 0x1277 JUMP JUMPDEST PUSH1 0x40 MLOAD PUSH2 0x461 SWAP3 SWAP2 SWAP1 PUSH2 0x39BB JUMP JUMPDEST PUSH1 0x40 MLOAD DUP1 SWAP2 SUB SWAP1 RETURN JUMPDEST PUSH2 0x484 PUSH1 0x4 DUP1 CALLDATASIZE SUB DUP2 ADD SWAP1 PUSH2 0x47F SWAP2 SWAP1 PUSH2 0x3A0C JUMP JUMPDEST PUSH2 0x13AB JUMP JUMPDEST STOP JUMPDEST PUSH2 0x48E PUSH2 0x13C1 JUMP JUMPDEST PUSH1 0x40 MLOAD PUSH2 0x49B SWAP2 SWAP1 PUSH2 0x3B1F JUMP JUMPDEST PUSH1 0x40 MLOAD DUP1 SWAP2 SUB SWAP1 RETURN JUMPDEST PUSH2 0x4BE PUSH1 0x4 DUP1 CALLDATASIZE SUB DUP2 ADD SWAP1 PUSH2 0x4B9 SWAP2 SWAP1 PUSH2 0x3BED JUMP JUMPDEST PUSH2 0x147B JUMP JUMPDEST PUSH1 0x40 MLOAD PUSH2 0x4CB SWAP2 SWAP1 PUSH2 0x3CD3 JUMP JUMPDEST PUSH1 0x40 MLOAD DUP1 SWAP2 SUB SWAP1 RETURN JUMPDEST PUSH2 0x4EE PUSH1 0x4 DUP1 CALLDATASIZE SUB DUP2 ADD SWAP1 PUSH2 0x4E9 SWAP2 SWAP1 PUSH2 0x3D8A JUMP JUMPDEST PUSH2 0x1492 JUMP JUMPDEST PUSH1 0x40 MLOAD PUSH2 0x4FB SWAP2 SWAP1 PUSH2 0x3243 JUMP JUMPDEST PUSH1 0x40 MLOAD DUP1 SWAP2 SUB SWAP1 RETURN JUMPDEST PUSH2 0x51E PUSH1 0x4 DUP1 CALLDATASIZE SUB DUP2 ADD SWAP1 PUSH2 0x519 SWAP2 SWAP1 PUSH2 0x365A JUMP JUMPDEST PUSH2 0x1550 JUMP JUMPDEST PUSH1 0x40 MLOAD PUSH2 0x52B SWAP2 SWAP1 PUSH2 0x3243 JUMP JUMPDEST PUSH1 0x40 MLOAD DUP1 SWAP2 SUB SWAP1 RETURN JUMPDEST PUSH2 0x54E PUSH1 0x4 DUP1 CALLDATASIZE SUB DUP2 ADD SWAP1 PUSH2 0x549 SWAP2 SWAP1 PUSH2 0x3DE4 JUMP JUMPDEST PUSH2 0x1599 JUMP JUMPDEST STOP JUMPDEST PUSH2 0x56A PUSH1 0x4 DUP1 CALLDATASIZE SUB DUP2 ADD SWAP1 PUSH2 0x565 SWAP2 SWAP1 PUSH2 0x3E48 JUMP JUMPDEST PUSH2 0x1A0C JUMP JUMPDEST STOP JUMPDEST PUSH2 0x586 PUSH1 0x4 DUP1 CALLDATASIZE SUB DUP2 ADD SWAP1 PUSH2 0x581 SWAP2 SWAP1 PUSH2 0x3EAC JUMP JUMPDEST PUSH2 0x1D0E JUMP JUMPDEST PUSH1 0x40 MLOAD PUSH2 0x593 SWAP2 SWAP1 PUSH2 0x32F6 JUMP JUMPDEST PUSH1 0x40 MLOAD DUP1 SWAP2 SUB SWAP1 RETURN JUMPDEST PUSH2 0x5B6 PUSH1 0x4 DUP1 CALLDATASIZE SUB DUP2 ADD SWAP1 PUSH2 0x5B1 SWAP2 SWAP1 PUSH2 0x365A JUMP JUMPDEST PUSH2 0x1D9C JUMP JUMPDEST PUSH1 0x40 MLOAD PUSH2 0x5C3 SWAP2 SWAP1 PUSH2 0x38A7 JUMP JUMPDEST PUSH1 0x40 MLOAD DUP1 SWAP2 SUB SWAP1 RETURN JUMPDEST PUSH2 0x5E6 PUSH1 0x4 DUP1 CALLDATASIZE SUB DUP2 ADD SWAP1 PUSH2 0x5E1 SWAP2 SWAP1 PUSH2 0x3EEA JUMP JUMPDEST PUSH2 0x1E2F JUMP JUMPDEST PUSH1 0x40 MLOAD PUSH2 0x5F3 SWAP2 SWAP1 PUSH2 0x3CD3 JUMP JUMPDEST PUSH1 0x40 MLOAD DUP1 SWAP2 SUB SWAP1 RETURN JUMPDEST PUSH2 0x616 PUSH1 0x4 DUP1 CALLDATASIZE SUB DUP2 ADD SWAP1 PUSH2 0x611 SWAP2 SWAP1 PUSH2 0x3F80 JUMP JUMPDEST PUSH2 0x1E44 JUMP JUMPDEST STOP JUMPDEST PUSH2 0x632 PUSH1 0x4 DUP1 CALLDATASIZE SUB DUP2 ADD SWAP1 PUSH2 0x62D SWAP2 SWAP1 PUSH2 0x365A JUMP JUMPDEST PUSH2 0x1EEB JUMP JUMPDEST STOP JUMPDEST PUSH1 0x8 DUP2 DUP2 SLOAD DUP2 LT PUSH2 0x643 JUMPI PUSH0 DUP1 REVERT JUMPDEST SWAP1 PUSH0 MSTORE PUSH1 0x20 PUSH0 KECCAK256 SWAP1 PUSH1 0x2 MUL ADD PUSH0 SWAP2 POP SWAP1 POP DUP1 PUSH0 ADD PUSH0 SWAP1 SLOAD SWAP1 PUSH2 0x100 EXP SWAP1 DIV PUSH20 0xFFFFFFFFFFFFFFFFFFFFFFFFFFFFFFFFFFFFFFFF AND SWAP1 DUP1 PUSH1 0x1 ADD SLOAD SWAP1 POP DUP3 JUMP JUMPDEST PUSH0 PUSH0 PUSH0 DUP4 DUP2 MSTORE PUSH1 0x20 ADD SWAP1 DUP2 MSTORE PUSH1 0x20 ADD PUSH0 KECCAK256 PUSH0 DUP5 PUSH20 0xFFFFFFFFFFFFFFFFFFFFFFFFFFFFFFFFFFFFFFFF AND PUSH20 0xFFFFFFFFFFFFFFFFFFFFFFFFFFFFFFFFFFFFFFFF AND DUP2 MSTORE PUSH1 0x20 ADD SWAP1 DUP2 MSTORE PUSH1 0x20 ADD PUSH0 KECCAK256 SLOAD SWAP1 POP SWAP3 SWAP2 POP POP JUMP JUMPDEST PUSH0 PUSH32 0x4E2312E000000000000000000000000000000000000000000000000000000000 PUSH28 0xFFFFFFFFFFFFFFFFFFFFFFFFFFFFFFFFFFFFFFFFFFFFFFFFFFFFFFFF NOT AND DUP3 PUSH28 0xFFFFFFFFFFFFFFFFFFFFFFFFFFFFFFFFFFFFFFFFFFFFFFFFFFFFFFFF NOT AND EQ DUP1 PUSH2 0x749 JUMPI POP PUSH2 0x748 DUP3 PUSH2 0x1F6F JUMP JUMPDEST JUMPDEST SWAP1 POP SWAP2 SWAP1 POP JUMP JUMPDEST PUSH1 0x60 PUSH0 PUSH1 0x7 PUSH0 DUP5 DUP2 MSTORE PUSH1 0x20 ADD SWAP1 DUP2 MSTORE PUSH1 0x20 ADD PUSH0 KECCAK256 DUP1 SLOAD PUSH2 0x76F SWAP1 PUSH2 0x4040 JUMP JUMPDEST DUP1 PUSH1 0x1F ADD PUSH1 0x20 DUP1 SWAP2 DIV MUL PUSH1 0x20 ADD PUSH1 0x40 MLOAD SWAP1 DUP2 ADD PUSH1 0x40 MSTORE DUP1 SWAP3 SWAP2 SWAP1 DUP2 DUP2 MSTORE PUSH1 0x20 ADD DUP3 DUP1 SLOAD PUSH2 0x79B SWAP1 PUSH2 0x4040 JUMP JUMPDEST DUP1 ISZERO PUSH2 0x7E6 JUMPI DUP1 PUSH1 0x1F LT PUSH2 0x7BD JUMPI PUSH2 0x100 DUP1 DUP4 SLOAD DIV MUL DUP4 MSTORE SWAP2 PUSH1 0x20 ADD SWAP2 PUSH2 0x7E6 JUMP JUMPDEST DUP3 ADD SWAP2 SWAP1 PUSH0 MSTORE PUSH1 0x20 PUSH0 KECCAK256 SWAP1 JUMPDEST DUP2 SLOAD DUP2 MSTORE SWAP1 PUSH1 0x1 ADD SWAP1 PUSH1 0x20 ADD DUP1 DUP4 GT PUSH2 0x7C9 JUMPI DUP3 SWAP1 SUB PUSH1 0x1F AND DUP3 ADD SWAP2 JUMPDEST POP POP POP POP POP SWAP1 POP PUSH0 DUP2 MLOAD GT ISZERO PUSH2 0x7FF JUMPI DUP1 SWAP2 POP POP PUSH2 0x830 JUMP JUMPDEST PUSH0 PUSH2 0x809 DUP5 PUSH2 0x2050 JUMP JUMPDEST SWAP1 POP DUP1 PUSH1 0x40 MLOAD PUSH1 0x20 ADD PUSH2 0x81C SWAP2 SWAP1 PUSH2 0x413E JUMP JUMPDEST PUSH1 0x40 MLOAD PUSH1 0x20 DUP2 DUP4 SUB SUB DUP2 MSTORE SWAP1 PUSH1 0x40 MSTORE SWAP3 POP POP POP JUMPDEST SWAP2 SWAP1 POP JUMP JUMPDEST PUSH0 PUSH2 0x840 DUP4 DUP4 PUSH2 0x682 JUMP JUMPDEST SWAP1 POP SWAP3 SWAP2 POP POP JUMP JUMPDEST PUSH0 PUSH2 0x851 PUSH2 0x211A JUMP JUMPDEST SWAP1 POP DUP1 PUSH20 0xFFFFFFFFFFFFFFFFFFFFFFFFFFFFFFFFFFFFFFFF AND DUP7 PUSH20 0xFFFFFFFFFFFFFFFFFFFFFFFFFFFFFFFFFFFFFFFF AND EQ ISZERO DUP1 ISZERO PUSH2 0x896 JUMPI POP PUSH2 0x894 DUP7 DUP3 PUSH2 0x1D0E JUMP JUMPDEST ISZERO JUMPDEST ISZERO PUSH2 0x8DA JUMPI DUP1 DUP7 PUSH1 0x40 MLOAD PUSH32 0xE237D92200000000000000000000000000000000000000000000000000000000 DUP2 MSTORE PUSH1 0x4 ADD PUSH2 0x8D1 SWAP3 SWAP2 SWAP1 PUSH2 0x416A JUMP JUMPDEST PUSH1 0x40 MLOAD DUP1 SWAP2 SUB SWAP1 REVERT JUMPDEST PUSH2 0x8E7 DUP7 DUP7 DUP7 DUP7 DUP7 PUSH2 0x2121 JUMP JUMPDEST POP POP POP POP POP POP JUMP JUMPDEST PUSH1 0x60 DUP1 PUSH0 PUSH1 0x6 PUSH0 DUP6 PUSH20 0xFFFFFFFFFFFFFFFFFFFFFFFFFFFFFFFFFFFFFFFF AND PUSH20 0xFFFFFFFFFFFFFFFFFFFFFFFFFFFFFFFFFFFFFFFF AND DUP2 MSTORE PUSH1 0x20 ADD SWAP1 DUP2 MSTORE PUSH1 0x20 ADD PUSH0 KECCAK256 DUP1 SLOAD DUP1 PUSH1 0x20 MUL PUSH1 0x20 ADD PUSH1 0x40 MLOAD SWAP1 DUP2 ADD PUSH1 0x40 MSTORE DUP1 SWAP3 SWAP2 SWAP1 DUP2 DUP2 MSTORE PUSH1 0x20 ADD DUP3 DUP1 SLOAD DUP1 ISZERO PUSH2 0x978 JUMPI PUSH1 0x20 MUL DUP3 ADD SWAP2 SWAP1 PUSH0 MSTORE PUSH1 0x20 PUSH0 KECCAK256 SWAP1 JUMPDEST DUP2 SLOAD DUP2 MSTORE PUSH1 0x20 ADD SWAP1 PUSH1 0x1 ADD SWAP1 DUP1 DUP4 GT PUSH2 0x964 JUMPI JUMPDEST POP POP POP POP POP SWAP1 POP DUP1 MLOAD PUSH8 0xFFFFFFFFFFFFFFFF DUP2 GT ISZERO PUSH2 0x99A JUMPI PUSH2 0x999 PUSH2 0x33A3 JUMP JUMPDEST JUMPDEST PUSH1 0x40 MLOAD SWAP1 DUP1 DUP3 MSTORE DUP1 PUSH1 0x20 MUL PUSH1 0x20 ADD DUP3 ADD PUSH1 0x40 MSTORE DUP1 ISZERO PUSH2 0x9C8 JUMPI DUP2 PUSH1 0x20 ADD PUSH1 0x20 DUP3 MUL DUP1 CALLDATASIZE DUP4 CALLDATACOPY DUP1 DUP3 ADD SWAP2 POP POP SWAP1 POP JUMPDEST POP SWAP3 POP DUP1 MLOAD PUSH8 0xFFFFFFFFFFFFFFFF DUP2 GT ISZERO PUSH2 0x9E6 JUMPI PUSH2 0x9E5 PUSH2 0x33A3 JUMP JUMPDEST JUMPDEST PUSH1 0x40 MLOAD SWAP1 DUP1 DUP3 MSTORE DUP1 PUSH1 0x20 MUL PUSH1 0x20 ADD DUP3 ADD PUSH1 0x40 MSTORE DUP1 ISZERO PUSH2 0xA14 JUMPI DUP2 PUSH1 0x20 ADD PUSH1 0x20 DUP3 MUL DUP1 CALLDATASIZE DUP4 CALLDATACOPY DUP1 DUP3 ADD SWAP2 POP POP SWAP1 POP JUMPDEST POP SWAP2 POP PUSH0 PUSH0 SWAP1 POP JUMPDEST DUP2 MLOAD DUP2 LT ISZERO PUSH2 0xAF2 JUMPI DUP2 DUP2 DUP2 MLOAD DUP2 LT PUSH2 0xA38 JUMPI PUSH2 0xA37 PUSH2 0x4191 JUMP JUMPDEST JUMPDEST PUSH1 0x20 MUL PUSH1 0x20 ADD ADD MLOAD DUP5 DUP3 DUP2 MLOAD DUP2 LT PUSH2 0xA53 JUMPI PUSH2 0xA52 PUSH2 0x4191 JUMP JUMPDEST JUMPDEST PUSH1 0x20 MUL PUSH1 0x20 ADD ADD DUP2 DUP2 MSTORE POP POP PUSH1 0x5 PUSH0 DUP7 PUSH20 0xFFFFFFFFFFFFFFFFFFFFFFFFFFFFFFFFFFFFFFFF AND PUSH20 0xFFFFFFFFFFFFFFFFFFFFFFFFFFFFFFFFFFFFFFFF AND DUP2 MSTORE PUSH1 0x20 ADD SWAP1 DUP2 MSTORE PUSH1 0x20 ADD PUSH0 KECCAK256 PUSH0 DUP4 DUP4 DUP2 MLOAD DUP2 LT PUSH2 0xAB0 JUMPI PUSH2 0xAAF PUSH2 0x4191 JUMP JUMPDEST JUMPDEST PUSH1 0x20 MUL PUSH1 0x20 ADD ADD MLOAD DUP2 MSTORE PUSH1 0x20 ADD SWAP1 DUP2 MSTORE PUSH1 0x20 ADD PUSH0 KECCAK256 SLOAD DUP4 DUP3 DUP2 MLOAD DUP2 LT PUSH2 0xAD9 JUMPI PUSH2 0xAD8 PUSH2 0x4191 JUMP JUMPDEST JUMPDEST PUSH1 0x20 MUL PUSH1 0x20 ADD ADD DUP2 DUP2 MSTORE POP POP DUP1 DUP1 PUSH1 0x1 ADD SWAP2 POP POP PUSH2 0xA1C JUMP JUMPDEST POP POP SWAP2 POP SWAP2 JUMP JUMPDEST PUSH1 0x60 DUP2 MLOAD DUP4 MLOAD EQ PUSH2 0xB45 JUMPI DUP2 MLOAD DUP4 MLOAD PUSH1 0x40 MLOAD PUSH32 0x5B05999100000000000000000000000000000000000000000000000000000000 DUP2 MSTORE PUSH1 0x4 ADD PUSH2 0xB3C SWAP3 SWAP2 SWAP1 PUSH2 0x39BB JUMP JUMPDEST PUSH1 0x40 MLOAD DUP1 SWAP2 SUB SWAP1 REVERT JUMPDEST PUSH0 DUP4 MLOAD PUSH8 0xFFFFFFFFFFFFFFFF DUP2 GT ISZERO PUSH2 0xB61 JUMPI PUSH2 0xB60 PUSH2 0x33A3 JUMP JUMPDEST JUMPDEST PUSH1 0x40 MLOAD SWAP1 DUP1 DUP3 MSTORE DUP1 PUSH1 0x20 MUL PUSH1 0x20 ADD DUP3 ADD PUSH1 0x40 MSTORE DUP1 ISZERO PUSH2 0xB8F JUMPI DUP2 PUSH1 0x20 ADD PUSH1 0x20 DUP3 MUL DUP1 CALLDATASIZE DUP4 CALLDATACOPY DUP1 DUP3 ADD SWAP2 POP POP SWAP1 POP JUMPDEST POP SWAP1 POP PUSH0 PUSH0 SWAP1 POP JUMPDEST DUP5 MLOAD DUP2 LT ISZERO PUSH2 0xBF8 JUMPI PUSH2 0xBCE PUSH2 0xBB6 DUP3 DUP8 PUSH2 0x2215 SWAP1 SWAP2 SWAP1 PUSH4 0xFFFFFFFF AND JUMP JUMPDEST PUSH2 0xBC9 DUP4 DUP8 PUSH2 0x2228 SWAP1 SWAP2 SWAP1 PUSH4 0xFFFFFFFF AND JUMP JUMPDEST PUSH2 0x682 JUMP JUMPDEST DUP3 DUP3 DUP2 MLOAD DUP2 LT PUSH2 0xBE1 JUMPI PUSH2 0xBE0 PUSH2 0x4191 JUMP JUMPDEST JUMPDEST PUSH1 0x20 MUL PUSH1 0x20 ADD ADD DUP2 DUP2 MSTORE POP POP DUP1 PUSH1 0x1 ADD SWAP1 POP PUSH2 0xB97 JUMP JUMPDEST POP DUP1 SWAP2 POP POP SWAP3 SWAP2 POP POP JUMP JUMPDEST PUSH2 0xC0B PUSH2 0x30C3 JUMP JUMPDEST PUSH1 0x4 PUSH0 DUP5 PUSH20 0xFFFFFFFFFFFFFFFFFFFFFFFFFFFFFFFFFFFFFFFF AND PUSH20 0xFFFFFFFFFFFFFFFFFFFFFFFFFFFFFFFFFFFFFFFF AND DUP2 MSTORE PUSH1 0x20 ADD SWAP1 DUP2 MSTORE PUSH1 0x20 ADD PUSH0 KECCAK256 PUSH0 DUP4 DUP2 MSTORE PUSH1 0x20 ADD SWAP1 DUP2 MSTORE PUSH1 0x20 ADD PUSH0 KECCAK256 PUSH1 0x40 MLOAD DUP1 PUSH1 0x60 ADD PUSH1 0x40 MSTORE SWAP1 DUP2 PUSH0 DUP3 ADD PUSH0 SWAP1 SLOAD SWAP1 PUSH2 0x100 EXP SWAP1 DIV PUSH20 0xFFFFFFFFFFFFFFFFFFFFFFFFFFFFFFFFFFFFFFFF AND PUSH20 0xFFFFFFFFFFFFFFFFFFFFFFFFFFFFFFFFFFFFFFFF AND PUSH20 0xFFFFFFFFFFFFFFFFFFFFFFFFFFFFFFFFFFFFFFFF AND DUP2 MSTORE PUSH1 0x20 ADD PUSH1 0x1 DUP3 ADD SLOAD DUP2 MSTORE PUSH1 0x20 ADD PUSH1 0x2 DUP3 ADD SLOAD DUP2 MSTORE POP POP SWAP1 POP SWAP3 SWAP2 POP POP JUMP JUMPDEST PUSH1 0x4 PUSH1 0x20 MSTORE DUP2 PUSH0 MSTORE PUSH1 0x40 PUSH0 KECCAK256 PUSH1 0x20 MSTORE DUP1 PUSH0 MSTORE PUSH1 0x40 PUSH0 KECCAK256 PUSH0 SWAP2 POP SWAP2 POP POP DUP1 PUSH0 ADD PUSH0 SWAP1 SLOAD SWAP1 PUSH2 0x100 EXP SWAP1 DIV PUSH20 0xFFFFFFFFFFFFFFFFFFFFFFFFFFFFFFFFFFFFFFFF AND SWAP1 DUP1 PUSH1 0x1 ADD SLOAD SWAP1 DUP1 PUSH1 0x2 ADD SLOAD SWAP1 POP DUP4 JUMP JUMPDEST PUSH1 0x60 DUP1 PUSH0 PUSH1 0x6 PUSH0 DUP6 PUSH20 0xFFFFFFFFFFFFFFFFFFFFFFFFFFFFFFFFFFFFFFFF AND PUSH20 0xFFFFFFFFFFFFFFFFFFFFFFFFFFFFFFFFFFFFFFFF AND DUP2 MSTORE PUSH1 0x20 ADD SWAP1 DUP2 MSTORE PUSH1 0x20 ADD PUSH0 KECCAK256 DUP1 SLOAD DUP1 PUSH1 0x20 MUL PUSH1 0x20 ADD PUSH1 0x40 MLOAD SWAP1 DUP2 ADD PUSH1 0x40 MSTORE DUP1 SWAP3 SWAP2 SWAP1 DUP2 DUP2 MSTORE PUSH1 0x20 ADD DUP3 DUP1 SLOAD DUP1 ISZERO PUSH2 0xDAB JUMPI PUSH1 0x20 MUL DUP3 ADD SWAP2 SWAP1 PUSH0 MSTORE PUSH1 0x20 PUSH0 KECCAK256 SWAP1 JUMPDEST DUP2 SLOAD DUP2 MSTORE PUSH1 0x20 ADD SWAP1 PUSH1 0x1 ADD SWAP1 DUP1 DUP4 GT PUSH2 0xD97 JUMPI JUMPDEST POP POP POP POP POP SWAP1 POP DUP1 MLOAD PUSH8 0xFFFFFFFFFFFFFFFF DUP2 GT ISZERO PUSH2 0xDCD JUMPI PUSH2 0xDCC PUSH2 0x33A3 JUMP JUMPDEST JUMPDEST PUSH1 0x40 MLOAD SWAP1 DUP1 DUP3 MSTORE DUP1 PUSH1 0x20 MUL PUSH1 0x20 ADD DUP3 ADD PUSH1 0x40 MSTORE DUP1 ISZERO PUSH2 0xDFB JUMPI DUP2 PUSH1 0x20 ADD PUSH1 0x20 DUP3 MUL DUP1 CALLDATASIZE DUP4 CALLDATACOPY DUP1 DUP3 ADD SWAP2 POP POP SWAP1 POP JUMPDEST POP SWAP3 POP DUP1 MLOAD PUSH8 0xFFFFFFFFFFFFFFFF DUP2 GT ISZERO PUSH2 0xE19 JUMPI PUSH2 0xE18 PUSH2 0x33A3 JUMP JUMPDEST JUMPDEST PUSH1 0x40 MLOAD SWAP1 DUP1 DUP3 MSTORE DUP1 PUSH1 0x20 MUL PUSH1 0x20 ADD DUP3 ADD PUSH1 0x40 MSTORE DUP1 ISZERO PUSH2 0xE47 JUMPI DUP2 PUSH1 0x20 ADD PUSH1 0x20 DUP3 MUL DUP1 CALLDATASIZE DUP4 CALLDATACOPY DUP1 DUP3 ADD SWAP2 POP POP SWAP1 POP JUMPDEST POP SWAP2 POP PUSH0 PUSH0 SWAP1 POP JUMPDEST DUP2 MLOAD DUP2 LT ISZERO PUSH2 0xF25 JUMPI DUP2 DUP2 DUP2 MLOAD DUP2 LT PUSH2 0xE6B JUMPI PUSH2 0xE6A PUSH2 0x4191 JUMP JUMPDEST JUMPDEST PUSH1 0x20 MUL PUSH1 0x20 ADD ADD MLOAD DUP5 DUP3 DUP2 MLOAD DUP2 LT PUSH2 0xE86 JUMPI PUSH2 0xE85 PUSH2 0x4191 JUMP JUMPDEST JUMPDEST PUSH1 0x20 MUL PUSH1 0x20 ADD ADD DUP2 DUP2 MSTORE POP POP PUSH1 0x5 PUSH0 DUP7 PUSH20 0xFFFFFFFFFFFFFFFFFFFFFFFFFFFFFFFFFFFFFFFF AND PUSH20 0xFFFFFFFFFFFFFFFFFFFFFFFFFFFFFFFFFFFFFFFF AND DUP2 MSTORE PUSH1 0x20 ADD SWAP1 DUP2 MSTORE PUSH1 0x20 ADD PUSH0 KECCAK256 PUSH0 DUP4 DUP4 DUP2 MLOAD DUP2 LT PUSH2 0xEE3 JUMPI PUSH2 0xEE2 PUSH2 0x4191 JUMP JUMPDEST JUMPDEST PUSH1 0x20 MUL PUSH1 0x20 ADD ADD MLOAD DUP2 MSTORE PUSH1 0x20 ADD SWAP1 DUP2 MSTORE PUSH1 0x20 ADD PUSH0 KECCAK256 SLOAD DUP4 DUP3 DUP2 MLOAD DUP2 LT PUSH2 0xF0C JUMPI PUSH2 0xF0B PUSH2 0x4191 JUMP JUMPDEST JUMPDEST PUSH1 0x20 MUL PUSH1 0x20 ADD ADD DUP2 DUP2 MSTORE POP POP DUP1 DUP1 PUSH1 0x1 ADD SWAP2 POP POP PUSH2 0xE4F JUMP JUMPDEST POP POP SWAP2 POP SWAP2 JUMP JUMPDEST PUSH2 0xF34 PUSH2 0x223B JUMP JUMPDEST PUSH2 0xF3D PUSH0 PUSH2 0x22C2 JUMP JUMPDEST JUMP JUMPDEST PUSH0 PUSH1 0x5 PUSH0 DUP5 PUSH20 0xFFFFFFFFFFFFFFFFFFFFFFFFFFFFFFFFFFFFFFFF AND PUSH20 0xFFFFFFFFFFFFFFFFFFFFFFFFFFFFFFFFFFFFFFFF AND DUP2 MSTORE PUSH1 0x20 ADD SWAP1 DUP2 MSTORE PUSH1 0x20 ADD PUSH0 KECCAK256 PUSH0 DUP4 DUP2 MSTORE PUSH1 0x20 ADD SWAP1 DUP2 MSTORE PUSH1 0x20 ADD PUSH0 KECCAK256 SLOAD SWAP1 POP SWAP3 SWAP2 POP POP JUMP JUMPDEST PUSH0 PUSH1 0x4 PUSH0 DUP4 PUSH20 0xFFFFFFFFFFFFFFFFFFFFFFFFFFFFFFFFFFFFFFFF AND PUSH20 0xFFFFFFFFFFFFFFFFFFFFFFFFFFFFFFFFFFFFFFFF AND DUP2 MSTORE PUSH1 0x20 ADD SWAP1 DUP2 MSTORE PUSH1 0x20 ADD PUSH0 KECCAK256 PUSH0 DUP5 DUP2 MSTORE PUSH1 0x20 ADD SWAP1 DUP2 MSTORE PUSH1 0x20 ADD PUSH0 KECCAK256 PUSH1 0x40 MLOAD DUP1 PUSH1 0x60 ADD PUSH1 0x40 MSTORE SWAP1 DUP2 PUSH0 DUP3 ADD PUSH0 SWAP1 SLOAD SWAP1 PUSH2 0x100 EXP SWAP1 DIV PUSH20 0xFFFFFFFFFFFFFFFFFFFFFFFFFFFFFFFFFFFFFFFF AND PUSH20 0xFFFFFFFFFFFFFFFFFFFFFFFFFFFFFFFFFFFFFFFF AND PUSH20 0xFFFFFFFFFFFFFFFFFFFFFFFFFFFFFFFFFFFFFFFF AND DUP2 MSTORE PUSH1 0x20 ADD PUSH1 0x1 DUP3 ADD SLOAD DUP2 MSTORE PUSH1 0x20 ADD PUSH1 0x2 DUP3 ADD SLOAD DUP2 MSTORE POP POP SWAP1 POP DUP2 PUSH20 0xFFFFFFFFFFFFFFFFFFFFFFFFFFFFFFFFFFFFFFFF AND DUP2 PUSH0 ADD MLOAD PUSH20 0xFFFFFFFFFFFFFFFFFFFFFFFFFFFFFFFFFFFFFFFF AND EQ PUSH2 0x10C8 JUMPI PUSH1 0x40 MLOAD PUSH32 0x8C379A000000000000000000000000000000000000000000000000000000000 DUP2 MSTORE PUSH1 0x4 ADD PUSH2 0x10BF SWAP1 PUSH2 0x4208 JUMP JUMPDEST PUSH1 0x40 MLOAD DUP1 SWAP2 SUB SWAP1 REVERT JUMPDEST PUSH0 PUSH20 0xFFFFFFFFFFFFFFFFFFFFFFFFFFFFFFFFFFFFFFFF AND DUP2 PUSH0 ADD MLOAD PUSH20 0xFFFFFFFFFFFFFFFFFFFFFFFFFFFFFFFFFFFFFFFF AND SUB PUSH2 0x1139 JUMPI PUSH1 0x40 MLOAD PUSH32 0x8C379A000000000000000000000000000000000000000000000000000000000 DUP2 MSTORE PUSH1 0x4 ADD PUSH2 0x1130 SWAP1 PUSH2 0x4270 JUMP JUMPDEST PUSH1 0x40 MLOAD DUP1 SWAP2 SUB SWAP1 REVERT JUMPDEST PUSH2 0x1158 ADDRESS DUP4 DUP6 DUP5 PUSH1 0x20 ADD MLOAD PUSH1 0x40 MLOAD DUP1 PUSH1 0x20 ADD PUSH1 0x40 MSTORE DUP1 PUSH0 DUP2 MSTORE POP PUSH2 0x2385 JUMP JUMPDEST DUP1 PUSH1 0x20 ADD MLOAD PUSH1 0x5 PUSH0 DUP5 PUSH20 0xFFFFFFFFFFFFFFFFFFFFFFFFFFFFFFFFFFFFFFFF AND PUSH20 0xFFFFFFFFFFFFFFFFFFFFFFFFFFFFFFFFFFFFFFFF AND DUP2 MSTORE PUSH1 0x20 ADD SWAP1 DUP2 MSTORE PUSH1 0x20 ADD PUSH0 KECCAK256 PUSH0 DUP6 DUP2 MSTORE PUSH1 0x20 ADD SWAP1 DUP2 MSTORE PUSH1 0x20 ADD PUSH0 KECCAK256 PUSH0 DUP3 DUP3 SLOAD PUSH2 0x11B7 SWAP2 SWAP1 PUSH2 0x42BB JUMP JUMPDEST SWAP3 POP POP DUP2 SWAP1 SSTORE POP PUSH2 0x11C8 DUP3 DUP5 PUSH2 0x248B JUMP JUMPDEST PUSH1 0x4 PUSH0 DUP4 PUSH20 0xFFFFFFFFFFFFFFFFFFFFFFFFFFFFFFFFFFFFFFFF AND PUSH20 0xFFFFFFFFFFFFFFFFFFFFFFFFFFFFFFFFFFFFFFFF AND DUP2 MSTORE PUSH1 0x20 ADD SWAP1 DUP2 MSTORE PUSH1 0x20 ADD PUSH0 KECCAK256 PUSH0 DUP5 DUP2 MSTORE PUSH1 0x20 ADD SWAP1 DUP2 MSTORE PUSH1 0x20 ADD PUSH0 KECCAK256 PUSH0 PUSH0 DUP3 ADD PUSH0 PUSH2 0x100 EXP DUP2 SLOAD SWAP1 PUSH20 0xFFFFFFFFFFFFFFFFFFFFFFFFFFFFFFFFFFFFFFFF MUL NOT AND SWAP1 SSTORE PUSH1 0x1 DUP3 ADD PUSH0 SWAP1 SSTORE PUSH1 0x2 DUP3 ADD PUSH0 SWAP1 SSTORE POP POP POP POP POP JUMP JUMPDEST PUSH0 PUSH1 0x3 PUSH0 SWAP1 SLOAD SWAP1 PUSH2 0x100 EXP SWAP1 DIV PUSH20 0xFFFFFFFFFFFFFFFFFFFFFFFFFFFFFFFFFFFFFFFF AND SWAP1 POP SWAP1 JUMP JUMPDEST PUSH0 PUSH0 PUSH1 0x6 PUSH0 DUP6 PUSH20 0xFFFFFFFFFFFFFFFFFFFFFFFFFFFFFFFFFFFFFFFF AND PUSH20 0xFFFFFFFFFFFFFFFFFFFFFFFFFFFFFFFFFFFFFFFF AND DUP2 MSTORE PUSH1 0x20 ADD SWAP1 DUP2 MSTORE PUSH1 0x20 ADD PUSH0 KECCAK256 DUP1 SLOAD SWAP1 POP DUP4 LT PUSH2 0x12FB JUMPI PUSH1 0x40 MLOAD PUSH32 0x8C379A000000000000000000000000000000000000000000000000000000000 DUP2 MSTORE PUSH1 0x4 ADD PUSH2 0x12F2 SWAP1 PUSH2 0x4338 JUMP JUMPDEST PUSH1 0x40 MLOAD DUP1 SWAP2 SUB SWAP1 REVERT JUMPDEST PUSH1 0x6 PUSH0 DUP6 PUSH20 0xFFFFFFFFFFFFFFFFFFFFFFFFFFFFFFFFFFFFFFFF AND PUSH20 0xFFFFFFFFFFFFFFFFFFFFFFFFFFFFFFFFFFFFFFFF AND DUP2 MSTORE PUSH1 0x20 ADD SWAP1 DUP2 MSTORE PUSH1 0x20 ADD PUSH0 KECCAK256 DUP4 DUP2 SLOAD DUP2 LT PUSH2 0x134A JUMPI PUSH2 0x1349 PUSH2 0x4191 JUMP JUMPDEST JUMPDEST SWAP1 PUSH0 MSTORE PUSH1 0x20 PUSH0 KECCAK256 ADD SLOAD SWAP2 POP PUSH1 0x5 PUSH0 DUP6 PUSH20 0xFFFFFFFFFFFFFFFFFFFFFFFFFFFFFFFFFFFFFFFF AND PUSH20 0xFFFFFFFFFFFFFFFFFFFFFFFFFFFFFFFFFFFFFFFF AND DUP2 MSTORE PUSH1 0x20 ADD SWAP1 DUP2 MSTORE PUSH1 0x20 ADD PUSH0 KECCAK256 PUSH0 DUP4 DUP2 MSTORE PUSH1 0x20 ADD SWAP1 DUP2 MSTORE PUSH1 0x20 ADD PUSH0 KECCAK256 SLOAD SWAP1 POP SWAP3 POP SWAP3 SWAP1 POP JUMP JUMPDEST PUSH2 0x13BD PUSH2 0x13B6 PUSH2 0x211A JUMP JUMPDEST DUP4 DUP4 PUSH2 0x253E JUMP JUMPDEST POP POP JUMP JUMPDEST PUSH1 0x60 PUSH1 0x8 DUP1 SLOAD DUP1 PUSH1 0x20 MUL PUSH1 0x20 ADD PUSH1 0x40 MLOAD SWAP1 DUP2 ADD PUSH1 0x40 MSTORE DUP1 SWAP3 SWAP2 SWAP1 DUP2 DUP2 MSTORE PUSH1 0x20 ADD PUSH0 SWAP1 JUMPDEST DUP3 DUP3 LT ISZERO PUSH2 0x1472 JUMPI DUP4 DUP3 SWAP1 PUSH0 MSTORE PUSH1 0x20 PUSH0 KECCAK256 SWAP1 PUSH1 0x2 MUL ADD PUSH1 0x40 MLOAD DUP1 PUSH1 0x40 ADD PUSH1 0x40 MSTORE SWAP1 DUP2 PUSH0 DUP3 ADD PUSH0 SWAP1 SLOAD SWAP1 PUSH2 0x100 EXP SWAP1 DIV PUSH20 0xFFFFFFFFFFFFFFFFFFFFFFFFFFFFFFFFFFFFFFFF AND PUSH20 0xFFFFFFFFFFFFFFFFFFFFFFFFFFFFFFFFFFFFFFFF AND PUSH20 0xFFFFFFFFFFFFFFFFFFFFFFFFFFFFFFFFFFFFFFFF AND DUP2 MSTORE PUSH1 0x20 ADD PUSH1 0x1 DUP3 ADD SLOAD DUP2 MSTORE POP POP DUP2 MSTORE PUSH1 0x20 ADD SWAP1 PUSH1 0x1 ADD SWAP1 PUSH2 0x13E4 JUMP JUMPDEST POP POP POP POP SWAP1 POP SWAP1 JUMP JUMPDEST PUSH0 PUSH4 0xBC197C81 PUSH1 0xE0 SHL SWAP1 POP SWAP9 SWAP8 POP POP POP POP POP POP POP POP JUMP JUMPDEST PUSH0 PUSH0 PUSH1 0x9 SLOAD SWAP1 POP PUSH2 0x14B4 DUP4 DUP3 PUSH1 0x64 PUSH1 0x40 MLOAD DUP1 PUSH1 0x20 ADD PUSH1 0x40 MSTORE DUP1 PUSH0 DUP2 MSTORE POP PUSH2 0x26A7 JUMP JUMPDEST DUP4 PUSH1 0x7 PUSH0 DUP4 DUP2 MSTORE PUSH1 0x20 ADD SWAP1 DUP2 MSTORE PUSH1 0x20 ADD PUSH0 KECCAK256 SWAP1 DUP2 PUSH2 0x14D2 SWAP2 SWAP1 PUSH2 0x44F6 JUMP JUMPDEST POP PUSH1 0x64 PUSH1 0x5 PUSH0 DUP6 PUSH20 0xFFFFFFFFFFFFFFFFFFFFFFFFFFFFFFFFFFFFFFFF AND PUSH20 0xFFFFFFFFFFFFFFFFFFFFFFFFFFFFFFFFFFFFFFFF AND DUP2 MSTORE PUSH1 0x20 ADD SWAP1 DUP2 MSTORE PUSH1 0x20 ADD PUSH0 KECCAK256 PUSH0 DUP4 DUP2 MSTORE PUSH1 0x20 ADD SWAP1 DUP2 MSTORE PUSH1 0x20 ADD PUSH0 KECCAK256 DUP2 SWAP1 SSTORE POP PUSH2 0x152F DUP4 DUP3 PUSH2 0x248B JUMP JUMPDEST PUSH1 0x9 PUSH0 DUP2 SLOAD DUP1 SWAP3 SWAP2 SWAP1 PUSH2 0x1541 SWAP1 PUSH2 0x45C5 JUMP JUMPDEST SWAP2 SWAP1 POP SSTORE POP DUP1 SWAP2 POP POP SWAP3 SWAP2 POP POP JUMP JUMPDEST PUSH0 PUSH1 0x6 PUSH0 DUP4 PUSH20 0xFFFFFFFFFFFFFFFFFFFFFFFFFFFFFFFFFFFFFFFF AND PUSH20 0xFFFFFFFFFFFFFFFFFFFFFFFFFFFFFFFFFFFFFFFF AND DUP2 MSTORE PUSH1 0x20 ADD SWAP1 DUP2 MSTORE PUSH1 0x20 ADD PUSH0 KECCAK256 DUP1 SLOAD SWAP1 POP SWAP1 POP SWAP2 SWAP1 POP JUMP JUMPDEST DUP2 PUSH2 0x15A4 DUP6 DUP6 PUSH2 0x682 JUMP JUMPDEST LT ISZERO PUSH2 0x15E5 JUMPI PUSH1 0x40 MLOAD PUSH32 0x8C379A000000000000000000000000000000000000000000000000000000000 DUP2 MSTORE PUSH1 0x4 ADD PUSH2 0x15DC SWAP1 PUSH2 0x4656 JUMP JUMPDEST PUSH1 0x40 MLOAD DUP1 SWAP2 SUB SWAP1 REVERT JUMPDEST PUSH0 DUP2 GT PUSH2 0x1627 JUMPI PUSH1 0x40 MLOAD PUSH32 0x8C379A000000000000000000000000000000000000000000000000000000000 DUP2 MSTORE PUSH1 0x4 ADD PUSH2 0x161E SWAP1 PUSH2 0x46BE JUMP JUMPDEST PUSH1 0x40 MLOAD DUP1 SWAP2 SUB SWAP1 REVERT JUMPDEST PUSH0 PUSH20 0xFFFFFFFFFFFFFFFFFFFFFFFFFFFFFFFFFFFFFFFF AND PUSH1 0x4 PUSH0 DUP7 PUSH20 0xFFFFFFFFFFFFFFFFFFFFFFFFFFFFFFFFFFFFFFFF AND PUSH20 0xFFFFFFFFFFFFFFFFFFFFFFFFFFFFFFFFFFFFFFFF AND DUP2 MSTORE PUSH1 0x20 ADD SWAP1 DUP2 MSTORE PUSH1 0x20 ADD PUSH0 KECCAK256 PUSH0 DUP6 DUP2 MSTORE PUSH1 0x20 ADD SWAP1 DUP2 MSTORE PUSH1 0x20 ADD PUSH0 KECCAK256 PUSH0 ADD PUSH0 SWAP1 SLOAD SWAP1 PUSH2 0x100 EXP SWAP1 DIV PUSH20 0xFFFFFFFFFFFFFFFFFFFFFFFFFFFFFFFFFFFFFFFF AND PUSH20 0xFFFFFFFFFFFFFFFFFFFFFFFFFFFFFFFFFFFFFFFF AND EQ PUSH2 0x1702 JUMPI PUSH1 0x40 MLOAD PUSH32 0x8C379A000000000000000000000000000000000000000000000000000000000 DUP2 MSTORE PUSH1 0x4 ADD PUSH2 0x16F9 SWAP1 PUSH2 0x4726 JUMP JUMPDEST PUSH1 0x40 MLOAD DUP1 SWAP2 SUB SWAP1 REVERT JUMPDEST PUSH0 DUP3 GT PUSH2 0x1744 JUMPI PUSH1 0x40 MLOAD PUSH32 0x8C379A000000000000000000000000000000000000000000000000000000000 DUP2 MSTORE PUSH1 0x4 ADD PUSH2 0x173B SWAP1 PUSH2 0x478E JUMP JUMPDEST PUSH1 0x40 MLOAD DUP1 SWAP2 SUB SWAP1 REVERT JUMPDEST DUP2 PUSH1 0x5 PUSH0 DUP7 PUSH20 0xFFFFFFFFFFFFFFFFFFFFFFFFFFFFFFFFFFFFFFFF AND PUSH20 0xFFFFFFFFFFFFFFFFFFFFFFFFFFFFFFFFFFFFFFFF AND DUP2 MSTORE PUSH1 0x20 ADD SWAP1 DUP2 MSTORE PUSH1 0x20 ADD PUSH0 KECCAK256 PUSH0 DUP6 DUP2 MSTORE PUSH1 0x20 ADD SWAP1 DUP2 MSTORE PUSH1 0x20 ADD PUSH0 KECCAK256 SLOAD LT ISZERO PUSH2 0x17D3 JUMPI PUSH1 0x40 MLOAD PUSH32 0x8C379A000000000000000000000000000000000000000000000000000000000 DUP2 MSTORE PUSH1 0x4 ADD PUSH2 0x17CA SWAP1 PUSH2 0x47F6 JUMP JUMPDEST PUSH1 0x40 MLOAD DUP1 SWAP2 SUB SWAP1 REVERT JUMPDEST PUSH2 0x17EE DUP5 ADDRESS DUP6 DUP6 PUSH1 0x40 MLOAD DUP1 PUSH1 0x20 ADD PUSH1 0x40 MSTORE DUP1 PUSH0 DUP2 MSTORE POP PUSH2 0x2385 JUMP JUMPDEST DUP2 PUSH1 0x5 PUSH0 DUP7 PUSH20 0xFFFFFFFFFFFFFFFFFFFFFFFFFFFFFFFFFFFFFFFF AND PUSH20 0xFFFFFFFFFFFFFFFFFFFFFFFFFFFFFFFFFFFFFFFF AND DUP2 MSTORE PUSH1 0x20 ADD SWAP1 DUP2 MSTORE PUSH1 0x20 ADD PUSH0 KECCAK256 PUSH0 DUP6 DUP2 MSTORE PUSH1 0x20 ADD SWAP1 DUP2 MSTORE PUSH1 0x20 ADD PUSH0 KECCAK256 PUSH0 DUP3 DUP3 SLOAD PUSH2 0x1849 SWAP2 SWAP1 PUSH2 0x4814 JUMP JUMPDEST SWAP3 POP POP DUP2 SWAP1 SSTORE POP PUSH1 0x40 MLOAD DUP1 PUSH1 0x60 ADD PUSH1 0x40 MSTORE DUP1 DUP6 PUSH20 0xFFFFFFFFFFFFFFFFFFFFFFFFFFFFFFFFFFFFFFFF AND DUP2 MSTORE PUSH1 0x20 ADD DUP4 DUP2 MSTORE PUSH1 0x20 ADD DUP3 DUP2 MSTORE POP PUSH1 0x4 PUSH0 DUP7 PUSH20 0xFFFFFFFFFFFFFFFFFFFFFFFFFFFFFFFFFFFFFFFF AND PUSH20 0xFFFFFFFFFFFFFFFFFFFFFFFFFFFFFFFFFFFFFFFF AND DUP2 MSTORE PUSH1 0x20 ADD SWAP1 DUP2 MSTORE PUSH1 0x20 ADD PUSH0 KECCAK256 PUSH0 DUP6 DUP2 MSTORE PUSH1 0x20 ADD SWAP1 DUP2 MSTORE PUSH1 0x20 ADD PUSH0 KECCAK256 PUSH0 DUP3 ADD MLOAD DUP2 PUSH0 ADD PUSH0 PUSH2 0x100 EXP DUP2 SLOAD DUP2 PUSH20 0xFFFFFFFFFFFFFFFFFFFFFFFFFFFFFFFFFFFFFFFF MUL NOT AND SWAP1 DUP4 PUSH20 0xFFFFFFFFFFFFFFFFFFFFFFFFFFFFFFFFFFFFFFFF AND MUL OR SWAP1 SSTORE POP PUSH1 0x20 DUP3 ADD MLOAD DUP2 PUSH1 0x1 ADD SSTORE PUSH1 0x40 DUP3 ADD MLOAD DUP2 PUSH1 0x2 ADD SSTORE SWAP1 POP POP PUSH1 0x8 PUSH1 0x40 MLOAD DUP1 PUSH1 0x40 ADD PUSH1 0x40 MSTORE DUP1 DUP7 PUSH20 0xFFFFFFFFFFFFFFFFFFFFFFFFFFFFFFFFFFFFFFFF AND DUP2 MSTORE PUSH1 0x20 ADD DUP6 DUP2 MSTORE POP SWAP1 DUP1 PUSH1 0x1 DUP2 SLOAD ADD DUP1 DUP3 SSTORE DUP1 SWAP2 POP POP PUSH1 0x1 SWAP1 SUB SWAP1 PUSH0 MSTORE PUSH1 0x20 PUSH0 KECCAK256 SWAP1 PUSH1 0x2 MUL ADD PUSH0 SWAP1 SWAP2 SWAP1 SWAP2 SWAP1 SWAP2 POP PUSH0 DUP3 ADD MLOAD DUP2 PUSH0 ADD PUSH0 PUSH2 0x100 EXP DUP2 SLOAD DUP2 PUSH20 0xFFFFFFFFFFFFFFFFFFFFFFFFFFFFFFFFFFFFFFFF MUL NOT AND SWAP1 DUP4 PUSH20 0xFFFFFFFFFFFFFFFFFFFFFFFFFFFFFFFFFFFFFFFF AND MUL OR SWAP1 SSTORE POP PUSH1 0x20 DUP3 ADD MLOAD DUP2 PUSH1 0x1 ADD SSTORE POP POP PUSH32 0xEBA8CEE8F0A2AB7B4CC8E75D10EAE88EB6B625A15419821B6676D03A57AD7762 DUP5 DUP4 DUP4 PUSH1 0x40 MLOAD PUSH2 0x19FE SWAP4 SWAP3 SWAP2 SWAP1 PUSH2 0x392F JUMP JUMPDEST PUSH1 0x40 MLOAD DUP1 SWAP2 SUB SWAP1 LOG1 POP POP POP POP JUMP JUMPDEST PUSH0 PUSH1 0x4 PUSH0 DUP7 PUSH20 0xFFFFFFFFFFFFFFFFFFFFFFFFFFFFFFFFFFFFFFFF AND PUSH20 0xFFFFFFFFFFFFFFFFFFFFFFFFFFFFFFFFFFFFFFFF AND DUP2 MSTORE PUSH1 0x20 ADD SWAP1 DUP2 MSTORE PUSH1 0x20 ADD PUSH0 KECCAK256 PUSH0 DUP5 DUP2 MSTORE PUSH1 0x20 ADD SWAP1 DUP2 MSTORE PUSH1 0x20 ADD PUSH0 KECCAK256 PUSH1 0x40 MLOAD DUP1 PUSH1 0x60 ADD PUSH1 0x40 MSTORE SWAP1 DUP2 PUSH0 DUP3 ADD PUSH0 SWAP1 SLOAD SWAP1 PUSH2 0x100 EXP SWAP1 DIV PUSH20 0xFFFFFFFFFFFFFFFFFFFFFFFFFFFFFFFFFFFFFFFF AND PUSH20 0xFFFFFFFFFFFFFFFFFFFFFFFFFFFFFFFFFFFFFFFF AND PUSH20 0xFFFFFFFFFFFFFFFFFFFFFFFFFFFFFFFFFFFFFFFF AND DUP2 MSTORE PUSH1 0x20 ADD PUSH1 0x1 DUP3 ADD SLOAD DUP2 MSTORE PUSH1 0x20 ADD PUSH1 0x2 DUP3 ADD SLOAD DUP2 MSTORE POP POP SWAP1 POP DUP2 DUP2 PUSH1 0x40 ADD MLOAD EQ PUSH2 0x1B14 JUMPI PUSH1 0x40 MLOAD PUSH32 0x8C379A000000000000000000000000000000000000000000000000000000000 DUP2 MSTORE PUSH1 0x4 ADD PUSH2 0x1B0B SWAP1 PUSH2 0x4891 JUMP JUMPDEST PUSH1 0x40 MLOAD DUP1 SWAP2 SUB SWAP1 REVERT JUMPDEST DUP1 PUSH0 ADD MLOAD PUSH20 0xFFFFFFFFFFFFFFFFFFFFFFFFFFFFFFFFFFFFFFFF AND DUP5 PUSH20 0xFFFFFFFFFFFFFFFFFFFFFFFFFFFFFFFFFFFFFFFF AND SUB PUSH2 0x1B85 JUMPI PUSH1 0x40 MLOAD PUSH32 0x8C379A000000000000000000000000000000000000000000000000000000000 DUP2 MSTORE PUSH1 0x4 ADD PUSH2 0x1B7C SWAP1 PUSH2 0x48F9 JUMP JUMPDEST PUSH1 0x40 MLOAD DUP1 SWAP2 SUB SWAP1 REVERT JUMPDEST PUSH0 PUSH20 0xFFFFFFFFFFFFFFFFFFFFFFFFFFFFFFFFFFFFFFFF AND DUP2 PUSH0 ADD MLOAD PUSH20 0xFFFFFFFFFFFFFFFFFFFFFFFFFFFFFFFFFFFFFFFF AND SUB PUSH2 0x1BF6 JUMPI PUSH1 0x40 MLOAD PUSH32 0x8C379A000000000000000000000000000000000000000000000000000000000 DUP2 MSTORE PUSH1 0x4 ADD PUSH2 0x1BED SWAP1 PUSH2 0x4270 JUMP JUMPDEST PUSH1 0x40 MLOAD DUP1 SWAP2 SUB SWAP1 REVERT JUMPDEST PUSH2 0x1C15 ADDRESS DUP6 DUP6 DUP5 PUSH1 0x20 ADD MLOAD PUSH1 0x40 MLOAD DUP1 PUSH1 0x20 ADD PUSH1 0x40 MSTORE DUP1 PUSH0 DUP2 MSTORE POP PUSH2 0x2385 JUMP JUMPDEST DUP1 PUSH1 0x20 ADD MLOAD PUSH1 0x5 PUSH0 DUP7 PUSH20 0xFFFFFFFFFFFFFFFFFFFFFFFFFFFFFFFFFFFFFFFF AND PUSH20 0xFFFFFFFFFFFFFFFFFFFFFFFFFFFFFFFFFFFFFFFF AND DUP2 MSTORE PUSH1 0x20 ADD SWAP1 DUP2 MSTORE PUSH1 0x20 ADD PUSH0 KECCAK256 PUSH0 DUP6 DUP2 MSTORE PUSH1 0x20 ADD SWAP1 DUP2 MSTORE PUSH1 0x20 ADD PUSH0 KECCAK256 PUSH0 DUP3 DUP3 SLOAD PUSH2 0x1C74 SWAP2 SWAP1 PUSH2 0x42BB JUMP JUMPDEST SWAP3 POP POP DUP2 SWAP1 SSTORE POP PUSH2 0x1C85 DUP5 DUP5 PUSH2 0x248B JUMP JUMPDEST PUSH1 0x4 PUSH0 DUP7 PUSH20 0xFFFFFFFFFFFFFFFFFFFFFFFFFFFFFFFFFFFFFFFF AND PUSH20 0xFFFFFFFFFFFFFFFFFFFFFFFFFFFFFFFFFFFFFFFF AND DUP2 MSTORE PUSH1 0x20 ADD SWAP1 DUP2 MSTORE PUSH1 0x20 ADD PUSH0 KECCAK256 PUSH0 DUP5 DUP2 MSTORE PUSH1 0x20 ADD SWAP1 DUP2 MSTORE PUSH1 0x20 ADD PUSH0 KECCAK256 PUSH0 PUSH0 DUP3 ADD PUSH0 PUSH2 0x100 EXP DUP2 SLOAD SWAP1 PUSH20 0xFFFFFFFFFFFFFFFFFFFFFFFFFFFFFFFFFFFFFFFF MUL NOT AND SWAP1 SSTORE PUSH1 0x1 DUP3 ADD PUSH0 SWAP1 SSTORE PUSH1 0x2 DUP3 ADD PUSH0 SWAP1 SSTORE POP POP POP POP POP POP POP JUMP JUMPDEST PUSH0 PUSH1 0x1 PUSH0 DUP5 PUSH20 0xFFFFFFFFFFFFFFFFFFFFFFFFFFFFFFFFFFFFFFFF AND PUSH20 0xFFFFFFFFFFFFFFFFFFFFFFFFFFFFFFFFFFFFFFFF AND DUP2 MSTORE PUSH1 0x20 ADD SWAP1 DUP2 MSTORE PUSH1 0x20 ADD PUSH0 KECCAK256 PUSH0 DUP4 PUSH20 0xFFFFFFFFFFFFFFFFFFFFFFFFFFFFFFFFFFFFFFFF AND PUSH20 0xFFFFFFFFFFFFFFFFFFFFFFFFFFFFFFFFFFFFFFFF AND DUP2 MSTORE PUSH1 0x20 ADD SWAP1 DUP2 MSTORE PUSH1 0x20 ADD PUSH0 KECCAK256 PUSH0 SWAP1 SLOAD SWAP1 PUSH2 0x100 EXP SWAP1 DIV PUSH1 0xFF AND SWAP1 POP SWAP3 SWAP2 POP POP JUMP JUMPDEST PUSH1 0x60 PUSH1 0x6 PUSH0 DUP4 PUSH20 0xFFFFFFFFFFFFFFFFFFFFFFFFFFFFFFFFFFFFFFFF AND PUSH20 0xFFFFFFFFFFFFFFFFFFFFFFFFFFFFFFFFFFFFFFFF AND DUP2 MSTORE PUSH1 0x20 ADD SWAP1 DUP2 MSTORE PUSH1 0x20 ADD PUSH0 KECCAK256 DUP1 SLOAD DUP1 PUSH1 0x20 MUL PUSH1 0x20 ADD PUSH1 0x40 MLOAD SWAP1 DUP2 ADD PUSH1 0x40 MSTORE DUP1 SWAP3 SWAP2 SWAP1 DUP2 DUP2 MSTORE PUSH1 0x20 ADD DUP3 DUP1 SLOAD DUP1 ISZERO PUSH2 0x1E23 JUMPI PUSH1 0x20 MUL DUP3 ADD SWAP2 SWAP1 PUSH0 MSTORE PUSH1 0x20 PUSH0 KECCAK256 SWAP1 JUMPDEST DUP2 SLOAD DUP2 MSTORE PUSH1 0x20 ADD SWAP1 PUSH1 0x1 ADD SWAP1 DUP1 DUP4 GT PUSH2 0x1E0F JUMPI JUMPDEST POP POP POP POP POP SWAP1 POP SWAP2 SWAP1 POP JUMP JUMPDEST PUSH0 PUSH4 0xF23A6E61 PUSH1 0xE0 SHL SWAP1 POP SWAP7 SWAP6 POP POP POP POP POP POP JUMP JUMPDEST PUSH0 PUSH2 0x1E4D PUSH2 0x211A JUMP JUMPDEST SWAP1 POP DUP1 PUSH20 0xFFFFFFFFFFFFFFFFFFFFFFFFFFFFFFFFFFFFFFFF AND DUP7 PUSH20 0xFFFFFFFFFFFFFFFFFFFFFFFFFFFFFFFFFFFFFFFF AND EQ ISZERO DUP1 ISZERO PUSH2 0x1E92 JUMPI POP PUSH2 0x1E90 DUP7 DUP3 PUSH2 0x1D0E JUMP JUMPDEST ISZERO JUMPDEST ISZERO PUSH2 0x1ED6 JUMPI DUP1 DUP7 PUSH1 0x40 MLOAD PUSH32 0xE237D92200000000000000000000000000000000000000000000000000000000 DUP2 MSTORE PUSH1 0x4 ADD PUSH2 0x1ECD SWAP3 SWAP2 SWAP1 PUSH2 0x416A JUMP JUMPDEST PUSH1 0x40 MLOAD DUP1 SWAP2 SUB SWAP1 REVERT JUMPDEST PUSH2 0x1EE3 DUP7 DUP7 DUP7 DUP7 DUP7 PUSH2 0x2385 JUMP JUMPDEST POP POP POP POP POP POP JUMP JUMPDEST PUSH2 0x1EF3 PUSH2 0x223B JUMP JUMPDEST PUSH0 PUSH20 0xFFFFFFFFFFFFFFFFFFFFFFFFFFFFFFFFFFFFFFFF AND DUP2 PUSH20 0xFFFFFFFFFFFFFFFFFFFFFFFFFFFFFFFFFFFFFFFF AND SUB PUSH2 0x1F63 JUMPI PUSH0 PUSH1 0x40 MLOAD PUSH32 0x1E4FBDF700000000000000000000000000000000000000000000000000000000 DUP2 MSTORE PUSH1 0x4 ADD PUSH2 0x1F5A SWAP2 SWAP1 PUSH2 0x39A2 JUMP JUMPDEST PUSH1 0x40 MLOAD DUP1 SWAP2 SUB SWAP1 REVERT JUMPDEST PUSH2 0x1F6C DUP2 PUSH2 0x22C2 JUMP JUMPDEST POP JUMP JUMPDEST PUSH0 PUSH32 0xD9B67A2600000000000000000000000000000000000000000000000000000000 PUSH28 0xFFFFFFFFFFFFFFFFFFFFFFFFFFFFFFFFFFFFFFFFFFFFFFFFFFFFFFFF NOT AND DUP3 PUSH28 0xFFFFFFFFFFFFFFFFFFFFFFFFFFFFFFFFFFFFFFFFFFFFFFFFFFFFFFFF NOT AND EQ DUP1 PUSH2 0x2039 JUMPI POP PUSH32 0xE89341C00000000000000000000000000000000000000000000000000000000 PUSH28 0xFFFFFFFFFFFFFFFFFFFFFFFFFFFFFFFFFFFFFFFFFFFFFFFFFFFFFFFF NOT AND DUP3 PUSH28 0xFFFFFFFFFFFFFFFFFFFFFFFFFFFFFFFFFFFFFFFFFFFFFFFFFFFFFFFF NOT AND EQ JUMPDEST DUP1 PUSH2 0x2049 JUMPI POP PUSH2 0x2048 DUP3 PUSH2 0x273C JUMP JUMPDEST JUMPDEST SWAP1 POP SWAP2 SWAP1 POP JUMP JUMPDEST PUSH1 0x60 PUSH0 PUSH1 0x1 PUSH2 0x205E DUP5 PUSH2 0x27A5 JUMP JUMPDEST ADD SWAP1 POP PUSH0 DUP2 PUSH8 0xFFFFFFFFFFFFFFFF DUP2 GT ISZERO PUSH2 0x207C JUMPI PUSH2 0x207B PUSH2 0x33A3 JUMP JUMPDEST JUMPDEST PUSH1 0x40 MLOAD SWAP1 DUP1 DUP3 MSTORE DUP1 PUSH1 0x1F ADD PUSH1 0x1F NOT AND PUSH1 0x20 ADD DUP3 ADD PUSH1 0x40 MSTORE DUP1 ISZERO PUSH2 0x20AE JUMPI DUP2 PUSH1 0x20 ADD PUSH1 0x1 DUP3 MUL DUP1 CALLDATASIZE DUP4 CALLDATACOPY DUP1 DUP3 ADD SWAP2 POP POP SWAP1 POP JUMPDEST POP SWAP1 POP PUSH0 DUP3 PUSH1 0x20 DUP4 ADD ADD SWAP1 POP JUMPDEST PUSH1 0x1 ISZERO PUSH2 0x210F JUMPI DUP1 DUP1 PUSH1 0x1 SWAP1 SUB SWAP2 POP POP PUSH32 0x3031323334353637383961626364656600000000000000000000000000000000 PUSH1 0xA DUP7 MOD BYTE DUP2 MSTORE8 PUSH1 0xA DUP6 DUP2 PUSH2 0x2104 JUMPI PUSH2 0x2103 PUSH2 0x4917 JUMP JUMPDEST JUMPDEST DIV SWAP5 POP PUSH0 DUP6 SUB PUSH2 0x20BB JUMPI JUMPDEST DUP2 SWAP4 POP POP POP POP SWAP2 SWAP1 POP JUMP JUMPDEST PUSH0 CALLER SWAP1 POP SWAP1 JUMP JUMPDEST PUSH0 PUSH20 0xFFFFFFFFFFFFFFFFFFFFFFFFFFFFFFFFFFFFFFFF AND DUP5 PUSH20 0xFFFFFFFFFFFFFFFFFFFFFFFFFFFFFFFFFFFFFFFF AND SUB PUSH2 0x2191 JUMPI PUSH0 PUSH1 0x40 MLOAD PUSH32 0x57F447CE00000000000000000000000000000000000000000000000000000000 DUP2 MSTORE PUSH1 0x4 ADD PUSH2 0x2188 SWAP2 SWAP1 PUSH2 0x39A2 JUMP JUMPDEST PUSH1 0x40 MLOAD DUP1 SWAP2 SUB SWAP1 REVERT JUMPDEST PUSH0 PUSH20 0xFFFFFFFFFFFFFFFFFFFFFFFFFFFFFFFFFFFFFFFF AND DUP6 PUSH20 0xFFFFFFFFFFFFFFFFFFFFFFFFFFFFFFFFFFFFFFFF AND SUB PUSH2 0x2201 JUMPI PUSH0 PUSH1 0x40 MLOAD PUSH32 0x1A8351400000000000000000000000000000000000000000000000000000000 DUP2 MSTORE PUSH1 0x4 ADD PUSH2 0x21F8 SWAP2 SWAP1 PUSH2 0x39A2 JUMP JUMPDEST PUSH1 0x40 MLOAD DUP1 SWAP2 SUB SWAP1 REVERT JUMPDEST PUSH2 0x220E DUP6 DUP6 DUP6 DUP6 DUP6 PUSH2 0x28F6 JUMP JUMPDEST POP POP POP POP POP JUMP JUMPDEST PUSH0 PUSH1 0x20 DUP3 MUL PUSH1 0x20 DUP5 ADD ADD MLOAD SWAP1 POP SWAP3 SWAP2 POP POP JUMP JUMPDEST PUSH0 PUSH1 0x20 DUP3 MUL PUSH1 0x20 DUP5 ADD ADD MLOAD SWAP1 POP SWAP3 SWAP2 POP POP JUMP JUMPDEST PUSH2 0x2243 PUSH2 0x211A JUMP JUMPDEST PUSH20 0xFFFFFFFFFFFFFFFFFFFFFFFFFFFFFFFFFFFFFFFF AND PUSH2 0x2261 PUSH2 0x124F JUMP JUMPDEST PUSH20 0xFFFFFFFFFFFFFFFFFFFFFFFFFFFFFFFFFFFFFFFF AND EQ PUSH2 0x22C0 JUMPI PUSH2 0x2284 PUSH2 0x211A JUMP JUMPDEST PUSH1 0x40 MLOAD PUSH32 0x118CDAA700000000000000000000000000000000000000000000000000000000 DUP2 MSTORE PUSH1 0x4 ADD PUSH2 0x22B7 SWAP2 SWAP1 PUSH2 0x39A2 JUMP JUMPDEST PUSH1 0x40 MLOAD DUP1 SWAP2 SUB SWAP1 REVERT JUMPDEST JUMP JUMPDEST PUSH0 PUSH1 0x3 PUSH0 SWAP1 SLOAD SWAP1 PUSH2 0x100 EXP SWAP1 DIV PUSH20 0xFFFFFFFFFFFFFFFFFFFFFFFFFFFFFFFFFFFFFFFF AND SWAP1 POP DUP2 PUSH1 0x3 PUSH0 PUSH2 0x100 EXP DUP2 SLOAD DUP2 PUSH20 0xFFFFFFFFFFFFFFFFFFFFFFFFFFFFFFFFFFFFFFFF MUL NOT AND SWAP1 DUP4 PUSH20 0xFFFFFFFFFFFFFFFFFFFFFFFFFFFFFFFFFFFFFFFF AND MUL OR SWAP1 SSTORE POP DUP2 PUSH20 0xFFFFFFFFFFFFFFFFFFFFFFFFFFFFFFFFFFFFFFFF AND DUP2 PUSH20 0xFFFFFFFFFFFFFFFFFFFFFFFFFFFFFFFFFFFFFFFF AND PUSH32 0x8BE0079C531659141344CD1FD0A4F28419497F9722A3DAAFE3B4186F6B6457E0 PUSH1 0x40 MLOAD PUSH1 0x40 MLOAD DUP1 SWAP2 SUB SWAP1 LOG3 POP POP JUMP JUMPDEST PUSH0 PUSH20 0xFFFFFFFFFFFFFFFFFFFFFFFFFFFFFFFFFFFFFFFF AND DUP5 PUSH20 0xFFFFFFFFFFFFFFFFFFFFFFFFFFFFFFFFFFFFFFFF AND SUB PUSH2 0x23F5 JUMPI PUSH0 PUSH1 0x40 MLOAD PUSH32 0x57F447CE00000000000000000000000000000000000000000000000000000000 DUP2 MSTORE PUSH1 0x4 ADD PUSH2 0x23EC SWAP2 SWAP1 PUSH2 0x39A2 JUMP JUMPDEST PUSH1 0x40 MLOAD DUP1 SWAP2 SUB SWAP1 REVERT JUMPDEST PUSH0 PUSH20 0xFFFFFFFFFFFFFFFFFFFFFFFFFFFFFFFFFFFFFFFF AND DUP6 PUSH20 0xFFFFFFFFFFFFFFFFFFFFFFFFFFFFFFFFFFFFFFFF AND SUB PUSH2 0x2465 JUMPI PUSH0 PUSH1 0x40 MLOAD PUSH32 0x1A8351400000000000000000000000000000000000000000000000000000000 DUP2 MSTORE PUSH1 0x4 ADD PUSH2 0x245C SWAP2 SWAP1 PUSH2 0x39A2 JUMP JUMPDEST PUSH1 0x40 MLOAD DUP1 SWAP2 SUB SWAP1 REVERT JUMPDEST PUSH0 PUSH0 PUSH2 0x2471 DUP6 DUP6 PUSH2 0x29A2 JUMP JUMPDEST SWAP2 POP SWAP2 POP PUSH2 0x2482 DUP8 DUP8 DUP5 DUP5 DUP8 PUSH2 0x28F6 JUMP JUMPDEST POP POP POP POP POP POP POP JUMP JUMPDEST PUSH0 PUSH1 0x6 PUSH0 DUP5 PUSH20 0xFFFFFFFFFFFFFFFFFFFFFFFFFFFFFFFFFFFFFFFF AND PUSH20 0xFFFFFFFFFFFFFFFFFFFFFFFFFFFFFFFFFFFFFFFF AND DUP2 MSTORE PUSH1 0x20 ADD SWAP1 DUP2 MSTORE PUSH1 0x20 ADD PUSH0 KECCAK256 SWAP1 POP PUSH0 PUSH0 SWAP1 POP JUMPDEST DUP2 DUP1 SLOAD SWAP1 POP DUP2 LT ISZERO PUSH2 0x2512 JUMPI DUP3 DUP3 DUP3 DUP2 SLOAD DUP2 LT PUSH2 0x24F0 JUMPI PUSH2 0x24EF PUSH2 0x4191 JUMP JUMPDEST JUMPDEST SWAP1 PUSH0 MSTORE PUSH1 0x20 PUSH0 KECCAK256 ADD SLOAD SUB PUSH2 0x2505 JUMPI POP POP PUSH2 0x253A JUMP JUMPDEST DUP1 DUP1 PUSH1 0x1 ADD SWAP2 POP POP PUSH2 0x24D0 JUMP JUMPDEST POP DUP1 DUP3 SWAP1 DUP1 PUSH1 0x1 DUP2 SLOAD ADD DUP1 DUP3 SSTORE DUP1 SWAP2 POP POP PUSH1 0x1 SWAP1 SUB SWAP1 PUSH0 MSTORE PUSH1 0x20 PUSH0 KECCAK256 ADD PUSH0 SWAP1 SWAP2 SWAP1 SWAP2 SWAP1 SWAP2 POP SSTORE POP JUMPDEST POP POP JUMP JUMPDEST PUSH0 PUSH20 0xFFFFFFFFFFFFFFFFFFFFFFFFFFFFFFFFFFFFFFFF AND DUP3 PUSH20 0xFFFFFFFFFFFFFFFFFFFFFFFFFFFFFFFFFFFFFFFF AND SUB PUSH2 0x25AE JUMPI PUSH0 PUSH1 0x40 MLOAD PUSH32 0xCED3E10000000000000000000000000000000000000000000000000000000000 DUP2 MSTORE PUSH1 0x4 ADD PUSH2 0x25A5 SWAP2 SWAP1 PUSH2 0x39A2 JUMP JUMPDEST PUSH1 0x40 MLOAD DUP1 SWAP2 SUB SWAP1 REVERT JUMPDEST DUP1 PUSH1 0x1 PUSH0 DUP6 PUSH20 0xFFFFFFFFFFFFFFFFFFFFFFFFFFFFFFFFFFFFFFFF AND PUSH20 0xFFFFFFFFFFFFFFFFFFFFFFFFFFFFFFFFFFFFFFFF AND DUP2 MSTORE PUSH1 0x20 ADD SWAP1 DUP2 MSTORE PUSH1 0x20 ADD PUSH0 KECCAK256 PUSH0 DUP5 PUSH20 0xFFFFFFFFFFFFFFFFFFFFFFFFFFFFFFFFFFFFFFFF AND PUSH20 0xFFFFFFFFFFFFFFFFFFFFFFFFFFFFFFFFFFFFFFFF AND DUP2 MSTORE PUSH1 0x20 ADD SWAP1 DUP2 MSTORE PUSH1 0x20 ADD PUSH0 KECCAK256 PUSH0 PUSH2 0x100 EXP DUP2 SLOAD DUP2 PUSH1 0xFF MUL NOT AND SWAP1 DUP4 ISZERO ISZERO MUL OR SWAP1 SSTORE POP DUP2 PUSH20 0xFFFFFFFFFFFFFFFFFFFFFFFFFFFFFFFFFFFFFFFF AND DUP4 PUSH20 0xFFFFFFFFFFFFFFFFFFFFFFFFFFFFFFFFFFFFFFFF AND PUSH32 0x17307EAB39AB6107E8899845AD3D59BD9653F200F220920489CA2B5937696C31 DUP4 PUSH1 0x40 MLOAD PUSH2 0x269A SWAP2 SWAP1 PUSH2 0x32F6 JUMP JUMPDEST PUSH1 0x40 MLOAD DUP1 SWAP2 SUB SWAP1 LOG3 POP POP POP JUMP JUMPDEST PUSH0 PUSH20 0xFFFFFFFFFFFFFFFFFFFFFFFFFFFFFFFFFFFFFFFF AND DUP5 PUSH20 0xFFFFFFFFFFFFFFFFFFFFFFFFFFFFFFFFFFFFFFFF AND SUB PUSH2 0x2717 JUMPI PUSH0 PUSH1 0x40 MLOAD PUSH32 0x57F447CE00000000000000000000000000000000000000000000000000000000 DUP2 MSTORE PUSH1 0x4 ADD PUSH2 0x270E SWAP2 SWAP1 PUSH2 0x39A2 JUMP JUMPDEST PUSH1 0x40 MLOAD DUP1 SWAP2 SUB SWAP1 REVERT JUMPDEST PUSH0 PUSH0 PUSH2 0x2723 DUP6 DUP6 PUSH2 0x29A2 JUMP JUMPDEST SWAP2 POP SWAP2 POP PUSH2 0x2734 PUSH0 DUP8 DUP5 DUP5 DUP8 PUSH2 0x28F6 JUMP JUMPDEST POP POP POP POP POP POP JUMP JUMPDEST PUSH0 PUSH32 0x1FFC9A700000000000000000000000000000000000000000000000000000000 PUSH28 0xFFFFFFFFFFFFFFFFFFFFFFFFFFFFFFFFFFFFFFFFFFFFFFFFFFFFFFFF NOT AND DUP3 PUSH28 0xFFFFFFFFFFFFFFFFFFFFFFFFFFFFFFFFFFFFFFFFFFFFFFFFFFFFFFFF NOT AND EQ SWAP1 POP SWAP2 SWAP1 POP JUMP JUMPDEST PUSH0 PUSH0 PUSH0 SWAP1 POP PUSH27 0x184F03E93FF9F4DAA797ED6E38ED64BF6A1F010000000000000000 DUP4 LT PUSH2 0x2801 JUMPI PUSH27 0x184F03E93FF9F4DAA797ED6E38ED64BF6A1F010000000000000000 DUP4 DUP2 PUSH2 0x27F7 JUMPI PUSH2 0x27F6 PUSH2 0x4917 JUMP JUMPDEST JUMPDEST DIV SWAP3 POP PUSH1 0x40 DUP2 ADD SWAP1 POP JUMPDEST PUSH14 0x4EE2D6D415B85ACEF8100000000 DUP4 LT PUSH2 0x283E JUMPI PUSH14 0x4EE2D6D415B85ACEF8100000000 DUP4 DUP2 PUSH2 0x2834 JUMPI PUSH2 0x2833 PUSH2 0x4917 JUMP JUMPDEST JUMPDEST DIV SWAP3 POP PUSH1 0x20 DUP2 ADD SWAP1 POP JUMPDEST PUSH7 0x2386F26FC10000 DUP4 LT PUSH2 0x286D JUMPI PUSH7 0x2386F26FC10000 DUP4 DUP2 PUSH2 0x2863 JUMPI PUSH2 0x2862 PUSH2 0x4917 JUMP JUMPDEST JUMPDEST DIV SWAP3 POP PUSH1 0x10 DUP2 ADD SWAP1 POP JUMPDEST PUSH4 0x5F5E100 DUP4 LT PUSH2 0x2896 JUMPI PUSH4 0x5F5E100 DUP4 DUP2 PUSH2 0x288C JUMPI PUSH2 0x288B PUSH2 0x4917 JUMP JUMPDEST JUMPDEST DIV SWAP3 POP PUSH1 0x8 DUP2 ADD SWAP1 POP JUMPDEST PUSH2 0x2710 DUP4 LT PUSH2 0x28BB JUMPI PUSH2 0x2710 DUP4 DUP2 PUSH2 0x28B1 JUMPI PUSH2 0x28B0 PUSH2 0x4917 JUMP JUMPDEST JUMPDEST DIV SWAP3 POP PUSH1 0x4 DUP2 ADD SWAP1 POP JUMPDEST PUSH1 0x64 DUP4 LT PUSH2 0x28DE JUMPI PUSH1 0x64 DUP4 DUP2 PUSH2 0x28D4 JUMPI PUSH2 0x28D3 PUSH2 0x4917 JUMP JUMPDEST JUMPDEST DIV SWAP3 POP PUSH1 0x2 DUP2 ADD SWAP1 POP JUMPDEST PUSH1 0xA DUP4 LT PUSH2 0x28ED JUMPI PUSH1 0x1 DUP2 ADD SWAP1 POP JUMPDEST DUP1 SWAP2 POP POP SWAP2 SWAP1 POP JUMP JUMPDEST PUSH2 0x2902 DUP6 DUP6 DUP6 DUP6 PUSH2 0x29D2 JUMP JUMPDEST PUSH0 PUSH20 0xFFFFFFFFFFFFFFFFFFFFFFFFFFFFFFFFFFFFFFFF AND DUP5 PUSH20 0xFFFFFFFFFFFFFFFFFFFFFFFFFFFFFFFFFFFFFFFF AND EQ PUSH2 0x299B JUMPI PUSH0 PUSH2 0x293E PUSH2 0x211A JUMP JUMPDEST SWAP1 POP PUSH1 0x1 DUP5 MLOAD SUB PUSH2 0x298A JUMPI PUSH0 PUSH2 0x295D PUSH0 DUP7 PUSH2 0x2228 SWAP1 SWAP2 SWAP1 PUSH4 0xFFFFFFFF AND JUMP JUMPDEST SWAP1 POP PUSH0 PUSH2 0x2973 PUSH0 DUP7 PUSH2 0x2228 SWAP1 SWAP2 SWAP1 PUSH4 0xFFFFFFFF AND JUMP JUMPDEST SWAP1 POP PUSH2 0x2983 DUP4 DUP10 DUP10 DUP6 DUP6 DUP10 PUSH2 0x2D65 JUMP JUMPDEST POP POP PUSH2 0x2999 JUMP JUMPDEST PUSH2 0x2998 DUP2 DUP8 DUP8 DUP8 DUP8 DUP8 PUSH2 0x2F14 JUMP JUMPDEST JUMPDEST POP JUMPDEST POP POP POP POP POP JUMP JUMPDEST PUSH1 0x60 DUP1 PUSH1 0x40 MLOAD SWAP2 POP PUSH1 0x1 DUP3 MSTORE DUP4 PUSH1 0x20 DUP4 ADD MSTORE PUSH1 0x40 DUP3 ADD SWAP1 POP PUSH1 0x1 DUP2 MSTORE DUP3 PUSH1 0x20 DUP3 ADD MSTORE PUSH1 0x40 DUP2 ADD PUSH1 0x40 MSTORE SWAP3 POP SWAP3 SWAP1 POP JUMP JUMPDEST DUP1 MLOAD DUP3 MLOAD EQ PUSH2 0x2A1C JUMPI DUP2 MLOAD DUP2 MLOAD PUSH1 0x40 MLOAD PUSH32 0x5B05999100000000000000000000000000000000000000000000000000000000 DUP2 MSTORE PUSH1 0x4 ADD PUSH2 0x2A13 SWAP3 SWAP2 SWAP1 PUSH2 0x39BB JUMP JUMPDEST PUSH1 0x40 MLOAD DUP1 SWAP2 SUB SWAP1 REVERT JUMPDEST PUSH0 PUSH2 0x2A25 PUSH2 0x211A JUMP JUMPDEST SWAP1 POP PUSH0 PUSH0 SWAP1 POP JUMPDEST DUP4 MLOAD DUP2 LT ISZERO PUSH2 0x2C24 JUMPI PUSH0 PUSH2 0x2A49 DUP3 DUP7 PUSH2 0x2228 SWAP1 SWAP2 SWAP1 PUSH4 0xFFFFFFFF AND JUMP JUMPDEST SWAP1 POP PUSH0 PUSH2 0x2A5F DUP4 DUP7 PUSH2 0x2228 SWAP1 SWAP2 SWAP1 PUSH4 0xFFFFFFFF AND JUMP JUMPDEST SWAP1 POP PUSH0 PUSH20 0xFFFFFFFFFFFFFFFFFFFFFFFFFFFFFFFFFFFFFFFF AND DUP9 PUSH20 0xFFFFFFFFFFFFFFFFFFFFFFFFFFFFFFFFFFFFFFFF AND EQ PUSH2 0x2B82 JUMPI PUSH0 PUSH0 PUSH0 DUP5 DUP2 MSTORE PUSH1 0x20 ADD SWAP1 DUP2 MSTORE PUSH1 0x20 ADD PUSH0 KECCAK256 PUSH0 DUP11 PUSH20 0xFFFFFFFFFFFFFFFFFFFFFFFFFFFFFFFFFFFFFFFF AND PUSH20 0xFFFFFFFFFFFFFFFFFFFFFFFFFFFFFFFFFFFFFFFF AND DUP2 MSTORE PUSH1 0x20 ADD SWAP1 DUP2 MSTORE PUSH1 0x20 ADD PUSH0 KECCAK256 SLOAD SWAP1 POP DUP2 DUP2 LT ISZERO PUSH2 0x2B2E JUMPI DUP9 DUP2 DUP4 DUP6 PUSH1 0x40 MLOAD PUSH32 0x3DEE4C500000000000000000000000000000000000000000000000000000000 DUP2 MSTORE PUSH1 0x4 ADD PUSH2 0x2B25 SWAP5 SWAP4 SWAP3 SWAP2 SWAP1 PUSH2 0x4944 JUMP JUMPDEST PUSH1 0x40 MLOAD DUP1 SWAP2 SUB SWAP1 REVERT JUMPDEST DUP2 DUP2 SUB PUSH0 PUSH0 DUP6 DUP2 MSTORE PUSH1 0x20 ADD SWAP1 DUP2 MSTORE PUSH1 0x20 ADD PUSH0 KECCAK256 PUSH0 DUP12 PUSH20 0xFFFFFFFFFFFFFFFFFFFFFFFFFFFFFFFFFFFFFFFF AND PUSH20 0xFFFFFFFFFFFFFFFFFFFFFFFFFFFFFFFFFFFFFFFF AND DUP2 MSTORE PUSH1 0x20 ADD SWAP1 DUP2 MSTORE PUSH1 0x20 ADD PUSH0 KECCAK256 DUP2 SWAP1 SSTORE POP POP JUMPDEST PUSH0 PUSH20 0xFFFFFFFFFFFFFFFFFFFFFFFFFFFFFFFFFFFFFFFF AND DUP8 PUSH20 0xFFFFFFFFFFFFFFFFFFFFFFFFFFFFFFFFFFFFFFFF AND EQ PUSH2 0x2C17 JUMPI DUP1 PUSH0 PUSH0 DUP5 DUP2 MSTORE PUSH1 0x20 ADD SWAP1 DUP2 MSTORE PUSH1 0x20 ADD PUSH0 KECCAK256 PUSH0 DUP10 PUSH20 0xFFFFFFFFFFFFFFFFFFFFFFFFFFFFFFFFFFFFFFFF AND PUSH20 0xFFFFFFFFFFFFFFFFFFFFFFFFFFFFFFFFFFFFFFFF AND DUP2 MSTORE PUSH1 0x20 ADD SWAP1 DUP2 MSTORE PUSH1 0x20 ADD PUSH0 KECCAK256 PUSH0 DUP3 DUP3 SLOAD PUSH2 0x2C0F SWAP2 SWAP1 PUSH2 0x42BB JUMP JUMPDEST SWAP3 POP POP DUP2 SWAP1 SSTORE POP JUMPDEST POP POP DUP1 PUSH1 0x1 ADD SWAP1 POP PUSH2 0x2A2C JUMP JUMPDEST POP PUSH1 0x1 DUP4 MLOAD SUB PUSH2 0x2CDF JUMPI PUSH0 PUSH2 0x2C42 PUSH0 DUP6 PUSH2 0x2228 SWAP1 SWAP2 SWAP1 PUSH4 0xFFFFFFFF AND JUMP JUMPDEST SWAP1 POP PUSH0 PUSH2 0x2C58 PUSH0 DUP6 PUSH2 0x2228 SWAP1 SWAP2 SWAP1 PUSH4 0xFFFFFFFF AND JUMP JUMPDEST SWAP1 POP DUP6 PUSH20 0xFFFFFFFFFFFFFFFFFFFFFFFFFFFFFFFFFFFFFFFF AND DUP8 PUSH20 0xFFFFFFFFFFFFFFFFFFFFFFFFFFFFFFFFFFFFFFFF AND DUP5 PUSH20 0xFFFFFFFFFFFFFFFFFFFFFFFFFFFFFFFFFFFFFFFF AND PUSH32 0xC3D58168C5AE7397731D063D5BBF3D657854427343F4C083240F7AACAA2D0F62 DUP6 DUP6 PUSH1 0x40 MLOAD PUSH2 0x2CD0 SWAP3 SWAP2 SWAP1 PUSH2 0x39BB JUMP JUMPDEST PUSH1 0x40 MLOAD DUP1 SWAP2 SUB SWAP1 LOG4 POP POP PUSH2 0x2D5E JUMP JUMPDEST DUP4 PUSH20 0xFFFFFFFFFFFFFFFFFFFFFFFFFFFFFFFFFFFFFFFF AND DUP6 PUSH20 0xFFFFFFFFFFFFFFFFFFFFFFFFFFFFFFFFFFFFFFFF AND DUP3 PUSH20 0xFFFFFFFFFFFFFFFFFFFFFFFFFFFFFFFFFFFFFFFF AND PUSH32 0x4A39DC06D4C0DBC64B70AF90FD698A233A518AA5D07E595D983B8C0526C8F7FB DUP7 DUP7 PUSH1 0x40 MLOAD PUSH2 0x2D55 SWAP3 SWAP2 SWAP1 PUSH2 0x373C JUMP JUMPDEST PUSH1 0x40 MLOAD DUP1 SWAP2 SUB SWAP1 LOG4 JUMPDEST POP POP POP POP POP JUMP JUMPDEST PUSH0 DUP5 PUSH20 0xFFFFFFFFFFFFFFFFFFFFFFFFFFFFFFFFFFFFFFFF AND EXTCODESIZE GT ISZERO PUSH2 0x2F0C JUMPI DUP4 PUSH20 0xFFFFFFFFFFFFFFFFFFFFFFFFFFFFFFFFFFFFFFFF AND PUSH4 0xF23A6E61 DUP8 DUP8 DUP7 DUP7 DUP7 PUSH1 0x40 MLOAD DUP7 PUSH4 0xFFFFFFFF AND PUSH1 0xE0 SHL DUP2 MSTORE PUSH1 0x4 ADD PUSH2 0x2DC5 SWAP6 SWAP5 SWAP4 SWAP3 SWAP2 SWAP1 PUSH2 0x49D9 JUMP JUMPDEST PUSH1 0x20 PUSH1 0x40 MLOAD DUP1 DUP4 SUB DUP2 PUSH0 DUP8 GAS CALL SWAP3 POP POP POP DUP1 ISZERO PUSH2 0x2E00 JUMPI POP PUSH1 0x40 MLOAD RETURNDATASIZE PUSH1 0x1F NOT PUSH1 0x1F DUP3 ADD AND DUP3 ADD DUP1 PUSH1 0x40 MSTORE POP DUP2 ADD SWAP1 PUSH2 0x2DFD SWAP2 SWAP1 PUSH2 0x4A45 JUMP JUMPDEST PUSH1 0x1 JUMPDEST PUSH2 0x2E81 JUMPI RETURNDATASIZE DUP1 PUSH0 DUP2 EQ PUSH2 0x2E2E JUMPI PUSH1 0x40 MLOAD SWAP2 POP PUSH1 0x1F NOT PUSH1 0x3F RETURNDATASIZE ADD AND DUP3 ADD PUSH1 0x40 MSTORE RETURNDATASIZE DUP3 MSTORE RETURNDATASIZE PUSH0 PUSH1 0x20 DUP5 ADD RETURNDATACOPY PUSH2 0x2E33 JUMP JUMPDEST PUSH1 0x60 SWAP2 POP JUMPDEST POP PUSH0 DUP2 MLOAD SUB PUSH2 0x2E79 JUMPI DUP5 PUSH1 0x40 MLOAD PUSH32 0x57F447CE00000000000000000000000000000000000000000000000000000000 DUP2 MSTORE PUSH1 0x4 ADD PUSH2 0x2E70 SWAP2 SWAP1 PUSH2 0x39A2 JUMP JUMPDEST PUSH1 0x40 MLOAD DUP1 SWAP2 SUB SWAP1 REVERT JUMPDEST DUP1 MLOAD PUSH1 0x20 DUP3 ADD REVERT JUMPDEST PUSH4 0xF23A6E61 PUSH1 0xE0 SHL PUSH28 0xFFFFFFFFFFFFFFFFFFFFFFFFFFFFFFFFFFFFFFFFFFFFFFFFFFFFFFFF NOT AND DUP2 PUSH28 0xFFFFFFFFFFFFFFFFFFFFFFFFFFFFFFFFFFFFFFFFFFFFFFFFFFFFFFFF NOT AND EQ PUSH2 0x2F0A JUMPI DUP5 PUSH1 0x40 MLOAD PUSH32 0x57F447CE00000000000000000000000000000000000000000000000000000000 DUP2 MSTORE PUSH1 0x4 ADD PUSH2 0x2F01 SWAP2 SWAP1 PUSH2 0x39A2 JUMP JUMPDEST PUSH1 0x40 MLOAD DUP1 SWAP2 SUB SWAP1 REVERT JUMPDEST POP JUMPDEST POP POP POP POP POP POP JUMP JUMPDEST PUSH0 DUP5 PUSH20 0xFFFFFFFFFFFFFFFFFFFFFFFFFFFFFFFFFFFFFFFF AND EXTCODESIZE GT ISZERO PUSH2 0x30BB JUMPI DUP4 PUSH20 0xFFFFFFFFFFFFFFFFFFFFFFFFFFFFFFFFFFFFFFFF AND PUSH4 0xBC197C81 DUP8 DUP8 DUP7 DUP7 DUP7 PUSH1 0x40 MLOAD DUP7 PUSH4 0xFFFFFFFF AND PUSH1 0xE0 SHL DUP2 MSTORE PUSH1 0x4 ADD PUSH2 0x2F74 SWAP6 SWAP5 SWAP4 SWAP3 SWAP2 SWAP1 PUSH2 0x4A70 JUMP JUMPDEST PUSH1 0x20 PUSH1 0x40 MLOAD DUP1 DUP4 SUB DUP2 PUSH0 DUP8 GAS CALL SWAP3 POP POP POP DUP1 ISZERO PUSH2 0x2FAF JUMPI POP PUSH1 0x40 MLOAD RETURNDATASIZE PUSH1 0x1F NOT PUSH1 0x1F DUP3 ADD AND DUP3 ADD DUP1 PUSH1 0x40 MSTORE POP DUP2 ADD SWAP1 PUSH2 0x2FAC SWAP2 SWAP1 PUSH2 0x4A45 JUMP JUMPDEST PUSH1 0x1 JUMPDEST PUSH2 0x3030 JUMPI RETURNDATASIZE DUP1 PUSH0 DUP2 EQ PUSH2 0x2FDD JUMPI PUSH1 0x40 MLOAD SWAP2 POP PUSH1 0x1F NOT PUSH1 0x3F RETURNDATASIZE ADD AND DUP3 ADD PUSH1 0x40 MSTORE RETURNDATASIZE DUP3 MSTORE RETURNDATASIZE PUSH0 PUSH1 0x20 DUP5 ADD RETURNDATACOPY PUSH2 0x2FE2 JUMP JUMPDEST PUSH1 0x60 SWAP2 POP JUMPDEST POP PUSH0 DUP2 MLOAD SUB PUSH2 0x3028 JUMPI DUP5 PUSH1 0x40 MLOAD PUSH32 0x57F447CE00000000000000000000000000000000000000000000000000000000 DUP2 MSTORE PUSH1 0x4 ADD PUSH2 0x301F SWAP2 SWAP1 PUSH2 0x39A2 JUMP JUMPDEST PUSH1 0x40 MLOAD DUP1 SWAP2 SUB SWAP1 REVERT JUMPDEST DUP1 MLOAD PUSH1 0x20 DUP3 ADD REVERT JUMPDEST PUSH4 0xBC197C81 PUSH1 0xE0 SHL PUSH28 0xFFFFFFFFFFFFFFFFFFFFFFFFFFFFFFFFFFFFFFFFFFFFFFFFFFFFFFFF NOT AND DUP2 PUSH28 0xFFFFFFFFFFFFFFFFFFFFFFFFFFFFFFFFFFFFFFFFFFFFFFFFFFFFFFFF NOT AND EQ PUSH2 0x30B9 JUMPI DUP5 PUSH1 0x40 MLOAD PUSH32 0x57F447CE00000000000000000000000000000000000000000000000000000000 DUP2 MSTORE PUSH1 0x4 ADD PUSH2 0x30B0 SWAP2 SWAP1 PUSH2 0x39A2 JUMP JUMPDEST PUSH1 0x40 MLOAD DUP1 SWAP2 SUB SWAP1 REVERT JUMPDEST POP JUMPDEST POP POP POP POP POP POP JUMP JUMPDEST PUSH1 0x40 MLOAD DUP1 PUSH1 0x60 ADD PUSH1 0x40 MSTORE DUP1 PUSH0 PUSH20 0xFFFFFFFFFFFFFFFFFFFFFFFFFFFFFFFFFFFFFFFF AND DUP2 MSTORE PUSH1 0x20 ADD PUSH0 DUP2 MSTORE PUSH1 0x20 ADD PUSH0 DUP2 MSTORE POP SWAP1 JUMP JUMPDEST PUSH0 PUSH1 0x40 MLOAD SWAP1 POP SWAP1 JUMP JUMPDEST PUSH0 PUSH0 REVERT JUMPDEST PUSH0 PUSH0 REVERT JUMPDEST PUSH0 DUP2 SWAP1 POP SWAP2 SWAP1 POP JUMP JUMPDEST PUSH2 0x311A DUP2 PUSH2 0x3108 JUMP JUMPDEST DUP2 EQ PUSH2 0x3124 JUMPI PUSH0 PUSH0 REVERT JUMPDEST POP JUMP JUMPDEST PUSH0 DUP2 CALLDATALOAD SWAP1 POP PUSH2 0x3135 DUP2 PUSH2 0x3111 JUMP JUMPDEST SWAP3 SWAP2 POP POP JUMP JUMPDEST PUSH0 PUSH1 0x20 DUP3 DUP5 SUB SLT ISZERO PUSH2 0x3150 JUMPI PUSH2 0x314F PUSH2 0x3100 JUMP JUMPDEST JUMPDEST PUSH0 PUSH2 0x315D DUP5 DUP3 DUP6 ADD PUSH2 0x3127 JUMP JUMPDEST SWAP2 POP POP SWAP3 SWAP2 POP POP JUMP JUMPDEST PUSH0 PUSH20 0xFFFFFFFFFFFFFFFFFFFFFFFFFFFFFFFFFFFFFFFF DUP3 AND SWAP1 POP SWAP2 SWAP1 POP JUMP JUMPDEST PUSH0 PUSH2 0x318F DUP3 PUSH2 0x3166 JUMP JUMPDEST SWAP1 POP SWAP2 SWAP1 POP JUMP JUMPDEST PUSH2 0x319F DUP2 PUSH2 0x3185 JUMP JUMPDEST DUP3 MSTORE POP POP JUMP JUMPDEST PUSH2 0x31AE DUP2 PUSH2 0x3108 JUMP JUMPDEST DUP3 MSTORE POP POP JUMP JUMPDEST PUSH0 PUSH1 0x40 DUP3 ADD SWAP1 POP PUSH2 0x31C7 PUSH0 DUP4 ADD DUP6 PUSH2 0x3196 JUMP JUMPDEST PUSH2 0x31D4 PUSH1 0x20 DUP4 ADD DUP5 PUSH2 0x31A5 JUMP JUMPDEST SWAP4 SWAP3 POP POP POP JUMP JUMPDEST PUSH2 0x31E4 DUP2 PUSH2 0x3185 JUMP JUMPDEST DUP2 EQ PUSH2 0x31EE JUMPI PUSH0 PUSH0 REVERT JUMPDEST POP JUMP JUMPDEST PUSH0 DUP2 CALLDATALOAD SWAP1 POP PUSH2 0x31FF DUP2 PUSH2 0x31DB JUMP JUMPDEST SWAP3 SWAP2 POP POP JUMP JUMPDEST PUSH0 PUSH0 PUSH1 0x40 DUP4 DUP6 SUB SLT ISZERO PUSH2 0x321B JUMPI PUSH2 0x321A PUSH2 0x3100 JUMP JUMPDEST JUMPDEST PUSH0 PUSH2 0x3228 DUP6 DUP3 DUP7 ADD PUSH2 0x31F1 JUMP JUMPDEST SWAP3 POP POP PUSH1 0x20 PUSH2 0x3239 DUP6 DUP3 DUP7 ADD PUSH2 0x3127 JUMP JUMPDEST SWAP2 POP POP SWAP3 POP SWAP3 SWAP1 POP JUMP JUMPDEST PUSH0 PUSH1 0x20 DUP3 ADD SWAP1 POP PUSH2 0x3256 PUSH0 DUP4 ADD DUP5 PUSH2 0x31A5 JUMP JUMPDEST SWAP3 SWAP2 POP POP JUMP JUMPDEST PUSH0 PUSH32 0xFFFFFFFF00000000000000000000000000000000000000000000000000000000 DUP3 AND SWAP1 POP SWAP2 SWAP1 POP JUMP JUMPDEST PUSH2 0x3290 DUP2 PUSH2 0x325C JUMP JUMPDEST DUP2 EQ PUSH2 0x329A JUMPI PUSH0 PUSH0 REVERT JUMPDEST POP JUMP JUMPDEST PUSH0 DUP2 CALLDATALOAD SWAP1 POP PUSH2 0x32AB DUP2 PUSH2 0x3287 JUMP JUMPDEST SWAP3 SWAP2 POP POP JUMP JUMPDEST PUSH0 PUSH1 0x20 DUP3 DUP5 SUB SLT ISZERO PUSH2 0x32C6 JUMPI PUSH2 0x32C5 PUSH2 0x3100 JUMP JUMPDEST JUMPDEST PUSH0 PUSH2 0x32D3 DUP5 DUP3 DUP6 ADD PUSH2 0x329D JUMP JUMPDEST SWAP2 POP POP SWAP3 SWAP2 POP POP JUMP JUMPDEST PUSH0 DUP2 ISZERO ISZERO SWAP1 POP SWAP2 SWAP1 POP JUMP JUMPDEST PUSH2 0x32F0 DUP2 PUSH2 0x32DC JUMP JUMPDEST DUP3 MSTORE POP POP JUMP JUMPDEST PUSH0 PUSH1 0x20 DUP3 ADD SWAP1 POP PUSH2 0x3309 PUSH0 DUP4 ADD DUP5 PUSH2 0x32E7 JUMP JUMPDEST SWAP3 SWAP2 POP POP JUMP JUMPDEST PUSH0 DUP2 MLOAD SWAP1 POP SWAP2 SWAP1 POP JUMP JUMPDEST PUSH0 DUP3 DUP3 MSTORE PUSH1 0x20 DUP3 ADD SWAP1 POP SWAP3 SWAP2 POP POP JUMP JUMPDEST DUP3 DUP2 DUP4 MCOPY PUSH0 DUP4 DUP4 ADD MSTORE POP POP POP JUMP JUMPDEST PUSH0 PUSH1 0x1F NOT PUSH1 0x1F DUP4 ADD AND SWAP1 POP SWAP2 SWAP1 POP JUMP JUMPDEST PUSH0 PUSH2 0x3351 DUP3 PUSH2 0x330F JUMP JUMPDEST PUSH2 0x335B DUP2 DUP6 PUSH2 0x3319 JUMP JUMPDEST SWAP4 POP PUSH2 0x336B DUP2 DUP6 PUSH1 0x20 DUP7 ADD PUSH2 0x3329 JUMP JUMPDEST PUSH2 0x3374 DUP2 PUSH2 0x3337 JUMP JUMPDEST DUP5 ADD SWAP2 POP POP SWAP3 SWAP2 POP POP JUMP JUMPDEST PUSH0 PUSH1 0x20 DUP3 ADD SWAP1 POP DUP2 DUP2 SUB PUSH0 DUP4 ADD MSTORE PUSH2 0x3397 DUP2 DUP5 PUSH2 0x3347 JUMP JUMPDEST SWAP1 POP SWAP3 SWAP2 POP POP JUMP JUMPDEST PUSH0 PUSH0 REVERT JUMPDEST PUSH32 0x4E487B7100000000000000000000000000000000000000000000000000000000 PUSH0 MSTORE PUSH1 0x41 PUSH1 0x4 MSTORE PUSH1 0x24 PUSH0 REVERT JUMPDEST PUSH2 0x33D9 DUP3 PUSH2 0x3337 JUMP JUMPDEST DUP2 ADD DUP2 DUP2 LT PUSH8 0xFFFFFFFFFFFFFFFF DUP3 GT OR ISZERO PUSH2 0x33F8 JUMPI PUSH2 0x33F7 PUSH2 0x33A3 JUMP JUMPDEST JUMPDEST DUP1 PUSH1 0x40 MSTORE POP POP POP JUMP JUMPDEST PUSH0 PUSH2 0x340A PUSH2 0x30F7 JUMP JUMPDEST SWAP1 POP PUSH2 0x3416 DUP3 DUP3 PUSH2 0x33D0 JUMP JUMPDEST SWAP2 SWAP1 POP JUMP JUMPDEST PUSH0 PUSH8 0xFFFFFFFFFFFFFFFF DUP3 GT ISZERO PUSH2 0x3435 JUMPI PUSH2 0x3434 PUSH2 0x33A3 JUMP JUMPDEST JUMPDEST PUSH1 0x20 DUP3 MUL SWAP1 POP PUSH1 0x20 DUP2 ADD SWAP1 POP SWAP2 SWAP1 POP JUMP JUMPDEST PUSH0 PUSH0 REVERT JUMPDEST PUSH0 PUSH2 0x345C PUSH2 0x3457 DUP5 PUSH2 0x341B JUMP JUMPDEST PUSH2 0x3401 JUMP JUMPDEST SWAP1 POP DUP1 DUP4 DUP3 MSTORE PUSH1 0x20 DUP3 ADD SWAP1 POP PUSH1 0x20 DUP5 MUL DUP4 ADD DUP6 DUP2 GT ISZERO PUSH2 0x347F JUMPI PUSH2 0x347E PUSH2 0x3446 JUMP JUMPDEST JUMPDEST DUP4 JUMPDEST DUP2 DUP2 LT ISZERO PUSH2 0x34A8 JUMPI DUP1 PUSH2 0x3494 DUP9 DUP3 PUSH2 0x3127 JUMP JUMPDEST DUP5 MSTORE PUSH1 0x20 DUP5 ADD SWAP4 POP POP PUSH1 0x20 DUP2 ADD SWAP1 POP PUSH2 0x3481 JUMP JUMPDEST POP POP POP SWAP4 SWAP3 POP POP POP JUMP JUMPDEST PUSH0 DUP3 PUSH1 0x1F DUP4 ADD SLT PUSH2 0x34C6 JUMPI PUSH2 0x34C5 PUSH2 0x339F JUMP JUMPDEST JUMPDEST DUP2 CALLDATALOAD PUSH2 0x34D6 DUP5 DUP3 PUSH1 0x20 DUP7 ADD PUSH2 0x344A JUMP JUMPDEST SWAP2 POP POP SWAP3 SWAP2 POP POP JUMP JUMPDEST PUSH0 PUSH0 REVERT JUMPDEST PUSH0 PUSH8 0xFFFFFFFFFFFFFFFF DUP3 GT ISZERO PUSH2 0x34FD JUMPI PUSH2 0x34FC PUSH2 0x33A3 JUMP JUMPDEST JUMPDEST PUSH2 0x3506 DUP3 PUSH2 0x3337 JUMP JUMPDEST SWAP1 POP PUSH1 0x20 DUP2 ADD SWAP1 POP SWAP2 SWAP1 POP JUMP JUMPDEST DUP3 DUP2 DUP4 CALLDATACOPY PUSH0 DUP4 DUP4 ADD MSTORE POP POP POP JUMP JUMPDEST PUSH0 PUSH2 0x3533 PUSH2 0x352E DUP5 PUSH2 0x34E3 JUMP JUMPDEST PUSH2 0x3401 JUMP JUMPDEST SWAP1 POP DUP3 DUP2 MSTORE PUSH1 0x20 DUP2 ADD DUP5 DUP5 DUP5 ADD GT ISZERO PUSH2 0x354F JUMPI PUSH2 0x354E PUSH2 0x34DF JUMP JUMPDEST JUMPDEST PUSH2 0x355A DUP5 DUP3 DUP6 PUSH2 0x3513 JUMP JUMPDEST POP SWAP4 SWAP3 POP POP POP JUMP JUMPDEST PUSH0 DUP3 PUSH1 0x1F DUP4 ADD SLT PUSH2 0x3576 JUMPI PUSH2 0x3575 PUSH2 0x339F JUMP JUMPDEST JUMPDEST DUP2 CALLDATALOAD PUSH2 0x3586 DUP5 DUP3 PUSH1 0x20 DUP7 ADD PUSH2 0x3521 JUMP JUMPDEST SWAP2 POP POP SWAP3 SWAP2 POP POP JUMP JUMPDEST PUSH0 PUSH0 PUSH0 PUSH0 PUSH0 PUSH1 0xA0 DUP7 DUP9 SUB SLT ISZERO PUSH2 0x35A8 JUMPI PUSH2 0x35A7 PUSH2 0x3100 JUMP JUMPDEST JUMPDEST PUSH0 PUSH2 0x35B5 DUP9 DUP3 DUP10 ADD PUSH2 0x31F1 JUMP JUMPDEST SWAP6 POP POP PUSH1 0x20 PUSH2 0x35C6 DUP9 DUP3 DUP10 ADD PUSH2 0x31F1 JUMP JUMPDEST SWAP5 POP POP PUSH1 0x40 DUP7 ADD CALLDATALOAD PUSH8 0xFFFFFFFFFFFFFFFF DUP2 GT ISZERO PUSH2 0x35E7 JUMPI PUSH2 0x35E6 PUSH2 0x3104 JUMP JUMPDEST JUMPDEST PUSH2 0x35F3 DUP9 DUP3 DUP10 ADD PUSH2 0x34B2 JUMP JUMPDEST SWAP4 POP POP PUSH1 0x60 DUP7 ADD CALLDATALOAD PUSH8 0xFFFFFFFFFFFFFFFF DUP2 GT ISZERO PUSH2 0x3614 JUMPI PUSH2 0x3613 PUSH2 0x3104 JUMP JUMPDEST JUMPDEST PUSH2 0x3620 DUP9 DUP3 DUP10 ADD PUSH2 0x34B2 JUMP JUMPDEST SWAP3 POP POP PUSH1 0x80 DUP7 ADD CALLDATALOAD PUSH8 0xFFFFFFFFFFFFFFFF DUP2 GT ISZERO PUSH2 0x3641 JUMPI PUSH2 0x3640 PUSH2 0x3104 JUMP JUMPDEST JUMPDEST PUSH2 0x364D DUP9 DUP3 DUP10 ADD PUSH2 0x3562 JUMP JUMPDEST SWAP2 POP POP SWAP3 SWAP6 POP SWAP3 SWAP6 SWAP1 SWAP4 POP JUMP JUMPDEST PUSH0 PUSH1 0x20 DUP3 DUP5 SUB SLT ISZERO PUSH2 0x366F JUMPI PUSH2 0x366E PUSH2 0x3100 JUMP JUMPDEST JUMPDEST PUSH0 PUSH2 0x367C DUP5 DUP3 DUP6 ADD PUSH2 0x31F1 JUMP JUMPDEST SWAP2 POP POP SWAP3 SWAP2 POP POP JUMP JUMPDEST PUSH0 DUP2 MLOAD SWAP1 POP SWAP2 SWAP1 POP JUMP JUMPDEST PUSH0 DUP3 DUP3 MSTORE PUSH1 0x20 DUP3 ADD SWAP1 POP SWAP3 SWAP2 POP POP JUMP JUMPDEST PUSH0 DUP2 SWAP1 POP PUSH1 0x20 DUP3 ADD SWAP1 POP SWAP2 SWAP1 POP JUMP JUMPDEST PUSH2 0x36B7 DUP2 PUSH2 0x3108 JUMP JUMPDEST DUP3 MSTORE POP POP JUMP JUMPDEST PUSH0 PUSH2 0x36C8 DUP4 DUP4 PUSH2 0x36AE JUMP JUMPDEST PUSH1 0x20 DUP4 ADD SWAP1 POP SWAP3 SWAP2 POP POP JUMP JUMPDEST PUSH0 PUSH1 0x20 DUP3 ADD SWAP1 POP SWAP2 SWAP1 POP JUMP JUMPDEST PUSH0 PUSH2 0x36EA DUP3 PUSH2 0x3685 JUMP JUMPDEST PUSH2 0x36F4 DUP2 DUP6 PUSH2 0x368F JUMP JUMPDEST SWAP4 POP PUSH2 0x36FF DUP4 PUSH2 0x369F JUMP JUMPDEST DUP1 PUSH0 JUMPDEST DUP4 DUP2 LT ISZERO PUSH2 0x372F JUMPI DUP2 MLOAD PUSH2 0x3716 DUP9 DUP3 PUSH2 0x36BD JUMP JUMPDEST SWAP8 POP PUSH2 0x3721 DUP4 PUSH2 0x36D4 JUMP JUMPDEST SWAP3 POP POP PUSH1 0x1 DUP2 ADD SWAP1 POP PUSH2 0x3702 JUMP JUMPDEST POP DUP6 SWAP4 POP POP POP POP SWAP3 SWAP2 POP POP JUMP JUMPDEST PUSH0 PUSH1 0x40 DUP3 ADD SWAP1 POP DUP2 DUP2 SUB PUSH0 DUP4 ADD MSTORE PUSH2 0x3754 DUP2 DUP6 PUSH2 0x36E0 JUMP JUMPDEST SWAP1 POP DUP2 DUP2 SUB PUSH1 0x20 DUP4 ADD MSTORE PUSH2 0x3768 DUP2 DUP5 PUSH2 0x36E0 JUMP JUMPDEST SWAP1 POP SWAP4 SWAP3 POP POP POP JUMP JUMPDEST PUSH0 PUSH8 0xFFFFFFFFFFFFFFFF DUP3 GT ISZERO PUSH2 0x378B JUMPI PUSH2 0x378A PUSH2 0x33A3 JUMP JUMPDEST JUMPDEST PUSH1 0x20 DUP3 MUL SWAP1 POP PUSH1 0x20 DUP2 ADD SWAP1 POP SWAP2 SWAP1 POP JUMP JUMPDEST PUSH0 PUSH2 0x37AE PUSH2 0x37A9 DUP5 PUSH2 0x3771 JUMP JUMPDEST PUSH2 0x3401 JUMP JUMPDEST SWAP1 POP DUP1 DUP4 DUP3 MSTORE PUSH1 0x20 DUP3 ADD SWAP1 POP PUSH1 0x20 DUP5 MUL DUP4 ADD DUP6 DUP2 GT ISZERO PUSH2 0x37D1 JUMPI PUSH2 0x37D0 PUSH2 0x3446 JUMP JUMPDEST JUMPDEST DUP4 JUMPDEST DUP2 DUP2 LT ISZERO PUSH2 0x37FA JUMPI DUP1 PUSH2 0x37E6 DUP9 DUP3 PUSH2 0x31F1 JUMP JUMPDEST DUP5 MSTORE PUSH1 0x20 DUP5 ADD SWAP4 POP POP PUSH1 0x20 DUP2 ADD SWAP1 POP PUSH2 0x37D3 JUMP JUMPDEST POP POP POP SWAP4 SWAP3 POP POP POP JUMP JUMPDEST PUSH0 DUP3 PUSH1 0x1F DUP4 ADD SLT PUSH2 0x3818 JUMPI PUSH2 0x3817 PUSH2 0x339F JUMP JUMPDEST JUMPDEST DUP2 CALLDATALOAD PUSH2 0x3828 DUP5 DUP3 PUSH1 0x20 DUP7 ADD PUSH2 0x379C JUMP JUMPDEST SWAP2 POP POP SWAP3 SWAP2 POP POP JUMP JUMPDEST PUSH0 PUSH0 PUSH1 0x40 DUP4 DUP6 SUB SLT ISZERO PUSH2 0x3847 JUMPI PUSH2 0x3846 PUSH2 0x3100 JUMP JUMPDEST JUMPDEST PUSH0 DUP4 ADD CALLDATALOAD PUSH8 0xFFFFFFFFFFFFFFFF DUP2 GT ISZERO PUSH2 0x3864 JUMPI PUSH2 0x3863 PUSH2 0x3104 JUMP JUMPDEST JUMPDEST PUSH2 0x3870 DUP6 DUP3 DUP7 ADD PUSH2 0x3804 JUMP JUMPDEST SWAP3 POP POP PUSH1 0x20 DUP4 ADD CALLDATALOAD PUSH8 0xFFFFFFFFFFFFFFFF DUP2 GT ISZERO PUSH2 0x3891 JUMPI PUSH2 0x3890 PUSH2 0x3104 JUMP JUMPDEST JUMPDEST PUSH2 0x389D DUP6 DUP3 DUP7 ADD PUSH2 0x34B2 JUMP JUMPDEST SWAP2 POP POP SWAP3 POP SWAP3 SWAP1 POP JUMP JUMPDEST PUSH0 PUSH1 0x20 DUP3 ADD SWAP1 POP DUP2 DUP2 SUB PUSH0 DUP4 ADD MSTORE PUSH2 0x38BF DUP2 DUP5 PUSH2 0x36E0 JUMP JUMPDEST SWAP1 POP SWAP3 SWAP2 POP POP JUMP JUMPDEST PUSH2 0x38D0 DUP2 PUSH2 0x3185 JUMP JUMPDEST DUP3 MSTORE POP POP JUMP JUMPDEST PUSH1 0x60 DUP3 ADD PUSH0 DUP3 ADD MLOAD PUSH2 0x38EA PUSH0 DUP6 ADD DUP3 PUSH2 0x38C7 JUMP JUMPDEST POP PUSH1 0x20 DUP3 ADD MLOAD PUSH2 0x38FD PUSH1 0x20 DUP6 ADD DUP3 PUSH2 0x36AE JUMP JUMPDEST POP PUSH1 0x40 DUP3 ADD MLOAD PUSH2 0x3910 PUSH1 0x40 DUP6 ADD DUP3 PUSH2 0x36AE JUMP JUMPDEST POP POP POP POP JUMP JUMPDEST PUSH0 PUSH1 0x60 DUP3 ADD SWAP1 POP PUSH2 0x3929 PUSH0 DUP4 ADD DUP5 PUSH2 0x38D6 JUMP JUMPDEST SWAP3 SWAP2 POP POP JUMP JUMPDEST PUSH0 PUSH1 0x60 DUP3 ADD SWAP1 POP PUSH2 0x3942 PUSH0 DUP4 ADD DUP7 PUSH2 0x3196 JUMP JUMPDEST PUSH2 0x394F PUSH1 0x20 DUP4 ADD DUP6 PUSH2 0x31A5 JUMP JUMPDEST PUSH2 0x395C PUSH1 0x40 DUP4 ADD DUP5 PUSH2 0x31A5 JUMP JUMPDEST SWAP5 SWAP4 POP POP POP POP JUMP JUMPDEST PUSH0 PUSH0 PUSH1 0x40 DUP4 DUP6 SUB SLT ISZERO PUSH2 0x397A JUMPI PUSH2 0x3979 PUSH2 0x3100 JUMP JUMPDEST JUMPDEST PUSH0 PUSH2 0x3987 DUP6 DUP3 DUP7 ADD PUSH2 0x3127 JUMP JUMPDEST SWAP3 POP POP PUSH1 0x20 PUSH2 0x3998 DUP6 DUP3 DUP7 ADD PUSH2 0x31F1 JUMP JUMPDEST SWAP2 POP POP SWAP3 POP SWAP3 SWAP1 POP JUMP JUMPDEST PUSH0 PUSH1 0x20 DUP3 ADD SWAP1 POP PUSH2 0x39B5 PUSH0 DUP4 ADD DUP5 PUSH2 0x3196 JUMP JUMPDEST SWAP3 SWAP2 POP POP JUMP JUMPDEST PUSH0 PUSH1 0x40 DUP3 ADD SWAP1 POP PUSH2 0x39CE PUSH0 DUP4 ADD DUP6 PUSH2 0x31A5 JUMP JUMPDEST PUSH2 0x39DB PUSH1 0x20 DUP4 ADD DUP5 PUSH2 0x31A5 JUMP JUMPDEST SWAP4 SWAP3 POP POP POP JUMP JUMPDEST PUSH2 0x39EB DUP2 PUSH2 0x32DC JUMP JUMPDEST DUP2 EQ PUSH2 0x39F5 JUMPI PUSH0 PUSH0 REVERT JUMPDEST POP JUMP JUMPDEST PUSH0 DUP2 CALLDATALOAD SWAP1 POP PUSH2 0x3A06 DUP2 PUSH2 0x39E2 JUMP JUMPDEST SWAP3 SWAP2 POP POP JUMP JUMPDEST PUSH0 PUSH0 PUSH1 0x40 DUP4 DUP6 SUB SLT ISZERO PUSH2 0x3A22 JUMPI PUSH2 0x3A21 PUSH2 0x3100 JUMP JUMPDEST JUMPDEST PUSH0 PUSH2 0x3A2F DUP6 DUP3 DUP7 ADD PUSH2 0x31F1 JUMP JUMPDEST SWAP3 POP POP PUSH1 0x20 PUSH2 0x3A40 DUP6 DUP3 DUP7 ADD PUSH2 0x39F8 JUMP JUMPDEST SWAP2 POP POP SWAP3 POP SWAP3 SWAP1 POP JUMP JUMPDEST PUSH0 DUP2 MLOAD SWAP1 POP SWAP2 SWAP1 POP JUMP JUMPDEST PUSH0 DUP3 DUP3 MSTORE PUSH1 0x20 DUP3 ADD SWAP1 POP SWAP3 SWAP2 POP POP JUMP JUMPDEST PUSH0 DUP2 SWAP1 POP PUSH1 0x20 DUP3 ADD SWAP1 POP SWAP2 SWAP1 POP JUMP JUMPDEST PUSH1 0x40 DUP3 ADD PUSH0 DUP3 ADD MLOAD PUSH2 0x3A87 PUSH0 DUP6 ADD DUP3 PUSH2 0x38C7 JUMP JUMPDEST POP PUSH1 0x20 DUP3 ADD MLOAD PUSH2 0x3A9A PUSH1 0x20 DUP6 ADD DUP3 PUSH2 0x36AE JUMP JUMPDEST POP POP POP POP JUMP JUMPDEST PUSH0 PUSH2 0x3AAB DUP4 DUP4 PUSH2 0x3A73 JUMP JUMPDEST PUSH1 0x40 DUP4 ADD SWAP1 POP SWAP3 SWAP2 POP POP JUMP JUMPDEST PUSH0 PUSH1 0x20 DUP3 ADD SWAP1 POP SWAP2 SWAP1 POP JUMP JUMPDEST PUSH0 PUSH2 0x3ACD DUP3 PUSH2 0x3A4A JUMP JUMPDEST PUSH2 0x3AD7 DUP2 DUP6 PUSH2 0x3A54 JUMP JUMPDEST SWAP4 POP PUSH2 0x3AE2 DUP4 PUSH2 0x3A64 JUMP JUMPDEST DUP1 PUSH0 JUMPDEST DUP4 DUP2 LT ISZERO PUSH2 0x3B12 JUMPI DUP2 MLOAD PUSH2 0x3AF9 DUP9 DUP3 PUSH2 0x3AA0 JUMP JUMPDEST SWAP8 POP PUSH2 0x3B04 DUP4 PUSH2 0x3AB7 JUMP JUMPDEST SWAP3 POP POP PUSH1 0x1 DUP2 ADD SWAP1 POP PUSH2 0x3AE5 JUMP JUMPDEST POP DUP6 SWAP4 POP POP POP POP SWAP3 SWAP2 POP POP JUMP JUMPDEST PUSH0 PUSH1 0x20 DUP3 ADD SWAP1 POP DUP2 DUP2 SUB PUSH0 DUP4 ADD MSTORE PUSH2 0x3B37 DUP2 DUP5 PUSH2 0x3AC3 JUMP JUMPDEST SWAP1 POP SWAP3 SWAP2 POP POP JUMP JUMPDEST PUSH0 PUSH0 REVERT JUMPDEST PUSH0 PUSH0 DUP4 PUSH1 0x1F DUP5 ADD SLT PUSH2 0x3B58 JUMPI PUSH2 0x3B57 PUSH2 0x339F JUMP JUMPDEST JUMPDEST DUP3 CALLDATALOAD SWAP1 POP PUSH8 0xFFFFFFFFFFFFFFFF DUP2 GT ISZERO PUSH2 0x3B75 JUMPI PUSH2 0x3B74 PUSH2 0x3B3F JUMP JUMPDEST JUMPDEST PUSH1 0x20 DUP4 ADD SWAP2 POP DUP4 PUSH1 0x20 DUP3 MUL DUP4 ADD GT ISZERO PUSH2 0x3B91 JUMPI PUSH2 0x3B90 PUSH2 0x3446 JUMP JUMPDEST JUMPDEST SWAP3 POP SWAP3 SWAP1 POP JUMP JUMPDEST PUSH0 PUSH0 DUP4 PUSH1 0x1F DUP5 ADD SLT PUSH2 0x3BAD JUMPI PUSH2 0x3BAC PUSH2 0x339F JUMP JUMPDEST JUMPDEST DUP3 CALLDATALOAD SWAP1 POP PUSH8 0xFFFFFFFFFFFFFFFF DUP2 GT ISZERO PUSH2 0x3BCA JUMPI PUSH2 0x3BC9 PUSH2 0x3B3F JUMP JUMPDEST JUMPDEST PUSH1 0x20 DUP4 ADD SWAP2 POP DUP4 PUSH1 0x1 DUP3 MUL DUP4 ADD GT ISZERO PUSH2 0x3BE6 JUMPI PUSH2 0x3BE5 PUSH2 0x3446 JUMP JUMPDEST JUMPDEST SWAP3 POP SWAP3 SWAP1 POP JUMP JUMPDEST PUSH0 PUSH0 PUSH0 PUSH0 PUSH0 PUSH0 PUSH0 PUSH0 PUSH1 0xA0 DUP10 DUP12 SUB SLT ISZERO PUSH2 0x3C09 JUMPI PUSH2 0x3C08 PUSH2 0x3100 JUMP JUMPDEST JUMPDEST PUSH0 PUSH2 0x3C16 DUP12 DUP3 DUP13 ADD PUSH2 0x31F1 JUMP JUMPDEST SWAP9 POP POP PUSH1 0x20 PUSH2 0x3C27 DUP12 DUP3 DUP13 ADD PUSH2 0x31F1 JUMP JUMPDEST SWAP8 POP POP PUSH1 0x40 DUP10 ADD CALLDATALOAD PUSH8 0xFFFFFFFFFFFFFFFF DUP2 GT ISZERO PUSH2 0x3C48 JUMPI PUSH2 0x3C47 PUSH2 0x3104 JUMP JUMPDEST JUMPDEST PUSH2 0x3C54 DUP12 DUP3 DUP13 ADD PUSH2 0x3B43 JUMP JUMPDEST SWAP7 POP SWAP7 POP POP PUSH1 0x60 DUP10 ADD CALLDATALOAD PUSH8 0xFFFFFFFFFFFFFFFF DUP2 GT ISZERO PUSH2 0x3C77 JUMPI PUSH2 0x3C76 PUSH2 0x3104 JUMP JUMPDEST JUMPDEST PUSH2 0x3C83 DUP12 DUP3 DUP13 ADD PUSH2 0x3B43 JUMP JUMPDEST SWAP5 POP SWAP5 POP POP PUSH1 0x80 DUP10 ADD CALLDATALOAD PUSH8 0xFFFFFFFFFFFFFFFF DUP2 GT ISZERO PUSH2 0x3CA6 JUMPI PUSH2 0x3CA5 PUSH2 0x3104 JUMP JUMPDEST JUMPDEST PUSH2 0x3CB2 DUP12 DUP3 DUP13 ADD PUSH2 0x3B98 JUMP JUMPDEST SWAP3 POP SWAP3 POP POP SWAP3 SWAP6 SWAP9 POP SWAP3 SWAP6 SWAP9 SWAP1 SWAP4 SWAP7 POP JUMP JUMPDEST PUSH2 0x3CCD DUP2 PUSH2 0x325C JUMP JUMPDEST DUP3 MSTORE POP POP JUMP JUMPDEST PUSH0 PUSH1 0x20 DUP3 ADD SWAP1 POP PUSH2 0x3CE6 PUSH0 DUP4 ADD DUP5 PUSH2 0x3CC4 JUMP JUMPDEST SWAP3 SWAP2 POP POP JUMP JUMPDEST PUSH0 PUSH8 0xFFFFFFFFFFFFFFFF DUP3 GT ISZERO PUSH2 0x3D06 JUMPI PUSH2 0x3D05 PUSH2 0x33A3 JUMP JUMPDEST JUMPDEST PUSH2 0x3D0F DUP3 PUSH2 0x3337 JUMP JUMPDEST SWAP1 POP PUSH1 0x20 DUP2 ADD SWAP1 POP SWAP2 SWAP1 POP JUMP JUMPDEST PUSH0 PUSH2 0x3D2E PUSH2 0x3D29 DUP5 PUSH2 0x3CEC JUMP JUMPDEST PUSH2 0x3401 JUMP JUMPDEST SWAP1 POP DUP3 DUP2 MSTORE PUSH1 0x20 DUP2 ADD DUP5 DUP5 DUP5 ADD GT ISZERO PUSH2 0x3D4A JUMPI PUSH2 0x3D49 PUSH2 0x34DF JUMP JUMPDEST JUMPDEST PUSH2 0x3D55 DUP5 DUP3 DUP6 PUSH2 0x3513 JUMP JUMPDEST POP SWAP4 SWAP3 POP POP POP JUMP JUMPDEST PUSH0 DUP3 PUSH1 0x1F DUP4 ADD SLT PUSH2 0x3D71 JUMPI PUSH2 0x3D70 PUSH2 0x339F JUMP JUMPDEST JUMPDEST DUP2 CALLDATALOAD PUSH2 0x3D81 DUP5 DUP3 PUSH1 0x20 DUP7 ADD PUSH2 0x3D1C JUMP JUMPDEST SWAP2 POP POP SWAP3 SWAP2 POP POP JUMP JUMPDEST PUSH0 PUSH0 PUSH1 0x40 DUP4 DUP6 SUB SLT ISZERO PUSH2 0x3DA0 JUMPI PUSH2 0x3D9F PUSH2 0x3100 JUMP JUMPDEST JUMPDEST PUSH0 DUP4 ADD CALLDATALOAD PUSH8 0xFFFFFFFFFFFFFFFF DUP2 GT ISZERO PUSH2 0x3DBD JUMPI PUSH2 0x3DBC PUSH2 0x3104 JUMP JUMPDEST JUMPDEST PUSH2 0x3DC9 DUP6 DUP3 DUP7 ADD PUSH2 0x3D5D JUMP JUMPDEST SWAP3 POP POP PUSH1 0x20 PUSH2 0x3DDA DUP6 DUP3 DUP7 ADD PUSH2 0x31F1 JUMP JUMPDEST SWAP2 POP POP SWAP3 POP SWAP3 SWAP1 POP JUMP JUMPDEST PUSH0 PUSH0 PUSH0 PUSH0 PUSH1 0x80 DUP6 DUP8 SUB SLT ISZERO PUSH2 0x3DFC JUMPI PUSH2 0x3DFB PUSH2 0x3100 JUMP JUMPDEST JUMPDEST PUSH0 PUSH2 0x3E09 DUP8 DUP3 DUP9 ADD PUSH2 0x31F1 JUMP JUMPDEST SWAP5 POP POP PUSH1 0x20 PUSH2 0x3E1A DUP8 DUP3 DUP9 ADD PUSH2 0x3127 JUMP JUMPDEST SWAP4 POP POP PUSH1 0x40 PUSH2 0x3E2B DUP8 DUP3 DUP9 ADD PUSH2 0x3127 JUMP JUMPDEST SWAP3 POP POP PUSH1 0x60 PUSH2 0x3E3C DUP8 DUP3 DUP9 ADD PUSH2 0x3127 JUMP JUMPDEST SWAP2 POP POP SWAP3 SWAP6 SWAP2 SWAP5 POP SWAP3 POP JUMP JUMPDEST PUSH0 PUSH0 PUSH0 PUSH0 PUSH1 0x80 DUP6 DUP8 SUB SLT ISZERO PUSH2 0x3E60 JUMPI PUSH2 0x3E5F PUSH2 0x3100 JUMP JUMPDEST JUMPDEST PUSH0 PUSH2 0x3E6D DUP8 DUP3 DUP9 ADD PUSH2 0x31F1 JUMP JUMPDEST SWAP5 POP POP PUSH1 0x20 PUSH2 0x3E7E DUP8 DUP3 DUP9 ADD PUSH2 0x31F1 JUMP JUMPDEST SWAP4 POP POP PUSH1 0x40 PUSH2 0x3E8F DUP8 DUP3 DUP9 ADD PUSH2 0x3127 JUMP JUMPDEST SWAP3 POP POP PUSH1 0x60 PUSH2 0x3EA0 DUP8 DUP3 DUP9 ADD PUSH2 0x3127 JUMP JUMPDEST SWAP2 POP POP SWAP3 SWAP6 SWAP2 SWAP5 POP SWAP3 POP JUMP JUMPDEST PUSH0 PUSH0 PUSH1 0x40 DUP4 DUP6 SUB SLT ISZERO PUSH2 0x3EC2 JUMPI PUSH2 0x3EC1 PUSH2 0x3100 JUMP JUMPDEST JUMPDEST PUSH0 PUSH2 0x3ECF DUP6 DUP3 DUP7 ADD PUSH2 0x31F1 JUMP JUMPDEST SWAP3 POP POP PUSH1 0x20 PUSH2 0x3EE0 DUP6 DUP3 DUP7 ADD PUSH2 0x31F1 JUMP JUMPDEST SWAP2 POP POP SWAP3 POP SWAP3 SWAP1 POP JUMP JUMPDEST PUSH0 PUSH0 PUSH0 PUSH0 PUSH0 PUSH0 PUSH1 0xA0 DUP8 DUP10 SUB SLT ISZERO PUSH2 0x3F04 JUMPI PUSH2 0x3F03 PUSH2 0x3100 JUMP JUMPDEST JUMPDEST PUSH0 PUSH2 0x3F11 DUP10 DUP3 DUP11 ADD PUSH2 0x31F1 JUMP JUMPDEST SWAP7 POP POP PUSH1 0x20 PUSH2 0x3F22 DUP10 DUP3 DUP11 ADD PUSH2 0x31F1 JUMP JUMPDEST SWAP6 POP POP PUSH1 0x40 PUSH2 0x3F33 DUP10 DUP3 DUP11 ADD PUSH2 0x3127 JUMP JUMPDEST SWAP5 POP POP PUSH1 0x60 PUSH2 0x3F44 DUP10 DUP3 DUP11 ADD PUSH2 0x3127 JUMP JUMPDEST SWAP4 POP POP PUSH1 0x80 DUP8 ADD CALLDATALOAD PUSH8 0xFFFFFFFFFFFFFFFF DUP2 GT ISZERO PUSH2 0x3F65 JUMPI PUSH2 0x3F64 PUSH2 0x3104 JUMP JUMPDEST JUMPDEST PUSH2 0x3F71 DUP10 DUP3 DUP11 ADD PUSH2 0x3B98 JUMP JUMPDEST SWAP3 POP SWAP3 POP POP SWAP3 SWAP6 POP SWAP3 SWAP6 POP SWAP3 SWAP6 JUMP JUMPDEST PUSH0 PUSH0 PUSH0 PUSH0 PUSH0 PUSH1 0xA0 DUP7 DUP9 SUB SLT ISZERO PUSH2 0x3F99 JUMPI PUSH2 0x3F98 PUSH2 0x3100 JUMP JUMPDEST JUMPDEST PUSH0 PUSH2 0x3FA6 DUP9 DUP3 DUP10 ADD PUSH2 0x31F1 JUMP JUMPDEST SWAP6 POP POP PUSH1 0x20 PUSH2 0x3FB7 DUP9 DUP3 DUP10 ADD PUSH2 0x31F1 JUMP JUMPDEST SWAP5 POP POP PUSH1 0x40 PUSH2 0x3FC8 DUP9 DUP3 DUP10 ADD PUSH2 0x3127 JUMP JUMPDEST SWAP4 POP POP PUSH1 0x60 PUSH2 0x3FD9 DUP9 DUP3 DUP10 ADD PUSH2 0x3127 JUMP JUMPDEST SWAP3 POP POP PUSH1 0x80 DUP7 ADD CALLDATALOAD PUSH8 0xFFFFFFFFFFFFFFFF DUP2 GT ISZERO PUSH2 0x3FFA JUMPI PUSH2 0x3FF9 PUSH2 0x3104 JUMP JUMPDEST JUMPDEST PUSH2 0x4006 DUP9 DUP3 DUP10 ADD PUSH2 0x3562 JUMP JUMPDEST SWAP2 POP POP SWAP3 SWAP6 POP SWAP3 SWAP6 SWAP1 SWAP4 POP JUMP JUMPDEST PUSH32 0x4E487B7100000000000000000000000000000000000000000000000000000000 PUSH0 MSTORE PUSH1 0x22 PUSH1 0x4 MSTORE PUSH1 0x24 PUSH0 REVERT JUMPDEST PUSH0 PUSH1 0x2 DUP3 DIV SWAP1 POP PUSH1 0x1 DUP3 AND DUP1 PUSH2 0x4057 JUMPI PUSH1 0x7F DUP3 AND SWAP2 POP JUMPDEST PUSH1 0x20 DUP3 LT DUP2 SUB PUSH2 0x406A JUMPI PUSH2 0x4069 PUSH2 0x4013 JUMP JUMPDEST JUMPDEST POP SWAP2 SWAP1 POP JUMP JUMPDEST PUSH0 DUP2 SWAP1 POP SWAP3 SWAP2 POP POP JUMP JUMPDEST PUSH32 0x68747470733A2F2F6D7970726F6A6563742E636F6D2F6D657461646174612F00 PUSH0 DUP3 ADD MSTORE POP JUMP JUMPDEST PUSH0 PUSH2 0x40AE PUSH1 0x1F DUP4 PUSH2 0x4070 JUMP JUMPDEST SWAP2 POP PUSH2 0x40B9 DUP3 PUSH2 0x407A JUMP JUMPDEST PUSH1 0x1F DUP3 ADD SWAP1 POP SWAP2 SWAP1 POP JUMP JUMPDEST PUSH0 PUSH2 0x40CE DUP3 PUSH2 0x330F JUMP JUMPDEST PUSH2 0x40D8 DUP2 DUP6 PUSH2 0x4070 JUMP JUMPDEST SWAP4 POP PUSH2 0x40E8 DUP2 DUP6 PUSH1 0x20 DUP7 ADD PUSH2 0x3329 JUMP JUMPDEST DUP1 DUP5 ADD SWAP2 POP POP SWAP3 SWAP2 POP POP JUMP JUMPDEST PUSH32 0x2E6A736F6E000000000000000000000000000000000000000000000000000000 PUSH0 DUP3 ADD MSTORE POP JUMP JUMPDEST PUSH0 PUSH2 0x4128 PUSH1 0x5 DUP4 PUSH2 0x4070 JUMP JUMPDEST SWAP2 POP PUSH2 0x4133 DUP3 PUSH2 0x40F4 JUMP JUMPDEST PUSH1 0x5 DUP3 ADD SWAP1 POP SWAP2 SWAP1 POP JUMP JUMPDEST PUSH0 PUSH2 0x4148 DUP3 PUSH2 0x40A2 JUMP JUMPDEST SWAP2 POP PUSH2 0x4154 DUP3 DUP5 PUSH2 0x40C4 JUMP JUMPDEST SWAP2 POP PUSH2 0x415F DUP3 PUSH2 0x411C JUMP JUMPDEST SWAP2 POP DUP2 SWAP1 POP SWAP3 SWAP2 POP POP JUMP JUMPDEST PUSH0 PUSH1 0x40 DUP3 ADD SWAP1 POP PUSH2 0x417D PUSH0 DUP4 ADD DUP6 PUSH2 0x3196 JUMP JUMPDEST PUSH2 0x418A PUSH1 0x20 DUP4 ADD DUP5 PUSH2 0x3196 JUMP JUMPDEST SWAP4 SWAP3 POP POP POP JUMP JUMPDEST PUSH32 0x4E487B7100000000000000000000000000000000000000000000000000000000 PUSH0 MSTORE PUSH1 0x32 PUSH1 0x4 MSTORE PUSH1 0x24 PUSH0 REVERT JUMPDEST PUSH32 0x4F6E6C792073656C6C65722063616E2063616E63656C00000000000000000000 PUSH0 DUP3 ADD MSTORE POP JUMP JUMPDEST PUSH0 PUSH2 0x41F2 PUSH1 0x16 DUP4 PUSH2 0x3319 JUMP JUMPDEST SWAP2 POP PUSH2 0x41FD DUP3 PUSH2 0x41BE JUMP JUMPDEST PUSH1 0x20 DUP3 ADD SWAP1 POP SWAP2 SWAP1 POP JUMP JUMPDEST PUSH0 PUSH1 0x20 DUP3 ADD SWAP1 POP DUP2 DUP2 SUB PUSH0 DUP4 ADD MSTORE PUSH2 0x421F DUP2 PUSH2 0x41E6 JUMP JUMPDEST SWAP1 POP SWAP2 SWAP1 POP JUMP JUMPDEST PUSH32 0x4E4654206E6F7420666F722073616C6500000000000000000000000000000000 PUSH0 DUP3 ADD MSTORE POP JUMP JUMPDEST PUSH0 PUSH2 0x425A PUSH1 0x10 DUP4 PUSH2 0x3319 JUMP JUMPDEST SWAP2 POP PUSH2 0x4265 DUP3 PUSH2 0x4226 JUMP JUMPDEST PUSH1 0x20 DUP3 ADD SWAP1 POP SWAP2 SWAP1 POP JUMP JUMPDEST PUSH0 PUSH1 0x20 DUP3 ADD SWAP1 POP DUP2 DUP2 SUB PUSH0 DUP4 ADD MSTORE PUSH2 0x4287 DUP2 PUSH2 0x424E JUMP JUMPDEST SWAP1 POP SWAP2 SWAP1 POP JUMP JUMPDEST PUSH32 0x4E487B7100000000000000000000000000000000000000000000000000000000 PUSH0 MSTORE PUSH1 0x11 PUSH1 0x4 MSTORE PUSH1 0x24 PUSH0 REVERT JUMPDEST PUSH0 PUSH2 0x42C5 DUP3 PUSH2 0x3108 JUMP JUMPDEST SWAP2 POP PUSH2 0x42D0 DUP4 PUSH2 0x3108 JUMP JUMPDEST SWAP3 POP DUP3 DUP3 ADD SWAP1 POP DUP1 DUP3 GT ISZERO PUSH2 0x42E8 JUMPI PUSH2 0x42E7 PUSH2 0x428E JUMP JUMPDEST JUMPDEST SWAP3 SWAP2 POP POP JUMP JUMPDEST PUSH32 0x496E646578206F7574206F6620626F756E647300000000000000000000000000 PUSH0 DUP3 ADD MSTORE POP JUMP JUMPDEST PUSH0 PUSH2 0x4322 PUSH1 0x13 DUP4 PUSH2 0x3319 JUMP JUMPDEST SWAP2 POP PUSH2 0x432D DUP3 PUSH2 0x42EE JUMP JUMPDEST PUSH1 0x20 DUP3 ADD SWAP1 POP SWAP2 SWAP1 POP JUMP JUMPDEST PUSH0 PUSH1 0x20 DUP3 ADD SWAP1 POP DUP2 DUP2 SUB PUSH0 DUP4 ADD MSTORE PUSH2 0x434F DUP2 PUSH2 0x4316 JUMP JUMPDEST SWAP1 POP SWAP2 SWAP1 POP JUMP JUMPDEST PUSH0 DUP2 SWAP1 POP DUP2 PUSH0 MSTORE PUSH1 0x20 PUSH0 KECCAK256 SWAP1 POP SWAP2 SWAP1 POP JUMP JUMPDEST PUSH0 PUSH1 0x20 PUSH1 0x1F DUP4 ADD DIV SWAP1 POP SWAP2 SWAP1 POP JUMP JUMPDEST PUSH0 DUP3 DUP3 SHL SWAP1 POP SWAP3 SWAP2 POP POP JUMP JUMPDEST PUSH0 PUSH1 0x8 DUP4 MUL PUSH2 0x43B2 PUSH32 0xFFFFFFFFFFFFFFFFFFFFFFFFFFFFFFFFFFFFFFFFFFFFFFFFFFFFFFFFFFFFFFFF DUP3 PUSH2 0x4377 JUMP JUMPDEST PUSH2 0x43BC DUP7 DUP4 PUSH2 0x4377 JUMP JUMPDEST SWAP6 POP DUP1 NOT DUP5 AND SWAP4 POP DUP1 DUP7 AND DUP5 OR SWAP3 POP POP POP SWAP4 SWAP3 POP POP POP JUMP JUMPDEST PUSH0 DUP2 SWAP1 POP SWAP2 SWAP1 POP JUMP JUMPDEST PUSH0 PUSH2 0x43F7 PUSH2 0x43F2 PUSH2 0x43ED DUP5 PUSH2 0x3108 JUMP JUMPDEST PUSH2 0x43D4 JUMP JUMPDEST PUSH2 0x3108 JUMP JUMPDEST SWAP1 POP SWAP2 SWAP1 POP JUMP JUMPDEST PUSH0 DUP2 SWAP1 POP SWAP2 SWAP1 POP JUMP JUMPDEST PUSH2 0x4410 DUP4 PUSH2 0x43DD JUMP JUMPDEST PUSH2 0x4424 PUSH2 0x441C DUP3 PUSH2 0x43FE JUMP JUMPDEST DUP5 DUP5 SLOAD PUSH2 0x4383 JUMP JUMPDEST DUP3 SSTORE POP POP POP POP JUMP JUMPDEST PUSH0 PUSH0 SWAP1 POP SWAP1 JUMP JUMPDEST PUSH2 0x443B PUSH2 0x442C JUMP JUMPDEST PUSH2 0x4446 DUP2 DUP5 DUP5 PUSH2 0x4407 JUMP JUMPDEST POP POP POP JUMP JUMPDEST JUMPDEST DUP2 DUP2 LT ISZERO PUSH2 0x4469 JUMPI PUSH2 0x445E PUSH0 DUP3 PUSH2 0x4433 JUMP JUMPDEST PUSH1 0x1 DUP2 ADD SWAP1 POP PUSH2 0x444C JUMP JUMPDEST POP POP JUMP JUMPDEST PUSH1 0x1F DUP3 GT ISZERO PUSH2 0x44AE JUMPI PUSH2 0x447F DUP2 PUSH2 0x4356 JUMP JUMPDEST PUSH2 0x4488 DUP5 PUSH2 0x4368 JUMP JUMPDEST DUP2 ADD PUSH1 0x20 DUP6 LT ISZERO PUSH2 0x4497 JUMPI DUP2 SWAP1 POP JUMPDEST PUSH2 0x44AB PUSH2 0x44A3 DUP6 PUSH2 0x4368 JUMP JUMPDEST DUP4 ADD DUP3 PUSH2 0x444B JUMP JUMPDEST POP POP JUMPDEST POP POP POP JUMP JUMPDEST PUSH0 DUP3 DUP3 SHR SWAP1 POP SWAP3 SWAP2 POP POP JUMP JUMPDEST PUSH0 PUSH2 0x44CE PUSH0 NOT DUP5 PUSH1 0x8 MUL PUSH2 0x44B3 JUMP JUMPDEST NOT DUP1 DUP4 AND SWAP2 POP POP SWAP3 SWAP2 POP POP JUMP JUMPDEST PUSH0 PUSH2 0x44E6 DUP4 DUP4 PUSH2 0x44BF JUMP JUMPDEST SWAP2 POP DUP3 PUSH1 0x2 MUL DUP3 OR SWAP1 POP SWAP3 SWAP2 POP POP JUMP JUMPDEST PUSH2 0x44FF DUP3 PUSH2 0x330F JUMP JUMPDEST PUSH8 0xFFFFFFFFFFFFFFFF DUP2 GT ISZERO PUSH2 0x4518 JUMPI PUSH2 0x4517 PUSH2 0x33A3 JUMP JUMPDEST JUMPDEST PUSH2 0x4522 DUP3 SLOAD PUSH2 0x4040 JUMP JUMPDEST PUSH2 0x452D DUP3 DUP3 DUP6 PUSH2 0x446D JUMP JUMPDEST PUSH0 PUSH1 0x20 SWAP1 POP PUSH1 0x1F DUP4 GT PUSH1 0x1 DUP2 EQ PUSH2 0x455E JUMPI PUSH0 DUP5 ISZERO PUSH2 0x454C JUMPI DUP3 DUP8 ADD MLOAD SWAP1 POP JUMPDEST PUSH2 0x4556 DUP6 DUP3 PUSH2 0x44DB JUMP JUMPDEST DUP7 SSTORE POP PUSH2 0x45BD JUMP JUMPDEST PUSH1 0x1F NOT DUP5 AND PUSH2 0x456C DUP7 PUSH2 0x4356 JUMP JUMPDEST PUSH0 JUMPDEST DUP3 DUP2 LT ISZERO PUSH2 0x4593 JUMPI DUP5 DUP10 ADD MLOAD DUP3 SSTORE PUSH1 0x1 DUP3 ADD SWAP2 POP PUSH1 0x20 DUP6 ADD SWAP5 POP PUSH1 0x20 DUP2 ADD SWAP1 POP PUSH2 0x456E JUMP JUMPDEST DUP7 DUP4 LT ISZERO PUSH2 0x45B0 JUMPI DUP5 DUP10 ADD MLOAD PUSH2 0x45AC PUSH1 0x1F DUP10 AND DUP3 PUSH2 0x44BF JUMP JUMPDEST DUP4 SSTORE POP JUMPDEST PUSH1 0x1 PUSH1 0x2 DUP9 MUL ADD DUP9 SSTORE POP POP POP JUMPDEST POP POP POP POP POP POP JUMP JUMPDEST PUSH0 PUSH2 0x45CF DUP3 PUSH2 0x3108 JUMP JUMPDEST SWAP2 POP PUSH32 0xFFFFFFFFFFFFFFFFFFFFFFFFFFFFFFFFFFFFFFFFFFFFFFFFFFFFFFFFFFFFFFFF DUP3 SUB PUSH2 0x4601 JUMPI PUSH2 0x4600 PUSH2 0x428E JUMP JUMPDEST JUMPDEST PUSH1 0x1 DUP3 ADD SWAP1 POP SWAP2 SWAP1 POP JUMP JUMPDEST PUSH32 0x496E73756666696369656E7420746F6B656E7300000000000000000000000000 PUSH0 DUP3 ADD MSTORE POP JUMP JUMPDEST PUSH0 PUSH2 0x4640 PUSH1 0x13 DUP4 PUSH2 0x3319 JUMP JUMPDEST SWAP2 POP PUSH2 0x464B DUP3 PUSH2 0x460C JUMP JUMPDEST PUSH1 0x20 DUP3 ADD SWAP1 POP SWAP2 SWAP1 POP JUMP JUMPDEST PUSH0 PUSH1 0x20 DUP3 ADD SWAP1 POP DUP2 DUP2 SUB PUSH0 DUP4 ADD MSTORE PUSH2 0x466D DUP2 PUSH2 0x4634 JUMP JUMPDEST SWAP1 POP SWAP2 SWAP1 POP JUMP JUMPDEST PUSH32 0x5072696365206D7573742062652067726561746572207468616E203000000000 PUSH0 DUP3 ADD MSTORE POP JUMP JUMPDEST PUSH0 PUSH2 0x46A8 PUSH1 0x1C DUP4 PUSH2 0x3319 JUMP JUMPDEST SWAP2 POP PUSH2 0x46B3 DUP3 PUSH2 0x4674 JUMP JUMPDEST PUSH1 0x20 DUP3 ADD SWAP1 POP SWAP2 SWAP1 POP JUMP JUMPDEST PUSH0 PUSH1 0x20 DUP3 ADD SWAP1 POP DUP2 DUP2 SUB PUSH0 DUP4 ADD MSTORE PUSH2 0x46D5 DUP2 PUSH2 0x469C JUMP JUMPDEST SWAP1 POP SWAP2 SWAP1 POP JUMP JUMPDEST PUSH32 0x4E465420616C726561647920666F722073616C65000000000000000000000000 PUSH0 DUP3 ADD MSTORE POP JUMP JUMPDEST PUSH0 PUSH2 0x4710 PUSH1 0x14 DUP4 PUSH2 0x3319 JUMP JUMPDEST SWAP2 POP PUSH2 0x471B DUP3 PUSH2 0x46DC JUMP JUMPDEST PUSH1 0x20 DUP3 ADD SWAP1 POP SWAP2 SWAP1 POP JUMP JUMPDEST PUSH0 PUSH1 0x20 DUP3 ADD SWAP1 POP DUP2 DUP2 SUB PUSH0 DUP4 ADD MSTORE PUSH2 0x473D DUP2 PUSH2 0x4704 JUMP JUMPDEST SWAP1 POP SWAP2 SWAP1 POP JUMP JUMPDEST PUSH32 0x4D7573742073656C6C206174206C65617374203120746F6B656E000000000000 PUSH0 DUP3 ADD MSTORE POP JUMP JUMPDEST PUSH0 PUSH2 0x4778 PUSH1 0x1A DUP4 PUSH2 0x3319 JUMP JUMPDEST SWAP2 POP PUSH2 0x4783 DUP3 PUSH2 0x4744 JUMP JUMPDEST PUSH1 0x20 DUP3 ADD SWAP1 POP SWAP2 SWAP1 POP JUMP JUMPDEST PUSH0 PUSH1 0x20 DUP3 ADD SWAP1 POP DUP2 DUP2 SUB PUSH0 DUP4 ADD MSTORE PUSH2 0x47A5 DUP2 PUSH2 0x476C JUMP JUMPDEST SWAP1 POP SWAP2 SWAP1 POP JUMP JUMPDEST PUSH32 0x4E6F7420656E6F75676820746F6B656E73000000000000000000000000000000 PUSH0 DUP3 ADD MSTORE POP JUMP JUMPDEST PUSH0 PUSH2 0x47E0 PUSH1 0x11 DUP4 PUSH2 0x3319 JUMP JUMPDEST SWAP2 POP PUSH2 0x47EB DUP3 PUSH2 0x47AC JUMP JUMPDEST PUSH1 0x20 DUP3 ADD SWAP1 POP SWAP2 SWAP1 POP JUMP JUMPDEST PUSH0 PUSH1 0x20 DUP3 ADD SWAP1 POP DUP2 DUP2 SUB PUSH0 DUP4 ADD MSTORE PUSH2 0x480D DUP2 PUSH2 0x47D4 JUMP JUMPDEST SWAP1 POP SWAP2 SWAP1 POP JUMP JUMPDEST PUSH0 PUSH2 0x481E DUP3 PUSH2 0x3108 JUMP JUMPDEST SWAP2 POP PUSH2 0x4829 DUP4 PUSH2 0x3108 JUMP JUMPDEST SWAP3 POP DUP3 DUP3 SUB SWAP1 POP DUP2 DUP2 GT ISZERO PUSH2 0x4841 JUMPI PUSH2 0x4840 PUSH2 0x428E JUMP JUMPDEST JUMPDEST SWAP3 SWAP2 POP POP JUMP JUMPDEST PUSH32 0x496E636F72726563742070726963650000000000000000000000000000000000 PUSH0 DUP3 ADD MSTORE POP JUMP JUMPDEST PUSH0 PUSH2 0x487B PUSH1 0xF DUP4 PUSH2 0x3319 JUMP JUMPDEST SWAP2 POP PUSH2 0x4886 DUP3 PUSH2 0x4847 JUMP JUMPDEST PUSH1 0x20 DUP3 ADD SWAP1 POP SWAP2 SWAP1 POP JUMP JUMPDEST PUSH0 PUSH1 0x20 DUP3 ADD SWAP1 POP DUP2 DUP2 SUB PUSH0 DUP4 ADD MSTORE PUSH2 0x48A8 DUP2 PUSH2 0x486F JUMP JUMPDEST SWAP1 POP SWAP2 SWAP1 POP JUMP JUMPDEST PUSH32 0x43616E6E6F742062757920796F7572206F776E204E4654000000000000000000 PUSH0 DUP3 ADD MSTORE POP JUMP JUMPDEST PUSH0 PUSH2 0x48E3 PUSH1 0x17 DUP4 PUSH2 0x3319 JUMP JUMPDEST SWAP2 POP PUSH2 0x48EE DUP3 PUSH2 0x48AF JUMP JUMPDEST PUSH1 0x20 DUP3 ADD SWAP1 POP SWAP2 SWAP1 POP JUMP JUMPDEST PUSH0 PUSH1 0x20 DUP3 ADD SWAP1 POP DUP2 DUP2 SUB PUSH0 DUP4 ADD MSTORE PUSH2 0x4910 DUP2 PUSH2 0x48D7 JUMP JUMPDEST SWAP1 POP SWAP2 SWAP1 POP JUMP JUMPDEST PUSH32 0x4E487B7100000000000000000000000000000000000000000000000000000000 PUSH0 MSTORE PUSH1 0x12 PUSH1 0x4 MSTORE PUSH1 0x24 PUSH0 REVERT JUMPDEST PUSH0 PUSH1 0x80 DUP3 ADD SWAP1 POP PUSH2 0x4957 PUSH0 DUP4 ADD DUP8 PUSH2 0x3196 JUMP JUMPDEST PUSH2 0x4964 PUSH1 0x20 DUP4 ADD DUP7 PUSH2 0x31A5 JUMP JUMPDEST PUSH2 0x4971 PUSH1 0x40 DUP4 ADD DUP6 PUSH2 0x31A5 JUMP JUMPDEST PUSH2 0x497E PUSH1 0x60 DUP4 ADD DUP5 PUSH2 0x31A5 JUMP JUMPDEST SWAP6 SWAP5 POP POP POP POP POP JUMP JUMPDEST PUSH0 DUP2 MLOAD SWAP1 POP SWAP2 SWAP1 POP JUMP JUMPDEST PUSH0 DUP3 DUP3 MSTORE PUSH1 0x20 DUP3 ADD SWAP1 POP SWAP3 SWAP2 POP POP JUMP JUMPDEST PUSH0 PUSH2 0x49AB DUP3 PUSH2 0x4987 JUMP JUMPDEST PUSH2 0x49B5 DUP2 DUP6 PUSH2 0x4991 JUMP JUMPDEST SWAP4 POP PUSH2 0x49C5 DUP2 DUP6 PUSH1 0x20 DUP7 ADD PUSH2 0x3329 JUMP JUMPDEST PUSH2 0x49CE DUP2 PUSH2 0x3337 JUMP JUMPDEST DUP5 ADD SWAP2 POP POP SWAP3 SWAP2 POP POP JUMP JUMPDEST PUSH0 PUSH1 0xA0 DUP3 ADD SWAP1 POP PUSH2 0x49EC PUSH0 DUP4 ADD DUP9 PUSH2 0x3196 JUMP JUMPDEST PUSH2 0x49F9 PUSH1 0x20 DUP4 ADD DUP8 PUSH2 0x3196 JUMP JUMPDEST PUSH2 0x4A06 PUSH1 0x40 DUP4 ADD DUP7 PUSH2 0x31A5 JUMP JUMPDEST PUSH2 0x4A13 PUSH1 0x60 DUP4 ADD DUP6 PUSH2 0x31A5 JUMP JUMPDEST DUP2 DUP2 SUB PUSH1 0x80 DUP4 ADD MSTORE PUSH2 0x4A25 DUP2 DUP5 PUSH2 0x49A1 JUMP JUMPDEST SWAP1 POP SWAP7 SWAP6 POP POP POP POP POP POP JUMP JUMPDEST PUSH0 DUP2 MLOAD SWAP1 POP PUSH2 0x4A3F DUP2 PUSH2 0x3287 JUMP JUMPDEST SWAP3 SWAP2 POP POP JUMP JUMPDEST PUSH0 PUSH1 0x20 DUP3 DUP5 SUB SLT ISZERO PUSH2 0x4A5A JUMPI PUSH2 0x4A59 PUSH2 0x3100 JUMP JUMPDEST JUMPDEST PUSH0 PUSH2 0x4A67 DUP5 DUP3 DUP6 ADD PUSH2 0x4A31 JUMP JUMPDEST SWAP2 POP POP SWAP3 SWAP2 POP POP JUMP JUMPDEST PUSH0 PUSH1 0xA0 DUP3 ADD SWAP1 POP PUSH2 0x4A83 PUSH0 DUP4 ADD DUP9 PUSH2 0x3196 JUMP JUMPDEST PUSH2 0x4A90 PUSH1 0x20 DUP4 ADD DUP8 PUSH2 0x3196 JUMP JUMPDEST DUP2 DUP2 SUB PUSH1 0x40 DUP4 ADD MSTORE PUSH2 0x4AA2 DUP2 DUP7 PUSH2 0x36E0 JUMP JUMPDEST SWAP1 POP DUP2 DUP2 SUB PUSH1 0x60 DUP4 ADD MSTORE PUSH2 0x4AB6 DUP2 DUP6 PUSH2 0x36E0 JUMP JUMPDEST SWAP1 POP DUP2 DUP2 SUB PUSH1 0x80 DUP4 ADD MSTORE PUSH2 0x4ACA DUP2 DUP5 PUSH2 0x49A1 JUMP JUMPDEST SWAP1 POP SWAP7 SWAP6 POP POP POP POP POP POP JUMP INVALID LOG2 PUSH5 0x6970667358 0x22 SLT KECCAK256 DUP14 PUSH18 0xBB0D5D5C4EC45CE25246E1CF4BEE934C2093 JUMPF 0xB3D RETURNCONTRACT 0x38 MSTORE RETURNDATACOPY SUB PUSH4 0x22115064 PUSH20 0x6F6C634300081E003368747470733A2F2F6D7970 PUSH19 0x6F6A6563742E636F6D2F6D657461646174612F PUSH28 0x69647D2E6A736F6E0000000000000000000000000000000000000000 "
		},
		"gasEstimates": {
			"creation": {
				"codeDepositCost": "3842400",
				"executionCost": "infinite",
				"totalCost": "infinite"
			},
			"external": {
				"BuyNFT(address,address,uint256,uint256)": "infinite",
				"SellNFT(address,uint256,uint256,uint256)": "infinite",
				"SellNftList(uint256)": "infinite",
				"balanceOf(address,uint256)": "infinite",
				"balanceOfBatch(address[],uint256[])": "infinite",
				"cancelSale(uint256,address)": "infinite",
				"getAllListedNFTIds()": "infinite",
				"getAllTokenBalances(address)": "infinite",
				"getBalance(address,uint256)": "infinite",
				"getCurrentBalance(address,uint256)": "infinite",
				"getMintedTokens(address)": "infinite",
				"getOwnerTokenAtIndex(address,uint256)": "infinite",
				"getOwnerTokenCount(address)": "2948",
				"getall(address,uint256)": "infinite",
				"isApprovedForAll(address,address)": "infinite",
				"items(address,uint256)": "infinite",
				"onERC1155BatchReceived(address,address,uint256[],uint256[],bytes)": "infinite",
				"onERC1155Received(address,address,uint256,uint256,bytes)": "infinite",
				"owner()": "2561",
				"renounceOwnership()": "infinite",
				"safeBatchTransferFrom(address,address,uint256[],uint256[],bytes)": "infinite",
				"safeTransferFrom(address,address,uint256,uint256,bytes)": "infinite",
				"setApprovalForAll(address,bool)": "infinite",
				"settokenURI(string,address)": "infinite",
				"supportsInterface(bytes4)": "942",
				"transferOwnership(address)": "infinite",
				"uri(uint256)": "infinite",
				"userTokens(address)": "infinite"
			},
			"internal": {
				"_addTokenIdToUser(address,uint256)": "infinite"
			}
		},
		"methodIdentifiers": {
			"BuyNFT(address,address,uint256,uint256)": "e3567774",
			"SellNFT(address,uint256,uint256,uint256)": "d80a08da",
			"SellNftList(uint256)": "008b96a1",
			"balanceOf(address,uint256)": "00fdd58e",
			"balanceOfBatch(address[],uint256[])": "4e1273f4",
			"cancelSale(uint256,address)": "813d2ad8",
			"getAllListedNFTIds()": "b901fed5",
			"getAllTokenBalances(address)": "681bec6c",
			"getBalance(address,uint256)": "2b04e840",
			"getCurrentBalance(address,uint256)": "75388a0f",
			"getMintedTokens(address)": "434a49a1",
			"getOwnerTokenAtIndex(address,uint256)": "9145d133",
			"getOwnerTokenCount(address)": "d50bcc71",
			"getall(address,uint256)": "5491a99f",
			"isApprovedForAll(address,address)": "e985e9c5",
			"items(address,uint256)": "5c80a435",
			"onERC1155BatchReceived(address,address,uint256[],uint256[],bytes)": "bc197c81",
			"onERC1155Received(address,address,uint256,uint256,bytes)": "f23a6e61",
			"owner()": "8da5cb5b",
			"renounceOwnership()": "715018a6",
			"safeBatchTransferFrom(address,address,uint256[],uint256[],bytes)": "2eb2c2d6",
			"safeTransferFrom(address,address,uint256,uint256,bytes)": "f242432a",
			"setApprovalForAll(address,bool)": "a22cb465",
			"settokenURI(string,address)": "cc0a48d4",
			"supportsInterface(bytes4)": "01ffc9a7",
			"transferOwnership(address)": "f2fde38b",
			"uri(uint256)": "0e89341c",
			"userTokens(address)": "ed498fa8"
		}
	},
	"abi": [
		{
			"inputs": [],
			"stateMutability": "nonpayable",
			"type": "constructor"
		},
		{
			"inputs": [
				{
					"internalType": "address",
					"name": "sender",
					"type": "address"
				},
				{
					"internalType": "uint256",
					"name": "balance",
					"type": "uint256"
				},
				{
					"internalType": "uint256",
					"name": "needed",
					"type": "uint256"
				},
				{
					"internalType": "uint256",
					"name": "tokenId",
					"type": "uint256"
				}
			],
			"name": "ERC1155InsufficientBalance",
			"type": "error"
		},
		{
			"inputs": [
				{
					"internalType": "address",
					"name": "approver",
					"type": "address"
				}
			],
			"name": "ERC1155InvalidApprover",
			"type": "error"
		},
		{
			"inputs": [
				{
					"internalType": "uint256",
					"name": "idsLength",
					"type": "uint256"
				},
				{
					"internalType": "uint256",
					"name": "valuesLength",
					"type": "uint256"
				}
			],
			"name": "ERC1155InvalidArrayLength",
			"type": "error"
		},
		{
			"inputs": [
				{
					"internalType": "address",
					"name": "operator",
					"type": "address"
				}
			],
			"name": "ERC1155InvalidOperator",
			"type": "error"
		},
		{
			"inputs": [
				{
					"internalType": "address",
					"name": "receiver",
					"type": "address"
				}
			],
			"name": "ERC1155InvalidReceiver",
			"type": "error"
		},
		{
			"inputs": [
				{
					"internalType": "address",
					"name": "sender",
					"type": "address"
				}
			],
			"name": "ERC1155InvalidSender",
			"type": "error"
		},
		{
			"inputs": [
				{
					"internalType": "address",
					"name": "operator",
					"type": "address"
				},
				{
					"internalType": "address",
					"name": "owner",
					"type": "address"
				}
			],
			"name": "ERC1155MissingApprovalForAll",
			"type": "error"
		},
		{
			"inputs": [
				{
					"internalType": "address",
					"name": "owner",
					"type": "address"
				}
			],
			"name": "OwnableInvalidOwner",
			"type": "error"
		},
		{
			"inputs": [
				{
					"internalType": "address",
					"name": "account",
					"type": "address"
				}
			],
			"name": "OwnableUnauthorizedAccount",
			"type": "error"
		},
		{
			"anonymous": false,
			"inputs": [
				{
					"indexed": true,
					"internalType": "address",
					"name": "account",
					"type": "address"
				},
				{
					"indexed": true,
					"internalType": "address",
					"name": "operator",
					"type": "address"
				},
				{
					"indexed": false,
					"internalType": "bool",
					"name": "approved",
					"type": "bool"
				}
			],
			"name": "ApprovalForAll",
			"type": "event"
		},
		{
			"anonymous": false,
			"inputs": [
				{
					"indexed": true,
					"internalType": "address",
					"name": "previousOwner",
					"type": "address"
				},
				{
					"indexed": true,
					"internalType": "address",
					"name": "newOwner",
					"type": "address"
				}
			],
			"name": "OwnershipTransferred",
			"type": "event"
		},
		{
			"anonymous": false,
			"inputs": [
				{
					"indexed": true,
					"internalType": "address",
					"name": "operator",
					"type": "address"
				},
				{
					"indexed": true,
					"internalType": "address",
					"name": "from",
					"type": "address"
				},
				{
					"indexed": true,
					"internalType": "address",
					"name": "to",
					"type": "address"
				},
				{
					"indexed": false,
					"internalType": "uint256[]",
					"name": "ids",
					"type": "uint256[]"
				},
				{
					"indexed": false,
					"internalType": "uint256[]",
					"name": "values",
					"type": "uint256[]"
				}
			],
			"name": "TransferBatch",
			"type": "event"
		},
		{
			"anonymous": false,
			"inputs": [
				{
					"indexed": true,
					"internalType": "address",
					"name": "operator",
					"type": "address"
				},
				{
					"indexed": true,
					"internalType": "address",
					"name": "from",
					"type": "address"
				},
				{
					"indexed": true,
					"internalType": "address",
					"name": "to",
					"type": "address"
				},
				{
					"indexed": false,
					"internalType": "uint256",
					"name": "id",
					"type": "uint256"
				},
				{
					"indexed": false,
					"internalType": "uint256",
					"name": "value",
					"type": "uint256"
				}
			],
			"name": "TransferSingle",
			"type": "event"
		},
		{
			"anonymous": false,
			"inputs": [
				{
					"indexed": false,
					"internalType": "string",
					"name": "value",
					"type": "string"
				},
				{
					"indexed": true,
					"internalType": "uint256",
					"name": "id",
					"type": "uint256"
				}
			],
			"name": "URI",
			"type": "event"
		},
		{
			"anonymous": false,
			"inputs": [
				{
					"indexed": false,
					"internalType": "address",
					"name": "seller",
					"type": "address"
				},
				{
					"indexed": false,
					"internalType": "uint256",
					"name": "token",
					"type": "uint256"
				},
				{
					"indexed": false,
					"internalType": "uint256",
					"name": "price",
					"type": "uint256"
				}
			],
			"name": "sellItemLists",
			"type": "event"
		},
		{
			"inputs": [
				{
					"internalType": "address",
					"name": "sender",
					"type": "address"
				},
				{
					"internalType": "address",
					"name": "receiver",
					"type": "address"
				},
				{
					"internalType": "uint256",
					"name": "nftid",
					"type": "uint256"
				},
				{
					"internalType": "uint256",
					"name": "price",
					"type": "uint256"
				}
			],
			"name": "BuyNFT",
			"outputs": [],
			"stateMutability": "nonpayable",
			"type": "function"
		},
		{
			"inputs": [
				{
					"internalType": "address",
					"name": "sender",
					"type": "address"
				},
				{
					"internalType": "uint256",
					"name": "nftid",
					"type": "uint256"
				},
				{
					"internalType": "uint256",
					"name": "token",
					"type": "uint256"
				},
				{
					"internalType": "uint256",
					"name": "price",
					"type": "uint256"
				}
			],
			"name": "SellNFT",
			"outputs": [],
			"stateMutability": "nonpayable",
			"type": "function"
		},
		{
			"inputs": [
				{
					"internalType": "uint256",
					"name": "",
					"type": "uint256"
				}
			],
			"name": "SellNftList",
			"outputs": [
				{
					"internalType": "address",
					"name": "owner",
					"type": "address"
				},
				{
					"internalType": "uint256",
					"name": "nftid",
					"type": "uint256"
				}
			],
			"stateMutability": "view",
			"type": "function"
		},
		{
			"inputs": [
				{
					"internalType": "address",
					"name": "account",
					"type": "address"
				},
				{
					"internalType": "uint256",
					"name": "id",
					"type": "uint256"
				}
			],
			"name": "balanceOf",
			"outputs": [
				{
					"internalType": "uint256",
					"name": "",
					"type": "uint256"
				}
			],
			"stateMutability": "view",
			"type": "function"
		},
		{
			"inputs": [
				{
					"internalType": "address[]",
					"name": "accounts",
					"type": "address[]"
				},
				{
					"internalType": "uint256[]",
					"name": "ids",
					"type": "uint256[]"
				}
			],
			"name": "balanceOfBatch",
			"outputs": [
				{
					"internalType": "uint256[]",
					"name": "",
					"type": "uint256[]"
				}
			],
			"stateMutability": "view",
			"type": "function"
		},
		{
			"inputs": [
				{
					"internalType": "uint256",
					"name": "nftid",
					"type": "uint256"
				},
				{
					"internalType": "address",
					"name": "sender",
					"type": "address"
				}
			],
			"name": "cancelSale",
			"outputs": [],
			"stateMutability": "nonpayable",
			"type": "function"
		},
		{
			"inputs": [],
			"name": "getAllListedNFTIds",
			"outputs": [
				{
					"components": [
						{
							"internalType": "address",
							"name": "owner",
							"type": "address"
						},
						{
							"internalType": "uint256",
							"name": "nftid",
							"type": "uint256"
						}
					],
					"internalType": "struct BingNFT.SellList[]",
					"name": "",
					"type": "tuple[]"
				}
			],
			"stateMutability": "view",
			"type": "function"
		},
		{
			"inputs": [
				{
					"internalType": "address",
					"name": "user",
					"type": "address"
				}
			],
			"name": "getAllTokenBalances",
			"outputs": [
				{
					"internalType": "uint256[]",
					"name": "tokenIds",
					"type": "uint256[]"
				},
				{
					"internalType": "uint256[]",
					"name": "balances",
					"type": "uint256[]"
				}
			],
			"stateMutability": "view",
			"type": "function"
		},
		{
			"inputs": [
				{
					"internalType": "address",
					"name": "owner",
					"type": "address"
				},
				{
					"internalType": "uint256",
					"name": "nftid",
					"type": "uint256"
				}
			],
			"name": "getBalance",
			"outputs": [
				{
					"internalType": "uint256",
					"name": "",
					"type": "uint256"
				}
			],
			"stateMutability": "view",
			"type": "function"
		},
		{
			"inputs": [
				{
					"internalType": "address",
					"name": "user",
					"type": "address"
				},
				{
					"internalType": "uint256",
					"name": "tknId",
					"type": "uint256"
				}
			],
			"name": "getCurrentBalance",
			"outputs": [
				{
					"internalType": "uint256",
					"name": "",
					"type": "uint256"
				}
			],
			"stateMutability": "view",
			"type": "function"
		},
		{
			"inputs": [
				{
					"internalType": "address",
					"name": "user",
					"type": "address"
				}
			],
			"name": "getMintedTokens",
			"outputs": [
				{
					"internalType": "uint256[]",
					"name": "tokenIds",
					"type": "uint256[]"
				},
				{
					"internalType": "uint256[]",
					"name": "amounts",
					"type": "uint256[]"
				}
			],
			"stateMutability": "view",
			"type": "function"
		},
		{
			"inputs": [
				{
					"internalType": "address",
					"name": "user",
					"type": "address"
				},
				{
					"internalType": "uint256",
					"name": "index",
					"type": "uint256"
				}
			],
			"name": "getOwnerTokenAtIndex",
			"outputs": [
				{
					"internalType": "uint256",
					"name": "tokenid",
					"type": "uint256"
				},
				{
					"internalType": "uint256",
					"name": "amount",
					"type": "uint256"
				}
			],
			"stateMutability": "view",
			"type": "function"
		},
		{
			"inputs": [
				{
					"internalType": "address",
					"name": "user",
					"type": "address"
				}
			],
			"name": "getOwnerTokenCount",
			"outputs": [
				{
					"internalType": "uint256",
					"name": "",
					"type": "uint256"
				}
			],
			"stateMutability": "view",
			"type": "function"
		},
		{
			"inputs": [
				{
					"internalType": "address",
					"name": "sender",
					"type": "address"
				},
				{
					"internalType": "uint256",
					"name": "item",
					"type": "uint256"
				}
			],
			"name": "getall",
			"outputs": [
				{
					"components": [
						{
							"internalType": "address",
							"name": "seller",
							"type": "address"
						},
						{
							"internalType": "uint256",
							"name": "token",
							"type": "uint256"
						},
						{
							"internalType": "uint256",
							"name": "price",
							"type": "uint256"
						}
					],
					"internalType": "struct BingNFT.Sellstake",
					"name": "",
					"type": "tuple"
				}
			],
			"stateMutability": "view",
			"type": "function"
		},
		{
			"inputs": [
				{
					"internalType": "address",
					"name": "account",
					"type": "address"
				},
				{
					"internalType": "address",
					"name": "operator",
					"type": "address"
				}
			],
			"name": "isApprovedForAll",
			"outputs": [
				{
					"internalType": "bool",
					"name": "",
					"type": "bool"
				}
			],
			"stateMutability": "view",
			"type": "function"
		},
		{
			"inputs": [
				{
					"internalType": "address",
					"name": "",
					"type": "address"
				},
				{
					"internalType": "uint256",
					"name": "",
					"type": "uint256"
				}
			],
			"name": "items",
			"outputs": [
				{
					"internalType": "address",
					"name": "seller",
					"type": "address"
				},
				{
					"internalType": "uint256",
					"name": "token",
					"type": "uint256"
				},
				{
					"internalType": "uint256",
					"name": "price",
					"type": "uint256"
				}
			],
			"stateMutability": "view",
			"type": "function"
		},
		{
			"inputs": [
				{
					"internalType": "address",
					"name": "operator",
					"type": "address"
				},
				{
					"internalType": "address",
					"name": "from",
					"type": "address"
				},
				{
					"internalType": "uint256[]",
					"name": "ids",
					"type": "uint256[]"
				},
				{
					"internalType": "uint256[]",
					"name": "values",
					"type": "uint256[]"
				},
				{
					"internalType": "bytes",
					"name": "data",
					"type": "bytes"
				}
			],
			"name": "onERC1155BatchReceived",
			"outputs": [
				{
					"internalType": "bytes4",
					"name": "",
					"type": "bytes4"
				}
			],
			"stateMutability": "nonpayable",
			"type": "function"
		},
		{
			"inputs": [
				{
					"internalType": "address",
					"name": "operator",
					"type": "address"
				},
				{
					"internalType": "address",
					"name": "from",
					"type": "address"
				},
				{
					"internalType": "uint256",
					"name": "id",
					"type": "uint256"
				},
				{
					"internalType": "uint256",
					"name": "value",
					"type": "uint256"
				},
				{
					"internalType": "bytes",
					"name": "data",
					"type": "bytes"
				}
			],
			"name": "onERC1155Received",
			"outputs": [
				{
					"internalType": "bytes4",
					"name": "",
					"type": "bytes4"
				}
			],
			"stateMutability": "nonpayable",
			"type": "function"
		},
		{
			"inputs": [],
			"name": "owner",
			"outputs": [
				{
					"internalType": "address",
					"name": "",
					"type": "address"
				}
			],
			"stateMutability": "view",
			"type": "function"
		},
		{
			"inputs": [],
			"name": "renounceOwnership",
			"outputs": [],
			"stateMutability": "nonpayable",
			"type": "function"
		},
		{
			"inputs": [
				{
					"internalType": "address",
					"name": "from",
					"type": "address"
				},
				{
					"internalType": "address",
					"name": "to",
					"type": "address"
				},
				{
					"internalType": "uint256[]",
					"name": "ids",
					"type": "uint256[]"
				},
				{
					"internalType": "uint256[]",
					"name": "values",
					"type": "uint256[]"
				},
				{
					"internalType": "bytes",
					"name": "data",
					"type": "bytes"
				}
			],
			"name": "safeBatchTransferFrom",
			"outputs": [],
			"stateMutability": "nonpayable",
			"type": "function"
		},
		{
			"inputs": [
				{
					"internalType": "address",
					"name": "from",
					"type": "address"
				},
				{
					"internalType": "address",
					"name": "to",
					"type": "address"
				},
				{
					"internalType": "uint256",
					"name": "id",
					"type": "uint256"
				},
				{
					"internalType": "uint256",
					"name": "value",
					"type": "uint256"
				},
				{
					"internalType": "bytes",
					"name": "data",
					"type": "bytes"
				}
			],
			"name": "safeTransferFrom",
			"outputs": [],
			"stateMutability": "nonpayable",
			"type": "function"
		},
		{
			"inputs": [
				{
					"internalType": "address",
					"name": "operator",
					"type": "address"
				},
				{
					"internalType": "bool",
					"name": "approved",
					"type": "bool"
				}
			],
			"name": "setApprovalForAll",
			"outputs": [],
			"stateMutability": "nonpayable",
			"type": "function"
		},
		{
			"inputs": [
				{
					"internalType": "string",
					"name": "newuri",
					"type": "string"
				},
				{
					"internalType": "address",
					"name": "sender",
					"type": "address"
				}
			],
			"name": "settokenURI",
			"outputs": [
				{
					"internalType": "uint256",
					"name": "",
					"type": "uint256"
				}
			],
			"stateMutability": "nonpayable",
			"type": "function"
		},
		{
			"inputs": [
				{
					"internalType": "bytes4",
					"name": "interfaceId",
					"type": "bytes4"
				}
			],
			"name": "supportsInterface",
			"outputs": [
				{
					"internalType": "bool",
					"name": "",
					"type": "bool"
				}
			],
			"stateMutability": "view",
			"type": "function"
		},
		{
			"inputs": [
				{
					"internalType": "address",
					"name": "newOwner",
					"type": "address"
				}
			],
			"name": "transferOwnership",
			"outputs": [],
			"stateMutability": "nonpayable",
			"type": "function"
		},
		{
			"inputs": [
				{
					"internalType": "uint256",
					"name": "tokenid",
					"type": "uint256"
				}
			],
			"name": "uri",
			"outputs": [
				{
					"internalType": "string",
					"name": "",
					"type": "string"
				}
			],
			"stateMutability": "view",
			"type": "function"
		},
		{
			"inputs": [
				{
					"internalType": "address",
					"name": "user",
					"type": "address"
				}
			],
			"name": "userTokens",
			"outputs": [
				{
					"internalType": "uint256[]",
					"name": "",
					"type": "uint256[]"
				}
			],
			"stateMutability": "view",
			"type": "function"
		}
	]
}