{
  "_format": "hh-sol-artifact-1",
  "contractName": "BingNFT",
  "sourceName": "contracts/BingNFt.sol",
  "abi": [
    {
      "inputs": [],
      "stateMutability": "nonpayable",
      "type": "constructor"
    },
    {
      "inputs": [
        {
          "internalType": "address",
          "name": "sender",
          "type": "address"
        },
        {
          "internalType": "uint256",
          "name": "balance",
          "type": "uint256"
        },
        {
          "internalType": "uint256",
          "name": "needed",
          "type": "uint256"
        },
        {
          "internalType": "uint256",
          "name": "tokenId",
          "type": "uint256"
        }
      ],
      "name": "ERC1155InsufficientBalance",
      "type": "error"
    },
    {
      "inputs": [
        {
          "internalType": "address",
          "name": "approver",
          "type": "address"
        }
      ],
      "name": "ERC1155InvalidApprover",
      "type": "error"
    },
    {
      "inputs": [
        {
          "internalType": "uint256",
          "name": "idsLength",
          "type": "uint256"
        },
        {
          "internalType": "uint256",
          "name": "valuesLength",
          "type": "uint256"
        }
      ],
      "name": "ERC1155InvalidArrayLength",
      "type": "error"
    },
    {
      "inputs": [
        {
          "internalType": "address",
          "name": "operator",
          "type": "address"
        }
      ],
      "name": "ERC1155InvalidOperator",
      "type": "error"
    },
    {
      "inputs": [
        {
          "internalType": "address",
          "name": "receiver",
          "type": "address"
        }
      ],
      "name": "ERC1155InvalidReceiver",
      "type": "error"
    },
    {
      "inputs": [
        {
          "internalType": "address",
          "name": "sender",
          "type": "address"
        }
      ],
      "name": "ERC1155InvalidSender",
      "type": "error"
    },
    {
      "inputs": [
        {
          "internalType": "address",
          "name": "operator",
          "type": "address"
        },
        {
          "internalType": "address",
          "name": "owner",
          "type": "address"
        }
      ],
      "name": "ERC1155MissingApprovalForAll",
      "type": "error"
    },
    {
      "inputs": [
        {
          "internalType": "address",
          "name": "owner",
          "type": "address"
        }
      ],
      "name": "OwnableInvalidOwner",
      "type": "error"
    },
    {
      "inputs": [
        {
          "internalType": "address",
          "name": "account",
          "type": "address"
        }
      ],
      "name": "OwnableUnauthorizedAccount",
      "type": "error"
    },
    {
      "anonymous": false,
      "inputs": [
        {
          "indexed": true,
          "internalType": "address",
          "name": "account",
          "type": "address"
        },
        {
          "indexed": true,
          "internalType": "address",
          "name": "operator",
          "type": "address"
        },
        {
          "indexed": false,
          "internalType": "bool",
          "name": "approved",
          "type": "bool"
        }
      ],
      "name": "ApprovalForAll",
      "type": "event"
    },
    {
      "anonymous": false,
      "inputs": [
        {
          "indexed": true,
          "internalType": "address",
          "name": "previousOwner",
          "type": "address"
        },
        {
          "indexed": true,
          "internalType": "address",
          "name": "newOwner",
          "type": "address"
        }
      ],
      "name": "OwnershipTransferred",
      "type": "event"
    },
    {
      "anonymous": false,
      "inputs": [
        {
          "indexed": true,
          "internalType": "address",
          "name": "operator",
          "type": "address"
        },
        {
          "indexed": true,
          "internalType": "address",
          "name": "from",
          "type": "address"
        },
        {
          "indexed": true,
          "internalType": "address",
          "name": "to",
          "type": "address"
        },
        {
          "indexed": false,
          "internalType": "uint256[]",
          "name": "ids",
          "type": "uint256[]"
        },
        {
          "indexed": false,
          "internalType": "uint256[]",
          "name": "values",
          "type": "uint256[]"
        }
      ],
      "name": "TransferBatch",
      "type": "event"
    },
    {
      "anonymous": false,
      "inputs": [
        {
          "indexed": true,
          "internalType": "address",
          "name": "operator",
          "type": "address"
        },
        {
          "indexed": true,
          "internalType": "address",
          "name": "from",
          "type": "address"
        },
        {
          "indexed": true,
          "internalType": "address",
          "name": "to",
          "type": "address"
        },
        {
          "indexed": false,
          "internalType": "uint256",
          "name": "id",
          "type": "uint256"
        },
        {
          "indexed": false,
          "internalType": "uint256",
          "name": "value",
          "type": "uint256"
        }
      ],
      "name": "TransferSingle",
      "type": "event"
    },
    {
      "anonymous": false,
      "inputs": [
        {
          "indexed": false,
          "internalType": "string",
          "name": "value",
          "type": "string"
        },
        {
          "indexed": true,
          "internalType": "uint256",
          "name": "id",
          "type": "uint256"
        }
      ],
      "name": "URI",
      "type": "event"
    },
    {
      "anonymous": false,
      "inputs": [
        {
          "indexed": false,
          "internalType": "address",
          "name": "seller",
          "type": "address"
        },
        {
          "indexed": false,
          "internalType": "uint256",
          "name": "token",
          "type": "uint256"
        },
        {
          "indexed": false,
          "internalType": "uint256",
          "name": "price",
          "type": "uint256"
        }
      ],
      "name": "sellItemLists",
      "type": "event"
    },
    {
      "inputs": [
        {
          "internalType": "address",
          "name": "receiver",
          "type": "address"
        },
        {
          "internalType": "uint256",
          "name": "nftid",
          "type": "uint256"
        },
        {
          "internalType": "uint256",
          "name": "price",
          "type": "uint256"
        }
      ],
      "name": "BuyNFT",
      "outputs": [],
      "stateMutability": "nonpayable",
      "type": "function"
    },
    {
      "inputs": [
        {
          "internalType": "address",
          "name": "sender",
          "type": "address"
        },
        {
          "internalType": "uint256",
          "name": "nftid",
          "type": "uint256"
        },
        {
          "internalType": "uint256",
          "name": "token",
          "type": "uint256"
        },
        {
          "internalType": "uint256",
          "name": "price",
          "type": "uint256"
        }
      ],
      "name": "SellNFT",
      "outputs": [],
      "stateMutability": "nonpayable",
      "type": "function"
    },
    {
      "inputs": [
        {
          "internalType": "uint256",
          "name": "",
          "type": "uint256"
        }
      ],
      "name": "SellNftList",
      "outputs": [
        {
          "internalType": "address",
          "name": "owner",
          "type": "address"
        },
        {
          "internalType": "uint256",
          "name": "nftid",
          "type": "uint256"
        }
      ],
      "stateMutability": "view",
      "type": "function"
    },
    {
      "inputs": [
        {
          "internalType": "address",
          "name": "account",
          "type": "address"
        },
        {
          "internalType": "uint256",
          "name": "id",
          "type": "uint256"
        }
      ],
      "name": "balanceOf",
      "outputs": [
        {
          "internalType": "uint256",
          "name": "",
          "type": "uint256"
        }
      ],
      "stateMutability": "view",
      "type": "function"
    },
    {
      "inputs": [
        {
          "internalType": "address[]",
          "name": "accounts",
          "type": "address[]"
        },
        {
          "internalType": "uint256[]",
          "name": "ids",
          "type": "uint256[]"
        }
      ],
      "name": "balanceOfBatch",
      "outputs": [
        {
          "internalType": "uint256[]",
          "name": "",
          "type": "uint256[]"
        }
      ],
      "stateMutability": "view",
      "type": "function"
    },
    {
      "inputs": [
        {
          "internalType": "uint256",
          "name": "nftid",
          "type": "uint256"
        },
        {
          "internalType": "address",
          "name": "sender",
          "type": "address"
        }
      ],
      "name": "cancelSale",
      "outputs": [],
      "stateMutability": "nonpayable",
      "type": "function"
    },
    {
      "inputs": [],
      "name": "getAllListedNFTIds",
      "outputs": [
        {
          "components": [
            {
              "internalType": "address",
              "name": "owner",
              "type": "address"
            },
            {
              "internalType": "uint256",
              "name": "nftid",
              "type": "uint256"
            }
          ],
          "internalType": "struct BingNFT.SellList[]",
          "name": "",
          "type": "tuple[]"
        }
      ],
      "stateMutability": "view",
      "type": "function"
    },
    {
      "inputs": [
        {
          "internalType": "address",
          "name": "user",
          "type": "address"
        }
      ],
      "name": "getAllTokenBalances",
      "outputs": [
        {
          "internalType": "uint256[]",
          "name": "tokenIds",
          "type": "uint256[]"
        },
        {
          "internalType": "uint256[]",
          "name": "balances",
          "type": "uint256[]"
        }
      ],
      "stateMutability": "view",
      "type": "function"
    },
    {
      "inputs": [
        {
          "internalType": "address",
          "name": "owner",
          "type": "address"
        },
        {
          "internalType": "uint256",
          "name": "nftid",
          "type": "uint256"
        }
      ],
      "name": "getBalance",
      "outputs": [
        {
          "internalType": "uint256",
          "name": "",
          "type": "uint256"
        }
      ],
      "stateMutability": "view",
      "type": "function"
    },
    {
      "inputs": [
        {
          "internalType": "address",
          "name": "user",
          "type": "address"
        },
        {
          "internalType": "uint256",
          "name": "tknId",
          "type": "uint256"
        }
      ],
      "name": "getCurrentBalance",
      "outputs": [
        {
          "internalType": "uint256",
          "name": "",
          "type": "uint256"
        }
      ],
      "stateMutability": "view",
      "type": "function"
    },
    {
      "inputs": [
        {
          "internalType": "address",
          "name": "user",
          "type": "address"
        }
      ],
      "name": "getMintedTokens",
      "outputs": [
        {
          "internalType": "uint256[]",
          "name": "tokenIds",
          "type": "uint256[]"
        },
        {
          "internalType": "uint256[]",
          "name": "amounts",
          "type": "uint256[]"
        }
      ],
      "stateMutability": "view",
      "type": "function"
    },
    {
      "inputs": [
        {
          "internalType": "address",
          "name": "user",
          "type": "address"
        },
        {
          "internalType": "uint256",
          "name": "index",
          "type": "uint256"
        }
      ],
      "name": "getOwnerTokenAtIndex",
      "outputs": [
        {
          "internalType": "uint256",
          "name": "tokenid",
          "type": "uint256"
        },
        {
          "internalType": "uint256",
          "name": "amount",
          "type": "uint256"
        }
      ],
      "stateMutability": "view",
      "type": "function"
    },
    {
      "inputs": [
        {
          "internalType": "address",
          "name": "user",
          "type": "address"
        }
      ],
      "name": "getOwnerTokenCount",
      "outputs": [
        {
          "internalType": "uint256",
          "name": "",
          "type": "uint256"
        }
      ],
      "stateMutability": "view",
      "type": "function"
    },
    {
      "inputs": [
        {
          "internalType": "address",
          "name": "sender",
          "type": "address"
        },
        {
          "internalType": "uint256",
          "name": "item",
          "type": "uint256"
        }
      ],
      "name": "getall",
      "outputs": [
        {
          "components": [
            {
              "internalType": "address",
              "name": "seller",
              "type": "address"
            },
            {
              "internalType": "uint256",
              "name": "token",
              "type": "uint256"
            },
            {
              "internalType": "uint256",
              "name": "price",
              "type": "uint256"
            }
          ],
          "internalType": "struct BingNFT.Sellstake",
          "name": "",
          "type": "tuple"
        }
      ],
      "stateMutability": "view",
      "type": "function"
    },
    {
      "inputs": [
        {
          "internalType": "address",
          "name": "account",
          "type": "address"
        },
        {
          "internalType": "address",
          "name": "operator",
          "type": "address"
        }
      ],
      "name": "isApprovedForAll",
      "outputs": [
        {
          "internalType": "bool",
          "name": "",
          "type": "bool"
        }
      ],
      "stateMutability": "view",
      "type": "function"
    },
    {
      "inputs": [
        {
          "internalType": "address",
          "name": "",
          "type": "address"
        },
        {
          "internalType": "uint256",
          "name": "",
          "type": "uint256"
        }
      ],
      "name": "items",
      "outputs": [
        {
          "internalType": "address",
          "name": "seller",
          "type": "address"
        },
        {
          "internalType": "uint256",
          "name": "token",
          "type": "uint256"
        },
        {
          "internalType": "uint256",
          "name": "price",
          "type": "uint256"
        }
      ],
      "stateMutability": "view",
      "type": "function"
    },
    {
      "inputs": [
        {
          "internalType": "address",
          "name": "operator",
          "type": "address"
        },
        {
          "internalType": "address",
          "name": "from",
          "type": "address"
        },
        {
          "internalType": "uint256[]",
          "name": "ids",
          "type": "uint256[]"
        },
        {
          "internalType": "uint256[]",
          "name": "values",
          "type": "uint256[]"
        },
        {
          "internalType": "bytes",
          "name": "data",
          "type": "bytes"
        }
      ],
      "name": "onERC1155BatchReceived",
      "outputs": [
        {
          "internalType": "bytes4",
          "name": "",
          "type": "bytes4"
        }
      ],
      "stateMutability": "nonpayable",
      "type": "function"
    },
    {
      "inputs": [
        {
          "internalType": "address",
          "name": "operator",
          "type": "address"
        },
        {
          "internalType": "address",
          "name": "from",
          "type": "address"
        },
        {
          "internalType": "uint256",
          "name": "id",
          "type": "uint256"
        },
        {
          "internalType": "uint256",
          "name": "value",
          "type": "uint256"
        },
        {
          "internalType": "bytes",
          "name": "data",
          "type": "bytes"
        }
      ],
      "name": "onERC1155Received",
      "outputs": [
        {
          "internalType": "bytes4",
          "name": "",
          "type": "bytes4"
        }
      ],
      "stateMutability": "nonpayable",
      "type": "function"
    },
    {
      "inputs": [],
      "name": "owner",
      "outputs": [
        {
          "internalType": "address",
          "name": "",
          "type": "address"
        }
      ],
      "stateMutability": "view",
      "type": "function"
    },
    {
      "inputs": [],
      "name": "renounceOwnership",
      "outputs": [],
      "stateMutability": "nonpayable",
      "type": "function"
    },
    {
      "inputs": [
        {
          "internalType": "address",
          "name": "from",
          "type": "address"
        },
        {
          "internalType": "address",
          "name": "to",
          "type": "address"
        },
        {
          "internalType": "uint256[]",
          "name": "ids",
          "type": "uint256[]"
        },
        {
          "internalType": "uint256[]",
          "name": "values",
          "type": "uint256[]"
        },
        {
          "internalType": "bytes",
          "name": "data",
          "type": "bytes"
        }
      ],
      "name": "safeBatchTransferFrom",
      "outputs": [],
      "stateMutability": "nonpayable",
      "type": "function"
    },
    {
      "inputs": [
        {
          "internalType": "address",
          "name": "from",
          "type": "address"
        },
        {
          "internalType": "address",
          "name": "to",
          "type": "address"
        },
        {
          "internalType": "uint256",
          "name": "id",
          "type": "uint256"
        },
        {
          "internalType": "uint256",
          "name": "value",
          "type": "uint256"
        },
        {
          "internalType": "bytes",
          "name": "data",
          "type": "bytes"
        }
      ],
      "name": "safeTransferFrom",
      "outputs": [],
      "stateMutability": "nonpayable",
      "type": "function"
    },
    {
      "inputs": [
        {
          "internalType": "address",
          "name": "operator",
          "type": "address"
        },
        {
          "internalType": "bool",
          "name": "approved",
          "type": "bool"
        }
      ],
      "name": "setApprovalForAll",
      "outputs": [],
      "stateMutability": "nonpayable",
      "type": "function"
    },
    {
      "inputs": [
        {
          "internalType": "string",
          "name": "newuri",
          "type": "string"
        },
        {
          "internalType": "address",
          "name": "sender",
          "type": "address"
        }
      ],
      "name": "settokenURI",
      "outputs": [
        {
          "internalType": "uint256",
          "name": "",
          "type": "uint256"
        }
      ],
      "stateMutability": "nonpayable",
      "type": "function"
    },
    {
      "inputs": [
        {
          "internalType": "bytes4",
          "name": "interfaceId",
          "type": "bytes4"
        }
      ],
      "name": "supportsInterface",
      "outputs": [
        {
          "internalType": "bool",
          "name": "",
          "type": "bool"
        }
      ],
      "stateMutability": "view",
      "type": "function"
    },
    {
      "inputs": [
        {
          "internalType": "address",
          "name": "newOwner",
          "type": "address"
        }
      ],
      "name": "transferOwnership",
      "outputs": [],
      "stateMutability": "nonpayable",
      "type": "function"
    },
    {
      "inputs": [
        {
          "internalType": "uint256",
          "name": "tokenid",
          "type": "uint256"
        }
      ],
      "name": "uri",
      "outputs": [
        {
          "internalType": "string",
          "name": "",
          "type": "string"
        }
      ],
      "stateMutability": "view",
      "type": "function"
    },
    {
      "inputs": [
        {
          "internalType": "address",
          "name": "user",
          "type": "address"
        }
      ],
      "name": "userTokens",
      "outputs": [
        {
          "internalType": "uint256[]",
          "name": "",
          "type": "uint256[]"
        }
      ],
      "stateMutability": "view",
      "type": "function"
    }
  ],
  "bytecode": "0x60806040526040518060600160405280602881526020016152af60289139600a908161002b9190610485565b5034801561003857600080fd5b5033600a80546100479061029e565b80601f01602080910402602001604051908101604052809291908181526020018280546100739061029e565b80156100c05780601f10610095576101008083540402835291602001916100c0565b820191906000526020600020905b8154815290600101906020018083116100a357829003601f168201915b50505050506100d48161015c60201b60201c565b50600073ffffffffffffffffffffffffffffffffffffffff168173ffffffffffffffffffffffffffffffffffffffff16036101475760006040517f1e4fbdf700000000000000000000000000000000000000000000000000000000815260040161013e9190610598565b60405180910390fd5b6101568161016f60201b60201c565b506105b3565b806002908161016b9190610485565b5050565b6000600360009054906101000a900473ffffffffffffffffffffffffffffffffffffffff16905081600360006101000a81548173ffffffffffffffffffffffffffffffffffffffff021916908373ffffffffffffffffffffffffffffffffffffffff1602179055508173ffffffffffffffffffffffffffffffffffffffff168173ffffffffffffffffffffffffffffffffffffffff167f8be0079c531659141344cd1fd0a4f28419497f9722a3daafe3b4186f6b6457e060405160405180910390a35050565b600081519050919050565b7f4e487b7100000000000000000000000000000000000000000000000000000000600052604160045260246000fd5b7f4e487b7100000000000000000000000000000000000000000000000000000000600052602260045260246000fd5b600060028204905060018216806102b657607f821691505b6020821081036102c9576102c861026f565b5b50919050565b60008190508160005260206000209050919050565b60006020601f8301049050919050565b600082821b905092915050565b6000600883026103317fffffffffffffffffffffffffffffffffffffffffffffffffffffffffffffffff826102f4565b61033b86836102f4565b95508019841693508086168417925050509392505050565b6000819050919050565b6000819050919050565b600061038261037d61037884610353565b61035d565b610353565b9050919050565b6000819050919050565b61039c83610367565b6103b06103a882610389565b848454610301565b825550505050565b600090565b6103c56103b8565b6103d0818484610393565b505050565b5b818110156103f4576103e96000826103bd565b6001810190506103d6565b5050565b601f8211156104395761040a816102cf565b610413846102e4565b81016020851015610422578190505b61043661042e856102e4565b8301826103d5565b50505b505050565b600082821c905092915050565b600061045c6000198460080261043e565b1980831691505092915050565b6000610475838361044b565b9150826002028217905092915050565b61048e82610235565b67ffffffffffffffff8111156104a7576104a6610240565b5b6104b1825461029e565b6104bc8282856103f8565b600060209050601f8311600181146104ef57600084156104dd578287015190505b6104e78582610469565b86555061054f565b601f1984166104fd866102cf565b60005b8281101561052557848901518255600182019150602085019450602081019050610500565b86831015610542578489015161053e601f89168261044b565b8355505b6001600288020188555050505b505050505050565b600073ffffffffffffffffffffffffffffffffffffffff82169050919050565b600061058282610557565b9050919050565b61059281610577565b82525050565b60006020820190506105ad6000830184610589565b92915050565b614ced806105c26000396000f3fe608060405234801561001057600080fd5b50600436106101c25760003560e01c8063813d2ad8116100f9578063d50bcc7111610097578063ed498fa811610071578063ed498fa81461059f578063f23a6e61146105cf578063f242432a146105ff578063f2fde38b1461061b576101c2565b8063d50bcc7114610523578063d80a08da14610553578063e985e9c51461056f576101c2565b8063a22cb465116100d3578063a22cb46514610489578063b901fed5146104a5578063bc197c81146104c3578063cc0a48d4146104f3576101c2565b8063813d2ad81461041e5780638da5cb5b1461043a5780639145d13314610458576101c2565b80634e1273f4116101665780635d963241116101405780635d96324114610397578063681bec6c146103b3578063715018a6146103e457806375388a0f146103ee576101c2565b80634e1273f4146103055780635491a99f146103355780635c80a43514610365576101c2565b80630e89341c116101a25780630e89341c146102585780632b04e840146102885780632eb2c2d6146102b8578063434a49a1146102d4576101c2565b80628b96a1146101c7578062fdd58e146101f857806301ffc9a714610228575b600080fd5b6101e160048036038101906101dc9190613245565b610637565b6040516101ef9291906132c2565b60405180910390f35b610212600480360381019061020d9190613317565b61068b565b60405161021f9190613357565b60405180910390f35b610242600480360381019061023d91906133ca565b6106e5565b60405161024f9190613412565b60405180910390f35b610272600480360381019061026d9190613245565b61075f565b60405161027f91906134bd565b60405180910390f35b6102a2600480360381019061029d9190613317565b61084b565b6040516102af9190613357565b60405180910390f35b6102d260048036038101906102cd91906136dc565b61085f565b005b6102ee60048036038101906102e991906137ab565b610907565b6040516102fc929190613896565b60405180910390f35b61031f600480360381019061031a9190613990565b610b18565b60405161032c9190613a08565b60405180910390f35b61034f600480360381019061034a9190613317565b610c21565b60405161035c9190613a7b565b60405180910390f35b61037f600480360381019061037a9190613317565b610cf6565b60405161038e93929190613a96565b60405180910390f35b6103b160048036038101906103ac9190613acd565b610d4d565b005b6103cd60048036038101906103c891906137ab565b611066565b6040516103db929190613896565b60405180910390f35b6103ec611277565b005b61040860048036038101906104039190613317565b61128b565b6040516104159190613357565b60405180910390f35b61043860048036038101906104339190613b20565b6112e6565b005b6104426115b8565b60405161044f9190613b60565b60405180910390f35b610472600480360381019061046d9190613317565b6115e2565b604051610480929190613b7b565b60405180910390f35b6104a3600480360381019061049e9190613bd0565b611721565b005b6104ad611737565b6040516104ba9190613cee565b60405180910390f35b6104dd60048036038101906104d89190613dc1565b6117f6565b6040516104ea9190613eac565b60405180910390f35b61050d60048036038101906105089190613f68565b61180e565b60405161051a9190613357565b60405180910390f35b61053d600480360381019061053891906137ab565b6118d5565b60405161054a9190613357565b60405180910390f35b61056d60048036038101906105689190613fc4565b611921565b005b6105896004803603810190610584919061402b565b611db4565b6040516105969190613412565b60405180910390f35b6105b960048036038101906105b491906137ab565b611e48565b6040516105c69190613a08565b60405180910390f35b6105e960048036038101906105e4919061406b565b611edf565b6040516105f69190613eac565b60405180910390f35b61061960048036038101906106149190614105565b611ef5565b005b610635600480360381019061063091906137ab565b611f9d565b005b6008818154811061064757600080fd5b90600052602060002090600202016000915090508060000160009054906101000a900473ffffffffffffffffffffffffffffffffffffffff16908060010154905082565b600080600083815260200190815260200160002060008473ffffffffffffffffffffffffffffffffffffffff1673ffffffffffffffffffffffffffffffffffffffff16815260200190815260200160002054905092915050565b60007f4e2312e0000000000000000000000000000000000000000000000000000000007bffffffffffffffffffffffffffffffffffffffffffffffffffffffff1916827bffffffffffffffffffffffffffffffffffffffffffffffffffffffff19161480610758575061075782612023565b5b9050919050565b60606000600760008481526020019081526020016000208054610781906141cb565b80601f01602080910402602001604051908101604052809291908181526020018280546107ad906141cb565b80156107fa5780601f106107cf576101008083540402835291602001916107fa565b820191906000526020600020905b8154815290600101906020018083116107dd57829003601f168201915b505050505090506000815111156108145780915050610846565b600061081f84612105565b90508060405160200161083291906142d0565b604051602081830303815290604052925050505b919050565b6000610857838361068b565b905092915050565b60006108696121d3565b90508073ffffffffffffffffffffffffffffffffffffffff168673ffffffffffffffffffffffffffffffffffffffff16141580156108ae57506108ac8682611db4565b155b156108f25780866040517fe237d9220000000000000000000000000000000000000000000000000000000081526004016108e99291906142fd565b60405180910390fd5b6108ff86868686866121db565b505050505050565b6060806000600660008573ffffffffffffffffffffffffffffffffffffffff1673ffffffffffffffffffffffffffffffffffffffff16815260200190815260200160002080548060200260200160405190810160405280929190818152602001828054801561099557602002820191906000526020600020905b815481526020019060010190808311610981575b50505050509050805167ffffffffffffffff8111156109b7576109b66134e4565b5b6040519080825280602002602001820160405280156109e55781602001602082028036833780820191505090505b509250805167ffffffffffffffff811115610a0357610a026134e4565b5b604051908082528060200260200182016040528015610a315781602001602082028036833780820191505090505b50915060005b8151811015610b1157818181518110610a5357610a52614326565b5b6020026020010151848281518110610a6e57610a6d614326565b5b602002602001018181525050600560008673ffffffffffffffffffffffffffffffffffffffff1673ffffffffffffffffffffffffffffffffffffffff1681526020019081526020016000206000838381518110610ace57610acd614326565b5b6020026020010151815260200190815260200160002054838281518110610af857610af7614326565b5b6020026020010181815250508080600101915050610a37565b5050915091565b60608151835114610b6457815183516040517f5b059991000000000000000000000000000000000000000000000000000000008152600401610b5b929190613b7b565b60405180910390fd5b6000835167ffffffffffffffff811115610b8157610b806134e4565b5b604051908082528060200260200182016040528015610baf5781602001602082028036833780820191505090505b50905060005b8451811015610c1657610bec610bd482876122d390919063ffffffff16565b610be783876122e790919063ffffffff16565b61068b565b828281518110610bff57610bfe614326565b5b602002602001018181525050806001019050610bb5565b508091505092915050565b610c296131c4565b600460008473ffffffffffffffffffffffffffffffffffffffff1673ffffffffffffffffffffffffffffffffffffffff16815260200190815260200160002060008381526020019081526020016000206040518060600160405290816000820160009054906101000a900473ffffffffffffffffffffffffffffffffffffffff1673ffffffffffffffffffffffffffffffffffffffff1673ffffffffffffffffffffffffffffffffffffffff16815260200160018201548152602001600282015481525050905092915050565b6004602052816000526040600020602052806000526040600020600091509150508060000160009054906101000a900473ffffffffffffffffffffffffffffffffffffffff16908060010154908060020154905083565b6000600460003073ffffffffffffffffffffffffffffffffffffffff1673ffffffffffffffffffffffffffffffffffffffff16815260200190815260200160002060008481526020019081526020016000206040518060600160405290816000820160009054906101000a900473ffffffffffffffffffffffffffffffffffffffff1673ffffffffffffffffffffffffffffffffffffffff1673ffffffffffffffffffffffffffffffffffffffff16815260200160018201548152602001600282015481525050905081816040015114610e5c576040517f08c379a0000000000000000000000000000000000000000000000000000000008152600401610e53906143a1565b60405180910390fd5b806000015173ffffffffffffffffffffffffffffffffffffffff168473ffffffffffffffffffffffffffffffffffffffff1603610ece576040517f08c379a0000000000000000000000000000000000000000000000000000000008152600401610ec59061440d565b60405180910390fd5b600073ffffffffffffffffffffffffffffffffffffffff16816000015173ffffffffffffffffffffffffffffffffffffffff1603610f41576040517f08c379a0000000000000000000000000000000000000000000000000000000008152600401610f3890614479565b60405180910390fd5b610f613085858460200151604051806020016040528060008152506122fb565b8060200151600560008673ffffffffffffffffffffffffffffffffffffffff1673ffffffffffffffffffffffffffffffffffffffff16815260200190815260200160002060008581526020019081526020016000206000828254610fc591906144c8565b92505081905550610fd68484612406565b600460003073ffffffffffffffffffffffffffffffffffffffff1673ffffffffffffffffffffffffffffffffffffffff1681526020019081526020016000206000848152602001908152602001600020600080820160006101000a81549073ffffffffffffffffffffffffffffffffffffffff021916905560018201600090556002820160009055505050505050565b6060806000600660008573ffffffffffffffffffffffffffffffffffffffff1673ffffffffffffffffffffffffffffffffffffffff1681526020019081526020016000208054806020026020016040519081016040528092919081815260200182805480156110f457602002820191906000526020600020905b8154815260200190600101908083116110e0575b50505050509050805167ffffffffffffffff811115611116576111156134e4565b5b6040519080825280602002602001820160405280156111445781602001602082028036833780820191505090505b509250805167ffffffffffffffff811115611162576111616134e4565b5b6040519080825280602002602001820160405280156111905781602001602082028036833780820191505090505b50915060005b8151811015611270578181815181106111b2576111b1614326565b5b60200260200101518482815181106111cd576111cc614326565b5b602002602001018181525050600560008673ffffffffffffffffffffffffffffffffffffffff1673ffffffffffffffffffffffffffffffffffffffff168152602001908152602001600020600083838151811061122d5761122c614326565b5b602002602001015181526020019081526020016000205483828151811061125757611256614326565b5b6020026020010181815250508080600101915050611196565b5050915091565b61127f6124bf565b6112896000612546565b565b6000600560008473ffffffffffffffffffffffffffffffffffffffff1673ffffffffffffffffffffffffffffffffffffffff168152602001908152602001600020600083815260200190815260200160002054905092915050565b6000600460008373ffffffffffffffffffffffffffffffffffffffff1673ffffffffffffffffffffffffffffffffffffffff16815260200190815260200160002060008481526020019081526020016000206040518060600160405290816000820160009054906101000a900473ffffffffffffffffffffffffffffffffffffffff1673ffffffffffffffffffffffffffffffffffffffff1673ffffffffffffffffffffffffffffffffffffffff1681526020016001820154815260200160028201548152505090508173ffffffffffffffffffffffffffffffffffffffff16816000015173ffffffffffffffffffffffffffffffffffffffff1614611421576040517f08c379a000000000000000000000000000000000000000000000000000000000815260040161141890614548565b60405180910390fd5b600073ffffffffffffffffffffffffffffffffffffffff16816000015173ffffffffffffffffffffffffffffffffffffffff1603611494576040517f08c379a000000000000000000000000000000000000000000000000000000000815260040161148b90614479565b60405180910390fd5b6114b43083858460200151604051806020016040528060008152506122fb565b8060200151600560008473ffffffffffffffffffffffffffffffffffffffff1673ffffffffffffffffffffffffffffffffffffffff1681526020019081526020016000206000858152602001908152602001600020600082825461151891906144c8565b925050819055506115298284612406565b600460008373ffffffffffffffffffffffffffffffffffffffff1673ffffffffffffffffffffffffffffffffffffffff1681526020019081526020016000206000848152602001908152602001600020600080820160006101000a81549073ffffffffffffffffffffffffffffffffffffffff0219169055600182016000905560028201600090555050505050565b6000600360009054906101000a900473ffffffffffffffffffffffffffffffffffffffff16905090565b600080600660008573ffffffffffffffffffffffffffffffffffffffff1673ffffffffffffffffffffffffffffffffffffffff168152602001908152602001600020805490508310611669576040517f08c379a0000000000000000000000000000000000000000000000000000000008152600401611660906145b4565b60405180910390fd5b600660008573ffffffffffffffffffffffffffffffffffffffff1673ffffffffffffffffffffffffffffffffffffffff16815260200190815260200160002083815481106116ba576116b9614326565b5b90600052602060002001549150600560008573ffffffffffffffffffffffffffffffffffffffff1673ffffffffffffffffffffffffffffffffffffffff16815260200190815260200160002060008381526020019081526020016000205490509250929050565b61173361172c6121d3565b838361260c565b5050565b60606008805480602002602001604051908101604052809291908181526020016000905b828210156117ed57838290600052602060002090600202016040518060400160405290816000820160009054906101000a900473ffffffffffffffffffffffffffffffffffffffff1673ffffffffffffffffffffffffffffffffffffffff1673ffffffffffffffffffffffffffffffffffffffff1681526020016001820154815250508152602001906001019061175b565b50505050905090565b600063bc197c8160e01b905098975050505050505050565b6000806009549050611832838260646040518060200160405280600081525061277c565b836007600083815260200190815260200160002090816118529190614780565b506064600560008573ffffffffffffffffffffffffffffffffffffffff1673ffffffffffffffffffffffffffffffffffffffff1681526020019081526020016000206000838152602001908152602001600020819055506118b38382612406565b600960008154809291906118c690614852565b91905055508091505092915050565b6000600660008373ffffffffffffffffffffffffffffffffffffffff1673ffffffffffffffffffffffffffffffffffffffff168152602001908152602001600020805490509050919050565b8161192c858561068b565b101561196d576040517f08c379a0000000000000000000000000000000000000000000000000000000008152600401611964906148e6565b60405180910390fd5b600081116119b0576040517f08c379a00000000000000000000000000000000000000000000000000000000081526004016119a790614952565b60405180910390fd5b600073ffffffffffffffffffffffffffffffffffffffff16600460008673ffffffffffffffffffffffffffffffffffffffff1673ffffffffffffffffffffffffffffffffffffffff168152602001908152602001600020600085815260200190815260200160002060000160009054906101000a900473ffffffffffffffffffffffffffffffffffffffff1673ffffffffffffffffffffffffffffffffffffffff1614611a92576040517f08c379a0000000000000000000000000000000000000000000000000000000008152600401611a89906149be565b60405180910390fd5b60008211611ad5576040517f08c379a0000000000000000000000000000000000000000000000000000000008152600401611acc90614a2a565b60405180910390fd5b81600560008673ffffffffffffffffffffffffffffffffffffffff1673ffffffffffffffffffffffffffffffffffffffff1681526020019081526020016000206000858152602001908152602001600020541015611b68576040517f08c379a0000000000000000000000000000000000000000000000000000000008152600401611b5f90614a96565b60405180910390fd5b611b8484308585604051806020016040528060008152506122fb565b81600560008673ffffffffffffffffffffffffffffffffffffffff1673ffffffffffffffffffffffffffffffffffffffff16815260200190815260200160002060008581526020019081526020016000206000828254611be49190614ab6565b9250508190555060405180606001604052808573ffffffffffffffffffffffffffffffffffffffff16815260200183815260200182815250600460008673ffffffffffffffffffffffffffffffffffffffff1673ffffffffffffffffffffffffffffffffffffffff168152602001908152602001600020600085815260200190815260200160002060008201518160000160006101000a81548173ffffffffffffffffffffffffffffffffffffffff021916908373ffffffffffffffffffffffffffffffffffffffff1602179055506020820151816001015560408201518160020155905050600860405180604001604052808673ffffffffffffffffffffffffffffffffffffffff16815260200185815250908060018154018082558091505060019003906000526020600020906002020160009091909190915060008201518160000160006101000a81548173ffffffffffffffffffffffffffffffffffffffff021916908373ffffffffffffffffffffffffffffffffffffffff1602179055506020820151816001015550507feba8cee8f0a2ab7b4cc8e75d10eae88eb6b625a15419821b6676d03a57ad7762848383604051611da693929190613a96565b60405180910390a150505050565b6000600160008473ffffffffffffffffffffffffffffffffffffffff1673ffffffffffffffffffffffffffffffffffffffff16815260200190815260200160002060008373ffffffffffffffffffffffffffffffffffffffff1673ffffffffffffffffffffffffffffffffffffffff16815260200190815260200160002060009054906101000a900460ff16905092915050565b6060600660008373ffffffffffffffffffffffffffffffffffffffff1673ffffffffffffffffffffffffffffffffffffffff168152602001908152602001600020805480602002602001604051908101604052809291908181526020018280548015611ed357602002820191906000526020600020905b815481526020019060010190808311611ebf575b50505050509050919050565b600063f23a6e6160e01b90509695505050505050565b6000611eff6121d3565b90508073ffffffffffffffffffffffffffffffffffffffff168673ffffffffffffffffffffffffffffffffffffffff1614158015611f445750611f428682611db4565b155b15611f885780866040517fe237d922000000000000000000000000000000000000000000000000000000008152600401611f7f9291906142fd565b60405180910390fd5b611f9586868686866122fb565b505050505050565b611fa56124bf565b600073ffffffffffffffffffffffffffffffffffffffff168173ffffffffffffffffffffffffffffffffffffffff16036120175760006040517f1e4fbdf700000000000000000000000000000000000000000000000000000000815260040161200e9190613b60565b60405180910390fd5b61202081612546565b50565b60007fd9b67a26000000000000000000000000000000000000000000000000000000007bffffffffffffffffffffffffffffffffffffffffffffffffffffffff1916827bffffffffffffffffffffffffffffffffffffffffffffffffffffffff191614806120ee57507f0e89341c000000000000000000000000000000000000000000000000000000007bffffffffffffffffffffffffffffffffffffffffffffffffffffffff1916827bffffffffffffffffffffffffffffffffffffffffffffffffffffffff1916145b806120fe57506120fd82612815565b5b9050919050565b6060600060016121148461287f565b01905060008167ffffffffffffffff811115612133576121326134e4565b5b6040519080825280601f01601f1916602001820160405280156121655781602001600182028036833780820191505090505b509050600082602001820190505b6001156121c8578080600190039150507f3031323334353637383961626364656600000000000000000000000000000000600a86061a8153600a85816121bc576121bb614aea565b5b04945060008503612173575b819350505050919050565b600033905090565b600073ffffffffffffffffffffffffffffffffffffffff168473ffffffffffffffffffffffffffffffffffffffff160361224d5760006040517f57f447ce0000000000000000000000000000000000000000000000000000000081526004016122449190613b60565b60405180910390fd5b600073ffffffffffffffffffffffffffffffffffffffff168573ffffffffffffffffffffffffffffffffffffffff16036122bf5760006040517f01a835140000000000000000000000000000000000000000000000000000000081526004016122b69190613b60565b60405180910390fd5b6122cc85858585856129d2565b5050505050565b600060208202602084010151905092915050565b600060208202602084010151905092915050565b600073ffffffffffffffffffffffffffffffffffffffff168473ffffffffffffffffffffffffffffffffffffffff160361236d5760006040517f57f447ce0000000000000000000000000000000000000000000000000000000081526004016123649190613b60565b60405180910390fd5b600073ffffffffffffffffffffffffffffffffffffffff168573ffffffffffffffffffffffffffffffffffffffff16036123df5760006040517f01a835140000000000000000000000000000000000000000000000000000000081526004016123d69190613b60565b60405180910390fd5b6000806123ec8585612a84565b915091506123fd87878484876129d2565b50505050505050565b6000600660008473ffffffffffffffffffffffffffffffffffffffff1673ffffffffffffffffffffffffffffffffffffffff168152602001908152602001600020905060005b8180549050811015612490578282828154811061246c5761246b614326565b5b9060005260206000200154036124835750506124bb565b808060010191505061244c565b5080829080600181540180825580915050600190039060005260206000200160009091909190915055505b5050565b6124c76121d3565b73ffffffffffffffffffffffffffffffffffffffff166124e56115b8565b73ffffffffffffffffffffffffffffffffffffffff1614612544576125086121d3565b6040517f118cdaa700000000000000000000000000000000000000000000000000000000815260040161253b9190613b60565b60405180910390fd5b565b6000600360009054906101000a900473ffffffffffffffffffffffffffffffffffffffff16905081600360006101000a81548173ffffffffffffffffffffffffffffffffffffffff021916908373ffffffffffffffffffffffffffffffffffffffff1602179055508173ffffffffffffffffffffffffffffffffffffffff168173ffffffffffffffffffffffffffffffffffffffff167f8be0079c531659141344cd1fd0a4f28419497f9722a3daafe3b4186f6b6457e060405160405180910390a35050565b600073ffffffffffffffffffffffffffffffffffffffff168273ffffffffffffffffffffffffffffffffffffffff160361267e5760006040517fced3e1000000000000000000000000000000000000000000000000000000000081526004016126759190613b60565b60405180910390fd5b80600160008573ffffffffffffffffffffffffffffffffffffffff1673ffffffffffffffffffffffffffffffffffffffff16815260200190815260200160002060008473ffffffffffffffffffffffffffffffffffffffff1673ffffffffffffffffffffffffffffffffffffffff16815260200190815260200160002060006101000a81548160ff0219169083151502179055508173ffffffffffffffffffffffffffffffffffffffff168373ffffffffffffffffffffffffffffffffffffffff167f17307eab39ab6107e8899845ad3d59bd9653f200f220920489ca2b5937696c318360405161276f9190613412565b60405180910390a3505050565b600073ffffffffffffffffffffffffffffffffffffffff168473ffffffffffffffffffffffffffffffffffffffff16036127ee5760006040517f57f447ce0000000000000000000000000000000000000000000000000000000081526004016127e59190613b60565b60405180910390fd5b6000806127fb8585612a84565b9150915061280d6000878484876129d2565b505050505050565b60007f01ffc9a7000000000000000000000000000000000000000000000000000000007bffffffffffffffffffffffffffffffffffffffffffffffffffffffff1916827bffffffffffffffffffffffffffffffffffffffffffffffffffffffff1916149050919050565b600080600090507a184f03e93ff9f4daa797ed6e38ed64bf6a1f01000000000000000083106128dd577a184f03e93ff9f4daa797ed6e38ed64bf6a1f01000000000000000083816128d3576128d2614aea565b5b0492506040810190505b6d04ee2d6d415b85acef8100000000831061291a576d04ee2d6d415b85acef810000000083816129105761290f614aea565b5b0492506020810190505b662386f26fc10000831061294957662386f26fc10000838161293f5761293e614aea565b5b0492506010810190505b6305f5e1008310612972576305f5e100838161296857612967614aea565b5b0492506008810190505b612710831061299757612710838161298d5761298c614aea565b5b0492506004810190505b606483106129ba57606483816129b0576129af614aea565b5b0492506002810190505b600a83106129c9576001810190505b80915050919050565b6129de85858585612ab4565b600073ffffffffffffffffffffffffffffffffffffffff168473ffffffffffffffffffffffffffffffffffffffff1614612a7d576000612a1c6121d3565b90506001845103612a6c576000612a3d6000866122e790919063ffffffff16565b90506000612a556000866122e790919063ffffffff16565b9050612a65838989858589612e5c565b5050612a7b565b612a7a818787878787613010565b5b505b5050505050565b60608060405191506001825283602083015260408201905060018152826020820152604081016040529250929050565b8051825114612afe57815181516040517f5b059991000000000000000000000000000000000000000000000000000000008152600401612af5929190613b7b565b60405180910390fd5b6000612b086121d3565b905060005b8351811015612d17576000612b2b82866122e790919063ffffffff16565b90506000612b4283866122e790919063ffffffff16565b9050600073ffffffffffffffffffffffffffffffffffffffff168873ffffffffffffffffffffffffffffffffffffffff1614612c6f57600080600084815260200190815260200160002060008a73ffffffffffffffffffffffffffffffffffffffff1673ffffffffffffffffffffffffffffffffffffffff16815260200190815260200160002054905081811015612c1757888183856040517f03dee4c5000000000000000000000000000000000000000000000000000000008152600401612c0e9493929190614b19565b60405180910390fd5b81810360008085815260200190815260200160002060008b73ffffffffffffffffffffffffffffffffffffffff1673ffffffffffffffffffffffffffffffffffffffff16815260200190815260200160002081905550505b600073ffffffffffffffffffffffffffffffffffffffff168773ffffffffffffffffffffffffffffffffffffffff1614612d0a578060008084815260200190815260200160002060008973ffffffffffffffffffffffffffffffffffffffff1673ffffffffffffffffffffffffffffffffffffffff1681526020019081526020016000206000828254612d0291906144c8565b925050819055505b5050806001019050612b0d565b506001835103612dd6576000612d376000856122e790919063ffffffff16565b90506000612d4f6000856122e790919063ffffffff16565b90508573ffffffffffffffffffffffffffffffffffffffff168773ffffffffffffffffffffffffffffffffffffffff168473ffffffffffffffffffffffffffffffffffffffff167fc3d58168c5ae7397731d063d5bbf3d657854427343f4c083240f7aacaa2d0f628585604051612dc7929190613b7b565b60405180910390a45050612e55565b8373ffffffffffffffffffffffffffffffffffffffff168573ffffffffffffffffffffffffffffffffffffffff168273ffffffffffffffffffffffffffffffffffffffff167f4a39dc06d4c0dbc64b70af90fd698a233a518aa5d07e595d983b8c0526c8f7fb8686604051612e4c929190613896565b60405180910390a45b5050505050565b60008473ffffffffffffffffffffffffffffffffffffffff163b1115613008578373ffffffffffffffffffffffffffffffffffffffff1663f23a6e6187878686866040518663ffffffff1660e01b8152600401612ebd959493929190614bb3565b6020604051808303816000875af1925050508015612ef957506040513d601f19601f82011682018060405250810190612ef69190614c22565b60015b612f7d573d8060008114612f29576040519150601f19603f3d011682016040523d82523d6000602084013e612f2e565b606091505b506000815103612f7557846040517f57f447ce000000000000000000000000000000000000000000000000000000008152600401612f6c9190613b60565b60405180910390fd5b805181602001fd5b63f23a6e6160e01b7bffffffffffffffffffffffffffffffffffffffffffffffffffffffff1916817bffffffffffffffffffffffffffffffffffffffffffffffffffffffff19161461300657846040517f57f447ce000000000000000000000000000000000000000000000000000000008152600401612ffd9190613b60565b60405180910390fd5b505b505050505050565b60008473ffffffffffffffffffffffffffffffffffffffff163b11156131bc578373ffffffffffffffffffffffffffffffffffffffff1663bc197c8187878686866040518663ffffffff1660e01b8152600401613071959493929190614c4f565b6020604051808303816000875af19250505080156130ad57506040513d601f19601f820116820180604052508101906130aa9190614c22565b60015b613131573d80600081146130dd576040519150601f19603f3d011682016040523d82523d6000602084013e6130e2565b606091505b50600081510361312957846040517f57f447ce0000000000000000000000000000000000000000000000000000000081526004016131209190613b60565b60405180910390fd5b805181602001fd5b63bc197c8160e01b7bffffffffffffffffffffffffffffffffffffffffffffffffffffffff1916817bffffffffffffffffffffffffffffffffffffffffffffffffffffffff1916146131ba57846040517f57f447ce0000000000000000000000000000000000000000000000000000000081526004016131b19190613b60565b60405180910390fd5b505b505050505050565b6040518060600160405280600073ffffffffffffffffffffffffffffffffffffffff16815260200160008152602001600081525090565b6000604051905090565b600080fd5b600080fd5b6000819050919050565b6132228161320f565b811461322d57600080fd5b50565b60008135905061323f81613219565b92915050565b60006020828403121561325b5761325a613205565b5b600061326984828501613230565b91505092915050565b600073ffffffffffffffffffffffffffffffffffffffff82169050919050565b600061329d82613272565b9050919050565b6132ad81613292565b82525050565b6132bc8161320f565b82525050565b60006040820190506132d760008301856132a4565b6132e460208301846132b3565b9392505050565b6132f481613292565b81146132ff57600080fd5b50565b600081359050613311816132eb565b92915050565b6000806040838503121561332e5761332d613205565b5b600061333c85828601613302565b925050602061334d85828601613230565b9150509250929050565b600060208201905061336c60008301846132b3565b92915050565b60007fffffffff0000000000000000000000000000000000000000000000000000000082169050919050565b6133a781613372565b81146133b257600080fd5b50565b6000813590506133c48161339e565b92915050565b6000602082840312156133e0576133df613205565b5b60006133ee848285016133b5565b91505092915050565b60008115159050919050565b61340c816133f7565b82525050565b60006020820190506134276000830184613403565b92915050565b600081519050919050565b600082825260208201905092915050565b60005b8381101561346757808201518184015260208101905061344c565b60008484015250505050565b6000601f19601f8301169050919050565b600061348f8261342d565b6134998185613438565b93506134a9818560208601613449565b6134b281613473565b840191505092915050565b600060208201905081810360008301526134d78184613484565b905092915050565b600080fd5b7f4e487b7100000000000000000000000000000000000000000000000000000000600052604160045260246000fd5b61351c82613473565b810181811067ffffffffffffffff8211171561353b5761353a6134e4565b5b80604052505050565b600061354e6131fb565b905061355a8282613513565b919050565b600067ffffffffffffffff82111561357a576135796134e4565b5b602082029050602081019050919050565b600080fd5b60006135a361359e8461355f565b613544565b905080838252602082019050602084028301858111156135c6576135c561358b565b5b835b818110156135ef57806135db8882613230565b8452602084019350506020810190506135c8565b5050509392505050565b600082601f83011261360e5761360d6134df565b5b813561361e848260208601613590565b91505092915050565b600080fd5b600067ffffffffffffffff821115613647576136466134e4565b5b61365082613473565b9050602081019050919050565b82818337600083830152505050565b600061367f61367a8461362c565b613544565b90508281526020810184848401111561369b5761369a613627565b5b6136a684828561365d565b509392505050565b600082601f8301126136c3576136c26134df565b5b81356136d384826020860161366c565b91505092915050565b600080600080600060a086880312156136f8576136f7613205565b5b600061370688828901613302565b955050602061371788828901613302565b945050604086013567ffffffffffffffff8111156137385761373761320a565b5b613744888289016135f9565b935050606086013567ffffffffffffffff8111156137655761376461320a565b5b613771888289016135f9565b925050608086013567ffffffffffffffff8111156137925761379161320a565b5b61379e888289016136ae565b9150509295509295909350565b6000602082840312156137c1576137c0613205565b5b60006137cf84828501613302565b91505092915050565b600081519050919050565b600082825260208201905092915050565b6000819050602082019050919050565b61380d8161320f565b82525050565b600061381f8383613804565b60208301905092915050565b6000602082019050919050565b6000613843826137d8565b61384d81856137e3565b9350613858836137f4565b8060005b838110156138895781516138708882613813565b975061387b8361382b565b92505060018101905061385c565b5085935050505092915050565b600060408201905081810360008301526138b08185613838565b905081810360208301526138c48184613838565b90509392505050565b600067ffffffffffffffff8211156138e8576138e76134e4565b5b602082029050602081019050919050565b600061390c613907846138cd565b613544565b9050808382526020820190506020840283018581111561392f5761392e61358b565b5b835b8181101561395857806139448882613302565b845260208401935050602081019050613931565b5050509392505050565b600082601f830112613977576139766134df565b5b81356139878482602086016138f9565b91505092915050565b600080604083850312156139a7576139a6613205565b5b600083013567ffffffffffffffff8111156139c5576139c461320a565b5b6139d185828601613962565b925050602083013567ffffffffffffffff8111156139f2576139f161320a565b5b6139fe858286016135f9565b9150509250929050565b60006020820190508181036000830152613a228184613838565b905092915050565b613a3381613292565b82525050565b606082016000820151613a4f6000850182613a2a565b506020820151613a626020850182613804565b506040820151613a756040850182613804565b50505050565b6000606082019050613a906000830184613a39565b92915050565b6000606082019050613aab60008301866132a4565b613ab860208301856132b3565b613ac560408301846132b3565b949350505050565b600080600060608486031215613ae657613ae5613205565b5b6000613af486828701613302565b9350506020613b0586828701613230565b9250506040613b1686828701613230565b9150509250925092565b60008060408385031215613b3757613b36613205565b5b6000613b4585828601613230565b9250506020613b5685828601613302565b9150509250929050565b6000602082019050613b7560008301846132a4565b92915050565b6000604082019050613b9060008301856132b3565b613b9d60208301846132b3565b9392505050565b613bad816133f7565b8114613bb857600080fd5b50565b600081359050613bca81613ba4565b92915050565b60008060408385031215613be757613be6613205565b5b6000613bf585828601613302565b9250506020613c0685828601613bbb565b9150509250929050565b600081519050919050565b600082825260208201905092915050565b6000819050602082019050919050565b604082016000820151613c526000850182613a2a565b506020820151613c656020850182613804565b50505050565b6000613c778383613c3c565b60408301905092915050565b6000602082019050919050565b6000613c9b82613c10565b613ca58185613c1b565b9350613cb083613c2c565b8060005b83811015613ce1578151613cc88882613c6b565b9750613cd383613c83565b925050600181019050613cb4565b5085935050505092915050565b60006020820190508181036000830152613d088184613c90565b905092915050565b600080fd5b60008083601f840112613d2b57613d2a6134df565b5b8235905067ffffffffffffffff811115613d4857613d47613d10565b5b602083019150836020820283011115613d6457613d6361358b565b5b9250929050565b60008083601f840112613d8157613d806134df565b5b8235905067ffffffffffffffff811115613d9e57613d9d613d10565b5b602083019150836001820283011115613dba57613db961358b565b5b9250929050565b60008060008060008060008060a0898b031215613de157613de0613205565b5b6000613def8b828c01613302565b9850506020613e008b828c01613302565b975050604089013567ffffffffffffffff811115613e2157613e2061320a565b5b613e2d8b828c01613d15565b9650965050606089013567ffffffffffffffff811115613e5057613e4f61320a565b5b613e5c8b828c01613d15565b9450945050608089013567ffffffffffffffff811115613e7f57613e7e61320a565b5b613e8b8b828c01613d6b565b92509250509295985092959890939650565b613ea681613372565b82525050565b6000602082019050613ec16000830184613e9d565b92915050565b600067ffffffffffffffff821115613ee257613ee16134e4565b5b613eeb82613473565b9050602081019050919050565b6000613f0b613f0684613ec7565b613544565b905082815260208101848484011115613f2757613f26613627565b5b613f3284828561365d565b509392505050565b600082601f830112613f4f57613f4e6134df565b5b8135613f5f848260208601613ef8565b91505092915050565b60008060408385031215613f7f57613f7e613205565b5b600083013567ffffffffffffffff811115613f9d57613f9c61320a565b5b613fa985828601613f3a565b9250506020613fba85828601613302565b9150509250929050565b60008060008060808587031215613fde57613fdd613205565b5b6000613fec87828801613302565b9450506020613ffd87828801613230565b935050604061400e87828801613230565b925050606061401f87828801613230565b91505092959194509250565b6000806040838503121561404257614041613205565b5b600061405085828601613302565b925050602061406185828601613302565b9150509250929050565b60008060008060008060a0878903121561408857614087613205565b5b600061409689828a01613302565b96505060206140a789828a01613302565b95505060406140b889828a01613230565b94505060606140c989828a01613230565b935050608087013567ffffffffffffffff8111156140ea576140e961320a565b5b6140f689828a01613d6b565b92509250509295509295509295565b600080600080600060a0868803121561412157614120613205565b5b600061412f88828901613302565b955050602061414088828901613302565b945050604061415188828901613230565b935050606061416288828901613230565b925050608086013567ffffffffffffffff8111156141835761418261320a565b5b61418f888289016136ae565b9150509295509295909350565b7f4e487b7100000000000000000000000000000000000000000000000000000000600052602260045260246000fd5b600060028204905060018216806141e357607f821691505b6020821081036141f6576141f561419c565b5b50919050565b600081905092915050565b7f68747470733a2f2f6d7970726f6a6563742e636f6d2f6d657461646174612f00600082015250565b600061423d601f836141fc565b915061424882614207565b601f82019050919050565b600061425e8261342d565b61426881856141fc565b9350614278818560208601613449565b80840191505092915050565b7f2e6a736f6e000000000000000000000000000000000000000000000000000000600082015250565b60006142ba6005836141fc565b91506142c582614284565b600582019050919050565b60006142db82614230565b91506142e78284614253565b91506142f2826142ad565b915081905092915050565b600060408201905061431260008301856132a4565b61431f60208301846132a4565b9392505050565b7f4e487b7100000000000000000000000000000000000000000000000000000000600052603260045260246000fd5b7f496e636f72726563742070726963650000000000000000000000000000000000600082015250565b600061438b600f83613438565b915061439682614355565b602082019050919050565b600060208201905081810360008301526143ba8161437e565b9050919050565b7f43616e6e6f742062757920796f7572206f776e204e4654000000000000000000600082015250565b60006143f7601783613438565b9150614402826143c1565b602082019050919050565b60006020820190508181036000830152614426816143ea565b9050919050565b7f4e4654206e6f7420666f722073616c6500000000000000000000000000000000600082015250565b6000614463601083613438565b915061446e8261442d565b602082019050919050565b6000602082019050818103600083015261449281614456565b9050919050565b7f4e487b7100000000000000000000000000000000000000000000000000000000600052601160045260246000fd5b60006144d38261320f565b91506144de8361320f565b92508282019050808211156144f6576144f5614499565b5b92915050565b7f4f6e6c792073656c6c65722063616e2063616e63656c00000000000000000000600082015250565b6000614532601683613438565b915061453d826144fc565b602082019050919050565b6000602082019050818103600083015261456181614525565b9050919050565b7f496e646578206f7574206f6620626f756e647300000000000000000000000000600082015250565b600061459e601383613438565b91506145a982614568565b602082019050919050565b600060208201905081810360008301526145cd81614591565b9050919050565b60008190508160005260206000209050919050565b60006020601f8301049050919050565b600082821b905092915050565b6000600883026146367fffffffffffffffffffffffffffffffffffffffffffffffffffffffffffffffff826145f9565b61464086836145f9565b95508019841693508086168417925050509392505050565b6000819050919050565b600061467d6146786146738461320f565b614658565b61320f565b9050919050565b6000819050919050565b61469783614662565b6146ab6146a382614684565b848454614606565b825550505050565b600090565b6146c06146b3565b6146cb81848461468e565b505050565b5b818110156146ef576146e46000826146b8565b6001810190506146d1565b5050565b601f82111561473457614705816145d4565b61470e846145e9565b8101602085101561471d578190505b614731614729856145e9565b8301826146d0565b50505b505050565b600082821c905092915050565b600061475760001984600802614739565b1980831691505092915050565b60006147708383614746565b9150826002028217905092915050565b6147898261342d565b67ffffffffffffffff8111156147a2576147a16134e4565b5b6147ac82546141cb565b6147b78282856146f3565b600060209050601f8311600181146147ea57600084156147d8578287015190505b6147e28582614764565b86555061484a565b601f1984166147f8866145d4565b60005b82811015614820578489015182556001820191506020850194506020810190506147fb565b8683101561483d5784890151614839601f891682614746565b8355505b6001600288020188555050505b505050505050565b600061485d8261320f565b91507fffffffffffffffffffffffffffffffffffffffffffffffffffffffffffffffff820361488f5761488e614499565b5b600182019050919050565b7f496e73756666696369656e7420746f6b656e7300000000000000000000000000600082015250565b60006148d0601383613438565b91506148db8261489a565b602082019050919050565b600060208201905081810360008301526148ff816148c3565b9050919050565b7f5072696365206d7573742062652067726561746572207468616e203000000000600082015250565b600061493c601c83613438565b915061494782614906565b602082019050919050565b6000602082019050818103600083015261496b8161492f565b9050919050565b7f4e465420616c726561647920666f722073616c65000000000000000000000000600082015250565b60006149a8601483613438565b91506149b382614972565b602082019050919050565b600060208201905081810360008301526149d78161499b565b9050919050565b7f4d7573742073656c6c206174206c65617374203120746f6b656e000000000000600082015250565b6000614a14601a83613438565b9150614a1f826149de565b602082019050919050565b60006020820190508181036000830152614a4381614a07565b9050919050565b7f4e6f7420656e6f75676820746f6b656e73000000000000000000000000000000600082015250565b6000614a80601183613438565b9150614a8b82614a4a565b602082019050919050565b60006020820190508181036000830152614aaf81614a73565b9050919050565b6000614ac18261320f565b9150614acc8361320f565b9250828203905081811115614ae457614ae3614499565b5b92915050565b7f4e487b7100000000000000000000000000000000000000000000000000000000600052601260045260246000fd5b6000608082019050614b2e60008301876132a4565b614b3b60208301866132b3565b614b4860408301856132b3565b614b5560608301846132b3565b95945050505050565b600081519050919050565b600082825260208201905092915050565b6000614b8582614b5e565b614b8f8185614b69565b9350614b9f818560208601613449565b614ba881613473565b840191505092915050565b600060a082019050614bc860008301886132a4565b614bd560208301876132a4565b614be260408301866132b3565b614bef60608301856132b3565b8181036080830152614c018184614b7a565b90509695505050505050565b600081519050614c1c8161339e565b92915050565b600060208284031215614c3857614c37613205565b5b6000614c4684828501614c0d565b91505092915050565b600060a082019050614c6460008301886132a4565b614c7160208301876132a4565b8181036040830152614c838186613838565b90508181036060830152614c978185613838565b90508181036080830152614cab8184614b7a565b9050969550505050505056fea2646970667358221220de96c0f32cbbb4bd3bd499ccf27040f8452711a3fe2469486503ee5dea967bfd64736f6c634300081e003368747470733a2f2f6d7970726f6a6563742e636f6d2f6d657461646174612f7b69647d2e6a736f6e",
  "linkReferences": {},
  "deployedLinkReferences": {}
}