{
  "_format": "hh-sol-artifact-1",
  "contractName": "MetaBingNFT",
  "sourceName": "contracts/MetaBingNFT.sol",
  "abi": [
    {
      "inputs": [
        {
          "internalType": "address",
          "name": "_bingNFTAddress",
          "type": "address"
        }
      ],
      "stateMutability": "nonpayable",
      "type": "constructor"
    },
    {
      "anonymous": false,
      "inputs": [
        {
          "indexed": true,
          "internalType": "address",
          "name": "user",
          "type": "address"
        },
        {
          "indexed": false,
          "internalType": "uint256",
          "name": "tokenId",
          "type": "uint256"
        },
        {
          "indexed": false,
          "internalType": "uint256",
          "name": "amount",
          "type": "uint256"
        },
        {
          "indexed": false,
          "internalType": "string",
          "name": "metadata",
          "type": "string"
        }
      ],
      "name": "NFTMinted",
      "type": "event"
    },
    {
      "inputs": [
        {
          "internalType": "address",
          "name": "sender",
          "type": "address"
        },
        {
          "internalType": "address",
          "name": "receiver",
          "type": "address"
        },
        {
          "internalType": "uint256",
          "name": "nftid",
          "type": "uint256"
        },
        {
          "internalType": "uint256",
          "name": "price",
          "type": "uint256"
        }
      ],
      "name": "BuyNFT",
      "outputs": [],
      "stateMutability": "nonpayable",
      "type": "function"
    },
    {
      "inputs": [
        {
          "internalType": "address",
          "name": "sender",
          "type": "address"
        },
        {
          "internalType": "uint256",
          "name": "nftid",
          "type": "uint256"
        },
        {
          "internalType": "uint256",
          "name": "token",
          "type": "uint256"
        },
        {
          "internalType": "uint256",
          "name": "price",
          "type": "uint256"
        }
      ],
      "name": "SellNFT",
      "outputs": [],
      "stateMutability": "nonpayable",
      "type": "function"
    },
    {
      "inputs": [],
      "name": "bingNFT",
      "outputs": [
        {
          "internalType": "contract BingNFT",
          "name": "",
          "type": "address"
        }
      ],
      "stateMutability": "view",
      "type": "function"
    },
    {
      "inputs": [
        {
          "internalType": "address",
          "name": "sender",
          "type": "address"
        },
        {
          "internalType": "uint256",
          "name": "nftid",
          "type": "uint256"
        }
      ],
      "name": "cancelSale",
      "outputs": [],
      "stateMutability": "nonpayable",
      "type": "function"
    },
    {
      "inputs": [
        {
          "internalType": "address",
          "name": "user",
          "type": "address"
        }
      ],
      "name": "getAllTokenBalances",
      "outputs": [
        {
          "internalType": "uint256[]",
          "name": "tokenIds",
          "type": "uint256[]"
        },
        {
          "internalType": "uint256[]",
          "name": "balances",
          "type": "uint256[]"
        }
      ],
      "stateMutability": "view",
      "type": "function"
    },
    {
      "inputs": [],
      "name": "getContractInfo",
      "outputs": [
        {
          "internalType": "address",
          "name": "nftContract",
          "type": "address"
        },
        {
          "internalType": "address",
          "name": "contractOwner",
          "type": "address"
        }
      ],
      "stateMutability": "view",
      "type": "function"
    },
    {
      "inputs": [
        {
          "internalType": "address",
          "name": "user",
          "type": "address"
        },
        {
          "internalType": "uint256",
          "name": "tknId",
          "type": "uint256"
        }
      ],
      "name": "getCurrentBalance",
      "outputs": [
        {
          "internalType": "uint256",
          "name": "",
          "type": "uint256"
        }
      ],
      "stateMutability": "view",
      "type": "function"
    },
    {
      "inputs": [
        {
          "internalType": "address",
          "name": "user",
          "type": "address"
        }
      ],
      "name": "getMintedTokens",
      "outputs": [
        {
          "internalType": "uint256[]",
          "name": "tokenIds",
          "type": "uint256[]"
        },
        {
          "internalType": "uint256[]",
          "name": "amounts",
          "type": "uint256[]"
        }
      ],
      "stateMutability": "view",
      "type": "function"
    },
    {
      "inputs": [
        {
          "internalType": "address",
          "name": "user",
          "type": "address"
        },
        {
          "internalType": "uint256",
          "name": "index",
          "type": "uint256"
        }
      ],
      "name": "getOwnerTokenAtIndex",
      "outputs": [
        {
          "internalType": "uint256",
          "name": "tokenId",
          "type": "uint256"
        },
        {
          "internalType": "uint256",
          "name": "amount",
          "type": "uint256"
        }
      ],
      "stateMutability": "view",
      "type": "function"
    },
    {
      "inputs": [
        {
          "internalType": "address",
          "name": "user",
          "type": "address"
        }
      ],
      "name": "getOwnerTokenCount",
      "outputs": [
        {
          "internalType": "uint256",
          "name": "",
          "type": "uint256"
        }
      ],
      "stateMutability": "view",
      "type": "function"
    },
    {
      "inputs": [
        {
          "internalType": "address",
          "name": "sender",
          "type": "address"
        },
        {
          "internalType": "uint256",
          "name": "item",
          "type": "uint256"
        }
      ],
      "name": "getall",
      "outputs": [
        {
          "components": [
            {
              "internalType": "address",
              "name": "seller",
              "type": "address"
            },
            {
              "internalType": "uint256",
              "name": "token",
              "type": "uint256"
            },
            {
              "internalType": "uint256",
              "name": "price",
              "type": "uint256"
            }
          ],
          "internalType": "struct BingNFT.Sellstake",
          "name": "",
          "type": "tuple"
        }
      ],
      "stateMutability": "view",
      "type": "function"
    },
    {
      "inputs": [],
      "name": "owner",
      "outputs": [
        {
          "internalType": "address",
          "name": "",
          "type": "address"
        }
      ],
      "stateMutability": "view",
      "type": "function"
    },
    {
      "inputs": [
        {
          "internalType": "string",
          "name": "newURI",
          "type": "string"
        },
        {
          "internalType": "address",
          "name": "sender",
          "type": "address"
        }
      ],
      "name": "setTokenURI",
      "outputs": [],
      "stateMutability": "nonpayable",
      "type": "function"
    },
    {
      "inputs": [
        {
          "internalType": "string",
          "name": "newuri",
          "type": "string"
        }
      ],
      "name": "settokenURI",
      "outputs": [],
      "stateMutability": "nonpayable",
      "type": "function"
    },
    {
      "inputs": [
        {
          "internalType": "address",
          "name": "newOwner",
          "type": "address"
        }
      ],
      "name": "transferOwnership",
      "outputs": [],
      "stateMutability": "nonpayable",
      "type": "function"
    },
    {
      "inputs": [
        {
          "internalType": "uint256",
          "name": "tokenid",
          "type": "uint256"
        }
      ],
      "name": "uri",
      "outputs": [
        {
          "internalType": "string",
          "name": "",
          "type": "string"
        }
      ],
      "stateMutability": "view",
      "type": "function"
    },
    {
      "inputs": [
        {
          "internalType": "address",
          "name": "user",
          "type": "address"
        }
      ],
      "name": "userTokens",
      "outputs": [
        {
          "internalType": "uint256[]",
          "name": "",
          "type": "uint256[]"
        }
      ],
      "stateMutability": "view",
      "type": "function"
    },
    {
      "stateMutability": "payable",
      "type": "receive"
    }
  ],
  "bytecode": "0x608060405234801561001057600080fd5b50604051611d35380380611d358339818101604052810190610032919061011c565b806000806101000a81548173ffffffffffffffffffffffffffffffffffffffff021916908373ffffffffffffffffffffffffffffffffffffffff16021790555033600160006101000a81548173ffffffffffffffffffffffffffffffffffffffff021916908373ffffffffffffffffffffffffffffffffffffffff16021790555050610149565b600080fd5b600073ffffffffffffffffffffffffffffffffffffffff82169050919050565b60006100e9826100be565b9050919050565b6100f9816100de565b811461010457600080fd5b50565b600081519050610116816100f0565b92915050565b600060208284031215610132576101316100b9565b5b600061014084828501610107565b91505092915050565b611bdd806101586000396000f3fe6080604052600436106101025760003560e01c80637cc1f86711610095578063d50bcc7111610064578063d50bcc711461037c578063d80a08da146103b9578063e3567774146103e2578063ed498fa81461040b578063f2fde38b1461044857610109565b80637cc1f867146102be578063823d7af5146102ea5780638da5cb5b146103135780639145d1331461033e57610109565b8063434a49a1116100d1578063434a49a1146101c85780635491a99f14610206578063681bec6c1461024357806375388a0f1461028157610109565b80630294c7851461010e5780630e89341c1461013957806316f3a95b1461017657806323a776411461019f57610109565b3661010957005b600080fd5b34801561011a57600080fd5b50610123610471565b6040516101309190610f6e565b60405180910390f35b34801561014557600080fd5b50610160600480360381019061015b9190610fd3565b610495565b60405161016d9190611090565b60405180910390f35b34801561018257600080fd5b5061019d600480360381019061019891906110f0565b61053d565b005b3480156101ab57600080fd5b506101c660048036038101906101c19190611265565b6105ce565b005b3480156101d457600080fd5b506101ef60048036038101906101ea91906112ae565b610670565b6040516101fd929190611399565b60405180910390f35b34801561021257600080fd5b5061022d600480360381019061022891906110f0565b61071b565b60405161023a9190611421565b60405180910390f35b34801561024f57600080fd5b5061026a600480360381019061026591906112ae565b6107c7565b604051610278929190611399565b60405180910390f35b34801561028d57600080fd5b506102a860048036038101906102a391906110f0565b610872565b6040516102b5919061144b565b60405180910390f35b3480156102ca57600080fd5b506102d3610919565b6040516102e1929190611475565b60405180910390f35b3480156102f657600080fd5b50610311600480360381019061030c919061149e565b610968565b005b34801561031f57600080fd5b50610328610a9b565b60405161033591906114fa565b60405180910390f35b34801561034a57600080fd5b50610365600480360381019061036091906110f0565b610ac1565b604051610373929190611515565b60405180910390f35b34801561038857600080fd5b506103a3600480360381019061039e91906112ae565b610b6a565b6040516103b0919061144b565b60405180910390f35b3480156103c557600080fd5b506103e060048036038101906103db919061153e565b610c0e565b005b3480156103ee57600080fd5b50610409600480360381019061040491906115a5565b610ca5565b005b34801561041757600080fd5b50610432600480360381019061042d91906112ae565b610d3c565b60405161043f919061160c565b60405180910390f35b34801561045457600080fd5b5061046f600480360381019061046a91906112ae565b610de4565b005b60008054906101000a900473ffffffffffffffffffffffffffffffffffffffff1681565b606060008054906101000a900473ffffffffffffffffffffffffffffffffffffffff1673ffffffffffffffffffffffffffffffffffffffff16630e89341c836040518263ffffffff1660e01b81526004016104f0919061144b565b600060405180830381865afa15801561050d573d6000803e3d6000fd5b505050506040513d6000823e3d601f19601f82011682018060405250810190610536919061169e565b9050919050565b60008054906101000a900473ffffffffffffffffffffffffffffffffffffffff1673ffffffffffffffffffffffffffffffffffffffff1663813d2ad882846040518363ffffffff1660e01b81526004016105989291906116e7565b600060405180830381600087803b1580156105b257600080fd5b505af11580156105c6573d6000803e3d6000fd5b505050505050565b60008054906101000a900473ffffffffffffffffffffffffffffffffffffffff1673ffffffffffffffffffffffffffffffffffffffff1663cc0a48d482336040518363ffffffff1660e01b8152600401610629929190611710565b6020604051808303816000875af1158015610648573d6000803e3d6000fd5b505050506040513d601f19601f8201168201806040525081019061066c9190611755565b5050565b60608060008054906101000a900473ffffffffffffffffffffffffffffffffffffffff1673ffffffffffffffffffffffffffffffffffffffff1663434a49a1846040518263ffffffff1660e01b81526004016106cc91906114fa565b600060405180830381865afa1580156106e9573d6000803e3d6000fd5b505050506040513d6000823e3d601f19601f82011682018060405250810190610712919061184a565b91509150915091565b610723610eb8565b60008054906101000a900473ffffffffffffffffffffffffffffffffffffffff1673ffffffffffffffffffffffffffffffffffffffff16635491a99f84846040518363ffffffff1660e01b815260040161077e9291906118c2565b606060405180830381865afa15801561079b573d6000803e3d6000fd5b505050506040513d601f19601f820116820180604052508101906107bf9190611969565b905092915050565b60608060008054906101000a900473ffffffffffffffffffffffffffffffffffffffff1673ffffffffffffffffffffffffffffffffffffffff1663681bec6c846040518263ffffffff1660e01b815260040161082391906114fa565b600060405180830381865afa158015610840573d6000803e3d6000fd5b505050506040513d6000823e3d601f19601f82011682018060405250810190610869919061184a565b91509150915091565b60008060009054906101000a900473ffffffffffffffffffffffffffffffffffffffff1673ffffffffffffffffffffffffffffffffffffffff166375388a0f84846040518363ffffffff1660e01b81526004016108d09291906118c2565b602060405180830381865afa1580156108ed573d6000803e3d6000fd5b505050506040513d601f19601f820116820180604052508101906109119190611755565b905092915050565b60008060008054906101000a900473ffffffffffffffffffffffffffffffffffffffff16600160009054906101000a900473ffffffffffffffffffffffffffffffffffffffff16915091509091565b600160009054906101000a900473ffffffffffffffffffffffffffffffffffffffff1673ffffffffffffffffffffffffffffffffffffffff163373ffffffffffffffffffffffffffffffffffffffff16146109f8576040517f08c379a00000000000000000000000000000000000000000000000000000000081526004016109ef906119e2565b60405180910390fd5b60008054906101000a900473ffffffffffffffffffffffffffffffffffffffff1673ffffffffffffffffffffffffffffffffffffffff1663cc0a48d483836040518363ffffffff1660e01b8152600401610a53929190611710565b6020604051808303816000875af1158015610a72573d6000803e3d6000fd5b505050506040513d601f19601f82011682018060405250810190610a969190611755565b505050565b600160009054906101000a900473ffffffffffffffffffffffffffffffffffffffff1681565b60008060008054906101000a900473ffffffffffffffffffffffffffffffffffffffff1673ffffffffffffffffffffffffffffffffffffffff16639145d13385856040518363ffffffff1660e01b8152600401610b1f9291906118c2565b6040805180830381865afa158015610b3b573d6000803e3d6000fd5b505050506040513d601f19601f82011682018060405250810190610b5f9190611a02565b915091509250929050565b60008060009054906101000a900473ffffffffffffffffffffffffffffffffffffffff1673ffffffffffffffffffffffffffffffffffffffff1663d50bcc71836040518263ffffffff1660e01b8152600401610bc691906114fa565b602060405180830381865afa158015610be3573d6000803e3d6000fd5b505050506040513d601f19601f82011682018060405250810190610c079190611755565b9050919050565b60008054906101000a900473ffffffffffffffffffffffffffffffffffffffff1673ffffffffffffffffffffffffffffffffffffffff1663d80a08da858585856040518563ffffffff1660e01b8152600401610c6d9493929190611a42565b600060405180830381600087803b158015610c8757600080fd5b505af1158015610c9b573d6000803e3d6000fd5b5050505050505050565b60008054906101000a900473ffffffffffffffffffffffffffffffffffffffff1673ffffffffffffffffffffffffffffffffffffffff1663e3567774858585856040518563ffffffff1660e01b8152600401610d049493929190611a87565b600060405180830381600087803b158015610d1e57600080fd5b505af1158015610d32573d6000803e3d6000fd5b5050505050505050565b606060008054906101000a900473ffffffffffffffffffffffffffffffffffffffff1673ffffffffffffffffffffffffffffffffffffffff1663ed498fa8836040518263ffffffff1660e01b8152600401610d9791906114fa565b600060405180830381865afa158015610db4573d6000803e3d6000fd5b505050506040513d6000823e3d601f19601f82011682018060405250810190610ddd9190611acc565b9050919050565b600160009054906101000a900473ffffffffffffffffffffffffffffffffffffffff1673ffffffffffffffffffffffffffffffffffffffff163373ffffffffffffffffffffffffffffffffffffffff1614610e74576040517f08c379a0000000000000000000000000000000000000000000000000000000008152600401610e6b90611b87565b60405180910390fd5b80600160006101000a81548173ffffffffffffffffffffffffffffffffffffffff021916908373ffffffffffffffffffffffffffffffffffffffff16021790555050565b6040518060600160405280600073ffffffffffffffffffffffffffffffffffffffff16815260200160008152602001600081525090565b600073ffffffffffffffffffffffffffffffffffffffff82169050919050565b6000819050919050565b6000610f34610f2f610f2a84610eef565b610f0f565b610eef565b9050919050565b6000610f4682610f19565b9050919050565b6000610f5882610f3b565b9050919050565b610f6881610f4d565b82525050565b6000602082019050610f836000830184610f5f565b92915050565b6000604051905090565b600080fd5b600080fd5b6000819050919050565b610fb081610f9d565b8114610fbb57600080fd5b50565b600081359050610fcd81610fa7565b92915050565b600060208284031215610fe957610fe8610f93565b5b6000610ff784828501610fbe565b91505092915050565b600081519050919050565b600082825260208201905092915050565b60005b8381101561103a57808201518184015260208101905061101f565b60008484015250505050565b6000601f19601f8301169050919050565b600061106282611000565b61106c818561100b565b935061107c81856020860161101c565b61108581611046565b840191505092915050565b600060208201905081810360008301526110aa8184611057565b905092915050565b60006110bd82610eef565b9050919050565b6110cd816110b2565b81146110d857600080fd5b50565b6000813590506110ea816110c4565b92915050565b6000806040838503121561110757611106610f93565b5b6000611115858286016110db565b925050602061112685828601610fbe565b9150509250929050565b600080fd5b600080fd5b7f4e487b7100000000000000000000000000000000000000000000000000000000600052604160045260246000fd5b61117282611046565b810181811067ffffffffffffffff821117156111915761119061113a565b5b80604052505050565b60006111a4610f89565b90506111b08282611169565b919050565b600067ffffffffffffffff8211156111d0576111cf61113a565b5b6111d982611046565b9050602081019050919050565b82818337600083830152505050565b6000611208611203846111b5565b61119a565b90508281526020810184848401111561122457611223611135565b5b61122f8482856111e6565b509392505050565b600082601f83011261124c5761124b611130565b5b813561125c8482602086016111f5565b91505092915050565b60006020828403121561127b5761127a610f93565b5b600082013567ffffffffffffffff81111561129957611298610f98565b5b6112a584828501611237565b91505092915050565b6000602082840312156112c4576112c3610f93565b5b60006112d2848285016110db565b91505092915050565b600081519050919050565b600082825260208201905092915050565b6000819050602082019050919050565b61131081610f9d565b82525050565b60006113228383611307565b60208301905092915050565b6000602082019050919050565b6000611346826112db565b61135081856112e6565b935061135b836112f7565b8060005b8381101561138c5781516113738882611316565b975061137e8361132e565b92505060018101905061135f565b5085935050505092915050565b600060408201905081810360008301526113b3818561133b565b905081810360208301526113c7818461133b565b90509392505050565b6113d9816110b2565b82525050565b6060820160008201516113f560008501826113d0565b5060208201516114086020850182611307565b50604082015161141b6040850182611307565b50505050565b600060608201905061143660008301846113df565b92915050565b61144581610f9d565b82525050565b6000602082019050611460600083018461143c565b92915050565b61146f816110b2565b82525050565b600060408201905061148a6000830185611466565b6114976020830184611466565b9392505050565b600080604083850312156114b5576114b4610f93565b5b600083013567ffffffffffffffff8111156114d3576114d2610f98565b5b6114df85828601611237565b92505060206114f0858286016110db565b9150509250929050565b600060208201905061150f6000830184611466565b92915050565b600060408201905061152a600083018561143c565b611537602083018461143c565b9392505050565b6000806000806080858703121561155857611557610f93565b5b6000611566878288016110db565b945050602061157787828801610fbe565b935050604061158887828801610fbe565b925050606061159987828801610fbe565b91505092959194509250565b600080600080608085870312156115bf576115be610f93565b5b60006115cd878288016110db565b94505060206115de878288016110db565b93505060406115ef87828801610fbe565b925050606061160087828801610fbe565b91505092959194509250565b60006020820190508181036000830152611626818461133b565b905092915050565b600061164161163c846111b5565b61119a565b90508281526020810184848401111561165d5761165c611135565b5b61166884828561101c565b509392505050565b600082601f83011261168557611684611130565b5b815161169584826020860161162e565b91505092915050565b6000602082840312156116b4576116b3610f93565b5b600082015167ffffffffffffffff8111156116d2576116d1610f98565b5b6116de84828501611670565b91505092915050565b60006040820190506116fc600083018561143c565b6117096020830184611466565b9392505050565b6000604082019050818103600083015261172a8185611057565b90506117396020830184611466565b9392505050565b60008151905061174f81610fa7565b92915050565b60006020828403121561176b5761176a610f93565b5b600061177984828501611740565b91505092915050565b600067ffffffffffffffff82111561179d5761179c61113a565b5b602082029050602081019050919050565b600080fd5b60006117c66117c184611782565b61119a565b905080838252602082019050602084028301858111156117e9576117e86117ae565b5b835b8181101561181257806117fe8882611740565b8452602084019350506020810190506117eb565b5050509392505050565b600082601f83011261183157611830611130565b5b81516118418482602086016117b3565b91505092915050565b6000806040838503121561186157611860610f93565b5b600083015167ffffffffffffffff81111561187f5761187e610f98565b5b61188b8582860161181c565b925050602083015167ffffffffffffffff8111156118ac576118ab610f98565b5b6118b88582860161181c565b9150509250929050565b60006040820190506118d76000830185611466565b6118e4602083018461143c565b9392505050565b600080fd5b6000815190506118ff816110c4565b92915050565b60006060828403121561191b5761191a6118eb565b5b611925606061119a565b90506000611935848285016118f0565b600083015250602061194984828501611740565b602083015250604061195d84828501611740565b60408301525092915050565b60006060828403121561197f5761197e610f93565b5b600061198d84828501611905565b91505092915050565b7f4f6e6c79206f776e65722063616e207365742055524900000000000000000000600082015250565b60006119cc60168361100b565b91506119d782611996565b602082019050919050565b600060208201905081810360008301526119fb816119bf565b9050919050565b60008060408385031215611a1957611a18610f93565b5b6000611a2785828601611740565b9250506020611a3885828601611740565b9150509250929050565b6000608082019050611a576000830187611466565b611a64602083018661143c565b611a71604083018561143c565b611a7e606083018461143c565b95945050505050565b6000608082019050611a9c6000830187611466565b611aa96020830186611466565b611ab6604083018561143c565b611ac3606083018461143c565b95945050505050565b600060208284031215611ae257611ae1610f93565b5b600082015167ffffffffffffffff811115611b0057611aff610f98565b5b611b0c8482850161181c565b91505092915050565b7f4f6e6c79206f776e65722063616e207472616e73666572206f776e657273686960008201527f7000000000000000000000000000000000000000000000000000000000000000602082015250565b6000611b7160218361100b565b9150611b7c82611b15565b604082019050919050565b60006020820190508181036000830152611ba081611b64565b905091905056fea2646970667358221220262a4331de7c675b132a83c3d2316084fd141b829e7ffc0b9f708adf3bb8918264736f6c634300081e0033",
  "linkReferences": {},
  "deployedLinkReferences": {}
}