{
  "_format": "hh-sol-artifact-1",
  "contractName": "BingNFT",
  "sourceName": "contracts/BingNFt.sol",
  "abi": [
    {
      "inputs": [],
      "stateMutability": "nonpayable",
      "type": "constructor"
    },
    {
      "inputs": [
        {
          "internalType": "address",
          "name": "sender",
          "type": "address"
        },
        {
          "internalType": "uint256",
          "name": "balance",
          "type": "uint256"
        },
        {
          "internalType": "uint256",
          "name": "needed",
          "type": "uint256"
        },
        {
          "internalType": "uint256",
          "name": "tokenId",
          "type": "uint256"
        }
      ],
      "name": "ERC1155InsufficientBalance",
      "type": "error"
    },
    {
      "inputs": [
        {
          "internalType": "address",
          "name": "approver",
          "type": "address"
        }
      ],
      "name": "ERC1155InvalidApprover",
      "type": "error"
    },
    {
      "inputs": [
        {
          "internalType": "uint256",
          "name": "idsLength",
          "type": "uint256"
        },
        {
          "internalType": "uint256",
          "name": "valuesLength",
          "type": "uint256"
        }
      ],
      "name": "ERC1155InvalidArrayLength",
      "type": "error"
    },
    {
      "inputs": [
        {
          "internalType": "address",
          "name": "operator",
          "type": "address"
        }
      ],
      "name": "ERC1155InvalidOperator",
      "type": "error"
    },
    {
      "inputs": [
        {
          "internalType": "address",
          "name": "receiver",
          "type": "address"
        }
      ],
      "name": "ERC1155InvalidReceiver",
      "type": "error"
    },
    {
      "inputs": [
        {
          "internalType": "address",
          "name": "sender",
          "type": "address"
        }
      ],
      "name": "ERC1155InvalidSender",
      "type": "error"
    },
    {
      "inputs": [
        {
          "internalType": "address",
          "name": "operator",
          "type": "address"
        },
        {
          "internalType": "address",
          "name": "owner",
          "type": "address"
        }
      ],
      "name": "ERC1155MissingApprovalForAll",
      "type": "error"
    },
    {
      "inputs": [
        {
          "internalType": "address",
          "name": "owner",
          "type": "address"
        }
      ],
      "name": "OwnableInvalidOwner",
      "type": "error"
    },
    {
      "inputs": [
        {
          "internalType": "address",
          "name": "account",
          "type": "address"
        }
      ],
      "name": "OwnableUnauthorizedAccount",
      "type": "error"
    },
    {
      "anonymous": false,
      "inputs": [
        {
          "indexed": true,
          "internalType": "address",
          "name": "account",
          "type": "address"
        },
        {
          "indexed": true,
          "internalType": "address",
          "name": "operator",
          "type": "address"
        },
        {
          "indexed": false,
          "internalType": "bool",
          "name": "approved",
          "type": "bool"
        }
      ],
      "name": "ApprovalForAll",
      "type": "event"
    },
    {
      "anonymous": false,
      "inputs": [
        {
          "indexed": true,
          "internalType": "address",
          "name": "previousOwner",
          "type": "address"
        },
        {
          "indexed": true,
          "internalType": "address",
          "name": "newOwner",
          "type": "address"
        }
      ],
      "name": "OwnershipTransferred",
      "type": "event"
    },
    {
      "anonymous": false,
      "inputs": [
        {
          "indexed": true,
          "internalType": "address",
          "name": "operator",
          "type": "address"
        },
        {
          "indexed": true,
          "internalType": "address",
          "name": "from",
          "type": "address"
        },
        {
          "indexed": true,
          "internalType": "address",
          "name": "to",
          "type": "address"
        },
        {
          "indexed": false,
          "internalType": "uint256[]",
          "name": "ids",
          "type": "uint256[]"
        },
        {
          "indexed": false,
          "internalType": "uint256[]",
          "name": "values",
          "type": "uint256[]"
        }
      ],
      "name": "TransferBatch",
      "type": "event"
    },
    {
      "anonymous": false,
      "inputs": [
        {
          "indexed": true,
          "internalType": "address",
          "name": "operator",
          "type": "address"
        },
        {
          "indexed": true,
          "internalType": "address",
          "name": "from",
          "type": "address"
        },
        {
          "indexed": true,
          "internalType": "address",
          "name": "to",
          "type": "address"
        },
        {
          "indexed": false,
          "internalType": "uint256",
          "name": "id",
          "type": "uint256"
        },
        {
          "indexed": false,
          "internalType": "uint256",
          "name": "value",
          "type": "uint256"
        }
      ],
      "name": "TransferSingle",
      "type": "event"
    },
    {
      "anonymous": false,
      "inputs": [
        {
          "indexed": false,
          "internalType": "string",
          "name": "value",
          "type": "string"
        },
        {
          "indexed": true,
          "internalType": "uint256",
          "name": "id",
          "type": "uint256"
        }
      ],
      "name": "URI",
      "type": "event"
    },
    {
      "anonymous": false,
      "inputs": [
        {
          "indexed": false,
          "internalType": "address",
          "name": "seller",
          "type": "address"
        },
        {
          "indexed": false,
          "internalType": "uint256",
          "name": "token",
          "type": "uint256"
        },
        {
          "indexed": false,
          "internalType": "uint256",
          "name": "price",
          "type": "uint256"
        }
      ],
      "name": "sellItemLists",
      "type": "event"
    },
    {
      "inputs": [
        {
          "internalType": "address",
          "name": "receiver",
          "type": "address"
        },
        {
          "internalType": "uint256",
          "name": "nftid",
          "type": "uint256"
        },
        {
          "internalType": "uint256",
          "name": "price",
          "type": "uint256"
        }
      ],
      "name": "BuyNFT",
      "outputs": [],
      "stateMutability": "nonpayable",
      "type": "function"
    },
    {
      "inputs": [
        {
          "internalType": "address",
          "name": "sender",
          "type": "address"
        },
        {
          "internalType": "uint256",
          "name": "nftid",
          "type": "uint256"
        },
        {
          "internalType": "uint256",
          "name": "token",
          "type": "uint256"
        },
        {
          "internalType": "uint256",
          "name": "price",
          "type": "uint256"
        }
      ],
      "name": "SellNFT",
      "outputs": [],
      "stateMutability": "nonpayable",
      "type": "function"
    },
    {
      "inputs": [
        {
          "internalType": "uint256",
          "name": "",
          "type": "uint256"
        }
      ],
      "name": "SellNftList",
      "outputs": [
        {
          "internalType": "address",
          "name": "owner",
          "type": "address"
        },
        {
          "internalType": "uint256",
          "name": "nftid",
          "type": "uint256"
        }
      ],
      "stateMutability": "view",
      "type": "function"
    },
    {
      "inputs": [
        {
          "internalType": "address",
          "name": "account",
          "type": "address"
        },
        {
          "internalType": "uint256",
          "name": "id",
          "type": "uint256"
        }
      ],
      "name": "balanceOf",
      "outputs": [
        {
          "internalType": "uint256",
          "name": "",
          "type": "uint256"
        }
      ],
      "stateMutability": "view",
      "type": "function"
    },
    {
      "inputs": [
        {
          "internalType": "address[]",
          "name": "accounts",
          "type": "address[]"
        },
        {
          "internalType": "uint256[]",
          "name": "ids",
          "type": "uint256[]"
        }
      ],
      "name": "balanceOfBatch",
      "outputs": [
        {
          "internalType": "uint256[]",
          "name": "",
          "type": "uint256[]"
        }
      ],
      "stateMutability": "view",
      "type": "function"
    },
    {
      "inputs": [
        {
          "internalType": "uint256",
          "name": "nftid",
          "type": "uint256"
        },
        {
          "internalType": "address",
          "name": "sender",
          "type": "address"
        }
      ],
      "name": "cancelSale",
      "outputs": [],
      "stateMutability": "nonpayable",
      "type": "function"
    },
    {
      "inputs": [],
      "name": "getAllListedNFTIds",
      "outputs": [
        {
          "components": [
            {
              "internalType": "address",
              "name": "owner",
              "type": "address"
            },
            {
              "internalType": "uint256",
              "name": "nftid",
              "type": "uint256"
            }
          ],
          "internalType": "struct BingNFT.SellList[]",
          "name": "",
          "type": "tuple[]"
        }
      ],
      "stateMutability": "view",
      "type": "function"
    },
    {
      "inputs": [
        {
          "internalType": "address",
          "name": "user",
          "type": "address"
        }
      ],
      "name": "getAllTokenBalances",
      "outputs": [
        {
          "internalType": "uint256[]",
          "name": "tokenIds",
          "type": "uint256[]"
        },
        {
          "internalType": "uint256[]",
          "name": "balances",
          "type": "uint256[]"
        }
      ],
      "stateMutability": "view",
      "type": "function"
    },
    {
      "inputs": [
        {
          "internalType": "address",
          "name": "owner",
          "type": "address"
        },
        {
          "internalType": "uint256",
          "name": "nftid",
          "type": "uint256"
        }
      ],
      "name": "getBalance",
      "outputs": [
        {
          "internalType": "uint256",
          "name": "",
          "type": "uint256"
        }
      ],
      "stateMutability": "view",
      "type": "function"
    },
    {
      "inputs": [
        {
          "internalType": "address",
          "name": "user",
          "type": "address"
        },
        {
          "internalType": "uint256",
          "name": "tknId",
          "type": "uint256"
        }
      ],
      "name": "getCurrentBalance",
      "outputs": [
        {
          "internalType": "uint256",
          "name": "",
          "type": "uint256"
        }
      ],
      "stateMutability": "view",
      "type": "function"
    },
    {
      "inputs": [
        {
          "internalType": "address",
          "name": "user",
          "type": "address"
        }
      ],
      "name": "getMintedTokens",
      "outputs": [
        {
          "internalType": "uint256[]",
          "name": "tokenIds",
          "type": "uint256[]"
        },
        {
          "internalType": "uint256[]",
          "name": "amounts",
          "type": "uint256[]"
        }
      ],
      "stateMutability": "view",
      "type": "function"
    },
    {
      "inputs": [
        {
          "internalType": "address",
          "name": "user",
          "type": "address"
        },
        {
          "internalType": "uint256",
          "name": "index",
          "type": "uint256"
        }
      ],
      "name": "getOwnerTokenAtIndex",
      "outputs": [
        {
          "internalType": "uint256",
          "name": "tokenid",
          "type": "uint256"
        },
        {
          "internalType": "uint256",
          "name": "amount",
          "type": "uint256"
        }
      ],
      "stateMutability": "view",
      "type": "function"
    },
    {
      "inputs": [
        {
          "internalType": "address",
          "name": "user",
          "type": "address"
        }
      ],
      "name": "getOwnerTokenCount",
      "outputs": [
        {
          "internalType": "uint256",
          "name": "",
          "type": "uint256"
        }
      ],
      "stateMutability": "view",
      "type": "function"
    },
    {
      "inputs": [
        {
          "internalType": "address",
          "name": "sender",
          "type": "address"
        },
        {
          "internalType": "uint256",
          "name": "item",
          "type": "uint256"
        }
      ],
      "name": "getall",
      "outputs": [
        {
          "components": [
            {
              "internalType": "address",
              "name": "seller",
              "type": "address"
            },
            {
              "internalType": "uint256",
              "name": "token",
              "type": "uint256"
            },
            {
              "internalType": "uint256",
              "name": "price",
              "type": "uint256"
            }
          ],
          "internalType": "struct BingNFT.Sellstake",
          "name": "",
          "type": "tuple"
        }
      ],
      "stateMutability": "view",
      "type": "function"
    },
    {
      "inputs": [
        {
          "internalType": "address",
          "name": "account",
          "type": "address"
        },
        {
          "internalType": "address",
          "name": "operator",
          "type": "address"
        }
      ],
      "name": "isApprovedForAll",
      "outputs": [
        {
          "internalType": "bool",
          "name": "",
          "type": "bool"
        }
      ],
      "stateMutability": "view",
      "type": "function"
    },
    {
      "inputs": [
        {
          "internalType": "address",
          "name": "",
          "type": "address"
        },
        {
          "internalType": "uint256",
          "name": "",
          "type": "uint256"
        }
      ],
      "name": "items",
      "outputs": [
        {
          "internalType": "address",
          "name": "seller",
          "type": "address"
        },
        {
          "internalType": "uint256",
          "name": "token",
          "type": "uint256"
        },
        {
          "internalType": "uint256",
          "name": "price",
          "type": "uint256"
        }
      ],
      "stateMutability": "view",
      "type": "function"
    },
    {
      "inputs": [
        {
          "internalType": "address",
          "name": "operator",
          "type": "address"
        },
        {
          "internalType": "address",
          "name": "from",
          "type": "address"
        },
        {
          "internalType": "uint256[]",
          "name": "ids",
          "type": "uint256[]"
        },
        {
          "internalType": "uint256[]",
          "name": "values",
          "type": "uint256[]"
        },
        {
          "internalType": "bytes",
          "name": "data",
          "type": "bytes"
        }
      ],
      "name": "onERC1155BatchReceived",
      "outputs": [
        {
          "internalType": "bytes4",
          "name": "",
          "type": "bytes4"
        }
      ],
      "stateMutability": "nonpayable",
      "type": "function"
    },
    {
      "inputs": [
        {
          "internalType": "address",
          "name": "operator",
          "type": "address"
        },
        {
          "internalType": "address",
          "name": "from",
          "type": "address"
        },
        {
          "internalType": "uint256",
          "name": "id",
          "type": "uint256"
        },
        {
          "internalType": "uint256",
          "name": "value",
          "type": "uint256"
        },
        {
          "internalType": "bytes",
          "name": "data",
          "type": "bytes"
        }
      ],
      "name": "onERC1155Received",
      "outputs": [
        {
          "internalType": "bytes4",
          "name": "",
          "type": "bytes4"
        }
      ],
      "stateMutability": "nonpayable",
      "type": "function"
    },
    {
      "inputs": [],
      "name": "owner",
      "outputs": [
        {
          "internalType": "address",
          "name": "",
          "type": "address"
        }
      ],
      "stateMutability": "view",
      "type": "function"
    },
    {
      "inputs": [],
      "name": "renounceOwnership",
      "outputs": [],
      "stateMutability": "nonpayable",
      "type": "function"
    },
    {
      "inputs": [
        {
          "internalType": "address",
          "name": "from",
          "type": "address"
        },
        {
          "internalType": "address",
          "name": "to",
          "type": "address"
        },
        {
          "internalType": "uint256[]",
          "name": "ids",
          "type": "uint256[]"
        },
        {
          "internalType": "uint256[]",
          "name": "values",
          "type": "uint256[]"
        },
        {
          "internalType": "bytes",
          "name": "data",
          "type": "bytes"
        }
      ],
      "name": "safeBatchTransferFrom",
      "outputs": [],
      "stateMutability": "nonpayable",
      "type": "function"
    },
    {
      "inputs": [
        {
          "internalType": "address",
          "name": "from",
          "type": "address"
        },
        {
          "internalType": "address",
          "name": "to",
          "type": "address"
        },
        {
          "internalType": "uint256",
          "name": "id",
          "type": "uint256"
        },
        {
          "internalType": "uint256",
          "name": "value",
          "type": "uint256"
        },
        {
          "internalType": "bytes",
          "name": "data",
          "type": "bytes"
        }
      ],
      "name": "safeTransferFrom",
      "outputs": [],
      "stateMutability": "nonpayable",
      "type": "function"
    },
    {
      "inputs": [
        {
          "internalType": "address",
          "name": "operator",
          "type": "address"
        },
        {
          "internalType": "bool",
          "name": "approved",
          "type": "bool"
        }
      ],
      "name": "setApprovalForAll",
      "outputs": [],
      "stateMutability": "nonpayable",
      "type": "function"
    },
    {
      "inputs": [
        {
          "internalType": "string",
          "name": "newuri",
          "type": "string"
        },
        {
          "internalType": "address",
          "name": "sender",
          "type": "address"
        }
      ],
      "name": "settokenURI",
      "outputs": [
        {
          "internalType": "uint256",
          "name": "",
          "type": "uint256"
        }
      ],
      "stateMutability": "nonpayable",
      "type": "function"
    },
    {
      "inputs": [
        {
          "internalType": "bytes4",
          "name": "interfaceId",
          "type": "bytes4"
        }
      ],
      "name": "supportsInterface",
      "outputs": [
        {
          "internalType": "bool",
          "name": "",
          "type": "bool"
        }
      ],
      "stateMutability": "view",
      "type": "function"
    },
    {
      "inputs": [
        {
          "internalType": "address",
          "name": "newOwner",
          "type": "address"
        }
      ],
      "name": "transferOwnership",
      "outputs": [],
      "stateMutability": "nonpayable",
      "type": "function"
    },
    {
      "inputs": [
        {
          "internalType": "uint256",
          "name": "tokenid",
          "type": "uint256"
        }
      ],
      "name": "uri",
      "outputs": [
        {
          "internalType": "string",
          "name": "",
          "type": "string"
        }
      ],
      "stateMutability": "view",
      "type": "function"
    },
    {
      "inputs": [
        {
          "internalType": "address",
          "name": "user",
          "type": "address"
        }
      ],
      "name": "userTokens",
      "outputs": [
        {
          "internalType": "uint256[]",
          "name": "",
          "type": "uint256[]"
        }
      ],
      "stateMutability": "view",
      "type": "function"
    }
  ],
  "bytecode": "0x60806040526040518060600160405280602881526020016152c460289139600a908161002b9190610485565b5034801561003857600080fd5b5033600a80546100479061029e565b80601f01602080910402602001604051908101604052809291908181526020018280546100739061029e565b80156100c05780601f10610095576101008083540402835291602001916100c0565b820191906000526020600020905b8154815290600101906020018083116100a357829003601f168201915b50505050506100d48161015c60201b60201c565b50600073ffffffffffffffffffffffffffffffffffffffff168173ffffffffffffffffffffffffffffffffffffffff16036101475760006040517f1e4fbdf700000000000000000000000000000000000000000000000000000000815260040161013e9190610598565b60405180910390fd5b6101568161016f60201b60201c565b506105b3565b806002908161016b9190610485565b5050565b6000600360009054906101000a900473ffffffffffffffffffffffffffffffffffffffff16905081600360006101000a81548173ffffffffffffffffffffffffffffffffffffffff021916908373ffffffffffffffffffffffffffffffffffffffff1602179055508173ffffffffffffffffffffffffffffffffffffffff168173ffffffffffffffffffffffffffffffffffffffff167f8be0079c531659141344cd1fd0a4f28419497f9722a3daafe3b4186f6b6457e060405160405180910390a35050565b600081519050919050565b7f4e487b7100000000000000000000000000000000000000000000000000000000600052604160045260246000fd5b7f4e487b7100000000000000000000000000000000000000000000000000000000600052602260045260246000fd5b600060028204905060018216806102b657607f821691505b6020821081036102c9576102c861026f565b5b50919050565b60008190508160005260206000209050919050565b60006020601f8301049050919050565b600082821b905092915050565b6000600883026103317fffffffffffffffffffffffffffffffffffffffffffffffffffffffffffffffff826102f4565b61033b86836102f4565b95508019841693508086168417925050509392505050565b6000819050919050565b6000819050919050565b600061038261037d61037884610353565b61035d565b610353565b9050919050565b6000819050919050565b61039c83610367565b6103b06103a882610389565b848454610301565b825550505050565b600090565b6103c56103b8565b6103d0818484610393565b505050565b5b818110156103f4576103e96000826103bd565b6001810190506103d6565b5050565b601f8211156104395761040a816102cf565b610413846102e4565b81016020851015610422578190505b61043661042e856102e4565b8301826103d5565b50505b505050565b600082821c905092915050565b600061045c6000198460080261043e565b1980831691505092915050565b6000610475838361044b565b9150826002028217905092915050565b61048e82610235565b67ffffffffffffffff8111156104a7576104a6610240565b5b6104b1825461029e565b6104bc8282856103f8565b600060209050601f8311600181146104ef57600084156104dd578287015190505b6104e78582610469565b86555061054f565b601f1984166104fd866102cf565b60005b8281101561052557848901518255600182019150602085019450602081019050610500565b86831015610542578489015161053e601f89168261044b565b8355505b6001600288020188555050505b505050505050565b600073ffffffffffffffffffffffffffffffffffffffff82169050919050565b600061058282610557565b9050919050565b61059281610577565b82525050565b60006020820190506105ad6000830184610589565b92915050565b614d02806105c26000396000f3fe608060405234801561001057600080fd5b50600436106101c25760003560e01c80638da5cb5b116100f9578063d80a08da11610097578063ed498fa811610071578063ed498fa81461059f578063f23a6e61146105cf578063f242432a146105ff578063f2fde38b1461061b576101c2565b8063d80a08da14610537578063e356777414610553578063e985e9c51461056f576101c2565b8063b901fed5116100d3578063b901fed514610489578063bc197c81146104a7578063cc0a48d4146104d7578063d50bcc7114610507576101c2565b80638da5cb5b1461041e5780639145d1331461043c578063a22cb4651461046d576101c2565b80634e1273f411610166578063681bec6c11610140578063681bec6c14610397578063715018a6146103c857806375388a0f146103d2578063813d2ad814610402576101c2565b80634e1273f4146103055780635491a99f146103355780635c80a43514610365576101c2565b80630e89341c116101a25780630e89341c146102585780632b04e840146102885780632eb2c2d6146102b8578063434a49a1146102d4576101c2565b80628b96a1146101c7578062fdd58e146101f857806301ffc9a714610228575b600080fd5b6101e160048036038101906101dc9190613246565b610637565b6040516101ef9291906132c3565b60405180910390f35b610212600480360381019061020d9190613318565b61068b565b60405161021f9190613358565b60405180910390f35b610242600480360381019061023d91906133cb565b6106e5565b60405161024f9190613413565b60405180910390f35b610272600480360381019061026d9190613246565b61075f565b60405161027f91906134be565b60405180910390f35b6102a2600480360381019061029d9190613318565b61084b565b6040516102af9190613358565b60405180910390f35b6102d260048036038101906102cd91906136dd565b61085f565b005b6102ee60048036038101906102e991906137ac565b610907565b6040516102fc929190613897565b60405180910390f35b61031f600480360381019061031a9190613991565b610b18565b60405161032c9190613a09565b60405180910390f35b61034f600480360381019061034a9190613318565b610c21565b60405161035c9190613a7c565b60405180910390f35b61037f600480360381019061037a9190613318565b610cf6565b60405161038e93929190613a97565b60405180910390f35b6103b160048036038101906103ac91906137ac565b610d4d565b6040516103bf929190613897565b60405180910390f35b6103d0610f5e565b005b6103ec60048036038101906103e79190613318565b610f72565b6040516103f99190613358565b60405180910390f35b61041c60048036038101906104179190613ace565b610fcd565b005b61042661129f565b6040516104339190613b0e565b60405180910390f35b61045660048036038101906104519190613318565b6112c9565b604051610464929190613b29565b60405180910390f35b61048760048036038101906104829190613b7e565b611408565b005b61049161141e565b60405161049e9190613c9c565b60405180910390f35b6104c160048036038101906104bc9190613d6f565b6114dd565b6040516104ce9190613e5a565b60405180910390f35b6104f160048036038101906104ec9190613f16565b6114f5565b6040516104fe9190613358565b60405180910390f35b610521600480360381019061051c91906137ac565b6115bc565b60405161052e9190613358565b60405180910390f35b610551600480360381019061054c9190613f72565b611608565b005b61056d60048036038101906105689190613fd9565b611a9b565b005b61058960048036038101906105849190614040565b611db5565b6040516105969190613413565b60405180910390f35b6105b960048036038101906105b491906137ac565b611e49565b6040516105c69190613a09565b60405180910390f35b6105e960048036038101906105e49190614080565b611ee0565b6040516105f69190613e5a565b60405180910390f35b6106196004803603810190610614919061411a565b611ef6565b005b610635600480360381019061063091906137ac565b611f9e565b005b6008818154811061064757600080fd5b90600052602060002090600202016000915090508060000160009054906101000a900473ffffffffffffffffffffffffffffffffffffffff16908060010154905082565b600080600083815260200190815260200160002060008473ffffffffffffffffffffffffffffffffffffffff1673ffffffffffffffffffffffffffffffffffffffff16815260200190815260200160002054905092915050565b60007f4e2312e0000000000000000000000000000000000000000000000000000000007bffffffffffffffffffffffffffffffffffffffffffffffffffffffff1916827bffffffffffffffffffffffffffffffffffffffffffffffffffffffff19161480610758575061075782612024565b5b9050919050565b60606000600760008481526020019081526020016000208054610781906141e0565b80601f01602080910402602001604051908101604052809291908181526020018280546107ad906141e0565b80156107fa5780601f106107cf576101008083540402835291602001916107fa565b820191906000526020600020905b8154815290600101906020018083116107dd57829003601f168201915b505050505090506000815111156108145780915050610846565b600061081f84612106565b90508060405160200161083291906142e5565b604051602081830303815290604052925050505b919050565b6000610857838361068b565b905092915050565b60006108696121d4565b90508073ffffffffffffffffffffffffffffffffffffffff168673ffffffffffffffffffffffffffffffffffffffff16141580156108ae57506108ac8682611db5565b155b156108f25780866040517fe237d9220000000000000000000000000000000000000000000000000000000081526004016108e9929190614312565b60405180910390fd5b6108ff86868686866121dc565b505050505050565b6060806000600660008573ffffffffffffffffffffffffffffffffffffffff1673ffffffffffffffffffffffffffffffffffffffff16815260200190815260200160002080548060200260200160405190810160405280929190818152602001828054801561099557602002820191906000526020600020905b815481526020019060010190808311610981575b50505050509050805167ffffffffffffffff8111156109b7576109b66134e5565b5b6040519080825280602002602001820160405280156109e55781602001602082028036833780820191505090505b509250805167ffffffffffffffff811115610a0357610a026134e5565b5b604051908082528060200260200182016040528015610a315781602001602082028036833780820191505090505b50915060005b8151811015610b1157818181518110610a5357610a5261433b565b5b6020026020010151848281518110610a6e57610a6d61433b565b5b602002602001018181525050600560008673ffffffffffffffffffffffffffffffffffffffff1673ffffffffffffffffffffffffffffffffffffffff1681526020019081526020016000206000838381518110610ace57610acd61433b565b5b6020026020010151815260200190815260200160002054838281518110610af857610af761433b565b5b6020026020010181815250508080600101915050610a37565b5050915091565b60608151835114610b6457815183516040517f5b059991000000000000000000000000000000000000000000000000000000008152600401610b5b929190613b29565b60405180910390fd5b6000835167ffffffffffffffff811115610b8157610b806134e5565b5b604051908082528060200260200182016040528015610baf5781602001602082028036833780820191505090505b50905060005b8451811015610c1657610bec610bd482876122d490919063ffffffff16565b610be783876122e890919063ffffffff16565b61068b565b828281518110610bff57610bfe61433b565b5b602002602001018181525050806001019050610bb5565b508091505092915050565b610c296131c5565b600460008473ffffffffffffffffffffffffffffffffffffffff1673ffffffffffffffffffffffffffffffffffffffff16815260200190815260200160002060008381526020019081526020016000206040518060600160405290816000820160009054906101000a900473ffffffffffffffffffffffffffffffffffffffff1673ffffffffffffffffffffffffffffffffffffffff1673ffffffffffffffffffffffffffffffffffffffff16815260200160018201548152602001600282015481525050905092915050565b6004602052816000526040600020602052806000526040600020600091509150508060000160009054906101000a900473ffffffffffffffffffffffffffffffffffffffff16908060010154908060020154905083565b6060806000600660008573ffffffffffffffffffffffffffffffffffffffff1673ffffffffffffffffffffffffffffffffffffffff168152602001908152602001600020805480602002602001604051908101604052809291908181526020018280548015610ddb57602002820191906000526020600020905b815481526020019060010190808311610dc7575b50505050509050805167ffffffffffffffff811115610dfd57610dfc6134e5565b5b604051908082528060200260200182016040528015610e2b5781602001602082028036833780820191505090505b509250805167ffffffffffffffff811115610e4957610e486134e5565b5b604051908082528060200260200182016040528015610e775781602001602082028036833780820191505090505b50915060005b8151811015610f5757818181518110610e9957610e9861433b565b5b6020026020010151848281518110610eb457610eb361433b565b5b602002602001018181525050600560008673ffffffffffffffffffffffffffffffffffffffff1673ffffffffffffffffffffffffffffffffffffffff1681526020019081526020016000206000838381518110610f1457610f1361433b565b5b6020026020010151815260200190815260200160002054838281518110610f3e57610f3d61433b565b5b6020026020010181815250508080600101915050610e7d565b5050915091565b610f666122fc565b610f706000612383565b565b6000600560008473ffffffffffffffffffffffffffffffffffffffff1673ffffffffffffffffffffffffffffffffffffffff168152602001908152602001600020600083815260200190815260200160002054905092915050565b6000600460008373ffffffffffffffffffffffffffffffffffffffff1673ffffffffffffffffffffffffffffffffffffffff16815260200190815260200160002060008481526020019081526020016000206040518060600160405290816000820160009054906101000a900473ffffffffffffffffffffffffffffffffffffffff1673ffffffffffffffffffffffffffffffffffffffff1673ffffffffffffffffffffffffffffffffffffffff1681526020016001820154815260200160028201548152505090508173ffffffffffffffffffffffffffffffffffffffff16816000015173ffffffffffffffffffffffffffffffffffffffff1614611108576040517f08c379a00000000000000000000000000000000000000000000000000000000081526004016110ff906143b6565b60405180910390fd5b600073ffffffffffffffffffffffffffffffffffffffff16816000015173ffffffffffffffffffffffffffffffffffffffff160361117b576040517f08c379a000000000000000000000000000000000000000000000000000000000815260040161117290614422565b60405180910390fd5b61119b308385846020015160405180602001604052806000815250612449565b8060200151600560008473ffffffffffffffffffffffffffffffffffffffff1673ffffffffffffffffffffffffffffffffffffffff168152602001908152602001600020600085815260200190815260200160002060008282546111ff9190614471565b925050819055506112108284612554565b600460008373ffffffffffffffffffffffffffffffffffffffff1673ffffffffffffffffffffffffffffffffffffffff1681526020019081526020016000206000848152602001908152602001600020600080820160006101000a81549073ffffffffffffffffffffffffffffffffffffffff0219169055600182016000905560028201600090555050505050565b6000600360009054906101000a900473ffffffffffffffffffffffffffffffffffffffff16905090565b600080600660008573ffffffffffffffffffffffffffffffffffffffff1673ffffffffffffffffffffffffffffffffffffffff168152602001908152602001600020805490508310611350576040517f08c379a0000000000000000000000000000000000000000000000000000000008152600401611347906144f1565b60405180910390fd5b600660008573ffffffffffffffffffffffffffffffffffffffff1673ffffffffffffffffffffffffffffffffffffffff16815260200190815260200160002083815481106113a1576113a061433b565b5b90600052602060002001549150600560008573ffffffffffffffffffffffffffffffffffffffff1673ffffffffffffffffffffffffffffffffffffffff16815260200190815260200160002060008381526020019081526020016000205490509250929050565b61141a6114136121d4565b838361260d565b5050565b60606008805480602002602001604051908101604052809291908181526020016000905b828210156114d457838290600052602060002090600202016040518060400160405290816000820160009054906101000a900473ffffffffffffffffffffffffffffffffffffffff1673ffffffffffffffffffffffffffffffffffffffff1673ffffffffffffffffffffffffffffffffffffffff16815260200160018201548152505081526020019060010190611442565b50505050905090565b600063bc197c8160e01b905098975050505050505050565b6000806009549050611519838260646040518060200160405280600081525061277d565b8360076000838152602001908152602001600020908161153991906146bd565b506064600560008573ffffffffffffffffffffffffffffffffffffffff1673ffffffffffffffffffffffffffffffffffffffff16815260200190815260200160002060008381526020019081526020016000208190555061159a8382612554565b600960008154809291906115ad9061478f565b91905055508091505092915050565b6000600660008373ffffffffffffffffffffffffffffffffffffffff1673ffffffffffffffffffffffffffffffffffffffff168152602001908152602001600020805490509050919050565b81611613858561068b565b1015611654576040517f08c379a000000000000000000000000000000000000000000000000000000000815260040161164b90614823565b60405180910390fd5b60008111611697576040517f08c379a000000000000000000000000000000000000000000000000000000000815260040161168e9061488f565b60405180910390fd5b600073ffffffffffffffffffffffffffffffffffffffff16600460008673ffffffffffffffffffffffffffffffffffffffff1673ffffffffffffffffffffffffffffffffffffffff168152602001908152602001600020600085815260200190815260200160002060000160009054906101000a900473ffffffffffffffffffffffffffffffffffffffff1673ffffffffffffffffffffffffffffffffffffffff1614611779576040517f08c379a0000000000000000000000000000000000000000000000000000000008152600401611770906148fb565b60405180910390fd5b600082116117bc576040517f08c379a00000000000000000000000000000000000000000000000000000000081526004016117b390614967565b60405180910390fd5b81600560008673ffffffffffffffffffffffffffffffffffffffff1673ffffffffffffffffffffffffffffffffffffffff168152602001908152602001600020600085815260200190815260200160002054101561184f576040517f08c379a0000000000000000000000000000000000000000000000000000000008152600401611846906149d3565b60405180910390fd5b61186b8430858560405180602001604052806000815250612449565b81600560008673ffffffffffffffffffffffffffffffffffffffff1673ffffffffffffffffffffffffffffffffffffffff168152602001908152602001600020600085815260200190815260200160002060008282546118cb91906149f3565b9250508190555060405180606001604052808573ffffffffffffffffffffffffffffffffffffffff16815260200183815260200182815250600460008673ffffffffffffffffffffffffffffffffffffffff1673ffffffffffffffffffffffffffffffffffffffff168152602001908152602001600020600085815260200190815260200160002060008201518160000160006101000a81548173ffffffffffffffffffffffffffffffffffffffff021916908373ffffffffffffffffffffffffffffffffffffffff1602179055506020820151816001015560408201518160020155905050600860405180604001604052808673ffffffffffffffffffffffffffffffffffffffff16815260200185815250908060018154018082558091505060019003906000526020600020906002020160009091909190915060008201518160000160006101000a81548173ffffffffffffffffffffffffffffffffffffffff021916908373ffffffffffffffffffffffffffffffffffffffff1602179055506020820151816001015550507feba8cee8f0a2ab7b4cc8e75d10eae88eb6b625a15419821b6676d03a57ad7762848383604051611a8d93929190613a97565b60405180910390a150505050565b6000600460008673ffffffffffffffffffffffffffffffffffffffff1673ffffffffffffffffffffffffffffffffffffffff16815260200190815260200160002060008481526020019081526020016000206040518060600160405290816000820160009054906101000a900473ffffffffffffffffffffffffffffffffffffffff1673ffffffffffffffffffffffffffffffffffffffff1673ffffffffffffffffffffffffffffffffffffffff16815260200160018201548152602001600282015481525050905081816040015114611baa576040517f08c379a0000000000000000000000000000000000000000000000000000000008152600401611ba190614a73565b60405180910390fd5b806000015173ffffffffffffffffffffffffffffffffffffffff168473ffffffffffffffffffffffffffffffffffffffff1603611c1c576040517f08c379a0000000000000000000000000000000000000000000000000000000008152600401611c1390614adf565b60405180910390fd5b600073ffffffffffffffffffffffffffffffffffffffff16816000015173ffffffffffffffffffffffffffffffffffffffff1603611c8f576040517f08c379a0000000000000000000000000000000000000000000000000000000008152600401611c8690614422565b60405180910390fd5b611caf308585846020015160405180602001604052806000815250612449565b8060200151600560008673ffffffffffffffffffffffffffffffffffffffff1673ffffffffffffffffffffffffffffffffffffffff16815260200190815260200160002060008581526020019081526020016000206000828254611d139190614471565b92505081905550611d248484612554565b600460008673ffffffffffffffffffffffffffffffffffffffff1673ffffffffffffffffffffffffffffffffffffffff1681526020019081526020016000206000848152602001908152602001600020600080820160006101000a81549073ffffffffffffffffffffffffffffffffffffffff02191690556001820160009055600282016000905550505050505050565b6000600160008473ffffffffffffffffffffffffffffffffffffffff1673ffffffffffffffffffffffffffffffffffffffff16815260200190815260200160002060008373ffffffffffffffffffffffffffffffffffffffff1673ffffffffffffffffffffffffffffffffffffffff16815260200190815260200160002060009054906101000a900460ff16905092915050565b6060600660008373ffffffffffffffffffffffffffffffffffffffff1673ffffffffffffffffffffffffffffffffffffffff168152602001908152602001600020805480602002602001604051908101604052809291908181526020018280548015611ed457602002820191906000526020600020905b815481526020019060010190808311611ec0575b50505050509050919050565b600063f23a6e6160e01b90509695505050505050565b6000611f006121d4565b90508073ffffffffffffffffffffffffffffffffffffffff168673ffffffffffffffffffffffffffffffffffffffff1614158015611f455750611f438682611db5565b155b15611f895780866040517fe237d922000000000000000000000000000000000000000000000000000000008152600401611f80929190614312565b60405180910390fd5b611f968686868686612449565b505050505050565b611fa66122fc565b600073ffffffffffffffffffffffffffffffffffffffff168173ffffffffffffffffffffffffffffffffffffffff16036120185760006040517f1e4fbdf700000000000000000000000000000000000000000000000000000000815260040161200f9190613b0e565b60405180910390fd5b61202181612383565b50565b60007fd9b67a26000000000000000000000000000000000000000000000000000000007bffffffffffffffffffffffffffffffffffffffffffffffffffffffff1916827bffffffffffffffffffffffffffffffffffffffffffffffffffffffff191614806120ef57507f0e89341c000000000000000000000000000000000000000000000000000000007bffffffffffffffffffffffffffffffffffffffffffffffffffffffff1916827bffffffffffffffffffffffffffffffffffffffffffffffffffffffff1916145b806120ff57506120fe82612816565b5b9050919050565b60606000600161211584612880565b01905060008167ffffffffffffffff811115612134576121336134e5565b5b6040519080825280601f01601f1916602001820160405280156121665781602001600182028036833780820191505090505b509050600082602001820190505b6001156121c9578080600190039150507f3031323334353637383961626364656600000000000000000000000000000000600a86061a8153600a85816121bd576121bc614aff565b5b04945060008503612174575b819350505050919050565b600033905090565b600073ffffffffffffffffffffffffffffffffffffffff168473ffffffffffffffffffffffffffffffffffffffff160361224e5760006040517f57f447ce0000000000000000000000000000000000000000000000000000000081526004016122459190613b0e565b60405180910390fd5b600073ffffffffffffffffffffffffffffffffffffffff168573ffffffffffffffffffffffffffffffffffffffff16036122c05760006040517f01a835140000000000000000000000000000000000000000000000000000000081526004016122b79190613b0e565b60405180910390fd5b6122cd85858585856129d3565b5050505050565b600060208202602084010151905092915050565b600060208202602084010151905092915050565b6123046121d4565b73ffffffffffffffffffffffffffffffffffffffff1661232261129f565b73ffffffffffffffffffffffffffffffffffffffff1614612381576123456121d4565b6040517f118cdaa70000000000000000000000000000000000000000000000000000000081526004016123789190613b0e565b60405180910390fd5b565b6000600360009054906101000a900473ffffffffffffffffffffffffffffffffffffffff16905081600360006101000a81548173ffffffffffffffffffffffffffffffffffffffff021916908373ffffffffffffffffffffffffffffffffffffffff1602179055508173ffffffffffffffffffffffffffffffffffffffff168173ffffffffffffffffffffffffffffffffffffffff167f8be0079c531659141344cd1fd0a4f28419497f9722a3daafe3b4186f6b6457e060405160405180910390a35050565b600073ffffffffffffffffffffffffffffffffffffffff168473ffffffffffffffffffffffffffffffffffffffff16036124bb5760006040517f57f447ce0000000000000000000000000000000000000000000000000000000081526004016124b29190613b0e565b60405180910390fd5b600073ffffffffffffffffffffffffffffffffffffffff168573ffffffffffffffffffffffffffffffffffffffff160361252d5760006040517f01a835140000000000000000000000000000000000000000000000000000000081526004016125249190613b0e565b60405180910390fd5b60008061253a8585612a85565b9150915061254b87878484876129d3565b50505050505050565b6000600660008473ffffffffffffffffffffffffffffffffffffffff1673ffffffffffffffffffffffffffffffffffffffff168152602001908152602001600020905060005b81805490508110156125de57828282815481106125ba576125b961433b565b5b9060005260206000200154036125d1575050612609565b808060010191505061259a565b5080829080600181540180825580915050600190039060005260206000200160009091909190915055505b5050565b600073ffffffffffffffffffffffffffffffffffffffff168273ffffffffffffffffffffffffffffffffffffffff160361267f5760006040517fced3e1000000000000000000000000000000000000000000000000000000000081526004016126769190613b0e565b60405180910390fd5b80600160008573ffffffffffffffffffffffffffffffffffffffff1673ffffffffffffffffffffffffffffffffffffffff16815260200190815260200160002060008473ffffffffffffffffffffffffffffffffffffffff1673ffffffffffffffffffffffffffffffffffffffff16815260200190815260200160002060006101000a81548160ff0219169083151502179055508173ffffffffffffffffffffffffffffffffffffffff168373ffffffffffffffffffffffffffffffffffffffff167f17307eab39ab6107e8899845ad3d59bd9653f200f220920489ca2b5937696c31836040516127709190613413565b60405180910390a3505050565b600073ffffffffffffffffffffffffffffffffffffffff168473ffffffffffffffffffffffffffffffffffffffff16036127ef5760006040517f57f447ce0000000000000000000000000000000000000000000000000000000081526004016127e69190613b0e565b60405180910390fd5b6000806127fc8585612a85565b9150915061280e6000878484876129d3565b505050505050565b60007f01ffc9a7000000000000000000000000000000000000000000000000000000007bffffffffffffffffffffffffffffffffffffffffffffffffffffffff1916827bffffffffffffffffffffffffffffffffffffffffffffffffffffffff1916149050919050565b600080600090507a184f03e93ff9f4daa797ed6e38ed64bf6a1f01000000000000000083106128de577a184f03e93ff9f4daa797ed6e38ed64bf6a1f01000000000000000083816128d4576128d3614aff565b5b0492506040810190505b6d04ee2d6d415b85acef8100000000831061291b576d04ee2d6d415b85acef8100000000838161291157612910614aff565b5b0492506020810190505b662386f26fc10000831061294a57662386f26fc1000083816129405761293f614aff565b5b0492506010810190505b6305f5e1008310612973576305f5e100838161296957612968614aff565b5b0492506008810190505b612710831061299857612710838161298e5761298d614aff565b5b0492506004810190505b606483106129bb57606483816129b1576129b0614aff565b5b0492506002810190505b600a83106129ca576001810190505b80915050919050565b6129df85858585612ab5565b600073ffffffffffffffffffffffffffffffffffffffff168473ffffffffffffffffffffffffffffffffffffffff1614612a7e576000612a1d6121d4565b90506001845103612a6d576000612a3e6000866122e890919063ffffffff16565b90506000612a566000866122e890919063ffffffff16565b9050612a66838989858589612e5d565b5050612a7c565b612a7b818787878787613011565b5b505b5050505050565b60608060405191506001825283602083015260408201905060018152826020820152604081016040529250929050565b8051825114612aff57815181516040517f5b059991000000000000000000000000000000000000000000000000000000008152600401612af6929190613b29565b60405180910390fd5b6000612b096121d4565b905060005b8351811015612d18576000612b2c82866122e890919063ffffffff16565b90506000612b4383866122e890919063ffffffff16565b9050600073ffffffffffffffffffffffffffffffffffffffff168873ffffffffffffffffffffffffffffffffffffffff1614612c7057600080600084815260200190815260200160002060008a73ffffffffffffffffffffffffffffffffffffffff1673ffffffffffffffffffffffffffffffffffffffff16815260200190815260200160002054905081811015612c1857888183856040517f03dee4c5000000000000000000000000000000000000000000000000000000008152600401612c0f9493929190614b2e565b60405180910390fd5b81810360008085815260200190815260200160002060008b73ffffffffffffffffffffffffffffffffffffffff1673ffffffffffffffffffffffffffffffffffffffff16815260200190815260200160002081905550505b600073ffffffffffffffffffffffffffffffffffffffff168773ffffffffffffffffffffffffffffffffffffffff1614612d0b578060008084815260200190815260200160002060008973ffffffffffffffffffffffffffffffffffffffff1673ffffffffffffffffffffffffffffffffffffffff1681526020019081526020016000206000828254612d039190614471565b925050819055505b5050806001019050612b0e565b506001835103612dd7576000612d386000856122e890919063ffffffff16565b90506000612d506000856122e890919063ffffffff16565b90508573ffffffffffffffffffffffffffffffffffffffff168773ffffffffffffffffffffffffffffffffffffffff168473ffffffffffffffffffffffffffffffffffffffff167fc3d58168c5ae7397731d063d5bbf3d657854427343f4c083240f7aacaa2d0f628585604051612dc8929190613b29565b60405180910390a45050612e56565b8373ffffffffffffffffffffffffffffffffffffffff168573ffffffffffffffffffffffffffffffffffffffff168273ffffffffffffffffffffffffffffffffffffffff167f4a39dc06d4c0dbc64b70af90fd698a233a518aa5d07e595d983b8c0526c8f7fb8686604051612e4d929190613897565b60405180910390a45b5050505050565b60008473ffffffffffffffffffffffffffffffffffffffff163b1115613009578373ffffffffffffffffffffffffffffffffffffffff1663f23a6e6187878686866040518663ffffffff1660e01b8152600401612ebe959493929190614bc8565b6020604051808303816000875af1925050508015612efa57506040513d601f19601f82011682018060405250810190612ef79190614c37565b60015b612f7e573d8060008114612f2a576040519150601f19603f3d011682016040523d82523d6000602084013e612f2f565b606091505b506000815103612f7657846040517f57f447ce000000000000000000000000000000000000000000000000000000008152600401612f6d9190613b0e565b60405180910390fd5b805181602001fd5b63f23a6e6160e01b7bffffffffffffffffffffffffffffffffffffffffffffffffffffffff1916817bffffffffffffffffffffffffffffffffffffffffffffffffffffffff19161461300757846040517f57f447ce000000000000000000000000000000000000000000000000000000008152600401612ffe9190613b0e565b60405180910390fd5b505b505050505050565b60008473ffffffffffffffffffffffffffffffffffffffff163b11156131bd578373ffffffffffffffffffffffffffffffffffffffff1663bc197c8187878686866040518663ffffffff1660e01b8152600401613072959493929190614c64565b6020604051808303816000875af19250505080156130ae57506040513d601f19601f820116820180604052508101906130ab9190614c37565b60015b613132573d80600081146130de576040519150601f19603f3d011682016040523d82523d6000602084013e6130e3565b606091505b50600081510361312a57846040517f57f447ce0000000000000000000000000000000000000000000000000000000081526004016131219190613b0e565b60405180910390fd5b805181602001fd5b63bc197c8160e01b7bffffffffffffffffffffffffffffffffffffffffffffffffffffffff1916817bffffffffffffffffffffffffffffffffffffffffffffffffffffffff1916146131bb57846040517f57f447ce0000000000000000000000000000000000000000000000000000000081526004016131b29190613b0e565b60405180910390fd5b505b505050505050565b6040518060600160405280600073ffffffffffffffffffffffffffffffffffffffff16815260200160008152602001600081525090565b6000604051905090565b600080fd5b600080fd5b6000819050919050565b61322381613210565b811461322e57600080fd5b50565b6000813590506132408161321a565b92915050565b60006020828403121561325c5761325b613206565b5b600061326a84828501613231565b91505092915050565b600073ffffffffffffffffffffffffffffffffffffffff82169050919050565b600061329e82613273565b9050919050565b6132ae81613293565b82525050565b6132bd81613210565b82525050565b60006040820190506132d860008301856132a5565b6132e560208301846132b4565b9392505050565b6132f581613293565b811461330057600080fd5b50565b600081359050613312816132ec565b92915050565b6000806040838503121561332f5761332e613206565b5b600061333d85828601613303565b925050602061334e85828601613231565b9150509250929050565b600060208201905061336d60008301846132b4565b92915050565b60007fffffffff0000000000000000000000000000000000000000000000000000000082169050919050565b6133a881613373565b81146133b357600080fd5b50565b6000813590506133c58161339f565b92915050565b6000602082840312156133e1576133e0613206565b5b60006133ef848285016133b6565b91505092915050565b60008115159050919050565b61340d816133f8565b82525050565b60006020820190506134286000830184613404565b92915050565b600081519050919050565b600082825260208201905092915050565b60005b8381101561346857808201518184015260208101905061344d565b60008484015250505050565b6000601f19601f8301169050919050565b60006134908261342e565b61349a8185613439565b93506134aa81856020860161344a565b6134b381613474565b840191505092915050565b600060208201905081810360008301526134d88184613485565b905092915050565b600080fd5b7f4e487b7100000000000000000000000000000000000000000000000000000000600052604160045260246000fd5b61351d82613474565b810181811067ffffffffffffffff8211171561353c5761353b6134e5565b5b80604052505050565b600061354f6131fc565b905061355b8282613514565b919050565b600067ffffffffffffffff82111561357b5761357a6134e5565b5b602082029050602081019050919050565b600080fd5b60006135a461359f84613560565b613545565b905080838252602082019050602084028301858111156135c7576135c661358c565b5b835b818110156135f057806135dc8882613231565b8452602084019350506020810190506135c9565b5050509392505050565b600082601f83011261360f5761360e6134e0565b5b813561361f848260208601613591565b91505092915050565b600080fd5b600067ffffffffffffffff821115613648576136476134e5565b5b61365182613474565b9050602081019050919050565b82818337600083830152505050565b600061368061367b8461362d565b613545565b90508281526020810184848401111561369c5761369b613628565b5b6136a784828561365e565b509392505050565b600082601f8301126136c4576136c36134e0565b5b81356136d484826020860161366d565b91505092915050565b600080600080600060a086880312156136f9576136f8613206565b5b600061370788828901613303565b955050602061371888828901613303565b945050604086013567ffffffffffffffff8111156137395761373861320b565b5b613745888289016135fa565b935050606086013567ffffffffffffffff8111156137665761376561320b565b5b613772888289016135fa565b925050608086013567ffffffffffffffff8111156137935761379261320b565b5b61379f888289016136af565b9150509295509295909350565b6000602082840312156137c2576137c1613206565b5b60006137d084828501613303565b91505092915050565b600081519050919050565b600082825260208201905092915050565b6000819050602082019050919050565b61380e81613210565b82525050565b60006138208383613805565b60208301905092915050565b6000602082019050919050565b6000613844826137d9565b61384e81856137e4565b9350613859836137f5565b8060005b8381101561388a5781516138718882613814565b975061387c8361382c565b92505060018101905061385d565b5085935050505092915050565b600060408201905081810360008301526138b18185613839565b905081810360208301526138c58184613839565b90509392505050565b600067ffffffffffffffff8211156138e9576138e86134e5565b5b602082029050602081019050919050565b600061390d613908846138ce565b613545565b905080838252602082019050602084028301858111156139305761392f61358c565b5b835b8181101561395957806139458882613303565b845260208401935050602081019050613932565b5050509392505050565b600082601f830112613978576139776134e0565b5b81356139888482602086016138fa565b91505092915050565b600080604083850312156139a8576139a7613206565b5b600083013567ffffffffffffffff8111156139c6576139c561320b565b5b6139d285828601613963565b925050602083013567ffffffffffffffff8111156139f3576139f261320b565b5b6139ff858286016135fa565b9150509250929050565b60006020820190508181036000830152613a238184613839565b905092915050565b613a3481613293565b82525050565b606082016000820151613a506000850182613a2b565b506020820151613a636020850182613805565b506040820151613a766040850182613805565b50505050565b6000606082019050613a916000830184613a3a565b92915050565b6000606082019050613aac60008301866132a5565b613ab960208301856132b4565b613ac660408301846132b4565b949350505050565b60008060408385031215613ae557613ae4613206565b5b6000613af385828601613231565b9250506020613b0485828601613303565b9150509250929050565b6000602082019050613b2360008301846132a5565b92915050565b6000604082019050613b3e60008301856132b4565b613b4b60208301846132b4565b9392505050565b613b5b816133f8565b8114613b6657600080fd5b50565b600081359050613b7881613b52565b92915050565b60008060408385031215613b9557613b94613206565b5b6000613ba385828601613303565b9250506020613bb485828601613b69565b9150509250929050565b600081519050919050565b600082825260208201905092915050565b6000819050602082019050919050565b604082016000820151613c006000850182613a2b565b506020820151613c136020850182613805565b50505050565b6000613c258383613bea565b60408301905092915050565b6000602082019050919050565b6000613c4982613bbe565b613c538185613bc9565b9350613c5e83613bda565b8060005b83811015613c8f578151613c768882613c19565b9750613c8183613c31565b925050600181019050613c62565b5085935050505092915050565b60006020820190508181036000830152613cb68184613c3e565b905092915050565b600080fd5b60008083601f840112613cd957613cd86134e0565b5b8235905067ffffffffffffffff811115613cf657613cf5613cbe565b5b602083019150836020820283011115613d1257613d1161358c565b5b9250929050565b60008083601f840112613d2f57613d2e6134e0565b5b8235905067ffffffffffffffff811115613d4c57613d4b613cbe565b5b602083019150836001820283011115613d6857613d6761358c565b5b9250929050565b60008060008060008060008060a0898b031215613d8f57613d8e613206565b5b6000613d9d8b828c01613303565b9850506020613dae8b828c01613303565b975050604089013567ffffffffffffffff811115613dcf57613dce61320b565b5b613ddb8b828c01613cc3565b9650965050606089013567ffffffffffffffff811115613dfe57613dfd61320b565b5b613e0a8b828c01613cc3565b9450945050608089013567ffffffffffffffff811115613e2d57613e2c61320b565b5b613e398b828c01613d19565b92509250509295985092959890939650565b613e5481613373565b82525050565b6000602082019050613e6f6000830184613e4b565b92915050565b600067ffffffffffffffff821115613e9057613e8f6134e5565b5b613e9982613474565b9050602081019050919050565b6000613eb9613eb484613e75565b613545565b905082815260208101848484011115613ed557613ed4613628565b5b613ee084828561365e565b509392505050565b600082601f830112613efd57613efc6134e0565b5b8135613f0d848260208601613ea6565b91505092915050565b60008060408385031215613f2d57613f2c613206565b5b600083013567ffffffffffffffff811115613f4b57613f4a61320b565b5b613f5785828601613ee8565b9250506020613f6885828601613303565b9150509250929050565b60008060008060808587031215613f8c57613f8b613206565b5b6000613f9a87828801613303565b9450506020613fab87828801613231565b9350506040613fbc87828801613231565b9250506060613fcd87828801613231565b91505092959194509250565b60008060008060808587031215613ff357613ff2613206565b5b600061400187828801613303565b945050602061401287828801613303565b935050604061402387828801613231565b925050606061403487828801613231565b91505092959194509250565b6000806040838503121561405757614056613206565b5b600061406585828601613303565b925050602061407685828601613303565b9150509250929050565b60008060008060008060a0878903121561409d5761409c613206565b5b60006140ab89828a01613303565b96505060206140bc89828a01613303565b95505060406140cd89828a01613231565b94505060606140de89828a01613231565b935050608087013567ffffffffffffffff8111156140ff576140fe61320b565b5b61410b89828a01613d19565b92509250509295509295509295565b600080600080600060a0868803121561413657614135613206565b5b600061414488828901613303565b955050602061415588828901613303565b945050604061416688828901613231565b935050606061417788828901613231565b925050608086013567ffffffffffffffff8111156141985761419761320b565b5b6141a4888289016136af565b9150509295509295909350565b7f4e487b7100000000000000000000000000000000000000000000000000000000600052602260045260246000fd5b600060028204905060018216806141f857607f821691505b60208210810361420b5761420a6141b1565b5b50919050565b600081905092915050565b7f68747470733a2f2f6d7970726f6a6563742e636f6d2f6d657461646174612f00600082015250565b6000614252601f83614211565b915061425d8261421c565b601f82019050919050565b60006142738261342e565b61427d8185614211565b935061428d81856020860161344a565b80840191505092915050565b7f2e6a736f6e000000000000000000000000000000000000000000000000000000600082015250565b60006142cf600583614211565b91506142da82614299565b600582019050919050565b60006142f082614245565b91506142fc8284614268565b9150614307826142c2565b915081905092915050565b600060408201905061432760008301856132a5565b61433460208301846132a5565b9392505050565b7f4e487b7100000000000000000000000000000000000000000000000000000000600052603260045260246000fd5b7f4f6e6c792073656c6c65722063616e2063616e63656c00000000000000000000600082015250565b60006143a0601683613439565b91506143ab8261436a565b602082019050919050565b600060208201905081810360008301526143cf81614393565b9050919050565b7f4e4654206e6f7420666f722073616c6500000000000000000000000000000000600082015250565b600061440c601083613439565b9150614417826143d6565b602082019050919050565b6000602082019050818103600083015261443b816143ff565b9050919050565b7f4e487b7100000000000000000000000000000000000000000000000000000000600052601160045260246000fd5b600061447c82613210565b915061448783613210565b925082820190508082111561449f5761449e614442565b5b92915050565b7f496e646578206f7574206f6620626f756e647300000000000000000000000000600082015250565b60006144db601383613439565b91506144e6826144a5565b602082019050919050565b6000602082019050818103600083015261450a816144ce565b9050919050565b60008190508160005260206000209050919050565b60006020601f8301049050919050565b600082821b905092915050565b6000600883026145737fffffffffffffffffffffffffffffffffffffffffffffffffffffffffffffffff82614536565b61457d8683614536565b95508019841693508086168417925050509392505050565b6000819050919050565b60006145ba6145b56145b084613210565b614595565b613210565b9050919050565b6000819050919050565b6145d48361459f565b6145e86145e0826145c1565b848454614543565b825550505050565b600090565b6145fd6145f0565b6146088184846145cb565b505050565b5b8181101561462c576146216000826145f5565b60018101905061460e565b5050565b601f8211156146715761464281614511565b61464b84614526565b8101602085101561465a578190505b61466e61466685614526565b83018261460d565b50505b505050565b600082821c905092915050565b600061469460001984600802614676565b1980831691505092915050565b60006146ad8383614683565b9150826002028217905092915050565b6146c68261342e565b67ffffffffffffffff8111156146df576146de6134e5565b5b6146e982546141e0565b6146f4828285614630565b600060209050601f8311600181146147275760008415614715578287015190505b61471f85826146a1565b865550614787565b601f19841661473586614511565b60005b8281101561475d57848901518255600182019150602085019450602081019050614738565b8683101561477a5784890151614776601f891682614683565b8355505b6001600288020188555050505b505050505050565b600061479a82613210565b91507fffffffffffffffffffffffffffffffffffffffffffffffffffffffffffffffff82036147cc576147cb614442565b5b600182019050919050565b7f496e73756666696369656e7420746f6b656e7300000000000000000000000000600082015250565b600061480d601383613439565b9150614818826147d7565b602082019050919050565b6000602082019050818103600083015261483c81614800565b9050919050565b7f5072696365206d7573742062652067726561746572207468616e203000000000600082015250565b6000614879601c83613439565b915061488482614843565b602082019050919050565b600060208201905081810360008301526148a88161486c565b9050919050565b7f4e465420616c726561647920666f722073616c65000000000000000000000000600082015250565b60006148e5601483613439565b91506148f0826148af565b602082019050919050565b60006020820190508181036000830152614914816148d8565b9050919050565b7f4d7573742073656c6c206174206c65617374203120746f6b656e000000000000600082015250565b6000614951601a83613439565b915061495c8261491b565b602082019050919050565b6000602082019050818103600083015261498081614944565b9050919050565b7f4e6f7420656e6f75676820746f6b656e73000000000000000000000000000000600082015250565b60006149bd601183613439565b91506149c882614987565b602082019050919050565b600060208201905081810360008301526149ec816149b0565b9050919050565b60006149fe82613210565b9150614a0983613210565b9250828203905081811115614a2157614a20614442565b5b92915050565b7f496e636f72726563742070726963650000000000000000000000000000000000600082015250565b6000614a5d600f83613439565b9150614a6882614a27565b602082019050919050565b60006020820190508181036000830152614a8c81614a50565b9050919050565b7f43616e6e6f742062757920796f7572206f776e204e4654000000000000000000600082015250565b6000614ac9601783613439565b9150614ad482614a93565b602082019050919050565b60006020820190508181036000830152614af881614abc565b9050919050565b7f4e487b7100000000000000000000000000000000000000000000000000000000600052601260045260246000fd5b6000608082019050614b4360008301876132a5565b614b5060208301866132b4565b614b5d60408301856132b4565b614b6a60608301846132b4565b95945050505050565b600081519050919050565b600082825260208201905092915050565b6000614b9a82614b73565b614ba48185614b7e565b9350614bb481856020860161344a565b614bbd81613474565b840191505092915050565b600060a082019050614bdd60008301886132a5565b614bea60208301876132a5565b614bf760408301866132b4565b614c0460608301856132b4565b8181036080830152614c168184614b8f565b90509695505050505050565b600081519050614c318161339f565b92915050565b600060208284031215614c4d57614c4c613206565b5b6000614c5b84828501614c22565b91505092915050565b600060a082019050614c7960008301886132a5565b614c8660208301876132a5565b8181036040830152614c988186613839565b90508181036060830152614cac8185613839565b90508181036080830152614cc08184614b8f565b9050969550505050505056fea26469706673582212209b06285631ab5cbde0e925bd968e3f8479be934d0581efcfeb12042ee2f702f064736f6c634300081e003368747470733a2f2f6d7970726f6a6563742e636f6d2f6d657461646174612f7b69647d2e6a736f6e",
  "linkReferences": {},
  "deployedLinkReferences": {}
}