{
  "_format": "hh-sol-artifact-1",
  "contractName": "BingNFT",
  "sourceName": "contracts/BingNFt.sol",
  "abi": [
    {
      "inputs": [],
      "stateMutability": "nonpayable",
      "type": "constructor"
    },
    {
      "inputs": [
        {
          "internalType": "address",
          "name": "sender",
          "type": "address"
        },
        {
          "internalType": "uint256",
          "name": "balance",
          "type": "uint256"
        },
        {
          "internalType": "uint256",
          "name": "needed",
          "type": "uint256"
        },
        {
          "internalType": "uint256",
          "name": "tokenId",
          "type": "uint256"
        }
      ],
      "name": "ERC1155InsufficientBalance",
      "type": "error"
    },
    {
      "inputs": [
        {
          "internalType": "address",
          "name": "approver",
          "type": "address"
        }
      ],
      "name": "ERC1155InvalidApprover",
      "type": "error"
    },
    {
      "inputs": [
        {
          "internalType": "uint256",
          "name": "idsLength",
          "type": "uint256"
        },
        {
          "internalType": "uint256",
          "name": "valuesLength",
          "type": "uint256"
        }
      ],
      "name": "ERC1155InvalidArrayLength",
      "type": "error"
    },
    {
      "inputs": [
        {
          "internalType": "address",
          "name": "operator",
          "type": "address"
        }
      ],
      "name": "ERC1155InvalidOperator",
      "type": "error"
    },
    {
      "inputs": [
        {
          "internalType": "address",
          "name": "receiver",
          "type": "address"
        }
      ],
      "name": "ERC1155InvalidReceiver",
      "type": "error"
    },
    {
      "inputs": [
        {
          "internalType": "address",
          "name": "sender",
          "type": "address"
        }
      ],
      "name": "ERC1155InvalidSender",
      "type": "error"
    },
    {
      "inputs": [
        {
          "internalType": "address",
          "name": "operator",
          "type": "address"
        },
        {
          "internalType": "address",
          "name": "owner",
          "type": "address"
        }
      ],
      "name": "ERC1155MissingApprovalForAll",
      "type": "error"
    },
    {
      "inputs": [
        {
          "internalType": "address",
          "name": "owner",
          "type": "address"
        }
      ],
      "name": "OwnableInvalidOwner",
      "type": "error"
    },
    {
      "inputs": [
        {
          "internalType": "address",
          "name": "account",
          "type": "address"
        }
      ],
      "name": "OwnableUnauthorizedAccount",
      "type": "error"
    },
    {
      "anonymous": false,
      "inputs": [
        {
          "indexed": true,
          "internalType": "address",
          "name": "account",
          "type": "address"
        },
        {
          "indexed": true,
          "internalType": "address",
          "name": "operator",
          "type": "address"
        },
        {
          "indexed": false,
          "internalType": "bool",
          "name": "approved",
          "type": "bool"
        }
      ],
      "name": "ApprovalForAll",
      "type": "event"
    },
    {
      "anonymous": false,
      "inputs": [
        {
          "indexed": true,
          "internalType": "address",
          "name": "previousOwner",
          "type": "address"
        },
        {
          "indexed": true,
          "internalType": "address",
          "name": "newOwner",
          "type": "address"
        }
      ],
      "name": "OwnershipTransferred",
      "type": "event"
    },
    {
      "anonymous": false,
      "inputs": [
        {
          "indexed": true,
          "internalType": "address",
          "name": "operator",
          "type": "address"
        },
        {
          "indexed": true,
          "internalType": "address",
          "name": "from",
          "type": "address"
        },
        {
          "indexed": true,
          "internalType": "address",
          "name": "to",
          "type": "address"
        },
        {
          "indexed": false,
          "internalType": "uint256[]",
          "name": "ids",
          "type": "uint256[]"
        },
        {
          "indexed": false,
          "internalType": "uint256[]",
          "name": "values",
          "type": "uint256[]"
        }
      ],
      "name": "TransferBatch",
      "type": "event"
    },
    {
      "anonymous": false,
      "inputs": [
        {
          "indexed": true,
          "internalType": "address",
          "name": "operator",
          "type": "address"
        },
        {
          "indexed": true,
          "internalType": "address",
          "name": "from",
          "type": "address"
        },
        {
          "indexed": true,
          "internalType": "address",
          "name": "to",
          "type": "address"
        },
        {
          "indexed": false,
          "internalType": "uint256",
          "name": "id",
          "type": "uint256"
        },
        {
          "indexed": false,
          "internalType": "uint256",
          "name": "value",
          "type": "uint256"
        }
      ],
      "name": "TransferSingle",
      "type": "event"
    },
    {
      "anonymous": false,
      "inputs": [
        {
          "indexed": false,
          "internalType": "string",
          "name": "value",
          "type": "string"
        },
        {
          "indexed": true,
          "internalType": "uint256",
          "name": "id",
          "type": "uint256"
        }
      ],
      "name": "URI",
      "type": "event"
    },
    {
      "anonymous": false,
      "inputs": [
        {
          "indexed": false,
          "internalType": "address",
          "name": "seller",
          "type": "address"
        },
        {
          "indexed": false,
          "internalType": "uint256",
          "name": "token",
          "type": "uint256"
        },
        {
          "indexed": false,
          "internalType": "uint256",
          "name": "price",
          "type": "uint256"
        }
      ],
      "name": "sellItemLists",
      "type": "event"
    },
    {
      "inputs": [
        {
          "internalType": "address",
          "name": "sender",
          "type": "address"
        },
        {
          "internalType": "address",
          "name": "receiver",
          "type": "address"
        },
        {
          "internalType": "uint256",
          "name": "nftid",
          "type": "uint256"
        },
        {
          "internalType": "uint256",
          "name": "price",
          "type": "uint256"
        }
      ],
      "name": "BuyNFT",
      "outputs": [],
      "stateMutability": "nonpayable",
      "type": "function"
    },
    {
      "inputs": [
        {
          "internalType": "address",
          "name": "sender",
          "type": "address"
        },
        {
          "internalType": "uint256",
          "name": "nftid",
          "type": "uint256"
        },
        {
          "internalType": "uint256",
          "name": "token",
          "type": "uint256"
        },
        {
          "internalType": "uint256",
          "name": "price",
          "type": "uint256"
        }
      ],
      "name": "SellNFT",
      "outputs": [],
      "stateMutability": "nonpayable",
      "type": "function"
    },
    {
      "inputs": [
        {
          "internalType": "uint256",
          "name": "",
          "type": "uint256"
        }
      ],
      "name": "SellNftList",
      "outputs": [
        {
          "internalType": "address",
          "name": "owner",
          "type": "address"
        },
        {
          "internalType": "uint256",
          "name": "nftid",
          "type": "uint256"
        }
      ],
      "stateMutability": "view",
      "type": "function"
    },
    {
      "inputs": [
        {
          "internalType": "address",
          "name": "account",
          "type": "address"
        },
        {
          "internalType": "uint256",
          "name": "id",
          "type": "uint256"
        }
      ],
      "name": "balanceOf",
      "outputs": [
        {
          "internalType": "uint256",
          "name": "",
          "type": "uint256"
        }
      ],
      "stateMutability": "view",
      "type": "function"
    },
    {
      "inputs": [
        {
          "internalType": "address[]",
          "name": "accounts",
          "type": "address[]"
        },
        {
          "internalType": "uint256[]",
          "name": "ids",
          "type": "uint256[]"
        }
      ],
      "name": "balanceOfBatch",
      "outputs": [
        {
          "internalType": "uint256[]",
          "name": "",
          "type": "uint256[]"
        }
      ],
      "stateMutability": "view",
      "type": "function"
    },
    {
      "inputs": [
        {
          "internalType": "uint256",
          "name": "nftid",
          "type": "uint256"
        },
        {
          "internalType": "address",
          "name": "sender",
          "type": "address"
        }
      ],
      "name": "cancelSale",
      "outputs": [],
      "stateMutability": "nonpayable",
      "type": "function"
    },
    {
      "inputs": [],
      "name": "getAllListedNFTIds",
      "outputs": [
        {
          "components": [
            {
              "internalType": "address",
              "name": "owner",
              "type": "address"
            },
            {
              "internalType": "uint256",
              "name": "nftid",
              "type": "uint256"
            }
          ],
          "internalType": "struct BingNFT.SellList[]",
          "name": "",
          "type": "tuple[]"
        }
      ],
      "stateMutability": "view",
      "type": "function"
    },
    {
      "inputs": [
        {
          "internalType": "address",
          "name": "user",
          "type": "address"
        }
      ],
      "name": "getAllTokenBalances",
      "outputs": [
        {
          "internalType": "uint256[]",
          "name": "tokenIds",
          "type": "uint256[]"
        },
        {
          "internalType": "uint256[]",
          "name": "balances",
          "type": "uint256[]"
        }
      ],
      "stateMutability": "view",
      "type": "function"
    },
    {
      "inputs": [
        {
          "internalType": "address",
          "name": "user",
          "type": "address"
        },
        {
          "internalType": "uint256",
          "name": "tknId",
          "type": "uint256"
        }
      ],
      "name": "getCurrentBalance",
      "outputs": [
        {
          "internalType": "uint256",
          "name": "",
          "type": "uint256"
        }
      ],
      "stateMutability": "view",
      "type": "function"
    },
    {
      "inputs": [
        {
          "internalType": "address",
          "name": "user",
          "type": "address"
        }
      ],
      "name": "getMintedTokens",
      "outputs": [
        {
          "internalType": "uint256[]",
          "name": "tokenIds",
          "type": "uint256[]"
        },
        {
          "internalType": "uint256[]",
          "name": "amounts",
          "type": "uint256[]"
        }
      ],
      "stateMutability": "view",
      "type": "function"
    },
    {
      "inputs": [
        {
          "internalType": "address",
          "name": "user",
          "type": "address"
        },
        {
          "internalType": "uint256",
          "name": "index",
          "type": "uint256"
        }
      ],
      "name": "getOwnerTokenAtIndex",
      "outputs": [
        {
          "internalType": "uint256",
          "name": "tokenid",
          "type": "uint256"
        },
        {
          "internalType": "uint256",
          "name": "amount",
          "type": "uint256"
        }
      ],
      "stateMutability": "view",
      "type": "function"
    },
    {
      "inputs": [
        {
          "internalType": "address",
          "name": "user",
          "type": "address"
        }
      ],
      "name": "getOwnerTokenCount",
      "outputs": [
        {
          "internalType": "uint256",
          "name": "",
          "type": "uint256"
        }
      ],
      "stateMutability": "view",
      "type": "function"
    },
    {
      "inputs": [
        {
          "internalType": "address",
          "name": "sender",
          "type": "address"
        },
        {
          "internalType": "uint256",
          "name": "item",
          "type": "uint256"
        }
      ],
      "name": "getall",
      "outputs": [
        {
          "components": [
            {
              "internalType": "address",
              "name": "seller",
              "type": "address"
            },
            {
              "internalType": "uint256",
              "name": "token",
              "type": "uint256"
            },
            {
              "internalType": "uint256",
              "name": "price",
              "type": "uint256"
            }
          ],
          "internalType": "struct BingNFT.Sellstake",
          "name": "",
          "type": "tuple"
        }
      ],
      "stateMutability": "view",
      "type": "function"
    },
    {
      "inputs": [
        {
          "internalType": "address",
          "name": "account",
          "type": "address"
        },
        {
          "internalType": "address",
          "name": "operator",
          "type": "address"
        }
      ],
      "name": "isApprovedForAll",
      "outputs": [
        {
          "internalType": "bool",
          "name": "",
          "type": "bool"
        }
      ],
      "stateMutability": "view",
      "type": "function"
    },
    {
      "inputs": [
        {
          "internalType": "address",
          "name": "",
          "type": "address"
        },
        {
          "internalType": "uint256",
          "name": "",
          "type": "uint256"
        }
      ],
      "name": "items",
      "outputs": [
        {
          "internalType": "address",
          "name": "seller",
          "type": "address"
        },
        {
          "internalType": "uint256",
          "name": "token",
          "type": "uint256"
        },
        {
          "internalType": "uint256",
          "name": "price",
          "type": "uint256"
        }
      ],
      "stateMutability": "view",
      "type": "function"
    },
    {
      "inputs": [
        {
          "internalType": "address",
          "name": "operator",
          "type": "address"
        },
        {
          "internalType": "address",
          "name": "from",
          "type": "address"
        },
        {
          "internalType": "uint256[]",
          "name": "ids",
          "type": "uint256[]"
        },
        {
          "internalType": "uint256[]",
          "name": "values",
          "type": "uint256[]"
        },
        {
          "internalType": "bytes",
          "name": "data",
          "type": "bytes"
        }
      ],
      "name": "onERC1155BatchReceived",
      "outputs": [
        {
          "internalType": "bytes4",
          "name": "",
          "type": "bytes4"
        }
      ],
      "stateMutability": "nonpayable",
      "type": "function"
    },
    {
      "inputs": [
        {
          "internalType": "address",
          "name": "operator",
          "type": "address"
        },
        {
          "internalType": "address",
          "name": "from",
          "type": "address"
        },
        {
          "internalType": "uint256",
          "name": "id",
          "type": "uint256"
        },
        {
          "internalType": "uint256",
          "name": "value",
          "type": "uint256"
        },
        {
          "internalType": "bytes",
          "name": "data",
          "type": "bytes"
        }
      ],
      "name": "onERC1155Received",
      "outputs": [
        {
          "internalType": "bytes4",
          "name": "",
          "type": "bytes4"
        }
      ],
      "stateMutability": "nonpayable",
      "type": "function"
    },
    {
      "inputs": [],
      "name": "owner",
      "outputs": [
        {
          "internalType": "address",
          "name": "",
          "type": "address"
        }
      ],
      "stateMutability": "view",
      "type": "function"
    },
    {
      "inputs": [],
      "name": "renounceOwnership",
      "outputs": [],
      "stateMutability": "nonpayable",
      "type": "function"
    },
    {
      "inputs": [
        {
          "internalType": "address",
          "name": "from",
          "type": "address"
        },
        {
          "internalType": "address",
          "name": "to",
          "type": "address"
        },
        {
          "internalType": "uint256[]",
          "name": "ids",
          "type": "uint256[]"
        },
        {
          "internalType": "uint256[]",
          "name": "values",
          "type": "uint256[]"
        },
        {
          "internalType": "bytes",
          "name": "data",
          "type": "bytes"
        }
      ],
      "name": "safeBatchTransferFrom",
      "outputs": [],
      "stateMutability": "nonpayable",
      "type": "function"
    },
    {
      "inputs": [
        {
          "internalType": "address",
          "name": "from",
          "type": "address"
        },
        {
          "internalType": "address",
          "name": "to",
          "type": "address"
        },
        {
          "internalType": "uint256",
          "name": "id",
          "type": "uint256"
        },
        {
          "internalType": "uint256",
          "name": "value",
          "type": "uint256"
        },
        {
          "internalType": "bytes",
          "name": "data",
          "type": "bytes"
        }
      ],
      "name": "safeTransferFrom",
      "outputs": [],
      "stateMutability": "nonpayable",
      "type": "function"
    },
    {
      "inputs": [
        {
          "internalType": "address",
          "name": "operator",
          "type": "address"
        },
        {
          "internalType": "bool",
          "name": "approved",
          "type": "bool"
        }
      ],
      "name": "setApprovalForAll",
      "outputs": [],
      "stateMutability": "nonpayable",
      "type": "function"
    },
    {
      "inputs": [
        {
          "internalType": "string",
          "name": "newuri",
          "type": "string"
        },
        {
          "internalType": "address",
          "name": "sender",
          "type": "address"
        }
      ],
      "name": "settokenURI",
      "outputs": [
        {
          "internalType": "uint256",
          "name": "",
          "type": "uint256"
        }
      ],
      "stateMutability": "nonpayable",
      "type": "function"
    },
    {
      "inputs": [
        {
          "internalType": "bytes4",
          "name": "interfaceId",
          "type": "bytes4"
        }
      ],
      "name": "supportsInterface",
      "outputs": [
        {
          "internalType": "bool",
          "name": "",
          "type": "bool"
        }
      ],
      "stateMutability": "view",
      "type": "function"
    },
    {
      "inputs": [
        {
          "internalType": "address",
          "name": "newOwner",
          "type": "address"
        }
      ],
      "name": "transferOwnership",
      "outputs": [],
      "stateMutability": "nonpayable",
      "type": "function"
    },
    {
      "inputs": [
        {
          "internalType": "uint256",
          "name": "tokenid",
          "type": "uint256"
        }
      ],
      "name": "uri",
      "outputs": [
        {
          "internalType": "string",
          "name": "",
          "type": "string"
        }
      ],
      "stateMutability": "view",
      "type": "function"
    },
    {
      "inputs": [
        {
          "internalType": "address",
          "name": "user",
          "type": "address"
        }
      ],
      "name": "userTokens",
      "outputs": [
        {
          "internalType": "uint256[]",
          "name": "",
          "type": "uint256[]"
        }
      ],
      "stateMutability": "view",
      "type": "function"
    }
  ],
  "bytecode": "0x608060405260405180606001604052806028815260200161526560289139600a908161002b9190610485565b5034801561003857600080fd5b5033600a80546100479061029e565b80601f01602080910402602001604051908101604052809291908181526020018280546100739061029e565b80156100c05780601f10610095576101008083540402835291602001916100c0565b820191906000526020600020905b8154815290600101906020018083116100a357829003601f168201915b50505050506100d48161015c60201b60201c565b50600073ffffffffffffffffffffffffffffffffffffffff168173ffffffffffffffffffffffffffffffffffffffff16036101475760006040517f1e4fbdf700000000000000000000000000000000000000000000000000000000815260040161013e9190610598565b60405180910390fd5b6101568161016f60201b60201c565b506105b3565b806002908161016b9190610485565b5050565b6000600360009054906101000a900473ffffffffffffffffffffffffffffffffffffffff16905081600360006101000a81548173ffffffffffffffffffffffffffffffffffffffff021916908373ffffffffffffffffffffffffffffffffffffffff1602179055508173ffffffffffffffffffffffffffffffffffffffff168173ffffffffffffffffffffffffffffffffffffffff167f8be0079c531659141344cd1fd0a4f28419497f9722a3daafe3b4186f6b6457e060405160405180910390a35050565b600081519050919050565b7f4e487b7100000000000000000000000000000000000000000000000000000000600052604160045260246000fd5b7f4e487b7100000000000000000000000000000000000000000000000000000000600052602260045260246000fd5b600060028204905060018216806102b657607f821691505b6020821081036102c9576102c861026f565b5b50919050565b60008190508160005260206000209050919050565b60006020601f8301049050919050565b600082821b905092915050565b6000600883026103317fffffffffffffffffffffffffffffffffffffffffffffffffffffffffffffffff826102f4565b61033b86836102f4565b95508019841693508086168417925050509392505050565b6000819050919050565b6000819050919050565b600061038261037d61037884610353565b61035d565b610353565b9050919050565b6000819050919050565b61039c83610367565b6103b06103a882610389565b848454610301565b825550505050565b600090565b6103c56103b8565b6103d0818484610393565b505050565b5b818110156103f4576103e96000826103bd565b6001810190506103d6565b5050565b601f8211156104395761040a816102cf565b610413846102e4565b81016020851015610422578190505b61043661042e856102e4565b8301826103d5565b50505b505050565b600082821c905092915050565b600061045c6000198460080261043e565b1980831691505092915050565b6000610475838361044b565b9150826002028217905092915050565b61048e82610235565b67ffffffffffffffff8111156104a7576104a6610240565b5b6104b1825461029e565b6104bc8282856103f8565b600060209050601f8311600181146104ef57600084156104dd578287015190505b6104e78582610469565b86555061054f565b601f1984166104fd866102cf565b60005b8281101561052557848901518255600182019150602085019450602081019050610500565b86831015610542578489015161053e601f89168261044b565b8355505b6001600288020188555050505b505050505050565b600073ffffffffffffffffffffffffffffffffffffffff82169050919050565b600061058282610557565b9050919050565b61059281610577565b82525050565b60006020820190506105ad6000830184610589565b92915050565b614ca3806105c26000396000f3fe608060405234801561001057600080fd5b50600436106101a75760003560e01c80638da5cb5b116100f9578063d80a08da11610097578063ed498fa811610071578063ed498fa814610554578063f23a6e6114610584578063f242432a146105b4578063f2fde38b146105d0576101a7565b8063d80a08da146104ec578063e356777414610508578063e985e9c514610524576101a7565b8063b901fed5116100d3578063b901fed51461043e578063bc197c811461045c578063cc0a48d41461048c578063d50bcc71146104bc576101a7565b80638da5cb5b146103d35780639145d133146103f1578063a22cb46514610422576101a7565b80634e1273f411610166578063681bec6c11610140578063681bec6c1461034c578063715018a61461037d57806375388a0f14610387578063813d2ad8146103b7576101a7565b80634e1273f4146102ba5780635491a99f146102ea5780635c80a4351461031a576101a7565b80628b96a1146101ac578062fdd58e146101dd57806301ffc9a71461020d5780630e89341c1461023d5780632eb2c2d61461026d578063434a49a114610289575b600080fd5b6101c660048036038101906101c191906131e7565b6105ec565b6040516101d4929190613264565b60405180910390f35b6101f760048036038101906101f291906132b9565b610640565b60405161020491906132f9565b60405180910390f35b6102276004803603810190610222919061336c565b61069a565b60405161023491906133b4565b60405180910390f35b610257600480360381019061025291906131e7565b610714565b604051610264919061345f565b60405180910390f35b6102876004803603810190610282919061367e565b610800565b005b6102a3600480360381019061029e919061374d565b6108a8565b6040516102b1929190613838565b60405180910390f35b6102d460048036038101906102cf9190613932565b610ab9565b6040516102e191906139aa565b60405180910390f35b61030460048036038101906102ff91906132b9565b610bc2565b6040516103119190613a1d565b60405180910390f35b610334600480360381019061032f91906132b9565b610c97565b60405161034393929190613a38565b60405180910390f35b6103666004803603810190610361919061374d565b610cee565b604051610374929190613838565b60405180910390f35b610385610eff565b005b6103a1600480360381019061039c91906132b9565b610f13565b6040516103ae91906132f9565b60405180910390f35b6103d160048036038101906103cc9190613a6f565b610f6e565b005b6103db611240565b6040516103e89190613aaf565b60405180910390f35b61040b600480360381019061040691906132b9565b61126a565b604051610419929190613aca565b60405180910390f35b61043c60048036038101906104379190613b1f565b6113a9565b005b6104466113bf565b6040516104539190613c3d565b60405180910390f35b61047660048036038101906104719190613d10565b61147e565b6040516104839190613dfb565b60405180910390f35b6104a660048036038101906104a19190613eb7565b611496565b6040516104b391906132f9565b60405180910390f35b6104d660048036038101906104d1919061374d565b61155d565b6040516104e391906132f9565b60405180910390f35b61050660048036038101906105019190613f13565b6115a9565b005b610522600480360381019061051d9190613f7a565b611a3c565b005b61053e60048036038101906105399190613fe1565b611d56565b60405161054b91906133b4565b60405180910390f35b61056e6004803603810190610569919061374d565b611dea565b60405161057b91906139aa565b60405180910390f35b61059e60048036038101906105999190614021565b611e81565b6040516105ab9190613dfb565b60405180910390f35b6105ce60048036038101906105c991906140bb565b611e97565b005b6105ea60048036038101906105e5919061374d565b611f3f565b005b600881815481106105fc57600080fd5b90600052602060002090600202016000915090508060000160009054906101000a900473ffffffffffffffffffffffffffffffffffffffff16908060010154905082565b600080600083815260200190815260200160002060008473ffffffffffffffffffffffffffffffffffffffff1673ffffffffffffffffffffffffffffffffffffffff16815260200190815260200160002054905092915050565b60007f4e2312e0000000000000000000000000000000000000000000000000000000007bffffffffffffffffffffffffffffffffffffffffffffffffffffffff1916827bffffffffffffffffffffffffffffffffffffffffffffffffffffffff1916148061070d575061070c82611fc5565b5b9050919050565b6060600060076000848152602001908152602001600020805461073690614181565b80601f016020809104026020016040519081016040528092919081815260200182805461076290614181565b80156107af5780601f10610784576101008083540402835291602001916107af565b820191906000526020600020905b81548152906001019060200180831161079257829003601f168201915b505050505090506000815111156107c957809150506107fb565b60006107d4846120a7565b9050806040516020016107e79190614286565b604051602081830303815290604052925050505b919050565b600061080a612175565b90508073ffffffffffffffffffffffffffffffffffffffff168673ffffffffffffffffffffffffffffffffffffffff161415801561084f575061084d8682611d56565b155b156108935780866040517fe237d92200000000000000000000000000000000000000000000000000000000815260040161088a9291906142b3565b60405180910390fd5b6108a0868686868661217d565b505050505050565b6060806000600660008573ffffffffffffffffffffffffffffffffffffffff1673ffffffffffffffffffffffffffffffffffffffff16815260200190815260200160002080548060200260200160405190810160405280929190818152602001828054801561093657602002820191906000526020600020905b815481526020019060010190808311610922575b50505050509050805167ffffffffffffffff81111561095857610957613486565b5b6040519080825280602002602001820160405280156109865781602001602082028036833780820191505090505b509250805167ffffffffffffffff8111156109a4576109a3613486565b5b6040519080825280602002602001820160405280156109d25781602001602082028036833780820191505090505b50915060005b8151811015610ab2578181815181106109f4576109f36142dc565b5b6020026020010151848281518110610a0f57610a0e6142dc565b5b602002602001018181525050600560008673ffffffffffffffffffffffffffffffffffffffff1673ffffffffffffffffffffffffffffffffffffffff1681526020019081526020016000206000838381518110610a6f57610a6e6142dc565b5b6020026020010151815260200190815260200160002054838281518110610a9957610a986142dc565b5b60200260200101818152505080806001019150506109d8565b5050915091565b60608151835114610b0557815183516040517f5b059991000000000000000000000000000000000000000000000000000000008152600401610afc929190613aca565b60405180910390fd5b6000835167ffffffffffffffff811115610b2257610b21613486565b5b604051908082528060200260200182016040528015610b505781602001602082028036833780820191505090505b50905060005b8451811015610bb757610b8d610b75828761227590919063ffffffff16565b610b88838761228990919063ffffffff16565b610640565b828281518110610ba057610b9f6142dc565b5b602002602001018181525050806001019050610b56565b508091505092915050565b610bca613166565b600460008473ffffffffffffffffffffffffffffffffffffffff1673ffffffffffffffffffffffffffffffffffffffff16815260200190815260200160002060008381526020019081526020016000206040518060600160405290816000820160009054906101000a900473ffffffffffffffffffffffffffffffffffffffff1673ffffffffffffffffffffffffffffffffffffffff1673ffffffffffffffffffffffffffffffffffffffff16815260200160018201548152602001600282015481525050905092915050565b6004602052816000526040600020602052806000526040600020600091509150508060000160009054906101000a900473ffffffffffffffffffffffffffffffffffffffff16908060010154908060020154905083565b6060806000600660008573ffffffffffffffffffffffffffffffffffffffff1673ffffffffffffffffffffffffffffffffffffffff168152602001908152602001600020805480602002602001604051908101604052809291908181526020018280548015610d7c57602002820191906000526020600020905b815481526020019060010190808311610d68575b50505050509050805167ffffffffffffffff811115610d9e57610d9d613486565b5b604051908082528060200260200182016040528015610dcc5781602001602082028036833780820191505090505b509250805167ffffffffffffffff811115610dea57610de9613486565b5b604051908082528060200260200182016040528015610e185781602001602082028036833780820191505090505b50915060005b8151811015610ef857818181518110610e3a57610e396142dc565b5b6020026020010151848281518110610e5557610e546142dc565b5b602002602001018181525050600560008673ffffffffffffffffffffffffffffffffffffffff1673ffffffffffffffffffffffffffffffffffffffff1681526020019081526020016000206000838381518110610eb557610eb46142dc565b5b6020026020010151815260200190815260200160002054838281518110610edf57610ede6142dc565b5b6020026020010181815250508080600101915050610e1e565b5050915091565b610f0761229d565b610f116000612324565b565b6000600560008473ffffffffffffffffffffffffffffffffffffffff1673ffffffffffffffffffffffffffffffffffffffff168152602001908152602001600020600083815260200190815260200160002054905092915050565b6000600460008373ffffffffffffffffffffffffffffffffffffffff1673ffffffffffffffffffffffffffffffffffffffff16815260200190815260200160002060008481526020019081526020016000206040518060600160405290816000820160009054906101000a900473ffffffffffffffffffffffffffffffffffffffff1673ffffffffffffffffffffffffffffffffffffffff1673ffffffffffffffffffffffffffffffffffffffff1681526020016001820154815260200160028201548152505090508173ffffffffffffffffffffffffffffffffffffffff16816000015173ffffffffffffffffffffffffffffffffffffffff16146110a9576040517f08c379a00000000000000000000000000000000000000000000000000000000081526004016110a090614357565b60405180910390fd5b600073ffffffffffffffffffffffffffffffffffffffff16816000015173ffffffffffffffffffffffffffffffffffffffff160361111c576040517f08c379a0000000000000000000000000000000000000000000000000000000008152600401611113906143c3565b60405180910390fd5b61113c3083858460200151604051806020016040528060008152506123ea565b8060200151600560008473ffffffffffffffffffffffffffffffffffffffff1673ffffffffffffffffffffffffffffffffffffffff168152602001908152602001600020600085815260200190815260200160002060008282546111a09190614412565b925050819055506111b182846124f5565b600460008373ffffffffffffffffffffffffffffffffffffffff1673ffffffffffffffffffffffffffffffffffffffff1681526020019081526020016000206000848152602001908152602001600020600080820160006101000a81549073ffffffffffffffffffffffffffffffffffffffff0219169055600182016000905560028201600090555050505050565b6000600360009054906101000a900473ffffffffffffffffffffffffffffffffffffffff16905090565b600080600660008573ffffffffffffffffffffffffffffffffffffffff1673ffffffffffffffffffffffffffffffffffffffff1681526020019081526020016000208054905083106112f1576040517f08c379a00000000000000000000000000000000000000000000000000000000081526004016112e890614492565b60405180910390fd5b600660008573ffffffffffffffffffffffffffffffffffffffff1673ffffffffffffffffffffffffffffffffffffffff1681526020019081526020016000208381548110611342576113416142dc565b5b90600052602060002001549150600560008573ffffffffffffffffffffffffffffffffffffffff1673ffffffffffffffffffffffffffffffffffffffff16815260200190815260200160002060008381526020019081526020016000205490509250929050565b6113bb6113b4612175565b83836125ae565b5050565b60606008805480602002602001604051908101604052809291908181526020016000905b8282101561147557838290600052602060002090600202016040518060400160405290816000820160009054906101000a900473ffffffffffffffffffffffffffffffffffffffff1673ffffffffffffffffffffffffffffffffffffffff1673ffffffffffffffffffffffffffffffffffffffff168152602001600182015481525050815260200190600101906113e3565b50505050905090565b600063bc197c8160e01b905098975050505050505050565b60008060095490506114ba838260646040518060200160405280600081525061271e565b836007600083815260200190815260200160002090816114da919061465e565b506064600560008573ffffffffffffffffffffffffffffffffffffffff1673ffffffffffffffffffffffffffffffffffffffff16815260200190815260200160002060008381526020019081526020016000208190555061153b83826124f5565b6009600081548092919061154e90614730565b91905055508091505092915050565b6000600660008373ffffffffffffffffffffffffffffffffffffffff1673ffffffffffffffffffffffffffffffffffffffff168152602001908152602001600020805490509050919050565b816115b48585610640565b10156115f5576040517f08c379a00000000000000000000000000000000000000000000000000000000081526004016115ec906147c4565b60405180910390fd5b60008111611638576040517f08c379a000000000000000000000000000000000000000000000000000000000815260040161162f90614830565b60405180910390fd5b600073ffffffffffffffffffffffffffffffffffffffff16600460008673ffffffffffffffffffffffffffffffffffffffff1673ffffffffffffffffffffffffffffffffffffffff168152602001908152602001600020600085815260200190815260200160002060000160009054906101000a900473ffffffffffffffffffffffffffffffffffffffff1673ffffffffffffffffffffffffffffffffffffffff161461171a576040517f08c379a00000000000000000000000000000000000000000000000000000000081526004016117119061489c565b60405180910390fd5b6000821161175d576040517f08c379a000000000000000000000000000000000000000000000000000000000815260040161175490614908565b60405180910390fd5b81600560008673ffffffffffffffffffffffffffffffffffffffff1673ffffffffffffffffffffffffffffffffffffffff16815260200190815260200160002060008581526020019081526020016000205410156117f0576040517f08c379a00000000000000000000000000000000000000000000000000000000081526004016117e790614974565b60405180910390fd5b61180c84308585604051806020016040528060008152506123ea565b81600560008673ffffffffffffffffffffffffffffffffffffffff1673ffffffffffffffffffffffffffffffffffffffff1681526020019081526020016000206000858152602001908152602001600020600082825461186c9190614994565b9250508190555060405180606001604052808573ffffffffffffffffffffffffffffffffffffffff16815260200183815260200182815250600460008673ffffffffffffffffffffffffffffffffffffffff1673ffffffffffffffffffffffffffffffffffffffff168152602001908152602001600020600085815260200190815260200160002060008201518160000160006101000a81548173ffffffffffffffffffffffffffffffffffffffff021916908373ffffffffffffffffffffffffffffffffffffffff1602179055506020820151816001015560408201518160020155905050600860405180604001604052808673ffffffffffffffffffffffffffffffffffffffff16815260200185815250908060018154018082558091505060019003906000526020600020906002020160009091909190915060008201518160000160006101000a81548173ffffffffffffffffffffffffffffffffffffffff021916908373ffffffffffffffffffffffffffffffffffffffff1602179055506020820151816001015550507feba8cee8f0a2ab7b4cc8e75d10eae88eb6b625a15419821b6676d03a57ad7762848383604051611a2e93929190613a38565b60405180910390a150505050565b6000600460008673ffffffffffffffffffffffffffffffffffffffff1673ffffffffffffffffffffffffffffffffffffffff16815260200190815260200160002060008481526020019081526020016000206040518060600160405290816000820160009054906101000a900473ffffffffffffffffffffffffffffffffffffffff1673ffffffffffffffffffffffffffffffffffffffff1673ffffffffffffffffffffffffffffffffffffffff16815260200160018201548152602001600282015481525050905081816040015114611b4b576040517f08c379a0000000000000000000000000000000000000000000000000000000008152600401611b4290614a14565b60405180910390fd5b806000015173ffffffffffffffffffffffffffffffffffffffff168473ffffffffffffffffffffffffffffffffffffffff1603611bbd576040517f08c379a0000000000000000000000000000000000000000000000000000000008152600401611bb490614a80565b60405180910390fd5b600073ffffffffffffffffffffffffffffffffffffffff16816000015173ffffffffffffffffffffffffffffffffffffffff1603611c30576040517f08c379a0000000000000000000000000000000000000000000000000000000008152600401611c27906143c3565b60405180910390fd5b611c503086858460200151604051806020016040528060008152506123ea565b8060200151600560008673ffffffffffffffffffffffffffffffffffffffff1673ffffffffffffffffffffffffffffffffffffffff16815260200190815260200160002060008581526020019081526020016000206000828254611cb49190614412565b92505081905550611cc584846124f5565b600460008673ffffffffffffffffffffffffffffffffffffffff1673ffffffffffffffffffffffffffffffffffffffff1681526020019081526020016000206000848152602001908152602001600020600080820160006101000a81549073ffffffffffffffffffffffffffffffffffffffff02191690556001820160009055600282016000905550505050505050565b6000600160008473ffffffffffffffffffffffffffffffffffffffff1673ffffffffffffffffffffffffffffffffffffffff16815260200190815260200160002060008373ffffffffffffffffffffffffffffffffffffffff1673ffffffffffffffffffffffffffffffffffffffff16815260200190815260200160002060009054906101000a900460ff16905092915050565b6060600660008373ffffffffffffffffffffffffffffffffffffffff1673ffffffffffffffffffffffffffffffffffffffff168152602001908152602001600020805480602002602001604051908101604052809291908181526020018280548015611e7557602002820191906000526020600020905b815481526020019060010190808311611e61575b50505050509050919050565b600063f23a6e6160e01b90509695505050505050565b6000611ea1612175565b90508073ffffffffffffffffffffffffffffffffffffffff168673ffffffffffffffffffffffffffffffffffffffff1614158015611ee65750611ee48682611d56565b155b15611f2a5780866040517fe237d922000000000000000000000000000000000000000000000000000000008152600401611f219291906142b3565b60405180910390fd5b611f3786868686866123ea565b505050505050565b611f4761229d565b600073ffffffffffffffffffffffffffffffffffffffff168173ffffffffffffffffffffffffffffffffffffffff1603611fb95760006040517f1e4fbdf7000000000000000000000000000000000000000000000000000000008152600401611fb09190613aaf565b60405180910390fd5b611fc281612324565b50565b60007fd9b67a26000000000000000000000000000000000000000000000000000000007bffffffffffffffffffffffffffffffffffffffffffffffffffffffff1916827bffffffffffffffffffffffffffffffffffffffffffffffffffffffff1916148061209057507f0e89341c000000000000000000000000000000000000000000000000000000007bffffffffffffffffffffffffffffffffffffffffffffffffffffffff1916827bffffffffffffffffffffffffffffffffffffffffffffffffffffffff1916145b806120a0575061209f826127b7565b5b9050919050565b6060600060016120b684612821565b01905060008167ffffffffffffffff8111156120d5576120d4613486565b5b6040519080825280601f01601f1916602001820160405280156121075781602001600182028036833780820191505090505b509050600082602001820190505b60011561216a578080600190039150507f3031323334353637383961626364656600000000000000000000000000000000600a86061a8153600a858161215e5761215d614aa0565b5b04945060008503612115575b819350505050919050565b600033905090565b600073ffffffffffffffffffffffffffffffffffffffff168473ffffffffffffffffffffffffffffffffffffffff16036121ef5760006040517f57f447ce0000000000000000000000000000000000000000000000000000000081526004016121e69190613aaf565b60405180910390fd5b600073ffffffffffffffffffffffffffffffffffffffff168573ffffffffffffffffffffffffffffffffffffffff16036122615760006040517f01a835140000000000000000000000000000000000000000000000000000000081526004016122589190613aaf565b60405180910390fd5b61226e8585858585612974565b5050505050565b600060208202602084010151905092915050565b600060208202602084010151905092915050565b6122a5612175565b73ffffffffffffffffffffffffffffffffffffffff166122c3611240565b73ffffffffffffffffffffffffffffffffffffffff1614612322576122e6612175565b6040517f118cdaa70000000000000000000000000000000000000000000000000000000081526004016123199190613aaf565b60405180910390fd5b565b6000600360009054906101000a900473ffffffffffffffffffffffffffffffffffffffff16905081600360006101000a81548173ffffffffffffffffffffffffffffffffffffffff021916908373ffffffffffffffffffffffffffffffffffffffff1602179055508173ffffffffffffffffffffffffffffffffffffffff168173ffffffffffffffffffffffffffffffffffffffff167f8be0079c531659141344cd1fd0a4f28419497f9722a3daafe3b4186f6b6457e060405160405180910390a35050565b600073ffffffffffffffffffffffffffffffffffffffff168473ffffffffffffffffffffffffffffffffffffffff160361245c5760006040517f57f447ce0000000000000000000000000000000000000000000000000000000081526004016124539190613aaf565b60405180910390fd5b600073ffffffffffffffffffffffffffffffffffffffff168573ffffffffffffffffffffffffffffffffffffffff16036124ce5760006040517f01a835140000000000000000000000000000000000000000000000000000000081526004016124c59190613aaf565b60405180910390fd5b6000806124db8585612a26565b915091506124ec8787848487612974565b50505050505050565b6000600660008473ffffffffffffffffffffffffffffffffffffffff1673ffffffffffffffffffffffffffffffffffffffff168152602001908152602001600020905060005b818054905081101561257f578282828154811061255b5761255a6142dc565b5b9060005260206000200154036125725750506125aa565b808060010191505061253b565b5080829080600181540180825580915050600190039060005260206000200160009091909190915055505b5050565b600073ffffffffffffffffffffffffffffffffffffffff168273ffffffffffffffffffffffffffffffffffffffff16036126205760006040517fced3e1000000000000000000000000000000000000000000000000000000000081526004016126179190613aaf565b60405180910390fd5b80600160008573ffffffffffffffffffffffffffffffffffffffff1673ffffffffffffffffffffffffffffffffffffffff16815260200190815260200160002060008473ffffffffffffffffffffffffffffffffffffffff1673ffffffffffffffffffffffffffffffffffffffff16815260200190815260200160002060006101000a81548160ff0219169083151502179055508173ffffffffffffffffffffffffffffffffffffffff168373ffffffffffffffffffffffffffffffffffffffff167f17307eab39ab6107e8899845ad3d59bd9653f200f220920489ca2b5937696c318360405161271191906133b4565b60405180910390a3505050565b600073ffffffffffffffffffffffffffffffffffffffff168473ffffffffffffffffffffffffffffffffffffffff16036127905760006040517f57f447ce0000000000000000000000000000000000000000000000000000000081526004016127879190613aaf565b60405180910390fd5b60008061279d8585612a26565b915091506127af600087848487612974565b505050505050565b60007f01ffc9a7000000000000000000000000000000000000000000000000000000007bffffffffffffffffffffffffffffffffffffffffffffffffffffffff1916827bffffffffffffffffffffffffffffffffffffffffffffffffffffffff1916149050919050565b600080600090507a184f03e93ff9f4daa797ed6e38ed64bf6a1f010000000000000000831061287f577a184f03e93ff9f4daa797ed6e38ed64bf6a1f010000000000000000838161287557612874614aa0565b5b0492506040810190505b6d04ee2d6d415b85acef810000000083106128bc576d04ee2d6d415b85acef810000000083816128b2576128b1614aa0565b5b0492506020810190505b662386f26fc1000083106128eb57662386f26fc1000083816128e1576128e0614aa0565b5b0492506010810190505b6305f5e1008310612914576305f5e100838161290a57612909614aa0565b5b0492506008810190505b612710831061293957612710838161292f5761292e614aa0565b5b0492506004810190505b6064831061295c576064838161295257612951614aa0565b5b0492506002810190505b600a831061296b576001810190505b80915050919050565b61298085858585612a56565b600073ffffffffffffffffffffffffffffffffffffffff168473ffffffffffffffffffffffffffffffffffffffff1614612a1f5760006129be612175565b90506001845103612a0e5760006129df60008661228990919063ffffffff16565b905060006129f760008661228990919063ffffffff16565b9050612a07838989858589612dfe565b5050612a1d565b612a1c818787878787612fb2565b5b505b5050505050565b60608060405191506001825283602083015260408201905060018152826020820152604081016040529250929050565b8051825114612aa057815181516040517f5b059991000000000000000000000000000000000000000000000000000000008152600401612a97929190613aca565b60405180910390fd5b6000612aaa612175565b905060005b8351811015612cb9576000612acd828661228990919063ffffffff16565b90506000612ae4838661228990919063ffffffff16565b9050600073ffffffffffffffffffffffffffffffffffffffff168873ffffffffffffffffffffffffffffffffffffffff1614612c1157600080600084815260200190815260200160002060008a73ffffffffffffffffffffffffffffffffffffffff1673ffffffffffffffffffffffffffffffffffffffff16815260200190815260200160002054905081811015612bb957888183856040517f03dee4c5000000000000000000000000000000000000000000000000000000008152600401612bb09493929190614acf565b60405180910390fd5b81810360008085815260200190815260200160002060008b73ffffffffffffffffffffffffffffffffffffffff1673ffffffffffffffffffffffffffffffffffffffff16815260200190815260200160002081905550505b600073ffffffffffffffffffffffffffffffffffffffff168773ffffffffffffffffffffffffffffffffffffffff1614612cac578060008084815260200190815260200160002060008973ffffffffffffffffffffffffffffffffffffffff1673ffffffffffffffffffffffffffffffffffffffff1681526020019081526020016000206000828254612ca49190614412565b925050819055505b5050806001019050612aaf565b506001835103612d78576000612cd960008561228990919063ffffffff16565b90506000612cf160008561228990919063ffffffff16565b90508573ffffffffffffffffffffffffffffffffffffffff168773ffffffffffffffffffffffffffffffffffffffff168473ffffffffffffffffffffffffffffffffffffffff167fc3d58168c5ae7397731d063d5bbf3d657854427343f4c083240f7aacaa2d0f628585604051612d69929190613aca565b60405180910390a45050612df7565b8373ffffffffffffffffffffffffffffffffffffffff168573ffffffffffffffffffffffffffffffffffffffff168273ffffffffffffffffffffffffffffffffffffffff167f4a39dc06d4c0dbc64b70af90fd698a233a518aa5d07e595d983b8c0526c8f7fb8686604051612dee929190613838565b60405180910390a45b5050505050565b60008473ffffffffffffffffffffffffffffffffffffffff163b1115612faa578373ffffffffffffffffffffffffffffffffffffffff1663f23a6e6187878686866040518663ffffffff1660e01b8152600401612e5f959493929190614b69565b6020604051808303816000875af1925050508015612e9b57506040513d601f19601f82011682018060405250810190612e989190614bd8565b60015b612f1f573d8060008114612ecb576040519150601f19603f3d011682016040523d82523d6000602084013e612ed0565b606091505b506000815103612f1757846040517f57f447ce000000000000000000000000000000000000000000000000000000008152600401612f0e9190613aaf565b60405180910390fd5b805181602001fd5b63f23a6e6160e01b7bffffffffffffffffffffffffffffffffffffffffffffffffffffffff1916817bffffffffffffffffffffffffffffffffffffffffffffffffffffffff191614612fa857846040517f57f447ce000000000000000000000000000000000000000000000000000000008152600401612f9f9190613aaf565b60405180910390fd5b505b505050505050565b60008473ffffffffffffffffffffffffffffffffffffffff163b111561315e578373ffffffffffffffffffffffffffffffffffffffff1663bc197c8187878686866040518663ffffffff1660e01b8152600401613013959493929190614c05565b6020604051808303816000875af192505050801561304f57506040513d601f19601f8201168201806040525081019061304c9190614bd8565b60015b6130d3573d806000811461307f576040519150601f19603f3d011682016040523d82523d6000602084013e613084565b606091505b5060008151036130cb57846040517f57f447ce0000000000000000000000000000000000000000000000000000000081526004016130c29190613aaf565b60405180910390fd5b805181602001fd5b63bc197c8160e01b7bffffffffffffffffffffffffffffffffffffffffffffffffffffffff1916817bffffffffffffffffffffffffffffffffffffffffffffffffffffffff19161461315c57846040517f57f447ce0000000000000000000000000000000000000000000000000000000081526004016131539190613aaf565b60405180910390fd5b505b505050505050565b6040518060600160405280600073ffffffffffffffffffffffffffffffffffffffff16815260200160008152602001600081525090565b6000604051905090565b600080fd5b600080fd5b6000819050919050565b6131c4816131b1565b81146131cf57600080fd5b50565b6000813590506131e1816131bb565b92915050565b6000602082840312156131fd576131fc6131a7565b5b600061320b848285016131d2565b91505092915050565b600073ffffffffffffffffffffffffffffffffffffffff82169050919050565b600061323f82613214565b9050919050565b61324f81613234565b82525050565b61325e816131b1565b82525050565b60006040820190506132796000830185613246565b6132866020830184613255565b9392505050565b61329681613234565b81146132a157600080fd5b50565b6000813590506132b38161328d565b92915050565b600080604083850312156132d0576132cf6131a7565b5b60006132de858286016132a4565b92505060206132ef858286016131d2565b9150509250929050565b600060208201905061330e6000830184613255565b92915050565b60007fffffffff0000000000000000000000000000000000000000000000000000000082169050919050565b61334981613314565b811461335457600080fd5b50565b60008135905061336681613340565b92915050565b600060208284031215613382576133816131a7565b5b600061339084828501613357565b91505092915050565b60008115159050919050565b6133ae81613399565b82525050565b60006020820190506133c960008301846133a5565b92915050565b600081519050919050565b600082825260208201905092915050565b60005b838110156134095780820151818401526020810190506133ee565b60008484015250505050565b6000601f19601f8301169050919050565b6000613431826133cf565b61343b81856133da565b935061344b8185602086016133eb565b61345481613415565b840191505092915050565b600060208201905081810360008301526134798184613426565b905092915050565b600080fd5b7f4e487b7100000000000000000000000000000000000000000000000000000000600052604160045260246000fd5b6134be82613415565b810181811067ffffffffffffffff821117156134dd576134dc613486565b5b80604052505050565b60006134f061319d565b90506134fc82826134b5565b919050565b600067ffffffffffffffff82111561351c5761351b613486565b5b602082029050602081019050919050565b600080fd5b600061354561354084613501565b6134e6565b905080838252602082019050602084028301858111156135685761356761352d565b5b835b81811015613591578061357d88826131d2565b84526020840193505060208101905061356a565b5050509392505050565b600082601f8301126135b0576135af613481565b5b81356135c0848260208601613532565b91505092915050565b600080fd5b600067ffffffffffffffff8211156135e9576135e8613486565b5b6135f282613415565b9050602081019050919050565b82818337600083830152505050565b600061362161361c846135ce565b6134e6565b90508281526020810184848401111561363d5761363c6135c9565b5b6136488482856135ff565b509392505050565b600082601f83011261366557613664613481565b5b813561367584826020860161360e565b91505092915050565b600080600080600060a0868803121561369a576136996131a7565b5b60006136a8888289016132a4565b95505060206136b9888289016132a4565b945050604086013567ffffffffffffffff8111156136da576136d96131ac565b5b6136e68882890161359b565b935050606086013567ffffffffffffffff811115613707576137066131ac565b5b6137138882890161359b565b925050608086013567ffffffffffffffff811115613734576137336131ac565b5b61374088828901613650565b9150509295509295909350565b600060208284031215613763576137626131a7565b5b6000613771848285016132a4565b91505092915050565b600081519050919050565b600082825260208201905092915050565b6000819050602082019050919050565b6137af816131b1565b82525050565b60006137c183836137a6565b60208301905092915050565b6000602082019050919050565b60006137e58261377a565b6137ef8185613785565b93506137fa83613796565b8060005b8381101561382b57815161381288826137b5565b975061381d836137cd565b9250506001810190506137fe565b5085935050505092915050565b6000604082019050818103600083015261385281856137da565b9050818103602083015261386681846137da565b90509392505050565b600067ffffffffffffffff82111561388a57613889613486565b5b602082029050602081019050919050565b60006138ae6138a98461386f565b6134e6565b905080838252602082019050602084028301858111156138d1576138d061352d565b5b835b818110156138fa57806138e688826132a4565b8452602084019350506020810190506138d3565b5050509392505050565b600082601f83011261391957613918613481565b5b813561392984826020860161389b565b91505092915050565b60008060408385031215613949576139486131a7565b5b600083013567ffffffffffffffff811115613967576139666131ac565b5b61397385828601613904565b925050602083013567ffffffffffffffff811115613994576139936131ac565b5b6139a08582860161359b565b9150509250929050565b600060208201905081810360008301526139c481846137da565b905092915050565b6139d581613234565b82525050565b6060820160008201516139f160008501826139cc565b506020820151613a0460208501826137a6565b506040820151613a1760408501826137a6565b50505050565b6000606082019050613a3260008301846139db565b92915050565b6000606082019050613a4d6000830186613246565b613a5a6020830185613255565b613a676040830184613255565b949350505050565b60008060408385031215613a8657613a856131a7565b5b6000613a94858286016131d2565b9250506020613aa5858286016132a4565b9150509250929050565b6000602082019050613ac46000830184613246565b92915050565b6000604082019050613adf6000830185613255565b613aec6020830184613255565b9392505050565b613afc81613399565b8114613b0757600080fd5b50565b600081359050613b1981613af3565b92915050565b60008060408385031215613b3657613b356131a7565b5b6000613b44858286016132a4565b9250506020613b5585828601613b0a565b9150509250929050565b600081519050919050565b600082825260208201905092915050565b6000819050602082019050919050565b604082016000820151613ba160008501826139cc565b506020820151613bb460208501826137a6565b50505050565b6000613bc68383613b8b565b60408301905092915050565b6000602082019050919050565b6000613bea82613b5f565b613bf48185613b6a565b9350613bff83613b7b565b8060005b83811015613c30578151613c178882613bba565b9750613c2283613bd2565b925050600181019050613c03565b5085935050505092915050565b60006020820190508181036000830152613c578184613bdf565b905092915050565b600080fd5b60008083601f840112613c7a57613c79613481565b5b8235905067ffffffffffffffff811115613c9757613c96613c5f565b5b602083019150836020820283011115613cb357613cb261352d565b5b9250929050565b60008083601f840112613cd057613ccf613481565b5b8235905067ffffffffffffffff811115613ced57613cec613c5f565b5b602083019150836001820283011115613d0957613d0861352d565b5b9250929050565b60008060008060008060008060a0898b031215613d3057613d2f6131a7565b5b6000613d3e8b828c016132a4565b9850506020613d4f8b828c016132a4565b975050604089013567ffffffffffffffff811115613d7057613d6f6131ac565b5b613d7c8b828c01613c64565b9650965050606089013567ffffffffffffffff811115613d9f57613d9e6131ac565b5b613dab8b828c01613c64565b9450945050608089013567ffffffffffffffff811115613dce57613dcd6131ac565b5b613dda8b828c01613cba565b92509250509295985092959890939650565b613df581613314565b82525050565b6000602082019050613e106000830184613dec565b92915050565b600067ffffffffffffffff821115613e3157613e30613486565b5b613e3a82613415565b9050602081019050919050565b6000613e5a613e5584613e16565b6134e6565b905082815260208101848484011115613e7657613e756135c9565b5b613e818482856135ff565b509392505050565b600082601f830112613e9e57613e9d613481565b5b8135613eae848260208601613e47565b91505092915050565b60008060408385031215613ece57613ecd6131a7565b5b600083013567ffffffffffffffff811115613eec57613eeb6131ac565b5b613ef885828601613e89565b9250506020613f09858286016132a4565b9150509250929050565b60008060008060808587031215613f2d57613f2c6131a7565b5b6000613f3b878288016132a4565b9450506020613f4c878288016131d2565b9350506040613f5d878288016131d2565b9250506060613f6e878288016131d2565b91505092959194509250565b60008060008060808587031215613f9457613f936131a7565b5b6000613fa2878288016132a4565b9450506020613fb3878288016132a4565b9350506040613fc4878288016131d2565b9250506060613fd5878288016131d2565b91505092959194509250565b60008060408385031215613ff857613ff76131a7565b5b6000614006858286016132a4565b9250506020614017858286016132a4565b9150509250929050565b60008060008060008060a0878903121561403e5761403d6131a7565b5b600061404c89828a016132a4565b965050602061405d89828a016132a4565b955050604061406e89828a016131d2565b945050606061407f89828a016131d2565b935050608087013567ffffffffffffffff8111156140a05761409f6131ac565b5b6140ac89828a01613cba565b92509250509295509295509295565b600080600080600060a086880312156140d7576140d66131a7565b5b60006140e5888289016132a4565b95505060206140f6888289016132a4565b9450506040614107888289016131d2565b9350506060614118888289016131d2565b925050608086013567ffffffffffffffff811115614139576141386131ac565b5b61414588828901613650565b9150509295509295909350565b7f4e487b7100000000000000000000000000000000000000000000000000000000600052602260045260246000fd5b6000600282049050600182168061419957607f821691505b6020821081036141ac576141ab614152565b5b50919050565b600081905092915050565b7f68747470733a2f2f6d7970726f6a6563742e636f6d2f6d657461646174612f00600082015250565b60006141f3601f836141b2565b91506141fe826141bd565b601f82019050919050565b6000614214826133cf565b61421e81856141b2565b935061422e8185602086016133eb565b80840191505092915050565b7f2e6a736f6e000000000000000000000000000000000000000000000000000000600082015250565b60006142706005836141b2565b915061427b8261423a565b600582019050919050565b6000614291826141e6565b915061429d8284614209565b91506142a882614263565b915081905092915050565b60006040820190506142c86000830185613246565b6142d56020830184613246565b9392505050565b7f4e487b7100000000000000000000000000000000000000000000000000000000600052603260045260246000fd5b7f4f6e6c792073656c6c65722063616e2063616e63656c00000000000000000000600082015250565b60006143416016836133da565b915061434c8261430b565b602082019050919050565b6000602082019050818103600083015261437081614334565b9050919050565b7f4e4654206e6f7420666f722073616c6500000000000000000000000000000000600082015250565b60006143ad6010836133da565b91506143b882614377565b602082019050919050565b600060208201905081810360008301526143dc816143a0565b9050919050565b7f4e487b7100000000000000000000000000000000000000000000000000000000600052601160045260246000fd5b600061441d826131b1565b9150614428836131b1565b92508282019050808211156144405761443f6143e3565b5b92915050565b7f496e646578206f7574206f6620626f756e647300000000000000000000000000600082015250565b600061447c6013836133da565b915061448782614446565b602082019050919050565b600060208201905081810360008301526144ab8161446f565b9050919050565b60008190508160005260206000209050919050565b60006020601f8301049050919050565b600082821b905092915050565b6000600883026145147fffffffffffffffffffffffffffffffffffffffffffffffffffffffffffffffff826144d7565b61451e86836144d7565b95508019841693508086168417925050509392505050565b6000819050919050565b600061455b614556614551846131b1565b614536565b6131b1565b9050919050565b6000819050919050565b61457583614540565b61458961458182614562565b8484546144e4565b825550505050565b600090565b61459e614591565b6145a981848461456c565b505050565b5b818110156145cd576145c2600082614596565b6001810190506145af565b5050565b601f821115614612576145e3816144b2565b6145ec846144c7565b810160208510156145fb578190505b61460f614607856144c7565b8301826145ae565b50505b505050565b600082821c905092915050565b600061463560001984600802614617565b1980831691505092915050565b600061464e8383614624565b9150826002028217905092915050565b614667826133cf565b67ffffffffffffffff8111156146805761467f613486565b5b61468a8254614181565b6146958282856145d1565b600060209050601f8311600181146146c857600084156146b6578287015190505b6146c08582614642565b865550614728565b601f1984166146d6866144b2565b60005b828110156146fe578489015182556001820191506020850194506020810190506146d9565b8683101561471b5784890151614717601f891682614624565b8355505b6001600288020188555050505b505050505050565b600061473b826131b1565b91507fffffffffffffffffffffffffffffffffffffffffffffffffffffffffffffffff820361476d5761476c6143e3565b5b600182019050919050565b7f496e73756666696369656e7420746f6b656e7300000000000000000000000000600082015250565b60006147ae6013836133da565b91506147b982614778565b602082019050919050565b600060208201905081810360008301526147dd816147a1565b9050919050565b7f5072696365206d7573742062652067726561746572207468616e203000000000600082015250565b600061481a601c836133da565b9150614825826147e4565b602082019050919050565b600060208201905081810360008301526148498161480d565b9050919050565b7f4e465420616c726561647920666f722073616c65000000000000000000000000600082015250565b60006148866014836133da565b915061489182614850565b602082019050919050565b600060208201905081810360008301526148b581614879565b9050919050565b7f4d7573742073656c6c206174206c65617374203120746f6b656e000000000000600082015250565b60006148f2601a836133da565b91506148fd826148bc565b602082019050919050565b60006020820190508181036000830152614921816148e5565b9050919050565b7f4e6f7420656e6f75676820746f6b656e73000000000000000000000000000000600082015250565b600061495e6011836133da565b915061496982614928565b602082019050919050565b6000602082019050818103600083015261498d81614951565b9050919050565b600061499f826131b1565b91506149aa836131b1565b92508282039050818111156149c2576149c16143e3565b5b92915050565b7f496e636f72726563742070726963650000000000000000000000000000000000600082015250565b60006149fe600f836133da565b9150614a09826149c8565b602082019050919050565b60006020820190508181036000830152614a2d816149f1565b9050919050565b7f43616e6e6f742062757920796f7572206f776e204e4654000000000000000000600082015250565b6000614a6a6017836133da565b9150614a7582614a34565b602082019050919050565b60006020820190508181036000830152614a9981614a5d565b9050919050565b7f4e487b7100000000000000000000000000000000000000000000000000000000600052601260045260246000fd5b6000608082019050614ae46000830187613246565b614af16020830186613255565b614afe6040830185613255565b614b0b6060830184613255565b95945050505050565b600081519050919050565b600082825260208201905092915050565b6000614b3b82614b14565b614b458185614b1f565b9350614b558185602086016133eb565b614b5e81613415565b840191505092915050565b600060a082019050614b7e6000830188613246565b614b8b6020830187613246565b614b986040830186613255565b614ba56060830185613255565b8181036080830152614bb78184614b30565b90509695505050505050565b600081519050614bd281613340565b92915050565b600060208284031215614bee57614bed6131a7565b5b6000614bfc84828501614bc3565b91505092915050565b600060a082019050614c1a6000830188613246565b614c276020830187613246565b8181036040830152614c3981866137da565b90508181036060830152614c4d81856137da565b90508181036080830152614c618184614b30565b9050969550505050505056fea264697066735822122055d8bbd4e5f9102e0a47f0a7f9a6de99394e7e33f24e7217ca025cba1f7677c864736f6c634300081e003368747470733a2f2f6d7970726f6a6563742e636f6d2f6d657461646174612f7b69647d2e6a736f6e",
  "linkReferences": {},
  "deployedLinkReferences": {}
}