{
  "_format": "hh-sol-artifact-1",
  "contractName": "BingNFT",
  "sourceName": "contracts/BingNFt.sol",
  "abi": [
    {
      "inputs": [],
      "stateMutability": "nonpayable",
      "type": "constructor"
    },
    {
      "inputs": [
        {
          "internalType": "address",
          "name": "sender",
          "type": "address"
        },
        {
          "internalType": "uint256",
          "name": "balance",
          "type": "uint256"
        },
        {
          "internalType": "uint256",
          "name": "needed",
          "type": "uint256"
        },
        {
          "internalType": "uint256",
          "name": "tokenId",
          "type": "uint256"
        }
      ],
      "name": "ERC1155InsufficientBalance",
      "type": "error"
    },
    {
      "inputs": [
        {
          "internalType": "address",
          "name": "approver",
          "type": "address"
        }
      ],
      "name": "ERC1155InvalidApprover",
      "type": "error"
    },
    {
      "inputs": [
        {
          "internalType": "uint256",
          "name": "idsLength",
          "type": "uint256"
        },
        {
          "internalType": "uint256",
          "name": "valuesLength",
          "type": "uint256"
        }
      ],
      "name": "ERC1155InvalidArrayLength",
      "type": "error"
    },
    {
      "inputs": [
        {
          "internalType": "address",
          "name": "operator",
          "type": "address"
        }
      ],
      "name": "ERC1155InvalidOperator",
      "type": "error"
    },
    {
      "inputs": [
        {
          "internalType": "address",
          "name": "receiver",
          "type": "address"
        }
      ],
      "name": "ERC1155InvalidReceiver",
      "type": "error"
    },
    {
      "inputs": [
        {
          "internalType": "address",
          "name": "sender",
          "type": "address"
        }
      ],
      "name": "ERC1155InvalidSender",
      "type": "error"
    },
    {
      "inputs": [
        {
          "internalType": "address",
          "name": "operator",
          "type": "address"
        },
        {
          "internalType": "address",
          "name": "owner",
          "type": "address"
        }
      ],
      "name": "ERC1155MissingApprovalForAll",
      "type": "error"
    },
    {
      "inputs": [
        {
          "internalType": "address",
          "name": "owner",
          "type": "address"
        }
      ],
      "name": "OwnableInvalidOwner",
      "type": "error"
    },
    {
      "inputs": [
        {
          "internalType": "address",
          "name": "account",
          "type": "address"
        }
      ],
      "name": "OwnableUnauthorizedAccount",
      "type": "error"
    },
    {
      "anonymous": false,
      "inputs": [
        {
          "indexed": true,
          "internalType": "address",
          "name": "account",
          "type": "address"
        },
        {
          "indexed": true,
          "internalType": "address",
          "name": "operator",
          "type": "address"
        },
        {
          "indexed": false,
          "internalType": "bool",
          "name": "approved",
          "type": "bool"
        }
      ],
      "name": "ApprovalForAll",
      "type": "event"
    },
    {
      "anonymous": false,
      "inputs": [
        {
          "indexed": true,
          "internalType": "address",
          "name": "previousOwner",
          "type": "address"
        },
        {
          "indexed": true,
          "internalType": "address",
          "name": "newOwner",
          "type": "address"
        }
      ],
      "name": "OwnershipTransferred",
      "type": "event"
    },
    {
      "anonymous": false,
      "inputs": [
        {
          "indexed": true,
          "internalType": "address",
          "name": "operator",
          "type": "address"
        },
        {
          "indexed": true,
          "internalType": "address",
          "name": "from",
          "type": "address"
        },
        {
          "indexed": true,
          "internalType": "address",
          "name": "to",
          "type": "address"
        },
        {
          "indexed": false,
          "internalType": "uint256[]",
          "name": "ids",
          "type": "uint256[]"
        },
        {
          "indexed": false,
          "internalType": "uint256[]",
          "name": "values",
          "type": "uint256[]"
        }
      ],
      "name": "TransferBatch",
      "type": "event"
    },
    {
      "anonymous": false,
      "inputs": [
        {
          "indexed": true,
          "internalType": "address",
          "name": "operator",
          "type": "address"
        },
        {
          "indexed": true,
          "internalType": "address",
          "name": "from",
          "type": "address"
        },
        {
          "indexed": true,
          "internalType": "address",
          "name": "to",
          "type": "address"
        },
        {
          "indexed": false,
          "internalType": "uint256",
          "name": "id",
          "type": "uint256"
        },
        {
          "indexed": false,
          "internalType": "uint256",
          "name": "value",
          "type": "uint256"
        }
      ],
      "name": "TransferSingle",
      "type": "event"
    },
    {
      "anonymous": false,
      "inputs": [
        {
          "indexed": false,
          "internalType": "string",
          "name": "value",
          "type": "string"
        },
        {
          "indexed": true,
          "internalType": "uint256",
          "name": "id",
          "type": "uint256"
        }
      ],
      "name": "URI",
      "type": "event"
    },
    {
      "anonymous": false,
      "inputs": [
        {
          "indexed": false,
          "internalType": "address",
          "name": "seller",
          "type": "address"
        },
        {
          "indexed": false,
          "internalType": "uint256",
          "name": "token",
          "type": "uint256"
        },
        {
          "indexed": false,
          "internalType": "uint256",
          "name": "price",
          "type": "uint256"
        }
      ],
      "name": "sellItemLists",
      "type": "event"
    },
    {
      "inputs": [
        {
          "internalType": "uint256",
          "name": "nftid",
          "type": "uint256"
        },
        {
          "internalType": "address",
          "name": "sender",
          "type": "address"
        },
        {
          "internalType": "uint256",
          "name": "token",
          "type": "uint256"
        },
        {
          "internalType": "uint256",
          "name": "price",
          "type": "uint256"
        }
      ],
      "name": "BuyNFT",
      "outputs": [],
      "stateMutability": "payable",
      "type": "function"
    },
    {
      "inputs": [
        {
          "internalType": "address",
          "name": "sender",
          "type": "address"
        },
        {
          "internalType": "uint256",
          "name": "nftid",
          "type": "uint256"
        },
        {
          "internalType": "uint256",
          "name": "token",
          "type": "uint256"
        },
        {
          "internalType": "uint256",
          "name": "price",
          "type": "uint256"
        }
      ],
      "name": "SellNFT",
      "outputs": [],
      "stateMutability": "nonpayable",
      "type": "function"
    },
    {
      "inputs": [
        {
          "internalType": "address",
          "name": "account",
          "type": "address"
        },
        {
          "internalType": "uint256",
          "name": "id",
          "type": "uint256"
        }
      ],
      "name": "balanceOf",
      "outputs": [
        {
          "internalType": "uint256",
          "name": "",
          "type": "uint256"
        }
      ],
      "stateMutability": "view",
      "type": "function"
    },
    {
      "inputs": [
        {
          "internalType": "address[]",
          "name": "accounts",
          "type": "address[]"
        },
        {
          "internalType": "uint256[]",
          "name": "ids",
          "type": "uint256[]"
        }
      ],
      "name": "balanceOfBatch",
      "outputs": [
        {
          "internalType": "uint256[]",
          "name": "",
          "type": "uint256[]"
        }
      ],
      "stateMutability": "view",
      "type": "function"
    },
    {
      "inputs": [
        {
          "internalType": "uint256",
          "name": "nftid",
          "type": "uint256"
        },
        {
          "internalType": "uint256",
          "name": "token",
          "type": "uint256"
        },
        {
          "internalType": "uint256",
          "name": "price",
          "type": "uint256"
        },
        {
          "internalType": "address",
          "name": "sender",
          "type": "address"
        }
      ],
      "name": "cancelSale",
      "outputs": [],
      "stateMutability": "nonpayable",
      "type": "function"
    },
    {
      "inputs": [
        {
          "internalType": "address",
          "name": "user",
          "type": "address"
        }
      ],
      "name": "getAllTokenBalances",
      "outputs": [
        {
          "internalType": "uint256[]",
          "name": "tokenIds",
          "type": "uint256[]"
        },
        {
          "internalType": "uint256[]",
          "name": "balances",
          "type": "uint256[]"
        }
      ],
      "stateMutability": "view",
      "type": "function"
    },
    {
      "inputs": [
        {
          "internalType": "address",
          "name": "user",
          "type": "address"
        },
        {
          "internalType": "uint256",
          "name": "tknId",
          "type": "uint256"
        }
      ],
      "name": "getCurrentBalance",
      "outputs": [
        {
          "internalType": "uint256",
          "name": "",
          "type": "uint256"
        }
      ],
      "stateMutability": "view",
      "type": "function"
    },
    {
      "inputs": [
        {
          "internalType": "address",
          "name": "user",
          "type": "address"
        }
      ],
      "name": "getMintedTokens",
      "outputs": [
        {
          "internalType": "uint256[]",
          "name": "tokenIds",
          "type": "uint256[]"
        },
        {
          "internalType": "uint256[]",
          "name": "amounts",
          "type": "uint256[]"
        }
      ],
      "stateMutability": "view",
      "type": "function"
    },
    {
      "inputs": [
        {
          "internalType": "address",
          "name": "user",
          "type": "address"
        },
        {
          "internalType": "uint256",
          "name": "index",
          "type": "uint256"
        }
      ],
      "name": "getOwnerTokenAtIndex",
      "outputs": [
        {
          "internalType": "uint256",
          "name": "tokenid",
          "type": "uint256"
        },
        {
          "internalType": "uint256",
          "name": "amount",
          "type": "uint256"
        }
      ],
      "stateMutability": "view",
      "type": "function"
    },
    {
      "inputs": [
        {
          "internalType": "address",
          "name": "user",
          "type": "address"
        }
      ],
      "name": "getOwnerTokenCount",
      "outputs": [
        {
          "internalType": "uint256",
          "name": "",
          "type": "uint256"
        }
      ],
      "stateMutability": "view",
      "type": "function"
    },
    {
      "inputs": [
        {
          "internalType": "uint256",
          "name": "nftid",
          "type": "uint256"
        },
        {
          "internalType": "uint256",
          "name": "token",
          "type": "uint256"
        },
        {
          "internalType": "uint256",
          "name": "price",
          "type": "uint256"
        }
      ],
      "name": "getSellItem",
      "outputs": [
        {
          "components": [
            {
              "internalType": "address",
              "name": "seller",
              "type": "address"
            },
            {
              "internalType": "uint256",
              "name": "token",
              "type": "uint256"
            },
            {
              "internalType": "uint256",
              "name": "price",
              "type": "uint256"
            }
          ],
          "internalType": "struct BingNFT.Sellstake",
          "name": "",
          "type": "tuple"
        }
      ],
      "stateMutability": "view",
      "type": "function"
    },
    {
      "inputs": [
        {
          "internalType": "uint256",
          "name": "item",
          "type": "uint256"
        }
      ],
      "name": "getall",
      "outputs": [
        {
          "components": [
            {
              "internalType": "address",
              "name": "seller",
              "type": "address"
            },
            {
              "internalType": "uint256",
              "name": "token",
              "type": "uint256"
            },
            {
              "internalType": "uint256",
              "name": "price",
              "type": "uint256"
            }
          ],
          "internalType": "struct BingNFT.Sellstake[]",
          "name": "",
          "type": "tuple[]"
        }
      ],
      "stateMutability": "view",
      "type": "function"
    },
    {
      "inputs": [
        {
          "internalType": "address",
          "name": "account",
          "type": "address"
        },
        {
          "internalType": "address",
          "name": "operator",
          "type": "address"
        }
      ],
      "name": "isApprovedForAll",
      "outputs": [
        {
          "internalType": "bool",
          "name": "",
          "type": "bool"
        }
      ],
      "stateMutability": "view",
      "type": "function"
    },
    {
      "inputs": [
        {
          "internalType": "uint256",
          "name": "",
          "type": "uint256"
        },
        {
          "internalType": "uint256",
          "name": "",
          "type": "uint256"
        }
      ],
      "name": "items",
      "outputs": [
        {
          "internalType": "address",
          "name": "seller",
          "type": "address"
        },
        {
          "internalType": "uint256",
          "name": "token",
          "type": "uint256"
        },
        {
          "internalType": "uint256",
          "name": "price",
          "type": "uint256"
        }
      ],
      "stateMutability": "view",
      "type": "function"
    },
    {
      "inputs": [
        {
          "internalType": "uint256",
          "name": "",
          "type": "uint256"
        }
      ],
      "name": "listNFTids",
      "outputs": [
        {
          "internalType": "uint256",
          "name": "",
          "type": "uint256"
        }
      ],
      "stateMutability": "view",
      "type": "function"
    },
    {
      "inputs": [
        {
          "internalType": "address",
          "name": "operator",
          "type": "address"
        },
        {
          "internalType": "address",
          "name": "from",
          "type": "address"
        },
        {
          "internalType": "uint256[]",
          "name": "ids",
          "type": "uint256[]"
        },
        {
          "internalType": "uint256[]",
          "name": "values",
          "type": "uint256[]"
        },
        {
          "internalType": "bytes",
          "name": "data",
          "type": "bytes"
        }
      ],
      "name": "onERC1155BatchReceived",
      "outputs": [
        {
          "internalType": "bytes4",
          "name": "",
          "type": "bytes4"
        }
      ],
      "stateMutability": "nonpayable",
      "type": "function"
    },
    {
      "inputs": [
        {
          "internalType": "address",
          "name": "operator",
          "type": "address"
        },
        {
          "internalType": "address",
          "name": "from",
          "type": "address"
        },
        {
          "internalType": "uint256",
          "name": "id",
          "type": "uint256"
        },
        {
          "internalType": "uint256",
          "name": "value",
          "type": "uint256"
        },
        {
          "internalType": "bytes",
          "name": "data",
          "type": "bytes"
        }
      ],
      "name": "onERC1155Received",
      "outputs": [
        {
          "internalType": "bytes4",
          "name": "",
          "type": "bytes4"
        }
      ],
      "stateMutability": "nonpayable",
      "type": "function"
    },
    {
      "inputs": [],
      "name": "owner",
      "outputs": [
        {
          "internalType": "address",
          "name": "",
          "type": "address"
        }
      ],
      "stateMutability": "view",
      "type": "function"
    },
    {
      "inputs": [],
      "name": "renounceOwnership",
      "outputs": [],
      "stateMutability": "nonpayable",
      "type": "function"
    },
    {
      "inputs": [
        {
          "internalType": "address",
          "name": "from",
          "type": "address"
        },
        {
          "internalType": "address",
          "name": "to",
          "type": "address"
        },
        {
          "internalType": "uint256[]",
          "name": "ids",
          "type": "uint256[]"
        },
        {
          "internalType": "uint256[]",
          "name": "values",
          "type": "uint256[]"
        },
        {
          "internalType": "bytes",
          "name": "data",
          "type": "bytes"
        }
      ],
      "name": "safeBatchTransferFrom",
      "outputs": [],
      "stateMutability": "nonpayable",
      "type": "function"
    },
    {
      "inputs": [
        {
          "internalType": "address",
          "name": "from",
          "type": "address"
        },
        {
          "internalType": "address",
          "name": "to",
          "type": "address"
        },
        {
          "internalType": "uint256",
          "name": "id",
          "type": "uint256"
        },
        {
          "internalType": "uint256",
          "name": "value",
          "type": "uint256"
        },
        {
          "internalType": "bytes",
          "name": "data",
          "type": "bytes"
        }
      ],
      "name": "safeTransferFrom",
      "outputs": [],
      "stateMutability": "nonpayable",
      "type": "function"
    },
    {
      "inputs": [
        {
          "internalType": "address",
          "name": "operator",
          "type": "address"
        },
        {
          "internalType": "bool",
          "name": "approved",
          "type": "bool"
        }
      ],
      "name": "setApprovalForAll",
      "outputs": [],
      "stateMutability": "nonpayable",
      "type": "function"
    },
    {
      "inputs": [
        {
          "internalType": "string",
          "name": "newuri",
          "type": "string"
        },
        {
          "internalType": "address",
          "name": "sender",
          "type": "address"
        }
      ],
      "name": "settokenURI",
      "outputs": [
        {
          "internalType": "uint256",
          "name": "",
          "type": "uint256"
        }
      ],
      "stateMutability": "nonpayable",
      "type": "function"
    },
    {
      "inputs": [
        {
          "internalType": "bytes4",
          "name": "interfaceId",
          "type": "bytes4"
        }
      ],
      "name": "supportsInterface",
      "outputs": [
        {
          "internalType": "bool",
          "name": "",
          "type": "bool"
        }
      ],
      "stateMutability": "view",
      "type": "function"
    },
    {
      "inputs": [
        {
          "internalType": "address",
          "name": "newOwner",
          "type": "address"
        }
      ],
      "name": "transferOwnership",
      "outputs": [],
      "stateMutability": "nonpayable",
      "type": "function"
    },
    {
      "inputs": [
        {
          "internalType": "uint256",
          "name": "tokenid",
          "type": "uint256"
        }
      ],
      "name": "uri",
      "outputs": [
        {
          "internalType": "string",
          "name": "",
          "type": "string"
        }
      ],
      "stateMutability": "view",
      "type": "function"
    },
    {
      "inputs": [
        {
          "internalType": "address",
          "name": "user",
          "type": "address"
        }
      ],
      "name": "userTokens",
      "outputs": [
        {
          "internalType": "uint256[]",
          "name": "",
          "type": "uint256[]"
        }
      ],
      "stateMutability": "view",
      "type": "function"
    }
  ],
  "bytecode": "0x60806040526040518060600160405280602881526020016155b460289139600a908161002b9190610485565b5034801561003857600080fd5b5033600a80546100479061029e565b80601f01602080910402602001604051908101604052809291908181526020018280546100739061029e565b80156100c05780601f10610095576101008083540402835291602001916100c0565b820191906000526020600020905b8154815290600101906020018083116100a357829003601f168201915b50505050506100d48161015c60201b60201c565b50600073ffffffffffffffffffffffffffffffffffffffff168173ffffffffffffffffffffffffffffffffffffffff16036101475760006040517f1e4fbdf700000000000000000000000000000000000000000000000000000000815260040161013e9190610598565b60405180910390fd5b6101568161016f60201b60201c565b506105b3565b806002908161016b9190610485565b5050565b6000600360009054906101000a900473ffffffffffffffffffffffffffffffffffffffff16905081600360006101000a81548173ffffffffffffffffffffffffffffffffffffffff021916908373ffffffffffffffffffffffffffffffffffffffff1602179055508173ffffffffffffffffffffffffffffffffffffffff168173ffffffffffffffffffffffffffffffffffffffff167f8be0079c531659141344cd1fd0a4f28419497f9722a3daafe3b4186f6b6457e060405160405180910390a35050565b600081519050919050565b7f4e487b7100000000000000000000000000000000000000000000000000000000600052604160045260246000fd5b7f4e487b7100000000000000000000000000000000000000000000000000000000600052602260045260246000fd5b600060028204905060018216806102b657607f821691505b6020821081036102c9576102c861026f565b5b50919050565b60008190508160005260206000209050919050565b60006020601f8301049050919050565b600082821b905092915050565b6000600883026103317fffffffffffffffffffffffffffffffffffffffffffffffffffffffffffffffff826102f4565b61033b86836102f4565b95508019841693508086168417925050509392505050565b6000819050919050565b6000819050919050565b600061038261037d61037884610353565b61035d565b610353565b9050919050565b6000819050919050565b61039c83610367565b6103b06103a882610389565b848454610301565b825550505050565b600090565b6103c56103b8565b6103d0818484610393565b505050565b5b818110156103f4576103e96000826103bd565b6001810190506103d6565b5050565b601f8211156104395761040a816102cf565b610413846102e4565b81016020851015610422578190505b61043661042e856102e4565b8301826103d5565b50505b505050565b600082821c905092915050565b600061045c6000198460080261043e565b1980831691505092915050565b6000610475838361044b565b9150826002028217905092915050565b61048e82610235565b67ffffffffffffffff8111156104a7576104a6610240565b5b6104b1825461029e565b6104bc8282856103f8565b600060209050601f8311600181146104ef57600084156104dd578287015190505b6104e78582610469565b86555061054f565b601f1984166104fd866102cf565b60005b8281101561052557848901518255600182019150602085019450602081019050610500565b86831015610542578489015161053e601f89168261044b565b8355505b6001600288020188555050505b505050505050565b600073ffffffffffffffffffffffffffffffffffffffff82169050919050565b600061058282610557565b9050919050565b61059281610577565b82525050565b60006020820190506105ad6000830184610589565b92915050565b614ff2806105c26000396000f3fe60806040526004361061019b5760003560e01c806375388a0f116100ec578063d80a08da1161008a578063ed498fa811610064578063ed498fa814610677578063f23a6e61146106b4578063f242432a146106f1578063f2fde38b1461071a5761019b565b8063d80a08da146105f5578063e763ebeb1461061e578063e985e9c51461063a5761019b565b8063a22cb465116100c6578063a22cb46514610515578063bc197c811461053e578063cc0a48d41461057b578063d50bcc71146105b85761019b565b806375388a0f1461046f5780638da5cb5b146104ac5780639145d133146104d75761019b565b806331e838dd116101595780634e1273f4116101335780634e1273f4146103a0578063681bec6c146103dd5780636d7cdad01461041b578063715018a6146104585761019b565b806331e838dd146102e6578063434a49a11461032557806346abee9e146103635761019b565b8062fdd58e146101a057806301ffc9a7146101dd5780630e89341c1461021a5780631c3fcc60146102575780632ce18d17146102945780632eb2c2d6146102bd575b600080fd5b3480156101ac57600080fd5b506101c760048036038101906101c291906134c1565b610743565b6040516101d49190613510565b60405180910390f35b3480156101e957600080fd5b5061020460048036038101906101ff9190613583565b61079d565b60405161021191906135cb565b60405180910390f35b34801561022657600080fd5b50610241600480360381019061023c91906135e6565b610817565b60405161024e91906136a3565b60405180910390f35b34801561026357600080fd5b5061027e600480360381019061027991906135e6565b610903565b60405161028b91906137d4565b60405180910390f35b3480156102a057600080fd5b506102bb60048036038101906102b691906137f6565b6109df565b005b3480156102c957600080fd5b506102e460048036038101906102df9190613a5a565b610d10565b005b3480156102f257600080fd5b5061030d60048036038101906103089190613b29565b610db8565b60405161031c93929190613b78565b60405180910390f35b34801561033157600080fd5b5061034c60048036038101906103479190613baf565b610e1f565b60405161035a929190613c8b565b60405180910390f35b34801561036f57600080fd5b5061038a60048036038101906103859190613cc2565b611030565b6040516103979190613d57565b60405180910390f35b3480156103ac57600080fd5b506103c760048036038101906103c29190613e35565b6111de565b6040516103d49190613ead565b60405180910390f35b3480156103e957600080fd5b5061040460048036038101906103ff9190613baf565b6112e7565b604051610412929190613c8b565b60405180910390f35b34801561042757600080fd5b50610442600480360381019061043d91906135e6565b6114f8565b60405161044f9190613510565b60405180910390f35b34801561046457600080fd5b5061046d61151c565b005b34801561047b57600080fd5b50610496600480360381019061049191906134c1565b611530565b6040516104a39190613510565b60405180910390f35b3480156104b857600080fd5b506104c161158b565b6040516104ce9190613ecf565b60405180910390f35b3480156104e357600080fd5b506104fe60048036038101906104f991906134c1565b6115b5565b60405161050c929190613eea565b60405180910390f35b34801561052157600080fd5b5061053c60048036038101906105379190613f3f565b6116f4565b005b34801561054a57600080fd5b5061056560048036038101906105609190614030565b61170a565b604051610572919061411b565b60405180910390f35b34801561058757600080fd5b506105a2600480360381019061059d91906141d7565b611722565b6040516105af9190613510565b60405180910390f35b3480156105c457600080fd5b506105df60048036038101906105da9190613baf565b6117e9565b6040516105ec9190613510565b60405180910390f35b34801561060157600080fd5b5061061c60048036038101906106179190614233565b611835565b005b6106386004803603810190610633919061429a565b611b51565b005b34801561064657600080fd5b50610661600480360381019061065c9190614301565b611fd2565b60405161066e91906135cb565b60405180910390f35b34801561068357600080fd5b5061069e60048036038101906106999190613baf565b612066565b6040516106ab9190613ead565b60405180910390f35b3480156106c057600080fd5b506106db60048036038101906106d69190614341565b6120fd565b6040516106e8919061411b565b60405180910390f35b3480156106fd57600080fd5b50610718600480360381019061071391906143db565b612113565b005b34801561072657600080fd5b50610741600480360381019061073c9190613baf565b6121bb565b005b600080600083815260200190815260200160002060008473ffffffffffffffffffffffffffffffffffffffff1673ffffffffffffffffffffffffffffffffffffffff16815260200190815260200160002054905092915050565b60007f4e2312e0000000000000000000000000000000000000000000000000000000007bffffffffffffffffffffffffffffffffffffffffffffffffffffffff1916827bffffffffffffffffffffffffffffffffffffffffffffffffffffffff19161480610810575061080f82612241565b5b9050919050565b60606000600760008481526020019081526020016000208054610839906144a1565b80601f0160208091040260200160405190810160405280929190818152602001828054610865906144a1565b80156108b25780601f10610887576101008083540402835291602001916108b2565b820191906000526020600020905b81548152906001019060200180831161089557829003601f168201915b505050505090506000815111156108cc57809150506108fe565b60006108d784612323565b9050806040516020016108ea91906145a6565b604051602081830303815290604052925050505b919050565b606060046000838152602001908152602001600020805480602002602001604051908101604052809291908181526020016000905b828210156109d457838290600052602060002090600302016040518060600160405290816000820160009054906101000a900473ffffffffffffffffffffffffffffffffffffffff1673ffffffffffffffffffffffffffffffffffffffff1673ffffffffffffffffffffffffffffffffffffffff1681526020016001820154815260200160028201548152505081526020019060010190610938565b505050509050919050565b600060046000868152602001908152602001600020905060008080600090505b8380549050811015610afa5786848281548110610a1f57610a1e6145d3565b5b906000526020600020906003020160010154148015610a61575085848281548110610a4d57610a4c6145d3565b5b906000526020600020906003020160020154145b8015610adc57508473ffffffffffffffffffffffffffffffffffffffff16848281548110610a9257610a916145d3565b5b906000526020600020906003020160000160009054906101000a900473ffffffffffffffffffffffffffffffffffffffff1673ffffffffffffffffffffffffffffffffffffffff16145b15610aed5760019250809150610afa565b80806001019150506109ff565b5081610b3b576040517f08c379a0000000000000000000000000000000000000000000000000000000008152600401610b329061464e565b60405180910390fd5b610b5730858989604051806020016040528060008152506123f1565b85600560008673ffffffffffffffffffffffffffffffffffffffff1673ffffffffffffffffffffffffffffffffffffffff16815260200190815260200160002060008981526020019081526020016000206000828254610bb7919061469d565b92505081905550610bc884886124fc565b600183805490501115610ca6578260018480549050610be791906146d1565b81548110610bf857610bf76145d3565b5b9060005260206000209060030201838281548110610c1957610c186145d3565b5b90600052602060002090600302016000820160009054906101000a900473ffffffffffffffffffffffffffffffffffffffff168160000160006101000a81548173ffffffffffffffffffffffffffffffffffffffff021916908373ffffffffffffffffffffffffffffffffffffffff16021790555060018201548160010155600282015481600201559050505b82805480610cb757610cb6614705565b5b6001900381819060005260206000209060030201600080820160006101000a81549073ffffffffffffffffffffffffffffffffffffffff0219169055600182016000905560028201600090555050905550505050505050565b6000610d1a6125b5565b90508073ffffffffffffffffffffffffffffffffffffffff168673ffffffffffffffffffffffffffffffffffffffff1614158015610d5f5750610d5d8682611fd2565b155b15610da35780866040517fe237d922000000000000000000000000000000000000000000000000000000008152600401610d9a929190614734565b60405180910390fd5b610db086868686866125bd565b505050505050565b60046020528160005260406000208181548110610dd457600080fd5b9060005260206000209060030201600091509150508060000160009054906101000a900473ffffffffffffffffffffffffffffffffffffffff16908060010154908060020154905083565b6060806000600660008573ffffffffffffffffffffffffffffffffffffffff1673ffffffffffffffffffffffffffffffffffffffff168152602001908152602001600020805480602002602001604051908101604052809291908181526020018280548015610ead57602002820191906000526020600020905b815481526020019060010190808311610e99575b50505050509050805167ffffffffffffffff811115610ecf57610ece613862565b5b604051908082528060200260200182016040528015610efd5781602001602082028036833780820191505090505b509250805167ffffffffffffffff811115610f1b57610f1a613862565b5b604051908082528060200260200182016040528015610f495781602001602082028036833780820191505090505b50915060005b815181101561102957818181518110610f6b57610f6a6145d3565b5b6020026020010151848281518110610f8657610f856145d3565b5b602002602001018181525050600560008673ffffffffffffffffffffffffffffffffffffffff1673ffffffffffffffffffffffffffffffffffffffff1681526020019081526020016000206000838381518110610fe657610fe56145d3565b5b60200260200101518152602001908152602001600020548382815181106110105761100f6145d3565b5b6020026020010181815250508080600101915050610f4f565b5050915091565b6110386133e2565b600060046000868152602001908152602001600020805480602002602001604051908101604052809291908181526020016000905b8282101561110957838290600052602060002090600302016040518060600160405290816000820160009054906101000a900473ffffffffffffffffffffffffffffffffffffffff1673ffffffffffffffffffffffffffffffffffffffff1673ffffffffffffffffffffffffffffffffffffffff168152602001600182015481526020016002820154815250508152602001906001019061106d565b50505050905060005b815181101561119b578482828151811061112f5761112e6145d3565b5b602002602001015160200151148015611165575083828281518110611157576111566145d3565b5b602002602001015160400151145b1561118e5781818151811061117d5761117c6145d3565b5b6020026020010151925050506111d7565b8080600101915050611112565b506040517f08c379a00000000000000000000000000000000000000000000000000000000081526004016111ce906147a9565b60405180910390fd5b9392505050565b6060815183511461122a57815183516040517f5b059991000000000000000000000000000000000000000000000000000000008152600401611221929190613eea565b60405180910390fd5b6000835167ffffffffffffffff81111561124757611246613862565b5b6040519080825280602002602001820160405280156112755781602001602082028036833780820191505090505b50905060005b84518110156112dc576112b261129a82876126b590919063ffffffff16565b6112ad83876126c990919063ffffffff16565b610743565b8282815181106112c5576112c46145d3565b5b60200260200101818152505080600101905061127b565b508091505092915050565b6060806000600660008573ffffffffffffffffffffffffffffffffffffffff1673ffffffffffffffffffffffffffffffffffffffff16815260200190815260200160002080548060200260200160405190810160405280929190818152602001828054801561137557602002820191906000526020600020905b815481526020019060010190808311611361575b50505050509050805167ffffffffffffffff81111561139757611396613862565b5b6040519080825280602002602001820160405280156113c55781602001602082028036833780820191505090505b509250805167ffffffffffffffff8111156113e3576113e2613862565b5b6040519080825280602002602001820160405280156114115781602001602082028036833780820191505090505b50915060005b81518110156114f157818181518110611433576114326145d3565b5b602002602001015184828151811061144e5761144d6145d3565b5b602002602001018181525050600560008673ffffffffffffffffffffffffffffffffffffffff1673ffffffffffffffffffffffffffffffffffffffff16815260200190815260200160002060008383815181106114ae576114ad6145d3565b5b60200260200101518152602001908152602001600020548382815181106114d8576114d76145d3565b5b6020026020010181815250508080600101915050611417565b5050915091565b6008818154811061150857600080fd5b906000526020600020016000915090505481565b6115246126dd565b61152e6000612764565b565b6000600560008473ffffffffffffffffffffffffffffffffffffffff1673ffffffffffffffffffffffffffffffffffffffff168152602001908152602001600020600083815260200190815260200160002054905092915050565b6000600360009054906101000a900473ffffffffffffffffffffffffffffffffffffffff16905090565b600080600660008573ffffffffffffffffffffffffffffffffffffffff1673ffffffffffffffffffffffffffffffffffffffff16815260200190815260200160002080549050831061163c576040517f08c379a000000000000000000000000000000000000000000000000000000000815260040161163390614815565b60405180910390fd5b600660008573ffffffffffffffffffffffffffffffffffffffff1673ffffffffffffffffffffffffffffffffffffffff168152602001908152602001600020838154811061168d5761168c6145d3565b5b90600052602060002001549150600560008573ffffffffffffffffffffffffffffffffffffffff1673ffffffffffffffffffffffffffffffffffffffff16815260200190815260200160002060008381526020019081526020016000205490509250929050565b6117066116ff6125b5565b838361282a565b5050565b600063bc197c8160e01b905098975050505050505050565b6000806009549050611746838260646040518060200160405280600081525061299a565b8360076000838152602001908152602001600020908161176691906149e1565b506064600560008573ffffffffffffffffffffffffffffffffffffffff1673ffffffffffffffffffffffffffffffffffffffff1681526020019081526020016000206000838152602001908152602001600020819055506117c783826124fc565b600960008154809291906117da90614ab3565b91905055508091505092915050565b6000600660008373ffffffffffffffffffffffffffffffffffffffff1673ffffffffffffffffffffffffffffffffffffffff168152602001908152602001600020805490509050919050565b816118408585610743565b1015611881576040517f08c379a000000000000000000000000000000000000000000000000000000000815260040161187890614b47565b60405180910390fd5b600081116118c4576040517f08c379a00000000000000000000000000000000000000000000000000000000081526004016118bb90614bb3565b60405180910390fd5b60008211611907576040517f08c379a00000000000000000000000000000000000000000000000000000000081526004016118fe90614c1f565b60405180910390fd5b81600560008673ffffffffffffffffffffffffffffffffffffffff1673ffffffffffffffffffffffffffffffffffffffff168152602001908152602001600020600085815260200190815260200160002054101561199a576040517f08c379a000000000000000000000000000000000000000000000000000000000815260040161199190614c8b565b60405180910390fd5b6119b684308585604051806020016040528060008152506123f1565b81600560008673ffffffffffffffffffffffffffffffffffffffff1673ffffffffffffffffffffffffffffffffffffffff16815260200190815260200160002060008581526020019081526020016000206000828254611a1691906146d1565b925050819055506004600084815260200190815260200160002060405180606001604052808673ffffffffffffffffffffffffffffffffffffffff16815260200184815260200183815250908060018154018082558091505060019003906000526020600020906003020160009091909190915060008201518160000160006101000a81548173ffffffffffffffffffffffffffffffffffffffff021916908373ffffffffffffffffffffffffffffffffffffffff1602179055506020820151816001015560408201518160020155505060088390806001815401808255809150506001900390600052602060002001600090919091909150557feba8cee8f0a2ab7b4cc8e75d10eae88eb6b625a15419821b6676d03a57ad7762848383604051611b4393929190613b78565b60405180910390a150505050565b600060046000868152602001908152602001600020905060008080600090505b8380549050811015611e495785848281548110611b9157611b906145d3565b5b906000526020600020906003020160010154148015611bd3575084848281548110611bbf57611bbe6145d3565b5b906000526020600020906003020160020154145b15611e3c57838181548110611beb57611bea6145d3565b5b9060005260206000209060030201600201548514611c3e576040517f08c379a0000000000000000000000000000000000000000000000000000000008152600401611c3590614cf7565b60405180910390fd5b838181548110611c5157611c506145d3565b5b906000526020600020906003020160000160009054906101000a900473ffffffffffffffffffffffffffffffffffffffff1673ffffffffffffffffffffffffffffffffffffffff168773ffffffffffffffffffffffffffffffffffffffff1603611cf0576040517f08c379a0000000000000000000000000000000000000000000000000000000008152600401611ce790614d63565b60405180910390fd5b600073ffffffffffffffffffffffffffffffffffffffff16848281548110611d1b57611d1a6145d3565b5b906000526020600020906003020160000160009054906101000a900473ffffffffffffffffffffffffffffffffffffffff1673ffffffffffffffffffffffffffffffffffffffff1603611da3576040517f08c379a0000000000000000000000000000000000000000000000000000000008152600401611d9a90614dcf565b60405180910390fd5b611dbf30888a89604051806020016040528060008152506123f1565b85600560008973ffffffffffffffffffffffffffffffffffffffff1673ffffffffffffffffffffffffffffffffffffffff16815260200190815260200160002060008a81526020019081526020016000206000828254611e1f919061469d565b92505081905550611e3087896124fc565b80915060019250611e49565b8080600101915050611b71565b5081611e8a576040517f08c379a0000000000000000000000000000000000000000000000000000000008152600401611e81906147a9565b60405180910390fd5b600183805490501115611f68578260018480549050611ea991906146d1565b81548110611eba57611eb96145d3565b5b9060005260206000209060030201838281548110611edb57611eda6145d3565b5b90600052602060002090600302016000820160009054906101000a900473ffffffffffffffffffffffffffffffffffffffff168160000160006101000a81548173ffffffffffffffffffffffffffffffffffffffff021916908373ffffffffffffffffffffffffffffffffffffffff16021790555060018201548160010155600282015481600201559050505b82805480611f7957611f78614705565b5b6001900381819060005260206000209060030201600080820160006101000a81549073ffffffffffffffffffffffffffffffffffffffff0219169055600182016000905560028201600090555050905550505050505050565b6000600160008473ffffffffffffffffffffffffffffffffffffffff1673ffffffffffffffffffffffffffffffffffffffff16815260200190815260200160002060008373ffffffffffffffffffffffffffffffffffffffff1673ffffffffffffffffffffffffffffffffffffffff16815260200190815260200160002060009054906101000a900460ff16905092915050565b6060600660008373ffffffffffffffffffffffffffffffffffffffff1673ffffffffffffffffffffffffffffffffffffffff1681526020019081526020016000208054806020026020016040519081016040528092919081815260200182805480156120f157602002820191906000526020600020905b8154815260200190600101908083116120dd575b50505050509050919050565b600063f23a6e6160e01b90509695505050505050565b600061211d6125b5565b90508073ffffffffffffffffffffffffffffffffffffffff168673ffffffffffffffffffffffffffffffffffffffff161415801561216257506121608682611fd2565b155b156121a65780866040517fe237d92200000000000000000000000000000000000000000000000000000000815260040161219d929190614734565b60405180910390fd5b6121b386868686866123f1565b505050505050565b6121c36126dd565b600073ffffffffffffffffffffffffffffffffffffffff168173ffffffffffffffffffffffffffffffffffffffff16036122355760006040517f1e4fbdf700000000000000000000000000000000000000000000000000000000815260040161222c9190613ecf565b60405180910390fd5b61223e81612764565b50565b60007fd9b67a26000000000000000000000000000000000000000000000000000000007bffffffffffffffffffffffffffffffffffffffffffffffffffffffff1916827bffffffffffffffffffffffffffffffffffffffffffffffffffffffff1916148061230c57507f0e89341c000000000000000000000000000000000000000000000000000000007bffffffffffffffffffffffffffffffffffffffffffffffffffffffff1916827bffffffffffffffffffffffffffffffffffffffffffffffffffffffff1916145b8061231c575061231b82612a33565b5b9050919050565b60606000600161233284612a9d565b01905060008167ffffffffffffffff81111561235157612350613862565b5b6040519080825280601f01601f1916602001820160405280156123835781602001600182028036833780820191505090505b509050600082602001820190505b6001156123e6578080600190039150507f3031323334353637383961626364656600000000000000000000000000000000600a86061a8153600a85816123da576123d9614def565b5b04945060008503612391575b819350505050919050565b600073ffffffffffffffffffffffffffffffffffffffff168473ffffffffffffffffffffffffffffffffffffffff16036124635760006040517f57f447ce00000000000000000000000000000000000000000000000000000000815260040161245a9190613ecf565b60405180910390fd5b600073ffffffffffffffffffffffffffffffffffffffff168573ffffffffffffffffffffffffffffffffffffffff16036124d55760006040517f01a835140000000000000000000000000000000000000000000000000000000081526004016124cc9190613ecf565b60405180910390fd5b6000806124e28585612bf0565b915091506124f38787848487612c20565b50505050505050565b6000600660008473ffffffffffffffffffffffffffffffffffffffff1673ffffffffffffffffffffffffffffffffffffffff168152602001908152602001600020905060005b81805490508110156125865782828281548110612562576125616145d3565b5b9060005260206000200154036125795750506125b1565b8080600101915050612542565b5080829080600181540180825580915050600190039060005260206000200160009091909190915055505b5050565b600033905090565b600073ffffffffffffffffffffffffffffffffffffffff168473ffffffffffffffffffffffffffffffffffffffff160361262f5760006040517f57f447ce0000000000000000000000000000000000000000000000000000000081526004016126269190613ecf565b60405180910390fd5b600073ffffffffffffffffffffffffffffffffffffffff168573ffffffffffffffffffffffffffffffffffffffff16036126a15760006040517f01a835140000000000000000000000000000000000000000000000000000000081526004016126989190613ecf565b60405180910390fd5b6126ae8585858585612c20565b5050505050565b600060208202602084010151905092915050565b600060208202602084010151905092915050565b6126e56125b5565b73ffffffffffffffffffffffffffffffffffffffff1661270361158b565b73ffffffffffffffffffffffffffffffffffffffff1614612762576127266125b5565b6040517f118cdaa70000000000000000000000000000000000000000000000000000000081526004016127599190613ecf565b60405180910390fd5b565b6000600360009054906101000a900473ffffffffffffffffffffffffffffffffffffffff16905081600360006101000a81548173ffffffffffffffffffffffffffffffffffffffff021916908373ffffffffffffffffffffffffffffffffffffffff1602179055508173ffffffffffffffffffffffffffffffffffffffff168173ffffffffffffffffffffffffffffffffffffffff167f8be0079c531659141344cd1fd0a4f28419497f9722a3daafe3b4186f6b6457e060405160405180910390a35050565b600073ffffffffffffffffffffffffffffffffffffffff168273ffffffffffffffffffffffffffffffffffffffff160361289c5760006040517fced3e1000000000000000000000000000000000000000000000000000000000081526004016128939190613ecf565b60405180910390fd5b80600160008573ffffffffffffffffffffffffffffffffffffffff1673ffffffffffffffffffffffffffffffffffffffff16815260200190815260200160002060008473ffffffffffffffffffffffffffffffffffffffff1673ffffffffffffffffffffffffffffffffffffffff16815260200190815260200160002060006101000a81548160ff0219169083151502179055508173ffffffffffffffffffffffffffffffffffffffff168373ffffffffffffffffffffffffffffffffffffffff167f17307eab39ab6107e8899845ad3d59bd9653f200f220920489ca2b5937696c318360405161298d91906135cb565b60405180910390a3505050565b600073ffffffffffffffffffffffffffffffffffffffff168473ffffffffffffffffffffffffffffffffffffffff1603612a0c5760006040517f57f447ce000000000000000000000000000000000000000000000000000000008152600401612a039190613ecf565b60405180910390fd5b600080612a198585612bf0565b91509150612a2b600087848487612c20565b505050505050565b60007f01ffc9a7000000000000000000000000000000000000000000000000000000007bffffffffffffffffffffffffffffffffffffffffffffffffffffffff1916827bffffffffffffffffffffffffffffffffffffffffffffffffffffffff1916149050919050565b600080600090507a184f03e93ff9f4daa797ed6e38ed64bf6a1f0100000000000000008310612afb577a184f03e93ff9f4daa797ed6e38ed64bf6a1f0100000000000000008381612af157612af0614def565b5b0492506040810190505b6d04ee2d6d415b85acef81000000008310612b38576d04ee2d6d415b85acef81000000008381612b2e57612b2d614def565b5b0492506020810190505b662386f26fc100008310612b6757662386f26fc100008381612b5d57612b5c614def565b5b0492506010810190505b6305f5e1008310612b90576305f5e1008381612b8657612b85614def565b5b0492506008810190505b6127108310612bb5576127108381612bab57612baa614def565b5b0492506004810190505b60648310612bd85760648381612bce57612bcd614def565b5b0492506002810190505b600a8310612be7576001810190505b80915050919050565b60608060405191506001825283602083015260408201905060018152826020820152604081016040529250929050565b612c2c85858585612cd2565b600073ffffffffffffffffffffffffffffffffffffffff168473ffffffffffffffffffffffffffffffffffffffff1614612ccb576000612c6a6125b5565b90506001845103612cba576000612c8b6000866126c990919063ffffffff16565b90506000612ca36000866126c990919063ffffffff16565b9050612cb383898985858961307a565b5050612cc9565b612cc881878787878761322e565b5b505b5050505050565b8051825114612d1c57815181516040517f5b059991000000000000000000000000000000000000000000000000000000008152600401612d13929190613eea565b60405180910390fd5b6000612d266125b5565b905060005b8351811015612f35576000612d4982866126c990919063ffffffff16565b90506000612d6083866126c990919063ffffffff16565b9050600073ffffffffffffffffffffffffffffffffffffffff168873ffffffffffffffffffffffffffffffffffffffff1614612e8d57600080600084815260200190815260200160002060008a73ffffffffffffffffffffffffffffffffffffffff1673ffffffffffffffffffffffffffffffffffffffff16815260200190815260200160002054905081811015612e3557888183856040517f03dee4c5000000000000000000000000000000000000000000000000000000008152600401612e2c9493929190614e1e565b60405180910390fd5b81810360008085815260200190815260200160002060008b73ffffffffffffffffffffffffffffffffffffffff1673ffffffffffffffffffffffffffffffffffffffff16815260200190815260200160002081905550505b600073ffffffffffffffffffffffffffffffffffffffff168773ffffffffffffffffffffffffffffffffffffffff1614612f28578060008084815260200190815260200160002060008973ffffffffffffffffffffffffffffffffffffffff1673ffffffffffffffffffffffffffffffffffffffff1681526020019081526020016000206000828254612f20919061469d565b925050819055505b5050806001019050612d2b565b506001835103612ff4576000612f556000856126c990919063ffffffff16565b90506000612f6d6000856126c990919063ffffffff16565b90508573ffffffffffffffffffffffffffffffffffffffff168773ffffffffffffffffffffffffffffffffffffffff168473ffffffffffffffffffffffffffffffffffffffff167fc3d58168c5ae7397731d063d5bbf3d657854427343f4c083240f7aacaa2d0f628585604051612fe5929190613eea565b60405180910390a45050613073565b8373ffffffffffffffffffffffffffffffffffffffff168573ffffffffffffffffffffffffffffffffffffffff168273ffffffffffffffffffffffffffffffffffffffff167f4a39dc06d4c0dbc64b70af90fd698a233a518aa5d07e595d983b8c0526c8f7fb868660405161306a929190613c8b565b60405180910390a45b5050505050565b60008473ffffffffffffffffffffffffffffffffffffffff163b1115613226578373ffffffffffffffffffffffffffffffffffffffff1663f23a6e6187878686866040518663ffffffff1660e01b81526004016130db959493929190614eb8565b6020604051808303816000875af192505050801561311757506040513d601f19601f820116820180604052508101906131149190614f27565b60015b61319b573d8060008114613147576040519150601f19603f3d011682016040523d82523d6000602084013e61314c565b606091505b50600081510361319357846040517f57f447ce00000000000000000000000000000000000000000000000000000000815260040161318a9190613ecf565b60405180910390fd5b805181602001fd5b63f23a6e6160e01b7bffffffffffffffffffffffffffffffffffffffffffffffffffffffff1916817bffffffffffffffffffffffffffffffffffffffffffffffffffffffff19161461322457846040517f57f447ce00000000000000000000000000000000000000000000000000000000815260040161321b9190613ecf565b60405180910390fd5b505b505050505050565b60008473ffffffffffffffffffffffffffffffffffffffff163b11156133da578373ffffffffffffffffffffffffffffffffffffffff1663bc197c8187878686866040518663ffffffff1660e01b815260040161328f959493929190614f54565b6020604051808303816000875af19250505080156132cb57506040513d601f19601f820116820180604052508101906132c89190614f27565b60015b61334f573d80600081146132fb576040519150601f19603f3d011682016040523d82523d6000602084013e613300565b606091505b50600081510361334757846040517f57f447ce00000000000000000000000000000000000000000000000000000000815260040161333e9190613ecf565b60405180910390fd5b805181602001fd5b63bc197c8160e01b7bffffffffffffffffffffffffffffffffffffffffffffffffffffffff1916817bffffffffffffffffffffffffffffffffffffffffffffffffffffffff1916146133d857846040517f57f447ce0000000000000000000000000000000000000000000000000000000081526004016133cf9190613ecf565b60405180910390fd5b505b505050505050565b6040518060600160405280600073ffffffffffffffffffffffffffffffffffffffff16815260200160008152602001600081525090565b6000604051905090565b600080fd5b600080fd5b600073ffffffffffffffffffffffffffffffffffffffff82169050919050565b60006134588261342d565b9050919050565b6134688161344d565b811461347357600080fd5b50565b6000813590506134858161345f565b92915050565b6000819050919050565b61349e8161348b565b81146134a957600080fd5b50565b6000813590506134bb81613495565b92915050565b600080604083850312156134d8576134d7613423565b5b60006134e685828601613476565b92505060206134f7858286016134ac565b9150509250929050565b61350a8161348b565b82525050565b60006020820190506135256000830184613501565b92915050565b60007fffffffff0000000000000000000000000000000000000000000000000000000082169050919050565b6135608161352b565b811461356b57600080fd5b50565b60008135905061357d81613557565b92915050565b60006020828403121561359957613598613423565b5b60006135a78482850161356e565b91505092915050565b60008115159050919050565b6135c5816135b0565b82525050565b60006020820190506135e060008301846135bc565b92915050565b6000602082840312156135fc576135fb613423565b5b600061360a848285016134ac565b91505092915050565b600081519050919050565b600082825260208201905092915050565b60005b8381101561364d578082015181840152602081019050613632565b60008484015250505050565b6000601f19601f8301169050919050565b600061367582613613565b61367f818561361e565b935061368f81856020860161362f565b61369881613659565b840191505092915050565b600060208201905081810360008301526136bd818461366a565b905092915050565b600081519050919050565b600082825260208201905092915050565b6000819050602082019050919050565b6136fa8161344d565b82525050565b6137098161348b565b82525050565b60608201600082015161372560008501826136f1565b5060208201516137386020850182613700565b50604082015161374b6040850182613700565b50505050565b600061375d838361370f565b60608301905092915050565b6000602082019050919050565b6000613781826136c5565b61378b81856136d0565b9350613796836136e1565b8060005b838110156137c75781516137ae8882613751565b97506137b983613769565b92505060018101905061379a565b5085935050505092915050565b600060208201905081810360008301526137ee8184613776565b905092915050565b600080600080608085870312156138105761380f613423565b5b600061381e878288016134ac565b945050602061382f878288016134ac565b9350506040613840878288016134ac565b925050606061385187828801613476565b91505092959194509250565b600080fd5b7f4e487b7100000000000000000000000000000000000000000000000000000000600052604160045260246000fd5b61389a82613659565b810181811067ffffffffffffffff821117156138b9576138b8613862565b5b80604052505050565b60006138cc613419565b90506138d88282613891565b919050565b600067ffffffffffffffff8211156138f8576138f7613862565b5b602082029050602081019050919050565b600080fd5b600061392161391c846138dd565b6138c2565b9050808382526020820190506020840283018581111561394457613943613909565b5b835b8181101561396d578061395988826134ac565b845260208401935050602081019050613946565b5050509392505050565b600082601f83011261398c5761398b61385d565b5b813561399c84826020860161390e565b91505092915050565b600080fd5b600067ffffffffffffffff8211156139c5576139c4613862565b5b6139ce82613659565b9050602081019050919050565b82818337600083830152505050565b60006139fd6139f8846139aa565b6138c2565b905082815260208101848484011115613a1957613a186139a5565b5b613a248482856139db565b509392505050565b600082601f830112613a4157613a4061385d565b5b8135613a518482602086016139ea565b91505092915050565b600080600080600060a08688031215613a7657613a75613423565b5b6000613a8488828901613476565b9550506020613a9588828901613476565b945050604086013567ffffffffffffffff811115613ab657613ab5613428565b5b613ac288828901613977565b935050606086013567ffffffffffffffff811115613ae357613ae2613428565b5b613aef88828901613977565b925050608086013567ffffffffffffffff811115613b1057613b0f613428565b5b613b1c88828901613a2c565b9150509295509295909350565b60008060408385031215613b4057613b3f613423565b5b6000613b4e858286016134ac565b9250506020613b5f858286016134ac565b9150509250929050565b613b728161344d565b82525050565b6000606082019050613b8d6000830186613b69565b613b9a6020830185613501565b613ba76040830184613501565b949350505050565b600060208284031215613bc557613bc4613423565b5b6000613bd384828501613476565b91505092915050565b600081519050919050565b600082825260208201905092915050565b6000819050602082019050919050565b6000613c148383613700565b60208301905092915050565b6000602082019050919050565b6000613c3882613bdc565b613c428185613be7565b9350613c4d83613bf8565b8060005b83811015613c7e578151613c658882613c08565b9750613c7083613c20565b925050600181019050613c51565b5085935050505092915050565b60006040820190508181036000830152613ca58185613c2d565b90508181036020830152613cb98184613c2d565b90509392505050565b600080600060608486031215613cdb57613cda613423565b5b6000613ce9868287016134ac565b9350506020613cfa868287016134ac565b9250506040613d0b868287016134ac565b9150509250925092565b606082016000820151613d2b60008501826136f1565b506020820151613d3e6020850182613700565b506040820151613d516040850182613700565b50505050565b6000606082019050613d6c6000830184613d15565b92915050565b600067ffffffffffffffff821115613d8d57613d8c613862565b5b602082029050602081019050919050565b6000613db1613dac84613d72565b6138c2565b90508083825260208201905060208402830185811115613dd457613dd3613909565b5b835b81811015613dfd5780613de98882613476565b845260208401935050602081019050613dd6565b5050509392505050565b600082601f830112613e1c57613e1b61385d565b5b8135613e2c848260208601613d9e565b91505092915050565b60008060408385031215613e4c57613e4b613423565b5b600083013567ffffffffffffffff811115613e6a57613e69613428565b5b613e7685828601613e07565b925050602083013567ffffffffffffffff811115613e9757613e96613428565b5b613ea385828601613977565b9150509250929050565b60006020820190508181036000830152613ec78184613c2d565b905092915050565b6000602082019050613ee46000830184613b69565b92915050565b6000604082019050613eff6000830185613501565b613f0c6020830184613501565b9392505050565b613f1c816135b0565b8114613f2757600080fd5b50565b600081359050613f3981613f13565b92915050565b60008060408385031215613f5657613f55613423565b5b6000613f6485828601613476565b9250506020613f7585828601613f2a565b9150509250929050565b600080fd5b60008083601f840112613f9a57613f9961385d565b5b8235905067ffffffffffffffff811115613fb757613fb6613f7f565b5b602083019150836020820283011115613fd357613fd2613909565b5b9250929050565b60008083601f840112613ff057613fef61385d565b5b8235905067ffffffffffffffff81111561400d5761400c613f7f565b5b60208301915083600182028301111561402957614028613909565b5b9250929050565b60008060008060008060008060a0898b0312156140505761404f613423565b5b600061405e8b828c01613476565b985050602061406f8b828c01613476565b975050604089013567ffffffffffffffff8111156140905761408f613428565b5b61409c8b828c01613f84565b9650965050606089013567ffffffffffffffff8111156140bf576140be613428565b5b6140cb8b828c01613f84565b9450945050608089013567ffffffffffffffff8111156140ee576140ed613428565b5b6140fa8b828c01613fda565b92509250509295985092959890939650565b6141158161352b565b82525050565b6000602082019050614130600083018461410c565b92915050565b600067ffffffffffffffff82111561415157614150613862565b5b61415a82613659565b9050602081019050919050565b600061417a61417584614136565b6138c2565b905082815260208101848484011115614196576141956139a5565b5b6141a18482856139db565b509392505050565b600082601f8301126141be576141bd61385d565b5b81356141ce848260208601614167565b91505092915050565b600080604083850312156141ee576141ed613423565b5b600083013567ffffffffffffffff81111561420c5761420b613428565b5b614218858286016141a9565b925050602061422985828601613476565b9150509250929050565b6000806000806080858703121561424d5761424c613423565b5b600061425b87828801613476565b945050602061426c878288016134ac565b935050604061427d878288016134ac565b925050606061428e878288016134ac565b91505092959194509250565b600080600080608085870312156142b4576142b3613423565b5b60006142c2878288016134ac565b94505060206142d387828801613476565b93505060406142e4878288016134ac565b92505060606142f5878288016134ac565b91505092959194509250565b6000806040838503121561431857614317613423565b5b600061432685828601613476565b925050602061433785828601613476565b9150509250929050565b60008060008060008060a0878903121561435e5761435d613423565b5b600061436c89828a01613476565b965050602061437d89828a01613476565b955050604061438e89828a016134ac565b945050606061439f89828a016134ac565b935050608087013567ffffffffffffffff8111156143c0576143bf613428565b5b6143cc89828a01613fda565b92509250509295509295509295565b600080600080600060a086880312156143f7576143f6613423565b5b600061440588828901613476565b955050602061441688828901613476565b9450506040614427888289016134ac565b9350506060614438888289016134ac565b925050608086013567ffffffffffffffff81111561445957614458613428565b5b61446588828901613a2c565b9150509295509295909350565b7f4e487b7100000000000000000000000000000000000000000000000000000000600052602260045260246000fd5b600060028204905060018216806144b957607f821691505b6020821081036144cc576144cb614472565b5b50919050565b600081905092915050565b7f68747470733a2f2f6d7970726f6a6563742e636f6d2f6d657461646174612f00600082015250565b6000614513601f836144d2565b915061451e826144dd565b601f82019050919050565b600061453482613613565b61453e81856144d2565b935061454e81856020860161362f565b80840191505092915050565b7f2e6a736f6e000000000000000000000000000000000000000000000000000000600082015250565b60006145906005836144d2565b915061459b8261455a565b600582019050919050565b60006145b182614506565b91506145bd8284614529565b91506145c882614583565b915081905092915050565b7f4e487b7100000000000000000000000000000000000000000000000000000000600052603260045260246000fd5b7f53656c6c206974656d206e6f7420666f756e6400000000000000000000000000600082015250565b600061463860138361361e565b915061464382614602565b602082019050919050565b600060208201905081810360008301526146678161462b565b9050919050565b7f4e487b7100000000000000000000000000000000000000000000000000000000600052601160045260246000fd5b60006146a88261348b565b91506146b38361348b565b92508282019050808211156146cb576146ca61466e565b5b92915050565b60006146dc8261348b565b91506146e78361348b565b92508282039050818111156146ff576146fe61466e565b5b92915050565b7f4e487b7100000000000000000000000000000000000000000000000000000000600052603160045260246000fd5b60006040820190506147496000830185613b69565b6147566020830184613b69565b9392505050565b7f53656c6c7374616b65206e6f7420666f756e6400000000000000000000000000600082015250565b600061479360138361361e565b915061479e8261475d565b602082019050919050565b600060208201905081810360008301526147c281614786565b9050919050565b7f496e646578206f7574206f6620626f756e647300000000000000000000000000600082015250565b60006147ff60138361361e565b915061480a826147c9565b602082019050919050565b6000602082019050818103600083015261482e816147f2565b9050919050565b60008190508160005260206000209050919050565b60006020601f8301049050919050565b600082821b905092915050565b6000600883026148977fffffffffffffffffffffffffffffffffffffffffffffffffffffffffffffffff8261485a565b6148a1868361485a565b95508019841693508086168417925050509392505050565b6000819050919050565b60006148de6148d96148d48461348b565b6148b9565b61348b565b9050919050565b6000819050919050565b6148f8836148c3565b61490c614904826148e5565b848454614867565b825550505050565b600090565b614921614914565b61492c8184846148ef565b505050565b5b8181101561495057614945600082614919565b600181019050614932565b5050565b601f8211156149955761496681614835565b61496f8461484a565b8101602085101561497e578190505b61499261498a8561484a565b830182614931565b50505b505050565b600082821c905092915050565b60006149b86000198460080261499a565b1980831691505092915050565b60006149d183836149a7565b9150826002028217905092915050565b6149ea82613613565b67ffffffffffffffff811115614a0357614a02613862565b5b614a0d82546144a1565b614a18828285614954565b600060209050601f831160018114614a4b5760008415614a39578287015190505b614a4385826149c5565b865550614aab565b601f198416614a5986614835565b60005b82811015614a8157848901518255600182019150602085019450602081019050614a5c565b86831015614a9e5784890151614a9a601f8916826149a7565b8355505b6001600288020188555050505b505050505050565b6000614abe8261348b565b91507fffffffffffffffffffffffffffffffffffffffffffffffffffffffffffffffff8203614af057614aef61466e565b5b600182019050919050565b7f496e73756666696369656e7420746f6b656e7300000000000000000000000000600082015250565b6000614b3160138361361e565b9150614b3c82614afb565b602082019050919050565b60006020820190508181036000830152614b6081614b24565b9050919050565b7f5072696365206d7573742062652067726561746572207468616e203000000000600082015250565b6000614b9d601c8361361e565b9150614ba882614b67565b602082019050919050565b60006020820190508181036000830152614bcc81614b90565b9050919050565b7f4d7573742073656c6c206174206c65617374203120746f6b656e000000000000600082015250565b6000614c09601a8361361e565b9150614c1482614bd3565b602082019050919050565b60006020820190508181036000830152614c3881614bfc565b9050919050565b7f4e6f7420656e6f75676820746f6b656e73000000000000000000000000000000600082015250565b6000614c7560118361361e565b9150614c8082614c3f565b602082019050919050565b60006020820190508181036000830152614ca481614c68565b9050919050565b7f496e636f72726563742070726963650000000000000000000000000000000000600082015250565b6000614ce1600f8361361e565b9150614cec82614cab565b602082019050919050565b60006020820190508181036000830152614d1081614cd4565b9050919050565b7f43616e6e6f742062757920796f7572206f776e204e4654000000000000000000600082015250565b6000614d4d60178361361e565b9150614d5882614d17565b602082019050919050565b60006020820190508181036000830152614d7c81614d40565b9050919050565b7f4e4654206e6f7420666f722073616c6500000000000000000000000000000000600082015250565b6000614db960108361361e565b9150614dc482614d83565b602082019050919050565b60006020820190508181036000830152614de881614dac565b9050919050565b7f4e487b7100000000000000000000000000000000000000000000000000000000600052601260045260246000fd5b6000608082019050614e336000830187613b69565b614e406020830186613501565b614e4d6040830185613501565b614e5a6060830184613501565b95945050505050565b600081519050919050565b600082825260208201905092915050565b6000614e8a82614e63565b614e948185614e6e565b9350614ea481856020860161362f565b614ead81613659565b840191505092915050565b600060a082019050614ecd6000830188613b69565b614eda6020830187613b69565b614ee76040830186613501565b614ef46060830185613501565b8181036080830152614f068184614e7f565b90509695505050505050565b600081519050614f2181613557565b92915050565b600060208284031215614f3d57614f3c613423565b5b6000614f4b84828501614f12565b91505092915050565b600060a082019050614f696000830188613b69565b614f766020830187613b69565b8181036040830152614f888186613c2d565b90508181036060830152614f9c8185613c2d565b90508181036080830152614fb08184614e7f565b9050969550505050505056fea2646970667358221220042388d72502383b33e5c9ddcabe933033f4d145b61d1a636ced9d6c81d9fdfc64736f6c634300081e003368747470733a2f2f6d7970726f6a6563742e636f6d2f6d657461646174612f7b69647d2e6a736f6e",
  "linkReferences": {},
  "deployedLinkReferences": {}
}