{
  "_format": "hh-sol-artifact-1",
  "contractName": "MetaBingNFT",
  "sourceName": "contracts/MetaBingNFT.sol",
  "abi": [
    {
      "inputs": [
        {
          "internalType": "address",
          "name": "_bingNFTAddress",
          "type": "address"
        }
      ],
      "stateMutability": "nonpayable",
      "type": "constructor"
    },
    {
      "anonymous": false,
      "inputs": [
        {
          "indexed": true,
          "internalType": "address",
          "name": "user",
          "type": "address"
        },
        {
          "indexed": false,
          "internalType": "uint256",
          "name": "tokenId",
          "type": "uint256"
        },
        {
          "indexed": false,
          "internalType": "uint256",
          "name": "amount",
          "type": "uint256"
        },
        {
          "indexed": false,
          "internalType": "string",
          "name": "metadata",
          "type": "string"
        }
      ],
      "name": "NFTMinted",
      "type": "event"
    },
    {
      "inputs": [
        {
          "internalType": "uint256",
          "name": "nftid",
          "type": "uint256"
        },
        {
          "internalType": "address",
          "name": "sender",
          "type": "address"
        },
        {
          "internalType": "uint256",
          "name": "token",
          "type": "uint256"
        },
        {
          "internalType": "uint256",
          "name": "price",
          "type": "uint256"
        }
      ],
      "name": "BuyNFT",
      "outputs": [],
      "stateMutability": "nonpayable",
      "type": "function"
    },
    {
      "inputs": [
        {
          "internalType": "address",
          "name": "sender",
          "type": "address"
        },
        {
          "internalType": "uint256",
          "name": "nftid",
          "type": "uint256"
        },
        {
          "internalType": "uint256",
          "name": "token",
          "type": "uint256"
        },
        {
          "internalType": "uint256",
          "name": "price",
          "type": "uint256"
        }
      ],
      "name": "SellNFT",
      "outputs": [],
      "stateMutability": "nonpayable",
      "type": "function"
    },
    {
      "inputs": [],
      "name": "bingNFT",
      "outputs": [
        {
          "internalType": "contract BingNFT",
          "name": "",
          "type": "address"
        }
      ],
      "stateMutability": "view",
      "type": "function"
    },
    {
      "inputs": [
        {
          "internalType": "uint256",
          "name": "nftid",
          "type": "uint256"
        },
        {
          "internalType": "uint256",
          "name": "token",
          "type": "uint256"
        },
        {
          "internalType": "uint256",
          "name": "price",
          "type": "uint256"
        },
        {
          "internalType": "address",
          "name": "sender",
          "type": "address"
        }
      ],
      "name": "cancelSale",
      "outputs": [],
      "stateMutability": "nonpayable",
      "type": "function"
    },
    {
      "inputs": [
        {
          "internalType": "address",
          "name": "user",
          "type": "address"
        }
      ],
      "name": "getAllTokenBalances",
      "outputs": [
        {
          "internalType": "uint256[]",
          "name": "tokenIds",
          "type": "uint256[]"
        },
        {
          "internalType": "uint256[]",
          "name": "balances",
          "type": "uint256[]"
        }
      ],
      "stateMutability": "view",
      "type": "function"
    },
    {
      "inputs": [],
      "name": "getContractInfo",
      "outputs": [
        {
          "internalType": "address",
          "name": "nftContract",
          "type": "address"
        },
        {
          "internalType": "address",
          "name": "contractOwner",
          "type": "address"
        }
      ],
      "stateMutability": "view",
      "type": "function"
    },
    {
      "inputs": [
        {
          "internalType": "address",
          "name": "user",
          "type": "address"
        },
        {
          "internalType": "uint256",
          "name": "tknId",
          "type": "uint256"
        }
      ],
      "name": "getCurrentBalance",
      "outputs": [
        {
          "internalType": "uint256",
          "name": "",
          "type": "uint256"
        }
      ],
      "stateMutability": "view",
      "type": "function"
    },
    {
      "inputs": [
        {
          "internalType": "address",
          "name": "user",
          "type": "address"
        }
      ],
      "name": "getMintedTokens",
      "outputs": [
        {
          "internalType": "uint256[]",
          "name": "tokenIds",
          "type": "uint256[]"
        },
        {
          "internalType": "uint256[]",
          "name": "amounts",
          "type": "uint256[]"
        }
      ],
      "stateMutability": "view",
      "type": "function"
    },
    {
      "inputs": [
        {
          "internalType": "address",
          "name": "user",
          "type": "address"
        },
        {
          "internalType": "uint256",
          "name": "index",
          "type": "uint256"
        }
      ],
      "name": "getOwnerTokenAtIndex",
      "outputs": [
        {
          "internalType": "uint256",
          "name": "tokenId",
          "type": "uint256"
        },
        {
          "internalType": "uint256",
          "name": "amount",
          "type": "uint256"
        }
      ],
      "stateMutability": "view",
      "type": "function"
    },
    {
      "inputs": [
        {
          "internalType": "address",
          "name": "user",
          "type": "address"
        }
      ],
      "name": "getOwnerTokenCount",
      "outputs": [
        {
          "internalType": "uint256",
          "name": "",
          "type": "uint256"
        }
      ],
      "stateMutability": "view",
      "type": "function"
    },
    {
      "inputs": [
        {
          "internalType": "uint256",
          "name": "item",
          "type": "uint256"
        }
      ],
      "name": "getall",
      "outputs": [
        {
          "components": [
            {
              "internalType": "address",
              "name": "seller",
              "type": "address"
            },
            {
              "internalType": "uint256",
              "name": "token",
              "type": "uint256"
            },
            {
              "internalType": "uint256",
              "name": "price",
              "type": "uint256"
            }
          ],
          "internalType": "struct BingNFT.Sellstake[]",
          "name": "",
          "type": "tuple[]"
        }
      ],
      "stateMutability": "view",
      "type": "function"
    },
    {
      "inputs": [],
      "name": "owner",
      "outputs": [
        {
          "internalType": "address",
          "name": "",
          "type": "address"
        }
      ],
      "stateMutability": "view",
      "type": "function"
    },
    {
      "inputs": [
        {
          "internalType": "string",
          "name": "newURI",
          "type": "string"
        },
        {
          "internalType": "address",
          "name": "sender",
          "type": "address"
        }
      ],
      "name": "setTokenURI",
      "outputs": [],
      "stateMutability": "nonpayable",
      "type": "function"
    },
    {
      "inputs": [
        {
          "internalType": "string",
          "name": "newuri",
          "type": "string"
        }
      ],
      "name": "settokenURI",
      "outputs": [],
      "stateMutability": "nonpayable",
      "type": "function"
    },
    {
      "inputs": [
        {
          "internalType": "address",
          "name": "newOwner",
          "type": "address"
        }
      ],
      "name": "transferOwnership",
      "outputs": [],
      "stateMutability": "nonpayable",
      "type": "function"
    },
    {
      "inputs": [
        {
          "internalType": "uint256",
          "name": "tokenid",
          "type": "uint256"
        }
      ],
      "name": "uri",
      "outputs": [
        {
          "internalType": "string",
          "name": "",
          "type": "string"
        }
      ],
      "stateMutability": "view",
      "type": "function"
    },
    {
      "inputs": [
        {
          "internalType": "address",
          "name": "user",
          "type": "address"
        }
      ],
      "name": "userTokens",
      "outputs": [
        {
          "internalType": "uint256[]",
          "name": "",
          "type": "uint256[]"
        }
      ],
      "stateMutability": "view",
      "type": "function"
    },
    {
      "stateMutability": "payable",
      "type": "receive"
    }
  ],
  "bytecode": "0x608060405234801561001057600080fd5b50604051611f18380380611f188339818101604052810190610032919061011c565b806000806101000a81548173ffffffffffffffffffffffffffffffffffffffff021916908373ffffffffffffffffffffffffffffffffffffffff16021790555033600160006101000a81548173ffffffffffffffffffffffffffffffffffffffff021916908373ffffffffffffffffffffffffffffffffffffffff16021790555050610149565b600080fd5b600073ffffffffffffffffffffffffffffffffffffffff82169050919050565b60006100e9826100be565b9050919050565b6100f9816100de565b811461010457600080fd5b50565b600081519050610116816100f0565b92915050565b600060208284031215610132576101316100b9565b5b600061014084828501610107565b91505092915050565b611dc0806101586000396000f3fe6080604052600436106101025760003560e01c80637cc1f86711610095578063d50bcc7111610064578063d50bcc711461037c578063d80a08da146103b9578063e763ebeb146103e2578063ed498fa81461040b578063f2fde38b1461044857610109565b80637cc1f867146102be578063823d7af5146102ea5780638da5cb5b146103135780639145d1331461033e57610109565b80632ce18d17116100d15780632ce18d17146101dc578063434a49a114610205578063681bec6c1461024357806375388a0f1461028157610109565b80630294c7851461010e5780630e89341c146101395780631c3fcc601461017657806323a77641146101b357610109565b3661010957005b600080fd5b34801561011a57600080fd5b50610123610471565b6040516101309190610f39565b60405180910390f35b34801561014557600080fd5b50610160600480360381019061015b9190610f9e565b610495565b60405161016d919061105b565b60405180910390f35b34801561018257600080fd5b5061019d60048036038101906101989190610f9e565b61053d565b6040516101aa919061119e565b60405180910390f35b3480156101bf57600080fd5b506101da60048036038101906101d591906112f5565b6105e5565b005b3480156101e857600080fd5b5061020360048036038101906101fe919061136a565b610687565b005b34801561021157600080fd5b5061022c600480360381019061022791906113d1565b61071e565b60405161023a9291906114ad565b60405180910390f35b34801561024f57600080fd5b5061026a600480360381019061026591906113d1565b6107c9565b6040516102789291906114ad565b60405180910390f35b34801561028d57600080fd5b506102a860048036038101906102a391906114e4565b610874565b6040516102b59190611533565b60405180910390f35b3480156102ca57600080fd5b506102d361091b565b6040516102e192919061155d565b60405180910390f35b3480156102f657600080fd5b50610311600480360381019061030c9190611586565b61096a565b005b34801561031f57600080fd5b50610328610a9d565b60405161033591906115e2565b60405180910390f35b34801561034a57600080fd5b50610365600480360381019061036091906114e4565b610ac3565b6040516103739291906115fd565b60405180910390f35b34801561038857600080fd5b506103a3600480360381019061039e91906113d1565b610b6c565b6040516103b09190611533565b60405180910390f35b3480156103c557600080fd5b506103e060048036038101906103db9190611626565b610c10565b005b3480156103ee57600080fd5b506104096004803603810190610404919061168d565b610ca7565b005b34801561041757600080fd5b50610432600480360381019061042d91906113d1565b610d3e565b60405161043f91906116f4565b60405180910390f35b34801561045457600080fd5b5061046f600480360381019061046a91906113d1565b610de6565b005b60008054906101000a900473ffffffffffffffffffffffffffffffffffffffff1681565b606060008054906101000a900473ffffffffffffffffffffffffffffffffffffffff1673ffffffffffffffffffffffffffffffffffffffff16630e89341c836040518263ffffffff1660e01b81526004016104f09190611533565b600060405180830381865afa15801561050d573d6000803e3d6000fd5b505050506040513d6000823e3d601f19601f820116820180604052508101906105369190611786565b9050919050565b606060008054906101000a900473ffffffffffffffffffffffffffffffffffffffff1673ffffffffffffffffffffffffffffffffffffffff16631c3fcc60836040518263ffffffff1660e01b81526004016105989190611533565b600060405180830381865afa1580156105b5573d6000803e3d6000fd5b505050506040513d6000823e3d601f19601f820116820180604052508101906105de919061192a565b9050919050565b60008054906101000a900473ffffffffffffffffffffffffffffffffffffffff1673ffffffffffffffffffffffffffffffffffffffff1663cc0a48d482336040518363ffffffff1660e01b8152600401610640929190611973565b6020604051808303816000875af115801561065f573d6000803e3d6000fd5b505050506040513d601f19601f8201168201806040525081019061068391906119a3565b5050565b60008054906101000a900473ffffffffffffffffffffffffffffffffffffffff1673ffffffffffffffffffffffffffffffffffffffff16632ce18d17858585856040518563ffffffff1660e01b81526004016106e694939291906119d0565b600060405180830381600087803b15801561070057600080fd5b505af1158015610714573d6000803e3d6000fd5b5050505050505050565b60608060008054906101000a900473ffffffffffffffffffffffffffffffffffffffff1673ffffffffffffffffffffffffffffffffffffffff1663434a49a1846040518263ffffffff1660e01b815260040161077a91906115e2565b600060405180830381865afa158015610797573d6000803e3d6000fd5b505050506040513d6000823e3d601f19601f820116820180604052508101906107c09190611ad8565b91509150915091565b60608060008054906101000a900473ffffffffffffffffffffffffffffffffffffffff1673ffffffffffffffffffffffffffffffffffffffff1663681bec6c846040518263ffffffff1660e01b815260040161082591906115e2565b600060405180830381865afa158015610842573d6000803e3d6000fd5b505050506040513d6000823e3d601f19601f8201168201806040525081019061086b9190611ad8565b91509150915091565b60008060009054906101000a900473ffffffffffffffffffffffffffffffffffffffff1673ffffffffffffffffffffffffffffffffffffffff166375388a0f84846040518363ffffffff1660e01b81526004016108d2929190611b50565b602060405180830381865afa1580156108ef573d6000803e3d6000fd5b505050506040513d601f19601f8201168201806040525081019061091391906119a3565b905092915050565b60008060008054906101000a900473ffffffffffffffffffffffffffffffffffffffff16600160009054906101000a900473ffffffffffffffffffffffffffffffffffffffff16915091509091565b600160009054906101000a900473ffffffffffffffffffffffffffffffffffffffff1673ffffffffffffffffffffffffffffffffffffffff163373ffffffffffffffffffffffffffffffffffffffff16146109fa576040517f08c379a00000000000000000000000000000000000000000000000000000000081526004016109f190611bc5565b60405180910390fd5b60008054906101000a900473ffffffffffffffffffffffffffffffffffffffff1673ffffffffffffffffffffffffffffffffffffffff1663cc0a48d483836040518363ffffffff1660e01b8152600401610a55929190611973565b6020604051808303816000875af1158015610a74573d6000803e3d6000fd5b505050506040513d601f19601f82011682018060405250810190610a9891906119a3565b505050565b600160009054906101000a900473ffffffffffffffffffffffffffffffffffffffff1681565b60008060008054906101000a900473ffffffffffffffffffffffffffffffffffffffff1673ffffffffffffffffffffffffffffffffffffffff16639145d13385856040518363ffffffff1660e01b8152600401610b21929190611b50565b6040805180830381865afa158015610b3d573d6000803e3d6000fd5b505050506040513d601f19601f82011682018060405250810190610b619190611be5565b915091509250929050565b60008060009054906101000a900473ffffffffffffffffffffffffffffffffffffffff1673ffffffffffffffffffffffffffffffffffffffff1663d50bcc71836040518263ffffffff1660e01b8152600401610bc891906115e2565b602060405180830381865afa158015610be5573d6000803e3d6000fd5b505050506040513d601f19601f82011682018060405250810190610c0991906119a3565b9050919050565b60008054906101000a900473ffffffffffffffffffffffffffffffffffffffff1673ffffffffffffffffffffffffffffffffffffffff1663d80a08da858585856040518563ffffffff1660e01b8152600401610c6f9493929190611c25565b600060405180830381600087803b158015610c8957600080fd5b505af1158015610c9d573d6000803e3d6000fd5b5050505050505050565b60008054906101000a900473ffffffffffffffffffffffffffffffffffffffff1673ffffffffffffffffffffffffffffffffffffffff1663e763ebeb858585856040518563ffffffff1660e01b8152600401610d069493929190611c6a565b600060405180830381600087803b158015610d2057600080fd5b505af1158015610d34573d6000803e3d6000fd5b5050505050505050565b606060008054906101000a900473ffffffffffffffffffffffffffffffffffffffff1673ffffffffffffffffffffffffffffffffffffffff1663ed498fa8836040518263ffffffff1660e01b8152600401610d9991906115e2565b600060405180830381865afa158015610db6573d6000803e3d6000fd5b505050506040513d6000823e3d601f19601f82011682018060405250810190610ddf9190611caf565b9050919050565b600160009054906101000a900473ffffffffffffffffffffffffffffffffffffffff1673ffffffffffffffffffffffffffffffffffffffff163373ffffffffffffffffffffffffffffffffffffffff1614610e76576040517f08c379a0000000000000000000000000000000000000000000000000000000008152600401610e6d90611d6a565b60405180910390fd5b80600160006101000a81548173ffffffffffffffffffffffffffffffffffffffff021916908373ffffffffffffffffffffffffffffffffffffffff16021790555050565b600073ffffffffffffffffffffffffffffffffffffffff82169050919050565b6000819050919050565b6000610eff610efa610ef584610eba565b610eda565b610eba565b9050919050565b6000610f1182610ee4565b9050919050565b6000610f2382610f06565b9050919050565b610f3381610f18565b82525050565b6000602082019050610f4e6000830184610f2a565b92915050565b6000604051905090565b600080fd5b600080fd5b6000819050919050565b610f7b81610f68565b8114610f8657600080fd5b50565b600081359050610f9881610f72565b92915050565b600060208284031215610fb457610fb3610f5e565b5b6000610fc284828501610f89565b91505092915050565b600081519050919050565b600082825260208201905092915050565b60005b83811015611005578082015181840152602081019050610fea565b60008484015250505050565b6000601f19601f8301169050919050565b600061102d82610fcb565b6110378185610fd6565b9350611047818560208601610fe7565b61105081611011565b840191505092915050565b600060208201905081810360008301526110758184611022565b905092915050565b600081519050919050565b600082825260208201905092915050565b6000819050602082019050919050565b60006110b482610eba565b9050919050565b6110c4816110a9565b82525050565b6110d381610f68565b82525050565b6060820160008201516110ef60008501826110bb565b50602082015161110260208501826110ca565b50604082015161111560408501826110ca565b50505050565b600061112783836110d9565b60608301905092915050565b6000602082019050919050565b600061114b8261107d565b6111558185611088565b935061116083611099565b8060005b83811015611191578151611178888261111b565b975061118383611133565b925050600181019050611164565b5085935050505092915050565b600060208201905081810360008301526111b88184611140565b905092915050565b600080fd5b600080fd5b7f4e487b7100000000000000000000000000000000000000000000000000000000600052604160045260246000fd5b61120282611011565b810181811067ffffffffffffffff82111715611221576112206111ca565b5b80604052505050565b6000611234610f54565b905061124082826111f9565b919050565b600067ffffffffffffffff8211156112605761125f6111ca565b5b61126982611011565b9050602081019050919050565b82818337600083830152505050565b600061129861129384611245565b61122a565b9050828152602081018484840111156112b4576112b36111c5565b5b6112bf848285611276565b509392505050565b600082601f8301126112dc576112db6111c0565b5b81356112ec848260208601611285565b91505092915050565b60006020828403121561130b5761130a610f5e565b5b600082013567ffffffffffffffff81111561132957611328610f63565b5b611335848285016112c7565b91505092915050565b611347816110a9565b811461135257600080fd5b50565b6000813590506113648161133e565b92915050565b6000806000806080858703121561138457611383610f5e565b5b600061139287828801610f89565b94505060206113a387828801610f89565b93505060406113b487828801610f89565b92505060606113c587828801611355565b91505092959194509250565b6000602082840312156113e7576113e6610f5e565b5b60006113f584828501611355565b91505092915050565b600081519050919050565b600082825260208201905092915050565b6000819050602082019050919050565b600061143683836110ca565b60208301905092915050565b6000602082019050919050565b600061145a826113fe565b6114648185611409565b935061146f8361141a565b8060005b838110156114a0578151611487888261142a565b975061149283611442565b925050600181019050611473565b5085935050505092915050565b600060408201905081810360008301526114c7818561144f565b905081810360208301526114db818461144f565b90509392505050565b600080604083850312156114fb576114fa610f5e565b5b600061150985828601611355565b925050602061151a85828601610f89565b9150509250929050565b61152d81610f68565b82525050565b60006020820190506115486000830184611524565b92915050565b611557816110a9565b82525050565b6000604082019050611572600083018561154e565b61157f602083018461154e565b9392505050565b6000806040838503121561159d5761159c610f5e565b5b600083013567ffffffffffffffff8111156115bb576115ba610f63565b5b6115c7858286016112c7565b92505060206115d885828601611355565b9150509250929050565b60006020820190506115f7600083018461154e565b92915050565b60006040820190506116126000830185611524565b61161f6020830184611524565b9392505050565b600080600080608085870312156116405761163f610f5e565b5b600061164e87828801611355565b945050602061165f87828801610f89565b935050604061167087828801610f89565b925050606061168187828801610f89565b91505092959194509250565b600080600080608085870312156116a7576116a6610f5e565b5b60006116b587828801610f89565b94505060206116c687828801611355565b93505060406116d787828801610f89565b92505060606116e887828801610f89565b91505092959194509250565b6000602082019050818103600083015261170e818461144f565b905092915050565b600061172961172484611245565b61122a565b905082815260208101848484011115611745576117446111c5565b5b611750848285610fe7565b509392505050565b600082601f83011261176d5761176c6111c0565b5b815161177d848260208601611716565b91505092915050565b60006020828403121561179c5761179b610f5e565b5b600082015167ffffffffffffffff8111156117ba576117b9610f63565b5b6117c684828501611758565b91505092915050565b600067ffffffffffffffff8211156117ea576117e96111ca565b5b602082029050602081019050919050565b600080fd5b600080fd5b6000815190506118148161133e565b92915050565b60008151905061182981610f72565b92915050565b60006060828403121561184557611844611800565b5b61184f606061122a565b9050600061185f84828501611805565b60008301525060206118738482850161181a565b60208301525060406118878482850161181a565b60408301525092915050565b60006118a66118a1846117cf565b61122a565b905080838252602082019050606084028301858111156118c9576118c86117fb565b5b835b818110156118f257806118de888261182f565b8452602084019350506060810190506118cb565b5050509392505050565b600082601f830112611911576119106111c0565b5b8151611921848260208601611893565b91505092915050565b6000602082840312156119405761193f610f5e565b5b600082015167ffffffffffffffff81111561195e5761195d610f63565b5b61196a848285016118fc565b91505092915050565b6000604082019050818103600083015261198d8185611022565b905061199c602083018461154e565b9392505050565b6000602082840312156119b9576119b8610f5e565b5b60006119c78482850161181a565b91505092915050565b60006080820190506119e56000830187611524565b6119f26020830186611524565b6119ff6040830185611524565b611a0c606083018461154e565b95945050505050565b600067ffffffffffffffff821115611a3057611a2f6111ca565b5b602082029050602081019050919050565b6000611a54611a4f84611a15565b61122a565b90508083825260208201905060208402830185811115611a7757611a766117fb565b5b835b81811015611aa05780611a8c888261181a565b845260208401935050602081019050611a79565b5050509392505050565b600082601f830112611abf57611abe6111c0565b5b8151611acf848260208601611a41565b91505092915050565b60008060408385031215611aef57611aee610f5e565b5b600083015167ffffffffffffffff811115611b0d57611b0c610f63565b5b611b1985828601611aaa565b925050602083015167ffffffffffffffff811115611b3a57611b39610f63565b5b611b4685828601611aaa565b9150509250929050565b6000604082019050611b65600083018561154e565b611b726020830184611524565b9392505050565b7f4f6e6c79206f776e65722063616e207365742055524900000000000000000000600082015250565b6000611baf601683610fd6565b9150611bba82611b79565b602082019050919050565b60006020820190508181036000830152611bde81611ba2565b9050919050565b60008060408385031215611bfc57611bfb610f5e565b5b6000611c0a8582860161181a565b9250506020611c1b8582860161181a565b9150509250929050565b6000608082019050611c3a600083018761154e565b611c476020830186611524565b611c546040830185611524565b611c616060830184611524565b95945050505050565b6000608082019050611c7f6000830187611524565b611c8c602083018661154e565b611c996040830185611524565b611ca66060830184611524565b95945050505050565b600060208284031215611cc557611cc4610f5e565b5b600082015167ffffffffffffffff811115611ce357611ce2610f63565b5b611cef84828501611aaa565b91505092915050565b7f4f6e6c79206f776e65722063616e207472616e73666572206f776e657273686960008201527f7000000000000000000000000000000000000000000000000000000000000000602082015250565b6000611d54602183610fd6565b9150611d5f82611cf8565b604082019050919050565b60006020820190508181036000830152611d8381611d47565b905091905056fea2646970667358221220f09e56067f614cfab9c04c89efff4c4738019bd6236863841977aa701d5bdd1364736f6c634300081e0033",
  "linkReferences": {},
  "deployedLinkReferences": {}
}