{
  "_format": "hh-sol-artifact-1",
  "contractName": "BingNFT",
  "sourceName": "contracts/BingNFt.sol",
  "abi": [
    {
      "inputs": [],
      "stateMutability": "nonpayable",
      "type": "constructor"
    },
    {
      "inputs": [
        {
          "internalType": "address",
          "name": "sender",
          "type": "address"
        },
        {
          "internalType": "uint256",
          "name": "balance",
          "type": "uint256"
        },
        {
          "internalType": "uint256",
          "name": "needed",
          "type": "uint256"
        },
        {
          "internalType": "uint256",
          "name": "tokenId",
          "type": "uint256"
        }
      ],
      "name": "ERC1155InsufficientBalance",
      "type": "error"
    },
    {
      "inputs": [
        {
          "internalType": "address",
          "name": "approver",
          "type": "address"
        }
      ],
      "name": "ERC1155InvalidApprover",
      "type": "error"
    },
    {
      "inputs": [
        {
          "internalType": "uint256",
          "name": "idsLength",
          "type": "uint256"
        },
        {
          "internalType": "uint256",
          "name": "valuesLength",
          "type": "uint256"
        }
      ],
      "name": "ERC1155InvalidArrayLength",
      "type": "error"
    },
    {
      "inputs": [
        {
          "internalType": "address",
          "name": "operator",
          "type": "address"
        }
      ],
      "name": "ERC1155InvalidOperator",
      "type": "error"
    },
    {
      "inputs": [
        {
          "internalType": "address",
          "name": "receiver",
          "type": "address"
        }
      ],
      "name": "ERC1155InvalidReceiver",
      "type": "error"
    },
    {
      "inputs": [
        {
          "internalType": "address",
          "name": "sender",
          "type": "address"
        }
      ],
      "name": "ERC1155InvalidSender",
      "type": "error"
    },
    {
      "inputs": [
        {
          "internalType": "address",
          "name": "operator",
          "type": "address"
        },
        {
          "internalType": "address",
          "name": "owner",
          "type": "address"
        }
      ],
      "name": "ERC1155MissingApprovalForAll",
      "type": "error"
    },
    {
      "anonymous": false,
      "inputs": [
        {
          "indexed": true,
          "internalType": "address",
          "name": "account",
          "type": "address"
        },
        {
          "indexed": true,
          "internalType": "address",
          "name": "operator",
          "type": "address"
        },
        {
          "indexed": false,
          "internalType": "bool",
          "name": "approved",
          "type": "bool"
        }
      ],
      "name": "ApprovalForAll",
      "type": "event"
    },
    {
      "anonymous": false,
      "inputs": [
        {
          "indexed": false,
          "internalType": "uint256",
          "name": "tokenId",
          "type": "uint256"
        },
        {
          "indexed": true,
          "internalType": "address",
          "name": "sender",
          "type": "address"
        },
        {
          "indexed": false,
          "internalType": "string",
          "name": "uri",
          "type": "string"
        }
      ],
      "name": "TokenURICreated",
      "type": "event"
    },
    {
      "anonymous": false,
      "inputs": [
        {
          "indexed": true,
          "internalType": "address",
          "name": "operator",
          "type": "address"
        },
        {
          "indexed": true,
          "internalType": "address",
          "name": "from",
          "type": "address"
        },
        {
          "indexed": true,
          "internalType": "address",
          "name": "to",
          "type": "address"
        },
        {
          "indexed": false,
          "internalType": "uint256[]",
          "name": "ids",
          "type": "uint256[]"
        },
        {
          "indexed": false,
          "internalType": "uint256[]",
          "name": "values",
          "type": "uint256[]"
        }
      ],
      "name": "TransferBatch",
      "type": "event"
    },
    {
      "anonymous": false,
      "inputs": [
        {
          "indexed": true,
          "internalType": "address",
          "name": "operator",
          "type": "address"
        },
        {
          "indexed": true,
          "internalType": "address",
          "name": "from",
          "type": "address"
        },
        {
          "indexed": true,
          "internalType": "address",
          "name": "to",
          "type": "address"
        },
        {
          "indexed": false,
          "internalType": "uint256",
          "name": "id",
          "type": "uint256"
        },
        {
          "indexed": false,
          "internalType": "uint256",
          "name": "value",
          "type": "uint256"
        }
      ],
      "name": "TransferSingle",
      "type": "event"
    },
    {
      "anonymous": false,
      "inputs": [
        {
          "indexed": false,
          "internalType": "string",
          "name": "value",
          "type": "string"
        },
        {
          "indexed": true,
          "internalType": "uint256",
          "name": "id",
          "type": "uint256"
        }
      ],
      "name": "URI",
      "type": "event"
    },
    {
      "anonymous": false,
      "inputs": [
        {
          "indexed": false,
          "internalType": "address",
          "name": "seller",
          "type": "address"
        },
        {
          "indexed": false,
          "internalType": "uint256",
          "name": "token",
          "type": "uint256"
        },
        {
          "indexed": false,
          "internalType": "uint256",
          "name": "price",
          "type": "uint256"
        }
      ],
      "name": "buyItemLists",
      "type": "event"
    },
    {
      "anonymous": false,
      "inputs": [
        {
          "indexed": false,
          "internalType": "address",
          "name": "seller",
          "type": "address"
        },
        {
          "indexed": false,
          "internalType": "uint256",
          "name": "token",
          "type": "uint256"
        },
        {
          "indexed": false,
          "internalType": "uint256",
          "name": "price",
          "type": "uint256"
        }
      ],
      "name": "createdItemLists",
      "type": "event"
    },
    {
      "anonymous": false,
      "inputs": [
        {
          "indexed": false,
          "internalType": "address",
          "name": "seller",
          "type": "address"
        },
        {
          "indexed": false,
          "internalType": "uint256",
          "name": "token",
          "type": "uint256"
        },
        {
          "indexed": false,
          "internalType": "uint256",
          "name": "price",
          "type": "uint256"
        }
      ],
      "name": "sellItemLists",
      "type": "event"
    },
    {
      "inputs": [
        {
          "internalType": "address",
          "name": "sender",
          "type": "address"
        },
        {
          "internalType": "address",
          "name": "receiver",
          "type": "address"
        },
        {
          "internalType": "uint256",
          "name": "nftid",
          "type": "uint256"
        },
        {
          "internalType": "uint256",
          "name": "price",
          "type": "uint256"
        }
      ],
      "name": "BuyNFT",
      "outputs": [],
      "stateMutability": "nonpayable",
      "type": "function"
    },
    {
      "inputs": [
        {
          "internalType": "address",
          "name": "sender",
          "type": "address"
        },
        {
          "internalType": "uint256",
          "name": "nftid",
          "type": "uint256"
        },
        {
          "internalType": "uint256",
          "name": "token",
          "type": "uint256"
        },
        {
          "internalType": "uint256",
          "name": "price",
          "type": "uint256"
        }
      ],
      "name": "SellNFT",
      "outputs": [],
      "stateMutability": "nonpayable",
      "type": "function"
    },
    {
      "inputs": [
        {
          "internalType": "uint256",
          "name": "",
          "type": "uint256"
        }
      ],
      "name": "SellNftList",
      "outputs": [
        {
          "internalType": "address",
          "name": "owner",
          "type": "address"
        },
        {
          "internalType": "uint256",
          "name": "nftid",
          "type": "uint256"
        }
      ],
      "stateMutability": "view",
      "type": "function"
    },
    {
      "inputs": [
        {
          "internalType": "address",
          "name": "account",
          "type": "address"
        },
        {
          "internalType": "uint256",
          "name": "id",
          "type": "uint256"
        }
      ],
      "name": "balanceOf",
      "outputs": [
        {
          "internalType": "uint256",
          "name": "",
          "type": "uint256"
        }
      ],
      "stateMutability": "view",
      "type": "function"
    },
    {
      "inputs": [
        {
          "internalType": "address[]",
          "name": "accounts",
          "type": "address[]"
        },
        {
          "internalType": "uint256[]",
          "name": "ids",
          "type": "uint256[]"
        }
      ],
      "name": "balanceOfBatch",
      "outputs": [
        {
          "internalType": "uint256[]",
          "name": "",
          "type": "uint256[]"
        }
      ],
      "stateMutability": "view",
      "type": "function"
    },
    {
      "inputs": [
        {
          "internalType": "uint256",
          "name": "nftid",
          "type": "uint256"
        },
        {
          "internalType": "address",
          "name": "sender",
          "type": "address"
        }
      ],
      "name": "cancelSale",
      "outputs": [],
      "stateMutability": "nonpayable",
      "type": "function"
    },
    {
      "inputs": [],
      "name": "getAllListedNFTIds",
      "outputs": [
        {
          "components": [
            {
              "internalType": "address",
              "name": "owner",
              "type": "address"
            },
            {
              "internalType": "uint256",
              "name": "nftid",
              "type": "uint256"
            }
          ],
          "internalType": "struct BingNFT.SellList[]",
          "name": "",
          "type": "tuple[]"
        }
      ],
      "stateMutability": "view",
      "type": "function"
    },
    {
      "inputs": [
        {
          "internalType": "address",
          "name": "user",
          "type": "address"
        }
      ],
      "name": "getAllTokenBalances",
      "outputs": [
        {
          "internalType": "uint256[]",
          "name": "tokenIds",
          "type": "uint256[]"
        },
        {
          "internalType": "uint256[]",
          "name": "balances",
          "type": "uint256[]"
        }
      ],
      "stateMutability": "view",
      "type": "function"
    },
    {
      "inputs": [
        {
          "internalType": "address",
          "name": "owner",
          "type": "address"
        },
        {
          "internalType": "uint256",
          "name": "nftid",
          "type": "uint256"
        }
      ],
      "name": "getBalance",
      "outputs": [
        {
          "internalType": "uint256",
          "name": "",
          "type": "uint256"
        }
      ],
      "stateMutability": "view",
      "type": "function"
    },
    {
      "inputs": [
        {
          "internalType": "address",
          "name": "user",
          "type": "address"
        },
        {
          "internalType": "uint256",
          "name": "tknId",
          "type": "uint256"
        }
      ],
      "name": "getCurrentBalance",
      "outputs": [
        {
          "internalType": "uint256",
          "name": "",
          "type": "uint256"
        }
      ],
      "stateMutability": "view",
      "type": "function"
    },
    {
      "inputs": [
        {
          "internalType": "address",
          "name": "user",
          "type": "address"
        }
      ],
      "name": "getMintedTokens",
      "outputs": [
        {
          "internalType": "uint256[]",
          "name": "tokenIds",
          "type": "uint256[]"
        },
        {
          "internalType": "uint256[]",
          "name": "amounts",
          "type": "uint256[]"
        }
      ],
      "stateMutability": "view",
      "type": "function"
    },
    {
      "inputs": [
        {
          "internalType": "address",
          "name": "user",
          "type": "address"
        },
        {
          "internalType": "uint256",
          "name": "index",
          "type": "uint256"
        }
      ],
      "name": "getOwnerTokenAtIndex",
      "outputs": [
        {
          "internalType": "uint256",
          "name": "tokenid",
          "type": "uint256"
        },
        {
          "internalType": "uint256",
          "name": "amount",
          "type": "uint256"
        }
      ],
      "stateMutability": "view",
      "type": "function"
    },
    {
      "inputs": [
        {
          "internalType": "address",
          "name": "user",
          "type": "address"
        }
      ],
      "name": "getOwnerTokenCount",
      "outputs": [
        {
          "internalType": "uint256",
          "name": "",
          "type": "uint256"
        }
      ],
      "stateMutability": "view",
      "type": "function"
    },
    {
      "inputs": [
        {
          "internalType": "address",
          "name": "sender",
          "type": "address"
        },
        {
          "internalType": "uint256",
          "name": "item",
          "type": "uint256"
        }
      ],
      "name": "getall",
      "outputs": [
        {
          "components": [
            {
              "internalType": "address",
              "name": "seller",
              "type": "address"
            },
            {
              "internalType": "uint256",
              "name": "token",
              "type": "uint256"
            },
            {
              "internalType": "uint256",
              "name": "price",
              "type": "uint256"
            }
          ],
          "internalType": "struct BingNFT.Sellstake",
          "name": "",
          "type": "tuple"
        }
      ],
      "stateMutability": "view",
      "type": "function"
    },
    {
      "inputs": [
        {
          "internalType": "address",
          "name": "account",
          "type": "address"
        },
        {
          "internalType": "address",
          "name": "operator",
          "type": "address"
        }
      ],
      "name": "isApprovedForAll",
      "outputs": [
        {
          "internalType": "bool",
          "name": "",
          "type": "bool"
        }
      ],
      "stateMutability": "view",
      "type": "function"
    },
    {
      "inputs": [
        {
          "internalType": "address",
          "name": "",
          "type": "address"
        },
        {
          "internalType": "uint256",
          "name": "",
          "type": "uint256"
        }
      ],
      "name": "items",
      "outputs": [
        {
          "internalType": "address",
          "name": "seller",
          "type": "address"
        },
        {
          "internalType": "uint256",
          "name": "token",
          "type": "uint256"
        },
        {
          "internalType": "uint256",
          "name": "price",
          "type": "uint256"
        }
      ],
      "stateMutability": "view",
      "type": "function"
    },
    {
      "inputs": [
        {
          "internalType": "address",
          "name": "operator",
          "type": "address"
        },
        {
          "internalType": "address",
          "name": "from",
          "type": "address"
        },
        {
          "internalType": "uint256[]",
          "name": "ids",
          "type": "uint256[]"
        },
        {
          "internalType": "uint256[]",
          "name": "values",
          "type": "uint256[]"
        },
        {
          "internalType": "bytes",
          "name": "data",
          "type": "bytes"
        }
      ],
      "name": "onERC1155BatchReceived",
      "outputs": [
        {
          "internalType": "bytes4",
          "name": "",
          "type": "bytes4"
        }
      ],
      "stateMutability": "nonpayable",
      "type": "function"
    },
    {
      "inputs": [
        {
          "internalType": "address",
          "name": "operator",
          "type": "address"
        },
        {
          "internalType": "address",
          "name": "from",
          "type": "address"
        },
        {
          "internalType": "uint256",
          "name": "id",
          "type": "uint256"
        },
        {
          "internalType": "uint256",
          "name": "value",
          "type": "uint256"
        },
        {
          "internalType": "bytes",
          "name": "data",
          "type": "bytes"
        }
      ],
      "name": "onERC1155Received",
      "outputs": [
        {
          "internalType": "bytes4",
          "name": "",
          "type": "bytes4"
        }
      ],
      "stateMutability": "nonpayable",
      "type": "function"
    },
    {
      "inputs": [
        {
          "internalType": "address",
          "name": "from",
          "type": "address"
        },
        {
          "internalType": "address",
          "name": "to",
          "type": "address"
        },
        {
          "internalType": "uint256[]",
          "name": "ids",
          "type": "uint256[]"
        },
        {
          "internalType": "uint256[]",
          "name": "values",
          "type": "uint256[]"
        },
        {
          "internalType": "bytes",
          "name": "data",
          "type": "bytes"
        }
      ],
      "name": "safeBatchTransferFrom",
      "outputs": [],
      "stateMutability": "nonpayable",
      "type": "function"
    },
    {
      "inputs": [
        {
          "internalType": "address",
          "name": "from",
          "type": "address"
        },
        {
          "internalType": "address",
          "name": "to",
          "type": "address"
        },
        {
          "internalType": "uint256",
          "name": "id",
          "type": "uint256"
        },
        {
          "internalType": "uint256",
          "name": "value",
          "type": "uint256"
        },
        {
          "internalType": "bytes",
          "name": "data",
          "type": "bytes"
        }
      ],
      "name": "safeTransferFrom",
      "outputs": [],
      "stateMutability": "nonpayable",
      "type": "function"
    },
    {
      "inputs": [
        {
          "internalType": "address",
          "name": "operator",
          "type": "address"
        },
        {
          "internalType": "bool",
          "name": "approved",
          "type": "bool"
        }
      ],
      "name": "setApprovalForAll",
      "outputs": [],
      "stateMutability": "nonpayable",
      "type": "function"
    },
    {
      "inputs": [
        {
          "internalType": "string",
          "name": "newuri",
          "type": "string"
        },
        {
          "internalType": "address",
          "name": "sender",
          "type": "address"
        }
      ],
      "name": "settokenURI",
      "outputs": [],
      "stateMutability": "nonpayable",
      "type": "function"
    },
    {
      "inputs": [
        {
          "internalType": "bytes4",
          "name": "interfaceId",
          "type": "bytes4"
        }
      ],
      "name": "supportsInterface",
      "outputs": [
        {
          "internalType": "bool",
          "name": "",
          "type": "bool"
        }
      ],
      "stateMutability": "view",
      "type": "function"
    },
    {
      "inputs": [
        {
          "internalType": "uint256",
          "name": "tokenid",
          "type": "uint256"
        }
      ],
      "name": "uri",
      "outputs": [
        {
          "internalType": "string",
          "name": "",
          "type": "string"
        }
      ],
      "stateMutability": "view",
      "type": "function"
    },
    {
      "inputs": [
        {
          "internalType": "address",
          "name": "user",
          "type": "address"
        }
      ],
      "name": "userTokens",
      "outputs": [
        {
          "internalType": "uint256[]",
          "name": "",
          "type": "uint256[]"
        }
      ],
      "stateMutability": "view",
      "type": "function"
    }
  ],
  "bytecode": "0x6080604052604051806060016040528060288152602001614ed5602891396009908161002b919061033c565b5034801561003857600080fd5b506009805461004690610155565b80601f016020809104026020016040519081016040528092919081815260200182805461007290610155565b80156100bf5780601f10610094576101008083540402835291602001916100bf565b820191906000526020600020905b8154815290600101906020018083116100a257829003601f168201915b50505050506100d3816100d960201b60201c565b5061040e565b80600290816100e8919061033c565b5050565b600081519050919050565b7f4e487b7100000000000000000000000000000000000000000000000000000000600052604160045260246000fd5b7f4e487b7100000000000000000000000000000000000000000000000000000000600052602260045260246000fd5b6000600282049050600182168061016d57607f821691505b6020821081036101805761017f610126565b5b50919050565b60008190508160005260206000209050919050565b60006020601f8301049050919050565b600082821b905092915050565b6000600883026101e87fffffffffffffffffffffffffffffffffffffffffffffffffffffffffffffffff826101ab565b6101f286836101ab565b95508019841693508086168417925050509392505050565b6000819050919050565b6000819050919050565b600061023961023461022f8461020a565b610214565b61020a565b9050919050565b6000819050919050565b6102538361021e565b61026761025f82610240565b8484546101b8565b825550505050565b600090565b61027c61026f565b61028781848461024a565b505050565b5b818110156102ab576102a0600082610274565b60018101905061028d565b5050565b601f8211156102f0576102c181610186565b6102ca8461019b565b810160208510156102d9578190505b6102ed6102e58561019b565b83018261028c565b50505b505050565b600082821c905092915050565b6000610313600019846008026102f5565b1980831691505092915050565b600061032c8383610302565b9150826002028217905092915050565b610345826100ec565b67ffffffffffffffff81111561035e5761035d6100f7565b5b6103688254610155565b6103738282856102af565b600060209050601f8311600181146103a65760008415610394578287015190505b61039e8582610320565b865550610406565b601f1984166103b486610186565b60005b828110156103dc578489015182556001820191506020850194506020810190506103b7565b868310156103f957848901516103f5601f891682610302565b8355505b6001600288020188555050505b505050505050565b614ab88061041d6000396000f3fe608060405234801561001057600080fd5b50600436106101715760003560e01c8063813d2ad8116100de578063d50bcc7111610097578063e985e9c511610071578063e985e9c5146104e2578063ed498fa814610512578063f23a6e6114610542578063f242432a1461057257610171565b8063d50bcc711461047a578063d80a08da146104aa578063e3567774146104c657610171565b8063813d2ad8146103a75780639145d133146103c3578063a22cb465146103f4578063b901fed514610410578063bc197c811461042e578063cc0a48d41461045e57610171565b8063434a49a111610130578063434a49a1146102835780634e1273f4146102b45780635491a99f146102e45780635c80a43514610314578063681bec6c1461034657806375388a0f1461037757610171565b80628b96a114610176578062fdd58e146101a757806301ffc9a7146101d75780630e89341c146102075780632b04e840146102375780632eb2c2d614610267575b600080fd5b610190600480360381019061018b9190612fcc565b61058e565b60405161019e929190613049565b60405180910390f35b6101c160048036038101906101bc919061309e565b6105e2565b6040516101ce91906130de565b60405180910390f35b6101f160048036038101906101ec9190613151565b61063c565b6040516101fe9190613199565b60405180910390f35b610221600480360381019061021c9190612fcc565b6106b6565b60405161022e9190613244565b60405180910390f35b610251600480360381019061024c919061309e565b6107a2565b60405161025e91906130de565b60405180910390f35b610281600480360381019061027c9190613463565b6107b6565b005b61029d60048036038101906102989190613532565b61085e565b6040516102ab92919061361d565b60405180910390f35b6102ce60048036038101906102c99190613717565b610a6f565b6040516102db919061378f565b60405180910390f35b6102fe60048036038101906102f9919061309e565b610b78565b60405161030b9190613802565b60405180910390f35b61032e6004803603810190610329919061309e565b610c4d565b60405161033d9392919061381d565b60405180910390f35b610360600480360381019061035b9190613532565b610ca4565b60405161036e92919061361d565b60405180910390f35b610391600480360381019061038c919061309e565b610eb5565b60405161039e91906130de565b60405180910390f35b6103c160048036038101906103bc9190613854565b610f10565b005b6103dd60048036038101906103d8919061309e565b6111e2565b6040516103eb929190613894565b60405180910390f35b61040e600480360381019061040991906138e9565b611321565b005b610418611337565b6040516104259190613a07565b60405180910390f35b61044860048036038101906104439190613ada565b6113f6565b6040516104559190613bc5565b60405180910390f35b61047860048036038101906104739190613c81565b61140e565b005b610494600480360381019061048f9190613532565b611515565b6040516104a191906130de565b60405180910390f35b6104c460048036038101906104bf9190613cdd565b611561565b005b6104e060048036038101906104db9190613d44565b6119f4565b005b6104fc60048036038101906104f79190613dab565b611d0e565b6040516105099190613199565b60405180910390f35b61052c60048036038101906105279190613532565b611da2565b604051610539919061378f565b60405180910390f35b61055c60048036038101906105579190613deb565b611e39565b6040516105699190613bc5565b60405180910390f35b61058c60048036038101906105879190613e85565b611e4f565b005b6007818154811061059e57600080fd5b90600052602060002090600202016000915090508060000160009054906101000a900473ffffffffffffffffffffffffffffffffffffffff16908060010154905082565b600080600083815260200190815260200160002060008473ffffffffffffffffffffffffffffffffffffffff1673ffffffffffffffffffffffffffffffffffffffff16815260200190815260200160002054905092915050565b60007f4e2312e0000000000000000000000000000000000000000000000000000000007bffffffffffffffffffffffffffffffffffffffffffffffffffffffff1916827bffffffffffffffffffffffffffffffffffffffffffffffffffffffff191614806106af57506106ae82611ef7565b5b9050919050565b606060006006600084815260200190815260200160002080546106d890613f4b565b80601f016020809104026020016040519081016040528092919081815260200182805461070490613f4b565b80156107515780601f1061072657610100808354040283529160200191610751565b820191906000526020600020905b81548152906001019060200180831161073457829003601f168201915b5050505050905060008151111561076b578091505061079d565b600061077684611fd9565b9050806040516020016107899190614050565b604051602081830303815290604052925050505b919050565b60006107ae83836105e2565b905092915050565b60006107c06120a7565b90508073ffffffffffffffffffffffffffffffffffffffff168673ffffffffffffffffffffffffffffffffffffffff161415801561080557506108038682611d0e565b155b156108495780866040517fe237d92200000000000000000000000000000000000000000000000000000000815260040161084092919061407d565b60405180910390fd5b61085686868686866120af565b505050505050565b6060806000600560008573ffffffffffffffffffffffffffffffffffffffff1673ffffffffffffffffffffffffffffffffffffffff1681526020019081526020016000208054806020026020016040519081016040528092919081815260200182805480156108ec57602002820191906000526020600020905b8154815260200190600101908083116108d8575b50505050509050805167ffffffffffffffff81111561090e5761090d61326b565b5b60405190808252806020026020018201604052801561093c5781602001602082028036833780820191505090505b509250805167ffffffffffffffff81111561095a5761095961326b565b5b6040519080825280602002602001820160405280156109885781602001602082028036833780820191505090505b50915060005b8151811015610a68578181815181106109aa576109a96140a6565b5b60200260200101518482815181106109c5576109c46140a6565b5b602002602001018181525050600460008673ffffffffffffffffffffffffffffffffffffffff1673ffffffffffffffffffffffffffffffffffffffff1681526020019081526020016000206000838381518110610a2557610a246140a6565b5b6020026020010151815260200190815260200160002054838281518110610a4f57610a4e6140a6565b5b602002602001018181525050808060010191505061098e565b5050915091565b60608151835114610abb57815183516040517f5b059991000000000000000000000000000000000000000000000000000000008152600401610ab2929190613894565b60405180910390fd5b6000835167ffffffffffffffff811115610ad857610ad761326b565b5b604051908082528060200260200182016040528015610b065781602001602082028036833780820191505090505b50905060005b8451811015610b6d57610b43610b2b82876121a790919063ffffffff16565b610b3e83876121bb90919063ffffffff16565b6105e2565b828281518110610b5657610b556140a6565b5b602002602001018181525050806001019050610b0c565b508091505092915050565b610b80612f4b565b600360008473ffffffffffffffffffffffffffffffffffffffff1673ffffffffffffffffffffffffffffffffffffffff16815260200190815260200160002060008381526020019081526020016000206040518060600160405290816000820160009054906101000a900473ffffffffffffffffffffffffffffffffffffffff1673ffffffffffffffffffffffffffffffffffffffff1673ffffffffffffffffffffffffffffffffffffffff16815260200160018201548152602001600282015481525050905092915050565b6003602052816000526040600020602052806000526040600020600091509150508060000160009054906101000a900473ffffffffffffffffffffffffffffffffffffffff16908060010154908060020154905083565b6060806000600560008573ffffffffffffffffffffffffffffffffffffffff1673ffffffffffffffffffffffffffffffffffffffff168152602001908152602001600020805480602002602001604051908101604052809291908181526020018280548015610d3257602002820191906000526020600020905b815481526020019060010190808311610d1e575b50505050509050805167ffffffffffffffff811115610d5457610d5361326b565b5b604051908082528060200260200182016040528015610d825781602001602082028036833780820191505090505b509250805167ffffffffffffffff811115610da057610d9f61326b565b5b604051908082528060200260200182016040528015610dce5781602001602082028036833780820191505090505b50915060005b8151811015610eae57818181518110610df057610def6140a6565b5b6020026020010151848281518110610e0b57610e0a6140a6565b5b602002602001018181525050600460008673ffffffffffffffffffffffffffffffffffffffff1673ffffffffffffffffffffffffffffffffffffffff1681526020019081526020016000206000838381518110610e6b57610e6a6140a6565b5b6020026020010151815260200190815260200160002054838281518110610e9557610e946140a6565b5b6020026020010181815250508080600101915050610dd4565b5050915091565b6000600460008473ffffffffffffffffffffffffffffffffffffffff1673ffffffffffffffffffffffffffffffffffffffff168152602001908152602001600020600083815260200190815260200160002054905092915050565b6000600360008373ffffffffffffffffffffffffffffffffffffffff1673ffffffffffffffffffffffffffffffffffffffff16815260200190815260200160002060008481526020019081526020016000206040518060600160405290816000820160009054906101000a900473ffffffffffffffffffffffffffffffffffffffff1673ffffffffffffffffffffffffffffffffffffffff1673ffffffffffffffffffffffffffffffffffffffff1681526020016001820154815260200160028201548152505090508173ffffffffffffffffffffffffffffffffffffffff16816000015173ffffffffffffffffffffffffffffffffffffffff161461104b576040517f08c379a000000000000000000000000000000000000000000000000000000000815260040161104290614121565b60405180910390fd5b600073ffffffffffffffffffffffffffffffffffffffff16816000015173ffffffffffffffffffffffffffffffffffffffff16036110be576040517f08c379a00000000000000000000000000000000000000000000000000000000081526004016110b59061418d565b60405180910390fd5b6110de3083858460200151604051806020016040528060008152506121cf565b8060200151600460008473ffffffffffffffffffffffffffffffffffffffff1673ffffffffffffffffffffffffffffffffffffffff1681526020019081526020016000206000858152602001908152602001600020600082825461114291906141dc565b9250508190555061115382846122da565b600360008373ffffffffffffffffffffffffffffffffffffffff1673ffffffffffffffffffffffffffffffffffffffff1681526020019081526020016000206000848152602001908152602001600020600080820160006101000a81549073ffffffffffffffffffffffffffffffffffffffff0219169055600182016000905560028201600090555050505050565b600080600560008573ffffffffffffffffffffffffffffffffffffffff1673ffffffffffffffffffffffffffffffffffffffff168152602001908152602001600020805490508310611269576040517f08c379a00000000000000000000000000000000000000000000000000000000081526004016112609061425c565b60405180910390fd5b600560008573ffffffffffffffffffffffffffffffffffffffff1673ffffffffffffffffffffffffffffffffffffffff16815260200190815260200160002083815481106112ba576112b96140a6565b5b90600052602060002001549150600460008573ffffffffffffffffffffffffffffffffffffffff1673ffffffffffffffffffffffffffffffffffffffff16815260200190815260200160002060008381526020019081526020016000205490509250929050565b61133361132c6120a7565b8383612393565b5050565b60606007805480602002602001604051908101604052809291908181526020016000905b828210156113ed57838290600052602060002090600202016040518060400160405290816000820160009054906101000a900473ffffffffffffffffffffffffffffffffffffffff1673ffffffffffffffffffffffffffffffffffffffff1673ffffffffffffffffffffffffffffffffffffffff1681526020016001820154815250508152602001906001019061135b565b50505050905090565b600063bc197c8160e01b905098975050505050505050565b600060085490506114318282606460405180602001604052806000815250612503565b826006600083815260200190815260200160002090816114519190614428565b506064600460008473ffffffffffffffffffffffffffffffffffffffff1673ffffffffffffffffffffffffffffffffffffffff168152602001908152602001600020600083815260200190815260200160002081905550600860008154809291906114bb906144fa565b91905055508173ffffffffffffffffffffffffffffffffffffffff167f4ed70bf1f442f068544f1bf2d60cef2006b67f7ac341da37f38f38fa9af7999a8285604051611508929190614542565b60405180910390a2505050565b6000600560008373ffffffffffffffffffffffffffffffffffffffff1673ffffffffffffffffffffffffffffffffffffffff168152602001908152602001600020805490509050919050565b8161156c85856105e2565b10156115ad576040517f08c379a00000000000000000000000000000000000000000000000000000000081526004016115a4906145be565b60405180910390fd5b600081116115f0576040517f08c379a00000000000000000000000000000000000000000000000000000000081526004016115e79061462a565b60405180910390fd5b600073ffffffffffffffffffffffffffffffffffffffff16600360008673ffffffffffffffffffffffffffffffffffffffff1673ffffffffffffffffffffffffffffffffffffffff168152602001908152602001600020600085815260200190815260200160002060000160009054906101000a900473ffffffffffffffffffffffffffffffffffffffff1673ffffffffffffffffffffffffffffffffffffffff16146116d2576040517f08c379a00000000000000000000000000000000000000000000000000000000081526004016116c990614696565b60405180910390fd5b60008211611715576040517f08c379a000000000000000000000000000000000000000000000000000000000815260040161170c90614702565b60405180910390fd5b81600460008673ffffffffffffffffffffffffffffffffffffffff1673ffffffffffffffffffffffffffffffffffffffff16815260200190815260200160002060008581526020019081526020016000205410156117a8576040517f08c379a000000000000000000000000000000000000000000000000000000000815260040161179f9061476e565b60405180910390fd5b6117c484308585604051806020016040528060008152506121cf565b81600460008673ffffffffffffffffffffffffffffffffffffffff1673ffffffffffffffffffffffffffffffffffffffff16815260200190815260200160002060008581526020019081526020016000206000828254611824919061478e565b9250508190555060405180606001604052808573ffffffffffffffffffffffffffffffffffffffff16815260200183815260200182815250600360008673ffffffffffffffffffffffffffffffffffffffff1673ffffffffffffffffffffffffffffffffffffffff168152602001908152602001600020600085815260200190815260200160002060008201518160000160006101000a81548173ffffffffffffffffffffffffffffffffffffffff021916908373ffffffffffffffffffffffffffffffffffffffff1602179055506020820151816001015560408201518160020155905050600760405180604001604052808673ffffffffffffffffffffffffffffffffffffffff16815260200185815250908060018154018082558091505060019003906000526020600020906002020160009091909190915060008201518160000160006101000a81548173ffffffffffffffffffffffffffffffffffffffff021916908373ffffffffffffffffffffffffffffffffffffffff1602179055506020820151816001015550507feba8cee8f0a2ab7b4cc8e75d10eae88eb6b625a15419821b6676d03a57ad77628483836040516119e69392919061381d565b60405180910390a150505050565b6000600360008673ffffffffffffffffffffffffffffffffffffffff1673ffffffffffffffffffffffffffffffffffffffff16815260200190815260200160002060008481526020019081526020016000206040518060600160405290816000820160009054906101000a900473ffffffffffffffffffffffffffffffffffffffff1673ffffffffffffffffffffffffffffffffffffffff1673ffffffffffffffffffffffffffffffffffffffff16815260200160018201548152602001600282015481525050905081816040015114611b03576040517f08c379a0000000000000000000000000000000000000000000000000000000008152600401611afa9061480e565b60405180910390fd5b806000015173ffffffffffffffffffffffffffffffffffffffff168473ffffffffffffffffffffffffffffffffffffffff1603611b75576040517f08c379a0000000000000000000000000000000000000000000000000000000008152600401611b6c9061487a565b60405180910390fd5b600073ffffffffffffffffffffffffffffffffffffffff16816000015173ffffffffffffffffffffffffffffffffffffffff1603611be8576040517f08c379a0000000000000000000000000000000000000000000000000000000008152600401611bdf9061418d565b60405180910390fd5b611c083085858460200151604051806020016040528060008152506121cf565b8060200151600460008673ffffffffffffffffffffffffffffffffffffffff1673ffffffffffffffffffffffffffffffffffffffff16815260200190815260200160002060008581526020019081526020016000206000828254611c6c91906141dc565b92505081905550611c7d84846122da565b600360008673ffffffffffffffffffffffffffffffffffffffff1673ffffffffffffffffffffffffffffffffffffffff1681526020019081526020016000206000848152602001908152602001600020600080820160006101000a81549073ffffffffffffffffffffffffffffffffffffffff02191690556001820160009055600282016000905550505050505050565b6000600160008473ffffffffffffffffffffffffffffffffffffffff1673ffffffffffffffffffffffffffffffffffffffff16815260200190815260200160002060008373ffffffffffffffffffffffffffffffffffffffff1673ffffffffffffffffffffffffffffffffffffffff16815260200190815260200160002060009054906101000a900460ff16905092915050565b6060600560008373ffffffffffffffffffffffffffffffffffffffff1673ffffffffffffffffffffffffffffffffffffffff168152602001908152602001600020805480602002602001604051908101604052809291908181526020018280548015611e2d57602002820191906000526020600020905b815481526020019060010190808311611e19575b50505050509050919050565b600063f23a6e6160e01b90509695505050505050565b6000611e596120a7565b90508073ffffffffffffffffffffffffffffffffffffffff168673ffffffffffffffffffffffffffffffffffffffff1614158015611e9e5750611e9c8682611d0e565b155b15611ee25780866040517fe237d922000000000000000000000000000000000000000000000000000000008152600401611ed992919061407d565b60405180910390fd5b611eef86868686866121cf565b505050505050565b60007fd9b67a26000000000000000000000000000000000000000000000000000000007bffffffffffffffffffffffffffffffffffffffffffffffffffffffff1916827bffffffffffffffffffffffffffffffffffffffffffffffffffffffff19161480611fc257507f0e89341c000000000000000000000000000000000000000000000000000000007bffffffffffffffffffffffffffffffffffffffffffffffffffffffff1916827bffffffffffffffffffffffffffffffffffffffffffffffffffffffff1916145b80611fd25750611fd18261259c565b5b9050919050565b606060006001611fe884612606565b01905060008167ffffffffffffffff8111156120075761200661326b565b5b6040519080825280601f01601f1916602001820160405280156120395781602001600182028036833780820191505090505b509050600082602001820190505b60011561209c578080600190039150507f3031323334353637383961626364656600000000000000000000000000000000600a86061a8153600a85816120905761208f61489a565b5b04945060008503612047575b819350505050919050565b600033905090565b600073ffffffffffffffffffffffffffffffffffffffff168473ffffffffffffffffffffffffffffffffffffffff16036121215760006040517f57f447ce00000000000000000000000000000000000000000000000000000000815260040161211891906148c9565b60405180910390fd5b600073ffffffffffffffffffffffffffffffffffffffff168573ffffffffffffffffffffffffffffffffffffffff16036121935760006040517f01a8351400000000000000000000000000000000000000000000000000000000815260040161218a91906148c9565b60405180910390fd5b6121a08585858585612759565b5050505050565b600060208202602084010151905092915050565b600060208202602084010151905092915050565b600073ffffffffffffffffffffffffffffffffffffffff168473ffffffffffffffffffffffffffffffffffffffff16036122415760006040517f57f447ce00000000000000000000000000000000000000000000000000000000815260040161223891906148c9565b60405180910390fd5b600073ffffffffffffffffffffffffffffffffffffffff168573ffffffffffffffffffffffffffffffffffffffff16036122b35760006040517f01a835140000000000000000000000000000000000000000000000000000000081526004016122aa91906148c9565b60405180910390fd5b6000806122c0858561280b565b915091506122d18787848487612759565b50505050505050565b6000600560008473ffffffffffffffffffffffffffffffffffffffff1673ffffffffffffffffffffffffffffffffffffffff168152602001908152602001600020905060005b818054905081101561236457828282815481106123405761233f6140a6565b5b90600052602060002001540361235757505061238f565b8080600101915050612320565b5080829080600181540180825580915050600190039060005260206000200160009091909190915055505b5050565b600073ffffffffffffffffffffffffffffffffffffffff168273ffffffffffffffffffffffffffffffffffffffff16036124055760006040517fced3e1000000000000000000000000000000000000000000000000000000000081526004016123fc91906148c9565b60405180910390fd5b80600160008573ffffffffffffffffffffffffffffffffffffffff1673ffffffffffffffffffffffffffffffffffffffff16815260200190815260200160002060008473ffffffffffffffffffffffffffffffffffffffff1673ffffffffffffffffffffffffffffffffffffffff16815260200190815260200160002060006101000a81548160ff0219169083151502179055508173ffffffffffffffffffffffffffffffffffffffff168373ffffffffffffffffffffffffffffffffffffffff167f17307eab39ab6107e8899845ad3d59bd9653f200f220920489ca2b5937696c31836040516124f69190613199565b60405180910390a3505050565b600073ffffffffffffffffffffffffffffffffffffffff168473ffffffffffffffffffffffffffffffffffffffff16036125755760006040517f57f447ce00000000000000000000000000000000000000000000000000000000815260040161256c91906148c9565b60405180910390fd5b600080612582858561280b565b91509150612594600087848487612759565b505050505050565b60007f01ffc9a7000000000000000000000000000000000000000000000000000000007bffffffffffffffffffffffffffffffffffffffffffffffffffffffff1916827bffffffffffffffffffffffffffffffffffffffffffffffffffffffff1916149050919050565b600080600090507a184f03e93ff9f4daa797ed6e38ed64bf6a1f0100000000000000008310612664577a184f03e93ff9f4daa797ed6e38ed64bf6a1f010000000000000000838161265a5761265961489a565b5b0492506040810190505b6d04ee2d6d415b85acef810000000083106126a1576d04ee2d6d415b85acef810000000083816126975761269661489a565b5b0492506020810190505b662386f26fc1000083106126d057662386f26fc1000083816126c6576126c561489a565b5b0492506010810190505b6305f5e10083106126f9576305f5e10083816126ef576126ee61489a565b5b0492506008810190505b612710831061271e5761271083816127145761271361489a565b5b0492506004810190505b6064831061274157606483816127375761273661489a565b5b0492506002810190505b600a8310612750576001810190505b80915050919050565b6127658585858561283b565b600073ffffffffffffffffffffffffffffffffffffffff168473ffffffffffffffffffffffffffffffffffffffff16146128045760006127a36120a7565b905060018451036127f35760006127c46000866121bb90919063ffffffff16565b905060006127dc6000866121bb90919063ffffffff16565b90506127ec838989858589612be3565b5050612802565b612801818787878787612d97565b5b505b5050505050565b60608060405191506001825283602083015260408201905060018152826020820152604081016040529250929050565b805182511461288557815181516040517f5b05999100000000000000000000000000000000000000000000000000000000815260040161287c929190613894565b60405180910390fd5b600061288f6120a7565b905060005b8351811015612a9e5760006128b282866121bb90919063ffffffff16565b905060006128c983866121bb90919063ffffffff16565b9050600073ffffffffffffffffffffffffffffffffffffffff168873ffffffffffffffffffffffffffffffffffffffff16146129f657600080600084815260200190815260200160002060008a73ffffffffffffffffffffffffffffffffffffffff1673ffffffffffffffffffffffffffffffffffffffff1681526020019081526020016000205490508181101561299e57888183856040517f03dee4c500000000000000000000000000000000000000000000000000000000815260040161299594939291906148e4565b60405180910390fd5b81810360008085815260200190815260200160002060008b73ffffffffffffffffffffffffffffffffffffffff1673ffffffffffffffffffffffffffffffffffffffff16815260200190815260200160002081905550505b600073ffffffffffffffffffffffffffffffffffffffff168773ffffffffffffffffffffffffffffffffffffffff1614612a91578060008084815260200190815260200160002060008973ffffffffffffffffffffffffffffffffffffffff1673ffffffffffffffffffffffffffffffffffffffff1681526020019081526020016000206000828254612a8991906141dc565b925050819055505b5050806001019050612894565b506001835103612b5d576000612abe6000856121bb90919063ffffffff16565b90506000612ad66000856121bb90919063ffffffff16565b90508573ffffffffffffffffffffffffffffffffffffffff168773ffffffffffffffffffffffffffffffffffffffff168473ffffffffffffffffffffffffffffffffffffffff167fc3d58168c5ae7397731d063d5bbf3d657854427343f4c083240f7aacaa2d0f628585604051612b4e929190613894565b60405180910390a45050612bdc565b8373ffffffffffffffffffffffffffffffffffffffff168573ffffffffffffffffffffffffffffffffffffffff168273ffffffffffffffffffffffffffffffffffffffff167f4a39dc06d4c0dbc64b70af90fd698a233a518aa5d07e595d983b8c0526c8f7fb8686604051612bd392919061361d565b60405180910390a45b5050505050565b60008473ffffffffffffffffffffffffffffffffffffffff163b1115612d8f578373ffffffffffffffffffffffffffffffffffffffff1663f23a6e6187878686866040518663ffffffff1660e01b8152600401612c4495949392919061497e565b6020604051808303816000875af1925050508015612c8057506040513d601f19601f82011682018060405250810190612c7d91906149ed565b60015b612d04573d8060008114612cb0576040519150601f19603f3d011682016040523d82523d6000602084013e612cb5565b606091505b506000815103612cfc57846040517f57f447ce000000000000000000000000000000000000000000000000000000008152600401612cf391906148c9565b60405180910390fd5b805181602001fd5b63f23a6e6160e01b7bffffffffffffffffffffffffffffffffffffffffffffffffffffffff1916817bffffffffffffffffffffffffffffffffffffffffffffffffffffffff191614612d8d57846040517f57f447ce000000000000000000000000000000000000000000000000000000008152600401612d8491906148c9565b60405180910390fd5b505b505050505050565b60008473ffffffffffffffffffffffffffffffffffffffff163b1115612f43578373ffffffffffffffffffffffffffffffffffffffff1663bc197c8187878686866040518663ffffffff1660e01b8152600401612df8959493929190614a1a565b6020604051808303816000875af1925050508015612e3457506040513d601f19601f82011682018060405250810190612e3191906149ed565b60015b612eb8573d8060008114612e64576040519150601f19603f3d011682016040523d82523d6000602084013e612e69565b606091505b506000815103612eb057846040517f57f447ce000000000000000000000000000000000000000000000000000000008152600401612ea791906148c9565b60405180910390fd5b805181602001fd5b63bc197c8160e01b7bffffffffffffffffffffffffffffffffffffffffffffffffffffffff1916817bffffffffffffffffffffffffffffffffffffffffffffffffffffffff191614612f4157846040517f57f447ce000000000000000000000000000000000000000000000000000000008152600401612f3891906148c9565b60405180910390fd5b505b505050505050565b6040518060600160405280600073ffffffffffffffffffffffffffffffffffffffff16815260200160008152602001600081525090565b6000604051905090565b600080fd5b600080fd5b6000819050919050565b612fa981612f96565b8114612fb457600080fd5b50565b600081359050612fc681612fa0565b92915050565b600060208284031215612fe257612fe1612f8c565b5b6000612ff084828501612fb7565b91505092915050565b600073ffffffffffffffffffffffffffffffffffffffff82169050919050565b600061302482612ff9565b9050919050565b61303481613019565b82525050565b61304381612f96565b82525050565b600060408201905061305e600083018561302b565b61306b602083018461303a565b9392505050565b61307b81613019565b811461308657600080fd5b50565b60008135905061309881613072565b92915050565b600080604083850312156130b5576130b4612f8c565b5b60006130c385828601613089565b92505060206130d485828601612fb7565b9150509250929050565b60006020820190506130f3600083018461303a565b92915050565b60007fffffffff0000000000000000000000000000000000000000000000000000000082169050919050565b61312e816130f9565b811461313957600080fd5b50565b60008135905061314b81613125565b92915050565b60006020828403121561316757613166612f8c565b5b60006131758482850161313c565b91505092915050565b60008115159050919050565b6131938161317e565b82525050565b60006020820190506131ae600083018461318a565b92915050565b600081519050919050565b600082825260208201905092915050565b60005b838110156131ee5780820151818401526020810190506131d3565b60008484015250505050565b6000601f19601f8301169050919050565b6000613216826131b4565b61322081856131bf565b93506132308185602086016131d0565b613239816131fa565b840191505092915050565b6000602082019050818103600083015261325e818461320b565b905092915050565b600080fd5b7f4e487b7100000000000000000000000000000000000000000000000000000000600052604160045260246000fd5b6132a3826131fa565b810181811067ffffffffffffffff821117156132c2576132c161326b565b5b80604052505050565b60006132d5612f82565b90506132e1828261329a565b919050565b600067ffffffffffffffff8211156133015761330061326b565b5b602082029050602081019050919050565b600080fd5b600061332a613325846132e6565b6132cb565b9050808382526020820190506020840283018581111561334d5761334c613312565b5b835b8181101561337657806133628882612fb7565b84526020840193505060208101905061334f565b5050509392505050565b600082601f83011261339557613394613266565b5b81356133a5848260208601613317565b91505092915050565b600080fd5b600067ffffffffffffffff8211156133ce576133cd61326b565b5b6133d7826131fa565b9050602081019050919050565b82818337600083830152505050565b6000613406613401846133b3565b6132cb565b905082815260208101848484011115613422576134216133ae565b5b61342d8482856133e4565b509392505050565b600082601f83011261344a57613449613266565b5b813561345a8482602086016133f3565b91505092915050565b600080600080600060a0868803121561347f5761347e612f8c565b5b600061348d88828901613089565b955050602061349e88828901613089565b945050604086013567ffffffffffffffff8111156134bf576134be612f91565b5b6134cb88828901613380565b935050606086013567ffffffffffffffff8111156134ec576134eb612f91565b5b6134f888828901613380565b925050608086013567ffffffffffffffff81111561351957613518612f91565b5b61352588828901613435565b9150509295509295909350565b60006020828403121561354857613547612f8c565b5b600061355684828501613089565b91505092915050565b600081519050919050565b600082825260208201905092915050565b6000819050602082019050919050565b61359481612f96565b82525050565b60006135a6838361358b565b60208301905092915050565b6000602082019050919050565b60006135ca8261355f565b6135d4818561356a565b93506135df8361357b565b8060005b838110156136105781516135f7888261359a565b9750613602836135b2565b9250506001810190506135e3565b5085935050505092915050565b6000604082019050818103600083015261363781856135bf565b9050818103602083015261364b81846135bf565b90509392505050565b600067ffffffffffffffff82111561366f5761366e61326b565b5b602082029050602081019050919050565b600061369361368e84613654565b6132cb565b905080838252602082019050602084028301858111156136b6576136b5613312565b5b835b818110156136df57806136cb8882613089565b8452602084019350506020810190506136b8565b5050509392505050565b600082601f8301126136fe576136fd613266565b5b813561370e848260208601613680565b91505092915050565b6000806040838503121561372e5761372d612f8c565b5b600083013567ffffffffffffffff81111561374c5761374b612f91565b5b613758858286016136e9565b925050602083013567ffffffffffffffff81111561377957613778612f91565b5b61378585828601613380565b9150509250929050565b600060208201905081810360008301526137a981846135bf565b905092915050565b6137ba81613019565b82525050565b6060820160008201516137d660008501826137b1565b5060208201516137e9602085018261358b565b5060408201516137fc604085018261358b565b50505050565b600060608201905061381760008301846137c0565b92915050565b6000606082019050613832600083018661302b565b61383f602083018561303a565b61384c604083018461303a565b949350505050565b6000806040838503121561386b5761386a612f8c565b5b600061387985828601612fb7565b925050602061388a85828601613089565b9150509250929050565b60006040820190506138a9600083018561303a565b6138b6602083018461303a565b9392505050565b6138c68161317e565b81146138d157600080fd5b50565b6000813590506138e3816138bd565b92915050565b60008060408385031215613900576138ff612f8c565b5b600061390e85828601613089565b925050602061391f858286016138d4565b9150509250929050565b600081519050919050565b600082825260208201905092915050565b6000819050602082019050919050565b60408201600082015161396b60008501826137b1565b50602082015161397e602085018261358b565b50505050565b60006139908383613955565b60408301905092915050565b6000602082019050919050565b60006139b482613929565b6139be8185613934565b93506139c983613945565b8060005b838110156139fa5781516139e18882613984565b97506139ec8361399c565b9250506001810190506139cd565b5085935050505092915050565b60006020820190508181036000830152613a2181846139a9565b905092915050565b600080fd5b60008083601f840112613a4457613a43613266565b5b8235905067ffffffffffffffff811115613a6157613a60613a29565b5b602083019150836020820283011115613a7d57613a7c613312565b5b9250929050565b60008083601f840112613a9a57613a99613266565b5b8235905067ffffffffffffffff811115613ab757613ab6613a29565b5b602083019150836001820283011115613ad357613ad2613312565b5b9250929050565b60008060008060008060008060a0898b031215613afa57613af9612f8c565b5b6000613b088b828c01613089565b9850506020613b198b828c01613089565b975050604089013567ffffffffffffffff811115613b3a57613b39612f91565b5b613b468b828c01613a2e565b9650965050606089013567ffffffffffffffff811115613b6957613b68612f91565b5b613b758b828c01613a2e565b9450945050608089013567ffffffffffffffff811115613b9857613b97612f91565b5b613ba48b828c01613a84565b92509250509295985092959890939650565b613bbf816130f9565b82525050565b6000602082019050613bda6000830184613bb6565b92915050565b600067ffffffffffffffff821115613bfb57613bfa61326b565b5b613c04826131fa565b9050602081019050919050565b6000613c24613c1f84613be0565b6132cb565b905082815260208101848484011115613c4057613c3f6133ae565b5b613c4b8482856133e4565b509392505050565b600082601f830112613c6857613c67613266565b5b8135613c78848260208601613c11565b91505092915050565b60008060408385031215613c9857613c97612f8c565b5b600083013567ffffffffffffffff811115613cb657613cb5612f91565b5b613cc285828601613c53565b9250506020613cd385828601613089565b9150509250929050565b60008060008060808587031215613cf757613cf6612f8c565b5b6000613d0587828801613089565b9450506020613d1687828801612fb7565b9350506040613d2787828801612fb7565b9250506060613d3887828801612fb7565b91505092959194509250565b60008060008060808587031215613d5e57613d5d612f8c565b5b6000613d6c87828801613089565b9450506020613d7d87828801613089565b9350506040613d8e87828801612fb7565b9250506060613d9f87828801612fb7565b91505092959194509250565b60008060408385031215613dc257613dc1612f8c565b5b6000613dd085828601613089565b9250506020613de185828601613089565b9150509250929050565b60008060008060008060a08789031215613e0857613e07612f8c565b5b6000613e1689828a01613089565b9650506020613e2789828a01613089565b9550506040613e3889828a01612fb7565b9450506060613e4989828a01612fb7565b935050608087013567ffffffffffffffff811115613e6a57613e69612f91565b5b613e7689828a01613a84565b92509250509295509295509295565b600080600080600060a08688031215613ea157613ea0612f8c565b5b6000613eaf88828901613089565b9550506020613ec088828901613089565b9450506040613ed188828901612fb7565b9350506060613ee288828901612fb7565b925050608086013567ffffffffffffffff811115613f0357613f02612f91565b5b613f0f88828901613435565b9150509295509295909350565b7f4e487b7100000000000000000000000000000000000000000000000000000000600052602260045260246000fd5b60006002820490506001821680613f6357607f821691505b602082108103613f7657613f75613f1c565b5b50919050565b600081905092915050565b7f68747470733a2f2f6d7970726f6a6563742e636f6d2f6d657461646174612f00600082015250565b6000613fbd601f83613f7c565b9150613fc882613f87565b601f82019050919050565b6000613fde826131b4565b613fe88185613f7c565b9350613ff88185602086016131d0565b80840191505092915050565b7f2e6a736f6e000000000000000000000000000000000000000000000000000000600082015250565b600061403a600583613f7c565b915061404582614004565b600582019050919050565b600061405b82613fb0565b91506140678284613fd3565b91506140728261402d565b915081905092915050565b6000604082019050614092600083018561302b565b61409f602083018461302b565b9392505050565b7f4e487b7100000000000000000000000000000000000000000000000000000000600052603260045260246000fd5b7f4f6e6c792073656c6c65722063616e2063616e63656c00000000000000000000600082015250565b600061410b6016836131bf565b9150614116826140d5565b602082019050919050565b6000602082019050818103600083015261413a816140fe565b9050919050565b7f4e4654206e6f7420666f722073616c6500000000000000000000000000000000600082015250565b60006141776010836131bf565b915061418282614141565b602082019050919050565b600060208201905081810360008301526141a68161416a565b9050919050565b7f4e487b7100000000000000000000000000000000000000000000000000000000600052601160045260246000fd5b60006141e782612f96565b91506141f283612f96565b925082820190508082111561420a576142096141ad565b5b92915050565b7f496e646578206f7574206f6620626f756e647300000000000000000000000000600082015250565b60006142466013836131bf565b915061425182614210565b602082019050919050565b6000602082019050818103600083015261427581614239565b9050919050565b60008190508160005260206000209050919050565b60006020601f8301049050919050565b600082821b905092915050565b6000600883026142de7fffffffffffffffffffffffffffffffffffffffffffffffffffffffffffffffff826142a1565b6142e886836142a1565b95508019841693508086168417925050509392505050565b6000819050919050565b600061432561432061431b84612f96565b614300565b612f96565b9050919050565b6000819050919050565b61433f8361430a565b61435361434b8261432c565b8484546142ae565b825550505050565b600090565b61436861435b565b614373818484614336565b505050565b5b818110156143975761438c600082614360565b600181019050614379565b5050565b601f8211156143dc576143ad8161427c565b6143b684614291565b810160208510156143c5578190505b6143d96143d185614291565b830182614378565b50505b505050565b600082821c905092915050565b60006143ff600019846008026143e1565b1980831691505092915050565b600061441883836143ee565b9150826002028217905092915050565b614431826131b4565b67ffffffffffffffff81111561444a5761444961326b565b5b6144548254613f4b565b61445f82828561439b565b600060209050601f8311600181146144925760008415614480578287015190505b61448a858261440c565b8655506144f2565b601f1984166144a08661427c565b60005b828110156144c8578489015182556001820191506020850194506020810190506144a3565b868310156144e557848901516144e1601f8916826143ee565b8355505b6001600288020188555050505b505050505050565b600061450582612f96565b91507fffffffffffffffffffffffffffffffffffffffffffffffffffffffffffffffff8203614537576145366141ad565b5b600182019050919050565b6000604082019050614557600083018561303a565b8181036020830152614569818461320b565b90509392505050565b7f496e73756666696369656e7420746f6b656e7300000000000000000000000000600082015250565b60006145a86013836131bf565b91506145b382614572565b602082019050919050565b600060208201905081810360008301526145d78161459b565b9050919050565b7f5072696365206d7573742062652067726561746572207468616e203000000000600082015250565b6000614614601c836131bf565b915061461f826145de565b602082019050919050565b6000602082019050818103600083015261464381614607565b9050919050565b7f4e465420616c726561647920666f722073616c65000000000000000000000000600082015250565b60006146806014836131bf565b915061468b8261464a565b602082019050919050565b600060208201905081810360008301526146af81614673565b9050919050565b7f4d7573742073656c6c206174206c65617374203120746f6b656e000000000000600082015250565b60006146ec601a836131bf565b91506146f7826146b6565b602082019050919050565b6000602082019050818103600083015261471b816146df565b9050919050565b7f4e6f7420656e6f75676820746f6b656e73000000000000000000000000000000600082015250565b60006147586011836131bf565b915061476382614722565b602082019050919050565b600060208201905081810360008301526147878161474b565b9050919050565b600061479982612f96565b91506147a483612f96565b92508282039050818111156147bc576147bb6141ad565b5b92915050565b7f496e636f72726563742070726963650000000000000000000000000000000000600082015250565b60006147f8600f836131bf565b9150614803826147c2565b602082019050919050565b60006020820190508181036000830152614827816147eb565b9050919050565b7f43616e6e6f742062757920796f7572206f776e204e4654000000000000000000600082015250565b60006148646017836131bf565b915061486f8261482e565b602082019050919050565b6000602082019050818103600083015261489381614857565b9050919050565b7f4e487b7100000000000000000000000000000000000000000000000000000000600052601260045260246000fd5b60006020820190506148de600083018461302b565b92915050565b60006080820190506148f9600083018761302b565b614906602083018661303a565b614913604083018561303a565b614920606083018461303a565b95945050505050565b600081519050919050565b600082825260208201905092915050565b600061495082614929565b61495a8185614934565b935061496a8185602086016131d0565b614973816131fa565b840191505092915050565b600060a082019050614993600083018861302b565b6149a0602083018761302b565b6149ad604083018661303a565b6149ba606083018561303a565b81810360808301526149cc8184614945565b90509695505050505050565b6000815190506149e781613125565b92915050565b600060208284031215614a0357614a02612f8c565b5b6000614a11848285016149d8565b91505092915050565b600060a082019050614a2f600083018861302b565b614a3c602083018761302b565b8181036040830152614a4e81866135bf565b90508181036060830152614a6281856135bf565b90508181036080830152614a768184614945565b9050969550505050505056fea2646970667358221220405000f4d71533e891cb9bf6e7a4ddc4bbf63de502fe57d131f7c6a9d85cae7c64736f6c634300081e003368747470733a2f2f6d7970726f6a6563742e636f6d2f6d657461646174612f7b69647d2e6a736f6e",
  "linkReferences": {},
  "deployedLinkReferences": {}
}