{
  "_format": "hh-sol-artifact-1",
  "contractName": "BingNFT",
  "sourceName": "contracts/BingNFt.sol",
  "abi": [
    {
      "inputs": [],
      "stateMutability": "nonpayable",
      "type": "constructor"
    },
    {
      "anonymous": false,
      "inputs": [
        {
          "indexed": true,
          "internalType": "address",
          "name": "account",
          "type": "address"
        },
        {
          "indexed": true,
          "internalType": "address",
          "name": "operator",
          "type": "address"
        },
        {
          "indexed": false,
          "internalType": "bool",
          "name": "approved",
          "type": "bool"
        }
      ],
      "name": "ApprovalForAll",
      "type": "event"
    },
    {
      "anonymous": false,
      "inputs": [
        {
          "indexed": false,
          "internalType": "uint256",
          "name": "tokenId",
          "type": "uint256"
        },
        {
          "indexed": true,
          "internalType": "address",
          "name": "sender",
          "type": "address"
        },
        {
          "indexed": false,
          "internalType": "string",
          "name": "uri",
          "type": "string"
        }
      ],
      "name": "TokenURICreated",
      "type": "event"
    },
    {
      "anonymous": false,
      "inputs": [
        {
          "indexed": true,
          "internalType": "address",
          "name": "operator",
          "type": "address"
        },
        {
          "indexed": true,
          "internalType": "address",
          "name": "from",
          "type": "address"
        },
        {
          "indexed": true,
          "internalType": "address",
          "name": "to",
          "type": "address"
        },
        {
          "indexed": false,
          "internalType": "uint256[]",
          "name": "ids",
          "type": "uint256[]"
        },
        {
          "indexed": false,
          "internalType": "uint256[]",
          "name": "values",
          "type": "uint256[]"
        }
      ],
      "name": "TransferBatch",
      "type": "event"
    },
    {
      "anonymous": false,
      "inputs": [
        {
          "indexed": true,
          "internalType": "address",
          "name": "operator",
          "type": "address"
        },
        {
          "indexed": true,
          "internalType": "address",
          "name": "from",
          "type": "address"
        },
        {
          "indexed": true,
          "internalType": "address",
          "name": "to",
          "type": "address"
        },
        {
          "indexed": false,
          "internalType": "uint256",
          "name": "id",
          "type": "uint256"
        },
        {
          "indexed": false,
          "internalType": "uint256",
          "name": "value",
          "type": "uint256"
        }
      ],
      "name": "TransferSingle",
      "type": "event"
    },
    {
      "anonymous": false,
      "inputs": [
        {
          "indexed": false,
          "internalType": "string",
          "name": "value",
          "type": "string"
        },
        {
          "indexed": true,
          "internalType": "uint256",
          "name": "id",
          "type": "uint256"
        }
      ],
      "name": "URI",
      "type": "event"
    },
    {
      "anonymous": false,
      "inputs": [
        {
          "indexed": false,
          "internalType": "address",
          "name": "seller",
          "type": "address"
        },
        {
          "indexed": false,
          "internalType": "uint256",
          "name": "token",
          "type": "uint256"
        },
        {
          "indexed": false,
          "internalType": "uint256",
          "name": "price",
          "type": "uint256"
        }
      ],
      "name": "buyItemLists",
      "type": "event"
    },
    {
      "anonymous": false,
      "inputs": [
        {
          "indexed": false,
          "internalType": "address",
          "name": "seller",
          "type": "address"
        },
        {
          "indexed": false,
          "internalType": "uint256",
          "name": "token",
          "type": "uint256"
        },
        {
          "indexed": false,
          "internalType": "uint256",
          "name": "price",
          "type": "uint256"
        }
      ],
      "name": "createdItemLists",
      "type": "event"
    },
    {
      "anonymous": false,
      "inputs": [
        {
          "indexed": false,
          "internalType": "address",
          "name": "seller",
          "type": "address"
        },
        {
          "indexed": false,
          "internalType": "uint256",
          "name": "token",
          "type": "uint256"
        },
        {
          "indexed": false,
          "internalType": "uint256",
          "name": "price",
          "type": "uint256"
        }
      ],
      "name": "sellItemLists",
      "type": "event"
    },
    {
      "inputs": [
        {
          "internalType": "address",
          "name": "sender",
          "type": "address"
        },
        {
          "internalType": "address",
          "name": "receiver",
          "type": "address"
        },
        {
          "internalType": "uint256",
          "name": "nftid",
          "type": "uint256"
        },
        {
          "internalType": "uint256",
          "name": "price",
          "type": "uint256"
        }
      ],
      "name": "BuyNFT",
      "outputs": [],
      "stateMutability": "nonpayable",
      "type": "function"
    },
    {
      "inputs": [
        {
          "internalType": "address",
          "name": "sender",
          "type": "address"
        },
        {
          "internalType": "uint256",
          "name": "nftid",
          "type": "uint256"
        },
        {
          "internalType": "uint256",
          "name": "token",
          "type": "uint256"
        },
        {
          "internalType": "uint256",
          "name": "price",
          "type": "uint256"
        }
      ],
      "name": "SellNFT",
      "outputs": [],
      "stateMutability": "nonpayable",
      "type": "function"
    },
    {
      "inputs": [
        {
          "internalType": "uint256",
          "name": "",
          "type": "uint256"
        }
      ],
      "name": "SellNftList",
      "outputs": [
        {
          "internalType": "address",
          "name": "owner",
          "type": "address"
        },
        {
          "internalType": "uint256",
          "name": "nftid",
          "type": "uint256"
        }
      ],
      "stateMutability": "view",
      "type": "function"
    },
    {
      "inputs": [
        {
          "internalType": "address",
          "name": "account",
          "type": "address"
        },
        {
          "internalType": "uint256",
          "name": "id",
          "type": "uint256"
        }
      ],
      "name": "balanceOf",
      "outputs": [
        {
          "internalType": "uint256",
          "name": "",
          "type": "uint256"
        }
      ],
      "stateMutability": "view",
      "type": "function"
    },
    {
      "inputs": [
        {
          "internalType": "address[]",
          "name": "accounts",
          "type": "address[]"
        },
        {
          "internalType": "uint256[]",
          "name": "ids",
          "type": "uint256[]"
        }
      ],
      "name": "balanceOfBatch",
      "outputs": [
        {
          "internalType": "uint256[]",
          "name": "",
          "type": "uint256[]"
        }
      ],
      "stateMutability": "view",
      "type": "function"
    },
    {
      "inputs": [
        {
          "internalType": "uint256",
          "name": "nftid",
          "type": "uint256"
        },
        {
          "internalType": "address",
          "name": "sender",
          "type": "address"
        }
      ],
      "name": "cancelSale",
      "outputs": [],
      "stateMutability": "nonpayable",
      "type": "function"
    },
    {
      "inputs": [],
      "name": "getAllListedNFTIds",
      "outputs": [
        {
          "components": [
            {
              "internalType": "address",
              "name": "owner",
              "type": "address"
            },
            {
              "internalType": "uint256",
              "name": "nftid",
              "type": "uint256"
            }
          ],
          "internalType": "struct BingNFT.SellList[]",
          "name": "",
          "type": "tuple[]"
        }
      ],
      "stateMutability": "view",
      "type": "function"
    },
    {
      "inputs": [
        {
          "internalType": "address",
          "name": "user",
          "type": "address"
        }
      ],
      "name": "getMintedTokens",
      "outputs": [
        {
          "internalType": "uint256[]",
          "name": "tokenIds",
          "type": "uint256[]"
        },
        {
          "internalType": "uint256[]",
          "name": "amounts",
          "type": "uint256[]"
        }
      ],
      "stateMutability": "view",
      "type": "function"
    },
    {
      "inputs": [
        {
          "internalType": "address",
          "name": "account",
          "type": "address"
        },
        {
          "internalType": "address",
          "name": "operator",
          "type": "address"
        }
      ],
      "name": "isApprovedForAll",
      "outputs": [
        {
          "internalType": "bool",
          "name": "",
          "type": "bool"
        }
      ],
      "stateMutability": "view",
      "type": "function"
    },
    {
      "inputs": [
        {
          "internalType": "address",
          "name": "",
          "type": "address"
        },
        {
          "internalType": "uint256",
          "name": "",
          "type": "uint256"
        }
      ],
      "name": "items",
      "outputs": [
        {
          "internalType": "address",
          "name": "seller",
          "type": "address"
        },
        {
          "internalType": "uint256",
          "name": "token",
          "type": "uint256"
        },
        {
          "internalType": "uint256",
          "name": "price",
          "type": "uint256"
        }
      ],
      "stateMutability": "view",
      "type": "function"
    },
    {
      "inputs": [
        {
          "internalType": "address",
          "name": "operator",
          "type": "address"
        },
        {
          "internalType": "address",
          "name": "from",
          "type": "address"
        },
        {
          "internalType": "uint256[]",
          "name": "ids",
          "type": "uint256[]"
        },
        {
          "internalType": "uint256[]",
          "name": "values",
          "type": "uint256[]"
        },
        {
          "internalType": "bytes",
          "name": "data",
          "type": "bytes"
        }
      ],
      "name": "onERC1155BatchReceived",
      "outputs": [
        {
          "internalType": "bytes4",
          "name": "",
          "type": "bytes4"
        }
      ],
      "stateMutability": "nonpayable",
      "type": "function"
    },
    {
      "inputs": [
        {
          "internalType": "address",
          "name": "operator",
          "type": "address"
        },
        {
          "internalType": "address",
          "name": "from",
          "type": "address"
        },
        {
          "internalType": "uint256",
          "name": "id",
          "type": "uint256"
        },
        {
          "internalType": "uint256",
          "name": "value",
          "type": "uint256"
        },
        {
          "internalType": "bytes",
          "name": "data",
          "type": "bytes"
        }
      ],
      "name": "onERC1155Received",
      "outputs": [
        {
          "internalType": "bytes4",
          "name": "",
          "type": "bytes4"
        }
      ],
      "stateMutability": "nonpayable",
      "type": "function"
    },
    {
      "inputs": [
        {
          "internalType": "address",
          "name": "from",
          "type": "address"
        },
        {
          "internalType": "address",
          "name": "to",
          "type": "address"
        },
        {
          "internalType": "uint256[]",
          "name": "ids",
          "type": "uint256[]"
        },
        {
          "internalType": "uint256[]",
          "name": "amounts",
          "type": "uint256[]"
        },
        {
          "internalType": "bytes",
          "name": "data",
          "type": "bytes"
        }
      ],
      "name": "safeBatchTransferFrom",
      "outputs": [],
      "stateMutability": "nonpayable",
      "type": "function"
    },
    {
      "inputs": [
        {
          "internalType": "address",
          "name": "from",
          "type": "address"
        },
        {
          "internalType": "address",
          "name": "to",
          "type": "address"
        },
        {
          "internalType": "uint256",
          "name": "id",
          "type": "uint256"
        },
        {
          "internalType": "uint256",
          "name": "amount",
          "type": "uint256"
        },
        {
          "internalType": "bytes",
          "name": "data",
          "type": "bytes"
        }
      ],
      "name": "safeTransferFrom",
      "outputs": [],
      "stateMutability": "nonpayable",
      "type": "function"
    },
    {
      "inputs": [
        {
          "internalType": "address",
          "name": "operator",
          "type": "address"
        },
        {
          "internalType": "bool",
          "name": "approved",
          "type": "bool"
        }
      ],
      "name": "setApprovalForAll",
      "outputs": [],
      "stateMutability": "nonpayable",
      "type": "function"
    },
    {
      "inputs": [
        {
          "internalType": "string",
          "name": "newuri",
          "type": "string"
        },
        {
          "internalType": "address",
          "name": "sender",
          "type": "address"
        }
      ],
      "name": "settokenURI",
      "outputs": [
        {
          "internalType": "uint256",
          "name": "",
          "type": "uint256"
        }
      ],
      "stateMutability": "nonpayable",
      "type": "function"
    },
    {
      "inputs": [
        {
          "internalType": "bytes4",
          "name": "interfaceId",
          "type": "bytes4"
        }
      ],
      "name": "supportsInterface",
      "outputs": [
        {
          "internalType": "bool",
          "name": "",
          "type": "bool"
        }
      ],
      "stateMutability": "view",
      "type": "function"
    },
    {
      "inputs": [
        {
          "internalType": "uint256",
          "name": "tokenid",
          "type": "uint256"
        }
      ],
      "name": "uri",
      "outputs": [
        {
          "internalType": "string",
          "name": "",
          "type": "string"
        }
      ],
      "stateMutability": "view",
      "type": "function"
    },
    {
      "inputs": [
        {
          "internalType": "address",
          "name": "user",
          "type": "address"
        }
      ],
      "name": "userTokens",
      "outputs": [
        {
          "internalType": "uint256[]",
          "name": "",
          "type": "uint256[]"
        }
      ],
      "stateMutability": "view",
      "type": "function"
    },
    {
      "stateMutability": "payable",
      "type": "receive"
    }
  ],
  "bytecode": "0x6080604052604051806060016040528060288152602001614f1e602891396009908161002b919061033c565b5034801561003857600080fd5b506009805461004690610155565b80601f016020809104026020016040519081016040528092919081815260200182805461007290610155565b80156100bf5780601f10610094576101008083540402835291602001916100bf565b820191906000526020600020905b8154815290600101906020018083116100a257829003601f168201915b50505050506100d3816100d960201b60201c565b5061040e565b80600290816100e8919061033c565b5050565b600081519050919050565b7f4e487b7100000000000000000000000000000000000000000000000000000000600052604160045260246000fd5b7f4e487b7100000000000000000000000000000000000000000000000000000000600052602260045260246000fd5b6000600282049050600182168061016d57607f821691505b6020821081036101805761017f610126565b5b50919050565b60008190508160005260206000209050919050565b60006020601f8301049050919050565b600082821b905092915050565b6000600883026101e87fffffffffffffffffffffffffffffffffffffffffffffffffffffffffffffffff826101ab565b6101f286836101ab565b95508019841693508086168417925050509392505050565b6000819050919050565b6000819050919050565b600061023961023461022f8461020a565b610214565b61020a565b9050919050565b6000819050919050565b6102538361021e565b61026761025f82610240565b8484546101b8565b825550505050565b600090565b61027c61026f565b61028781848461024a565b505050565b5b818110156102ab576102a0600082610274565b60018101905061028d565b5050565b601f8211156102f0576102c181610186565b6102ca8461019b565b810160208510156102d9578190505b6102ed6102e58561019b565b83018261028c565b50505b505050565b600082821c905092915050565b6000610313600019846008026102f5565b1980831691505092915050565b600061032c8383610302565b9150826002028217905092915050565b610345826100ec565b67ffffffffffffffff81111561035e5761035d6100f7565b5b6103688254610155565b6103738282856102af565b600060209050601f8311600181146103a65760008415610394578287015190505b61039e8582610320565b865550610406565b601f1984166103b486610186565b60005b828110156103dc578489015182556001820191506020850194506020810190506103b7565b868310156103f957848901516103f5601f891682610302565b8355505b6001600288020188555050505b505050505050565b614b018061041d6000396000f3fe6080604052600436106101165760003560e01c8063a22cb465116100a0578063e356777411610064578063e35677741461041a578063e985e9c514610443578063ed498fa814610480578063f23a6e61146104bd578063f242432a146104fa5761011d565b8063a22cb46514610323578063b901fed51461034c578063bc197c8114610377578063cc0a48d4146103b4578063d80a08da146103f15761011d565b80632eb2c2d6116100e75780632eb2c2d614610217578063434a49a1146102405780634e1273f41461027e5780635c80a435146102bb578063813d2ad8146102fa5761011d565b80628b96a114610122578062fdd58e1461016057806301ffc9a71461019d5780630e89341c146101da5761011d565b3661011d57005b600080fd5b34801561012e57600080fd5b5061014960048036038101906101449190612af4565b610523565b604051610157929190612b71565b60405180910390f35b34801561016c57600080fd5b5061018760048036038101906101829190612bc6565b610577565b6040516101949190612c06565b60405180910390f35b3480156101a957600080fd5b506101c460048036038101906101bf9190612c79565b61063f565b6040516101d19190612cc1565b60405180910390f35b3480156101e657600080fd5b5061020160048036038101906101fc9190612af4565b6106b9565b60405161020e9190612d6c565b60405180910390f35b34801561022357600080fd5b5061023e60048036038101906102399190612f8b565b6107a5565b005b34801561024c57600080fd5b506102676004803603810190610262919061305a565b610846565b604051610275929190613145565b60405180910390f35b34801561028a57600080fd5b506102a560048036038101906102a0919061323f565b610a57565b6040516102b291906132b7565b60405180910390f35b3480156102c757600080fd5b506102e260048036038101906102dd9190612bc6565b610b6a565b6040516102f1939291906132d9565b60405180910390f35b34801561030657600080fd5b50610321600480360381019061031c9190613310565b610bc1565b005b34801561032f57600080fd5b5061034a6004803603810190610345919061337c565b610e89565b005b34801561035857600080fd5b50610361610e9f565b60405161036e91906134a9565b60405180910390f35b34801561038357600080fd5b5061039e6004803603810190610399919061357c565b610f5e565b6040516103ab9190613667565b60405180910390f35b3480156103c057600080fd5b506103db60048036038101906103d69190613723565b610f76565b6040516103e89190612c06565b60405180910390f35b3480156103fd57600080fd5b506104186004803603810190610413919061377f565b611083565b005b34801561042657600080fd5b50610441600480360381019061043c91906137e6565b611516565b005b34801561044f57600080fd5b5061046a6004803603810190610465919061384d565b611826565b6040516104779190612cc1565b60405180910390f35b34801561048c57600080fd5b506104a760048036038101906104a2919061305a565b6118ba565b6040516104b491906132b7565b60405180910390f35b3480156104c957600080fd5b506104e460048036038101906104df919061388d565b611951565b6040516104f19190613667565b60405180910390f35b34801561050657600080fd5b50610521600480360381019061051c9190613927565b611967565b005b6007818154811061053357600080fd5b90600052602060002090600202016000915090508060000160009054906101000a900473ffffffffffffffffffffffffffffffffffffffff16908060010154905082565b60008073ffffffffffffffffffffffffffffffffffffffff168373ffffffffffffffffffffffffffffffffffffffff16036105e7576040517f08c379a00000000000000000000000000000000000000000000000000000000081526004016105de90613a30565b60405180910390fd5b60008083815260200190815260200160002060008473ffffffffffffffffffffffffffffffffffffffff1673ffffffffffffffffffffffffffffffffffffffff16815260200190815260200160002054905092915050565b60007f4e2312e0000000000000000000000000000000000000000000000000000000007bffffffffffffffffffffffffffffffffffffffffffffffffffffffff1916827bffffffffffffffffffffffffffffffffffffffffffffffffffffffff191614806106b257506106b182611a08565b5b9050919050565b606060006006600084815260200190815260200160002080546106db90613a7f565b80601f016020809104026020016040519081016040528092919081815260200182805461070790613a7f565b80156107545780601f1061072957610100808354040283529160200191610754565b820191906000526020600020905b81548152906001019060200180831161073757829003601f168201915b5050505050905060008151111561076e57809150506107a0565b600061077984611aea565b90508060405160200161078c9190613b84565b604051602081830303815290604052925050505b919050565b6107ad611bb8565b73ffffffffffffffffffffffffffffffffffffffff168573ffffffffffffffffffffffffffffffffffffffff1614806107f357506107f2856107ed611bb8565b611826565b5b610832576040517f08c379a000000000000000000000000000000000000000000000000000000000815260040161082990613c23565b60405180910390fd5b61083f8585858585611bc0565b5050505050565b6060806000600560008573ffffffffffffffffffffffffffffffffffffffff1673ffffffffffffffffffffffffffffffffffffffff1681526020019081526020016000208054806020026020016040519081016040528092919081815260200182805480156108d457602002820191906000526020600020905b8154815260200190600101908083116108c0575b50505050509050805167ffffffffffffffff8111156108f6576108f5612d93565b5b6040519080825280602002602001820160405280156109245781602001602082028036833780820191505090505b509250805167ffffffffffffffff81111561094257610941612d93565b5b6040519080825280602002602001820160405280156109705781602001602082028036833780820191505090505b50915060005b8151811015610a505781818151811061099257610991613c43565b5b60200260200101518482815181106109ad576109ac613c43565b5b602002602001018181525050600460008673ffffffffffffffffffffffffffffffffffffffff1673ffffffffffffffffffffffffffffffffffffffff1681526020019081526020016000206000838381518110610a0d57610a0c613c43565b5b6020026020010151815260200190815260200160002054838281518110610a3757610a36613c43565b5b6020026020010181815250508080600101915050610976565b5050915091565b60608151835114610a9d576040517f08c379a0000000000000000000000000000000000000000000000000000000008152600401610a9490613ce4565b60405180910390fd5b6000835167ffffffffffffffff811115610aba57610ab9612d93565b5b604051908082528060200260200182016040528015610ae85781602001602082028036833780820191505090505b50905060005b8451811015610b5f57610b35858281518110610b0d57610b0c613c43565b5b6020026020010151858381518110610b2857610b27613c43565b5b6020026020010151610577565b828281518110610b4857610b47613c43565b5b602002602001018181525050806001019050610aee565b508091505092915050565b6003602052816000526040600020602052806000526040600020600091509150508060000160009054906101000a900473ffffffffffffffffffffffffffffffffffffffff16908060010154908060020154905083565b6000600360008373ffffffffffffffffffffffffffffffffffffffff1673ffffffffffffffffffffffffffffffffffffffff16815260200190815260200160002060008481526020019081526020016000206040518060600160405290816000820160009054906101000a900473ffffffffffffffffffffffffffffffffffffffff1673ffffffffffffffffffffffffffffffffffffffff1673ffffffffffffffffffffffffffffffffffffffff1681526020016001820154815260200160028201548152505090508173ffffffffffffffffffffffffffffffffffffffff16816000015173ffffffffffffffffffffffffffffffffffffffff1614610cfc576040517f08c379a0000000000000000000000000000000000000000000000000000000008152600401610cf390613d50565b60405180910390fd5b600073ffffffffffffffffffffffffffffffffffffffff16816000015173ffffffffffffffffffffffffffffffffffffffff1603610d6f576040517f08c379a0000000000000000000000000000000000000000000000000000000008152600401610d6690613dbc565b60405180910390fd5b610d8f308385846020015160405180602001604052806000815250611edb565b8060200151600460008473ffffffffffffffffffffffffffffffffffffffff1673ffffffffffffffffffffffffffffffffffffffff16815260200190815260200160002060008581526020019081526020016000206000828254610df39190613e0b565b92505081905550600360008373ffffffffffffffffffffffffffffffffffffffff1673ffffffffffffffffffffffffffffffffffffffff1681526020019081526020016000206000848152602001908152602001600020600080820160006101000a81549073ffffffffffffffffffffffffffffffffffffffff0219169055600182016000905560028201600090555050505050565b610e9b610e94611bb8565b8383612176565b5050565b60606007805480602002602001604051908101604052809291908181526020016000905b82821015610f5557838290600052602060002090600202016040518060400160405290816000820160009054906101000a900473ffffffffffffffffffffffffffffffffffffffff1673ffffffffffffffffffffffffffffffffffffffff1673ffffffffffffffffffffffffffffffffffffffff16815260200160018201548152505081526020019060010190610ec3565b50505050905090565b600063bc197c8160e01b905098975050505050505050565b6000806008549050610f9a83826064604051806020016040528060008152506122e2565b83600660008381526020019081526020016000209081610fba9190613feb565b506064600460008573ffffffffffffffffffffffffffffffffffffffff1673ffffffffffffffffffffffffffffffffffffffff16815260200190815260200160002060008381526020019081526020016000208190555060086000815480929190611024906140bd565b91905055508273ffffffffffffffffffffffffffffffffffffffff167f4ed70bf1f442f068544f1bf2d60cef2006b67f7ac341da37f38f38fa9af7999a8286604051611071929190614105565b60405180910390a28091505092915050565b8161108e8585610577565b10156110cf576040517f08c379a00000000000000000000000000000000000000000000000000000000081526004016110c690614181565b60405180910390fd5b60008111611112576040517f08c379a0000000000000000000000000000000000000000000000000000000008152600401611109906141ed565b60405180910390fd5b600073ffffffffffffffffffffffffffffffffffffffff16600360008673ffffffffffffffffffffffffffffffffffffffff1673ffffffffffffffffffffffffffffffffffffffff168152602001908152602001600020600085815260200190815260200160002060000160009054906101000a900473ffffffffffffffffffffffffffffffffffffffff1673ffffffffffffffffffffffffffffffffffffffff16146111f4576040517f08c379a00000000000000000000000000000000000000000000000000000000081526004016111eb90614259565b60405180910390fd5b60008211611237576040517f08c379a000000000000000000000000000000000000000000000000000000000815260040161122e906142c5565b60405180910390fd5b81600460008673ffffffffffffffffffffffffffffffffffffffff1673ffffffffffffffffffffffffffffffffffffffff16815260200190815260200160002060008581526020019081526020016000205410156112ca576040517f08c379a00000000000000000000000000000000000000000000000000000000081526004016112c190614331565b60405180910390fd5b6112e68430858560405180602001604052806000815250611edb565b81600460008673ffffffffffffffffffffffffffffffffffffffff1673ffffffffffffffffffffffffffffffffffffffff168152602001908152602001600020600085815260200190815260200160002060008282546113469190614351565b9250508190555060405180606001604052808573ffffffffffffffffffffffffffffffffffffffff16815260200183815260200182815250600360008673ffffffffffffffffffffffffffffffffffffffff1673ffffffffffffffffffffffffffffffffffffffff168152602001908152602001600020600085815260200190815260200160002060008201518160000160006101000a81548173ffffffffffffffffffffffffffffffffffffffff021916908373ffffffffffffffffffffffffffffffffffffffff1602179055506020820151816001015560408201518160020155905050600760405180604001604052808673ffffffffffffffffffffffffffffffffffffffff16815260200185815250908060018154018082558091505060019003906000526020600020906002020160009091909190915060008201518160000160006101000a81548173ffffffffffffffffffffffffffffffffffffffff021916908373ffffffffffffffffffffffffffffffffffffffff1602179055506020820151816001015550507feba8cee8f0a2ab7b4cc8e75d10eae88eb6b625a15419821b6676d03a57ad7762848383604051611508939291906132d9565b60405180910390a150505050565b6000600360008673ffffffffffffffffffffffffffffffffffffffff1673ffffffffffffffffffffffffffffffffffffffff16815260200190815260200160002060008481526020019081526020016000206040518060600160405290816000820160009054906101000a900473ffffffffffffffffffffffffffffffffffffffff1673ffffffffffffffffffffffffffffffffffffffff1673ffffffffffffffffffffffffffffffffffffffff16815260200160018201548152602001600282015481525050905081816040015114611625576040517f08c379a000000000000000000000000000000000000000000000000000000000815260040161161c906143d1565b60405180910390fd5b806000015173ffffffffffffffffffffffffffffffffffffffff168473ffffffffffffffffffffffffffffffffffffffff1603611697576040517f08c379a000000000000000000000000000000000000000000000000000000000815260040161168e9061443d565b60405180910390fd5b600073ffffffffffffffffffffffffffffffffffffffff16816000015173ffffffffffffffffffffffffffffffffffffffff160361170a576040517f08c379a000000000000000000000000000000000000000000000000000000000815260040161170190613dbc565b60405180910390fd5b61172a308585846020015160405180602001604052806000815250611edb565b8060200151600460008673ffffffffffffffffffffffffffffffffffffffff1673ffffffffffffffffffffffffffffffffffffffff1681526020019081526020016000206000858152602001908152602001600020600082825461178e9190613e0b565b92505081905550600360008673ffffffffffffffffffffffffffffffffffffffff1673ffffffffffffffffffffffffffffffffffffffff1681526020019081526020016000206000848152602001908152602001600020600080820160006101000a81549073ffffffffffffffffffffffffffffffffffffffff02191690556001820160009055600282016000905550505050505050565b6000600160008473ffffffffffffffffffffffffffffffffffffffff1673ffffffffffffffffffffffffffffffffffffffff16815260200190815260200160002060008373ffffffffffffffffffffffffffffffffffffffff1673ffffffffffffffffffffffffffffffffffffffff16815260200190815260200160002060009054906101000a900460ff16905092915050565b6060600560008373ffffffffffffffffffffffffffffffffffffffff1673ffffffffffffffffffffffffffffffffffffffff16815260200190815260200160002080548060200260200160405190810160405280929190818152602001828054801561194557602002820191906000526020600020905b815481526020019060010190808311611931575b50505050509050919050565b600063f23a6e6160e01b90509695505050505050565b61196f611bb8565b73ffffffffffffffffffffffffffffffffffffffff168573ffffffffffffffffffffffffffffffffffffffff1614806119b557506119b4856119af611bb8565b611826565b5b6119f4576040517f08c379a00000000000000000000000000000000000000000000000000000000081526004016119eb90613c23565b60405180910390fd5b611a018585858585611edb565b5050505050565b60007fd9b67a26000000000000000000000000000000000000000000000000000000007bffffffffffffffffffffffffffffffffffffffffffffffffffffffff1916827bffffffffffffffffffffffffffffffffffffffffffffffffffffffff19161480611ad357507f0e89341c000000000000000000000000000000000000000000000000000000007bffffffffffffffffffffffffffffffffffffffffffffffffffffffff1916827bffffffffffffffffffffffffffffffffffffffffffffffffffffffff1916145b80611ae35750611ae282612492565b5b9050919050565b606060006001611af9846124fc565b01905060008167ffffffffffffffff811115611b1857611b17612d93565b5b6040519080825280601f01601f191660200182016040528015611b4a5781602001600182028036833780820191505090505b509050600082602001820190505b600115611bad578080600190039150507f3031323334353637383961626364656600000000000000000000000000000000600a86061a8153600a8581611ba157611ba061445d565b5b04945060008503611b58575b819350505050919050565b600033905090565b8151835114611c04576040517f08c379a0000000000000000000000000000000000000000000000000000000008152600401611bfb906144fe565b60405180910390fd5b600073ffffffffffffffffffffffffffffffffffffffff168473ffffffffffffffffffffffffffffffffffffffff1603611c73576040517f08c379a0000000000000000000000000000000000000000000000000000000008152600401611c6a90614590565b60405180910390fd5b6000611c7d611bb8565b9050611c8d81878787878761264f565b60005b8451811015611e38576000858281518110611cae57611cad613c43565b5b602002602001015190506000858381518110611ccd57611ccc613c43565b5b60200260200101519050600080600084815260200190815260200160002060008b73ffffffffffffffffffffffffffffffffffffffff1673ffffffffffffffffffffffffffffffffffffffff16815260200190815260200160002054905081811015611d6e576040517f08c379a0000000000000000000000000000000000000000000000000000000008152600401611d6590614622565b60405180910390fd5b81810360008085815260200190815260200160002060008c73ffffffffffffffffffffffffffffffffffffffff1673ffffffffffffffffffffffffffffffffffffffff168152602001908152602001600020819055508160008085815260200190815260200160002060008b73ffffffffffffffffffffffffffffffffffffffff1673ffffffffffffffffffffffffffffffffffffffff1681526020019081526020016000206000828254611e239190613e0b565b92505081905550505050806001019050611c90565b508473ffffffffffffffffffffffffffffffffffffffff168673ffffffffffffffffffffffffffffffffffffffff168273ffffffffffffffffffffffffffffffffffffffff167f4a39dc06d4c0dbc64b70af90fd698a233a518aa5d07e595d983b8c0526c8f7fb8787604051611eaf929190613145565b60405180910390a4611ec5818787878787612657565b611ed381878787878761265f565b505050505050565b600073ffffffffffffffffffffffffffffffffffffffff168473ffffffffffffffffffffffffffffffffffffffff1603611f4a576040517f08c379a0000000000000000000000000000000000000000000000000000000008152600401611f4190614590565b60405180910390fd5b6000611f54611bb8565b90506000611f6185612836565b90506000611f6e85612836565b9050611f7e83898985858961264f565b600080600088815260200190815260200160002060008a73ffffffffffffffffffffffffffffffffffffffff1673ffffffffffffffffffffffffffffffffffffffff16815260200190815260200160002054905085811015612015576040517f08c379a000000000000000000000000000000000000000000000000000000000815260040161200c90614622565b60405180910390fd5b85810360008089815260200190815260200160002060008b73ffffffffffffffffffffffffffffffffffffffff1673ffffffffffffffffffffffffffffffffffffffff168152602001908152602001600020819055508560008089815260200190815260200160002060008a73ffffffffffffffffffffffffffffffffffffffff1673ffffffffffffffffffffffffffffffffffffffff16815260200190815260200160002060008282546120ca9190613e0b565b925050819055508773ffffffffffffffffffffffffffffffffffffffff168973ffffffffffffffffffffffffffffffffffffffff168573ffffffffffffffffffffffffffffffffffffffff167fc3d58168c5ae7397731d063d5bbf3d657854427343f4c083240f7aacaa2d0f628a8a604051612147929190614642565b60405180910390a461215d848a8a86868a612657565b61216b848a8a8a8a8a6128b0565b505050505050505050565b8173ffffffffffffffffffffffffffffffffffffffff168373ffffffffffffffffffffffffffffffffffffffff16036121e4576040517f08c379a00000000000000000000000000000000000000000000000000000000081526004016121db906146dd565b60405180910390fd5b80600160008573ffffffffffffffffffffffffffffffffffffffff1673ffffffffffffffffffffffffffffffffffffffff16815260200190815260200160002060008473ffffffffffffffffffffffffffffffffffffffff1673ffffffffffffffffffffffffffffffffffffffff16815260200190815260200160002060006101000a81548160ff0219169083151502179055508173ffffffffffffffffffffffffffffffffffffffff168373ffffffffffffffffffffffffffffffffffffffff167f17307eab39ab6107e8899845ad3d59bd9653f200f220920489ca2b5937696c31836040516122d59190612cc1565b60405180910390a3505050565b600073ffffffffffffffffffffffffffffffffffffffff168473ffffffffffffffffffffffffffffffffffffffff1603612351576040517f08c379a00000000000000000000000000000000000000000000000000000000081526004016123489061476f565b60405180910390fd5b600061235b611bb8565b9050600061236885612836565b9050600061237585612836565b90506123868360008985858961264f565b8460008088815260200190815260200160002060008973ffffffffffffffffffffffffffffffffffffffff1673ffffffffffffffffffffffffffffffffffffffff16815260200190815260200160002060008282546123e59190613e0b565b925050819055508673ffffffffffffffffffffffffffffffffffffffff16600073ffffffffffffffffffffffffffffffffffffffff168473ffffffffffffffffffffffffffffffffffffffff167fc3d58168c5ae7397731d063d5bbf3d657854427343f4c083240f7aacaa2d0f628989604051612463929190614642565b60405180910390a461247a83600089858589612657565b612489836000898989896128b0565b50505050505050565b60007f01ffc9a7000000000000000000000000000000000000000000000000000000007bffffffffffffffffffffffffffffffffffffffffffffffffffffffff1916827bffffffffffffffffffffffffffffffffffffffffffffffffffffffff1916149050919050565b600080600090507a184f03e93ff9f4daa797ed6e38ed64bf6a1f010000000000000000831061255a577a184f03e93ff9f4daa797ed6e38ed64bf6a1f01000000000000000083816125505761254f61445d565b5b0492506040810190505b6d04ee2d6d415b85acef81000000008310612597576d04ee2d6d415b85acef8100000000838161258d5761258c61445d565b5b0492506020810190505b662386f26fc1000083106125c657662386f26fc1000083816125bc576125bb61445d565b5b0492506010810190505b6305f5e10083106125ef576305f5e10083816125e5576125e461445d565b5b0492506008810190505b612710831061261457612710838161260a5761260961445d565b5b0492506004810190505b60648310612637576064838161262d5761262c61445d565b5b0492506002810190505b600a8310612646576001810190505b80915050919050565b505050505050565b505050505050565b61267e8473ffffffffffffffffffffffffffffffffffffffff16612a87565b1561282e578373ffffffffffffffffffffffffffffffffffffffff1663bc197c8187878686866040518663ffffffff1660e01b81526004016126c49594939291906147e4565b6020604051808303816000875af192505050801561270057506040513d601f19601f820116820180604052508101906126fd9190614861565b60015b6127a55761270c61489b565b806308c379a00361276857506127206148bd565b8061272b575061276a565b806040517f08c379a000000000000000000000000000000000000000000000000000000000815260040161275f9190612d6c565b60405180910390fd5b505b6040517f08c379a000000000000000000000000000000000000000000000000000000000815260040161279c906149bf565b60405180910390fd5b63bc197c8160e01b7bffffffffffffffffffffffffffffffffffffffffffffffffffffffff1916817bffffffffffffffffffffffffffffffffffffffffffffffffffffffff19161461282c576040517f08c379a000000000000000000000000000000000000000000000000000000000815260040161282390614a51565b60405180910390fd5b505b505050505050565b60606000600167ffffffffffffffff81111561285557612854612d93565b5b6040519080825280602002602001820160405280156128835781602001602082028036833780820191505090505b509050828160008151811061289b5761289a613c43565b5b60200260200101818152505080915050919050565b6128cf8473ffffffffffffffffffffffffffffffffffffffff16612a87565b15612a7f578373ffffffffffffffffffffffffffffffffffffffff1663f23a6e6187878686866040518663ffffffff1660e01b8152600401612915959493929190614a71565b6020604051808303816000875af192505050801561295157506040513d601f19601f8201168201806040525081019061294e9190614861565b60015b6129f65761295d61489b565b806308c379a0036129b957506129716148bd565b8061297c57506129bb565b806040517f08c379a00000000000000000000000000000000000000000000000000000000081526004016129b09190612d6c565b60405180910390fd5b505b6040517f08c379a00000000000000000000000000000000000000000000000000000000081526004016129ed906149bf565b60405180910390fd5b63f23a6e6160e01b7bffffffffffffffffffffffffffffffffffffffffffffffffffffffff1916817bffffffffffffffffffffffffffffffffffffffffffffffffffffffff191614612a7d576040517f08c379a0000000000000000000000000000000000000000000000000000000008152600401612a7490614a51565b60405180910390fd5b505b505050505050565b6000808273ffffffffffffffffffffffffffffffffffffffff163b119050919050565b6000604051905090565b600080fd5b600080fd5b6000819050919050565b612ad181612abe565b8114612adc57600080fd5b50565b600081359050612aee81612ac8565b92915050565b600060208284031215612b0a57612b09612ab4565b5b6000612b1884828501612adf565b91505092915050565b600073ffffffffffffffffffffffffffffffffffffffff82169050919050565b6000612b4c82612b21565b9050919050565b612b5c81612b41565b82525050565b612b6b81612abe565b82525050565b6000604082019050612b866000830185612b53565b612b936020830184612b62565b9392505050565b612ba381612b41565b8114612bae57600080fd5b50565b600081359050612bc081612b9a565b92915050565b60008060408385031215612bdd57612bdc612ab4565b5b6000612beb85828601612bb1565b9250506020612bfc85828601612adf565b9150509250929050565b6000602082019050612c1b6000830184612b62565b92915050565b60007fffffffff0000000000000000000000000000000000000000000000000000000082169050919050565b612c5681612c21565b8114612c6157600080fd5b50565b600081359050612c7381612c4d565b92915050565b600060208284031215612c8f57612c8e612ab4565b5b6000612c9d84828501612c64565b91505092915050565b60008115159050919050565b612cbb81612ca6565b82525050565b6000602082019050612cd66000830184612cb2565b92915050565b600081519050919050565b600082825260208201905092915050565b60005b83811015612d16578082015181840152602081019050612cfb565b60008484015250505050565b6000601f19601f8301169050919050565b6000612d3e82612cdc565b612d488185612ce7565b9350612d58818560208601612cf8565b612d6181612d22565b840191505092915050565b60006020820190508181036000830152612d868184612d33565b905092915050565b600080fd5b7f4e487b7100000000000000000000000000000000000000000000000000000000600052604160045260246000fd5b612dcb82612d22565b810181811067ffffffffffffffff82111715612dea57612de9612d93565b5b80604052505050565b6000612dfd612aaa565b9050612e098282612dc2565b919050565b600067ffffffffffffffff821115612e2957612e28612d93565b5b602082029050602081019050919050565b600080fd5b6000612e52612e4d84612e0e565b612df3565b90508083825260208201905060208402830185811115612e7557612e74612e3a565b5b835b81811015612e9e5780612e8a8882612adf565b845260208401935050602081019050612e77565b5050509392505050565b600082601f830112612ebd57612ebc612d8e565b5b8135612ecd848260208601612e3f565b91505092915050565b600080fd5b600067ffffffffffffffff821115612ef657612ef5612d93565b5b612eff82612d22565b9050602081019050919050565b82818337600083830152505050565b6000612f2e612f2984612edb565b612df3565b905082815260208101848484011115612f4a57612f49612ed6565b5b612f55848285612f0c565b509392505050565b600082601f830112612f7257612f71612d8e565b5b8135612f82848260208601612f1b565b91505092915050565b600080600080600060a08688031215612fa757612fa6612ab4565b5b6000612fb588828901612bb1565b9550506020612fc688828901612bb1565b945050604086013567ffffffffffffffff811115612fe757612fe6612ab9565b5b612ff388828901612ea8565b935050606086013567ffffffffffffffff81111561301457613013612ab9565b5b61302088828901612ea8565b925050608086013567ffffffffffffffff81111561304157613040612ab9565b5b61304d88828901612f5d565b9150509295509295909350565b6000602082840312156130705761306f612ab4565b5b600061307e84828501612bb1565b91505092915050565b600081519050919050565b600082825260208201905092915050565b6000819050602082019050919050565b6130bc81612abe565b82525050565b60006130ce83836130b3565b60208301905092915050565b6000602082019050919050565b60006130f282613087565b6130fc8185613092565b9350613107836130a3565b8060005b8381101561313857815161311f88826130c2565b975061312a836130da565b92505060018101905061310b565b5085935050505092915050565b6000604082019050818103600083015261315f81856130e7565b9050818103602083015261317381846130e7565b90509392505050565b600067ffffffffffffffff82111561319757613196612d93565b5b602082029050602081019050919050565b60006131bb6131b68461317c565b612df3565b905080838252602082019050602084028301858111156131de576131dd612e3a565b5b835b8181101561320757806131f38882612bb1565b8452602084019350506020810190506131e0565b5050509392505050565b600082601f83011261322657613225612d8e565b5b81356132368482602086016131a8565b91505092915050565b6000806040838503121561325657613255612ab4565b5b600083013567ffffffffffffffff81111561327457613273612ab9565b5b61328085828601613211565b925050602083013567ffffffffffffffff8111156132a1576132a0612ab9565b5b6132ad85828601612ea8565b9150509250929050565b600060208201905081810360008301526132d181846130e7565b905092915050565b60006060820190506132ee6000830186612b53565b6132fb6020830185612b62565b6133086040830184612b62565b949350505050565b6000806040838503121561332757613326612ab4565b5b600061333585828601612adf565b925050602061334685828601612bb1565b9150509250929050565b61335981612ca6565b811461336457600080fd5b50565b60008135905061337681613350565b92915050565b6000806040838503121561339357613392612ab4565b5b60006133a185828601612bb1565b92505060206133b285828601613367565b9150509250929050565b600081519050919050565b600082825260208201905092915050565b6000819050602082019050919050565b6133f181612b41565b82525050565b60408201600082015161340d60008501826133e8565b50602082015161342060208501826130b3565b50505050565b600061343283836133f7565b60408301905092915050565b6000602082019050919050565b6000613456826133bc565b61346081856133c7565b935061346b836133d8565b8060005b8381101561349c5781516134838882613426565b975061348e8361343e565b92505060018101905061346f565b5085935050505092915050565b600060208201905081810360008301526134c3818461344b565b905092915050565b600080fd5b60008083601f8401126134e6576134e5612d8e565b5b8235905067ffffffffffffffff811115613503576135026134cb565b5b60208301915083602082028301111561351f5761351e612e3a565b5b9250929050565b60008083601f84011261353c5761353b612d8e565b5b8235905067ffffffffffffffff811115613559576135586134cb565b5b60208301915083600182028301111561357557613574612e3a565b5b9250929050565b60008060008060008060008060a0898b03121561359c5761359b612ab4565b5b60006135aa8b828c01612bb1565b98505060206135bb8b828c01612bb1565b975050604089013567ffffffffffffffff8111156135dc576135db612ab9565b5b6135e88b828c016134d0565b9650965050606089013567ffffffffffffffff81111561360b5761360a612ab9565b5b6136178b828c016134d0565b9450945050608089013567ffffffffffffffff81111561363a57613639612ab9565b5b6136468b828c01613526565b92509250509295985092959890939650565b61366181612c21565b82525050565b600060208201905061367c6000830184613658565b92915050565b600067ffffffffffffffff82111561369d5761369c612d93565b5b6136a682612d22565b9050602081019050919050565b60006136c66136c184613682565b612df3565b9050828152602081018484840111156136e2576136e1612ed6565b5b6136ed848285612f0c565b509392505050565b600082601f83011261370a57613709612d8e565b5b813561371a8482602086016136b3565b91505092915050565b6000806040838503121561373a57613739612ab4565b5b600083013567ffffffffffffffff81111561375857613757612ab9565b5b613764858286016136f5565b925050602061377585828601612bb1565b9150509250929050565b6000806000806080858703121561379957613798612ab4565b5b60006137a787828801612bb1565b94505060206137b887828801612adf565b93505060406137c987828801612adf565b92505060606137da87828801612adf565b91505092959194509250565b60008060008060808587031215613800576137ff612ab4565b5b600061380e87828801612bb1565b945050602061381f87828801612bb1565b935050604061383087828801612adf565b925050606061384187828801612adf565b91505092959194509250565b6000806040838503121561386457613863612ab4565b5b600061387285828601612bb1565b925050602061388385828601612bb1565b9150509250929050565b60008060008060008060a087890312156138aa576138a9612ab4565b5b60006138b889828a01612bb1565b96505060206138c989828a01612bb1565b95505060406138da89828a01612adf565b94505060606138eb89828a01612adf565b935050608087013567ffffffffffffffff81111561390c5761390b612ab9565b5b61391889828a01613526565b92509250509295509295509295565b600080600080600060a0868803121561394357613942612ab4565b5b600061395188828901612bb1565b955050602061396288828901612bb1565b945050604061397388828901612adf565b935050606061398488828901612adf565b925050608086013567ffffffffffffffff8111156139a5576139a4612ab9565b5b6139b188828901612f5d565b9150509295509295909350565b7f455243313135353a2061646472657373207a65726f206973206e6f742061207660008201527f616c6964206f776e657200000000000000000000000000000000000000000000602082015250565b6000613a1a602a83612ce7565b9150613a25826139be565b604082019050919050565b60006020820190508181036000830152613a4981613a0d565b9050919050565b7f4e487b7100000000000000000000000000000000000000000000000000000000600052602260045260246000fd5b60006002820490506001821680613a9757607f821691505b602082108103613aaa57613aa9613a50565b5b50919050565b600081905092915050565b7f68747470733a2f2f6d7970726f6a6563742e636f6d2f6d657461646174612f00600082015250565b6000613af1601f83613ab0565b9150613afc82613abb565b601f82019050919050565b6000613b1282612cdc565b613b1c8185613ab0565b9350613b2c818560208601612cf8565b80840191505092915050565b7f2e6a736f6e000000000000000000000000000000000000000000000000000000600082015250565b6000613b6e600583613ab0565b9150613b7982613b38565b600582019050919050565b6000613b8f82613ae4565b9150613b9b8284613b07565b9150613ba682613b61565b915081905092915050565b7f455243313135353a2063616c6c6572206973206e6f7420746f6b656e206f776e60008201527f6572206f7220617070726f766564000000000000000000000000000000000000602082015250565b6000613c0d602e83612ce7565b9150613c1882613bb1565b604082019050919050565b60006020820190508181036000830152613c3c81613c00565b9050919050565b7f4e487b7100000000000000000000000000000000000000000000000000000000600052603260045260246000fd5b7f455243313135353a206163636f756e747320616e6420696473206c656e67746860008201527f206d69736d617463680000000000000000000000000000000000000000000000602082015250565b6000613cce602983612ce7565b9150613cd982613c72565b604082019050919050565b60006020820190508181036000830152613cfd81613cc1565b9050919050565b7f4f6e6c792073656c6c65722063616e2063616e63656c00000000000000000000600082015250565b6000613d3a601683612ce7565b9150613d4582613d04565b602082019050919050565b60006020820190508181036000830152613d6981613d2d565b9050919050565b7f4e4654206e6f7420666f722073616c6500000000000000000000000000000000600082015250565b6000613da6601083612ce7565b9150613db182613d70565b602082019050919050565b60006020820190508181036000830152613dd581613d99565b9050919050565b7f4e487b7100000000000000000000000000000000000000000000000000000000600052601160045260246000fd5b6000613e1682612abe565b9150613e2183612abe565b9250828201905080821115613e3957613e38613ddc565b5b92915050565b60008190508160005260206000209050919050565b60006020601f8301049050919050565b600082821b905092915050565b600060088302613ea17fffffffffffffffffffffffffffffffffffffffffffffffffffffffffffffffff82613e64565b613eab8683613e64565b95508019841693508086168417925050509392505050565b6000819050919050565b6000613ee8613ee3613ede84612abe565b613ec3565b612abe565b9050919050565b6000819050919050565b613f0283613ecd565b613f16613f0e82613eef565b848454613e71565b825550505050565b600090565b613f2b613f1e565b613f36818484613ef9565b505050565b5b81811015613f5a57613f4f600082613f23565b600181019050613f3c565b5050565b601f821115613f9f57613f7081613e3f565b613f7984613e54565b81016020851015613f88578190505b613f9c613f9485613e54565b830182613f3b565b50505b505050565b600082821c905092915050565b6000613fc260001984600802613fa4565b1980831691505092915050565b6000613fdb8383613fb1565b9150826002028217905092915050565b613ff482612cdc565b67ffffffffffffffff81111561400d5761400c612d93565b5b6140178254613a7f565b614022828285613f5e565b600060209050601f8311600181146140555760008415614043578287015190505b61404d8582613fcf565b8655506140b5565b601f19841661406386613e3f565b60005b8281101561408b57848901518255600182019150602085019450602081019050614066565b868310156140a857848901516140a4601f891682613fb1565b8355505b6001600288020188555050505b505050505050565b60006140c882612abe565b91507fffffffffffffffffffffffffffffffffffffffffffffffffffffffffffffffff82036140fa576140f9613ddc565b5b600182019050919050565b600060408201905061411a6000830185612b62565b818103602083015261412c8184612d33565b90509392505050565b7f496e73756666696369656e7420746f6b656e7300000000000000000000000000600082015250565b600061416b601383612ce7565b915061417682614135565b602082019050919050565b6000602082019050818103600083015261419a8161415e565b9050919050565b7f5072696365206d7573742062652067726561746572207468616e203000000000600082015250565b60006141d7601c83612ce7565b91506141e2826141a1565b602082019050919050565b60006020820190508181036000830152614206816141ca565b9050919050565b7f4e465420616c726561647920666f722073616c65000000000000000000000000600082015250565b6000614243601483612ce7565b915061424e8261420d565b602082019050919050565b6000602082019050818103600083015261427281614236565b9050919050565b7f4d7573742073656c6c206174206c65617374203120746f6b656e000000000000600082015250565b60006142af601a83612ce7565b91506142ba82614279565b602082019050919050565b600060208201905081810360008301526142de816142a2565b9050919050565b7f4e6f7420656e6f75676820746f6b656e73000000000000000000000000000000600082015250565b600061431b601183612ce7565b9150614326826142e5565b602082019050919050565b6000602082019050818103600083015261434a8161430e565b9050919050565b600061435c82612abe565b915061436783612abe565b925082820390508181111561437f5761437e613ddc565b5b92915050565b7f496e636f72726563742070726963650000000000000000000000000000000000600082015250565b60006143bb600f83612ce7565b91506143c682614385565b602082019050919050565b600060208201905081810360008301526143ea816143ae565b9050919050565b7f43616e6e6f742062757920796f7572206f776e204e4654000000000000000000600082015250565b6000614427601783612ce7565b9150614432826143f1565b602082019050919050565b600060208201905081810360008301526144568161441a565b9050919050565b7f4e487b7100000000000000000000000000000000000000000000000000000000600052601260045260246000fd5b7f455243313135353a2069647320616e6420616d6f756e7473206c656e6774682060008201527f6d69736d61746368000000000000000000000000000000000000000000000000602082015250565b60006144e8602883612ce7565b91506144f38261448c565b604082019050919050565b60006020820190508181036000830152614517816144db565b9050919050565b7f455243313135353a207472616e7366657220746f20746865207a65726f20616460008201527f6472657373000000000000000000000000000000000000000000000000000000602082015250565b600061457a602583612ce7565b91506145858261451e565b604082019050919050565b600060208201905081810360008301526145a98161456d565b9050919050565b7f455243313135353a20696e73756666696369656e742062616c616e636520666f60008201527f72207472616e7366657200000000000000000000000000000000000000000000602082015250565b600061460c602a83612ce7565b9150614617826145b0565b604082019050919050565b6000602082019050818103600083015261463b816145ff565b9050919050565b60006040820190506146576000830185612b62565b6146646020830184612b62565b9392505050565b7f455243313135353a2073657474696e6720617070726f76616c2073746174757360008201527f20666f722073656c660000000000000000000000000000000000000000000000602082015250565b60006146c7602983612ce7565b91506146d28261466b565b604082019050919050565b600060208201905081810360008301526146f6816146ba565b9050919050565b7f455243313135353a206d696e7420746f20746865207a65726f2061646472657360008201527f7300000000000000000000000000000000000000000000000000000000000000602082015250565b6000614759602183612ce7565b9150614764826146fd565b604082019050919050565b600060208201905081810360008301526147888161474c565b9050919050565b600081519050919050565b600082825260208201905092915050565b60006147b68261478f565b6147c0818561479a565b93506147d0818560208601612cf8565b6147d981612d22565b840191505092915050565b600060a0820190506147f96000830188612b53565b6148066020830187612b53565b818103604083015261481881866130e7565b9050818103606083015261482c81856130e7565b9050818103608083015261484081846147ab565b90509695505050505050565b60008151905061485b81612c4d565b92915050565b60006020828403121561487757614876612ab4565b5b60006148858482850161484c565b91505092915050565b60008160e01c9050919050565b600060033d11156148ba5760046000803e6148b760005161488e565b90505b90565b600060443d1061494a576148cf612aaa565b60043d036004823e80513d602482011167ffffffffffffffff821117156148f757505061494a565b808201805167ffffffffffffffff811115614915575050505061494a565b80602083010160043d03850181111561493257505050505061494a565b61494182602001850186612dc2565b82955050505050505b90565b7f455243313135353a207472616e7366657220746f206e6f6e2d4552433131353560008201527f526563656976657220696d706c656d656e746572000000000000000000000000602082015250565b60006149a9603483612ce7565b91506149b48261494d565b604082019050919050565b600060208201905081810360008301526149d88161499c565b9050919050565b7f455243313135353a204552433131353552656365697665722072656a6563746560008201527f6420746f6b656e73000000000000000000000000000000000000000000000000602082015250565b6000614a3b602883612ce7565b9150614a46826149df565b604082019050919050565b60006020820190508181036000830152614a6a81614a2e565b9050919050565b600060a082019050614a866000830188612b53565b614a936020830187612b53565b614aa06040830186612b62565b614aad6060830185612b62565b8181036080830152614abf81846147ab565b9050969550505050505056fea264697066735822122068d9422a4f51e1a3b43004b85f017d76642ba61ee70bae4b805cbea3754b69bb64736f6c634300081e003368747470733a2f2f6d7970726f6a6563742e636f6d2f6d657461646174612f7b69647d2e6a736f6e",
  "linkReferences": {},
  "deployedLinkReferences": {}
}