{
  "_format": "hh-sol-artifact-1",
  "contractName": "BingNFT",
  "sourceName": "contracts/BingNFt.sol",
  "abi": [
    {
      "inputs": [],
      "stateMutability": "nonpayable",
      "type": "constructor"
    },
    {
      "anonymous": false,
      "inputs": [
        {
          "indexed": true,
          "internalType": "address",
          "name": "account",
          "type": "address"
        },
        {
          "indexed": true,
          "internalType": "address",
          "name": "operator",
          "type": "address"
        },
        {
          "indexed": false,
          "internalType": "bool",
          "name": "approved",
          "type": "bool"
        }
      ],
      "name": "ApprovalForAll",
      "type": "event"
    },
    {
      "anonymous": false,
      "inputs": [
        {
          "indexed": false,
          "internalType": "uint256",
          "name": "tokenId",
          "type": "uint256"
        },
        {
          "indexed": true,
          "internalType": "address",
          "name": "sender",
          "type": "address"
        },
        {
          "indexed": false,
          "internalType": "string",
          "name": "uri",
          "type": "string"
        }
      ],
      "name": "TokenURICreated",
      "type": "event"
    },
    {
      "anonymous": false,
      "inputs": [
        {
          "indexed": true,
          "internalType": "address",
          "name": "operator",
          "type": "address"
        },
        {
          "indexed": true,
          "internalType": "address",
          "name": "from",
          "type": "address"
        },
        {
          "indexed": true,
          "internalType": "address",
          "name": "to",
          "type": "address"
        },
        {
          "indexed": false,
          "internalType": "uint256[]",
          "name": "ids",
          "type": "uint256[]"
        },
        {
          "indexed": false,
          "internalType": "uint256[]",
          "name": "values",
          "type": "uint256[]"
        }
      ],
      "name": "TransferBatch",
      "type": "event"
    },
    {
      "anonymous": false,
      "inputs": [
        {
          "indexed": true,
          "internalType": "address",
          "name": "operator",
          "type": "address"
        },
        {
          "indexed": true,
          "internalType": "address",
          "name": "from",
          "type": "address"
        },
        {
          "indexed": true,
          "internalType": "address",
          "name": "to",
          "type": "address"
        },
        {
          "indexed": false,
          "internalType": "uint256",
          "name": "id",
          "type": "uint256"
        },
        {
          "indexed": false,
          "internalType": "uint256",
          "name": "value",
          "type": "uint256"
        }
      ],
      "name": "TransferSingle",
      "type": "event"
    },
    {
      "anonymous": false,
      "inputs": [
        {
          "indexed": false,
          "internalType": "string",
          "name": "value",
          "type": "string"
        },
        {
          "indexed": true,
          "internalType": "uint256",
          "name": "id",
          "type": "uint256"
        }
      ],
      "name": "URI",
      "type": "event"
    },
    {
      "anonymous": false,
      "inputs": [
        {
          "indexed": false,
          "internalType": "address",
          "name": "seller",
          "type": "address"
        },
        {
          "indexed": false,
          "internalType": "uint256",
          "name": "token",
          "type": "uint256"
        },
        {
          "indexed": false,
          "internalType": "uint256",
          "name": "tokenAmt",
          "type": "uint256"
        },
        {
          "indexed": false,
          "internalType": "uint256",
          "name": "price",
          "type": "uint256"
        }
      ],
      "name": "buyItemLists",
      "type": "event"
    },
    {
      "anonymous": false,
      "inputs": [
        {
          "indexed": false,
          "internalType": "address",
          "name": "seller",
          "type": "address"
        },
        {
          "indexed": false,
          "internalType": "uint256",
          "name": "token",
          "type": "uint256"
        },
        {
          "indexed": false,
          "internalType": "uint256",
          "name": "amount",
          "type": "uint256"
        }
      ],
      "name": "createdItemLists",
      "type": "event"
    },
    {
      "anonymous": false,
      "inputs": [
        {
          "indexed": false,
          "internalType": "address",
          "name": "seller",
          "type": "address"
        },
        {
          "indexed": false,
          "internalType": "uint256",
          "name": "token",
          "type": "uint256"
        },
        {
          "indexed": false,
          "internalType": "uint256",
          "name": "tokenAmt",
          "type": "uint256"
        },
        {
          "indexed": false,
          "internalType": "uint256",
          "name": "price",
          "type": "uint256"
        }
      ],
      "name": "sellItemLists",
      "type": "event"
    },
    {
      "inputs": [
        {
          "internalType": "address",
          "name": "sender",
          "type": "address"
        },
        {
          "internalType": "address",
          "name": "receiver",
          "type": "address"
        },
        {
          "internalType": "uint256",
          "name": "nftid",
          "type": "uint256"
        },
        {
          "internalType": "uint256",
          "name": "price",
          "type": "uint256"
        }
      ],
      "name": "BuyNFT",
      "outputs": [],
      "stateMutability": "nonpayable",
      "type": "function"
    },
    {
      "inputs": [
        {
          "internalType": "address",
          "name": "sender",
          "type": "address"
        },
        {
          "internalType": "uint256",
          "name": "nftid",
          "type": "uint256"
        },
        {
          "internalType": "uint256",
          "name": "token",
          "type": "uint256"
        },
        {
          "internalType": "uint256",
          "name": "price",
          "type": "uint256"
        }
      ],
      "name": "SellNFT",
      "outputs": [],
      "stateMutability": "nonpayable",
      "type": "function"
    },
    {
      "inputs": [
        {
          "internalType": "uint256",
          "name": "",
          "type": "uint256"
        }
      ],
      "name": "SellNftList",
      "outputs": [
        {
          "internalType": "address",
          "name": "owner",
          "type": "address"
        },
        {
          "internalType": "uint256",
          "name": "nftid",
          "type": "uint256"
        }
      ],
      "stateMutability": "view",
      "type": "function"
    },
    {
      "inputs": [
        {
          "internalType": "address",
          "name": "account",
          "type": "address"
        },
        {
          "internalType": "uint256",
          "name": "id",
          "type": "uint256"
        }
      ],
      "name": "balanceOf",
      "outputs": [
        {
          "internalType": "uint256",
          "name": "",
          "type": "uint256"
        }
      ],
      "stateMutability": "view",
      "type": "function"
    },
    {
      "inputs": [
        {
          "internalType": "address[]",
          "name": "accounts",
          "type": "address[]"
        },
        {
          "internalType": "uint256[]",
          "name": "ids",
          "type": "uint256[]"
        }
      ],
      "name": "balanceOfBatch",
      "outputs": [
        {
          "internalType": "uint256[]",
          "name": "",
          "type": "uint256[]"
        }
      ],
      "stateMutability": "view",
      "type": "function"
    },
    {
      "inputs": [
        {
          "internalType": "uint256",
          "name": "nftid",
          "type": "uint256"
        },
        {
          "internalType": "address",
          "name": "sender",
          "type": "address"
        }
      ],
      "name": "cancelSale",
      "outputs": [],
      "stateMutability": "nonpayable",
      "type": "function"
    },
    {
      "inputs": [],
      "name": "getAllListedNFTIds",
      "outputs": [
        {
          "components": [
            {
              "internalType": "address",
              "name": "owner",
              "type": "address"
            },
            {
              "internalType": "uint256",
              "name": "nftid",
              "type": "uint256"
            }
          ],
          "internalType": "struct BingNFT.SellList[]",
          "name": "",
          "type": "tuple[]"
        }
      ],
      "stateMutability": "view",
      "type": "function"
    },
    {
      "inputs": [
        {
          "internalType": "address",
          "name": "account",
          "type": "address"
        },
        {
          "internalType": "address",
          "name": "operator",
          "type": "address"
        }
      ],
      "name": "isApprovedForAll",
      "outputs": [
        {
          "internalType": "bool",
          "name": "",
          "type": "bool"
        }
      ],
      "stateMutability": "view",
      "type": "function"
    },
    {
      "inputs": [
        {
          "internalType": "address",
          "name": "",
          "type": "address"
        },
        {
          "internalType": "uint256",
          "name": "",
          "type": "uint256"
        }
      ],
      "name": "items",
      "outputs": [
        {
          "internalType": "address",
          "name": "seller",
          "type": "address"
        },
        {
          "internalType": "uint256",
          "name": "token",
          "type": "uint256"
        },
        {
          "internalType": "uint256",
          "name": "price",
          "type": "uint256"
        }
      ],
      "stateMutability": "view",
      "type": "function"
    },
    {
      "inputs": [
        {
          "internalType": "address",
          "name": "operator",
          "type": "address"
        },
        {
          "internalType": "address",
          "name": "from",
          "type": "address"
        },
        {
          "internalType": "uint256[]",
          "name": "ids",
          "type": "uint256[]"
        },
        {
          "internalType": "uint256[]",
          "name": "values",
          "type": "uint256[]"
        },
        {
          "internalType": "bytes",
          "name": "data",
          "type": "bytes"
        }
      ],
      "name": "onERC1155BatchReceived",
      "outputs": [
        {
          "internalType": "bytes4",
          "name": "",
          "type": "bytes4"
        }
      ],
      "stateMutability": "nonpayable",
      "type": "function"
    },
    {
      "inputs": [
        {
          "internalType": "address",
          "name": "operator",
          "type": "address"
        },
        {
          "internalType": "address",
          "name": "from",
          "type": "address"
        },
        {
          "internalType": "uint256",
          "name": "id",
          "type": "uint256"
        },
        {
          "internalType": "uint256",
          "name": "value",
          "type": "uint256"
        },
        {
          "internalType": "bytes",
          "name": "data",
          "type": "bytes"
        }
      ],
      "name": "onERC1155Received",
      "outputs": [
        {
          "internalType": "bytes4",
          "name": "",
          "type": "bytes4"
        }
      ],
      "stateMutability": "nonpayable",
      "type": "function"
    },
    {
      "inputs": [
        {
          "internalType": "address",
          "name": "from",
          "type": "address"
        },
        {
          "internalType": "address",
          "name": "to",
          "type": "address"
        },
        {
          "internalType": "uint256[]",
          "name": "ids",
          "type": "uint256[]"
        },
        {
          "internalType": "uint256[]",
          "name": "amounts",
          "type": "uint256[]"
        },
        {
          "internalType": "bytes",
          "name": "data",
          "type": "bytes"
        }
      ],
      "name": "safeBatchTransferFrom",
      "outputs": [],
      "stateMutability": "nonpayable",
      "type": "function"
    },
    {
      "inputs": [
        {
          "internalType": "address",
          "name": "from",
          "type": "address"
        },
        {
          "internalType": "address",
          "name": "to",
          "type": "address"
        },
        {
          "internalType": "uint256",
          "name": "id",
          "type": "uint256"
        },
        {
          "internalType": "uint256",
          "name": "amount",
          "type": "uint256"
        },
        {
          "internalType": "bytes",
          "name": "data",
          "type": "bytes"
        }
      ],
      "name": "safeTransferFrom",
      "outputs": [],
      "stateMutability": "nonpayable",
      "type": "function"
    },
    {
      "inputs": [
        {
          "internalType": "address",
          "name": "operator",
          "type": "address"
        },
        {
          "internalType": "bool",
          "name": "approved",
          "type": "bool"
        }
      ],
      "name": "setApprovalForAll",
      "outputs": [],
      "stateMutability": "nonpayable",
      "type": "function"
    },
    {
      "inputs": [
        {
          "internalType": "string",
          "name": "newuri",
          "type": "string"
        },
        {
          "internalType": "address",
          "name": "sender",
          "type": "address"
        }
      ],
      "name": "settokenURI",
      "outputs": [
        {
          "internalType": "uint256",
          "name": "",
          "type": "uint256"
        }
      ],
      "stateMutability": "nonpayable",
      "type": "function"
    },
    {
      "inputs": [
        {
          "internalType": "bytes4",
          "name": "interfaceId",
          "type": "bytes4"
        }
      ],
      "name": "supportsInterface",
      "outputs": [
        {
          "internalType": "bool",
          "name": "",
          "type": "bool"
        }
      ],
      "stateMutability": "view",
      "type": "function"
    },
    {
      "inputs": [
        {
          "internalType": "uint256",
          "name": "tokenid",
          "type": "uint256"
        }
      ],
      "name": "uri",
      "outputs": [
        {
          "internalType": "string",
          "name": "",
          "type": "string"
        }
      ],
      "stateMutability": "view",
      "type": "function"
    },
    {
      "inputs": [
        {
          "internalType": "address",
          "name": "user",
          "type": "address"
        }
      ],
      "name": "userTokens",
      "outputs": [
        {
          "internalType": "uint256[]",
          "name": "",
          "type": "uint256[]"
        }
      ],
      "stateMutability": "view",
      "type": "function"
    },
    {
      "stateMutability": "payable",
      "type": "receive"
    }
  ],
  "bytecode": "0x6080604052604051806060016040528060288152602001614dfa602891396009908161002b919061033c565b5034801561003857600080fd5b506009805461004690610155565b80601f016020809104026020016040519081016040528092919081815260200182805461007290610155565b80156100bf5780601f10610094576101008083540402835291602001916100bf565b820191906000526020600020905b8154815290600101906020018083116100a257829003601f168201915b50505050506100d3816100d960201b60201c565b5061040e565b80600290816100e8919061033c565b5050565b600081519050919050565b7f4e487b7100000000000000000000000000000000000000000000000000000000600052604160045260246000fd5b7f4e487b7100000000000000000000000000000000000000000000000000000000600052602260045260246000fd5b6000600282049050600182168061016d57607f821691505b6020821081036101805761017f610126565b5b50919050565b60008190508160005260206000209050919050565b60006020601f8301049050919050565b600082821b905092915050565b6000600883026101e87fffffffffffffffffffffffffffffffffffffffffffffffffffffffffffffffff826101ab565b6101f286836101ab565b95508019841693508086168417925050509392505050565b6000819050919050565b6000819050919050565b600061023961023461022f8461020a565b610214565b61020a565b9050919050565b6000819050919050565b6102538361021e565b61026761025f82610240565b8484546101b8565b825550505050565b600090565b61027c61026f565b61028781848461024a565b505050565b5b818110156102ab576102a0600082610274565b60018101905061028d565b5050565b601f8211156102f0576102c181610186565b6102ca8461019b565b810160208510156102d9578190505b6102ed6102e58561019b565b83018261028c565b50505b505050565b600082821c905092915050565b6000610313600019846008026102f5565b1980831691505092915050565b600061032c8383610302565b9150826002028217905092915050565b610345826100ec565b67ffffffffffffffff81111561035e5761035d6100f7565b5b6103688254610155565b6103738282856102af565b600060209050601f8311600181146103a65760008415610394578287015190505b61039e8582610320565b865550610406565b601f1984166103b486610186565b60005b828110156103dc578489015182556001820191506020850194506020810190506103b7565b868310156103f957848901516103f5601f891682610302565b8355505b6001600288020188555050505b505050505050565b6149dd8061041d6000396000f3fe60806040526004361061010b5760003560e01c8063b901fed511610095578063e356777411610064578063e3567774146103d1578063e985e9c5146103fa578063ed498fa814610437578063f23a6e6114610474578063f242432a146104b157610112565b8063b901fed514610303578063bc197c811461032e578063cc0a48d41461036b578063d80a08da146103a857610112565b80632eb2c2d6116100dc5780632eb2c2d61461020c5780634e1273f4146102355780635c80a43514610272578063813d2ad8146102b1578063a22cb465146102da57610112565b80628b96a114610117578062fdd58e1461015557806301ffc9a7146101925780630e89341c146101cf57610112565b3661011257005b600080fd5b34801561012357600080fd5b5061013e60048036038101906101399190612919565b6104da565b60405161014c929190612996565b60405180910390f35b34801561016157600080fd5b5061017c600480360381019061017791906129eb565b61052e565b6040516101899190612a2b565b60405180910390f35b34801561019e57600080fd5b506101b960048036038101906101b49190612a9e565b6105f6565b6040516101c69190612ae6565b60405180910390f35b3480156101db57600080fd5b506101f660048036038101906101f19190612919565b610670565b6040516102039190612b91565b60405180910390f35b34801561021857600080fd5b50610233600480360381019061022e9190612db0565b61075c565b005b34801561024157600080fd5b5061025c60048036038101906102579190612f42565b6107fd565b6040516102699190613078565b60405180910390f35b34801561027e57600080fd5b50610299600480360381019061029491906129eb565b610910565b6040516102a89392919061309a565b60405180910390f35b3480156102bd57600080fd5b506102d860048036038101906102d391906130d1565b610967565b005b3480156102e657600080fd5b5061030160048036038101906102fc919061313d565b610c2f565b005b34801561030f57600080fd5b50610318610c45565b604051610325919061326a565b60405180910390f35b34801561033a57600080fd5b506103556004803603810190610350919061333d565b610d04565b6040516103629190613428565b60405180910390f35b34801561037757600080fd5b50610392600480360381019061038d91906134e4565b610d1c565b60405161039f9190612a2b565b60405180910390f35b3480156103b457600080fd5b506103cf60048036038101906103ca9190613540565b610e65565b005b3480156103dd57600080fd5b506103f860048036038101906103f391906135a7565b6112fa565b005b34801561040657600080fd5b50610421600480360381019061041c919061360e565b61164b565b60405161042e9190612ae6565b60405180910390f35b34801561044357600080fd5b5061045e6004803603810190610459919061364e565b6116df565b60405161046b9190613078565b60405180910390f35b34801561048057600080fd5b5061049b6004803603810190610496919061367b565b611776565b6040516104a89190613428565b60405180910390f35b3480156104bd57600080fd5b506104d860048036038101906104d39190613715565b61178c565b005b600781815481106104ea57600080fd5b90600052602060002090600202016000915090508060000160009054906101000a900473ffffffffffffffffffffffffffffffffffffffff16908060010154905082565b60008073ffffffffffffffffffffffffffffffffffffffff168373ffffffffffffffffffffffffffffffffffffffff160361059e576040517f08c379a00000000000000000000000000000000000000000000000000000000081526004016105959061381e565b60405180910390fd5b60008083815260200190815260200160002060008473ffffffffffffffffffffffffffffffffffffffff1673ffffffffffffffffffffffffffffffffffffffff16815260200190815260200160002054905092915050565b60007f4e2312e0000000000000000000000000000000000000000000000000000000007bffffffffffffffffffffffffffffffffffffffffffffffffffffffff1916827bffffffffffffffffffffffffffffffffffffffffffffffffffffffff1916148061066957506106688261182d565b5b9050919050565b606060006006600084815260200190815260200160002080546106929061386d565b80601f01602080910402602001604051908101604052809291908181526020018280546106be9061386d565b801561070b5780601f106106e05761010080835404028352916020019161070b565b820191906000526020600020905b8154815290600101906020018083116106ee57829003601f168201915b505050505090506000815111156107255780915050610757565b60006107308461190f565b9050806040516020016107439190613972565b604051602081830303815290604052925050505b919050565b6107646119dd565b73ffffffffffffffffffffffffffffffffffffffff168573ffffffffffffffffffffffffffffffffffffffff1614806107aa57506107a9856107a46119dd565b61164b565b5b6107e9576040517f08c379a00000000000000000000000000000000000000000000000000000000081526004016107e090613a11565b60405180910390fd5b6107f685858585856119e5565b5050505050565b60608151835114610843576040517f08c379a000000000000000000000000000000000000000000000000000000000815260040161083a90613aa3565b60405180910390fd5b6000835167ffffffffffffffff8111156108605761085f612bb8565b5b60405190808252806020026020018201604052801561088e5781602001602082028036833780820191505090505b50905060005b8451811015610905576108db8582815181106108b3576108b2613ac3565b5b60200260200101518583815181106108ce576108cd613ac3565b5b602002602001015161052e565b8282815181106108ee576108ed613ac3565b5b602002602001018181525050806001019050610894565b508091505092915050565b6003602052816000526040600020602052806000526040600020600091509150508060000160009054906101000a900473ffffffffffffffffffffffffffffffffffffffff16908060010154908060020154905083565b6000600360008373ffffffffffffffffffffffffffffffffffffffff1673ffffffffffffffffffffffffffffffffffffffff16815260200190815260200160002060008481526020019081526020016000206040518060600160405290816000820160009054906101000a900473ffffffffffffffffffffffffffffffffffffffff1673ffffffffffffffffffffffffffffffffffffffff1673ffffffffffffffffffffffffffffffffffffffff1681526020016001820154815260200160028201548152505090508173ffffffffffffffffffffffffffffffffffffffff16816000015173ffffffffffffffffffffffffffffffffffffffff1614610aa2576040517f08c379a0000000000000000000000000000000000000000000000000000000008152600401610a9990613b3e565b60405180910390fd5b600073ffffffffffffffffffffffffffffffffffffffff16816000015173ffffffffffffffffffffffffffffffffffffffff1603610b15576040517f08c379a0000000000000000000000000000000000000000000000000000000008152600401610b0c90613baa565b60405180910390fd5b610b35308385846020015160405180602001604052806000815250611d00565b8060200151600460008473ffffffffffffffffffffffffffffffffffffffff1673ffffffffffffffffffffffffffffffffffffffff16815260200190815260200160002060008581526020019081526020016000206000828254610b999190613bf9565b92505081905550600360008373ffffffffffffffffffffffffffffffffffffffff1673ffffffffffffffffffffffffffffffffffffffff1681526020019081526020016000206000848152602001908152602001600020600080820160006101000a81549073ffffffffffffffffffffffffffffffffffffffff0219169055600182016000905560028201600090555050505050565b610c41610c3a6119dd565b8383611f9b565b5050565b60606007805480602002602001604051908101604052809291908181526020016000905b82821015610cfb57838290600052602060002090600202016040518060400160405290816000820160009054906101000a900473ffffffffffffffffffffffffffffffffffffffff1673ffffffffffffffffffffffffffffffffffffffff1673ffffffffffffffffffffffffffffffffffffffff16815260200160018201548152505081526020019060010190610c69565b50505050905090565b600063bc197c8160e01b905098975050505050505050565b6000806008549050610d408382600a60405180602001604052806000815250612107565b83600660008381526020019081526020016000209081610d609190613dd9565b50600a600460008573ffffffffffffffffffffffffffffffffffffffff1673ffffffffffffffffffffffffffffffffffffffff16815260200190815260200160002060008381526020019081526020016000208190555060086000815480929190610dca90613eab565b91905055508273ffffffffffffffffffffffffffffffffffffffff167f4ed70bf1f442f068544f1bf2d60cef2006b67f7ac341da37f38f38fa9af7999a8286604051610e17929190613ef3565b60405180910390a27f2f63f7322bb4ef985362895156b237df860116816f251416889ae9e6b7be1ef68382600a604051610e5393929190613f5e565b60405180910390a18091505092915050565b81610e70858561052e565b1015610eb1576040517f08c379a0000000000000000000000000000000000000000000000000000000008152600401610ea890613fe1565b60405180910390fd5b60008111610ef4576040517f08c379a0000000000000000000000000000000000000000000000000000000008152600401610eeb9061404d565b60405180910390fd5b600073ffffffffffffffffffffffffffffffffffffffff16600360008673ffffffffffffffffffffffffffffffffffffffff1673ffffffffffffffffffffffffffffffffffffffff168152602001908152602001600020600085815260200190815260200160002060000160009054906101000a900473ffffffffffffffffffffffffffffffffffffffff1673ffffffffffffffffffffffffffffffffffffffff1614610fd6576040517f08c379a0000000000000000000000000000000000000000000000000000000008152600401610fcd906140b9565b60405180910390fd5b60008211611019576040517f08c379a000000000000000000000000000000000000000000000000000000000815260040161101090614125565b60405180910390fd5b81600460008673ffffffffffffffffffffffffffffffffffffffff1673ffffffffffffffffffffffffffffffffffffffff16815260200190815260200160002060008581526020019081526020016000205410156110ac576040517f08c379a00000000000000000000000000000000000000000000000000000000081526004016110a390614191565b60405180910390fd5b6110c88430858560405180602001604052806000815250611d00565b81600460008673ffffffffffffffffffffffffffffffffffffffff1673ffffffffffffffffffffffffffffffffffffffff1681526020019081526020016000206000858152602001908152602001600020600082825461112891906141b1565b9250508190555060405180606001604052808573ffffffffffffffffffffffffffffffffffffffff16815260200183815260200182815250600360008673ffffffffffffffffffffffffffffffffffffffff1673ffffffffffffffffffffffffffffffffffffffff168152602001908152602001600020600085815260200190815260200160002060008201518160000160006101000a81548173ffffffffffffffffffffffffffffffffffffffff021916908373ffffffffffffffffffffffffffffffffffffffff1602179055506020820151816001015560408201518160020155905050600760405180604001604052808673ffffffffffffffffffffffffffffffffffffffff16815260200185815250908060018154018082558091505060019003906000526020600020906002020160009091909190915060008201518160000160006101000a81548173ffffffffffffffffffffffffffffffffffffffff021916908373ffffffffffffffffffffffffffffffffffffffff1602179055506020820151816001015550507fe646d238dd4aa57d3d6466d5b90712f03ffb5645f5b9eb8ba761723f7f85c08b848484846040516112ec94939291906141e5565b60405180910390a150505050565b6000600360008673ffffffffffffffffffffffffffffffffffffffff1673ffffffffffffffffffffffffffffffffffffffff16815260200190815260200160002060008481526020019081526020016000206040518060600160405290816000820160009054906101000a900473ffffffffffffffffffffffffffffffffffffffff1673ffffffffffffffffffffffffffffffffffffffff1673ffffffffffffffffffffffffffffffffffffffff16815260200160018201548152602001600282015481525050905081816040015114611409576040517f08c379a000000000000000000000000000000000000000000000000000000000815260040161140090614276565b60405180910390fd5b806000015173ffffffffffffffffffffffffffffffffffffffff168473ffffffffffffffffffffffffffffffffffffffff160361147b576040517f08c379a0000000000000000000000000000000000000000000000000000000008152600401611472906142e2565b60405180910390fd5b600073ffffffffffffffffffffffffffffffffffffffff16816000015173ffffffffffffffffffffffffffffffffffffffff16036114ee576040517f08c379a00000000000000000000000000000000000000000000000000000000081526004016114e590613baa565b60405180910390fd5b61150e308585846020015160405180602001604052806000815250611d00565b8060200151600460008673ffffffffffffffffffffffffffffffffffffffff1673ffffffffffffffffffffffffffffffffffffffff168152602001908152602001600020600085815260200190815260200160002060008282546115729190613bf9565b92505081905550600360008673ffffffffffffffffffffffffffffffffffffffff1673ffffffffffffffffffffffffffffffffffffffff1681526020019081526020016000206000848152602001908152602001600020600080820160006101000a81549073ffffffffffffffffffffffffffffffffffffffff02191690556001820160009055600282016000905550507fdde5e9e6435147cbe7818f93cf53470387a5de5d32a61084901d636e1e89e0c4858483602001518560405161163c94939291906141e5565b60405180910390a15050505050565b6000600160008473ffffffffffffffffffffffffffffffffffffffff1673ffffffffffffffffffffffffffffffffffffffff16815260200190815260200160002060008373ffffffffffffffffffffffffffffffffffffffff1673ffffffffffffffffffffffffffffffffffffffff16815260200190815260200160002060009054906101000a900460ff16905092915050565b6060600560008373ffffffffffffffffffffffffffffffffffffffff1673ffffffffffffffffffffffffffffffffffffffff16815260200190815260200160002080548060200260200160405190810160405280929190818152602001828054801561176a57602002820191906000526020600020905b815481526020019060010190808311611756575b50505050509050919050565b600063f23a6e6160e01b90509695505050505050565b6117946119dd565b73ffffffffffffffffffffffffffffffffffffffff168573ffffffffffffffffffffffffffffffffffffffff1614806117da57506117d9856117d46119dd565b61164b565b5b611819576040517f08c379a000000000000000000000000000000000000000000000000000000000815260040161181090613a11565b60405180910390fd5b6118268585858585611d00565b5050505050565b60007fd9b67a26000000000000000000000000000000000000000000000000000000007bffffffffffffffffffffffffffffffffffffffffffffffffffffffff1916827bffffffffffffffffffffffffffffffffffffffffffffffffffffffff191614806118f857507f0e89341c000000000000000000000000000000000000000000000000000000007bffffffffffffffffffffffffffffffffffffffffffffffffffffffff1916827bffffffffffffffffffffffffffffffffffffffffffffffffffffffff1916145b806119085750611907826122b7565b5b9050919050565b60606000600161191e84612321565b01905060008167ffffffffffffffff81111561193d5761193c612bb8565b5b6040519080825280601f01601f19166020018201604052801561196f5781602001600182028036833780820191505090505b509050600082602001820190505b6001156119d2578080600190039150507f3031323334353637383961626364656600000000000000000000000000000000600a86061a8153600a85816119c6576119c5614302565b5b0494506000850361197d575b819350505050919050565b600033905090565b8151835114611a29576040517f08c379a0000000000000000000000000000000000000000000000000000000008152600401611a20906143a3565b60405180910390fd5b600073ffffffffffffffffffffffffffffffffffffffff168473ffffffffffffffffffffffffffffffffffffffff1603611a98576040517f08c379a0000000000000000000000000000000000000000000000000000000008152600401611a8f90614435565b60405180910390fd5b6000611aa26119dd565b9050611ab2818787878787612474565b60005b8451811015611c5d576000858281518110611ad357611ad2613ac3565b5b602002602001015190506000858381518110611af257611af1613ac3565b5b60200260200101519050600080600084815260200190815260200160002060008b73ffffffffffffffffffffffffffffffffffffffff1673ffffffffffffffffffffffffffffffffffffffff16815260200190815260200160002054905081811015611b93576040517f08c379a0000000000000000000000000000000000000000000000000000000008152600401611b8a906144c7565b60405180910390fd5b81810360008085815260200190815260200160002060008c73ffffffffffffffffffffffffffffffffffffffff1673ffffffffffffffffffffffffffffffffffffffff168152602001908152602001600020819055508160008085815260200190815260200160002060008b73ffffffffffffffffffffffffffffffffffffffff1673ffffffffffffffffffffffffffffffffffffffff1681526020019081526020016000206000828254611c489190613bf9565b92505081905550505050806001019050611ab5565b508473ffffffffffffffffffffffffffffffffffffffff168673ffffffffffffffffffffffffffffffffffffffff168273ffffffffffffffffffffffffffffffffffffffff167f4a39dc06d4c0dbc64b70af90fd698a233a518aa5d07e595d983b8c0526c8f7fb8787604051611cd49291906144e7565b60405180910390a4611cea81878787878761247c565b611cf8818787878787612484565b505050505050565b600073ffffffffffffffffffffffffffffffffffffffff168473ffffffffffffffffffffffffffffffffffffffff1603611d6f576040517f08c379a0000000000000000000000000000000000000000000000000000000008152600401611d6690614435565b60405180910390fd5b6000611d796119dd565b90506000611d868561265b565b90506000611d938561265b565b9050611da3838989858589612474565b600080600088815260200190815260200160002060008a73ffffffffffffffffffffffffffffffffffffffff1673ffffffffffffffffffffffffffffffffffffffff16815260200190815260200160002054905085811015611e3a576040517f08c379a0000000000000000000000000000000000000000000000000000000008152600401611e31906144c7565b60405180910390fd5b85810360008089815260200190815260200160002060008b73ffffffffffffffffffffffffffffffffffffffff1673ffffffffffffffffffffffffffffffffffffffff168152602001908152602001600020819055508560008089815260200190815260200160002060008a73ffffffffffffffffffffffffffffffffffffffff1673ffffffffffffffffffffffffffffffffffffffff1681526020019081526020016000206000828254611eef9190613bf9565b925050819055508773ffffffffffffffffffffffffffffffffffffffff168973ffffffffffffffffffffffffffffffffffffffff168573ffffffffffffffffffffffffffffffffffffffff167fc3d58168c5ae7397731d063d5bbf3d657854427343f4c083240f7aacaa2d0f628a8a604051611f6c92919061451e565b60405180910390a4611f82848a8a86868a61247c565b611f90848a8a8a8a8a6126d5565b505050505050505050565b8173ffffffffffffffffffffffffffffffffffffffff168373ffffffffffffffffffffffffffffffffffffffff1603612009576040517f08c379a0000000000000000000000000000000000000000000000000000000008152600401612000906145b9565b60405180910390fd5b80600160008573ffffffffffffffffffffffffffffffffffffffff1673ffffffffffffffffffffffffffffffffffffffff16815260200190815260200160002060008473ffffffffffffffffffffffffffffffffffffffff1673ffffffffffffffffffffffffffffffffffffffff16815260200190815260200160002060006101000a81548160ff0219169083151502179055508173ffffffffffffffffffffffffffffffffffffffff168373ffffffffffffffffffffffffffffffffffffffff167f17307eab39ab6107e8899845ad3d59bd9653f200f220920489ca2b5937696c31836040516120fa9190612ae6565b60405180910390a3505050565b600073ffffffffffffffffffffffffffffffffffffffff168473ffffffffffffffffffffffffffffffffffffffff1603612176576040517f08c379a000000000000000000000000000000000000000000000000000000000815260040161216d9061464b565b60405180910390fd5b60006121806119dd565b9050600061218d8561265b565b9050600061219a8561265b565b90506121ab83600089858589612474565b8460008088815260200190815260200160002060008973ffffffffffffffffffffffffffffffffffffffff1673ffffffffffffffffffffffffffffffffffffffff168152602001908152602001600020600082825461220a9190613bf9565b925050819055508673ffffffffffffffffffffffffffffffffffffffff16600073ffffffffffffffffffffffffffffffffffffffff168473ffffffffffffffffffffffffffffffffffffffff167fc3d58168c5ae7397731d063d5bbf3d657854427343f4c083240f7aacaa2d0f62898960405161228892919061451e565b60405180910390a461229f8360008985858961247c565b6122ae836000898989896126d5565b50505050505050565b60007f01ffc9a7000000000000000000000000000000000000000000000000000000007bffffffffffffffffffffffffffffffffffffffffffffffffffffffff1916827bffffffffffffffffffffffffffffffffffffffffffffffffffffffff1916149050919050565b600080600090507a184f03e93ff9f4daa797ed6e38ed64bf6a1f010000000000000000831061237f577a184f03e93ff9f4daa797ed6e38ed64bf6a1f010000000000000000838161237557612374614302565b5b0492506040810190505b6d04ee2d6d415b85acef810000000083106123bc576d04ee2d6d415b85acef810000000083816123b2576123b1614302565b5b0492506020810190505b662386f26fc1000083106123eb57662386f26fc1000083816123e1576123e0614302565b5b0492506010810190505b6305f5e1008310612414576305f5e100838161240a57612409614302565b5b0492506008810190505b612710831061243957612710838161242f5761242e614302565b5b0492506004810190505b6064831061245c576064838161245257612451614302565b5b0492506002810190505b600a831061246b576001810190505b80915050919050565b505050505050565b505050505050565b6124a38473ffffffffffffffffffffffffffffffffffffffff166128ac565b15612653578373ffffffffffffffffffffffffffffffffffffffff1663bc197c8187878686866040518663ffffffff1660e01b81526004016124e99594939291906146c0565b6020604051808303816000875af192505050801561252557506040513d601f19601f82011682018060405250810190612522919061473d565b60015b6125ca57612531614777565b806308c379a00361258d5750612545614799565b80612550575061258f565b806040517f08c379a00000000000000000000000000000000000000000000000000000000081526004016125849190612b91565b60405180910390fd5b505b6040517f08c379a00000000000000000000000000000000000000000000000000000000081526004016125c19061489b565b60405180910390fd5b63bc197c8160e01b7bffffffffffffffffffffffffffffffffffffffffffffffffffffffff1916817bffffffffffffffffffffffffffffffffffffffffffffffffffffffff191614612651576040517f08c379a00000000000000000000000000000000000000000000000000000000081526004016126489061492d565b60405180910390fd5b505b505050505050565b60606000600167ffffffffffffffff81111561267a57612679612bb8565b5b6040519080825280602002602001820160405280156126a85781602001602082028036833780820191505090505b50905082816000815181106126c0576126bf613ac3565b5b60200260200101818152505080915050919050565b6126f48473ffffffffffffffffffffffffffffffffffffffff166128ac565b156128a4578373ffffffffffffffffffffffffffffffffffffffff1663f23a6e6187878686866040518663ffffffff1660e01b815260040161273a95949392919061494d565b6020604051808303816000875af192505050801561277657506040513d601f19601f82011682018060405250810190612773919061473d565b60015b61281b57612782614777565b806308c379a0036127de5750612796614799565b806127a157506127e0565b806040517f08c379a00000000000000000000000000000000000000000000000000000000081526004016127d59190612b91565b60405180910390fd5b505b6040517f08c379a00000000000000000000000000000000000000000000000000000000081526004016128129061489b565b60405180910390fd5b63f23a6e6160e01b7bffffffffffffffffffffffffffffffffffffffffffffffffffffffff1916817bffffffffffffffffffffffffffffffffffffffffffffffffffffffff1916146128a2576040517f08c379a00000000000000000000000000000000000000000000000000000000081526004016128999061492d565b60405180910390fd5b505b505050505050565b6000808273ffffffffffffffffffffffffffffffffffffffff163b119050919050565b6000604051905090565b600080fd5b600080fd5b6000819050919050565b6128f6816128e3565b811461290157600080fd5b50565b600081359050612913816128ed565b92915050565b60006020828403121561292f5761292e6128d9565b5b600061293d84828501612904565b91505092915050565b600073ffffffffffffffffffffffffffffffffffffffff82169050919050565b600061297182612946565b9050919050565b61298181612966565b82525050565b612990816128e3565b82525050565b60006040820190506129ab6000830185612978565b6129b86020830184612987565b9392505050565b6129c881612966565b81146129d357600080fd5b50565b6000813590506129e5816129bf565b92915050565b60008060408385031215612a0257612a016128d9565b5b6000612a10858286016129d6565b9250506020612a2185828601612904565b9150509250929050565b6000602082019050612a406000830184612987565b92915050565b60007fffffffff0000000000000000000000000000000000000000000000000000000082169050919050565b612a7b81612a46565b8114612a8657600080fd5b50565b600081359050612a9881612a72565b92915050565b600060208284031215612ab457612ab36128d9565b5b6000612ac284828501612a89565b91505092915050565b60008115159050919050565b612ae081612acb565b82525050565b6000602082019050612afb6000830184612ad7565b92915050565b600081519050919050565b600082825260208201905092915050565b60005b83811015612b3b578082015181840152602081019050612b20565b60008484015250505050565b6000601f19601f8301169050919050565b6000612b6382612b01565b612b6d8185612b0c565b9350612b7d818560208601612b1d565b612b8681612b47565b840191505092915050565b60006020820190508181036000830152612bab8184612b58565b905092915050565b600080fd5b7f4e487b7100000000000000000000000000000000000000000000000000000000600052604160045260246000fd5b612bf082612b47565b810181811067ffffffffffffffff82111715612c0f57612c0e612bb8565b5b80604052505050565b6000612c226128cf565b9050612c2e8282612be7565b919050565b600067ffffffffffffffff821115612c4e57612c4d612bb8565b5b602082029050602081019050919050565b600080fd5b6000612c77612c7284612c33565b612c18565b90508083825260208201905060208402830185811115612c9a57612c99612c5f565b5b835b81811015612cc35780612caf8882612904565b845260208401935050602081019050612c9c565b5050509392505050565b600082601f830112612ce257612ce1612bb3565b5b8135612cf2848260208601612c64565b91505092915050565b600080fd5b600067ffffffffffffffff821115612d1b57612d1a612bb8565b5b612d2482612b47565b9050602081019050919050565b82818337600083830152505050565b6000612d53612d4e84612d00565b612c18565b905082815260208101848484011115612d6f57612d6e612cfb565b5b612d7a848285612d31565b509392505050565b600082601f830112612d9757612d96612bb3565b5b8135612da7848260208601612d40565b91505092915050565b600080600080600060a08688031215612dcc57612dcb6128d9565b5b6000612dda888289016129d6565b9550506020612deb888289016129d6565b945050604086013567ffffffffffffffff811115612e0c57612e0b6128de565b5b612e1888828901612ccd565b935050606086013567ffffffffffffffff811115612e3957612e386128de565b5b612e4588828901612ccd565b925050608086013567ffffffffffffffff811115612e6657612e656128de565b5b612e7288828901612d82565b9150509295509295909350565b600067ffffffffffffffff821115612e9a57612e99612bb8565b5b602082029050602081019050919050565b6000612ebe612eb984612e7f565b612c18565b90508083825260208201905060208402830185811115612ee157612ee0612c5f565b5b835b81811015612f0a5780612ef688826129d6565b845260208401935050602081019050612ee3565b5050509392505050565b600082601f830112612f2957612f28612bb3565b5b8135612f39848260208601612eab565b91505092915050565b60008060408385031215612f5957612f586128d9565b5b600083013567ffffffffffffffff811115612f7757612f766128de565b5b612f8385828601612f14565b925050602083013567ffffffffffffffff811115612fa457612fa36128de565b5b612fb085828601612ccd565b9150509250929050565b600081519050919050565b600082825260208201905092915050565b6000819050602082019050919050565b612fef816128e3565b82525050565b60006130018383612fe6565b60208301905092915050565b6000602082019050919050565b600061302582612fba565b61302f8185612fc5565b935061303a83612fd6565b8060005b8381101561306b5781516130528882612ff5565b975061305d8361300d565b92505060018101905061303e565b5085935050505092915050565b60006020820190508181036000830152613092818461301a565b905092915050565b60006060820190506130af6000830186612978565b6130bc6020830185612987565b6130c96040830184612987565b949350505050565b600080604083850312156130e8576130e76128d9565b5b60006130f685828601612904565b9250506020613107858286016129d6565b9150509250929050565b61311a81612acb565b811461312557600080fd5b50565b60008135905061313781613111565b92915050565b60008060408385031215613154576131536128d9565b5b6000613162858286016129d6565b925050602061317385828601613128565b9150509250929050565b600081519050919050565b600082825260208201905092915050565b6000819050602082019050919050565b6131b281612966565b82525050565b6040820160008201516131ce60008501826131a9565b5060208201516131e16020850182612fe6565b50505050565b60006131f383836131b8565b60408301905092915050565b6000602082019050919050565b60006132178261317d565b6132218185613188565b935061322c83613199565b8060005b8381101561325d57815161324488826131e7565b975061324f836131ff565b925050600181019050613230565b5085935050505092915050565b60006020820190508181036000830152613284818461320c565b905092915050565b600080fd5b60008083601f8401126132a7576132a6612bb3565b5b8235905067ffffffffffffffff8111156132c4576132c361328c565b5b6020830191508360208202830111156132e0576132df612c5f565b5b9250929050565b60008083601f8401126132fd576132fc612bb3565b5b8235905067ffffffffffffffff81111561331a5761331961328c565b5b60208301915083600182028301111561333657613335612c5f565b5b9250929050565b60008060008060008060008060a0898b03121561335d5761335c6128d9565b5b600061336b8b828c016129d6565b985050602061337c8b828c016129d6565b975050604089013567ffffffffffffffff81111561339d5761339c6128de565b5b6133a98b828c01613291565b9650965050606089013567ffffffffffffffff8111156133cc576133cb6128de565b5b6133d88b828c01613291565b9450945050608089013567ffffffffffffffff8111156133fb576133fa6128de565b5b6134078b828c016132e7565b92509250509295985092959890939650565b61342281612a46565b82525050565b600060208201905061343d6000830184613419565b92915050565b600067ffffffffffffffff82111561345e5761345d612bb8565b5b61346782612b47565b9050602081019050919050565b600061348761348284613443565b612c18565b9050828152602081018484840111156134a3576134a2612cfb565b5b6134ae848285612d31565b509392505050565b600082601f8301126134cb576134ca612bb3565b5b81356134db848260208601613474565b91505092915050565b600080604083850312156134fb576134fa6128d9565b5b600083013567ffffffffffffffff811115613519576135186128de565b5b613525858286016134b6565b9250506020613536858286016129d6565b9150509250929050565b6000806000806080858703121561355a576135596128d9565b5b6000613568878288016129d6565b945050602061357987828801612904565b935050604061358a87828801612904565b925050606061359b87828801612904565b91505092959194509250565b600080600080608085870312156135c1576135c06128d9565b5b60006135cf878288016129d6565b94505060206135e0878288016129d6565b93505060406135f187828801612904565b925050606061360287828801612904565b91505092959194509250565b60008060408385031215613625576136246128d9565b5b6000613633858286016129d6565b9250506020613644858286016129d6565b9150509250929050565b600060208284031215613664576136636128d9565b5b6000613672848285016129d6565b91505092915050565b60008060008060008060a08789031215613698576136976128d9565b5b60006136a689828a016129d6565b96505060206136b789828a016129d6565b95505060406136c889828a01612904565b94505060606136d989828a01612904565b935050608087013567ffffffffffffffff8111156136fa576136f96128de565b5b61370689828a016132e7565b92509250509295509295509295565b600080600080600060a08688031215613731576137306128d9565b5b600061373f888289016129d6565b9550506020613750888289016129d6565b945050604061376188828901612904565b935050606061377288828901612904565b925050608086013567ffffffffffffffff811115613793576137926128de565b5b61379f88828901612d82565b9150509295509295909350565b7f455243313135353a2061646472657373207a65726f206973206e6f742061207660008201527f616c6964206f776e657200000000000000000000000000000000000000000000602082015250565b6000613808602a83612b0c565b9150613813826137ac565b604082019050919050565b60006020820190508181036000830152613837816137fb565b9050919050565b7f4e487b7100000000000000000000000000000000000000000000000000000000600052602260045260246000fd5b6000600282049050600182168061388557607f821691505b6020821081036138985761389761383e565b5b50919050565b600081905092915050565b7f68747470733a2f2f6d7970726f6a6563742e636f6d2f6d657461646174612f00600082015250565b60006138df601f8361389e565b91506138ea826138a9565b601f82019050919050565b600061390082612b01565b61390a818561389e565b935061391a818560208601612b1d565b80840191505092915050565b7f2e6a736f6e000000000000000000000000000000000000000000000000000000600082015250565b600061395c60058361389e565b915061396782613926565b600582019050919050565b600061397d826138d2565b915061398982846138f5565b91506139948261394f565b915081905092915050565b7f455243313135353a2063616c6c6572206973206e6f7420746f6b656e206f776e60008201527f6572206f7220617070726f766564000000000000000000000000000000000000602082015250565b60006139fb602e83612b0c565b9150613a068261399f565b604082019050919050565b60006020820190508181036000830152613a2a816139ee565b9050919050565b7f455243313135353a206163636f756e747320616e6420696473206c656e67746860008201527f206d69736d617463680000000000000000000000000000000000000000000000602082015250565b6000613a8d602983612b0c565b9150613a9882613a31565b604082019050919050565b60006020820190508181036000830152613abc81613a80565b9050919050565b7f4e487b7100000000000000000000000000000000000000000000000000000000600052603260045260246000fd5b7f4f6e6c792073656c6c65722063616e2063616e63656c00000000000000000000600082015250565b6000613b28601683612b0c565b9150613b3382613af2565b602082019050919050565b60006020820190508181036000830152613b5781613b1b565b9050919050565b7f4e4654206e6f7420666f722073616c6500000000000000000000000000000000600082015250565b6000613b94601083612b0c565b9150613b9f82613b5e565b602082019050919050565b60006020820190508181036000830152613bc381613b87565b9050919050565b7f4e487b7100000000000000000000000000000000000000000000000000000000600052601160045260246000fd5b6000613c04826128e3565b9150613c0f836128e3565b9250828201905080821115613c2757613c26613bca565b5b92915050565b60008190508160005260206000209050919050565b60006020601f8301049050919050565b600082821b905092915050565b600060088302613c8f7fffffffffffffffffffffffffffffffffffffffffffffffffffffffffffffffff82613c52565b613c998683613c52565b95508019841693508086168417925050509392505050565b6000819050919050565b6000613cd6613cd1613ccc846128e3565b613cb1565b6128e3565b9050919050565b6000819050919050565b613cf083613cbb565b613d04613cfc82613cdd565b848454613c5f565b825550505050565b600090565b613d19613d0c565b613d24818484613ce7565b505050565b5b81811015613d4857613d3d600082613d11565b600181019050613d2a565b5050565b601f821115613d8d57613d5e81613c2d565b613d6784613c42565b81016020851015613d76578190505b613d8a613d8285613c42565b830182613d29565b50505b505050565b600082821c905092915050565b6000613db060001984600802613d92565b1980831691505092915050565b6000613dc98383613d9f565b9150826002028217905092915050565b613de282612b01565b67ffffffffffffffff811115613dfb57613dfa612bb8565b5b613e05825461386d565b613e10828285613d4c565b600060209050601f831160018114613e435760008415613e31578287015190505b613e3b8582613dbd565b865550613ea3565b601f198416613e5186613c2d565b60005b82811015613e7957848901518255600182019150602085019450602081019050613e54565b86831015613e965784890151613e92601f891682613d9f565b8355505b6001600288020188555050505b505050505050565b6000613eb6826128e3565b91507fffffffffffffffffffffffffffffffffffffffffffffffffffffffffffffffff8203613ee857613ee7613bca565b5b600182019050919050565b6000604082019050613f086000830185612987565b8181036020830152613f1a8184612b58565b90509392505050565b6000819050919050565b6000613f48613f43613f3e84613f23565b613cb1565b6128e3565b9050919050565b613f5881613f2d565b82525050565b6000606082019050613f736000830186612978565b613f806020830185612987565b613f8d6040830184613f4f565b949350505050565b7f496e73756666696369656e7420746f6b656e7300000000000000000000000000600082015250565b6000613fcb601383612b0c565b9150613fd682613f95565b602082019050919050565b60006020820190508181036000830152613ffa81613fbe565b9050919050565b7f5072696365206d7573742062652067726561746572207468616e203000000000600082015250565b6000614037601c83612b0c565b915061404282614001565b602082019050919050565b600060208201905081810360008301526140668161402a565b9050919050565b7f4e465420616c726561647920666f722073616c65000000000000000000000000600082015250565b60006140a3601483612b0c565b91506140ae8261406d565b602082019050919050565b600060208201905081810360008301526140d281614096565b9050919050565b7f4d7573742073656c6c206174206c65617374203120746f6b656e000000000000600082015250565b600061410f601a83612b0c565b915061411a826140d9565b602082019050919050565b6000602082019050818103600083015261413e81614102565b9050919050565b7f4e6f7420656e6f75676820746f6b656e73000000000000000000000000000000600082015250565b600061417b601183612b0c565b915061418682614145565b602082019050919050565b600060208201905081810360008301526141aa8161416e565b9050919050565b60006141bc826128e3565b91506141c7836128e3565b92508282039050818111156141df576141de613bca565b5b92915050565b60006080820190506141fa6000830187612978565b6142076020830186612987565b6142146040830185612987565b6142216060830184612987565b95945050505050565b7f496e636f72726563742070726963650000000000000000000000000000000000600082015250565b6000614260600f83612b0c565b915061426b8261422a565b602082019050919050565b6000602082019050818103600083015261428f81614253565b9050919050565b7f43616e6e6f742062757920796f7572206f776e204e4654000000000000000000600082015250565b60006142cc601783612b0c565b91506142d782614296565b602082019050919050565b600060208201905081810360008301526142fb816142bf565b9050919050565b7f4e487b7100000000000000000000000000000000000000000000000000000000600052601260045260246000fd5b7f455243313135353a2069647320616e6420616d6f756e7473206c656e6774682060008201527f6d69736d61746368000000000000000000000000000000000000000000000000602082015250565b600061438d602883612b0c565b915061439882614331565b604082019050919050565b600060208201905081810360008301526143bc81614380565b9050919050565b7f455243313135353a207472616e7366657220746f20746865207a65726f20616460008201527f6472657373000000000000000000000000000000000000000000000000000000602082015250565b600061441f602583612b0c565b915061442a826143c3565b604082019050919050565b6000602082019050818103600083015261444e81614412565b9050919050565b7f455243313135353a20696e73756666696369656e742062616c616e636520666f60008201527f72207472616e7366657200000000000000000000000000000000000000000000602082015250565b60006144b1602a83612b0c565b91506144bc82614455565b604082019050919050565b600060208201905081810360008301526144e0816144a4565b9050919050565b60006040820190508181036000830152614501818561301a565b90508181036020830152614515818461301a565b90509392505050565b60006040820190506145336000830185612987565b6145406020830184612987565b9392505050565b7f455243313135353a2073657474696e6720617070726f76616c2073746174757360008201527f20666f722073656c660000000000000000000000000000000000000000000000602082015250565b60006145a3602983612b0c565b91506145ae82614547565b604082019050919050565b600060208201905081810360008301526145d281614596565b9050919050565b7f455243313135353a206d696e7420746f20746865207a65726f2061646472657360008201527f7300000000000000000000000000000000000000000000000000000000000000602082015250565b6000614635602183612b0c565b9150614640826145d9565b604082019050919050565b6000602082019050818103600083015261466481614628565b9050919050565b600081519050919050565b600082825260208201905092915050565b60006146928261466b565b61469c8185614676565b93506146ac818560208601612b1d565b6146b581612b47565b840191505092915050565b600060a0820190506146d56000830188612978565b6146e26020830187612978565b81810360408301526146f4818661301a565b90508181036060830152614708818561301a565b9050818103608083015261471c8184614687565b90509695505050505050565b60008151905061473781612a72565b92915050565b600060208284031215614753576147526128d9565b5b600061476184828501614728565b91505092915050565b60008160e01c9050919050565b600060033d11156147965760046000803e61479360005161476a565b90505b90565b600060443d10614826576147ab6128cf565b60043d036004823e80513d602482011167ffffffffffffffff821117156147d3575050614826565b808201805167ffffffffffffffff8111156147f15750505050614826565b80602083010160043d03850181111561480e575050505050614826565b61481d82602001850186612be7565b82955050505050505b90565b7f455243313135353a207472616e7366657220746f206e6f6e2d4552433131353560008201527f526563656976657220696d706c656d656e746572000000000000000000000000602082015250565b6000614885603483612b0c565b915061489082614829565b604082019050919050565b600060208201905081810360008301526148b481614878565b9050919050565b7f455243313135353a204552433131353552656365697665722072656a6563746560008201527f6420746f6b656e73000000000000000000000000000000000000000000000000602082015250565b6000614917602883612b0c565b9150614922826148bb565b604082019050919050565b600060208201905081810360008301526149468161490a565b9050919050565b600060a0820190506149626000830188612978565b61496f6020830187612978565b61497c6040830186612987565b6149896060830185612987565b818103608083015261499b8184614687565b9050969550505050505056fea2646970667358221220193c0d27dad21ed00bdb33f7a1a8f87d1aa83dbe88f4739262c68bab3a47408b64736f6c634300081e003368747470733a2f2f6d7970726f6a6563742e636f6d2f6d657461646174612f7b69647d2e6a736f6e",
  "linkReferences": {},
  "deployedLinkReferences": {}
}