{
  "_format": "hh-sol-artifact-1",
  "contractName": "EntryPoint",
  "sourceName": "contracts/Entrypoint.sol",
  "abi": [
    {
      "anonymous": false,
      "inputs": [
        {
          "indexed": true,
          "internalType": "address",
          "name": "sender",
          "type": "address"
        },
        {
          "indexed": false,
          "internalType": "bool",
          "name": "success",
          "type": "bool"
        }
      ],
      "name": "UserOpCompleted",
      "type": "event"
    },
    {
      "inputs": [
        {
          "components": [
            {
              "internalType": "address",
              "name": "sender",
              "type": "address"
            },
            {
              "internalType": "uint256",
              "name": "nonce",
              "type": "uint256"
            },
            {
              "internalType": "bytes",
              "name": "initCode",
              "type": "bytes"
            },
            {
              "internalType": "bytes",
              "name": "callData",
              "type": "bytes"
            },
            {
              "internalType": "uint256",
              "name": "callGasLimit",
              "type": "uint256"
            },
            {
              "internalType": "uint256",
              "name": "verificationGasLimit",
              "type": "uint256"
            },
            {
              "internalType": "uint256",
              "name": "preVerificationGas",
              "type": "uint256"
            },
            {
              "internalType": "uint256",
              "name": "maxFeePerGas",
              "type": "uint256"
            },
            {
              "internalType": "uint256",
              "name": "maxPriorityFeePerGas",
              "type": "uint256"
            },
            {
              "internalType": "bytes",
              "name": "paymasterAndData",
              "type": "bytes"
            },
            {
              "internalType": "bytes",
              "name": "signature",
              "type": "bytes"
            }
          ],
          "internalType": "struct EntryPoint.UserOperation[]",
          "name": "ops",
          "type": "tuple[]"
        }
      ],
      "name": "handleOps",
      "outputs": [],
      "stateMutability": "nonpayable",
      "type": "function"
    },
    {
      "inputs": [
        {
          "internalType": "address",
          "name": "",
          "type": "address"
        }
      ],
      "name": "nonces",
      "outputs": [
        {
          "internalType": "uint256",
          "name": "",
          "type": "uint256"
        }
      ],
      "stateMutability": "view",
      "type": "function"
    }
  ],
  "bytecode": "0x6080604052348015600f57600080fd5b50610f848061001f6000396000f3fe608060405234801561001057600080fd5b50600436106100365760003560e01c8063532d3ac91461003b5780637ecebe0014610057575b600080fd5b610055600480360381019061005091906107a1565b610087565b005b610071600480360381019061006c919061084c565b6105e5565b60405161007e9190610892565b60405180910390f35b60005b828290508110156105e057368383838181106100a9576100a86108ad565b5b90506020028101906100bb91906108eb565b90506000808260000160208101906100d3919061084c565b73ffffffffffffffffffffffffffffffffffffffff1673ffffffffffffffffffffffffffffffffffffffff16815260200190815260200160002054816020013514610153576040517f08c379a000000000000000000000000000000000000000000000000000000000815260040161014a90610971565b60405180910390fd5b6014818061012001906101669190610991565b9050106102fa576000818061012001906101809190610991565b9061018b9190610a38565b60601c905060008260e0013583608001356101a69190610ac6565b905060008273ffffffffffffffffffffffffffffffffffffffff168460000160208101906101d4919061084c565b836040516024016101e6929190610b17565b6040516020818303038152906040527f8acfa3c5000000000000000000000000000000000000000000000000000000007bffffffffffffffffffffffffffffffffffffffffffffffffffffffff19166020820180517bffffffffffffffffffffffffffffffffffffffffffffffffffffffff83818316178352505050506040516102709190610bb1565b6000604051808303816000865af19150503d80600081146102ad576040519150601f19603f3d011682016040523d82523d6000602084013e6102b2565b606091505b50509050806102f6576040517f08c379a00000000000000000000000000000000000000000000000000000000081526004016102ed90610c14565b60405180910390fd5b5050505b6000610305826105fd565b9050600061031282610702565b90506000836000016020810190610329919061084c565b73ffffffffffffffffffffffffffffffffffffffff1682858061014001906103519190610991565b60405160240161036393929190610cab565b6040516020818303038152906040527f1626ba7e000000000000000000000000000000000000000000000000000000007bffffffffffffffffffffffffffffffffffffffffffffffffffffffff19166020820180517bffffffffffffffffffffffffffffffffffffffffffffffffffffffff83818316178352505050506040516103ed9190610bb1565b6000604051808303816000865af19150503d806000811461042a576040519150601f19603f3d011682016040523d82523d6000602084013e61042f565b606091505b5050905080610473576040517f08c379a000000000000000000000000000000000000000000000000000000000815260040161046a90610d29565b60405180910390fd5b6000846000016020810190610488919061084c565b73ffffffffffffffffffffffffffffffffffffffff1685608001358680606001906104b39190610991565b6040516104c1929190610d6e565b60006040518083038160008787f1925050503d80600081146104ff576040519150601f19603f3d011682016040523d82523d6000602084013e610504565b606091505b5050905084600001602081019061051b919061084c565b73ffffffffffffffffffffffffffffffffffffffff167f0e9e42c0a30fe39e0b7d126b73521fbb5ad3ac270922a75a9c9e72217217584f826040516105609190610da2565b60405180910390a260008086600001602081019061057e919061084c565b73ffffffffffffffffffffffffffffffffffffffff1673ffffffffffffffffffffffffffffffffffffffff16815260200190815260200160002060008154809291906105c990610dbd565b91905055505050505050808060010191505061008a565b505050565b60006020528060005260406000206000915090505481565b6000816000016020810190610612919061084c565b82602001358380604001906106279190610991565b604051610635929190610d6e565b604051809103902084806060019061064d9190610991565b60405161065b929190610d6e565b604051809103902085608001358660a001358760c001358860e001358961010001358a80610120019061068e9190610991565b60405161069c929190610d6e565b60405180910390208b8061014001906106b59190610991565b6040516106c3929190610d6e565b60405180910390206040516020016106e59b9a99989796959493929190610e05565b604051602081830303815290604052805190602001209050919050565b6000816040516020016107159190610f28565b604051602081830303815290604052805190602001209050919050565b600080fd5b600080fd5b600080fd5b600080fd5b600080fd5b60008083601f8401126107615761076061073c565b5b8235905067ffffffffffffffff81111561077e5761077d610741565b5b60208301915083602082028301111561079a57610799610746565b5b9250929050565b600080602083850312156107b8576107b7610732565b5b600083013567ffffffffffffffff8111156107d6576107d5610737565b5b6107e28582860161074b565b92509250509250929050565b600073ffffffffffffffffffffffffffffffffffffffff82169050919050565b6000610819826107ee565b9050919050565b6108298161080e565b811461083457600080fd5b50565b60008135905061084681610820565b92915050565b60006020828403121561086257610861610732565b5b600061087084828501610837565b91505092915050565b6000819050919050565b61088c81610879565b82525050565b60006020820190506108a76000830184610883565b92915050565b7f4e487b7100000000000000000000000000000000000000000000000000000000600052603260045260246000fd5b600080fd5b600080fd5b600080fd5b60008235600161016003833603038112610908576109076108dc565b5b80830191505092915050565b600082825260208201905092915050565b7f6e6f6e6365206572726f72000000000000000000000000000000000000000000600082015250565b600061095b600b83610914565b915061096682610925565b602082019050919050565b6000602082019050818103600083015261098a8161094e565b9050919050565b600080833560016020038436030381126109ae576109ad6108dc565b5b80840192508235915067ffffffffffffffff8211156109d0576109cf6108e1565b5b6020830192506001820236038313156109ec576109eb6108e6565b5b509250929050565b600082905092915050565b60007fffffffffffffffffffffffffffffffffffffffff00000000000000000000000082169050919050565b600082821b905092915050565b6000610a4483836109f4565b82610a4f81356109ff565b92506014821015610a8f57610a8a7fffffffffffffffffffffffffffffffffffffffff00000000000000000000000083601403600802610a2b565b831692505b505092915050565b7f4e487b7100000000000000000000000000000000000000000000000000000000600052601160045260246000fd5b6000610ad182610879565b9150610adc83610879565b9250828202610aea81610879565b91508282048414831517610b0157610b00610a97565b5b5092915050565b610b118161080e565b82525050565b6000604082019050610b2c6000830185610b08565b610b396020830184610883565b9392505050565b600081519050919050565b600081905092915050565b60005b83811015610b74578082015181840152602081019050610b59565b60008484015250505050565b6000610b8b82610b40565b610b958185610b4b565b9350610ba5818560208601610b56565b80840191505092915050565b6000610bbd8284610b80565b915081905092915050565b7f6572726f722076616c69646174655061796d6173746572557365724f70000000600082015250565b6000610bfe601d83610914565b9150610c0982610bc8565b602082019050919050565b60006020820190508181036000830152610c2d81610bf1565b9050919050565b6000819050919050565b610c4781610c34565b82525050565b600082825260208201905092915050565b82818337600083830152505050565b6000601f19601f8301169050919050565b6000610c8a8385610c4d565b9350610c97838584610c5e565b610ca083610c6d565b840190509392505050565b6000604082019050610cc06000830186610c3e565b8181036020830152610cd3818486610c7e565b9050949350505050565b7f697356616c69645369676e6174757265204572726f7200000000000000000000600082015250565b6000610d13601683610914565b9150610d1e82610cdd565b602082019050919050565b60006020820190508181036000830152610d4281610d06565b9050919050565b6000610d558385610b4b565b9350610d62838584610c5e565b82840190509392505050565b6000610d7b828486610d49565b91508190509392505050565b60008115159050919050565b610d9c81610d87565b82525050565b6000602082019050610db76000830184610d93565b92915050565b6000610dc882610879565b91507fffffffffffffffffffffffffffffffffffffffffffffffffffffffffffffffff8203610dfa57610df9610a97565b5b600182019050919050565b600061016082019050610e1b600083018e610b08565b610e28602083018d610883565b610e35604083018c610c3e565b610e42606083018b610c3e565b610e4f608083018a610883565b610e5c60a0830189610883565b610e6960c0830188610883565b610e7660e0830187610883565b610e84610100830186610883565b610e92610120830185610c3e565b610ea0610140830184610c3e565b9c9b505050505050505050505050565b600081905092915050565b7f19457468657265756d205369676e6564204d6573736167653a0a000000000000600082015250565b6000610ef1601a83610eb0565b9150610efc82610ebb565b601a82019050919050565b6000819050919050565b610f22610f1d82610c34565b610f07565b82525050565b6000610f3382610ee4565b9150610f3f8284610f11565b6020820191508190509291505056fea26469706673582212205648005eadd912faaf059a937dd351d2b61ecde02d5c5622b00008be9a0ab39e64736f6c634300081e0033",
  "linkReferences": {},
  "deployedLinkReferences": {}
}