{
	"contracts/EntryPoint.sol": {
		"EntryPoint": {
			"abi": [
				{
					"anonymous": false,
					"inputs": [
						{
							"indexed": true,
							"internalType": "address",
							"name": "sender",
							"type": "address"
						},
						{
							"indexed": false,
							"internalType": "bool",
							"name": "success",
							"type": "bool"
						}
					],
					"name": "UserOperationHandled",
					"type": "event"
				},
				{
					"inputs": [
						{
							"components": [
								{
									"internalType": "address",
									"name": "sender",
									"type": "address"
								},
								{
									"internalType": "uint256",
									"name": "nonce",
									"type": "uint256"
								},
								{
									"internalType": "bytes",
									"name": "initCode",
									"type": "bytes"
								},
								{
									"internalType": "bytes",
									"name": "callData",
									"type": "bytes"
								},
								{
									"internalType": "uint256",
									"name": "callGasLimit",
									"type": "uint256"
								},
								{
									"internalType": "uint256",
									"name": "verificationGasLimit",
									"type": "uint256"
								},
								{
									"internalType": "uint256",
									"name": "preverificationGas",
									"type": "uint256"
								},
								{
									"internalType": "uint256",
									"name": "maxFeePerGas",
									"type": "uint256"
								},
								{
									"internalType": "uint256",
									"name": "maxPrioityFeePerGas",
									"type": "uint256"
								},
								{
									"internalType": "bytes",
									"name": "paymasterAndData",
									"type": "bytes"
								},
								{
									"internalType": "bytes",
									"name": "signature",
									"type": "bytes"
								}
							],
							"internalType": "struct EntryPoint.UserOPeration[]",
							"name": "ops",
							"type": "tuple[]"
						}
					],
					"name": "handleOps",
					"outputs": [],
					"stateMutability": "nonpayable",
					"type": "function"
				},
				{
					"inputs": [
						{
							"internalType": "address",
							"name": "",
							"type": "address"
						}
					],
					"name": "nonces",
					"outputs": [
						{
							"internalType": "uint256",
							"name": "",
							"type": "uint256"
						}
					],
					"stateMutability": "view",
					"type": "function"
				}
			],
			"devdoc": {
				"kind": "dev",
				"methods": {},
				"version": 1
			},
			"evm": {
				"assembly": "    /* \"contracts/EntryPoint.sol\":208:4766  contract EntryPoint {... */\n  mstore(0x40, 0x80)\n  callvalue\n  dup1\n  iszero\n  tag_1\n  jumpi\n  revert(0x00, 0x00)\ntag_1:\n  pop\n  dataSize(sub_0)\n  dup1\n  dataOffset(sub_0)\n  0x00\n  codecopy\n  0x00\n  return\nstop\n\nsub_0: assembly {\n        /* \"contracts/EntryPoint.sol\":208:4766  contract EntryPoint {... */\n      mstore(0x40, 0x80)\n      callvalue\n      dup1\n      iszero\n      tag_1\n      jumpi\n      revert(0x00, 0x00)\n    tag_1:\n      pop\n      jumpi(tag_2, lt(calldatasize, 0x04))\n      shr(0xe0, calldataload(0x00))\n      dup1\n      0x532d3ac9\n      eq\n      tag_3\n      jumpi\n      dup1\n      0x7ecebe00\n      eq\n      tag_4\n      jumpi\n    tag_2:\n      revert(0x00, 0x00)\n        /* \"contracts/EntryPoint.sol\":1017:3721  function handleOps(UserOPeration[] calldata ops) external {... */\n    tag_3:\n      tag_5\n      0x04\n      dup1\n      calldatasize\n      sub\n      dup2\n      add\n      swap1\n      tag_6\n      swap2\n      swap1\n      tag_7\n      jump\t// in\n    tag_6:\n      tag_8\n      jump\t// in\n    tag_5:\n      stop\n        /* \"contracts/EntryPoint.sol\":942:980  mapping(address => uint) public nonces */\n    tag_4:\n      tag_9\n      0x04\n      dup1\n      calldatasize\n      sub\n      dup2\n      add\n      swap1\n      tag_10\n      swap2\n      swap1\n      tag_11\n      jump\t// in\n    tag_10:\n      tag_12\n      jump\t// in\n    tag_9:\n      mload(0x40)\n      tag_13\n      swap2\n      swap1\n      tag_14\n      jump\t// in\n    tag_13:\n      mload(0x40)\n      dup1\n      swap2\n      sub\n      swap1\n      return\n        /* \"contracts/EntryPoint.sol\":1017:3721  function handleOps(UserOPeration[] calldata ops) external {... */\n    tag_8:\n        /* \"contracts/EntryPoint.sol\":1123:1129  uint i */\n      0x00\n        /* \"contracts/EntryPoint.sol\":1132:1133  0 */\n      0x00\n        /* \"contracts/EntryPoint.sol\":1123:1133  uint i = 0 */\n      swap1\n      pop\n        /* \"contracts/EntryPoint.sol\":1118:3714  for (uint i = 0; i < ops.length; i++) {... */\n    tag_16:\n        /* \"contracts/EntryPoint.sol\":1139:1142  ops */\n      dup3\n      dup3\n        /* \"contracts/EntryPoint.sol\":1139:1149  ops.length */\n      swap1\n      pop\n        /* \"contracts/EntryPoint.sol\":1135:1136  i */\n      dup2\n        /* \"contracts/EntryPoint.sol\":1135:1149  i < ops.length */\n      lt\n        /* \"contracts/EntryPoint.sol\":1118:3714  for (uint i = 0; i < ops.length; i++) {... */\n      iszero\n      tag_17\n      jumpi\n        /* \"contracts/EntryPoint.sol\":1258:1283  UserOPeration calldata op */\n      calldatasize\n        /* \"contracts/EntryPoint.sol\":1286:1289  ops */\n      dup4\n      dup4\n        /* \"contracts/EntryPoint.sol\":1290:1291  i */\n      dup4\n        /* \"contracts/EntryPoint.sol\":1286:1292  ops[i] */\n      dup2\n      dup2\n      lt\n      tag_19\n      jumpi\n      tag_20\n      tag_21\n      jump\t// in\n    tag_20:\n    tag_19:\n      swap1\n      pop\n      0x20\n      mul\n      dup2\n      add\n      swap1\n      tag_22\n      swap2\n      swap1\n      tag_23\n      jump\t// in\n    tag_22:\n        /* \"contracts/EntryPoint.sol\":1258:1292  UserOPeration calldata op = ops[i] */\n      swap1\n      pop\n        /* \"contracts/EntryPoint.sol\":1329:1335  nonces */\n      0x00\n        /* \"contracts/EntryPoint.sol\":1329:1346  nonces[op.sender] */\n      0x00\n        /* \"contracts/EntryPoint.sol\":1336:1338  op */\n      dup3\n        /* \"contracts/EntryPoint.sol\":1336:1345  op.sender */\n      0x00\n      add\n      0x20\n      dup2\n      add\n      swap1\n      tag_24\n      swap2\n      swap1\n      tag_11\n      jump\t// in\n    tag_24:\n        /* \"contracts/EntryPoint.sol\":1329:1346  nonces[op.sender] */\n      0xffffffffffffffffffffffffffffffffffffffff\n      and\n      0xffffffffffffffffffffffffffffffffffffffff\n      and\n      dup2\n      mstore\n      0x20\n      add\n      swap1\n      dup2\n      mstore\n      0x20\n      add\n      0x00\n      keccak256\n      sload\n        /* \"contracts/EntryPoint.sol\":1317:1319  op */\n      dup2\n        /* \"contracts/EntryPoint.sol\":1317:1325  op.nonce */\n      0x20\n      add\n      calldataload\n        /* \"contracts/EntryPoint.sol\":1317:1346  op.nonce == nonces[op.sender] */\n      eq\n        /* \"contracts/EntryPoint.sol\":1309:1362  require(op.nonce == nonces[op.sender], \"nonce error\") */\n      tag_25\n      jumpi\n      mload(0x40)\n      0x08c379a000000000000000000000000000000000000000000000000000000000\n      dup2\n      mstore\n      0x04\n      add\n      tag_26\n      swap1\n      tag_27\n      jump\t// in\n    tag_26:\n      mload(0x40)\n      dup1\n      swap2\n      sub\n      swap1\n      revert\n    tag_25:\n        /* \"contracts/EntryPoint.sol\":1983:1985  20 */\n      0x14\n        /* \"contracts/EntryPoint.sol\":1953:1955  op */\n      dup2\n        /* \"contracts/EntryPoint.sol\":1953:1972  op.paymasterAndData */\n      dup1\n      0x0120\n      add\n      swap1\n      tag_28\n      swap2\n      swap1\n      tag_29\n      jump\t// in\n    tag_28:\n        /* \"contracts/EntryPoint.sol\":1953:1979  op.paymasterAndData.length */\n      swap1\n      pop\n        /* \"contracts/EntryPoint.sol\":1953:1985  op.paymasterAndData.length >= 20 */\n      lt\n        /* \"contracts/EntryPoint.sol\":1950:2462  if(op.paymasterAndData.length >= 20) {... */\n      tag_30\n      jumpi\n        /* \"contracts/EntryPoint.sol\":2006:2023  address paymaster */\n      0x00\n        /* \"contracts/EntryPoint.sol\":2042:2044  op */\n      dup2\n        /* \"contracts/EntryPoint.sol\":2042:2061  op.paymasterAndData */\n      dup1\n      0x0120\n      add\n      swap1\n      tag_31\n      swap2\n      swap1\n      tag_29\n      jump\t// in\n    tag_31:\n        /* \"contracts/EntryPoint.sol\":2034:2062  bytes20(op.paymasterAndData) */\n      swap1\n      tag_32\n      swap2\n      swap1\n      tag_33\n      jump\t// in\n    tag_32:\n        /* \"contracts/EntryPoint.sol\":2026:2063  address(bytes20(op.paymasterAndData)) */\n      0x60\n      shr\n        /* \"contracts/EntryPoint.sol\":2006:2063  address paymaster = address(bytes20(op.paymasterAndData)) */\n      swap1\n      pop\n        /* \"contracts/EntryPoint.sol\":2082:2094  uint maxCost */\n      0x00\n        /* \"contracts/EntryPoint.sol\":2115:2117  op */\n      dup3\n        /* \"contracts/EntryPoint.sol\":2115:2130  op.maxFeePerGas */\n      0xe0\n      add\n      calldataload\n        /* \"contracts/EntryPoint.sol\":2097:2099  op */\n      dup4\n        /* \"contracts/EntryPoint.sol\":2097:2112  op.callGasLimit */\n      0x80\n      add\n      calldataload\n        /* \"contracts/EntryPoint.sol\":2097:2130  op.callGasLimit * op.maxFeePerGas */\n      tag_34\n      swap2\n      swap1\n      tag_35\n      jump\t// in\n    tag_34:\n        /* \"contracts/EntryPoint.sol\":2082:2130  uint maxCost = op.callGasLimit * op.maxFeePerGas */\n      swap1\n      pop\n        /* \"contracts/EntryPoint.sol\":2216:2229  bool _success */\n      0x00\n        /* \"contracts/EntryPoint.sol\":2234:2243  paymaster */\n      dup3\n        /* \"contracts/EntryPoint.sol\":2234:2248  paymaster.call */\n      0xffffffffffffffffffffffffffffffffffffffff\n      and\n        /* \"contracts/EntryPoint.sol\":2339:2341  op */\n      dup5\n        /* \"contracts/EntryPoint.sol\":2339:2348  op.sender */\n      0x00\n      add\n      0x20\n      dup2\n      add\n      swap1\n      tag_36\n      swap2\n      swap1\n      tag_11\n      jump\t// in\n    tag_36:\n        /* \"contracts/EntryPoint.sol\":2350:2357  maxCost */\n      dup4\n        /* \"contracts/EntryPoint.sol\":2271:2358  abi.encodeWithSignature(\"validatePaymasterUserOp(address,uint256)\", op.sender, maxCost) */\n      add(0x24, mload(0x40))\n      tag_37\n      swap3\n      swap2\n      swap1\n      tag_38\n      jump\t// in\n    tag_37:\n      mload(0x40)\n      0x20\n      dup2\n      dup4\n      sub\n      sub\n      dup2\n      mstore\n      swap1\n      0x40\n      mstore\n      and(not(0xffffffffffffffffffffffffffffffffffffffffffffffffffffffff), 0x8acfa3c500000000000000000000000000000000000000000000000000000000)\n      0x20\n      dup3\n      add\n      dup1\n      mload\n      0xffffffffffffffffffffffffffffffffffffffffffffffffffffffff\n      dup4\n      dup2\n      dup4\n      and\n      or\n      dup4\n      mstore\n      pop\n      pop\n      pop\n      pop\n        /* \"contracts/EntryPoint.sol\":2234:2377  paymaster.call(... */\n      mload(0x40)\n      tag_39\n      swap2\n      swap1\n      tag_40\n      jump\t// in\n    tag_39:\n      0x00\n      mload(0x40)\n      dup1\n      dup4\n      sub\n      dup2\n      0x00\n      dup7\n      gas\n      call\n      swap2\n      pop\n      pop\n      returndatasize\n      dup1\n      0x00\n      dup2\n      eq\n      tag_43\n      jumpi\n      mload(0x40)\n      swap2\n      pop\n      and(add(returndatasize, 0x3f), not(0x1f))\n      dup3\n      add\n      0x40\n      mstore\n      returndatasize\n      dup3\n      mstore\n      returndatasize\n      0x00\n      0x20\n      dup5\n      add\n      returndatacopy\n      jump(tag_42)\n    tag_43:\n      0x60\n      swap2\n      pop\n    tag_42:\n      pop\n        /* \"contracts/EntryPoint.sol\":2215:2377  (bool _success,) = paymaster.call(... */\n      pop\n      swap1\n      pop\n        /* \"contracts/EntryPoint.sol\":2404:2412  _success */\n      dup1\n        /* \"contracts/EntryPoint.sol\":2396:2446  require(_success, \"error validatePaymasterUserOp\") */\n      tag_44\n      jumpi\n      mload(0x40)\n      0x08c379a000000000000000000000000000000000000000000000000000000000\n      dup2\n      mstore\n      0x04\n      add\n      tag_45\n      swap1\n      tag_46\n      jump\t// in\n    tag_45:\n      mload(0x40)\n      dup1\n      swap2\n      sub\n      swap1\n      revert\n    tag_44:\n        /* \"contracts/EntryPoint.sol\":1987:2462  {... */\n      pop\n      pop\n      pop\n        /* \"contracts/EntryPoint.sol\":1950:2462  if(op.paymasterAndData.length >= 20) {... */\n    tag_30:\n        /* \"contracts/EntryPoint.sol\":2508:2521  bytes32 _hash */\n      0x00\n        /* \"contracts/EntryPoint.sol\":2524:2542  _getUserOpHash(op) */\n      tag_47\n        /* \"contracts/EntryPoint.sol\":2539:2541  op */\n      dup3\n        /* \"contracts/EntryPoint.sol\":2524:2538  _getUserOpHash */\n      tag_48\n        /* \"contracts/EntryPoint.sol\":2524:2542  _getUserOpHash(op) */\n      jump\t// in\n    tag_47:\n        /* \"contracts/EntryPoint.sol\":2508:2542  bytes32 _hash = _getUserOpHash(op) */\n      swap1\n      pop\n        /* \"contracts/EntryPoint.sol\":2557:2572  bytes32 ethSign */\n      0x00\n        /* \"contracts/EntryPoint.sol\":2575:2600  _toSignMessageHash(_hash) */\n      tag_49\n        /* \"contracts/EntryPoint.sol\":2594:2599  _hash */\n      dup3\n        /* \"contracts/EntryPoint.sol\":2575:2593  _toSignMessageHash */\n      tag_50\n        /* \"contracts/EntryPoint.sol\":2575:2600  _toSignMessageHash(_hash) */\n      jump\t// in\n    tag_49:\n        /* \"contracts/EntryPoint.sol\":2557:2600  bytes32 ethSign = _toSignMessageHash(_hash) */\n      swap1\n      pop\n        /* \"contracts/EntryPoint.sol\":2653:2665  bool success */\n      0x00\n        /* \"contracts/EntryPoint.sol\":2670:2672  op */\n      dup4\n        /* \"contracts/EntryPoint.sol\":2670:2679  op.sender */\n      0x00\n      add\n      0x20\n      dup2\n      add\n      swap1\n      tag_51\n      swap2\n      swap1\n      tag_11\n      jump\t// in\n    tag_51:\n        /* \"contracts/EntryPoint.sol\":2670:2684  op.sender.call */\n      0xffffffffffffffffffffffffffffffffffffffff\n      and\n        /* \"contracts/EntryPoint.sol\":2835:2842  ethSign */\n      dup3\n        /* \"contracts/EntryPoint.sol\":2928:2930  op */\n      dup6\n        /* \"contracts/EntryPoint.sol\":2928:2940  op.signature */\n      dup1\n      0x0140\n      add\n      swap1\n      tag_52\n      swap2\n      swap1\n      tag_29\n      jump\t// in\n    tag_52:\n        /* \"contracts/EntryPoint.sol\":2703:2976  abi.encodeWithSignature(... */\n      add(0x24, mload(0x40))\n      tag_53\n      swap4\n      swap3\n      swap2\n      swap1\n      tag_54\n      jump\t// in\n    tag_53:\n      mload(0x40)\n      0x20\n      dup2\n      dup4\n      sub\n      sub\n      dup2\n      mstore\n      swap1\n      0x40\n      mstore\n      and(not(0xffffffffffffffffffffffffffffffffffffffffffffffffffffffff), 0x1626ba7e00000000000000000000000000000000000000000000000000000000)\n      0x20\n      dup3\n      add\n      dup1\n      mload\n      0xffffffffffffffffffffffffffffffffffffffffffffffffffffffff\n      dup4\n      dup2\n      dup4\n      and\n      or\n      dup4\n      mstore\n      pop\n      pop\n      pop\n      pop\n        /* \"contracts/EntryPoint.sol\":2670:2991  op.sender.call(... */\n      mload(0x40)\n      tag_55\n      swap2\n      swap1\n      tag_40\n      jump\t// in\n    tag_55:\n      0x00\n      mload(0x40)\n      dup1\n      dup4\n      sub\n      dup2\n      0x00\n      dup7\n      gas\n      call\n      swap2\n      pop\n      pop\n      returndatasize\n      dup1\n      0x00\n      dup2\n      eq\n      tag_58\n      jumpi\n      mload(0x40)\n      swap2\n      pop\n      and(add(returndatasize, 0x3f), not(0x1f))\n      dup3\n      add\n      0x40\n      mstore\n      returndatasize\n      dup3\n      mstore\n      returndatasize\n      0x00\n      0x20\n      dup5\n      add\n      returndatacopy\n      jump(tag_57)\n    tag_58:\n      0x60\n      swap2\n      pop\n    tag_57:\n      pop\n        /* \"contracts/EntryPoint.sol\":2652:2991  (bool success,) = op.sender.call(... */\n      pop\n      swap1\n      pop\n        /* \"contracts/EntryPoint.sol\":3016:3023  success */\n      dup1\n        /* \"contracts/EntryPoint.sol\":3008:3050  require(success, \"isValidSignature erorr\") */\n      tag_59\n      jumpi\n      mload(0x40)\n      0x08c379a000000000000000000000000000000000000000000000000000000000\n      dup2\n      mstore\n      0x04\n      add\n      tag_60\n      swap1\n      tag_61\n      jump\t// in\n    tag_60:\n      mload(0x40)\n      dup1\n      swap2\n      sub\n      swap1\n      revert\n    tag_59:\n        /* \"contracts/EntryPoint.sol\":3368:3381  bool isActive */\n      0x00\n        /* \"contracts/EntryPoint.sol\":3387:3389  op */\n      dup5\n        /* \"contracts/EntryPoint.sol\":3387:3396  op.sender */\n      0x00\n      add\n      0x20\n      dup2\n      add\n      swap1\n      tag_62\n      swap2\n      swap1\n      tag_11\n      jump\t// in\n    tag_62:\n        /* \"contracts/EntryPoint.sol\":3387:3401  op.sender.call */\n      0xffffffffffffffffffffffffffffffffffffffff\n      and\n        /* \"contracts/EntryPoint.sol\":3408:3410  op */\n      dup6\n        /* \"contracts/EntryPoint.sol\":3408:3423  op.callGasLimit */\n      0x80\n      add\n      calldataload\n        /* \"contracts/EntryPoint.sol\":3425:3427  op */\n      dup7\n        /* \"contracts/EntryPoint.sol\":3425:3436  op.callData */\n      dup1\n      0x60\n      add\n      swap1\n      tag_63\n      swap2\n      swap1\n      tag_29\n      jump\t// in\n    tag_63:\n        /* \"contracts/EntryPoint.sol\":3387:3437  op.sender.call{gas : op.callGasLimit}(op.callData) */\n      mload(0x40)\n      tag_64\n      swap3\n      swap2\n      swap1\n      tag_65\n      jump\t// in\n    tag_64:\n      0x00\n      mload(0x40)\n      dup1\n      dup4\n      sub\n      dup2\n      0x00\n      dup8\n      dup8\n      call\n      swap3\n      pop\n      pop\n      pop\n      returndatasize\n      dup1\n      0x00\n      dup2\n      eq\n      tag_68\n      jumpi\n      mload(0x40)\n      swap2\n      pop\n      and(add(returndatasize, 0x3f), not(0x1f))\n      dup3\n      add\n      0x40\n      mstore\n      returndatasize\n      dup3\n      mstore\n      returndatasize\n      0x00\n      0x20\n      dup5\n      add\n      returndatacopy\n      jump(tag_67)\n    tag_68:\n      0x60\n      swap2\n      pop\n    tag_67:\n      pop\n        /* \"contracts/EntryPoint.sol\":3367:3437  (bool isActive, ) = op.sender.call{gas : op.callGasLimit}(op.callData) */\n      pop\n      swap1\n      pop\n        /* \"contracts/EntryPoint.sol\":3523:3525  op */\n      dup5\n        /* \"contracts/EntryPoint.sol\":3523:3532  op.sender */\n      0x00\n      add\n      0x20\n      dup2\n      add\n      swap1\n      tag_69\n      swap2\n      swap1\n      tag_11\n      jump\t// in\n    tag_69:\n        /* \"contracts/EntryPoint.sol\":3502:3543  UserOperationHandled(op.sender, isActive) */\n      0xffffffffffffffffffffffffffffffffffffffff\n      and\n      0xfabd71a6a054cecabcaaaaf05732bd211bf392251cf8ba90b2077c73e89b66d9\n        /* \"contracts/EntryPoint.sol\":3534:3542  isActive */\n      dup3\n        /* \"contracts/EntryPoint.sol\":3502:3543  UserOperationHandled(op.sender, isActive) */\n      mload(0x40)\n      tag_70\n      swap2\n      swap1\n      tag_71\n      jump\t// in\n    tag_70:\n      mload(0x40)\n      dup1\n      swap2\n      sub\n      swap1\n      log2\n        /* \"contracts/EntryPoint.sol\":3683:3689  nonces */\n      0x00\n        /* \"contracts/EntryPoint.sol\":3683:3700  nonces[op.sender] */\n      0x00\n        /* \"contracts/EntryPoint.sol\":3690:3692  op */\n      dup7\n        /* \"contracts/EntryPoint.sol\":3690:3699  op.sender */\n      0x00\n      add\n      0x20\n      dup2\n      add\n      swap1\n      tag_72\n      swap2\n      swap1\n      tag_11\n      jump\t// in\n    tag_72:\n        /* \"contracts/EntryPoint.sol\":3683:3700  nonces[op.sender] */\n      0xffffffffffffffffffffffffffffffffffffffff\n      and\n      0xffffffffffffffffffffffffffffffffffffffff\n      and\n      dup2\n      mstore\n      0x20\n      add\n      swap1\n      dup2\n      mstore\n      0x20\n      add\n      0x00\n      keccak256\n      0x00\n        /* \"contracts/EntryPoint.sol\":3683:3702  nonces[op.sender]++ */\n      dup2\n      sload\n      dup1\n      swap3\n      swap2\n      swap1\n      tag_73\n      swap1\n      tag_74\n      jump\t// in\n    tag_73:\n      swap2\n      swap1\n      pop\n      sstore\n      pop\n        /* \"contracts/EntryPoint.sol\":1156:3714  {... */\n      pop\n      pop\n      pop\n      pop\n      pop\n        /* \"contracts/EntryPoint.sol\":1151:1154  i++ */\n      dup1\n      dup1\n      0x01\n      add\n      swap2\n      pop\n      pop\n        /* \"contracts/EntryPoint.sol\":1118:3714  for (uint i = 0; i < ops.length; i++) {... */\n      jump(tag_16)\n    tag_17:\n      pop\n        /* \"contracts/EntryPoint.sol\":1017:3721  function handleOps(UserOPeration[] calldata ops) external {... */\n      pop\n      pop\n      jump\t// out\n        /* \"contracts/EntryPoint.sol\":942:980  mapping(address => uint) public nonces */\n    tag_12:\n      mstore(0x20, 0x00)\n      dup1\n      0x00\n      mstore\n      keccak256(0x00, 0x40)\n      0x00\n      swap2\n      pop\n      swap1\n      pop\n      sload\n      dup2\n      jump\t// out\n        /* \"contracts/EntryPoint.sol\":3774:4291  function _getUserOpHash (UserOPeration calldata op) internal pure returns (bytes32) {... */\n    tag_48:\n        /* \"contracts/EntryPoint.sol\":3849:3856  bytes32 */\n      0x00\n        /* \"contracts/EntryPoint.sol\":3911:3913  op */\n      dup2\n        /* \"contracts/EntryPoint.sol\":3911:3920  op.sender */\n      0x00\n      add\n      0x20\n      dup2\n      add\n      swap1\n      tag_76\n      swap2\n      swap1\n      tag_11\n      jump\t// in\n    tag_76:\n        /* \"contracts/EntryPoint.sol\":3935:3937  op */\n      dup3\n        /* \"contracts/EntryPoint.sol\":3935:3943  op.nonce */\n      0x20\n      add\n      calldataload\n        /* \"contracts/EntryPoint.sol\":3968:3970  op */\n      dup4\n        /* \"contracts/EntryPoint.sol\":3968:3979  op.initCode */\n      dup1\n      0x40\n      add\n      swap1\n      tag_77\n      swap2\n      swap1\n      tag_29\n      jump\t// in\n    tag_77:\n        /* \"contracts/EntryPoint.sol\":3958:3980  keccak256(op.initCode) */\n      mload(0x40)\n      tag_78\n      swap3\n      swap2\n      swap1\n      tag_65\n      jump\t// in\n    tag_78:\n      mload(0x40)\n      dup1\n      swap2\n      sub\n      swap1\n      keccak256\n        /* \"contracts/EntryPoint.sol\":4005:4007  op */\n      dup5\n        /* \"contracts/EntryPoint.sol\":4005:4016  op.callData */\n      dup1\n      0x60\n      add\n      swap1\n      tag_79\n      swap2\n      swap1\n      tag_29\n      jump\t// in\n    tag_79:\n        /* \"contracts/EntryPoint.sol\":3995:4017  keccak256(op.callData) */\n      mload(0x40)\n      tag_80\n      swap3\n      swap2\n      swap1\n      tag_65\n      jump\t// in\n    tag_80:\n      mload(0x40)\n      dup1\n      swap2\n      sub\n      swap1\n      keccak256\n        /* \"contracts/EntryPoint.sol\":4032:4034  op */\n      dup6\n        /* \"contracts/EntryPoint.sol\":4032:4047  op.callGasLimit */\n      0x80\n      add\n      calldataload\n        /* \"contracts/EntryPoint.sol\":4062:4064  op */\n      dup7\n        /* \"contracts/EntryPoint.sol\":4062:4085  op.verificationGasLimit */\n      0xa0\n      add\n      calldataload\n        /* \"contracts/EntryPoint.sol\":4100:4102  op */\n      dup8\n        /* \"contracts/EntryPoint.sol\":4100:4121  op.preverificationGas */\n      0xc0\n      add\n      calldataload\n        /* \"contracts/EntryPoint.sol\":4136:4138  op */\n      dup9\n        /* \"contracts/EntryPoint.sol\":4136:4151  op.maxFeePerGas */\n      0xe0\n      add\n      calldataload\n        /* \"contracts/EntryPoint.sol\":4166:4168  op */\n      dup10\n        /* \"contracts/EntryPoint.sol\":4166:4188  op.maxPrioityFeePerGas */\n      0x0100\n      add\n      calldataload\n        /* \"contracts/EntryPoint.sol\":4213:4215  op */\n      dup11\n        /* \"contracts/EntryPoint.sol\":4213:4232  op.paymasterAndData */\n      dup1\n      0x0120\n      add\n      swap1\n      tag_81\n      swap2\n      swap1\n      tag_29\n      jump\t// in\n    tag_81:\n        /* \"contracts/EntryPoint.sol\":4203:4233  keccak256(op.paymasterAndData) */\n      mload(0x40)\n      tag_82\n      swap3\n      swap2\n      swap1\n      tag_65\n      jump\t// in\n    tag_82:\n      mload(0x40)\n      dup1\n      swap2\n      sub\n      swap1\n      keccak256\n        /* \"contracts/EntryPoint.sol\":4258:4260  op */\n      dup12\n        /* \"contracts/EntryPoint.sol\":4258:4270  op.signature */\n      dup1\n      0x0140\n      add\n      swap1\n      tag_83\n      swap2\n      swap1\n      tag_29\n      jump\t// in\n    tag_83:\n        /* \"contracts/EntryPoint.sol\":4248:4271  keccak256(op.signature) */\n      mload(0x40)\n      tag_84\n      swap3\n      swap2\n      swap1\n      tag_65\n      jump\t// in\n    tag_84:\n      mload(0x40)\n      dup1\n      swap2\n      sub\n      swap1\n      keccak256\n        /* \"contracts/EntryPoint.sol\":3886:4282  abi.encode(... */\n      add(0x20, mload(0x40))\n      tag_85\n      swap12\n      swap11\n      swap10\n      swap9\n      swap8\n      swap7\n      swap6\n      swap5\n      swap4\n      swap3\n      swap2\n      swap1\n      tag_86\n      jump\t// in\n    tag_85:\n      mload(0x40)\n      0x20\n      dup2\n      dup4\n      sub\n      sub\n      dup2\n      mstore\n      swap1\n      0x40\n      mstore\n        /* \"contracts/EntryPoint.sol\":3876:4283  keccak256(abi.encode(... */\n      dup1\n      mload\n      swap1\n      0x20\n      add\n      keccak256\n        /* \"contracts/EntryPoint.sol\":3869:4283  return keccak256(abi.encode(... */\n      swap1\n      pop\n        /* \"contracts/EntryPoint.sol\":3774:4291  function _getUserOpHash (UserOPeration calldata op) internal pure returns (bytes32) {... */\n      swap2\n      swap1\n      pop\n      jump\t// out\n        /* \"contracts/EntryPoint.sol\":4465:4762  function _toSignMessageHash (bytes32 _hash) internal pure returns (bytes32) {... */\n    tag_50:\n        /* \"contracts/EntryPoint.sol\":4532:4539  bytes32 */\n      0x00\n        /* \"contracts/EntryPoint.sol\":4723:4728  _hash */\n      dup2\n        /* \"contracts/EntryPoint.sol\":4583:4743  abi.encodePacked(... */\n      add(0x20, mload(0x40))\n      tag_88\n      swap2\n      swap1\n      tag_89\n      jump\t// in\n    tag_88:\n      mload(0x40)\n      0x20\n      dup2\n      dup4\n      sub\n      sub\n      dup2\n      mstore\n      swap1\n      0x40\n      mstore\n        /* \"contracts/EntryPoint.sol\":4559:4754  keccak256(... */\n      dup1\n      mload\n      swap1\n      0x20\n      add\n      keccak256\n        /* \"contracts/EntryPoint.sol\":4552:4754  return keccak256(... */\n      swap1\n      pop\n        /* \"contracts/EntryPoint.sol\":4465:4762  function _toSignMessageHash (bytes32 _hash) internal pure returns (bytes32) {... */\n      swap2\n      swap1\n      pop\n      jump\t// out\n        /* \"#utility.yul\":88:205   */\n    tag_91:\n        /* \"#utility.yul\":197:198   */\n      0x00\n        /* \"#utility.yul\":194:195   */\n      0x00\n        /* \"#utility.yul\":187:199   */\n      revert\n        /* \"#utility.yul\":211:328   */\n    tag_92:\n        /* \"#utility.yul\":320:321   */\n      0x00\n        /* \"#utility.yul\":317:318   */\n      0x00\n        /* \"#utility.yul\":310:322   */\n      revert\n        /* \"#utility.yul\":334:451   */\n    tag_93:\n        /* \"#utility.yul\":443:444   */\n      0x00\n        /* \"#utility.yul\":440:441   */\n      0x00\n        /* \"#utility.yul\":433:445   */\n      revert\n        /* \"#utility.yul\":457:574   */\n    tag_94:\n        /* \"#utility.yul\":566:567   */\n      0x00\n        /* \"#utility.yul\":563:564   */\n      0x00\n        /* \"#utility.yul\":556:568   */\n      revert\n        /* \"#utility.yul\":580:697   */\n    tag_95:\n        /* \"#utility.yul\":689:690   */\n      0x00\n        /* \"#utility.yul\":686:687   */\n      0x00\n        /* \"#utility.yul\":679:691   */\n      revert\n        /* \"#utility.yul\":744:1343   */\n    tag_96:\n        /* \"#utility.yul\":848:856   */\n      0x00\n        /* \"#utility.yul\":858:864   */\n      0x00\n        /* \"#utility.yul\":908:911   */\n      dup4\n        /* \"#utility.yul\":901:905   */\n      0x1f\n        /* \"#utility.yul\":893:899   */\n      dup5\n        /* \"#utility.yul\":889:906   */\n      add\n        /* \"#utility.yul\":885:912   */\n      slt\n        /* \"#utility.yul\":875:997   */\n      tag_145\n      jumpi\n        /* \"#utility.yul\":916:995   */\n      tag_146\n      tag_93\n      jump\t// in\n    tag_146:\n        /* \"#utility.yul\":875:997   */\n    tag_145:\n        /* \"#utility.yul\":1029:1035   */\n      dup3\n        /* \"#utility.yul\":1016:1036   */\n      calldataload\n        /* \"#utility.yul\":1006:1036   */\n      swap1\n      pop\n        /* \"#utility.yul\":1059:1077   */\n      0xffffffffffffffff\n        /* \"#utility.yul\":1051:1057   */\n      dup2\n        /* \"#utility.yul\":1048:1078   */\n      gt\n        /* \"#utility.yul\":1045:1162   */\n      iszero\n      tag_147\n      jumpi\n        /* \"#utility.yul\":1081:1160   */\n      tag_148\n      tag_94\n      jump\t// in\n    tag_148:\n        /* \"#utility.yul\":1045:1162   */\n    tag_147:\n        /* \"#utility.yul\":1195:1199   */\n      0x20\n        /* \"#utility.yul\":1187:1193   */\n      dup4\n        /* \"#utility.yul\":1183:1200   */\n      add\n        /* \"#utility.yul\":1171:1200   */\n      swap2\n      pop\n        /* \"#utility.yul\":1249:1252   */\n      dup4\n        /* \"#utility.yul\":1241:1245   */\n      0x20\n        /* \"#utility.yul\":1233:1239   */\n      dup3\n        /* \"#utility.yul\":1229:1246   */\n      mul\n        /* \"#utility.yul\":1219:1227   */\n      dup4\n        /* \"#utility.yul\":1215:1247   */\n      add\n        /* \"#utility.yul\":1212:1253   */\n      gt\n        /* \"#utility.yul\":1209:1337   */\n      iszero\n      tag_149\n      jumpi\n        /* \"#utility.yul\":1256:1335   */\n      tag_150\n      tag_95\n      jump\t// in\n    tag_150:\n        /* \"#utility.yul\":1209:1337   */\n    tag_149:\n        /* \"#utility.yul\":744:1343   */\n      swap3\n      pop\n      swap3\n      swap1\n      pop\n      jump\t// out\n        /* \"#utility.yul\":1349:1970   */\n    tag_7:\n        /* \"#utility.yul\":1466:1472   */\n      0x00\n        /* \"#utility.yul\":1474:1480   */\n      0x00\n        /* \"#utility.yul\":1523:1525   */\n      0x20\n        /* \"#utility.yul\":1511:1520   */\n      dup4\n        /* \"#utility.yul\":1502:1509   */\n      dup6\n        /* \"#utility.yul\":1498:1521   */\n      sub\n        /* \"#utility.yul\":1494:1526   */\n      slt\n        /* \"#utility.yul\":1491:1610   */\n      iszero\n      tag_152\n      jumpi\n        /* \"#utility.yul\":1529:1608   */\n      tag_153\n      tag_91\n      jump\t// in\n    tag_153:\n        /* \"#utility.yul\":1491:1610   */\n    tag_152:\n        /* \"#utility.yul\":1677:1678   */\n      0x00\n        /* \"#utility.yul\":1666:1675   */\n      dup4\n        /* \"#utility.yul\":1662:1679   */\n      add\n        /* \"#utility.yul\":1649:1680   */\n      calldataload\n        /* \"#utility.yul\":1707:1725   */\n      0xffffffffffffffff\n        /* \"#utility.yul\":1699:1705   */\n      dup2\n        /* \"#utility.yul\":1696:1726   */\n      gt\n        /* \"#utility.yul\":1693:1810   */\n      iszero\n      tag_154\n      jumpi\n        /* \"#utility.yul\":1729:1808   */\n      tag_155\n      tag_92\n      jump\t// in\n    tag_155:\n        /* \"#utility.yul\":1693:1810   */\n    tag_154:\n        /* \"#utility.yul\":1842:1953   */\n      tag_156\n        /* \"#utility.yul\":1945:1952   */\n      dup6\n        /* \"#utility.yul\":1936:1942   */\n      dup3\n        /* \"#utility.yul\":1925:1934   */\n      dup7\n        /* \"#utility.yul\":1921:1943   */\n      add\n        /* \"#utility.yul\":1842:1953   */\n      tag_96\n      jump\t// in\n    tag_156:\n        /* \"#utility.yul\":1824:1953   */\n      swap3\n      pop\n      swap3\n      pop\n        /* \"#utility.yul\":1620:1963   */\n      pop\n        /* \"#utility.yul\":1349:1970   */\n      swap3\n      pop\n      swap3\n      swap1\n      pop\n      jump\t// out\n        /* \"#utility.yul\":1976:2102   */\n    tag_97:\n        /* \"#utility.yul\":2013:2020   */\n      0x00\n        /* \"#utility.yul\":2053:2095   */\n      0xffffffffffffffffffffffffffffffffffffffff\n        /* \"#utility.yul\":2046:2051   */\n      dup3\n        /* \"#utility.yul\":2042:2096   */\n      and\n        /* \"#utility.yul\":2031:2096   */\n      swap1\n      pop\n        /* \"#utility.yul\":1976:2102   */\n      swap2\n      swap1\n      pop\n      jump\t// out\n        /* \"#utility.yul\":2108:2204   */\n    tag_98:\n        /* \"#utility.yul\":2145:2152   */\n      0x00\n        /* \"#utility.yul\":2174:2198   */\n      tag_159\n        /* \"#utility.yul\":2192:2197   */\n      dup3\n        /* \"#utility.yul\":2174:2198   */\n      tag_97\n      jump\t// in\n    tag_159:\n        /* \"#utility.yul\":2163:2198   */\n      swap1\n      pop\n        /* \"#utility.yul\":2108:2204   */\n      swap2\n      swap1\n      pop\n      jump\t// out\n        /* \"#utility.yul\":2210:2332   */\n    tag_99:\n        /* \"#utility.yul\":2283:2307   */\n      tag_161\n        /* \"#utility.yul\":2301:2306   */\n      dup2\n        /* \"#utility.yul\":2283:2307   */\n      tag_98\n      jump\t// in\n    tag_161:\n        /* \"#utility.yul\":2276:2281   */\n      dup2\n        /* \"#utility.yul\":2273:2308   */\n      eq\n        /* \"#utility.yul\":2263:2326   */\n      tag_162\n      jumpi\n        /* \"#utility.yul\":2322:2323   */\n      0x00\n        /* \"#utility.yul\":2319:2320   */\n      0x00\n        /* \"#utility.yul\":2312:2324   */\n      revert\n        /* \"#utility.yul\":2263:2326   */\n    tag_162:\n        /* \"#utility.yul\":2210:2332   */\n      pop\n      jump\t// out\n        /* \"#utility.yul\":2338:2477   */\n    tag_100:\n        /* \"#utility.yul\":2384:2389   */\n      0x00\n        /* \"#utility.yul\":2422:2428   */\n      dup2\n        /* \"#utility.yul\":2409:2429   */\n      calldataload\n        /* \"#utility.yul\":2400:2429   */\n      swap1\n      pop\n        /* \"#utility.yul\":2438:2471   */\n      tag_164\n        /* \"#utility.yul\":2465:2470   */\n      dup2\n        /* \"#utility.yul\":2438:2471   */\n      tag_99\n      jump\t// in\n    tag_164:\n        /* \"#utility.yul\":2338:2477   */\n      swap3\n      swap2\n      pop\n      pop\n      jump\t// out\n        /* \"#utility.yul\":2483:2812   */\n    tag_11:\n        /* \"#utility.yul\":2542:2548   */\n      0x00\n        /* \"#utility.yul\":2591:2593   */\n      0x20\n        /* \"#utility.yul\":2579:2588   */\n      dup3\n        /* \"#utility.yul\":2570:2577   */\n      dup5\n        /* \"#utility.yul\":2566:2589   */\n      sub\n        /* \"#utility.yul\":2562:2594   */\n      slt\n        /* \"#utility.yul\":2559:2678   */\n      iszero\n      tag_166\n      jumpi\n        /* \"#utility.yul\":2597:2676   */\n      tag_167\n      tag_91\n      jump\t// in\n    tag_167:\n        /* \"#utility.yul\":2559:2678   */\n    tag_166:\n        /* \"#utility.yul\":2717:2718   */\n      0x00\n        /* \"#utility.yul\":2742:2795   */\n      tag_168\n        /* \"#utility.yul\":2787:2794   */\n      dup5\n        /* \"#utility.yul\":2778:2784   */\n      dup3\n        /* \"#utility.yul\":2767:2776   */\n      dup6\n        /* \"#utility.yul\":2763:2785   */\n      add\n        /* \"#utility.yul\":2742:2795   */\n      tag_100\n      jump\t// in\n    tag_168:\n        /* \"#utility.yul\":2732:2795   */\n      swap2\n      pop\n        /* \"#utility.yul\":2688:2805   */\n      pop\n        /* \"#utility.yul\":2483:2812   */\n      swap3\n      swap2\n      pop\n      pop\n      jump\t// out\n        /* \"#utility.yul\":2818:2895   */\n    tag_101:\n        /* \"#utility.yul\":2855:2862   */\n      0x00\n        /* \"#utility.yul\":2884:2889   */\n      dup2\n        /* \"#utility.yul\":2873:2889   */\n      swap1\n      pop\n        /* \"#utility.yul\":2818:2895   */\n      swap2\n      swap1\n      pop\n      jump\t// out\n        /* \"#utility.yul\":2901:3019   */\n    tag_102:\n        /* \"#utility.yul\":2988:3012   */\n      tag_171\n        /* \"#utility.yul\":3006:3011   */\n      dup2\n        /* \"#utility.yul\":2988:3012   */\n      tag_101\n      jump\t// in\n    tag_171:\n        /* \"#utility.yul\":2983:2986   */\n      dup3\n        /* \"#utility.yul\":2976:3013   */\n      mstore\n        /* \"#utility.yul\":2901:3019   */\n      pop\n      pop\n      jump\t// out\n        /* \"#utility.yul\":3025:3247   */\n    tag_14:\n        /* \"#utility.yul\":3118:3122   */\n      0x00\n        /* \"#utility.yul\":3156:3158   */\n      0x20\n        /* \"#utility.yul\":3145:3154   */\n      dup3\n        /* \"#utility.yul\":3141:3159   */\n      add\n        /* \"#utility.yul\":3133:3159   */\n      swap1\n      pop\n        /* \"#utility.yul\":3169:3240   */\n      tag_173\n        /* \"#utility.yul\":3237:3238   */\n      0x00\n        /* \"#utility.yul\":3226:3235   */\n      dup4\n        /* \"#utility.yul\":3222:3239   */\n      add\n        /* \"#utility.yul\":3213:3219   */\n      dup5\n        /* \"#utility.yul\":3169:3240   */\n      tag_102\n      jump\t// in\n    tag_173:\n        /* \"#utility.yul\":3025:3247   */\n      swap3\n      swap2\n      pop\n      pop\n      jump\t// out\n        /* \"#utility.yul\":3253:3433   */\n    tag_21:\n        /* \"#utility.yul\":3301:3378   */\n      0x4e487b7100000000000000000000000000000000000000000000000000000000\n        /* \"#utility.yul\":3298:3299   */\n      0x00\n        /* \"#utility.yul\":3291:3379   */\n      mstore\n        /* \"#utility.yul\":3398:3402   */\n      0x32\n        /* \"#utility.yul\":3395:3396   */\n      0x04\n        /* \"#utility.yul\":3388:3403   */\n      mstore\n        /* \"#utility.yul\":3422:3426   */\n      0x24\n        /* \"#utility.yul\":3419:3420   */\n      0x00\n        /* \"#utility.yul\":3412:3427   */\n      revert\n        /* \"#utility.yul\":3439:3556   */\n    tag_103:\n        /* \"#utility.yul\":3548:3549   */\n      0x00\n        /* \"#utility.yul\":3545:3546   */\n      0x00\n        /* \"#utility.yul\":3538:3550   */\n      revert\n        /* \"#utility.yul\":3562:3679   */\n    tag_104:\n        /* \"#utility.yul\":3671:3672   */\n      0x00\n        /* \"#utility.yul\":3668:3669   */\n      0x00\n        /* \"#utility.yul\":3661:3673   */\n      revert\n        /* \"#utility.yul\":3685:3802   */\n    tag_105:\n        /* \"#utility.yul\":3794:3795   */\n      0x00\n        /* \"#utility.yul\":3791:3792   */\n      0x00\n        /* \"#utility.yul\":3784:3796   */\n      revert\n        /* \"#utility.yul\":3808:4207   */\n    tag_23:\n        /* \"#utility.yul\":3905:3909   */\n      0x00\n        /* \"#utility.yul\":3959:3970   */\n      dup3\n        /* \"#utility.yul\":3946:3971   */\n      calldataload\n        /* \"#utility.yul\":4061:4062   */\n      0x01\n        /* \"#utility.yul\":4053:4059   */\n      0x0160\n        /* \"#utility.yul\":4049:4063   */\n      sub\n        /* \"#utility.yul\":4038:4046   */\n      dup4\n        /* \"#utility.yul\":4022:4036   */\n      calldatasize\n        /* \"#utility.yul\":4018:4047   */\n      sub\n        /* \"#utility.yul\":4014:4064   */\n      sub\n        /* \"#utility.yul\":3994:4012   */\n      dup2\n        /* \"#utility.yul\":3990:4065   */\n      slt\n        /* \"#utility.yul\":3980:4150   */\n      tag_179\n      jumpi\n        /* \"#utility.yul\":4069:4148   */\n      tag_180\n      tag_103\n      jump\t// in\n    tag_180:\n        /* \"#utility.yul\":3980:4150   */\n    tag_179:\n        /* \"#utility.yul\":4181:4199   */\n      dup1\n        /* \"#utility.yul\":4171:4179   */\n      dup4\n        /* \"#utility.yul\":4167:4200   */\n      add\n        /* \"#utility.yul\":4159:4200   */\n      swap2\n      pop\n        /* \"#utility.yul\":3910:4207   */\n      pop\n        /* \"#utility.yul\":3808:4207   */\n      swap3\n      swap2\n      pop\n      pop\n      jump\t// out\n        /* \"#utility.yul\":4213:4382   */\n    tag_106:\n        /* \"#utility.yul\":4297:4308   */\n      0x00\n        /* \"#utility.yul\":4331:4337   */\n      dup3\n        /* \"#utility.yul\":4326:4329   */\n      dup3\n        /* \"#utility.yul\":4319:4338   */\n      mstore\n        /* \"#utility.yul\":4371:4375   */\n      0x20\n        /* \"#utility.yul\":4366:4369   */\n      dup3\n        /* \"#utility.yul\":4362:4376   */\n      add\n        /* \"#utility.yul\":4347:4376   */\n      swap1\n      pop\n        /* \"#utility.yul\":4213:4382   */\n      swap3\n      swap2\n      pop\n      pop\n      jump\t// out\n        /* \"#utility.yul\":4388:4549   */\n    tag_107:\n        /* \"#utility.yul\":4528:4541   */\n      0x6e6f6e6365206572726f72000000000000000000000000000000000000000000\n        /* \"#utility.yul\":4524:4525   */\n      0x00\n        /* \"#utility.yul\":4516:4522   */\n      dup3\n        /* \"#utility.yul\":4512:4526   */\n      add\n        /* \"#utility.yul\":4505:4542   */\n      mstore\n        /* \"#utility.yul\":4388:4549   */\n      pop\n      jump\t// out\n        /* \"#utility.yul\":4555:4921   */\n    tag_108:\n        /* \"#utility.yul\":4697:4700   */\n      0x00\n        /* \"#utility.yul\":4718:4785   */\n      tag_184\n        /* \"#utility.yul\":4782:4784   */\n      0x0b\n        /* \"#utility.yul\":4777:4780   */\n      dup4\n        /* \"#utility.yul\":4718:4785   */\n      tag_106\n      jump\t// in\n    tag_184:\n        /* \"#utility.yul\":4711:4785   */\n      swap2\n      pop\n        /* \"#utility.yul\":4794:4887   */\n      tag_185\n        /* \"#utility.yul\":4883:4886   */\n      dup3\n        /* \"#utility.yul\":4794:4887   */\n      tag_107\n      jump\t// in\n    tag_185:\n        /* \"#utility.yul\":4912:4914   */\n      0x20\n        /* \"#utility.yul\":4907:4910   */\n      dup3\n        /* \"#utility.yul\":4903:4915   */\n      add\n        /* \"#utility.yul\":4896:4915   */\n      swap1\n      pop\n        /* \"#utility.yul\":4555:4921   */\n      swap2\n      swap1\n      pop\n      jump\t// out\n        /* \"#utility.yul\":4927:5346   */\n    tag_27:\n        /* \"#utility.yul\":5093:5097   */\n      0x00\n        /* \"#utility.yul\":5131:5133   */\n      0x20\n        /* \"#utility.yul\":5120:5129   */\n      dup3\n        /* \"#utility.yul\":5116:5134   */\n      add\n        /* \"#utility.yul\":5108:5134   */\n      swap1\n      pop\n        /* \"#utility.yul\":5180:5189   */\n      dup2\n        /* \"#utility.yul\":5174:5178   */\n      dup2\n        /* \"#utility.yul\":5170:5190   */\n      sub\n        /* \"#utility.yul\":5166:5167   */\n      0x00\n        /* \"#utility.yul\":5155:5164   */\n      dup4\n        /* \"#utility.yul\":5151:5168   */\n      add\n        /* \"#utility.yul\":5144:5191   */\n      mstore\n        /* \"#utility.yul\":5208:5339   */\n      tag_187\n        /* \"#utility.yul\":5334:5338   */\n      dup2\n        /* \"#utility.yul\":5208:5339   */\n      tag_108\n      jump\t// in\n    tag_187:\n        /* \"#utility.yul\":5200:5339   */\n      swap1\n      pop\n        /* \"#utility.yul\":4927:5346   */\n      swap2\n      swap1\n      pop\n      jump\t// out\n        /* \"#utility.yul\":5352:6076   */\n    tag_29:\n        /* \"#utility.yul\":5429:5433   */\n      0x00\n        /* \"#utility.yul\":5435:5441   */\n      0x00\n        /* \"#utility.yul\":5491:5502   */\n      dup4\n        /* \"#utility.yul\":5478:5503   */\n      calldataload\n        /* \"#utility.yul\":5591:5592   */\n      0x01\n        /* \"#utility.yul\":5585:5589   */\n      0x20\n        /* \"#utility.yul\":5581:5593   */\n      sub\n        /* \"#utility.yul\":5570:5578   */\n      dup5\n        /* \"#utility.yul\":5554:5568   */\n      calldatasize\n        /* \"#utility.yul\":5550:5579   */\n      sub\n        /* \"#utility.yul\":5546:5594   */\n      sub\n        /* \"#utility.yul\":5526:5544   */\n      dup2\n        /* \"#utility.yul\":5522:5595   */\n      slt\n        /* \"#utility.yul\":5512:5680   */\n      tag_189\n      jumpi\n        /* \"#utility.yul\":5599:5678   */\n      tag_190\n      tag_103\n      jump\t// in\n    tag_190:\n        /* \"#utility.yul\":5512:5680   */\n    tag_189:\n        /* \"#utility.yul\":5711:5729   */\n      dup1\n        /* \"#utility.yul\":5701:5709   */\n      dup5\n        /* \"#utility.yul\":5697:5730   */\n      add\n        /* \"#utility.yul\":5689:5730   */\n      swap3\n      pop\n        /* \"#utility.yul\":5763:5767   */\n      dup3\n        /* \"#utility.yul\":5750:5768   */\n      calldataload\n        /* \"#utility.yul\":5740:5768   */\n      swap2\n      pop\n        /* \"#utility.yul\":5791:5809   */\n      0xffffffffffffffff\n        /* \"#utility.yul\":5783:5789   */\n      dup3\n        /* \"#utility.yul\":5780:5810   */\n      gt\n        /* \"#utility.yul\":5777:5894   */\n      iszero\n      tag_191\n      jumpi\n        /* \"#utility.yul\":5813:5892   */\n      tag_192\n      tag_104\n      jump\t// in\n    tag_192:\n        /* \"#utility.yul\":5777:5894   */\n    tag_191:\n        /* \"#utility.yul\":5921:5923   */\n      0x20\n        /* \"#utility.yul\":5915:5919   */\n      dup4\n        /* \"#utility.yul\":5911:5924   */\n      add\n        /* \"#utility.yul\":5903:5924   */\n      swap3\n      pop\n        /* \"#utility.yul\":5978:5982   */\n      0x01\n        /* \"#utility.yul\":5970:5976   */\n      dup3\n        /* \"#utility.yul\":5966:5983   */\n      mul\n        /* \"#utility.yul\":5950:5964   */\n      calldatasize\n        /* \"#utility.yul\":5946:5984   */\n      sub\n        /* \"#utility.yul\":5940:5944   */\n      dup4\n        /* \"#utility.yul\":5936:5985   */\n      sgt\n        /* \"#utility.yul\":5933:6069   */\n      iszero\n      tag_193\n      jumpi\n        /* \"#utility.yul\":5988:6067   */\n      tag_194\n      tag_105\n      jump\t// in\n    tag_194:\n        /* \"#utility.yul\":5933:6069   */\n    tag_193:\n        /* \"#utility.yul\":5442:6076   */\n      pop\n        /* \"#utility.yul\":5352:6076   */\n      swap3\n      pop\n      swap3\n      swap1\n      pop\n      jump\t// out\n        /* \"#utility.yul\":6082:6178   */\n    tag_109:\n        /* \"#utility.yul\":6140:6146   */\n      0x00\n        /* \"#utility.yul\":6168:6171   */\n      dup3\n        /* \"#utility.yul\":6158:6171   */\n      swap1\n      pop\n        /* \"#utility.yul\":6082:6178   */\n      swap3\n      swap2\n      pop\n      pop\n      jump\t// out\n        /* \"#utility.yul\":6276:6426   */\n    tag_111:\n        /* \"#utility.yul\":6313:6320   */\n      0x00\n        /* \"#utility.yul\":6353:6419   */\n      0xffffffffffffffffffffffffffffffffffffffff000000000000000000000000\n        /* \"#utility.yul\":6346:6351   */\n      dup3\n        /* \"#utility.yul\":6342:6420   */\n      and\n        /* \"#utility.yul\":6331:6420   */\n      swap1\n      pop\n        /* \"#utility.yul\":6276:6426   */\n      swap2\n      swap1\n      pop\n      jump\t// out\n        /* \"#utility.yul\":6432:6539   */\n    tag_112:\n        /* \"#utility.yul\":6476:6484   */\n      0x00\n        /* \"#utility.yul\":6526:6531   */\n      dup3\n        /* \"#utility.yul\":6520:6524   */\n      dup3\n        /* \"#utility.yul\":6516:6532   */\n      shl\n        /* \"#utility.yul\":6495:6532   */\n      swap1\n      pop\n        /* \"#utility.yul\":6432:6539   */\n      swap3\n      swap2\n      pop\n      pop\n      jump\t// out\n        /* \"#utility.yul\":6545:7097   */\n    tag_33:\n        /* \"#utility.yul\":6636:6641   */\n      0x00\n        /* \"#utility.yul\":6667:6712   */\n      tag_200\n        /* \"#utility.yul\":6708:6711   */\n      dup4\n        /* \"#utility.yul\":6701:6706   */\n      dup4\n        /* \"#utility.yul\":6667:6712   */\n      tag_109\n      jump\t// in\n    tag_200:\n        /* \"#utility.yul\":6737:6742   */\n      dup3\n        /* \"#utility.yul\":6761:6802   */\n      tag_201\n        /* \"#utility.yul\":6792:6800   */\n      dup2\n        /* \"#utility.yul\":6779:6801   */\n      calldataload\n        /* \"#utility.yul\":6761:6802   */\n      tag_111\n      jump\t// in\n    tag_201:\n        /* \"#utility.yul\":6752:6802   */\n      swap3\n      pop\n        /* \"#utility.yul\":6826:6828   */\n      0x14\n        /* \"#utility.yul\":6818:6824   */\n      dup3\n        /* \"#utility.yul\":6815:6829   */\n      lt\n        /* \"#utility.yul\":6812:7090   */\n      iszero\n      tag_202\n      jumpi\n        /* \"#utility.yul\":6897:7066   */\n      tag_203\n        /* \"#utility.yul\":6982:7048   */\n      0xffffffffffffffffffffffffffffffffffffffff000000000000000000000000\n        /* \"#utility.yul\":6952:6958   */\n      dup4\n        /* \"#utility.yul\":6948:6950   */\n      0x14\n        /* \"#utility.yul\":6944:6959   */\n      sub\n        /* \"#utility.yul\":6941:6942   */\n      0x08\n        /* \"#utility.yul\":6937:6960   */\n      mul\n        /* \"#utility.yul\":6897:7066   */\n      tag_112\n      jump\t// in\n    tag_203:\n        /* \"#utility.yul\":6874:6879   */\n      dup4\n        /* \"#utility.yul\":6853:7080   */\n      and\n        /* \"#utility.yul\":6844:7080   */\n      swap3\n      pop\n        /* \"#utility.yul\":6812:7090   */\n    tag_202:\n        /* \"#utility.yul\":6642:7097   */\n      pop\n      pop\n        /* \"#utility.yul\":6545:7097   */\n      swap3\n      swap2\n      pop\n      pop\n      jump\t// out\n        /* \"#utility.yul\":7103:7283   */\n    tag_113:\n        /* \"#utility.yul\":7151:7228   */\n      0x4e487b7100000000000000000000000000000000000000000000000000000000\n        /* \"#utility.yul\":7148:7149   */\n      0x00\n        /* \"#utility.yul\":7141:7229   */\n      mstore\n        /* \"#utility.yul\":7248:7252   */\n      0x11\n        /* \"#utility.yul\":7245:7246   */\n      0x04\n        /* \"#utility.yul\":7238:7253   */\n      mstore\n        /* \"#utility.yul\":7272:7276   */\n      0x24\n        /* \"#utility.yul\":7269:7270   */\n      0x00\n        /* \"#utility.yul\":7262:7277   */\n      revert\n        /* \"#utility.yul\":7289:7699   */\n    tag_35:\n        /* \"#utility.yul\":7329:7336   */\n      0x00\n        /* \"#utility.yul\":7352:7372   */\n      tag_206\n        /* \"#utility.yul\":7370:7371   */\n      dup3\n        /* \"#utility.yul\":7352:7372   */\n      tag_101\n      jump\t// in\n    tag_206:\n        /* \"#utility.yul\":7347:7372   */\n      swap2\n      pop\n        /* \"#utility.yul\":7386:7406   */\n      tag_207\n        /* \"#utility.yul\":7404:7405   */\n      dup4\n        /* \"#utility.yul\":7386:7406   */\n      tag_101\n      jump\t// in\n    tag_207:\n        /* \"#utility.yul\":7381:7406   */\n      swap3\n      pop\n        /* \"#utility.yul\":7441:7442   */\n      dup3\n        /* \"#utility.yul\":7438:7439   */\n      dup3\n        /* \"#utility.yul\":7434:7443   */\n      mul\n        /* \"#utility.yul\":7463:7493   */\n      tag_208\n        /* \"#utility.yul\":7481:7492   */\n      dup2\n        /* \"#utility.yul\":7463:7493   */\n      tag_101\n      jump\t// in\n    tag_208:\n        /* \"#utility.yul\":7452:7493   */\n      swap2\n      pop\n        /* \"#utility.yul\":7642:7643   */\n      dup3\n        /* \"#utility.yul\":7633:7640   */\n      dup3\n        /* \"#utility.yul\":7629:7644   */\n      div\n        /* \"#utility.yul\":7626:7627   */\n      dup5\n        /* \"#utility.yul\":7623:7645   */\n      eq\n        /* \"#utility.yul\":7603:7604   */\n      dup4\n        /* \"#utility.yul\":7596:7605   */\n      iszero\n        /* \"#utility.yul\":7576:7659   */\n      or\n        /* \"#utility.yul\":7553:7692   */\n      tag_209\n      jumpi\n        /* \"#utility.yul\":7672:7690   */\n      tag_210\n      tag_113\n      jump\t// in\n    tag_210:\n        /* \"#utility.yul\":7553:7692   */\n    tag_209:\n        /* \"#utility.yul\":7337:7699   */\n      pop\n        /* \"#utility.yul\":7289:7699   */\n      swap3\n      swap2\n      pop\n      pop\n      jump\t// out\n        /* \"#utility.yul\":7705:7823   */\n    tag_114:\n        /* \"#utility.yul\":7792:7816   */\n      tag_212\n        /* \"#utility.yul\":7810:7815   */\n      dup2\n        /* \"#utility.yul\":7792:7816   */\n      tag_98\n      jump\t// in\n    tag_212:\n        /* \"#utility.yul\":7787:7790   */\n      dup3\n        /* \"#utility.yul\":7780:7817   */\n      mstore\n        /* \"#utility.yul\":7705:7823   */\n      pop\n      pop\n      jump\t// out\n        /* \"#utility.yul\":7829:8161   */\n    tag_38:\n        /* \"#utility.yul\":7950:7954   */\n      0x00\n        /* \"#utility.yul\":7988:7990   */\n      0x40\n        /* \"#utility.yul\":7977:7986   */\n      dup3\n        /* \"#utility.yul\":7973:7991   */\n      add\n        /* \"#utility.yul\":7965:7991   */\n      swap1\n      pop\n        /* \"#utility.yul\":8001:8072   */\n      tag_214\n        /* \"#utility.yul\":8069:8070   */\n      0x00\n        /* \"#utility.yul\":8058:8067   */\n      dup4\n        /* \"#utility.yul\":8054:8071   */\n      add\n        /* \"#utility.yul\":8045:8051   */\n      dup6\n        /* \"#utility.yul\":8001:8072   */\n      tag_114\n      jump\t// in\n    tag_214:\n        /* \"#utility.yul\":8082:8154   */\n      tag_215\n        /* \"#utility.yul\":8150:8152   */\n      0x20\n        /* \"#utility.yul\":8139:8148   */\n      dup4\n        /* \"#utility.yul\":8135:8153   */\n      add\n        /* \"#utility.yul\":8126:8132   */\n      dup5\n        /* \"#utility.yul\":8082:8154   */\n      tag_102\n      jump\t// in\n    tag_215:\n        /* \"#utility.yul\":7829:8161   */\n      swap4\n      swap3\n      pop\n      pop\n      pop\n      jump\t// out\n        /* \"#utility.yul\":8167:8265   */\n    tag_115:\n        /* \"#utility.yul\":8218:8224   */\n      0x00\n        /* \"#utility.yul\":8252:8257   */\n      dup2\n        /* \"#utility.yul\":8246:8258   */\n      mload\n        /* \"#utility.yul\":8236:8258   */\n      swap1\n      pop\n        /* \"#utility.yul\":8167:8265   */\n      swap2\n      swap1\n      pop\n      jump\t// out\n        /* \"#utility.yul\":8271:8418   */\n    tag_116:\n        /* \"#utility.yul\":8372:8383   */\n      0x00\n        /* \"#utility.yul\":8409:8412   */\n      dup2\n        /* \"#utility.yul\":8394:8412   */\n      swap1\n      pop\n        /* \"#utility.yul\":8271:8418   */\n      swap3\n      swap2\n      pop\n      pop\n      jump\t// out\n        /* \"#utility.yul\":8424:8563   */\n    tag_117:\n        /* \"#utility.yul\":8513:8519   */\n      dup3\n        /* \"#utility.yul\":8508:8511   */\n      dup2\n        /* \"#utility.yul\":8503:8506   */\n      dup4\n        /* \"#utility.yul\":8497:8520   */\n      mcopy\n        /* \"#utility.yul\":8554:8555   */\n      0x00\n        /* \"#utility.yul\":8545:8551   */\n      dup4\n        /* \"#utility.yul\":8540:8543   */\n      dup4\n        /* \"#utility.yul\":8536:8552   */\n      add\n        /* \"#utility.yul\":8529:8556   */\n      mstore\n        /* \"#utility.yul\":8424:8563   */\n      pop\n      pop\n      pop\n      jump\t// out\n        /* \"#utility.yul\":8569:8955   */\n    tag_118:\n        /* \"#utility.yul\":8673:8676   */\n      0x00\n        /* \"#utility.yul\":8701:8739   */\n      tag_220\n        /* \"#utility.yul\":8733:8738   */\n      dup3\n        /* \"#utility.yul\":8701:8739   */\n      tag_115\n      jump\t// in\n    tag_220:\n        /* \"#utility.yul\":8755:8843   */\n      tag_221\n        /* \"#utility.yul\":8836:8842   */\n      dup2\n        /* \"#utility.yul\":8831:8834   */\n      dup6\n        /* \"#utility.yul\":8755:8843   */\n      tag_116\n      jump\t// in\n    tag_221:\n        /* \"#utility.yul\":8748:8843   */\n      swap4\n      pop\n        /* \"#utility.yul\":8852:8917   */\n      tag_222\n        /* \"#utility.yul\":8910:8916   */\n      dup2\n        /* \"#utility.yul\":8905:8908   */\n      dup6\n        /* \"#utility.yul\":8898:8902   */\n      0x20\n        /* \"#utility.yul\":8891:8896   */\n      dup7\n        /* \"#utility.yul\":8887:8903   */\n      add\n        /* \"#utility.yul\":8852:8917   */\n      tag_117\n      jump\t// in\n    tag_222:\n        /* \"#utility.yul\":8942:8948   */\n      dup1\n        /* \"#utility.yul\":8937:8940   */\n      dup5\n        /* \"#utility.yul\":8933:8949   */\n      add\n        /* \"#utility.yul\":8926:8949   */\n      swap2\n      pop\n        /* \"#utility.yul\":8677:8955   */\n      pop\n        /* \"#utility.yul\":8569:8955   */\n      swap3\n      swap2\n      pop\n      pop\n      jump\t// out\n        /* \"#utility.yul\":8961:9232   */\n    tag_40:\n        /* \"#utility.yul\":9091:9094   */\n      0x00\n        /* \"#utility.yul\":9113:9206   */\n      tag_224\n        /* \"#utility.yul\":9202:9205   */\n      dup3\n        /* \"#utility.yul\":9193:9199   */\n      dup5\n        /* \"#utility.yul\":9113:9206   */\n      tag_118\n      jump\t// in\n    tag_224:\n        /* \"#utility.yul\":9106:9206   */\n      swap2\n      pop\n        /* \"#utility.yul\":9223:9226   */\n      dup2\n        /* \"#utility.yul\":9216:9226   */\n      swap1\n      pop\n        /* \"#utility.yul\":8961:9232   */\n      swap3\n      swap2\n      pop\n      pop\n      jump\t// out\n        /* \"#utility.yul\":9238:9417   */\n    tag_119:\n        /* \"#utility.yul\":9378:9409   */\n      0x6572726f722076616c69646174655061796d6173746572557365724f70000000\n        /* \"#utility.yul\":9374:9375   */\n      0x00\n        /* \"#utility.yul\":9366:9372   */\n      dup3\n        /* \"#utility.yul\":9362:9376   */\n      add\n        /* \"#utility.yul\":9355:9410   */\n      mstore\n        /* \"#utility.yul\":9238:9417   */\n      pop\n      jump\t// out\n        /* \"#utility.yul\":9423:9789   */\n    tag_120:\n        /* \"#utility.yul\":9565:9568   */\n      0x00\n        /* \"#utility.yul\":9586:9653   */\n      tag_227\n        /* \"#utility.yul\":9650:9652   */\n      0x1d\n        /* \"#utility.yul\":9645:9648   */\n      dup4\n        /* \"#utility.yul\":9586:9653   */\n      tag_106\n      jump\t// in\n    tag_227:\n        /* \"#utility.yul\":9579:9653   */\n      swap2\n      pop\n        /* \"#utility.yul\":9662:9755   */\n      tag_228\n        /* \"#utility.yul\":9751:9754   */\n      dup3\n        /* \"#utility.yul\":9662:9755   */\n      tag_119\n      jump\t// in\n    tag_228:\n        /* \"#utility.yul\":9780:9782   */\n      0x20\n        /* \"#utility.yul\":9775:9778   */\n      dup3\n        /* \"#utility.yul\":9771:9783   */\n      add\n        /* \"#utility.yul\":9764:9783   */\n      swap1\n      pop\n        /* \"#utility.yul\":9423:9789   */\n      swap2\n      swap1\n      pop\n      jump\t// out\n        /* \"#utility.yul\":9795:10214   */\n    tag_46:\n        /* \"#utility.yul\":9961:9965   */\n      0x00\n        /* \"#utility.yul\":9999:10001   */\n      0x20\n        /* \"#utility.yul\":9988:9997   */\n      dup3\n        /* \"#utility.yul\":9984:10002   */\n      add\n        /* \"#utility.yul\":9976:10002   */\n      swap1\n      pop\n        /* \"#utility.yul\":10048:10057   */\n      dup2\n        /* \"#utility.yul\":10042:10046   */\n      dup2\n        /* \"#utility.yul\":10038:10058   */\n      sub\n        /* \"#utility.yul\":10034:10035   */\n      0x00\n        /* \"#utility.yul\":10023:10032   */\n      dup4\n        /* \"#utility.yul\":10019:10036   */\n      add\n        /* \"#utility.yul\":10012:10059   */\n      mstore\n        /* \"#utility.yul\":10076:10207   */\n      tag_230\n        /* \"#utility.yul\":10202:10206   */\n      dup2\n        /* \"#utility.yul\":10076:10207   */\n      tag_120\n      jump\t// in\n    tag_230:\n        /* \"#utility.yul\":10068:10207   */\n      swap1\n      pop\n        /* \"#utility.yul\":9795:10214   */\n      swap2\n      swap1\n      pop\n      jump\t// out\n        /* \"#utility.yul\":10220:10297   */\n    tag_121:\n        /* \"#utility.yul\":10257:10264   */\n      0x00\n        /* \"#utility.yul\":10286:10291   */\n      dup2\n        /* \"#utility.yul\":10275:10291   */\n      swap1\n      pop\n        /* \"#utility.yul\":10220:10297   */\n      swap2\n      swap1\n      pop\n      jump\t// out\n        /* \"#utility.yul\":10303:10421   */\n    tag_122:\n        /* \"#utility.yul\":10390:10414   */\n      tag_233\n        /* \"#utility.yul\":10408:10413   */\n      dup2\n        /* \"#utility.yul\":10390:10414   */\n      tag_121\n      jump\t// in\n    tag_233:\n        /* \"#utility.yul\":10385:10388   */\n      dup3\n        /* \"#utility.yul\":10378:10415   */\n      mstore\n        /* \"#utility.yul\":10303:10421   */\n      pop\n      pop\n      jump\t// out\n        /* \"#utility.yul\":10427:10595   */\n    tag_123:\n        /* \"#utility.yul\":10510:10521   */\n      0x00\n        /* \"#utility.yul\":10544:10550   */\n      dup3\n        /* \"#utility.yul\":10539:10542   */\n      dup3\n        /* \"#utility.yul\":10532:10551   */\n      mstore\n        /* \"#utility.yul\":10584:10588   */\n      0x20\n        /* \"#utility.yul\":10579:10582   */\n      dup3\n        /* \"#utility.yul\":10575:10589   */\n      add\n        /* \"#utility.yul\":10560:10589   */\n      swap1\n      pop\n        /* \"#utility.yul\":10427:10595   */\n      swap3\n      swap2\n      pop\n      pop\n      jump\t// out\n        /* \"#utility.yul\":10601:10749   */\n    tag_124:\n        /* \"#utility.yul\":10699:10705   */\n      dup3\n        /* \"#utility.yul\":10694:10697   */\n      dup2\n        /* \"#utility.yul\":10689:10692   */\n      dup4\n        /* \"#utility.yul\":10676:10706   */\n      calldatacopy\n        /* \"#utility.yul\":10740:10741   */\n      0x00\n        /* \"#utility.yul\":10731:10737   */\n      dup4\n        /* \"#utility.yul\":10726:10729   */\n      dup4\n        /* \"#utility.yul\":10722:10738   */\n      add\n        /* \"#utility.yul\":10715:10742   */\n      mstore\n        /* \"#utility.yul\":10601:10749   */\n      pop\n      pop\n      pop\n      jump\t// out\n        /* \"#utility.yul\":10755:10857   */\n    tag_125:\n        /* \"#utility.yul\":10796:10802   */\n      0x00\n        /* \"#utility.yul\":10847:10849   */\n      0x1f\n        /* \"#utility.yul\":10843:10850   */\n      not\n        /* \"#utility.yul\":10838:10840   */\n      0x1f\n        /* \"#utility.yul\":10831:10836   */\n      dup4\n        /* \"#utility.yul\":10827:10841   */\n      add\n        /* \"#utility.yul\":10823:10851   */\n      and\n        /* \"#utility.yul\":10813:10851   */\n      swap1\n      pop\n        /* \"#utility.yul\":10755:10857   */\n      swap2\n      swap1\n      pop\n      jump\t// out\n        /* \"#utility.yul\":10885:11199   */\n    tag_126:\n        /* \"#utility.yul\":10981:10984   */\n      0x00\n        /* \"#utility.yul\":11002:11072   */\n      tag_238\n        /* \"#utility.yul\":11065:11071   */\n      dup4\n        /* \"#utility.yul\":11060:11063   */\n      dup6\n        /* \"#utility.yul\":11002:11072   */\n      tag_123\n      jump\t// in\n    tag_238:\n        /* \"#utility.yul\":10995:11072   */\n      swap4\n      pop\n        /* \"#utility.yul\":11082:11138   */\n      tag_239\n        /* \"#utility.yul\":11131:11137   */\n      dup4\n        /* \"#utility.yul\":11126:11129   */\n      dup6\n        /* \"#utility.yul\":11119:11124   */\n      dup5\n        /* \"#utility.yul\":11082:11138   */\n      tag_124\n      jump\t// in\n    tag_239:\n        /* \"#utility.yul\":11163:11192   */\n      tag_240\n        /* \"#utility.yul\":11185:11191   */\n      dup4\n        /* \"#utility.yul\":11163:11192   */\n      tag_125\n      jump\t// in\n    tag_240:\n        /* \"#utility.yul\":11158:11161   */\n      dup5\n        /* \"#utility.yul\":11154:11193   */\n      add\n        /* \"#utility.yul\":11147:11193   */\n      swap1\n      pop\n        /* \"#utility.yul\":10885:11199   */\n      swap4\n      swap3\n      pop\n      pop\n      pop\n      jump\t// out\n        /* \"#utility.yul\":11205:11644   */\n    tag_54:\n        /* \"#utility.yul\":11354:11358   */\n      0x00\n        /* \"#utility.yul\":11392:11394   */\n      0x40\n        /* \"#utility.yul\":11381:11390   */\n      dup3\n        /* \"#utility.yul\":11377:11395   */\n      add\n        /* \"#utility.yul\":11369:11395   */\n      swap1\n      pop\n        /* \"#utility.yul\":11405:11476   */\n      tag_242\n        /* \"#utility.yul\":11473:11474   */\n      0x00\n        /* \"#utility.yul\":11462:11471   */\n      dup4\n        /* \"#utility.yul\":11458:11475   */\n      add\n        /* \"#utility.yul\":11449:11455   */\n      dup7\n        /* \"#utility.yul\":11405:11476   */\n      tag_122\n      jump\t// in\n    tag_242:\n        /* \"#utility.yul\":11523:11532   */\n      dup2\n        /* \"#utility.yul\":11517:11521   */\n      dup2\n        /* \"#utility.yul\":11513:11533   */\n      sub\n        /* \"#utility.yul\":11508:11510   */\n      0x20\n        /* \"#utility.yul\":11497:11506   */\n      dup4\n        /* \"#utility.yul\":11493:11511   */\n      add\n        /* \"#utility.yul\":11486:11534   */\n      mstore\n        /* \"#utility.yul\":11551:11637   */\n      tag_243\n        /* \"#utility.yul\":11632:11636   */\n      dup2\n        /* \"#utility.yul\":11623:11629   */\n      dup5\n        /* \"#utility.yul\":11615:11621   */\n      dup7\n        /* \"#utility.yul\":11551:11637   */\n      tag_126\n      jump\t// in\n    tag_243:\n        /* \"#utility.yul\":11543:11637   */\n      swap1\n      pop\n        /* \"#utility.yul\":11205:11644   */\n      swap5\n      swap4\n      pop\n      pop\n      pop\n      pop\n      jump\t// out\n        /* \"#utility.yul\":11650:11822   */\n    tag_127:\n        /* \"#utility.yul\":11790:11814   */\n      0x697356616c69645369676e61747572652065726f727200000000000000000000\n        /* \"#utility.yul\":11786:11787   */\n      0x00\n        /* \"#utility.yul\":11778:11784   */\n      dup3\n        /* \"#utility.yul\":11774:11788   */\n      add\n        /* \"#utility.yul\":11767:11815   */\n      mstore\n        /* \"#utility.yul\":11650:11822   */\n      pop\n      jump\t// out\n        /* \"#utility.yul\":11828:12194   */\n    tag_128:\n        /* \"#utility.yul\":11970:11973   */\n      0x00\n        /* \"#utility.yul\":11991:12058   */\n      tag_246\n        /* \"#utility.yul\":12055:12057   */\n      0x16\n        /* \"#utility.yul\":12050:12053   */\n      dup4\n        /* \"#utility.yul\":11991:12058   */\n      tag_106\n      jump\t// in\n    tag_246:\n        /* \"#utility.yul\":11984:12058   */\n      swap2\n      pop\n        /* \"#utility.yul\":12067:12160   */\n      tag_247\n        /* \"#utility.yul\":12156:12159   */\n      dup3\n        /* \"#utility.yul\":12067:12160   */\n      tag_127\n      jump\t// in\n    tag_247:\n        /* \"#utility.yul\":12185:12187   */\n      0x20\n        /* \"#utility.yul\":12180:12183   */\n      dup3\n        /* \"#utility.yul\":12176:12188   */\n      add\n        /* \"#utility.yul\":12169:12188   */\n      swap1\n      pop\n        /* \"#utility.yul\":11828:12194   */\n      swap2\n      swap1\n      pop\n      jump\t// out\n        /* \"#utility.yul\":12200:12619   */\n    tag_61:\n        /* \"#utility.yul\":12366:12370   */\n      0x00\n        /* \"#utility.yul\":12404:12406   */\n      0x20\n        /* \"#utility.yul\":12393:12402   */\n      dup3\n        /* \"#utility.yul\":12389:12407   */\n      add\n        /* \"#utility.yul\":12381:12407   */\n      swap1\n      pop\n        /* \"#utility.yul\":12453:12462   */\n      dup2\n        /* \"#utility.yul\":12447:12451   */\n      dup2\n        /* \"#utility.yul\":12443:12463   */\n      sub\n        /* \"#utility.yul\":12439:12440   */\n      0x00\n        /* \"#utility.yul\":12428:12437   */\n      dup4\n        /* \"#utility.yul\":12424:12441   */\n      add\n        /* \"#utility.yul\":12417:12464   */\n      mstore\n        /* \"#utility.yul\":12481:12612   */\n      tag_249\n        /* \"#utility.yul\":12607:12611   */\n      dup2\n        /* \"#utility.yul\":12481:12612   */\n      tag_128\n      jump\t// in\n    tag_249:\n        /* \"#utility.yul\":12473:12612   */\n      swap1\n      pop\n        /* \"#utility.yul\":12200:12619   */\n      swap2\n      swap1\n      pop\n      jump\t// out\n        /* \"#utility.yul\":12647:12974   */\n    tag_129:\n        /* \"#utility.yul\":12761:12764   */\n      0x00\n        /* \"#utility.yul\":12782:12870   */\n      tag_251\n        /* \"#utility.yul\":12863:12869   */\n      dup4\n        /* \"#utility.yul\":12858:12861   */\n      dup6\n        /* \"#utility.yul\":12782:12870   */\n      tag_116\n      jump\t// in\n    tag_251:\n        /* \"#utility.yul\":12775:12870   */\n      swap4\n      pop\n        /* \"#utility.yul\":12880:12936   */\n      tag_252\n        /* \"#utility.yul\":12929:12935   */\n      dup4\n        /* \"#utility.yul\":12924:12927   */\n      dup6\n        /* \"#utility.yul\":12917:12922   */\n      dup5\n        /* \"#utility.yul\":12880:12936   */\n      tag_124\n      jump\t// in\n    tag_252:\n        /* \"#utility.yul\":12961:12967   */\n      dup3\n        /* \"#utility.yul\":12956:12959   */\n      dup5\n        /* \"#utility.yul\":12952:12968   */\n      add\n        /* \"#utility.yul\":12945:12968   */\n      swap1\n      pop\n        /* \"#utility.yul\":12647:12974   */\n      swap4\n      swap3\n      pop\n      pop\n      pop\n      jump\t// out\n        /* \"#utility.yul\":12980:13271   */\n    tag_65:\n        /* \"#utility.yul\":13120:13123   */\n      0x00\n        /* \"#utility.yul\":13142:13245   */\n      tag_254\n        /* \"#utility.yul\":13241:13244   */\n      dup3\n        /* \"#utility.yul\":13232:13238   */\n      dup5\n        /* \"#utility.yul\":13224:13230   */\n      dup7\n        /* \"#utility.yul\":13142:13245   */\n      tag_129\n      jump\t// in\n    tag_254:\n        /* \"#utility.yul\":13135:13245   */\n      swap2\n      pop\n        /* \"#utility.yul\":13262:13265   */\n      dup2\n        /* \"#utility.yul\":13255:13265   */\n      swap1\n      pop\n        /* \"#utility.yul\":12980:13271   */\n      swap4\n      swap3\n      pop\n      pop\n      pop\n      jump\t// out\n        /* \"#utility.yul\":13277:13367   */\n    tag_130:\n        /* \"#utility.yul\":13311:13318   */\n      0x00\n        /* \"#utility.yul\":13354:13359   */\n      dup2\n        /* \"#utility.yul\":13347:13360   */\n      iszero\n        /* \"#utility.yul\":13340:13361   */\n      iszero\n        /* \"#utility.yul\":13329:13361   */\n      swap1\n      pop\n        /* \"#utility.yul\":13277:13367   */\n      swap2\n      swap1\n      pop\n      jump\t// out\n        /* \"#utility.yul\":13373:13482   */\n    tag_131:\n        /* \"#utility.yul\":13454:13475   */\n      tag_257\n        /* \"#utility.yul\":13469:13474   */\n      dup2\n        /* \"#utility.yul\":13454:13475   */\n      tag_130\n      jump\t// in\n    tag_257:\n        /* \"#utility.yul\":13449:13452   */\n      dup3\n        /* \"#utility.yul\":13442:13476   */\n      mstore\n        /* \"#utility.yul\":13373:13482   */\n      pop\n      pop\n      jump\t// out\n        /* \"#utility.yul\":13488:13698   */\n    tag_71:\n        /* \"#utility.yul\":13575:13579   */\n      0x00\n        /* \"#utility.yul\":13613:13615   */\n      0x20\n        /* \"#utility.yul\":13602:13611   */\n      dup3\n        /* \"#utility.yul\":13598:13616   */\n      add\n        /* \"#utility.yul\":13590:13616   */\n      swap1\n      pop\n        /* \"#utility.yul\":13626:13691   */\n      tag_259\n        /* \"#utility.yul\":13688:13689   */\n      0x00\n        /* \"#utility.yul\":13677:13686   */\n      dup4\n        /* \"#utility.yul\":13673:13690   */\n      add\n        /* \"#utility.yul\":13664:13670   */\n      dup5\n        /* \"#utility.yul\":13626:13691   */\n      tag_131\n      jump\t// in\n    tag_259:\n        /* \"#utility.yul\":13488:13698   */\n      swap3\n      swap2\n      pop\n      pop\n      jump\t// out\n        /* \"#utility.yul\":13704:13937   */\n    tag_74:\n        /* \"#utility.yul\":13743:13746   */\n      0x00\n        /* \"#utility.yul\":13766:13790   */\n      tag_261\n        /* \"#utility.yul\":13784:13789   */\n      dup3\n        /* \"#utility.yul\":13766:13790   */\n      tag_101\n      jump\t// in\n    tag_261:\n        /* \"#utility.yul\":13757:13790   */\n      swap2\n      pop\n        /* \"#utility.yul\":13812:13878   */\n      0xffffffffffffffffffffffffffffffffffffffffffffffffffffffffffffffff\n        /* \"#utility.yul\":13805:13810   */\n      dup3\n        /* \"#utility.yul\":13802:13879   */\n      sub\n        /* \"#utility.yul\":13799:13902   */\n      tag_262\n      jumpi\n        /* \"#utility.yul\":13882:13900   */\n      tag_263\n      tag_113\n      jump\t// in\n    tag_263:\n        /* \"#utility.yul\":13799:13902   */\n    tag_262:\n        /* \"#utility.yul\":13929:13930   */\n      0x01\n        /* \"#utility.yul\":13922:13927   */\n      dup3\n        /* \"#utility.yul\":13918:13931   */\n      add\n        /* \"#utility.yul\":13911:13931   */\n      swap1\n      pop\n        /* \"#utility.yul\":13704:13937   */\n      swap2\n      swap1\n      pop\n      jump\t// out\n        /* \"#utility.yul\":13943:15275   */\n    tag_86:\n        /* \"#utility.yul\":14317:14321   */\n      0x00\n        /* \"#utility.yul\":14355:14358   */\n      0x0160\n        /* \"#utility.yul\":14344:14353   */\n      dup3\n        /* \"#utility.yul\":14340:14359   */\n      add\n        /* \"#utility.yul\":14332:14359   */\n      swap1\n      pop\n        /* \"#utility.yul\":14369:14440   */\n      tag_265\n        /* \"#utility.yul\":14437:14438   */\n      0x00\n        /* \"#utility.yul\":14426:14435   */\n      dup4\n        /* \"#utility.yul\":14422:14439   */\n      add\n        /* \"#utility.yul\":14413:14419   */\n      dup15\n        /* \"#utility.yul\":14369:14440   */\n      tag_114\n      jump\t// in\n    tag_265:\n        /* \"#utility.yul\":14450:14522   */\n      tag_266\n        /* \"#utility.yul\":14518:14520   */\n      0x20\n        /* \"#utility.yul\":14507:14516   */\n      dup4\n        /* \"#utility.yul\":14503:14521   */\n      add\n        /* \"#utility.yul\":14494:14500   */\n      dup14\n        /* \"#utility.yul\":14450:14522   */\n      tag_102\n      jump\t// in\n    tag_266:\n        /* \"#utility.yul\":14532:14604   */\n      tag_267\n        /* \"#utility.yul\":14600:14602   */\n      0x40\n        /* \"#utility.yul\":14589:14598   */\n      dup4\n        /* \"#utility.yul\":14585:14603   */\n      add\n        /* \"#utility.yul\":14576:14582   */\n      dup13\n        /* \"#utility.yul\":14532:14604   */\n      tag_122\n      jump\t// in\n    tag_267:\n        /* \"#utility.yul\":14614:14686   */\n      tag_268\n        /* \"#utility.yul\":14682:14684   */\n      0x60\n        /* \"#utility.yul\":14671:14680   */\n      dup4\n        /* \"#utility.yul\":14667:14685   */\n      add\n        /* \"#utility.yul\":14658:14664   */\n      dup12\n        /* \"#utility.yul\":14614:14686   */\n      tag_122\n      jump\t// in\n    tag_268:\n        /* \"#utility.yul\":14696:14769   */\n      tag_269\n        /* \"#utility.yul\":14764:14767   */\n      0x80\n        /* \"#utility.yul\":14753:14762   */\n      dup4\n        /* \"#utility.yul\":14749:14768   */\n      add\n        /* \"#utility.yul\":14740:14746   */\n      dup11\n        /* \"#utility.yul\":14696:14769   */\n      tag_102\n      jump\t// in\n    tag_269:\n        /* \"#utility.yul\":14779:14852   */\n      tag_270\n        /* \"#utility.yul\":14847:14850   */\n      0xa0\n        /* \"#utility.yul\":14836:14845   */\n      dup4\n        /* \"#utility.yul\":14832:14851   */\n      add\n        /* \"#utility.yul\":14823:14829   */\n      dup10\n        /* \"#utility.yul\":14779:14852   */\n      tag_102\n      jump\t// in\n    tag_270:\n        /* \"#utility.yul\":14862:14935   */\n      tag_271\n        /* \"#utility.yul\":14930:14933   */\n      0xc0\n        /* \"#utility.yul\":14919:14928   */\n      dup4\n        /* \"#utility.yul\":14915:14934   */\n      add\n        /* \"#utility.yul\":14906:14912   */\n      dup9\n        /* \"#utility.yul\":14862:14935   */\n      tag_102\n      jump\t// in\n    tag_271:\n        /* \"#utility.yul\":14945:15018   */\n      tag_272\n        /* \"#utility.yul\":15013:15016   */\n      0xe0\n        /* \"#utility.yul\":15002:15011   */\n      dup4\n        /* \"#utility.yul\":14998:15017   */\n      add\n        /* \"#utility.yul\":14989:14995   */\n      dup8\n        /* \"#utility.yul\":14945:15018   */\n      tag_102\n      jump\t// in\n    tag_272:\n        /* \"#utility.yul\":15028:15101   */\n      tag_273\n        /* \"#utility.yul\":15096:15099   */\n      0x0100\n        /* \"#utility.yul\":15085:15094   */\n      dup4\n        /* \"#utility.yul\":15081:15100   */\n      add\n        /* \"#utility.yul\":15072:15078   */\n      dup7\n        /* \"#utility.yul\":15028:15101   */\n      tag_102\n      jump\t// in\n    tag_273:\n        /* \"#utility.yul\":15111:15184   */\n      tag_274\n        /* \"#utility.yul\":15179:15182   */\n      0x0120\n        /* \"#utility.yul\":15168:15177   */\n      dup4\n        /* \"#utility.yul\":15164:15183   */\n      add\n        /* \"#utility.yul\":15155:15161   */\n      dup6\n        /* \"#utility.yul\":15111:15184   */\n      tag_122\n      jump\t// in\n    tag_274:\n        /* \"#utility.yul\":15194:15268   */\n      tag_275\n        /* \"#utility.yul\":15263:15266   */\n      0x0140\n        /* \"#utility.yul\":15252:15261   */\n      dup4\n        /* \"#utility.yul\":15248:15267   */\n      add\n        /* \"#utility.yul\":15238:15245   */\n      dup5\n        /* \"#utility.yul\":15194:15268   */\n      tag_122\n      jump\t// in\n    tag_275:\n        /* \"#utility.yul\":13943:15275   */\n      swap13\n      swap12\n      pop\n      pop\n      pop\n      pop\n      pop\n      pop\n      pop\n      pop\n      pop\n      pop\n      pop\n      pop\n      jump\t// out\n        /* \"#utility.yul\":15281:15429   */\n    tag_132:\n        /* \"#utility.yul\":15383:15394   */\n      0x00\n        /* \"#utility.yul\":15420:15423   */\n      dup2\n        /* \"#utility.yul\":15405:15423   */\n      swap1\n      pop\n        /* \"#utility.yul\":15281:15429   */\n      swap3\n      swap2\n      pop\n      pop\n      jump\t// out\n        /* \"#utility.yul\":15435:15649   */\n    tag_133:\n        /* \"#utility.yul\":15575:15641   */\n      0x19457468657265756d205369676e6564204d6573736167653a0a333200000000\n        /* \"#utility.yul\":15571:15572   */\n      0x00\n        /* \"#utility.yul\":15563:15569   */\n      dup3\n        /* \"#utility.yul\":15559:15573   */\n      add\n        /* \"#utility.yul\":15552:15642   */\n      mstore\n        /* \"#utility.yul\":15435:15649   */\n      pop\n      jump\t// out\n        /* \"#utility.yul\":15655:16057   */\n    tag_134:\n        /* \"#utility.yul\":15815:15818   */\n      0x00\n        /* \"#utility.yul\":15836:15921   */\n      tag_279\n        /* \"#utility.yul\":15918:15920   */\n      0x1c\n        /* \"#utility.yul\":15913:15916   */\n      dup4\n        /* \"#utility.yul\":15836:15921   */\n      tag_132\n      jump\t// in\n    tag_279:\n        /* \"#utility.yul\":15829:15921   */\n      swap2\n      pop\n        /* \"#utility.yul\":15930:16023   */\n      tag_280\n        /* \"#utility.yul\":16019:16022   */\n      dup3\n        /* \"#utility.yul\":15930:16023   */\n      tag_133\n      jump\t// in\n    tag_280:\n        /* \"#utility.yul\":16048:16050   */\n      0x1c\n        /* \"#utility.yul\":16043:16046   */\n      dup3\n        /* \"#utility.yul\":16039:16051   */\n      add\n        /* \"#utility.yul\":16032:16051   */\n      swap1\n      pop\n        /* \"#utility.yul\":15655:16057   */\n      swap2\n      swap1\n      pop\n      jump\t// out\n        /* \"#utility.yul\":16063:16142   */\n    tag_135:\n        /* \"#utility.yul\":16102:16109   */\n      0x00\n        /* \"#utility.yul\":16131:16136   */\n      dup2\n        /* \"#utility.yul\":16120:16136   */\n      swap1\n      pop\n        /* \"#utility.yul\":16063:16142   */\n      swap2\n      swap1\n      pop\n      jump\t// out\n        /* \"#utility.yul\":16148:16305   */\n    tag_136:\n        /* \"#utility.yul\":16253:16298   */\n      tag_283\n        /* \"#utility.yul\":16273:16297   */\n      tag_284\n        /* \"#utility.yul\":16291:16296   */\n      dup3\n        /* \"#utility.yul\":16273:16297   */\n      tag_121\n      jump\t// in\n    tag_284:\n        /* \"#utility.yul\":16253:16298   */\n      tag_135\n      jump\t// in\n    tag_283:\n        /* \"#utility.yul\":16248:16251   */\n      dup3\n        /* \"#utility.yul\":16241:16299   */\n      mstore\n        /* \"#utility.yul\":16148:16305   */\n      pop\n      pop\n      jump\t// out\n        /* \"#utility.yul\":16311:16833   */\n    tag_89:\n        /* \"#utility.yul\":16524:16527   */\n      0x00\n        /* \"#utility.yul\":16546:16694   */\n      tag_286\n        /* \"#utility.yul\":16690:16693   */\n      dup3\n        /* \"#utility.yul\":16546:16694   */\n      tag_134\n      jump\t// in\n    tag_286:\n        /* \"#utility.yul\":16539:16694   */\n      swap2\n      pop\n        /* \"#utility.yul\":16704:16779   */\n      tag_287\n        /* \"#utility.yul\":16775:16778   */\n      dup3\n        /* \"#utility.yul\":16766:16772   */\n      dup5\n        /* \"#utility.yul\":16704:16779   */\n      tag_136\n      jump\t// in\n    tag_287:\n        /* \"#utility.yul\":16804:16806   */\n      0x20\n        /* \"#utility.yul\":16799:16802   */\n      dup3\n        /* \"#utility.yul\":16795:16807   */\n      add\n        /* \"#utility.yul\":16788:16807   */\n      swap2\n      pop\n        /* \"#utility.yul\":16824:16827   */\n      dup2\n        /* \"#utility.yul\":16817:16827   */\n      swap1\n      pop\n        /* \"#utility.yul\":16311:16833   */\n      swap3\n      swap2\n      pop\n      pop\n      jump\t// out\n\n    auxdata: 0xa2646970667358221220ad5fae99f62b4661411dfef9bfdc2d4445c6bd4e357e43bc16d6ab20ee76d59b64736f6c634300081e0033\n}\n",
				"bytecode": {
					"linkReferences": {},
					"object": "6080604052348015600e575f5ffd5b50610efc8061001c5f395ff3fe608060405234801561000f575f5ffd5b5060043610610034575f3560e01c8063532d3ac9146100385780637ecebe0014610054575b5f5ffd5b610052600480360381019061004d9190610775565b610084565b005b61006e6004803603810190610069919061081a565b6105c6565b60405161007b919061085d565b60405180910390f35b5f5f90505b828290508110156105c157368383838181106100a8576100a7610876565b5b90506020028101906100ba91906108af565b90505f5f825f0160208101906100d0919061081a565b73ffffffffffffffffffffffffffffffffffffffff1673ffffffffffffffffffffffffffffffffffffffff1681526020019081526020015f205481602001351461014f576040517f08c379a000000000000000000000000000000000000000000000000000000000815260040161014690610931565b60405180910390fd5b601481806101200190610162919061094f565b9050106102ee575f8180610120019061017b919061094f565b9061018691906109f2565b60601c90505f8260e0013583608001356101a09190610a7d565b90505f8273ffffffffffffffffffffffffffffffffffffffff16845f0160208101906101cc919061081a565b836040516024016101de929190610acd565b6040516020818303038152906040527f8acfa3c5000000000000000000000000000000000000000000000000000000007bffffffffffffffffffffffffffffffffffffffffffffffffffffffff19166020820180517bffffffffffffffffffffffffffffffffffffffffffffffffffffffff83818316178352505050506040516102689190610b46565b5f604051808303815f865af19150503d805f81146102a1576040519150601f19603f3d011682016040523d82523d5f602084013e6102a6565b606091505b50509050806102ea576040517f08c379a00000000000000000000000000000000000000000000000000000000081526004016102e190610ba6565b60405180910390fd5b5050505b5f6102f8826105da565b90505f610304826106dd565b90505f835f016020810190610319919061081a565b73ffffffffffffffffffffffffffffffffffffffff168285806101400190610341919061094f565b60405160240161035393929190610c36565b6040516020818303038152906040527f1626ba7e000000000000000000000000000000000000000000000000000000007bffffffffffffffffffffffffffffffffffffffffffffffffffffffff19166020820180517bffffffffffffffffffffffffffffffffffffffffffffffffffffffff83818316178352505050506040516103dd9190610b46565b5f604051808303815f865af19150503d805f8114610416576040519150601f19603f3d011682016040523d82523d5f602084013e61041b565b606091505b505090508061045f576040517f08c379a000000000000000000000000000000000000000000000000000000000815260040161045690610cb0565b60405180910390fd5b5f845f016020810190610472919061081a565b73ffffffffffffffffffffffffffffffffffffffff16856080013586806060019061049d919061094f565b6040516104ab929190610cf2565b5f604051808303815f8787f1925050503d805f81146104e5576040519150601f19603f3d011682016040523d82523d5f602084013e6104ea565b606091505b50509050845f016020810190610500919061081a565b73ffffffffffffffffffffffffffffffffffffffff167ffabd71a6a054cecabcaaaaf05732bd211bf392251cf8ba90b2077c73e89b66d9826040516105459190610d24565b60405180910390a25f5f865f016020810190610561919061081a565b73ffffffffffffffffffffffffffffffffffffffff1673ffffffffffffffffffffffffffffffffffffffff1681526020019081526020015f205f8154809291906105aa90610d3d565b919050555050505050508080600101915050610089565b505050565b5f602052805f5260405f205f915090505481565b5f815f0160208101906105ed919061081a565b8260200135838060400190610602919061094f565b604051610610929190610cf2565b6040518091039020848060600190610628919061094f565b604051610636929190610cf2565b604051809103902085608001358660a001358760c001358860e001358961010001358a806101200190610669919061094f565b604051610677929190610cf2565b60405180910390208b806101400190610690919061094f565b60405161069e929190610cf2565b60405180910390206040516020016106c09b9a99989796959493929190610d84565b604051602081830303815290604052805190602001209050919050565b5f816040516020016106ef9190610ea1565b604051602081830303815290604052805190602001209050919050565b5f5ffd5b5f5ffd5b5f5ffd5b5f5ffd5b5f5ffd5b5f5f83601f84011261073557610734610714565b5b8235905067ffffffffffffffff81111561075257610751610718565b5b60208301915083602082028301111561076e5761076d61071c565b5b9250929050565b5f5f6020838503121561078b5761078a61070c565b5b5f83013567ffffffffffffffff8111156107a8576107a7610710565b5b6107b485828601610720565b92509250509250929050565b5f73ffffffffffffffffffffffffffffffffffffffff82169050919050565b5f6107e9826107c0565b9050919050565b6107f9816107df565b8114610803575f5ffd5b50565b5f81359050610814816107f0565b92915050565b5f6020828403121561082f5761082e61070c565b5b5f61083c84828501610806565b91505092915050565b5f819050919050565b61085781610845565b82525050565b5f6020820190506108705f83018461084e565b92915050565b7f4e487b71000000000000000000000000000000000000000000000000000000005f52603260045260245ffd5b5f5ffd5b5f5ffd5b5f5ffd5b5f82356001610160038336030381126108cb576108ca6108a3565b5b80830191505092915050565b5f82825260208201905092915050565b7f6e6f6e6365206572726f720000000000000000000000000000000000000000005f82015250565b5f61091b600b836108d7565b9150610926826108e7565b602082019050919050565b5f6020820190508181035f8301526109488161090f565b9050919050565b5f5f8335600160200384360303811261096b5761096a6108a3565b5b80840192508235915067ffffffffffffffff82111561098d5761098c6108a7565b5b6020830192506001820236038313156109a9576109a86108ab565b5b509250929050565b5f82905092915050565b5f7fffffffffffffffffffffffffffffffffffffffff00000000000000000000000082169050919050565b5f82821b905092915050565b5f6109fd83836109b1565b82610a0881356109bb565b92506014821015610a4857610a437fffffffffffffffffffffffffffffffffffffffff000000000000000000000000836014036008026109e6565b831692505b505092915050565b7f4e487b71000000000000000000000000000000000000000000000000000000005f52601160045260245ffd5b5f610a8782610845565b9150610a9283610845565b9250828202610aa081610845565b91508282048414831517610ab757610ab6610a50565b5b5092915050565b610ac7816107df565b82525050565b5f604082019050610ae05f830185610abe565b610aed602083018461084e565b9392505050565b5f81519050919050565b5f81905092915050565b8281835e5f83830152505050565b5f610b2082610af4565b610b2a8185610afe565b9350610b3a818560208601610b08565b80840191505092915050565b5f610b518284610b16565b915081905092915050565b7f6572726f722076616c69646174655061796d6173746572557365724f700000005f82015250565b5f610b90601d836108d7565b9150610b9b82610b5c565b602082019050919050565b5f6020820190508181035f830152610bbd81610b84565b9050919050565b5f819050919050565b610bd681610bc4565b82525050565b5f82825260208201905092915050565b828183375f83830152505050565b5f601f19601f8301169050919050565b5f610c158385610bdc565b9350610c22838584610bec565b610c2b83610bfa565b840190509392505050565b5f604082019050610c495f830186610bcd565b8181036020830152610c5c818486610c0a565b9050949350505050565b7f697356616c69645369676e61747572652065726f7272000000000000000000005f82015250565b5f610c9a6016836108d7565b9150610ca582610c66565b602082019050919050565b5f6020820190508181035f830152610cc781610c8e565b9050919050565b5f610cd98385610afe565b9350610ce6838584610bec565b82840190509392505050565b5f610cfe828486610cce565b91508190509392505050565b5f8115159050919050565b610d1e81610d0a565b82525050565b5f602082019050610d375f830184610d15565b92915050565b5f610d4782610845565b91507fffffffffffffffffffffffffffffffffffffffffffffffffffffffffffffffff8203610d7957610d78610a50565b5b600182019050919050565b5f61016082019050610d985f83018e610abe565b610da5602083018d61084e565b610db2604083018c610bcd565b610dbf606083018b610bcd565b610dcc608083018a61084e565b610dd960a083018961084e565b610de660c083018861084e565b610df360e083018761084e565b610e0161010083018661084e565b610e0f610120830185610bcd565b610e1d610140830184610bcd565b9c9b505050505050505050505050565b5f81905092915050565b7f19457468657265756d205369676e6564204d6573736167653a0a3332000000005f82015250565b5f610e6b601c83610e2d565b9150610e7682610e37565b601c82019050919050565b5f819050919050565b610e9b610e9682610bc4565b610e81565b82525050565b5f610eab82610e5f565b9150610eb78284610e8a565b6020820191508190509291505056fea2646970667358221220ad5fae99f62b4661411dfef9bfdc2d4445c6bd4e357e43bc16d6ab20ee76d59b64736f6c634300081e0033",
					"opcodes": "PUSH1 0x80 PUSH1 0x40 MSTORE CALLVALUE DUP1 ISZERO PUSH1 0xE JUMPI PUSH0 PUSH0 REVERT JUMPDEST POP PUSH2 0xEFC DUP1 PUSH2 0x1C PUSH0 CODECOPY PUSH0 RETURN INVALID PUSH1 0x80 PUSH1 0x40 MSTORE CALLVALUE DUP1 ISZERO PUSH2 0xF JUMPI PUSH0 PUSH0 REVERT JUMPDEST POP PUSH1 0x4 CALLDATASIZE LT PUSH2 0x34 JUMPI PUSH0 CALLDATALOAD PUSH1 0xE0 SHR DUP1 PUSH4 0x532D3AC9 EQ PUSH2 0x38 JUMPI DUP1 PUSH4 0x7ECEBE00 EQ PUSH2 0x54 JUMPI JUMPDEST PUSH0 PUSH0 REVERT JUMPDEST PUSH2 0x52 PUSH1 0x4 DUP1 CALLDATASIZE SUB DUP2 ADD SWAP1 PUSH2 0x4D SWAP2 SWAP1 PUSH2 0x775 JUMP JUMPDEST PUSH2 0x84 JUMP JUMPDEST STOP JUMPDEST PUSH2 0x6E PUSH1 0x4 DUP1 CALLDATASIZE SUB DUP2 ADD SWAP1 PUSH2 0x69 SWAP2 SWAP1 PUSH2 0x81A JUMP JUMPDEST PUSH2 0x5C6 JUMP JUMPDEST PUSH1 0x40 MLOAD PUSH2 0x7B SWAP2 SWAP1 PUSH2 0x85D JUMP JUMPDEST PUSH1 0x40 MLOAD DUP1 SWAP2 SUB SWAP1 RETURN JUMPDEST PUSH0 PUSH0 SWAP1 POP JUMPDEST DUP3 DUP3 SWAP1 POP DUP2 LT ISZERO PUSH2 0x5C1 JUMPI CALLDATASIZE DUP4 DUP4 DUP4 DUP2 DUP2 LT PUSH2 0xA8 JUMPI PUSH2 0xA7 PUSH2 0x876 JUMP JUMPDEST JUMPDEST SWAP1 POP PUSH1 0x20 MUL DUP2 ADD SWAP1 PUSH2 0xBA SWAP2 SWAP1 PUSH2 0x8AF JUMP JUMPDEST SWAP1 POP PUSH0 PUSH0 DUP3 PUSH0 ADD PUSH1 0x20 DUP2 ADD SWAP1 PUSH2 0xD0 SWAP2 SWAP1 PUSH2 0x81A JUMP JUMPDEST PUSH20 0xFFFFFFFFFFFFFFFFFFFFFFFFFFFFFFFFFFFFFFFF AND PUSH20 0xFFFFFFFFFFFFFFFFFFFFFFFFFFFFFFFFFFFFFFFF AND DUP2 MSTORE PUSH1 0x20 ADD SWAP1 DUP2 MSTORE PUSH1 0x20 ADD PUSH0 KECCAK256 SLOAD DUP2 PUSH1 0x20 ADD CALLDATALOAD EQ PUSH2 0x14F JUMPI PUSH1 0x40 MLOAD PUSH32 0x8C379A000000000000000000000000000000000000000000000000000000000 DUP2 MSTORE PUSH1 0x4 ADD PUSH2 0x146 SWAP1 PUSH2 0x931 JUMP JUMPDEST PUSH1 0x40 MLOAD DUP1 SWAP2 SUB SWAP1 REVERT JUMPDEST PUSH1 0x14 DUP2 DUP1 PUSH2 0x120 ADD SWAP1 PUSH2 0x162 SWAP2 SWAP1 PUSH2 0x94F JUMP JUMPDEST SWAP1 POP LT PUSH2 0x2EE JUMPI PUSH0 DUP2 DUP1 PUSH2 0x120 ADD SWAP1 PUSH2 0x17B SWAP2 SWAP1 PUSH2 0x94F JUMP JUMPDEST SWAP1 PUSH2 0x186 SWAP2 SWAP1 PUSH2 0x9F2 JUMP JUMPDEST PUSH1 0x60 SHR SWAP1 POP PUSH0 DUP3 PUSH1 0xE0 ADD CALLDATALOAD DUP4 PUSH1 0x80 ADD CALLDATALOAD PUSH2 0x1A0 SWAP2 SWAP1 PUSH2 0xA7D JUMP JUMPDEST SWAP1 POP PUSH0 DUP3 PUSH20 0xFFFFFFFFFFFFFFFFFFFFFFFFFFFFFFFFFFFFFFFF AND DUP5 PUSH0 ADD PUSH1 0x20 DUP2 ADD SWAP1 PUSH2 0x1CC SWAP2 SWAP1 PUSH2 0x81A JUMP JUMPDEST DUP4 PUSH1 0x40 MLOAD PUSH1 0x24 ADD PUSH2 0x1DE SWAP3 SWAP2 SWAP1 PUSH2 0xACD JUMP JUMPDEST PUSH1 0x40 MLOAD PUSH1 0x20 DUP2 DUP4 SUB SUB DUP2 MSTORE SWAP1 PUSH1 0x40 MSTORE PUSH32 0x8ACFA3C500000000000000000000000000000000000000000000000000000000 PUSH28 0xFFFFFFFFFFFFFFFFFFFFFFFFFFFFFFFFFFFFFFFFFFFFFFFFFFFFFFFF NOT AND PUSH1 0x20 DUP3 ADD DUP1 MLOAD PUSH28 0xFFFFFFFFFFFFFFFFFFFFFFFFFFFFFFFFFFFFFFFFFFFFFFFFFFFFFFFF DUP4 DUP2 DUP4 AND OR DUP4 MSTORE POP POP POP POP PUSH1 0x40 MLOAD PUSH2 0x268 SWAP2 SWAP1 PUSH2 0xB46 JUMP JUMPDEST PUSH0 PUSH1 0x40 MLOAD DUP1 DUP4 SUB DUP2 PUSH0 DUP7 GAS CALL SWAP2 POP POP RETURNDATASIZE DUP1 PUSH0 DUP2 EQ PUSH2 0x2A1 JUMPI PUSH1 0x40 MLOAD SWAP2 POP PUSH1 0x1F NOT PUSH1 0x3F RETURNDATASIZE ADD AND DUP3 ADD PUSH1 0x40 MSTORE RETURNDATASIZE DUP3 MSTORE RETURNDATASIZE PUSH0 PUSH1 0x20 DUP5 ADD RETURNDATACOPY PUSH2 0x2A6 JUMP JUMPDEST PUSH1 0x60 SWAP2 POP JUMPDEST POP POP SWAP1 POP DUP1 PUSH2 0x2EA JUMPI PUSH1 0x40 MLOAD PUSH32 0x8C379A000000000000000000000000000000000000000000000000000000000 DUP2 MSTORE PUSH1 0x4 ADD PUSH2 0x2E1 SWAP1 PUSH2 0xBA6 JUMP JUMPDEST PUSH1 0x40 MLOAD DUP1 SWAP2 SUB SWAP1 REVERT JUMPDEST POP POP POP JUMPDEST PUSH0 PUSH2 0x2F8 DUP3 PUSH2 0x5DA JUMP JUMPDEST SWAP1 POP PUSH0 PUSH2 0x304 DUP3 PUSH2 0x6DD JUMP JUMPDEST SWAP1 POP PUSH0 DUP4 PUSH0 ADD PUSH1 0x20 DUP2 ADD SWAP1 PUSH2 0x319 SWAP2 SWAP1 PUSH2 0x81A JUMP JUMPDEST PUSH20 0xFFFFFFFFFFFFFFFFFFFFFFFFFFFFFFFFFFFFFFFF AND DUP3 DUP6 DUP1 PUSH2 0x140 ADD SWAP1 PUSH2 0x341 SWAP2 SWAP1 PUSH2 0x94F JUMP JUMPDEST PUSH1 0x40 MLOAD PUSH1 0x24 ADD PUSH2 0x353 SWAP4 SWAP3 SWAP2 SWAP1 PUSH2 0xC36 JUMP JUMPDEST PUSH1 0x40 MLOAD PUSH1 0x20 DUP2 DUP4 SUB SUB DUP2 MSTORE SWAP1 PUSH1 0x40 MSTORE PUSH32 0x1626BA7E00000000000000000000000000000000000000000000000000000000 PUSH28 0xFFFFFFFFFFFFFFFFFFFFFFFFFFFFFFFFFFFFFFFFFFFFFFFFFFFFFFFF NOT AND PUSH1 0x20 DUP3 ADD DUP1 MLOAD PUSH28 0xFFFFFFFFFFFFFFFFFFFFFFFFFFFFFFFFFFFFFFFFFFFFFFFFFFFFFFFF DUP4 DUP2 DUP4 AND OR DUP4 MSTORE POP POP POP POP PUSH1 0x40 MLOAD PUSH2 0x3DD SWAP2 SWAP1 PUSH2 0xB46 JUMP JUMPDEST PUSH0 PUSH1 0x40 MLOAD DUP1 DUP4 SUB DUP2 PUSH0 DUP7 GAS CALL SWAP2 POP POP RETURNDATASIZE DUP1 PUSH0 DUP2 EQ PUSH2 0x416 JUMPI PUSH1 0x40 MLOAD SWAP2 POP PUSH1 0x1F NOT PUSH1 0x3F RETURNDATASIZE ADD AND DUP3 ADD PUSH1 0x40 MSTORE RETURNDATASIZE DUP3 MSTORE RETURNDATASIZE PUSH0 PUSH1 0x20 DUP5 ADD RETURNDATACOPY PUSH2 0x41B JUMP JUMPDEST PUSH1 0x60 SWAP2 POP JUMPDEST POP POP SWAP1 POP DUP1 PUSH2 0x45F JUMPI PUSH1 0x40 MLOAD PUSH32 0x8C379A000000000000000000000000000000000000000000000000000000000 DUP2 MSTORE PUSH1 0x4 ADD PUSH2 0x456 SWAP1 PUSH2 0xCB0 JUMP JUMPDEST PUSH1 0x40 MLOAD DUP1 SWAP2 SUB SWAP1 REVERT JUMPDEST PUSH0 DUP5 PUSH0 ADD PUSH1 0x20 DUP2 ADD SWAP1 PUSH2 0x472 SWAP2 SWAP1 PUSH2 0x81A JUMP JUMPDEST PUSH20 0xFFFFFFFFFFFFFFFFFFFFFFFFFFFFFFFFFFFFFFFF AND DUP6 PUSH1 0x80 ADD CALLDATALOAD DUP7 DUP1 PUSH1 0x60 ADD SWAP1 PUSH2 0x49D SWAP2 SWAP1 PUSH2 0x94F JUMP JUMPDEST PUSH1 0x40 MLOAD PUSH2 0x4AB SWAP3 SWAP2 SWAP1 PUSH2 0xCF2 JUMP JUMPDEST PUSH0 PUSH1 0x40 MLOAD DUP1 DUP4 SUB DUP2 PUSH0 DUP8 DUP8 CALL SWAP3 POP POP POP RETURNDATASIZE DUP1 PUSH0 DUP2 EQ PUSH2 0x4E5 JUMPI PUSH1 0x40 MLOAD SWAP2 POP PUSH1 0x1F NOT PUSH1 0x3F RETURNDATASIZE ADD AND DUP3 ADD PUSH1 0x40 MSTORE RETURNDATASIZE DUP3 MSTORE RETURNDATASIZE PUSH0 PUSH1 0x20 DUP5 ADD RETURNDATACOPY PUSH2 0x4EA JUMP JUMPDEST PUSH1 0x60 SWAP2 POP JUMPDEST POP POP SWAP1 POP DUP5 PUSH0 ADD PUSH1 0x20 DUP2 ADD SWAP1 PUSH2 0x500 SWAP2 SWAP1 PUSH2 0x81A JUMP JUMPDEST PUSH20 0xFFFFFFFFFFFFFFFFFFFFFFFFFFFFFFFFFFFFFFFF AND PUSH32 0xFABD71A6A054CECABCAAAAF05732BD211BF392251CF8BA90B2077C73E89B66D9 DUP3 PUSH1 0x40 MLOAD PUSH2 0x545 SWAP2 SWAP1 PUSH2 0xD24 JUMP JUMPDEST PUSH1 0x40 MLOAD DUP1 SWAP2 SUB SWAP1 LOG2 PUSH0 PUSH0 DUP7 PUSH0 ADD PUSH1 0x20 DUP2 ADD SWAP1 PUSH2 0x561 SWAP2 SWAP1 PUSH2 0x81A JUMP JUMPDEST PUSH20 0xFFFFFFFFFFFFFFFFFFFFFFFFFFFFFFFFFFFFFFFF AND PUSH20 0xFFFFFFFFFFFFFFFFFFFFFFFFFFFFFFFFFFFFFFFF AND DUP2 MSTORE PUSH1 0x20 ADD SWAP1 DUP2 MSTORE PUSH1 0x20 ADD PUSH0 KECCAK256 PUSH0 DUP2 SLOAD DUP1 SWAP3 SWAP2 SWAP1 PUSH2 0x5AA SWAP1 PUSH2 0xD3D JUMP JUMPDEST SWAP2 SWAP1 POP SSTORE POP POP POP POP POP POP DUP1 DUP1 PUSH1 0x1 ADD SWAP2 POP POP PUSH2 0x89 JUMP JUMPDEST POP POP POP JUMP JUMPDEST PUSH0 PUSH1 0x20 MSTORE DUP1 PUSH0 MSTORE PUSH1 0x40 PUSH0 KECCAK256 PUSH0 SWAP2 POP SWAP1 POP SLOAD DUP2 JUMP JUMPDEST PUSH0 DUP2 PUSH0 ADD PUSH1 0x20 DUP2 ADD SWAP1 PUSH2 0x5ED SWAP2 SWAP1 PUSH2 0x81A JUMP JUMPDEST DUP3 PUSH1 0x20 ADD CALLDATALOAD DUP4 DUP1 PUSH1 0x40 ADD SWAP1 PUSH2 0x602 SWAP2 SWAP1 PUSH2 0x94F JUMP JUMPDEST PUSH1 0x40 MLOAD PUSH2 0x610 SWAP3 SWAP2 SWAP1 PUSH2 0xCF2 JUMP JUMPDEST PUSH1 0x40 MLOAD DUP1 SWAP2 SUB SWAP1 KECCAK256 DUP5 DUP1 PUSH1 0x60 ADD SWAP1 PUSH2 0x628 SWAP2 SWAP1 PUSH2 0x94F JUMP JUMPDEST PUSH1 0x40 MLOAD PUSH2 0x636 SWAP3 SWAP2 SWAP1 PUSH2 0xCF2 JUMP JUMPDEST PUSH1 0x40 MLOAD DUP1 SWAP2 SUB SWAP1 KECCAK256 DUP6 PUSH1 0x80 ADD CALLDATALOAD DUP7 PUSH1 0xA0 ADD CALLDATALOAD DUP8 PUSH1 0xC0 ADD CALLDATALOAD DUP9 PUSH1 0xE0 ADD CALLDATALOAD DUP10 PUSH2 0x100 ADD CALLDATALOAD DUP11 DUP1 PUSH2 0x120 ADD SWAP1 PUSH2 0x669 SWAP2 SWAP1 PUSH2 0x94F JUMP JUMPDEST PUSH1 0x40 MLOAD PUSH2 0x677 SWAP3 SWAP2 SWAP1 PUSH2 0xCF2 JUMP JUMPDEST PUSH1 0x40 MLOAD DUP1 SWAP2 SUB SWAP1 KECCAK256 DUP12 DUP1 PUSH2 0x140 ADD SWAP1 PUSH2 0x690 SWAP2 SWAP1 PUSH2 0x94F JUMP JUMPDEST PUSH1 0x40 MLOAD PUSH2 0x69E SWAP3 SWAP2 SWAP1 PUSH2 0xCF2 JUMP JUMPDEST PUSH1 0x40 MLOAD DUP1 SWAP2 SUB SWAP1 KECCAK256 PUSH1 0x40 MLOAD PUSH1 0x20 ADD PUSH2 0x6C0 SWAP12 SWAP11 SWAP10 SWAP9 SWAP8 SWAP7 SWAP6 SWAP5 SWAP4 SWAP3 SWAP2 SWAP1 PUSH2 0xD84 JUMP JUMPDEST PUSH1 0x40 MLOAD PUSH1 0x20 DUP2 DUP4 SUB SUB DUP2 MSTORE SWAP1 PUSH1 0x40 MSTORE DUP1 MLOAD SWAP1 PUSH1 0x20 ADD KECCAK256 SWAP1 POP SWAP2 SWAP1 POP JUMP JUMPDEST PUSH0 DUP2 PUSH1 0x40 MLOAD PUSH1 0x20 ADD PUSH2 0x6EF SWAP2 SWAP1 PUSH2 0xEA1 JUMP JUMPDEST PUSH1 0x40 MLOAD PUSH1 0x20 DUP2 DUP4 SUB SUB DUP2 MSTORE SWAP1 PUSH1 0x40 MSTORE DUP1 MLOAD SWAP1 PUSH1 0x20 ADD KECCAK256 SWAP1 POP SWAP2 SWAP1 POP JUMP JUMPDEST PUSH0 PUSH0 REVERT JUMPDEST PUSH0 PUSH0 REVERT JUMPDEST PUSH0 PUSH0 REVERT JUMPDEST PUSH0 PUSH0 REVERT JUMPDEST PUSH0 PUSH0 REVERT JUMPDEST PUSH0 PUSH0 DUP4 PUSH1 0x1F DUP5 ADD SLT PUSH2 0x735 JUMPI PUSH2 0x734 PUSH2 0x714 JUMP JUMPDEST JUMPDEST DUP3 CALLDATALOAD SWAP1 POP PUSH8 0xFFFFFFFFFFFFFFFF DUP2 GT ISZERO PUSH2 0x752 JUMPI PUSH2 0x751 PUSH2 0x718 JUMP JUMPDEST JUMPDEST PUSH1 0x20 DUP4 ADD SWAP2 POP DUP4 PUSH1 0x20 DUP3 MUL DUP4 ADD GT ISZERO PUSH2 0x76E JUMPI PUSH2 0x76D PUSH2 0x71C JUMP JUMPDEST JUMPDEST SWAP3 POP SWAP3 SWAP1 POP JUMP JUMPDEST PUSH0 PUSH0 PUSH1 0x20 DUP4 DUP6 SUB SLT ISZERO PUSH2 0x78B JUMPI PUSH2 0x78A PUSH2 0x70C JUMP JUMPDEST JUMPDEST PUSH0 DUP4 ADD CALLDATALOAD PUSH8 0xFFFFFFFFFFFFFFFF DUP2 GT ISZERO PUSH2 0x7A8 JUMPI PUSH2 0x7A7 PUSH2 0x710 JUMP JUMPDEST JUMPDEST PUSH2 0x7B4 DUP6 DUP3 DUP7 ADD PUSH2 0x720 JUMP JUMPDEST SWAP3 POP SWAP3 POP POP SWAP3 POP SWAP3 SWAP1 POP JUMP JUMPDEST PUSH0 PUSH20 0xFFFFFFFFFFFFFFFFFFFFFFFFFFFFFFFFFFFFFFFF DUP3 AND SWAP1 POP SWAP2 SWAP1 POP JUMP JUMPDEST PUSH0 PUSH2 0x7E9 DUP3 PUSH2 0x7C0 JUMP JUMPDEST SWAP1 POP SWAP2 SWAP1 POP JUMP JUMPDEST PUSH2 0x7F9 DUP2 PUSH2 0x7DF JUMP JUMPDEST DUP2 EQ PUSH2 0x803 JUMPI PUSH0 PUSH0 REVERT JUMPDEST POP JUMP JUMPDEST PUSH0 DUP2 CALLDATALOAD SWAP1 POP PUSH2 0x814 DUP2 PUSH2 0x7F0 JUMP JUMPDEST SWAP3 SWAP2 POP POP JUMP JUMPDEST PUSH0 PUSH1 0x20 DUP3 DUP5 SUB SLT ISZERO PUSH2 0x82F JUMPI PUSH2 0x82E PUSH2 0x70C JUMP JUMPDEST JUMPDEST PUSH0 PUSH2 0x83C DUP5 DUP3 DUP6 ADD PUSH2 0x806 JUMP JUMPDEST SWAP2 POP POP SWAP3 SWAP2 POP POP JUMP JUMPDEST PUSH0 DUP2 SWAP1 POP SWAP2 SWAP1 POP JUMP JUMPDEST PUSH2 0x857 DUP2 PUSH2 0x845 JUMP JUMPDEST DUP3 MSTORE POP POP JUMP JUMPDEST PUSH0 PUSH1 0x20 DUP3 ADD SWAP1 POP PUSH2 0x870 PUSH0 DUP4 ADD DUP5 PUSH2 0x84E JUMP JUMPDEST SWAP3 SWAP2 POP POP JUMP JUMPDEST PUSH32 0x4E487B7100000000000000000000000000000000000000000000000000000000 PUSH0 MSTORE PUSH1 0x32 PUSH1 0x4 MSTORE PUSH1 0x24 PUSH0 REVERT JUMPDEST PUSH0 PUSH0 REVERT JUMPDEST PUSH0 PUSH0 REVERT JUMPDEST PUSH0 PUSH0 REVERT JUMPDEST PUSH0 DUP3 CALLDATALOAD PUSH1 0x1 PUSH2 0x160 SUB DUP4 CALLDATASIZE SUB SUB DUP2 SLT PUSH2 0x8CB JUMPI PUSH2 0x8CA PUSH2 0x8A3 JUMP JUMPDEST JUMPDEST DUP1 DUP4 ADD SWAP2 POP POP SWAP3 SWAP2 POP POP JUMP JUMPDEST PUSH0 DUP3 DUP3 MSTORE PUSH1 0x20 DUP3 ADD SWAP1 POP SWAP3 SWAP2 POP POP JUMP JUMPDEST PUSH32 0x6E6F6E6365206572726F72000000000000000000000000000000000000000000 PUSH0 DUP3 ADD MSTORE POP JUMP JUMPDEST PUSH0 PUSH2 0x91B PUSH1 0xB DUP4 PUSH2 0x8D7 JUMP JUMPDEST SWAP2 POP PUSH2 0x926 DUP3 PUSH2 0x8E7 JUMP JUMPDEST PUSH1 0x20 DUP3 ADD SWAP1 POP SWAP2 SWAP1 POP JUMP JUMPDEST PUSH0 PUSH1 0x20 DUP3 ADD SWAP1 POP DUP2 DUP2 SUB PUSH0 DUP4 ADD MSTORE PUSH2 0x948 DUP2 PUSH2 0x90F JUMP JUMPDEST SWAP1 POP SWAP2 SWAP1 POP JUMP JUMPDEST PUSH0 PUSH0 DUP4 CALLDATALOAD PUSH1 0x1 PUSH1 0x20 SUB DUP5 CALLDATASIZE SUB SUB DUP2 SLT PUSH2 0x96B JUMPI PUSH2 0x96A PUSH2 0x8A3 JUMP JUMPDEST JUMPDEST DUP1 DUP5 ADD SWAP3 POP DUP3 CALLDATALOAD SWAP2 POP PUSH8 0xFFFFFFFFFFFFFFFF DUP3 GT ISZERO PUSH2 0x98D JUMPI PUSH2 0x98C PUSH2 0x8A7 JUMP JUMPDEST JUMPDEST PUSH1 0x20 DUP4 ADD SWAP3 POP PUSH1 0x1 DUP3 MUL CALLDATASIZE SUB DUP4 SGT ISZERO PUSH2 0x9A9 JUMPI PUSH2 0x9A8 PUSH2 0x8AB JUMP JUMPDEST JUMPDEST POP SWAP3 POP SWAP3 SWAP1 POP JUMP JUMPDEST PUSH0 DUP3 SWAP1 POP SWAP3 SWAP2 POP POP JUMP JUMPDEST PUSH0 PUSH32 0xFFFFFFFFFFFFFFFFFFFFFFFFFFFFFFFFFFFFFFFF000000000000000000000000 DUP3 AND SWAP1 POP SWAP2 SWAP1 POP JUMP JUMPDEST PUSH0 DUP3 DUP3 SHL SWAP1 POP SWAP3 SWAP2 POP POP JUMP JUMPDEST PUSH0 PUSH2 0x9FD DUP4 DUP4 PUSH2 0x9B1 JUMP JUMPDEST DUP3 PUSH2 0xA08 DUP2 CALLDATALOAD PUSH2 0x9BB JUMP JUMPDEST SWAP3 POP PUSH1 0x14 DUP3 LT ISZERO PUSH2 0xA48 JUMPI PUSH2 0xA43 PUSH32 0xFFFFFFFFFFFFFFFFFFFFFFFFFFFFFFFFFFFFFFFF000000000000000000000000 DUP4 PUSH1 0x14 SUB PUSH1 0x8 MUL PUSH2 0x9E6 JUMP JUMPDEST DUP4 AND SWAP3 POP JUMPDEST POP POP SWAP3 SWAP2 POP POP JUMP JUMPDEST PUSH32 0x4E487B7100000000000000000000000000000000000000000000000000000000 PUSH0 MSTORE PUSH1 0x11 PUSH1 0x4 MSTORE PUSH1 0x24 PUSH0 REVERT JUMPDEST PUSH0 PUSH2 0xA87 DUP3 PUSH2 0x845 JUMP JUMPDEST SWAP2 POP PUSH2 0xA92 DUP4 PUSH2 0x845 JUMP JUMPDEST SWAP3 POP DUP3 DUP3 MUL PUSH2 0xAA0 DUP2 PUSH2 0x845 JUMP JUMPDEST SWAP2 POP DUP3 DUP3 DIV DUP5 EQ DUP4 ISZERO OR PUSH2 0xAB7 JUMPI PUSH2 0xAB6 PUSH2 0xA50 JUMP JUMPDEST JUMPDEST POP SWAP3 SWAP2 POP POP JUMP JUMPDEST PUSH2 0xAC7 DUP2 PUSH2 0x7DF JUMP JUMPDEST DUP3 MSTORE POP POP JUMP JUMPDEST PUSH0 PUSH1 0x40 DUP3 ADD SWAP1 POP PUSH2 0xAE0 PUSH0 DUP4 ADD DUP6 PUSH2 0xABE JUMP JUMPDEST PUSH2 0xAED PUSH1 0x20 DUP4 ADD DUP5 PUSH2 0x84E JUMP JUMPDEST SWAP4 SWAP3 POP POP POP JUMP JUMPDEST PUSH0 DUP2 MLOAD SWAP1 POP SWAP2 SWAP1 POP JUMP JUMPDEST PUSH0 DUP2 SWAP1 POP SWAP3 SWAP2 POP POP JUMP JUMPDEST DUP3 DUP2 DUP4 MCOPY PUSH0 DUP4 DUP4 ADD MSTORE POP POP POP JUMP JUMPDEST PUSH0 PUSH2 0xB20 DUP3 PUSH2 0xAF4 JUMP JUMPDEST PUSH2 0xB2A DUP2 DUP6 PUSH2 0xAFE JUMP JUMPDEST SWAP4 POP PUSH2 0xB3A DUP2 DUP6 PUSH1 0x20 DUP7 ADD PUSH2 0xB08 JUMP JUMPDEST DUP1 DUP5 ADD SWAP2 POP POP SWAP3 SWAP2 POP POP JUMP JUMPDEST PUSH0 PUSH2 0xB51 DUP3 DUP5 PUSH2 0xB16 JUMP JUMPDEST SWAP2 POP DUP2 SWAP1 POP SWAP3 SWAP2 POP POP JUMP JUMPDEST PUSH32 0x6572726F722076616C69646174655061796D6173746572557365724F70000000 PUSH0 DUP3 ADD MSTORE POP JUMP JUMPDEST PUSH0 PUSH2 0xB90 PUSH1 0x1D DUP4 PUSH2 0x8D7 JUMP JUMPDEST SWAP2 POP PUSH2 0xB9B DUP3 PUSH2 0xB5C JUMP JUMPDEST PUSH1 0x20 DUP3 ADD SWAP1 POP SWAP2 SWAP1 POP JUMP JUMPDEST PUSH0 PUSH1 0x20 DUP3 ADD SWAP1 POP DUP2 DUP2 SUB PUSH0 DUP4 ADD MSTORE PUSH2 0xBBD DUP2 PUSH2 0xB84 JUMP JUMPDEST SWAP1 POP SWAP2 SWAP1 POP JUMP JUMPDEST PUSH0 DUP2 SWAP1 POP SWAP2 SWAP1 POP JUMP JUMPDEST PUSH2 0xBD6 DUP2 PUSH2 0xBC4 JUMP JUMPDEST DUP3 MSTORE POP POP JUMP JUMPDEST PUSH0 DUP3 DUP3 MSTORE PUSH1 0x20 DUP3 ADD SWAP1 POP SWAP3 SWAP2 POP POP JUMP JUMPDEST DUP3 DUP2 DUP4 CALLDATACOPY PUSH0 DUP4 DUP4 ADD MSTORE POP POP POP JUMP JUMPDEST PUSH0 PUSH1 0x1F NOT PUSH1 0x1F DUP4 ADD AND SWAP1 POP SWAP2 SWAP1 POP JUMP JUMPDEST PUSH0 PUSH2 0xC15 DUP4 DUP6 PUSH2 0xBDC JUMP JUMPDEST SWAP4 POP PUSH2 0xC22 DUP4 DUP6 DUP5 PUSH2 0xBEC JUMP JUMPDEST PUSH2 0xC2B DUP4 PUSH2 0xBFA JUMP JUMPDEST DUP5 ADD SWAP1 POP SWAP4 SWAP3 POP POP POP JUMP JUMPDEST PUSH0 PUSH1 0x40 DUP3 ADD SWAP1 POP PUSH2 0xC49 PUSH0 DUP4 ADD DUP7 PUSH2 0xBCD JUMP JUMPDEST DUP2 DUP2 SUB PUSH1 0x20 DUP4 ADD MSTORE PUSH2 0xC5C DUP2 DUP5 DUP7 PUSH2 0xC0A JUMP JUMPDEST SWAP1 POP SWAP5 SWAP4 POP POP POP POP JUMP JUMPDEST PUSH32 0x697356616C69645369676E61747572652065726F727200000000000000000000 PUSH0 DUP3 ADD MSTORE POP JUMP JUMPDEST PUSH0 PUSH2 0xC9A PUSH1 0x16 DUP4 PUSH2 0x8D7 JUMP JUMPDEST SWAP2 POP PUSH2 0xCA5 DUP3 PUSH2 0xC66 JUMP JUMPDEST PUSH1 0x20 DUP3 ADD SWAP1 POP SWAP2 SWAP1 POP JUMP JUMPDEST PUSH0 PUSH1 0x20 DUP3 ADD SWAP1 POP DUP2 DUP2 SUB PUSH0 DUP4 ADD MSTORE PUSH2 0xCC7 DUP2 PUSH2 0xC8E JUMP JUMPDEST SWAP1 POP SWAP2 SWAP1 POP JUMP JUMPDEST PUSH0 PUSH2 0xCD9 DUP4 DUP6 PUSH2 0xAFE JUMP JUMPDEST SWAP4 POP PUSH2 0xCE6 DUP4 DUP6 DUP5 PUSH2 0xBEC JUMP JUMPDEST DUP3 DUP5 ADD SWAP1 POP SWAP4 SWAP3 POP POP POP JUMP JUMPDEST PUSH0 PUSH2 0xCFE DUP3 DUP5 DUP7 PUSH2 0xCCE JUMP JUMPDEST SWAP2 POP DUP2 SWAP1 POP SWAP4 SWAP3 POP POP POP JUMP JUMPDEST PUSH0 DUP2 ISZERO ISZERO SWAP1 POP SWAP2 SWAP1 POP JUMP JUMPDEST PUSH2 0xD1E DUP2 PUSH2 0xD0A JUMP JUMPDEST DUP3 MSTORE POP POP JUMP JUMPDEST PUSH0 PUSH1 0x20 DUP3 ADD SWAP1 POP PUSH2 0xD37 PUSH0 DUP4 ADD DUP5 PUSH2 0xD15 JUMP JUMPDEST SWAP3 SWAP2 POP POP JUMP JUMPDEST PUSH0 PUSH2 0xD47 DUP3 PUSH2 0x845 JUMP JUMPDEST SWAP2 POP PUSH32 0xFFFFFFFFFFFFFFFFFFFFFFFFFFFFFFFFFFFFFFFFFFFFFFFFFFFFFFFFFFFFFFFF DUP3 SUB PUSH2 0xD79 JUMPI PUSH2 0xD78 PUSH2 0xA50 JUMP JUMPDEST JUMPDEST PUSH1 0x1 DUP3 ADD SWAP1 POP SWAP2 SWAP1 POP JUMP JUMPDEST PUSH0 PUSH2 0x160 DUP3 ADD SWAP1 POP PUSH2 0xD98 PUSH0 DUP4 ADD DUP15 PUSH2 0xABE JUMP JUMPDEST PUSH2 0xDA5 PUSH1 0x20 DUP4 ADD DUP14 PUSH2 0x84E JUMP JUMPDEST PUSH2 0xDB2 PUSH1 0x40 DUP4 ADD DUP13 PUSH2 0xBCD JUMP JUMPDEST PUSH2 0xDBF PUSH1 0x60 DUP4 ADD DUP12 PUSH2 0xBCD JUMP JUMPDEST PUSH2 0xDCC PUSH1 0x80 DUP4 ADD DUP11 PUSH2 0x84E JUMP JUMPDEST PUSH2 0xDD9 PUSH1 0xA0 DUP4 ADD DUP10 PUSH2 0x84E JUMP JUMPDEST PUSH2 0xDE6 PUSH1 0xC0 DUP4 ADD DUP9 PUSH2 0x84E JUMP JUMPDEST PUSH2 0xDF3 PUSH1 0xE0 DUP4 ADD DUP8 PUSH2 0x84E JUMP JUMPDEST PUSH2 0xE01 PUSH2 0x100 DUP4 ADD DUP7 PUSH2 0x84E JUMP JUMPDEST PUSH2 0xE0F PUSH2 0x120 DUP4 ADD DUP6 PUSH2 0xBCD JUMP JUMPDEST PUSH2 0xE1D PUSH2 0x140 DUP4 ADD DUP5 PUSH2 0xBCD JUMP JUMPDEST SWAP13 SWAP12 POP POP POP POP POP POP POP POP POP POP POP POP JUMP JUMPDEST PUSH0 DUP2 SWAP1 POP SWAP3 SWAP2 POP POP JUMP JUMPDEST PUSH32 0x19457468657265756D205369676E6564204D6573736167653A0A333200000000 PUSH0 DUP3 ADD MSTORE POP JUMP JUMPDEST PUSH0 PUSH2 0xE6B PUSH1 0x1C DUP4 PUSH2 0xE2D JUMP JUMPDEST SWAP2 POP PUSH2 0xE76 DUP3 PUSH2 0xE37 JUMP JUMPDEST PUSH1 0x1C DUP3 ADD SWAP1 POP SWAP2 SWAP1 POP JUMP JUMPDEST PUSH0 DUP2 SWAP1 POP SWAP2 SWAP1 POP JUMP JUMPDEST PUSH2 0xE9B PUSH2 0xE96 DUP3 PUSH2 0xBC4 JUMP JUMPDEST PUSH2 0xE81 JUMP JUMPDEST DUP3 MSTORE POP POP JUMP JUMPDEST PUSH0 PUSH2 0xEAB DUP3 PUSH2 0xE5F JUMP JUMPDEST SWAP2 POP PUSH2 0xEB7 DUP3 DUP5 PUSH2 0xE8A JUMP JUMPDEST PUSH1 0x20 DUP3 ADD SWAP2 POP DUP2 SWAP1 POP SWAP3 SWAP2 POP POP JUMP INVALID LOG2 PUSH5 0x6970667358 0x22 SLT KECCAK256 0xAD PUSH0 0xAE SWAP10 0xF6 0x2B CHAINID PUSH2 0x411D INVALID EXTDELEGATECALL 0xBF 0xDC 0x2D PREVRANDAO GASLIMIT 0xC6 0xBD 0x4E CALLDATALOAD PUSH31 0x43BC16D6AB20EE76D59B64736F6C634300081E003300000000000000000000 "
				},
				"gasEstimates": {
					"creation": {
						"codeDepositCost": "767200",
						"executionCost": "797",
						"totalCost": "767997"
					},
					"external": {
						"handleOps((address,uint256,bytes,bytes,uint256,uint256,uint256,uint256,uint256,bytes,bytes)[])": "infinite",
						"nonces(address)": "2801"
					},
					"internal": {
						"_getUserOpHash(struct EntryPoint.UserOPeration calldata)": "infinite",
						"_toSignMessageHash(bytes32)": "infinite"
					}
				},
				"methodIdentifiers": {
					"handleOps((address,uint256,bytes,bytes,uint256,uint256,uint256,uint256,uint256,bytes,bytes)[])": "532d3ac9",
					"nonces(address)": "7ecebe00"
				}
			},
			"storageLayout": {
				"storage": [
					{
						"astId": 35,
						"contract": "contracts/EntryPoint.sol:EntryPoint",
						"label": "nonces",
						"offset": 0,
						"slot": "0",
						"type": "t_mapping(t_address,t_uint256)"
					}
				],
				"types": {
					"t_address": {
						"encoding": "inplace",
						"label": "address",
						"numberOfBytes": "20"
					},
					"t_mapping(t_address,t_uint256)": {
						"encoding": "mapping",
						"key": "t_address",
						"label": "mapping(address => uint256)",
						"numberOfBytes": "32",
						"value": "t_uint256"
					},
					"t_uint256": {
						"encoding": "inplace",
						"label": "uint256",
						"numberOfBytes": "32"
					}
				}
			},
			"userdoc": {
				"kind": "user",
				"methods": {},
				"version": 1
			}
		}
	}
}