{
	"contracts/SmartAccountFactory.sol": {
		"SmartAccountFactory": {
			"abi": [
				{
					"inputs": [
						{
							"internalType": "address",
							"name": "_entryPoint",
							"type": "address"
						}
					],
					"stateMutability": "nonpayable",
					"type": "constructor"
				},
				{
					"inputs": [
						{
							"internalType": "address",
							"name": "owner",
							"type": "address"
						}
					],
					"name": "createAccount",
					"outputs": [
						{
							"internalType": "address",
							"name": "smartAccount",
							"type": "address"
						}
					],
					"stateMutability": "nonpayable",
					"type": "function"
				},
				{
					"inputs": [
						{
							"internalType": "address",
							"name": "owner",
							"type": "address"
						}
					],
					"name": "getAccount",
					"outputs": [
						{
							"internalType": "address",
							"name": "",
							"type": "address"
						}
					],
					"stateMutability": "view",
					"type": "function"
				}
			],
			"devdoc": {
				"kind": "dev",
				"methods": {},
				"version": 1
			},
			"evm": {
				"assembly": "    /* \"contracts/SmartAccountFactory.sol\":92:2569  contract SmartAccountFactory {... */\n  mstore(0x40, 0xa0)\n    /* \"contracts/SmartAccountFactory.sol\":340:416  constructor(address _entryPoint) {... */\n  callvalue\n  dup1\n  iszero\n  tag_1\n  jumpi\n  revert(0x00, 0x00)\ntag_1:\n  pop\n  mload(0x40)\n  sub(codesize, bytecodeSize)\n  dup1\n  bytecodeSize\n  dup4\n  codecopy\n  dup2\n  dup2\n  add\n  0x40\n  mstore\n  dup2\n  add\n  swap1\n  tag_2\n  swap2\n  swap1\n  tag_3\n  jump\t// in\ntag_2:\n    /* \"contracts/SmartAccountFactory.sol\":397:408  _entryPoint */\n  dup1\n    /* \"contracts/SmartAccountFactory.sol\":384:408  entryPoint = _entryPoint */\n  0xffffffffffffffffffffffffffffffffffffffff\n  and\n  0x80\n  dup2\n  0xffffffffffffffffffffffffffffffffffffffff\n  and\n  dup2\n  mstore\n  pop\n  pop\n    /* \"contracts/SmartAccountFactory.sol\":340:416  constructor(address _entryPoint) {... */\n  pop\n    /* \"contracts/SmartAccountFactory.sol\":92:2569  contract SmartAccountFactory {... */\n  jump(tag_6)\n    /* \"#utility.yul\":88:205   */\ntag_8:\n    /* \"#utility.yul\":197:198   */\n  0x00\n    /* \"#utility.yul\":194:195   */\n  0x00\n    /* \"#utility.yul\":187:199   */\n  revert\n    /* \"#utility.yul\":334:460   */\ntag_10:\n    /* \"#utility.yul\":371:378   */\n  0x00\n    /* \"#utility.yul\":411:453   */\n  0xffffffffffffffffffffffffffffffffffffffff\n    /* \"#utility.yul\":404:409   */\n  dup3\n    /* \"#utility.yul\":400:454   */\n  and\n    /* \"#utility.yul\":389:454   */\n  swap1\n  pop\n    /* \"#utility.yul\":334:460   */\n  swap2\n  swap1\n  pop\n  jump\t// out\n    /* \"#utility.yul\":466:562   */\ntag_11:\n    /* \"#utility.yul\":503:510   */\n  0x00\n    /* \"#utility.yul\":532:556   */\n  tag_20\n    /* \"#utility.yul\":550:555   */\n  dup3\n    /* \"#utility.yul\":532:556   */\n  tag_10\n  jump\t// in\ntag_20:\n    /* \"#utility.yul\":521:556   */\n  swap1\n  pop\n    /* \"#utility.yul\":466:562   */\n  swap2\n  swap1\n  pop\n  jump\t// out\n    /* \"#utility.yul\":568:690   */\ntag_12:\n    /* \"#utility.yul\":641:665   */\n  tag_22\n    /* \"#utility.yul\":659:664   */\n  dup2\n    /* \"#utility.yul\":641:665   */\n  tag_11\n  jump\t// in\ntag_22:\n    /* \"#utility.yul\":634:639   */\n  dup2\n    /* \"#utility.yul\":631:666   */\n  eq\n    /* \"#utility.yul\":621:684   */\n  tag_23\n  jumpi\n    /* \"#utility.yul\":680:681   */\n  0x00\n    /* \"#utility.yul\":677:678   */\n  0x00\n    /* \"#utility.yul\":670:682   */\n  revert\n    /* \"#utility.yul\":621:684   */\ntag_23:\n    /* \"#utility.yul\":568:690   */\n  pop\n  jump\t// out\n    /* \"#utility.yul\":696:839   */\ntag_13:\n    /* \"#utility.yul\":753:758   */\n  0x00\n    /* \"#utility.yul\":784:790   */\n  dup2\n    /* \"#utility.yul\":778:791   */\n  mload\n    /* \"#utility.yul\":769:791   */\n  swap1\n  pop\n    /* \"#utility.yul\":800:833   */\n  tag_25\n    /* \"#utility.yul\":827:832   */\n  dup2\n    /* \"#utility.yul\":800:833   */\n  tag_12\n  jump\t// in\ntag_25:\n    /* \"#utility.yul\":696:839   */\n  swap3\n  swap2\n  pop\n  pop\n  jump\t// out\n    /* \"#utility.yul\":845:1196   */\ntag_3:\n    /* \"#utility.yul\":915:921   */\n  0x00\n    /* \"#utility.yul\":964:966   */\n  0x20\n    /* \"#utility.yul\":952:961   */\n  dup3\n    /* \"#utility.yul\":943:950   */\n  dup5\n    /* \"#utility.yul\":939:962   */\n  sub\n    /* \"#utility.yul\":935:967   */\n  slt\n    /* \"#utility.yul\":932:1051   */\n  iszero\n  tag_27\n  jumpi\n    /* \"#utility.yul\":970:1049   */\n  tag_28\n  tag_8\n  jump\t// in\ntag_28:\n    /* \"#utility.yul\":932:1051   */\ntag_27:\n    /* \"#utility.yul\":1090:1091   */\n  0x00\n    /* \"#utility.yul\":1115:1179   */\n  tag_29\n    /* \"#utility.yul\":1171:1178   */\n  dup5\n    /* \"#utility.yul\":1162:1168   */\n  dup3\n    /* \"#utility.yul\":1151:1160   */\n  dup6\n    /* \"#utility.yul\":1147:1169   */\n  add\n    /* \"#utility.yul\":1115:1179   */\n  tag_13\n  jump\t// in\ntag_29:\n    /* \"#utility.yul\":1105:1179   */\n  swap2\n  pop\n    /* \"#utility.yul\":1061:1189   */\n  pop\n    /* \"#utility.yul\":845:1196   */\n  swap3\n  swap2\n  pop\n  pop\n  jump\t// out\n    /* \"contracts/SmartAccountFactory.sol\":92:2569  contract SmartAccountFactory {... */\ntag_6:\n  mload(0x80)\n  codecopy(0x00, dataOffset(sub_0), dataSize(sub_0))\n  0x00\n  assignImmutable(\"0xe3cb0ca89f217511efd4af6caea80048f9921bac3b9063844e65469cf515f138\")\n  return(0x00, dataSize(sub_0))\nstop\n\nsub_0: assembly {\n        /* \"contracts/SmartAccountFactory.sol\":92:2569  contract SmartAccountFactory {... */\n      mstore(0x40, 0x80)\n      callvalue\n      dup1\n      iszero\n      tag_1\n      jumpi\n      revert(0x00, 0x00)\n    tag_1:\n      pop\n      jumpi(tag_2, lt(calldatasize, 0x04))\n      shr(0xe0, calldataload(0x00))\n      dup1\n      0x9859387b\n      eq\n      tag_3\n      jumpi\n      dup1\n      0xfbcbc0f1\n      eq\n      tag_4\n      jumpi\n    tag_2:\n      revert(0x00, 0x00)\n        /* \"contracts/SmartAccountFactory.sol\":772:2450  function createAccount (address owner) external returns(address smartAccount) {... */\n    tag_3:\n      tag_5\n      0x04\n      dup1\n      calldatasize\n      sub\n      dup2\n      add\n      swap1\n      tag_6\n      swap2\n      swap1\n      tag_7\n      jump\t// in\n    tag_6:\n      tag_8\n      jump\t// in\n    tag_5:\n      mload(0x40)\n      tag_9\n      swap2\n      swap1\n      tag_10\n      jump\t// in\n    tag_9:\n      mload(0x40)\n      dup1\n      swap2\n      sub\n      swap1\n      return\n        /* \"contracts/SmartAccountFactory.sol\":2458:2566  function getAccount (address owner) external view returns(address) {... */\n    tag_4:\n      tag_11\n      0x04\n      dup1\n      calldatasize\n      sub\n      dup2\n      add\n      swap1\n      tag_12\n      swap2\n      swap1\n      tag_7\n      jump\t// in\n    tag_12:\n      tag_13\n      jump\t// in\n    tag_11:\n      mload(0x40)\n      tag_14\n      swap2\n      swap1\n      tag_10\n      jump\t// in\n    tag_14:\n      mload(0x40)\n      dup1\n      swap2\n      sub\n      swap1\n      return\n        /* \"contracts/SmartAccountFactory.sol\":772:2450  function createAccount (address owner) external returns(address smartAccount) {... */\n    tag_8:\n        /* \"contracts/SmartAccountFactory.sol\":828:848  address smartAccount */\n      0x00\n        /* \"contracts/SmartAccountFactory.sol\":896:897  0 */\n      0x00\n        /* \"contracts/SmartAccountFactory.sol\":869:898  accounts[owner] == address(0) */\n      0xffffffffffffffffffffffffffffffffffffffff\n      and\n        /* \"contracts/SmartAccountFactory.sol\":869:877  accounts */\n      0x00\n        /* \"contracts/SmartAccountFactory.sol\":869:884  accounts[owner] */\n      0x00\n        /* \"contracts/SmartAccountFactory.sol\":878:883  owner */\n      dup5\n        /* \"contracts/SmartAccountFactory.sol\":869:884  accounts[owner] */\n      0xffffffffffffffffffffffffffffffffffffffff\n      and\n      0xffffffffffffffffffffffffffffffffffffffff\n      and\n      dup2\n      mstore\n      0x20\n      add\n      swap1\n      dup2\n      mstore\n      0x20\n      add\n      0x00\n      keccak256\n      0x00\n      swap1\n      sload\n      swap1\n      0x0100\n      exp\n      swap1\n      div\n      0xffffffffffffffffffffffffffffffffffffffff\n      and\n        /* \"contracts/SmartAccountFactory.sol\":869:898  accounts[owner] == address(0) */\n      0xffffffffffffffffffffffffffffffffffffffff\n      and\n      eq\n        /* \"contracts/SmartAccountFactory.sol\":861:899  require(accounts[owner] == address(0)) */\n      tag_16\n      jumpi\n      revert(0x00, 0x00)\n    tag_16:\n        /* \"contracts/SmartAccountFactory.sol\":1415:1436  bytes memory bytecode */\n      0x00\n        /* \"contracts/SmartAccountFactory.sol\":1456:1487  type(SmartAccount).creationCode */\n      mload(0x40)\n      dup1\n      0x20\n      add\n      tag_17\n      swap1\n      tag_18\n      jump\t// in\n    tag_17:\n      0x20\n      dup3\n      add\n      dup2\n      sub\n      dup3\n      mstore\n      not(0x1f)\n      0x1f\n      dup3\n      add\n      and\n      0x40\n      mstore\n      pop\n        /* \"contracts/SmartAccountFactory.sol\":1500:1505  owner */\n      dup4\n        /* \"contracts/SmartAccountFactory.sol\":1507:1517  entryPoint */\n      immutable(\"0xe3cb0ca89f217511efd4af6caea80048f9921bac3b9063844e65469cf515f138\")\n        /* \"contracts/SmartAccountFactory.sol\":1489:1518  abi.encode(owner, entryPoint) */\n      add(0x20, mload(0x40))\n      tag_19\n      swap3\n      swap2\n      swap1\n      tag_20\n      jump\t// in\n    tag_19:\n      mload(0x40)\n      0x20\n      dup2\n      dup4\n      sub\n      sub\n      dup2\n      mstore\n      swap1\n      0x40\n      mstore\n        /* \"contracts/SmartAccountFactory.sol\":1439:1519  abi.encodePacked(type(SmartAccount).creationCode, abi.encode(owner, entryPoint)) */\n      add(0x20, mload(0x40))\n      tag_21\n      swap3\n      swap2\n      swap1\n      tag_22\n      jump\t// in\n    tag_21:\n      mload(0x40)\n      0x20\n      dup2\n      dup4\n      sub\n      sub\n      dup2\n      mstore\n      swap1\n      0x40\n      mstore\n        /* \"contracts/SmartAccountFactory.sol\":1415:1519  bytes memory bytecode = abi.encodePacked(type(SmartAccount).creationCode, abi.encode(owner, entryPoint)) */\n      swap1\n      pop\n        /* \"contracts/SmartAccountFactory.sol\":1699:1711  bytes32 salt */\n      0x00\n        /* \"contracts/SmartAccountFactory.sol\":1741:1746  owner */\n      dup4\n        /* \"contracts/SmartAccountFactory.sol\":1748:1763  block.timestamp */\n      timestamp\n        /* \"contracts/SmartAccountFactory.sol\":1724:1764  abi.encodePacked(owner, block.timestamp) */\n      add(0x20, mload(0x40))\n      tag_23\n      swap3\n      swap2\n      swap1\n      tag_24\n      jump\t// in\n    tag_23:\n      mload(0x40)\n      0x20\n      dup2\n      dup4\n      sub\n      sub\n      dup2\n      mstore\n      swap1\n      0x40\n      mstore\n        /* \"contracts/SmartAccountFactory.sol\":1714:1765  keccak256(abi.encodePacked(owner, block.timestamp)) */\n      dup1\n      mload\n      swap1\n      0x20\n      add\n      keccak256\n        /* \"contracts/SmartAccountFactory.sol\":1699:1765  bytes32 salt = keccak256(abi.encodePacked(owner, block.timestamp)) */\n      swap1\n      pop\n        /* \"contracts/SmartAccountFactory.sol\":2232:2236  salt */\n      dup1\n        /* \"contracts/SmartAccountFactory.sol\":2221:2229  bytecode */\n      dup3\n        /* \"contracts/SmartAccountFactory.sol\":2215:2230  mload(bytecode) */\n      mload\n        /* \"contracts/SmartAccountFactory.sol\":2210:2212  32 */\n      0x20\n        /* \"contracts/SmartAccountFactory.sol\":2200:2208  bytecode */\n      dup5\n        /* \"contracts/SmartAccountFactory.sol\":2196:2213  add(bytecode, 32) */\n      add\n        /* \"contracts/SmartAccountFactory.sol\":2193:2194  0 */\n      0x00\n        /* \"contracts/SmartAccountFactory.sol\":2185:2237  create2(0, add(bytecode, 32), mload(bytecode), salt) */\n      create2\n        /* \"contracts/SmartAccountFactory.sol\":2169:2237  smartAccount := create2(0, add(bytecode, 32), mload(bytecode), salt) */\n      swap3\n      pop\n        /* \"contracts/SmartAccountFactory.sol\":2273:2285  smartAccount */\n      dup3\n        /* \"contracts/SmartAccountFactory.sol\":2261:2286  extcodesize(smartAccount) */\n      extcodesize\n        /* \"contracts/SmartAccountFactory.sol\":2251:2391  if iszero(extcodesize(smartAccount)){ // 스마트 계정 여부 0x  배포 실패하면 리젝... */\n      tag_25\n      jumpi\n        /* \"contracts/SmartAccountFactory.sol\":2374:2375  0 */\n      0x00\n        /* \"contracts/SmartAccountFactory.sol\":2371:2372  0 */\n      0x00\n        /* \"contracts/SmartAccountFactory.sol\":2364:2376  revert(0, 0) */\n      revert\n        /* \"contracts/SmartAccountFactory.sol\":2251:2391  if iszero(extcodesize(smartAccount)){ // 스마트 계정 여부 0x  배포 실패하면 리젝... */\n    tag_25:\n        /* \"contracts/SmartAccountFactory.sol\":2430:2442  smartAccount */\n      dup3\n        /* \"contracts/SmartAccountFactory.sol\":2412:2420  accounts */\n      0x00\n        /* \"contracts/SmartAccountFactory.sol\":2412:2427  accounts[owner] */\n      0x00\n        /* \"contracts/SmartAccountFactory.sol\":2421:2426  owner */\n      dup7\n        /* \"contracts/SmartAccountFactory.sol\":2412:2427  accounts[owner] */\n      0xffffffffffffffffffffffffffffffffffffffff\n      and\n      0xffffffffffffffffffffffffffffffffffffffff\n      and\n      dup2\n      mstore\n      0x20\n      add\n      swap1\n      dup2\n      mstore\n      0x20\n      add\n      0x00\n      keccak256\n      0x00\n        /* \"contracts/SmartAccountFactory.sol\":2412:2442  accounts[owner] = smartAccount */\n      0x0100\n      exp\n      dup2\n      sload\n      dup2\n      0xffffffffffffffffffffffffffffffffffffffff\n      mul\n      not\n      and\n      swap1\n      dup4\n      0xffffffffffffffffffffffffffffffffffffffff\n      and\n      mul\n      or\n      swap1\n      sstore\n      pop\n        /* \"contracts/SmartAccountFactory.sol\":850:2450  {... */\n      pop\n      pop\n        /* \"contracts/SmartAccountFactory.sol\":772:2450  function createAccount (address owner) external returns(address smartAccount) {... */\n      swap2\n      swap1\n      pop\n      jump\t// out\n        /* \"contracts/SmartAccountFactory.sol\":2458:2566  function getAccount (address owner) external view returns(address) {... */\n    tag_13:\n        /* \"contracts/SmartAccountFactory.sol\":2516:2523  address */\n      0x00\n        /* \"contracts/SmartAccountFactory.sol\":2543:2551  accounts */\n      0x00\n        /* \"contracts/SmartAccountFactory.sol\":2543:2558  accounts[owner] */\n      0x00\n        /* \"contracts/SmartAccountFactory.sol\":2552:2557  owner */\n      dup4\n        /* \"contracts/SmartAccountFactory.sol\":2543:2558  accounts[owner] */\n      0xffffffffffffffffffffffffffffffffffffffff\n      and\n      0xffffffffffffffffffffffffffffffffffffffff\n      and\n      dup2\n      mstore\n      0x20\n      add\n      swap1\n      dup2\n      mstore\n      0x20\n      add\n      0x00\n      keccak256\n      0x00\n      swap1\n      sload\n      swap1\n      0x0100\n      exp\n      swap1\n      div\n      0xffffffffffffffffffffffffffffffffffffffff\n      and\n        /* \"contracts/SmartAccountFactory.sol\":2536:2558  return accounts[owner] */\n      swap1\n      pop\n        /* \"contracts/SmartAccountFactory.sol\":2458:2566  function getAccount (address owner) external view returns(address) {... */\n      swap2\n      swap1\n      pop\n      jump\t// out\n    tag_18:\n      dataSize(sub_0)\n      dup1\n      dataOffset(sub_0)\n      dup4\n      codecopy\n      add\n      swap1\n      jump\t// out\n        /* \"#utility.yul\":88:205   */\n    tag_28:\n        /* \"#utility.yul\":197:198   */\n      0x00\n        /* \"#utility.yul\":194:195   */\n      0x00\n        /* \"#utility.yul\":187:199   */\n      revert\n        /* \"#utility.yul\":334:460   */\n    tag_30:\n        /* \"#utility.yul\":371:378   */\n      0x00\n        /* \"#utility.yul\":411:453   */\n      0xffffffffffffffffffffffffffffffffffffffff\n        /* \"#utility.yul\":404:409   */\n      dup3\n        /* \"#utility.yul\":400:454   */\n      and\n        /* \"#utility.yul\":389:454   */\n      swap1\n      pop\n        /* \"#utility.yul\":334:460   */\n      swap2\n      swap1\n      pop\n      jump\t// out\n        /* \"#utility.yul\":466:562   */\n    tag_31:\n        /* \"#utility.yul\":503:510   */\n      0x00\n        /* \"#utility.yul\":532:556   */\n      tag_52\n        /* \"#utility.yul\":550:555   */\n      dup3\n        /* \"#utility.yul\":532:556   */\n      tag_30\n      jump\t// in\n    tag_52:\n        /* \"#utility.yul\":521:556   */\n      swap1\n      pop\n        /* \"#utility.yul\":466:562   */\n      swap2\n      swap1\n      pop\n      jump\t// out\n        /* \"#utility.yul\":568:690   */\n    tag_32:\n        /* \"#utility.yul\":641:665   */\n      tag_54\n        /* \"#utility.yul\":659:664   */\n      dup2\n        /* \"#utility.yul\":641:665   */\n      tag_31\n      jump\t// in\n    tag_54:\n        /* \"#utility.yul\":634:639   */\n      dup2\n        /* \"#utility.yul\":631:666   */\n      eq\n        /* \"#utility.yul\":621:684   */\n      tag_55\n      jumpi\n        /* \"#utility.yul\":680:681   */\n      0x00\n        /* \"#utility.yul\":677:678   */\n      0x00\n        /* \"#utility.yul\":670:682   */\n      revert\n        /* \"#utility.yul\":621:684   */\n    tag_55:\n        /* \"#utility.yul\":568:690   */\n      pop\n      jump\t// out\n        /* \"#utility.yul\":696:835   */\n    tag_33:\n        /* \"#utility.yul\":742:747   */\n      0x00\n        /* \"#utility.yul\":780:786   */\n      dup2\n        /* \"#utility.yul\":767:787   */\n      calldataload\n        /* \"#utility.yul\":758:787   */\n      swap1\n      pop\n        /* \"#utility.yul\":796:829   */\n      tag_57\n        /* \"#utility.yul\":823:828   */\n      dup2\n        /* \"#utility.yul\":796:829   */\n      tag_32\n      jump\t// in\n    tag_57:\n        /* \"#utility.yul\":696:835   */\n      swap3\n      swap2\n      pop\n      pop\n      jump\t// out\n        /* \"#utility.yul\":841:1170   */\n    tag_7:\n        /* \"#utility.yul\":900:906   */\n      0x00\n        /* \"#utility.yul\":949:951   */\n      0x20\n        /* \"#utility.yul\":937:946   */\n      dup3\n        /* \"#utility.yul\":928:935   */\n      dup5\n        /* \"#utility.yul\":924:947   */\n      sub\n        /* \"#utility.yul\":920:952   */\n      slt\n        /* \"#utility.yul\":917:1036   */\n      iszero\n      tag_59\n      jumpi\n        /* \"#utility.yul\":955:1034   */\n      tag_60\n      tag_28\n      jump\t// in\n    tag_60:\n        /* \"#utility.yul\":917:1036   */\n    tag_59:\n        /* \"#utility.yul\":1075:1076   */\n      0x00\n        /* \"#utility.yul\":1100:1153   */\n      tag_61\n        /* \"#utility.yul\":1145:1152   */\n      dup5\n        /* \"#utility.yul\":1136:1142   */\n      dup3\n        /* \"#utility.yul\":1125:1134   */\n      dup6\n        /* \"#utility.yul\":1121:1143   */\n      add\n        /* \"#utility.yul\":1100:1153   */\n      tag_33\n      jump\t// in\n    tag_61:\n        /* \"#utility.yul\":1090:1153   */\n      swap2\n      pop\n        /* \"#utility.yul\":1046:1163   */\n      pop\n        /* \"#utility.yul\":841:1170   */\n      swap3\n      swap2\n      pop\n      pop\n      jump\t// out\n        /* \"#utility.yul\":1176:1294   */\n    tag_34:\n        /* \"#utility.yul\":1263:1287   */\n      tag_63\n        /* \"#utility.yul\":1281:1286   */\n      dup2\n        /* \"#utility.yul\":1263:1287   */\n      tag_31\n      jump\t// in\n    tag_63:\n        /* \"#utility.yul\":1258:1261   */\n      dup3\n        /* \"#utility.yul\":1251:1288   */\n      mstore\n        /* \"#utility.yul\":1176:1294   */\n      pop\n      pop\n      jump\t// out\n        /* \"#utility.yul\":1300:1522   */\n    tag_10:\n        /* \"#utility.yul\":1393:1397   */\n      0x00\n        /* \"#utility.yul\":1431:1433   */\n      0x20\n        /* \"#utility.yul\":1420:1429   */\n      dup3\n        /* \"#utility.yul\":1416:1434   */\n      add\n        /* \"#utility.yul\":1408:1434   */\n      swap1\n      pop\n        /* \"#utility.yul\":1444:1515   */\n      tag_65\n        /* \"#utility.yul\":1512:1513   */\n      0x00\n        /* \"#utility.yul\":1501:1510   */\n      dup4\n        /* \"#utility.yul\":1497:1514   */\n      add\n        /* \"#utility.yul\":1488:1494   */\n      dup5\n        /* \"#utility.yul\":1444:1515   */\n      tag_34\n      jump\t// in\n    tag_65:\n        /* \"#utility.yul\":1300:1522   */\n      swap3\n      swap2\n      pop\n      pop\n      jump\t// out\n        /* \"#utility.yul\":1528:1860   */\n    tag_20:\n        /* \"#utility.yul\":1649:1653   */\n      0x00\n        /* \"#utility.yul\":1687:1689   */\n      0x40\n        /* \"#utility.yul\":1676:1685   */\n      dup3\n        /* \"#utility.yul\":1672:1690   */\n      add\n        /* \"#utility.yul\":1664:1690   */\n      swap1\n      pop\n        /* \"#utility.yul\":1700:1771   */\n      tag_67\n        /* \"#utility.yul\":1768:1769   */\n      0x00\n        /* \"#utility.yul\":1757:1766   */\n      dup4\n        /* \"#utility.yul\":1753:1770   */\n      add\n        /* \"#utility.yul\":1744:1750   */\n      dup6\n        /* \"#utility.yul\":1700:1771   */\n      tag_34\n      jump\t// in\n    tag_67:\n        /* \"#utility.yul\":1781:1853   */\n      tag_68\n        /* \"#utility.yul\":1849:1851   */\n      0x20\n        /* \"#utility.yul\":1838:1847   */\n      dup4\n        /* \"#utility.yul\":1834:1852   */\n      add\n        /* \"#utility.yul\":1825:1831   */\n      dup5\n        /* \"#utility.yul\":1781:1853   */\n      tag_34\n      jump\t// in\n    tag_68:\n        /* \"#utility.yul\":1528:1860   */\n      swap4\n      swap3\n      pop\n      pop\n      pop\n      jump\t// out\n        /* \"#utility.yul\":1866:1964   */\n    tag_35:\n        /* \"#utility.yul\":1917:1923   */\n      0x00\n        /* \"#utility.yul\":1951:1956   */\n      dup2\n        /* \"#utility.yul\":1945:1957   */\n      mload\n        /* \"#utility.yul\":1935:1957   */\n      swap1\n      pop\n        /* \"#utility.yul\":1866:1964   */\n      swap2\n      swap1\n      pop\n      jump\t// out\n        /* \"#utility.yul\":1970:2117   */\n    tag_36:\n        /* \"#utility.yul\":2071:2082   */\n      0x00\n        /* \"#utility.yul\":2108:2111   */\n      dup2\n        /* \"#utility.yul\":2093:2111   */\n      swap1\n      pop\n        /* \"#utility.yul\":1970:2117   */\n      swap3\n      swap2\n      pop\n      pop\n      jump\t// out\n        /* \"#utility.yul\":2123:2262   */\n    tag_37:\n        /* \"#utility.yul\":2212:2218   */\n      dup3\n        /* \"#utility.yul\":2207:2210   */\n      dup2\n        /* \"#utility.yul\":2202:2205   */\n      dup4\n        /* \"#utility.yul\":2196:2219   */\n      mcopy\n        /* \"#utility.yul\":2253:2254   */\n      0x00\n        /* \"#utility.yul\":2244:2250   */\n      dup4\n        /* \"#utility.yul\":2239:2242   */\n      dup4\n        /* \"#utility.yul\":2235:2251   */\n      add\n        /* \"#utility.yul\":2228:2255   */\n      mstore\n        /* \"#utility.yul\":2123:2262   */\n      pop\n      pop\n      pop\n      jump\t// out\n        /* \"#utility.yul\":2268:2654   */\n    tag_38:\n        /* \"#utility.yul\":2372:2375   */\n      0x00\n        /* \"#utility.yul\":2400:2438   */\n      tag_73\n        /* \"#utility.yul\":2432:2437   */\n      dup3\n        /* \"#utility.yul\":2400:2438   */\n      tag_35\n      jump\t// in\n    tag_73:\n        /* \"#utility.yul\":2454:2542   */\n      tag_74\n        /* \"#utility.yul\":2535:2541   */\n      dup2\n        /* \"#utility.yul\":2530:2533   */\n      dup6\n        /* \"#utility.yul\":2454:2542   */\n      tag_36\n      jump\t// in\n    tag_74:\n        /* \"#utility.yul\":2447:2542   */\n      swap4\n      pop\n        /* \"#utility.yul\":2551:2616   */\n      tag_75\n        /* \"#utility.yul\":2609:2615   */\n      dup2\n        /* \"#utility.yul\":2604:2607   */\n      dup6\n        /* \"#utility.yul\":2597:2601   */\n      0x20\n        /* \"#utility.yul\":2590:2595   */\n      dup7\n        /* \"#utility.yul\":2586:2602   */\n      add\n        /* \"#utility.yul\":2551:2616   */\n      tag_37\n      jump\t// in\n    tag_75:\n        /* \"#utility.yul\":2641:2647   */\n      dup1\n        /* \"#utility.yul\":2636:2639   */\n      dup5\n        /* \"#utility.yul\":2632:2648   */\n      add\n        /* \"#utility.yul\":2625:2648   */\n      swap2\n      pop\n        /* \"#utility.yul\":2376:2654   */\n      pop\n        /* \"#utility.yul\":2268:2654   */\n      swap3\n      swap2\n      pop\n      pop\n      jump\t// out\n        /* \"#utility.yul\":2660:3087   */\n    tag_22:\n        /* \"#utility.yul\":2836:2839   */\n      0x00\n        /* \"#utility.yul\":2858:2951   */\n      tag_77\n        /* \"#utility.yul\":2947:2950   */\n      dup3\n        /* \"#utility.yul\":2938:2944   */\n      dup6\n        /* \"#utility.yul\":2858:2951   */\n      tag_38\n      jump\t// in\n    tag_77:\n        /* \"#utility.yul\":2851:2951   */\n      swap2\n      pop\n        /* \"#utility.yul\":2968:3061   */\n      tag_78\n        /* \"#utility.yul\":3057:3060   */\n      dup3\n        /* \"#utility.yul\":3048:3054   */\n      dup5\n        /* \"#utility.yul\":2968:3061   */\n      tag_38\n      jump\t// in\n    tag_78:\n        /* \"#utility.yul\":2961:3061   */\n      swap2\n      pop\n        /* \"#utility.yul\":3078:3081   */\n      dup2\n        /* \"#utility.yul\":3071:3081   */\n      swap1\n      pop\n        /* \"#utility.yul\":2660:3087   */\n      swap4\n      swap3\n      pop\n      pop\n      pop\n      jump\t// out\n        /* \"#utility.yul\":3093:3187   */\n    tag_39:\n        /* \"#utility.yul\":3126:3134   */\n      0x00\n        /* \"#utility.yul\":3174:3179   */\n      dup2\n        /* \"#utility.yul\":3170:3172   */\n      0x60\n        /* \"#utility.yul\":3166:3180   */\n      shl\n        /* \"#utility.yul\":3145:3180   */\n      swap1\n      pop\n        /* \"#utility.yul\":3093:3187   */\n      swap2\n      swap1\n      pop\n      jump\t// out\n        /* \"#utility.yul\":3193:3287   */\n    tag_40:\n        /* \"#utility.yul\":3232:3239   */\n      0x00\n        /* \"#utility.yul\":3261:3281   */\n      tag_81\n        /* \"#utility.yul\":3275:3280   */\n      dup3\n        /* \"#utility.yul\":3261:3281   */\n      tag_39\n      jump\t// in\n    tag_81:\n        /* \"#utility.yul\":3250:3281   */\n      swap1\n      pop\n        /* \"#utility.yul\":3193:3287   */\n      swap2\n      swap1\n      pop\n      jump\t// out\n        /* \"#utility.yul\":3293:3393   */\n    tag_41:\n        /* \"#utility.yul\":3332:3339   */\n      0x00\n        /* \"#utility.yul\":3361:3387   */\n      tag_83\n        /* \"#utility.yul\":3381:3386   */\n      dup3\n        /* \"#utility.yul\":3361:3387   */\n      tag_40\n      jump\t// in\n    tag_83:\n        /* \"#utility.yul\":3350:3387   */\n      swap1\n      pop\n        /* \"#utility.yul\":3293:3393   */\n      swap2\n      swap1\n      pop\n      jump\t// out\n        /* \"#utility.yul\":3399:3556   */\n    tag_42:\n        /* \"#utility.yul\":3504:3549   */\n      tag_85\n        /* \"#utility.yul\":3524:3548   */\n      tag_86\n        /* \"#utility.yul\":3542:3547   */\n      dup3\n        /* \"#utility.yul\":3524:3548   */\n      tag_31\n      jump\t// in\n    tag_86:\n        /* \"#utility.yul\":3504:3549   */\n      tag_41\n      jump\t// in\n    tag_85:\n        /* \"#utility.yul\":3499:3502   */\n      dup3\n        /* \"#utility.yul\":3492:3550   */\n      mstore\n        /* \"#utility.yul\":3399:3556   */\n      pop\n      pop\n      jump\t// out\n        /* \"#utility.yul\":3562:3639   */\n    tag_43:\n        /* \"#utility.yul\":3599:3606   */\n      0x00\n        /* \"#utility.yul\":3628:3633   */\n      dup2\n        /* \"#utility.yul\":3617:3633   */\n      swap1\n      pop\n        /* \"#utility.yul\":3562:3639   */\n      swap2\n      swap1\n      pop\n      jump\t// out\n        /* \"#utility.yul\":3645:3724   */\n    tag_44:\n        /* \"#utility.yul\":3684:3691   */\n      0x00\n        /* \"#utility.yul\":3713:3718   */\n      dup2\n        /* \"#utility.yul\":3702:3718   */\n      swap1\n      pop\n        /* \"#utility.yul\":3645:3724   */\n      swap2\n      swap1\n      pop\n      jump\t// out\n        /* \"#utility.yul\":3730:3887   */\n    tag_45:\n        /* \"#utility.yul\":3835:3880   */\n      tag_90\n        /* \"#utility.yul\":3855:3879   */\n      tag_91\n        /* \"#utility.yul\":3873:3878   */\n      dup3\n        /* \"#utility.yul\":3855:3879   */\n      tag_43\n      jump\t// in\n    tag_91:\n        /* \"#utility.yul\":3835:3880   */\n      tag_44\n      jump\t// in\n    tag_90:\n        /* \"#utility.yul\":3830:3833   */\n      dup3\n        /* \"#utility.yul\":3823:3881   */\n      mstore\n        /* \"#utility.yul\":3730:3887   */\n      pop\n      pop\n      jump\t// out\n        /* \"#utility.yul\":3893:4290   */\n    tag_24:\n        /* \"#utility.yul\":4033:4036   */\n      0x00\n        /* \"#utility.yul\":4048:4123   */\n      tag_93\n        /* \"#utility.yul\":4119:4122   */\n      dup3\n        /* \"#utility.yul\":4110:4116   */\n      dup6\n        /* \"#utility.yul\":4048:4123   */\n      tag_42\n      jump\t// in\n    tag_93:\n        /* \"#utility.yul\":4148:4150   */\n      0x14\n        /* \"#utility.yul\":4143:4146   */\n      dup3\n        /* \"#utility.yul\":4139:4151   */\n      add\n        /* \"#utility.yul\":4132:4151   */\n      swap2\n      pop\n        /* \"#utility.yul\":4161:4236   */\n      tag_94\n        /* \"#utility.yul\":4232:4235   */\n      dup3\n        /* \"#utility.yul\":4223:4229   */\n      dup5\n        /* \"#utility.yul\":4161:4236   */\n      tag_45\n      jump\t// in\n    tag_94:\n        /* \"#utility.yul\":4261:4263   */\n      0x20\n        /* \"#utility.yul\":4256:4259   */\n      dup3\n        /* \"#utility.yul\":4252:4264   */\n      add\n        /* \"#utility.yul\":4245:4264   */\n      swap2\n      pop\n        /* \"#utility.yul\":4281:4284   */\n      dup2\n        /* \"#utility.yul\":4274:4284   */\n      swap1\n      pop\n        /* \"#utility.yul\":3893:4290   */\n      swap4\n      swap3\n      pop\n      pop\n      pop\n      jump\t// out\n    stop\n\n    sub_0: assembly {\n            /* \"contracts/SmartAccount.sol\":60:2446  contract SmartAccount {... */\n          mstore(0x40, 0x80)\n            /* \"contracts/SmartAccount.sol\":152:269  constructor(address _owner, address _entryPoint) {... */\n          callvalue\n          dup1\n          iszero\n          tag_1\n          jumpi\n          revert(0x00, 0x00)\n        tag_1:\n          pop\n          mload(0x40)\n          sub(codesize, bytecodeSize)\n          dup1\n          bytecodeSize\n          dup4\n          codecopy\n          dup2\n          dup2\n          add\n          0x40\n          mstore\n          dup2\n          add\n          swap1\n          tag_2\n          swap2\n          swap1\n          tag_3\n          jump\t// in\n        tag_2:\n            /* \"contracts/SmartAccount.sol\":220:226  _owner */\n          dup2\n            /* \"contracts/SmartAccount.sol\":212:217  owner */\n          0x00\n          0x00\n            /* \"contracts/SmartAccount.sol\":212:226  owner = _owner */\n          0x0100\n          exp\n          dup2\n          sload\n          dup2\n          0xffffffffffffffffffffffffffffffffffffffff\n          mul\n          not\n          and\n          swap1\n          dup4\n          0xffffffffffffffffffffffffffffffffffffffff\n          and\n          mul\n          or\n          swap1\n          sstore\n          pop\n            /* \"contracts/SmartAccount.sol\":250:261  _entryPoint */\n          dup1\n            /* \"contracts/SmartAccount.sol\":237:247  entryPoint */\n          0x01\n          0x00\n            /* \"contracts/SmartAccount.sol\":237:261  entryPoint = _entryPoint */\n          0x0100\n          exp\n          dup2\n          sload\n          dup2\n          0xffffffffffffffffffffffffffffffffffffffff\n          mul\n          not\n          and\n          swap1\n          dup4\n          0xffffffffffffffffffffffffffffffffffffffff\n          and\n          mul\n          or\n          swap1\n          sstore\n          pop\n            /* \"contracts/SmartAccount.sol\":152:269  constructor(address _owner, address _entryPoint) {... */\n          pop\n          pop\n            /* \"contracts/SmartAccount.sol\":60:2446  contract SmartAccount {... */\n          jump(tag_6)\n            /* \"#utility.yul\":88:205   */\n        tag_8:\n            /* \"#utility.yul\":197:198   */\n          0x00\n            /* \"#utility.yul\":194:195   */\n          0x00\n            /* \"#utility.yul\":187:199   */\n          revert\n            /* \"#utility.yul\":334:460   */\n        tag_10:\n            /* \"#utility.yul\":371:378   */\n          0x00\n            /* \"#utility.yul\":411:453   */\n          0xffffffffffffffffffffffffffffffffffffffff\n            /* \"#utility.yul\":404:409   */\n          dup3\n            /* \"#utility.yul\":400:454   */\n          and\n            /* \"#utility.yul\":389:454   */\n          swap1\n          pop\n            /* \"#utility.yul\":334:460   */\n          swap2\n          swap1\n          pop\n          jump\t// out\n            /* \"#utility.yul\":466:562   */\n        tag_11:\n            /* \"#utility.yul\":503:510   */\n          0x00\n            /* \"#utility.yul\":532:556   */\n          tag_20\n            /* \"#utility.yul\":550:555   */\n          dup3\n            /* \"#utility.yul\":532:556   */\n          tag_10\n          jump\t// in\n        tag_20:\n            /* \"#utility.yul\":521:556   */\n          swap1\n          pop\n            /* \"#utility.yul\":466:562   */\n          swap2\n          swap1\n          pop\n          jump\t// out\n            /* \"#utility.yul\":568:690   */\n        tag_12:\n            /* \"#utility.yul\":641:665   */\n          tag_22\n            /* \"#utility.yul\":659:664   */\n          dup2\n            /* \"#utility.yul\":641:665   */\n          tag_11\n          jump\t// in\n        tag_22:\n            /* \"#utility.yul\":634:639   */\n          dup2\n            /* \"#utility.yul\":631:666   */\n          eq\n            /* \"#utility.yul\":621:684   */\n          tag_23\n          jumpi\n            /* \"#utility.yul\":680:681   */\n          0x00\n            /* \"#utility.yul\":677:678   */\n          0x00\n            /* \"#utility.yul\":670:682   */\n          revert\n            /* \"#utility.yul\":621:684   */\n        tag_23:\n            /* \"#utility.yul\":568:690   */\n          pop\n          jump\t// out\n            /* \"#utility.yul\":696:839   */\n        tag_13:\n            /* \"#utility.yul\":753:758   */\n          0x00\n            /* \"#utility.yul\":784:790   */\n          dup2\n            /* \"#utility.yul\":778:791   */\n          mload\n            /* \"#utility.yul\":769:791   */\n          swap1\n          pop\n            /* \"#utility.yul\":800:833   */\n          tag_25\n            /* \"#utility.yul\":827:832   */\n          dup2\n            /* \"#utility.yul\":800:833   */\n          tag_12\n          jump\t// in\n        tag_25:\n            /* \"#utility.yul\":696:839   */\n          swap3\n          swap2\n          pop\n          pop\n          jump\t// out\n            /* \"#utility.yul\":845:1352   */\n        tag_3:\n            /* \"#utility.yul\":924:930   */\n          0x00\n            /* \"#utility.yul\":932:938   */\n          0x00\n            /* \"#utility.yul\":981:983   */\n          0x40\n            /* \"#utility.yul\":969:978   */\n          dup4\n            /* \"#utility.yul\":960:967   */\n          dup6\n            /* \"#utility.yul\":956:979   */\n          sub\n            /* \"#utility.yul\":952:984   */\n          slt\n            /* \"#utility.yul\":949:1068   */\n          iszero\n          tag_27\n          jumpi\n            /* \"#utility.yul\":987:1066   */\n          tag_28\n          tag_8\n          jump\t// in\n        tag_28:\n            /* \"#utility.yul\":949:1068   */\n        tag_27:\n            /* \"#utility.yul\":1107:1108   */\n          0x00\n            /* \"#utility.yul\":1132:1196   */\n          tag_29\n            /* \"#utility.yul\":1188:1195   */\n          dup6\n            /* \"#utility.yul\":1179:1185   */\n          dup3\n            /* \"#utility.yul\":1168:1177   */\n          dup7\n            /* \"#utility.yul\":1164:1186   */\n          add\n            /* \"#utility.yul\":1132:1196   */\n          tag_13\n          jump\t// in\n        tag_29:\n            /* \"#utility.yul\":1122:1196   */\n          swap3\n          pop\n            /* \"#utility.yul\":1078:1206   */\n          pop\n            /* \"#utility.yul\":1245:1247   */\n          0x20\n            /* \"#utility.yul\":1271:1335   */\n          tag_30\n            /* \"#utility.yul\":1327:1334   */\n          dup6\n            /* \"#utility.yul\":1318:1324   */\n          dup3\n            /* \"#utility.yul\":1307:1316   */\n          dup7\n            /* \"#utility.yul\":1303:1325   */\n          add\n            /* \"#utility.yul\":1271:1335   */\n          tag_13\n          jump\t// in\n        tag_30:\n            /* \"#utility.yul\":1261:1335   */\n          swap2\n          pop\n            /* \"#utility.yul\":1216:1345   */\n          pop\n            /* \"#utility.yul\":845:1352   */\n          swap3\n          pop\n          swap3\n          swap1\n          pop\n          jump\t// out\n            /* \"contracts/SmartAccount.sol\":60:2446  contract SmartAccount {... */\n        tag_6:\n          dataSize(sub_0)\n          dup1\n          dataOffset(sub_0)\n          0x00\n          codecopy\n          0x00\n          return\n        stop\n\n        sub_0: assembly {\n                /* \"contracts/SmartAccount.sol\":60:2446  contract SmartAccount {... */\n              mstore(0x40, 0x80)\n              jumpi(tag_1, lt(calldatasize, 0x04))\n              shr(0xe0, calldataload(0x00))\n              dup1\n              0x1626ba7e\n              eq\n              tag_3\n              jumpi\n              dup1\n              0xb61d27f6\n              eq\n              tag_4\n              jumpi\n              jump(tag_2)\n            tag_1:\n              jumpi(tag_2, calldatasize)\n              stop\n            tag_2:\n              revert(0x00, 0x00)\n                /* \"contracts/SmartAccount.sol\":1342:1576  function isValidSignature(bytes32 _hash, bytes calldata sig) external view returns (bool) {... */\n            tag_3:\n              callvalue\n              dup1\n              iszero\n              tag_7\n              jumpi\n              revert(0x00, 0x00)\n            tag_7:\n              pop\n              tag_8\n              0x04\n              dup1\n              calldatasize\n              sub\n              dup2\n              add\n              swap1\n              tag_9\n              swap2\n              swap1\n              tag_10\n              jump\t// in\n            tag_9:\n              tag_11\n              jump\t// in\n            tag_8:\n              mload(0x40)\n              tag_12\n              swap2\n              swap1\n              tag_13\n              jump\t// in\n            tag_12:\n              mload(0x40)\n              dup1\n              swap2\n              sub\n              swap1\n              return\n                /* \"contracts/SmartAccount.sol\":495:1334  function execute(address to, uint value, bytes calldata data) external onlyEntryPoint {... */\n            tag_4:\n              callvalue\n              dup1\n              iszero\n              tag_14\n              jumpi\n              revert(0x00, 0x00)\n            tag_14:\n              pop\n              tag_15\n              0x04\n              dup1\n              calldatasize\n              sub\n              dup2\n              add\n              swap1\n              tag_16\n              swap2\n              swap1\n              tag_17\n              jump\t// in\n            tag_16:\n              tag_18\n              jump\t// in\n            tag_15:\n              stop\n                /* \"contracts/SmartAccount.sol\":1342:1576  function isValidSignature(bytes32 _hash, bytes calldata sig) external view returns (bool) {... */\n            tag_11:\n                /* \"contracts/SmartAccount.sol\":1426:1430  bool */\n              0x00\n                /* \"contracts/SmartAccount.sol\":1443:1460  address recovered */\n              0x00\n                /* \"contracts/SmartAccount.sol\":1463:1489  _recoverSigner(_hash, sig) */\n              tag_20\n                /* \"contracts/SmartAccount.sol\":1478:1483  _hash */\n              dup6\n                /* \"contracts/SmartAccount.sol\":1485:1488  sig */\n              dup6\n              dup6\n                /* \"contracts/SmartAccount.sol\":1463:1489  _recoverSigner(_hash, sig) */\n              dup1\n              dup1\n              0x1f\n              add\n              0x20\n              dup1\n              swap2\n              div\n              mul\n              0x20\n              add\n              mload(0x40)\n              swap1\n              dup2\n              add\n              0x40\n              mstore\n              dup1\n              swap4\n              swap3\n              swap2\n              swap1\n              dup2\n              dup2\n              mstore\n              0x20\n              add\n              dup4\n              dup4\n              dup1\n              dup3\n              dup5\n              calldatacopy\n              0x00\n              dup2\n              dup5\n              add\n              mstore\n              not(0x1f)\n              0x1f\n              dup3\n              add\n              and\n              swap1\n              pop\n              dup1\n              dup4\n              add\n              swap3\n              pop\n              pop\n              pop\n              pop\n              pop\n              pop\n              pop\n                /* \"contracts/SmartAccount.sol\":1463:1477  _recoverSigner */\n              tag_21\n                /* \"contracts/SmartAccount.sol\":1463:1489  _recoverSigner(_hash, sig) */\n              jump\t// in\n            tag_20:\n                /* \"contracts/SmartAccount.sol\":1443:1489  address recovered = _recoverSigner(_hash, sig) */\n              swap1\n              pop\n                /* \"contracts/SmartAccount.sol\":1520:1525  owner */\n              0x00\n              0x00\n              swap1\n              sload\n              swap1\n              0x0100\n              exp\n              swap1\n              div\n              0xffffffffffffffffffffffffffffffffffffffff\n              and\n                /* \"contracts/SmartAccount.sol\":1507:1525  recovered == owner */\n              0xffffffffffffffffffffffffffffffffffffffff\n              and\n                /* \"contracts/SmartAccount.sol\":1507:1516  recovered */\n              dup2\n                /* \"contracts/SmartAccount.sol\":1507:1525  recovered == owner */\n              0xffffffffffffffffffffffffffffffffffffffff\n              and\n              eq\n                /* \"contracts/SmartAccount.sol\":1500:1525  return recovered == owner */\n              swap2\n              pop\n              pop\n                /* \"contracts/SmartAccount.sol\":1342:1576  function isValidSignature(bytes32 _hash, bytes calldata sig) external view returns (bool) {... */\n              swap4\n              swap3\n              pop\n              pop\n              pop\n              jump\t// out\n                /* \"contracts/SmartAccount.sol\":495:1334  function execute(address to, uint value, bytes calldata data) external onlyEntryPoint {... */\n            tag_18:\n                /* \"contracts/SmartAccount.sol\":336:346  entryPoint */\n              0x01\n              0x00\n              swap1\n              sload\n              swap1\n              0x0100\n              exp\n              swap1\n              div\n              0xffffffffffffffffffffffffffffffffffffffff\n              and\n                /* \"contracts/SmartAccount.sol\":322:346  msg.sender == entryPoint */\n              0xffffffffffffffffffffffffffffffffffffffff\n              and\n                /* \"contracts/SmartAccount.sol\":322:332  msg.sender */\n              caller\n                /* \"contracts/SmartAccount.sol\":322:346  msg.sender == entryPoint */\n              0xffffffffffffffffffffffffffffffffffffffff\n              and\n              eq\n                /* \"contracts/SmartAccount.sol\":314:347  require(msg.sender == entryPoint) */\n              tag_23\n              jumpi\n              revert(0x00, 0x00)\n            tag_23:\n                /* \"contracts/SmartAccount.sol\":1197:1209  bool success */\n              0x00\n                /* \"contracts/SmartAccount.sol\":1214:1216  to */\n              dup5\n                /* \"contracts/SmartAccount.sol\":1214:1221  to.call */\n              0xffffffffffffffffffffffffffffffffffffffff\n              and\n                /* \"contracts/SmartAccount.sol\":1230:1235  value */\n              dup5\n                /* \"contracts/SmartAccount.sol\":1237:1241  data */\n              dup5\n              dup5\n                /* \"contracts/SmartAccount.sol\":1214:1242  to.call{value : value}(data) */\n              mload(0x40)\n              tag_25\n              swap3\n              swap2\n              swap1\n              tag_26\n              jump\t// in\n            tag_25:\n              0x00\n              mload(0x40)\n              dup1\n              dup4\n              sub\n              dup2\n              dup6\n              dup8\n              gas\n              call\n              swap3\n              pop\n              pop\n              pop\n              returndatasize\n              dup1\n              0x00\n              dup2\n              eq\n              tag_29\n              jumpi\n              mload(0x40)\n              swap2\n              pop\n              and(add(returndatasize, 0x3f), not(0x1f))\n              dup3\n              add\n              0x40\n              mstore\n              returndatasize\n              dup3\n              mstore\n              returndatasize\n              0x00\n              0x20\n              dup5\n              add\n              returndatacopy\n              jump(tag_28)\n            tag_29:\n              0x60\n              swap2\n              pop\n            tag_28:\n              pop\n                /* \"contracts/SmartAccount.sol\":1196:1242  (bool success,) = to.call{value : value}(data) */\n              pop\n              swap1\n              pop\n                /* \"contracts/SmartAccount.sol\":1318:1325  success */\n              dup1\n                /* \"contracts/SmartAccount.sol\":1310:1326  require(success) */\n              tag_30\n              jumpi\n              revert(0x00, 0x00)\n            tag_30:\n                /* \"contracts/SmartAccount.sol\":581:1334  {... */\n              pop\n                /* \"contracts/SmartAccount.sol\":495:1334  function execute(address to, uint value, bytes calldata data) external onlyEntryPoint {... */\n              pop\n              pop\n              pop\n              pop\n              jump\t// out\n                /* \"contracts/SmartAccount.sol\":1584:1862  function _recoverSigner(bytes32 _hash, bytes memory sig) internal pure returns (address) {... */\n            tag_21:\n                /* \"contracts/SmartAccount.sol\":1664:1671  address */\n              0x00\n                /* \"contracts/SmartAccount.sol\":1717:1726  bytes32 r */\n              0x00\n                /* \"contracts/SmartAccount.sol\":1728:1737  bytes32 s */\n              0x00\n                /* \"contracts/SmartAccount.sol\":1739:1746  uint8 v */\n              0x00\n                /* \"contracts/SmartAccount.sol\":1750:1765  _splitSign(sig) */\n              tag_32\n                /* \"contracts/SmartAccount.sol\":1761:1764  sig */\n              dup6\n                /* \"contracts/SmartAccount.sol\":1750:1760  _splitSign */\n              tag_33\n                /* \"contracts/SmartAccount.sol\":1750:1765  _splitSign(sig) */\n              jump\t// in\n            tag_32:\n                /* \"contracts/SmartAccount.sol\":1716:1765  (bytes32 r, bytes32 s, uint8 v) = _splitSign(sig) */\n              swap3\n              pop\n              swap3\n              pop\n              swap3\n              pop\n                /* \"contracts/SmartAccount.sol\":1829:1854  ecrecover(_hash, v, r, s) */\n              0x01\n                /* \"contracts/SmartAccount.sol\":1839:1844  _hash */\n              dup7\n                /* \"contracts/SmartAccount.sol\":1846:1847  v */\n              dup3\n                /* \"contracts/SmartAccount.sol\":1849:1850  r */\n              dup6\n                /* \"contracts/SmartAccount.sol\":1852:1853  s */\n              dup6\n                /* \"contracts/SmartAccount.sol\":1829:1854  ecrecover(_hash, v, r, s) */\n              mload(0x40)\n              0x00\n              dup2\n              mstore\n              0x20\n              add\n              0x40\n              mstore\n              mload(0x40)\n              tag_34\n              swap5\n              swap4\n              swap3\n              swap2\n              swap1\n              tag_35\n              jump\t// in\n            tag_34:\n              0x20\n              mload(0x40)\n              0x20\n              dup2\n              sub\n              swap1\n              dup1\n              dup5\n              sub\n              swap1\n              dup6\n              gas\n              staticcall\n              iszero\n              dup1\n              iszero\n              tag_37\n              jumpi\n              returndatacopy(0x00, 0x00, returndatasize)\n              revert(0x00, returndatasize)\n            tag_37:\n              pop\n              pop\n              pop\n              mload(sub(mload(0x40), 0x20))\n                /* \"contracts/SmartAccount.sol\":1822:1854  return ecrecover(_hash, v, r, s) */\n              swap4\n              pop\n              pop\n              pop\n              pop\n                /* \"contracts/SmartAccount.sol\":1584:1862  function _recoverSigner(bytes32 _hash, bytes memory sig) internal pure returns (address) {... */\n              swap3\n              swap2\n              pop\n              pop\n              jump\t// out\n                /* \"contracts/SmartAccount.sol\":2015:2356  function _splitSign (bytes memory sig) internal pure returns(bytes32 r, bytes32 s, uint8 v) {... */\n            tag_33:\n                /* \"contracts/SmartAccount.sol\":2076:2085  bytes32 r */\n              0x00\n                /* \"contracts/SmartAccount.sol\":2087:2096  bytes32 s */\n              0x00\n                /* \"contracts/SmartAccount.sol\":2098:2105  uint8 v */\n              0x00\n                /* \"contracts/SmartAccount.sol\":2192:2194  65 */\n              0x41\n                /* \"contracts/SmartAccount.sol\":2178:2181  sig */\n              dup5\n                /* \"contracts/SmartAccount.sol\":2178:2188  sig.length */\n              mload\n                /* \"contracts/SmartAccount.sol\":2178:2194  sig.length == 65 */\n              eq\n                /* \"contracts/SmartAccount.sol\":2170:2195  require(sig.length == 65) */\n              tag_39\n              jumpi\n              revert(0x00, 0x00)\n            tag_39:\n                /* \"contracts/SmartAccount.sol\":2249:2251  32 */\n              0x20\n                /* \"contracts/SmartAccount.sol\":2244:2247  sig */\n              dup5\n                /* \"contracts/SmartAccount.sol\":2240:2252  add(sig, 32) */\n              add\n                /* \"contracts/SmartAccount.sol\":2234:2253  mload(add(sig, 32)) */\n              mload\n                /* \"contracts/SmartAccount.sol\":2229:2253  r := mload(add(sig, 32)) */\n              swap3\n              pop\n                /* \"contracts/SmartAccount.sol\":2287:2289  64 */\n              0x40\n                /* \"contracts/SmartAccount.sol\":2282:2285  sig */\n              dup5\n                /* \"contracts/SmartAccount.sol\":2278:2290  add(sig, 64) */\n              add\n                /* \"contracts/SmartAccount.sol\":2272:2291  mload(add(sig, 64)) */\n              mload\n                /* \"contracts/SmartAccount.sol\":2267:2291  s := mload(add(sig, 64)) */\n              swap2\n              pop\n                /* \"contracts/SmartAccount.sol\":2333:2335  96 */\n              0x60\n                /* \"contracts/SmartAccount.sol\":2328:2331  sig */\n              dup5\n                /* \"contracts/SmartAccount.sol\":2324:2336  add(sig, 96) */\n              add\n                /* \"contracts/SmartAccount.sol\":2318:2337  mload(add(sig, 96)) */\n              mload\n                /* \"contracts/SmartAccount.sol\":2315:2316  0 */\n              0x00\n                /* \"contracts/SmartAccount.sol\":2310:2338  byte(0, mload(add(sig, 96))) */\n              byte\n                /* \"contracts/SmartAccount.sol\":2305:2338  v := byte(0, mload(add(sig, 96))) */\n              swap1\n              pop\n                /* \"contracts/SmartAccount.sol\":2015:2356  function _splitSign (bytes memory sig) internal pure returns(bytes32 r, bytes32 s, uint8 v) {... */\n              swap2\n              swap4\n              swap1\n              swap3\n              pop\n              jump\t// out\n                /* \"#utility.yul\":88:205   */\n            tag_41:\n                /* \"#utility.yul\":197:198   */\n              0x00\n                /* \"#utility.yul\":194:195   */\n              0x00\n                /* \"#utility.yul\":187:199   */\n              revert\n                /* \"#utility.yul\":211:328   */\n            tag_42:\n                /* \"#utility.yul\":320:321   */\n              0x00\n                /* \"#utility.yul\":317:318   */\n              0x00\n                /* \"#utility.yul\":310:322   */\n              revert\n                /* \"#utility.yul\":334:411   */\n            tag_43:\n                /* \"#utility.yul\":371:378   */\n              0x00\n                /* \"#utility.yul\":400:405   */\n              dup2\n                /* \"#utility.yul\":389:405   */\n              swap1\n              pop\n                /* \"#utility.yul\":334:411   */\n              swap2\n              swap1\n              pop\n              jump\t// out\n                /* \"#utility.yul\":417:539   */\n            tag_44:\n                /* \"#utility.yul\":490:514   */\n              tag_71\n                /* \"#utility.yul\":508:513   */\n              dup2\n                /* \"#utility.yul\":490:514   */\n              tag_43\n              jump\t// in\n            tag_71:\n                /* \"#utility.yul\":483:488   */\n              dup2\n                /* \"#utility.yul\":480:515   */\n              eq\n                /* \"#utility.yul\":470:533   */\n              tag_72\n              jumpi\n                /* \"#utility.yul\":529:530   */\n              0x00\n                /* \"#utility.yul\":526:527   */\n              0x00\n                /* \"#utility.yul\":519:531   */\n              revert\n                /* \"#utility.yul\":470:533   */\n            tag_72:\n                /* \"#utility.yul\":417:539   */\n              pop\n              jump\t// out\n                /* \"#utility.yul\":545:684   */\n            tag_45:\n                /* \"#utility.yul\":591:596   */\n              0x00\n                /* \"#utility.yul\":629:635   */\n              dup2\n                /* \"#utility.yul\":616:636   */\n              calldataload\n                /* \"#utility.yul\":607:636   */\n              swap1\n              pop\n                /* \"#utility.yul\":645:678   */\n              tag_74\n                /* \"#utility.yul\":672:677   */\n              dup2\n                /* \"#utility.yul\":645:678   */\n              tag_44\n              jump\t// in\n            tag_74:\n                /* \"#utility.yul\":545:684   */\n              swap3\n              swap2\n              pop\n              pop\n              jump\t// out\n                /* \"#utility.yul\":690:807   */\n            tag_46:\n                /* \"#utility.yul\":799:800   */\n              0x00\n                /* \"#utility.yul\":796:797   */\n              0x00\n                /* \"#utility.yul\":789:801   */\n              revert\n                /* \"#utility.yul\":813:930   */\n            tag_47:\n                /* \"#utility.yul\":922:923   */\n              0x00\n                /* \"#utility.yul\":919:920   */\n              0x00\n                /* \"#utility.yul\":912:924   */\n              revert\n                /* \"#utility.yul\":936:1053   */\n            tag_48:\n                /* \"#utility.yul\":1045:1046   */\n              0x00\n                /* \"#utility.yul\":1042:1043   */\n              0x00\n                /* \"#utility.yul\":1035:1047   */\n              revert\n                /* \"#utility.yul\":1072:1624   */\n            tag_49:\n                /* \"#utility.yul\":1129:1137   */\n              0x00\n                /* \"#utility.yul\":1139:1145   */\n              0x00\n                /* \"#utility.yul\":1189:1192   */\n              dup4\n                /* \"#utility.yul\":1182:1186   */\n              0x1f\n                /* \"#utility.yul\":1174:1180   */\n              dup5\n                /* \"#utility.yul\":1170:1187   */\n              add\n                /* \"#utility.yul\":1166:1193   */\n              slt\n                /* \"#utility.yul\":1156:1278   */\n              tag_79\n              jumpi\n                /* \"#utility.yul\":1197:1276   */\n              tag_80\n              tag_46\n              jump\t// in\n            tag_80:\n                /* \"#utility.yul\":1156:1278   */\n            tag_79:\n                /* \"#utility.yul\":1310:1316   */\n              dup3\n                /* \"#utility.yul\":1297:1317   */\n              calldataload\n                /* \"#utility.yul\":1287:1317   */\n              swap1\n              pop\n                /* \"#utility.yul\":1340:1358   */\n              0xffffffffffffffff\n                /* \"#utility.yul\":1332:1338   */\n              dup2\n                /* \"#utility.yul\":1329:1359   */\n              gt\n                /* \"#utility.yul\":1326:1443   */\n              iszero\n              tag_81\n              jumpi\n                /* \"#utility.yul\":1362:1441   */\n              tag_82\n              tag_47\n              jump\t// in\n            tag_82:\n                /* \"#utility.yul\":1326:1443   */\n            tag_81:\n                /* \"#utility.yul\":1476:1480   */\n              0x20\n                /* \"#utility.yul\":1468:1474   */\n              dup4\n                /* \"#utility.yul\":1464:1481   */\n              add\n                /* \"#utility.yul\":1452:1481   */\n              swap2\n              pop\n                /* \"#utility.yul\":1530:1533   */\n              dup4\n                /* \"#utility.yul\":1522:1526   */\n              0x01\n                /* \"#utility.yul\":1514:1520   */\n              dup3\n                /* \"#utility.yul\":1510:1527   */\n              mul\n                /* \"#utility.yul\":1500:1508   */\n              dup4\n                /* \"#utility.yul\":1496:1528   */\n              add\n                /* \"#utility.yul\":1493:1534   */\n              gt\n                /* \"#utility.yul\":1490:1618   */\n              iszero\n              tag_83\n              jumpi\n                /* \"#utility.yul\":1537:1616   */\n              tag_84\n              tag_48\n              jump\t// in\n            tag_84:\n                /* \"#utility.yul\":1490:1618   */\n            tag_83:\n                /* \"#utility.yul\":1072:1624   */\n              swap3\n              pop\n              swap3\n              swap1\n              pop\n              jump\t// out\n                /* \"#utility.yul\":1630:2302   */\n            tag_10:\n                /* \"#utility.yul\":1709:1715   */\n              0x00\n                /* \"#utility.yul\":1717:1723   */\n              0x00\n                /* \"#utility.yul\":1725:1731   */\n              0x00\n                /* \"#utility.yul\":1774:1776   */\n              0x40\n                /* \"#utility.yul\":1762:1771   */\n              dup5\n                /* \"#utility.yul\":1753:1760   */\n              dup7\n                /* \"#utility.yul\":1749:1772   */\n              sub\n                /* \"#utility.yul\":1745:1777   */\n              slt\n                /* \"#utility.yul\":1742:1861   */\n              iszero\n              tag_86\n              jumpi\n                /* \"#utility.yul\":1780:1859   */\n              tag_87\n              tag_41\n              jump\t// in\n            tag_87:\n                /* \"#utility.yul\":1742:1861   */\n            tag_86:\n                /* \"#utility.yul\":1900:1901   */\n              0x00\n                /* \"#utility.yul\":1925:1978   */\n              tag_88\n                /* \"#utility.yul\":1970:1977   */\n              dup7\n                /* \"#utility.yul\":1961:1967   */\n              dup3\n                /* \"#utility.yul\":1950:1959   */\n              dup8\n                /* \"#utility.yul\":1946:1968   */\n              add\n                /* \"#utility.yul\":1925:1978   */\n              tag_45\n              jump\t// in\n            tag_88:\n                /* \"#utility.yul\":1915:1978   */\n              swap4\n              pop\n                /* \"#utility.yul\":1871:1988   */\n              pop\n                /* \"#utility.yul\":2055:2057   */\n              0x20\n                /* \"#utility.yul\":2044:2053   */\n              dup5\n                /* \"#utility.yul\":2040:2058   */\n              add\n                /* \"#utility.yul\":2027:2059   */\n              calldataload\n                /* \"#utility.yul\":2086:2104   */\n              0xffffffffffffffff\n                /* \"#utility.yul\":2078:2084   */\n              dup2\n                /* \"#utility.yul\":2075:2105   */\n              gt\n                /* \"#utility.yul\":2072:2189   */\n              iszero\n              tag_89\n              jumpi\n                /* \"#utility.yul\":2108:2187   */\n              tag_90\n              tag_42\n              jump\t// in\n            tag_90:\n                /* \"#utility.yul\":2072:2189   */\n            tag_89:\n                /* \"#utility.yul\":2221:2285   */\n              tag_91\n                /* \"#utility.yul\":2277:2284   */\n              dup7\n                /* \"#utility.yul\":2268:2274   */\n              dup3\n                /* \"#utility.yul\":2257:2266   */\n              dup8\n                /* \"#utility.yul\":2253:2275   */\n              add\n                /* \"#utility.yul\":2221:2285   */\n              tag_49\n              jump\t// in\n            tag_91:\n                /* \"#utility.yul\":2203:2285   */\n              swap3\n              pop\n              swap3\n              pop\n                /* \"#utility.yul\":1998:2295   */\n              pop\n                /* \"#utility.yul\":1630:2302   */\n              swap3\n              pop\n              swap3\n              pop\n              swap3\n              jump\t// out\n                /* \"#utility.yul\":2308:2398   */\n            tag_50:\n                /* \"#utility.yul\":2342:2349   */\n              0x00\n                /* \"#utility.yul\":2385:2390   */\n              dup2\n                /* \"#utility.yul\":2378:2391   */\n              iszero\n                /* \"#utility.yul\":2371:2392   */\n              iszero\n                /* \"#utility.yul\":2360:2392   */\n              swap1\n              pop\n                /* \"#utility.yul\":2308:2398   */\n              swap2\n              swap1\n              pop\n              jump\t// out\n                /* \"#utility.yul\":2404:2513   */\n            tag_51:\n                /* \"#utility.yul\":2485:2506   */\n              tag_94\n                /* \"#utility.yul\":2500:2505   */\n              dup2\n                /* \"#utility.yul\":2485:2506   */\n              tag_50\n              jump\t// in\n            tag_94:\n                /* \"#utility.yul\":2480:2483   */\n              dup3\n                /* \"#utility.yul\":2473:2507   */\n              mstore\n                /* \"#utility.yul\":2404:2513   */\n              pop\n              pop\n              jump\t// out\n                /* \"#utility.yul\":2519:2729   */\n            tag_13:\n                /* \"#utility.yul\":2606:2610   */\n              0x00\n                /* \"#utility.yul\":2644:2646   */\n              0x20\n                /* \"#utility.yul\":2633:2642   */\n              dup3\n                /* \"#utility.yul\":2629:2647   */\n              add\n                /* \"#utility.yul\":2621:2647   */\n              swap1\n              pop\n                /* \"#utility.yul\":2657:2722   */\n              tag_96\n                /* \"#utility.yul\":2719:2720   */\n              0x00\n                /* \"#utility.yul\":2708:2717   */\n              dup4\n                /* \"#utility.yul\":2704:2721   */\n              add\n                /* \"#utility.yul\":2695:2701   */\n              dup5\n                /* \"#utility.yul\":2657:2722   */\n              tag_51\n              jump\t// in\n            tag_96:\n                /* \"#utility.yul\":2519:2729   */\n              swap3\n              swap2\n              pop\n              pop\n              jump\t// out\n                /* \"#utility.yul\":2735:2861   */\n            tag_52:\n                /* \"#utility.yul\":2772:2779   */\n              0x00\n                /* \"#utility.yul\":2812:2854   */\n              0xffffffffffffffffffffffffffffffffffffffff\n                /* \"#utility.yul\":2805:2810   */\n              dup3\n                /* \"#utility.yul\":2801:2855   */\n              and\n                /* \"#utility.yul\":2790:2855   */\n              swap1\n              pop\n                /* \"#utility.yul\":2735:2861   */\n              swap2\n              swap1\n              pop\n              jump\t// out\n                /* \"#utility.yul\":2867:2963   */\n            tag_53:\n                /* \"#utility.yul\":2904:2911   */\n              0x00\n                /* \"#utility.yul\":2933:2957   */\n              tag_99\n                /* \"#utility.yul\":2951:2956   */\n              dup3\n                /* \"#utility.yul\":2933:2957   */\n              tag_52\n              jump\t// in\n            tag_99:\n                /* \"#utility.yul\":2922:2957   */\n              swap1\n              pop\n                /* \"#utility.yul\":2867:2963   */\n              swap2\n              swap1\n              pop\n              jump\t// out\n                /* \"#utility.yul\":2969:3091   */\n            tag_54:\n                /* \"#utility.yul\":3042:3066   */\n              tag_101\n                /* \"#utility.yul\":3060:3065   */\n              dup2\n                /* \"#utility.yul\":3042:3066   */\n              tag_53\n              jump\t// in\n            tag_101:\n                /* \"#utility.yul\":3035:3040   */\n              dup2\n                /* \"#utility.yul\":3032:3067   */\n              eq\n                /* \"#utility.yul\":3022:3085   */\n              tag_102\n              jumpi\n                /* \"#utility.yul\":3081:3082   */\n              0x00\n                /* \"#utility.yul\":3078:3079   */\n              0x00\n                /* \"#utility.yul\":3071:3083   */\n              revert\n                /* \"#utility.yul\":3022:3085   */\n            tag_102:\n                /* \"#utility.yul\":2969:3091   */\n              pop\n              jump\t// out\n                /* \"#utility.yul\":3097:3236   */\n            tag_55:\n                /* \"#utility.yul\":3143:3148   */\n              0x00\n                /* \"#utility.yul\":3181:3187   */\n              dup2\n                /* \"#utility.yul\":3168:3188   */\n              calldataload\n                /* \"#utility.yul\":3159:3188   */\n              swap1\n              pop\n                /* \"#utility.yul\":3197:3230   */\n              tag_104\n                /* \"#utility.yul\":3224:3229   */\n              dup2\n                /* \"#utility.yul\":3197:3230   */\n              tag_54\n              jump\t// in\n            tag_104:\n                /* \"#utility.yul\":3097:3236   */\n              swap3\n              swap2\n              pop\n              pop\n              jump\t// out\n                /* \"#utility.yul\":3242:3319   */\n            tag_56:\n                /* \"#utility.yul\":3279:3286   */\n              0x00\n                /* \"#utility.yul\":3308:3313   */\n              dup2\n                /* \"#utility.yul\":3297:3313   */\n              swap1\n              pop\n                /* \"#utility.yul\":3242:3319   */\n              swap2\n              swap1\n              pop\n              jump\t// out\n                /* \"#utility.yul\":3325:3447   */\n            tag_57:\n                /* \"#utility.yul\":3398:3422   */\n              tag_107\n                /* \"#utility.yul\":3416:3421   */\n              dup2\n                /* \"#utility.yul\":3398:3422   */\n              tag_56\n              jump\t// in\n            tag_107:\n                /* \"#utility.yul\":3391:3396   */\n              dup2\n                /* \"#utility.yul\":3388:3423   */\n              eq\n                /* \"#utility.yul\":3378:3441   */\n              tag_108\n              jumpi\n                /* \"#utility.yul\":3437:3438   */\n              0x00\n                /* \"#utility.yul\":3434:3435   */\n              0x00\n                /* \"#utility.yul\":3427:3439   */\n              revert\n                /* \"#utility.yul\":3378:3441   */\n            tag_108:\n                /* \"#utility.yul\":3325:3447   */\n              pop\n              jump\t// out\n                /* \"#utility.yul\":3453:3592   */\n            tag_58:\n                /* \"#utility.yul\":3499:3504   */\n              0x00\n                /* \"#utility.yul\":3537:3543   */\n              dup2\n                /* \"#utility.yul\":3524:3544   */\n              calldataload\n                /* \"#utility.yul\":3515:3544   */\n              swap1\n              pop\n                /* \"#utility.yul\":3553:3586   */\n              tag_110\n                /* \"#utility.yul\":3580:3585   */\n              dup2\n                /* \"#utility.yul\":3553:3586   */\n              tag_57\n              jump\t// in\n            tag_110:\n                /* \"#utility.yul\":3453:3592   */\n              swap3\n              swap2\n              pop\n              pop\n              jump\t// out\n                /* \"#utility.yul\":3598:4415   */\n            tag_17:\n                /* \"#utility.yul\":3686:3692   */\n              0x00\n                /* \"#utility.yul\":3694:3700   */\n              0x00\n                /* \"#utility.yul\":3702:3708   */\n              0x00\n                /* \"#utility.yul\":3710:3716   */\n              0x00\n                /* \"#utility.yul\":3759:3761   */\n              0x60\n                /* \"#utility.yul\":3747:3756   */\n              dup6\n                /* \"#utility.yul\":3738:3745   */\n              dup8\n                /* \"#utility.yul\":3734:3757   */\n              sub\n                /* \"#utility.yul\":3730:3762   */\n              slt\n                /* \"#utility.yul\":3727:3846   */\n              iszero\n              tag_112\n              jumpi\n                /* \"#utility.yul\":3765:3844   */\n              tag_113\n              tag_41\n              jump\t// in\n            tag_113:\n                /* \"#utility.yul\":3727:3846   */\n            tag_112:\n                /* \"#utility.yul\":3885:3886   */\n              0x00\n                /* \"#utility.yul\":3910:3963   */\n              tag_114\n                /* \"#utility.yul\":3955:3962   */\n              dup8\n                /* \"#utility.yul\":3946:3952   */\n              dup3\n                /* \"#utility.yul\":3935:3944   */\n              dup9\n                /* \"#utility.yul\":3931:3953   */\n              add\n                /* \"#utility.yul\":3910:3963   */\n              tag_55\n              jump\t// in\n            tag_114:\n                /* \"#utility.yul\":3900:3963   */\n              swap5\n              pop\n                /* \"#utility.yul\":3856:3973   */\n              pop\n                /* \"#utility.yul\":4012:4014   */\n              0x20\n                /* \"#utility.yul\":4038:4091   */\n              tag_115\n                /* \"#utility.yul\":4083:4090   */\n              dup8\n                /* \"#utility.yul\":4074:4080   */\n              dup3\n                /* \"#utility.yul\":4063:4072   */\n              dup9\n                /* \"#utility.yul\":4059:4081   */\n              add\n                /* \"#utility.yul\":4038:4091   */\n              tag_58\n              jump\t// in\n            tag_115:\n                /* \"#utility.yul\":4028:4091   */\n              swap4\n              pop\n                /* \"#utility.yul\":3983:4101   */\n              pop\n                /* \"#utility.yul\":4168:4170   */\n              0x40\n                /* \"#utility.yul\":4157:4166   */\n              dup6\n                /* \"#utility.yul\":4153:4171   */\n              add\n                /* \"#utility.yul\":4140:4172   */\n              calldataload\n                /* \"#utility.yul\":4199:4217   */\n              0xffffffffffffffff\n                /* \"#utility.yul\":4191:4197   */\n              dup2\n                /* \"#utility.yul\":4188:4218   */\n              gt\n                /* \"#utility.yul\":4185:4302   */\n              iszero\n              tag_116\n              jumpi\n                /* \"#utility.yul\":4221:4300   */\n              tag_117\n              tag_42\n              jump\t// in\n            tag_117:\n                /* \"#utility.yul\":4185:4302   */\n            tag_116:\n                /* \"#utility.yul\":4334:4398   */\n              tag_118\n                /* \"#utility.yul\":4390:4397   */\n              dup8\n                /* \"#utility.yul\":4381:4387   */\n              dup3\n                /* \"#utility.yul\":4370:4379   */\n              dup9\n                /* \"#utility.yul\":4366:4388   */\n              add\n                /* \"#utility.yul\":4334:4398   */\n              tag_49\n              jump\t// in\n            tag_118:\n                /* \"#utility.yul\":4316:4398   */\n              swap3\n              pop\n              swap3\n              pop\n                /* \"#utility.yul\":4111:4408   */\n              pop\n                /* \"#utility.yul\":3598:4415   */\n              swap3\n              swap6\n              swap2\n              swap5\n              pop\n              swap3\n              pop\n              jump\t// out\n                /* \"#utility.yul\":4421:4568   */\n            tag_59:\n                /* \"#utility.yul\":4522:4533   */\n              0x00\n                /* \"#utility.yul\":4559:4562   */\n              dup2\n                /* \"#utility.yul\":4544:4562   */\n              swap1\n              pop\n                /* \"#utility.yul\":4421:4568   */\n              swap3\n              swap2\n              pop\n              pop\n              jump\t// out\n                /* \"#utility.yul\":4574:4722   */\n            tag_60:\n                /* \"#utility.yul\":4672:4678   */\n              dup3\n                /* \"#utility.yul\":4667:4670   */\n              dup2\n                /* \"#utility.yul\":4662:4665   */\n              dup4\n                /* \"#utility.yul\":4649:4679   */\n              calldatacopy\n                /* \"#utility.yul\":4713:4714   */\n              0x00\n                /* \"#utility.yul\":4704:4710   */\n              dup4\n                /* \"#utility.yul\":4699:4702   */\n              dup4\n                /* \"#utility.yul\":4695:4711   */\n              add\n                /* \"#utility.yul\":4688:4715   */\n              mstore\n                /* \"#utility.yul\":4574:4722   */\n              pop\n              pop\n              pop\n              jump\t// out\n                /* \"#utility.yul\":4750:5077   */\n            tag_61:\n                /* \"#utility.yul\":4864:4867   */\n              0x00\n                /* \"#utility.yul\":4885:4973   */\n              tag_122\n                /* \"#utility.yul\":4966:4972   */\n              dup4\n                /* \"#utility.yul\":4961:4964   */\n              dup6\n                /* \"#utility.yul\":4885:4973   */\n              tag_59\n              jump\t// in\n            tag_122:\n                /* \"#utility.yul\":4878:4973   */\n              swap4\n              pop\n                /* \"#utility.yul\":4983:5039   */\n              tag_123\n                /* \"#utility.yul\":5032:5038   */\n              dup4\n                /* \"#utility.yul\":5027:5030   */\n              dup6\n                /* \"#utility.yul\":5020:5025   */\n              dup5\n                /* \"#utility.yul\":4983:5039   */\n              tag_60\n              jump\t// in\n            tag_123:\n                /* \"#utility.yul\":5064:5070   */\n              dup3\n                /* \"#utility.yul\":5059:5062   */\n              dup5\n                /* \"#utility.yul\":5055:5071   */\n              add\n                /* \"#utility.yul\":5048:5071   */\n              swap1\n              pop\n                /* \"#utility.yul\":4750:5077   */\n              swap4\n              swap3\n              pop\n              pop\n              pop\n              jump\t// out\n                /* \"#utility.yul\":5083:5374   */\n            tag_26:\n                /* \"#utility.yul\":5223:5226   */\n              0x00\n                /* \"#utility.yul\":5245:5348   */\n              tag_125\n                /* \"#utility.yul\":5344:5347   */\n              dup3\n                /* \"#utility.yul\":5335:5341   */\n              dup5\n                /* \"#utility.yul\":5327:5333   */\n              dup7\n                /* \"#utility.yul\":5245:5348   */\n              tag_61\n              jump\t// in\n            tag_125:\n                /* \"#utility.yul\":5238:5348   */\n              swap2\n              pop\n                /* \"#utility.yul\":5365:5368   */\n              dup2\n                /* \"#utility.yul\":5358:5368   */\n              swap1\n              pop\n                /* \"#utility.yul\":5083:5374   */\n              swap4\n              swap3\n              pop\n              pop\n              pop\n              jump\t// out\n                /* \"#utility.yul\":5380:5498   */\n            tag_62:\n                /* \"#utility.yul\":5467:5491   */\n              tag_127\n                /* \"#utility.yul\":5485:5490   */\n              dup2\n                /* \"#utility.yul\":5467:5491   */\n              tag_43\n              jump\t// in\n            tag_127:\n                /* \"#utility.yul\":5462:5465   */\n              dup3\n                /* \"#utility.yul\":5455:5492   */\n              mstore\n                /* \"#utility.yul\":5380:5498   */\n              pop\n              pop\n              jump\t// out\n                /* \"#utility.yul\":5504:5590   */\n            tag_63:\n                /* \"#utility.yul\":5539:5546   */\n              0x00\n                /* \"#utility.yul\":5579:5583   */\n              0xff\n                /* \"#utility.yul\":5572:5577   */\n              dup3\n                /* \"#utility.yul\":5568:5584   */\n              and\n                /* \"#utility.yul\":5557:5584   */\n              swap1\n              pop\n                /* \"#utility.yul\":5504:5590   */\n              swap2\n              swap1\n              pop\n              jump\t// out\n                /* \"#utility.yul\":5596:5708   */\n            tag_64:\n                /* \"#utility.yul\":5679:5701   */\n              tag_130\n                /* \"#utility.yul\":5695:5700   */\n              dup2\n                /* \"#utility.yul\":5679:5701   */\n              tag_63\n              jump\t// in\n            tag_130:\n                /* \"#utility.yul\":5674:5677   */\n              dup3\n                /* \"#utility.yul\":5667:5702   */\n              mstore\n                /* \"#utility.yul\":5596:5708   */\n              pop\n              pop\n              jump\t// out\n                /* \"#utility.yul\":5714:6259   */\n            tag_35:\n                /* \"#utility.yul\":5887:5891   */\n              0x00\n                /* \"#utility.yul\":5925:5928   */\n              0x80\n                /* \"#utility.yul\":5914:5923   */\n              dup3\n                /* \"#utility.yul\":5910:5929   */\n              add\n                /* \"#utility.yul\":5902:5929   */\n              swap1\n              pop\n                /* \"#utility.yul\":5939:6010   */\n              tag_132\n                /* \"#utility.yul\":6007:6008   */\n              0x00\n                /* \"#utility.yul\":5996:6005   */\n              dup4\n                /* \"#utility.yul\":5992:6009   */\n              add\n                /* \"#utility.yul\":5983:5989   */\n              dup8\n                /* \"#utility.yul\":5939:6010   */\n              tag_62\n              jump\t// in\n            tag_132:\n                /* \"#utility.yul\":6020:6088   */\n              tag_133\n                /* \"#utility.yul\":6084:6086   */\n              0x20\n                /* \"#utility.yul\":6073:6082   */\n              dup4\n                /* \"#utility.yul\":6069:6087   */\n              add\n                /* \"#utility.yul\":6060:6066   */\n              dup7\n                /* \"#utility.yul\":6020:6088   */\n              tag_64\n              jump\t// in\n            tag_133:\n                /* \"#utility.yul\":6098:6170   */\n              tag_134\n                /* \"#utility.yul\":6166:6168   */\n              0x40\n                /* \"#utility.yul\":6155:6164   */\n              dup4\n                /* \"#utility.yul\":6151:6169   */\n              add\n                /* \"#utility.yul\":6142:6148   */\n              dup6\n                /* \"#utility.yul\":6098:6170   */\n              tag_62\n              jump\t// in\n            tag_134:\n                /* \"#utility.yul\":6180:6252   */\n              tag_135\n                /* \"#utility.yul\":6248:6250   */\n              0x60\n                /* \"#utility.yul\":6237:6246   */\n              dup4\n                /* \"#utility.yul\":6233:6251   */\n              add\n                /* \"#utility.yul\":6224:6230   */\n              dup5\n                /* \"#utility.yul\":6180:6252   */\n              tag_62\n              jump\t// in\n            tag_135:\n                /* \"#utility.yul\":5714:6259   */\n              swap6\n              swap5\n              pop\n              pop\n              pop\n              pop\n              pop\n              jump\t// out\n\n            auxdata: 0xa2646970667358221220a865860d836953bbb4c505d2a6090f9aca9aa466f612dc8e0f2fa8fd8ed9042d64736f6c634300081e0033\n        }\n    }\n\n    auxdata: 0xa2646970667358221220f07cf09f3329b28fe4e3840b5781c4af426c7b51c4a7a0b938a3ecad590d3a9f64736f6c634300081e0033\n}\n",
				"bytecode": {
					"linkReferences": {},
					"object": "60a060405234801561000f575f5ffd5b50604051610d41380380610d41833981810160405281019061003191906100c9565b8073ffffffffffffffffffffffffffffffffffffffff1660808173ffffffffffffffffffffffffffffffffffffffff1681525050506100f4565b5f5ffd5b5f73ffffffffffffffffffffffffffffffffffffffff82169050919050565b5f6100988261006f565b9050919050565b6100a88161008e565b81146100b2575f5ffd5b50565b5f815190506100c38161009f565b92915050565b5f602082840312156100de576100dd61006b565b5b5f6100eb848285016100b5565b91505092915050565b608051610c3561010c5f395f6101530152610c355ff3fe608060405234801561000f575f5ffd5b5060043610610034575f3560e01c80639859387b14610038578063fbcbc0f114610068575b5f5ffd5b610052600480360381019061004d9190610345565b610098565b60405161005f919061037f565b60405180910390f35b610082600480360381019061007d9190610345565b610276565b60405161008f919061037f565b60405180910390f35b5f5f73ffffffffffffffffffffffffffffffffffffffff165f5f8473ffffffffffffffffffffffffffffffffffffffff1673ffffffffffffffffffffffffffffffffffffffff1681526020019081526020015f205f9054906101000a900473ffffffffffffffffffffffffffffffffffffffff1673ffffffffffffffffffffffffffffffffffffffff161461012b575f5ffd5b5f6040518060200161013c906102da565b6020820181038252601f19601f82011660405250837f0000000000000000000000000000000000000000000000000000000000000000604051602001610183929190610398565b6040516020818303038152906040526040516020016101a3929190610411565b60405160208183030381529060405290505f83426040516020016101c89291906104a2565b604051602081830303815290604052805190602001209050808251602084015ff59250823b6101f5575f5ffd5b825f5f8673ffffffffffffffffffffffffffffffffffffffff1673ffffffffffffffffffffffffffffffffffffffff1681526020019081526020015f205f6101000a81548173ffffffffffffffffffffffffffffffffffffffff021916908373ffffffffffffffffffffffffffffffffffffffff1602179055505050919050565b5f5f5f8373ffffffffffffffffffffffffffffffffffffffff1673ffffffffffffffffffffffffffffffffffffffff1681526020019081526020015f205f9054906101000a900473ffffffffffffffffffffffffffffffffffffffff169050919050565b610732806104ce83390190565b5f5ffd5b5f73ffffffffffffffffffffffffffffffffffffffff82169050919050565b5f610314826102eb565b9050919050565b6103248161030a565b811461032e575f5ffd5b50565b5f8135905061033f8161031b565b92915050565b5f6020828403121561035a576103596102e7565b5b5f61036784828501610331565b91505092915050565b6103798161030a565b82525050565b5f6020820190506103925f830184610370565b92915050565b5f6040820190506103ab5f830185610370565b6103b86020830184610370565b9392505050565b5f81519050919050565b5f81905092915050565b8281835e5f83830152505050565b5f6103eb826103bf565b6103f581856103c9565b93506104058185602086016103d3565b80840191505092915050565b5f61041c82856103e1565b915061042882846103e1565b91508190509392505050565b5f8160601b9050919050565b5f61044a82610434565b9050919050565b5f61045b82610440565b9050919050565b61047361046e8261030a565b610451565b82525050565b5f819050919050565b5f819050919050565b61049c61049782610479565b610482565b82525050565b5f6104ad8285610462565b6014820191506104bd828461048b565b602082019150819050939250505056fe608060405234801561000f575f5ffd5b5060405161073238038061073283398181016040528101906100319190610115565b815f5f6101000a81548173ffffffffffffffffffffffffffffffffffffffff021916908373ffffffffffffffffffffffffffffffffffffffff1602179055508060015f6101000a81548173ffffffffffffffffffffffffffffffffffffffff021916908373ffffffffffffffffffffffffffffffffffffffff1602179055505050610153565b5f5ffd5b5f73ffffffffffffffffffffffffffffffffffffffff82169050919050565b5f6100e4826100bb565b9050919050565b6100f4816100da565b81146100fe575f5ffd5b50565b5f8151905061010f816100eb565b92915050565b5f5f6040838503121561012b5761012a6100b7565b5b5f61013885828601610101565b925050602061014985828601610101565b9150509250929050565b6105d2806101605f395ff3fe60806040526004361061002c575f3560e01c80631626ba7e14610037578063b61d27f61461007357610033565b3661003357005b5f5ffd5b348015610042575f5ffd5b5061005d6004803603810190610058919061034d565b61009b565b60405161006a91906103c4565b60405180910390f35b34801561007e575f5ffd5b506100996004803603810190610094919061046a565b610145565b005b5f5f6100ea8585858080601f0160208091040260200160405190810160405280939291908181526020018383808284375f81840152601f19601f82011690508083019250505050505050610219565b90505f5f9054906101000a900473ffffffffffffffffffffffffffffffffffffffff1673ffffffffffffffffffffffffffffffffffffffff168173ffffffffffffffffffffffffffffffffffffffff16149150509392505050565b60015f9054906101000a900473ffffffffffffffffffffffffffffffffffffffff1673ffffffffffffffffffffffffffffffffffffffff163373ffffffffffffffffffffffffffffffffffffffff161461019d575f5ffd5b5f8473ffffffffffffffffffffffffffffffffffffffff168484846040516101c6929190610517565b5f6040518083038185875af1925050503d805f8114610200576040519150601f19603f3d011682016040523d82523d5f602084013e610205565b606091505b5050905080610212575f5ffd5b5050505050565b5f5f5f5f61022685610283565b9250925092506001868285856040515f815260200160405260405161024e9493929190610559565b6020604051602081039080840390855afa15801561026e573d5f5f3e3d5ffd5b50505060206040510351935050505092915050565b5f5f5f6041845114610293575f5ffd5b602084015192506040840151915060608401515f1a90509193909250565b5f5ffd5b5f5ffd5b5f819050919050565b6102cb816102b9565b81146102d5575f5ffd5b50565b5f813590506102e6816102c2565b92915050565b5f5ffd5b5f5ffd5b5f5ffd5b5f5f83601f84011261030d5761030c6102ec565b5b8235905067ffffffffffffffff81111561032a576103296102f0565b5b602083019150836001820283011115610346576103456102f4565b5b9250929050565b5f5f5f60408486031215610364576103636102b1565b5b5f610371868287016102d8565b935050602084013567ffffffffffffffff811115610392576103916102b5565b5b61039e868287016102f8565b92509250509250925092565b5f8115159050919050565b6103be816103aa565b82525050565b5f6020820190506103d75f8301846103b5565b92915050565b5f73ffffffffffffffffffffffffffffffffffffffff82169050919050565b5f610406826103dd565b9050919050565b610416816103fc565b8114610420575f5ffd5b50565b5f813590506104318161040d565b92915050565b5f819050919050565b61044981610437565b8114610453575f5ffd5b50565b5f8135905061046481610440565b92915050565b5f5f5f5f60608587031215610482576104816102b1565b5b5f61048f87828801610423565b94505060206104a087828801610456565b935050604085013567ffffffffffffffff8111156104c1576104c06102b5565b5b6104cd878288016102f8565b925092505092959194509250565b5f81905092915050565b828183375f83830152505050565b5f6104fe83856104db565b935061050b8385846104e5565b82840190509392505050565b5f6105238284866104f3565b91508190509392505050565b610538816102b9565b82525050565b5f60ff82169050919050565b6105538161053e565b82525050565b5f60808201905061056c5f83018761052f565b610579602083018661054a565b610586604083018561052f565b610593606083018461052f565b9594505050505056fea2646970667358221220a865860d836953bbb4c505d2a6090f9aca9aa466f612dc8e0f2fa8fd8ed9042d64736f6c634300081e0033a2646970667358221220f07cf09f3329b28fe4e3840b5781c4af426c7b51c4a7a0b938a3ecad590d3a9f64736f6c634300081e0033",
					"opcodes": "PUSH1 0xA0 PUSH1 0x40 MSTORE CALLVALUE DUP1 ISZERO PUSH2 0xF JUMPI PUSH0 PUSH0 REVERT JUMPDEST POP PUSH1 0x40 MLOAD PUSH2 0xD41 CODESIZE SUB DUP1 PUSH2 0xD41 DUP4 CODECOPY DUP2 DUP2 ADD PUSH1 0x40 MSTORE DUP2 ADD SWAP1 PUSH2 0x31 SWAP2 SWAP1 PUSH2 0xC9 JUMP JUMPDEST DUP1 PUSH20 0xFFFFFFFFFFFFFFFFFFFFFFFFFFFFFFFFFFFFFFFF AND PUSH1 0x80 DUP2 PUSH20 0xFFFFFFFFFFFFFFFFFFFFFFFFFFFFFFFFFFFFFFFF AND DUP2 MSTORE POP POP POP PUSH2 0xF4 JUMP JUMPDEST PUSH0 PUSH0 REVERT JUMPDEST PUSH0 PUSH20 0xFFFFFFFFFFFFFFFFFFFFFFFFFFFFFFFFFFFFFFFF DUP3 AND SWAP1 POP SWAP2 SWAP1 POP JUMP JUMPDEST PUSH0 PUSH2 0x98 DUP3 PUSH2 0x6F JUMP JUMPDEST SWAP1 POP SWAP2 SWAP1 POP JUMP JUMPDEST PUSH2 0xA8 DUP2 PUSH2 0x8E JUMP JUMPDEST DUP2 EQ PUSH2 0xB2 JUMPI PUSH0 PUSH0 REVERT JUMPDEST POP JUMP JUMPDEST PUSH0 DUP2 MLOAD SWAP1 POP PUSH2 0xC3 DUP2 PUSH2 0x9F JUMP JUMPDEST SWAP3 SWAP2 POP POP JUMP JUMPDEST PUSH0 PUSH1 0x20 DUP3 DUP5 SUB SLT ISZERO PUSH2 0xDE JUMPI PUSH2 0xDD PUSH2 0x6B JUMP JUMPDEST JUMPDEST PUSH0 PUSH2 0xEB DUP5 DUP3 DUP6 ADD PUSH2 0xB5 JUMP JUMPDEST SWAP2 POP POP SWAP3 SWAP2 POP POP JUMP JUMPDEST PUSH1 0x80 MLOAD PUSH2 0xC35 PUSH2 0x10C PUSH0 CODECOPY PUSH0 PUSH2 0x153 ADD MSTORE PUSH2 0xC35 PUSH0 RETURN INVALID PUSH1 0x80 PUSH1 0x40 MSTORE CALLVALUE DUP1 ISZERO PUSH2 0xF JUMPI PUSH0 PUSH0 REVERT JUMPDEST POP PUSH1 0x4 CALLDATASIZE LT PUSH2 0x34 JUMPI PUSH0 CALLDATALOAD PUSH1 0xE0 SHR DUP1 PUSH4 0x9859387B EQ PUSH2 0x38 JUMPI DUP1 PUSH4 0xFBCBC0F1 EQ PUSH2 0x68 JUMPI JUMPDEST PUSH0 PUSH0 REVERT JUMPDEST PUSH2 0x52 PUSH1 0x4 DUP1 CALLDATASIZE SUB DUP2 ADD SWAP1 PUSH2 0x4D SWAP2 SWAP1 PUSH2 0x345 JUMP JUMPDEST PUSH2 0x98 JUMP JUMPDEST PUSH1 0x40 MLOAD PUSH2 0x5F SWAP2 SWAP1 PUSH2 0x37F JUMP JUMPDEST PUSH1 0x40 MLOAD DUP1 SWAP2 SUB SWAP1 RETURN JUMPDEST PUSH2 0x82 PUSH1 0x4 DUP1 CALLDATASIZE SUB DUP2 ADD SWAP1 PUSH2 0x7D SWAP2 SWAP1 PUSH2 0x345 JUMP JUMPDEST PUSH2 0x276 JUMP JUMPDEST PUSH1 0x40 MLOAD PUSH2 0x8F SWAP2 SWAP1 PUSH2 0x37F JUMP JUMPDEST PUSH1 0x40 MLOAD DUP1 SWAP2 SUB SWAP1 RETURN JUMPDEST PUSH0 PUSH0 PUSH20 0xFFFFFFFFFFFFFFFFFFFFFFFFFFFFFFFFFFFFFFFF AND PUSH0 PUSH0 DUP5 PUSH20 0xFFFFFFFFFFFFFFFFFFFFFFFFFFFFFFFFFFFFFFFF AND PUSH20 0xFFFFFFFFFFFFFFFFFFFFFFFFFFFFFFFFFFFFFFFF AND DUP2 MSTORE PUSH1 0x20 ADD SWAP1 DUP2 MSTORE PUSH1 0x20 ADD PUSH0 KECCAK256 PUSH0 SWAP1 SLOAD SWAP1 PUSH2 0x100 EXP SWAP1 DIV PUSH20 0xFFFFFFFFFFFFFFFFFFFFFFFFFFFFFFFFFFFFFFFF AND PUSH20 0xFFFFFFFFFFFFFFFFFFFFFFFFFFFFFFFFFFFFFFFF AND EQ PUSH2 0x12B JUMPI PUSH0 PUSH0 REVERT JUMPDEST PUSH0 PUSH1 0x40 MLOAD DUP1 PUSH1 0x20 ADD PUSH2 0x13C SWAP1 PUSH2 0x2DA JUMP JUMPDEST PUSH1 0x20 DUP3 ADD DUP2 SUB DUP3 MSTORE PUSH1 0x1F NOT PUSH1 0x1F DUP3 ADD AND PUSH1 0x40 MSTORE POP DUP4 PUSH32 0x0 PUSH1 0x40 MLOAD PUSH1 0x20 ADD PUSH2 0x183 SWAP3 SWAP2 SWAP1 PUSH2 0x398 JUMP JUMPDEST PUSH1 0x40 MLOAD PUSH1 0x20 DUP2 DUP4 SUB SUB DUP2 MSTORE SWAP1 PUSH1 0x40 MSTORE PUSH1 0x40 MLOAD PUSH1 0x20 ADD PUSH2 0x1A3 SWAP3 SWAP2 SWAP1 PUSH2 0x411 JUMP JUMPDEST PUSH1 0x40 MLOAD PUSH1 0x20 DUP2 DUP4 SUB SUB DUP2 MSTORE SWAP1 PUSH1 0x40 MSTORE SWAP1 POP PUSH0 DUP4 TIMESTAMP PUSH1 0x40 MLOAD PUSH1 0x20 ADD PUSH2 0x1C8 SWAP3 SWAP2 SWAP1 PUSH2 0x4A2 JUMP JUMPDEST PUSH1 0x40 MLOAD PUSH1 0x20 DUP2 DUP4 SUB SUB DUP2 MSTORE SWAP1 PUSH1 0x40 MSTORE DUP1 MLOAD SWAP1 PUSH1 0x20 ADD KECCAK256 SWAP1 POP DUP1 DUP3 MLOAD PUSH1 0x20 DUP5 ADD PUSH0 CREATE2 SWAP3 POP DUP3 EXTCODESIZE PUSH2 0x1F5 JUMPI PUSH0 PUSH0 REVERT JUMPDEST DUP3 PUSH0 PUSH0 DUP7 PUSH20 0xFFFFFFFFFFFFFFFFFFFFFFFFFFFFFFFFFFFFFFFF AND PUSH20 0xFFFFFFFFFFFFFFFFFFFFFFFFFFFFFFFFFFFFFFFF AND DUP2 MSTORE PUSH1 0x20 ADD SWAP1 DUP2 MSTORE PUSH1 0x20 ADD PUSH0 KECCAK256 PUSH0 PUSH2 0x100 EXP DUP2 SLOAD DUP2 PUSH20 0xFFFFFFFFFFFFFFFFFFFFFFFFFFFFFFFFFFFFFFFF MUL NOT AND SWAP1 DUP4 PUSH20 0xFFFFFFFFFFFFFFFFFFFFFFFFFFFFFFFFFFFFFFFF AND MUL OR SWAP1 SSTORE POP POP POP SWAP2 SWAP1 POP JUMP JUMPDEST PUSH0 PUSH0 PUSH0 DUP4 PUSH20 0xFFFFFFFFFFFFFFFFFFFFFFFFFFFFFFFFFFFFFFFF AND PUSH20 0xFFFFFFFFFFFFFFFFFFFFFFFFFFFFFFFFFFFFFFFF AND DUP2 MSTORE PUSH1 0x20 ADD SWAP1 DUP2 MSTORE PUSH1 0x20 ADD PUSH0 KECCAK256 PUSH0 SWAP1 SLOAD SWAP1 PUSH2 0x100 EXP SWAP1 DIV PUSH20 0xFFFFFFFFFFFFFFFFFFFFFFFFFFFFFFFFFFFFFFFF AND SWAP1 POP SWAP2 SWAP1 POP JUMP JUMPDEST PUSH2 0x732 DUP1 PUSH2 0x4CE DUP4 CODECOPY ADD SWAP1 JUMP JUMPDEST PUSH0 PUSH0 REVERT JUMPDEST PUSH0 PUSH20 0xFFFFFFFFFFFFFFFFFFFFFFFFFFFFFFFFFFFFFFFF DUP3 AND SWAP1 POP SWAP2 SWAP1 POP JUMP JUMPDEST PUSH0 PUSH2 0x314 DUP3 PUSH2 0x2EB JUMP JUMPDEST SWAP1 POP SWAP2 SWAP1 POP JUMP JUMPDEST PUSH2 0x324 DUP2 PUSH2 0x30A JUMP JUMPDEST DUP2 EQ PUSH2 0x32E JUMPI PUSH0 PUSH0 REVERT JUMPDEST POP JUMP JUMPDEST PUSH0 DUP2 CALLDATALOAD SWAP1 POP PUSH2 0x33F DUP2 PUSH2 0x31B JUMP JUMPDEST SWAP3 SWAP2 POP POP JUMP JUMPDEST PUSH0 PUSH1 0x20 DUP3 DUP5 SUB SLT ISZERO PUSH2 0x35A JUMPI PUSH2 0x359 PUSH2 0x2E7 JUMP JUMPDEST JUMPDEST PUSH0 PUSH2 0x367 DUP5 DUP3 DUP6 ADD PUSH2 0x331 JUMP JUMPDEST SWAP2 POP POP SWAP3 SWAP2 POP POP JUMP JUMPDEST PUSH2 0x379 DUP2 PUSH2 0x30A JUMP JUMPDEST DUP3 MSTORE POP POP JUMP JUMPDEST PUSH0 PUSH1 0x20 DUP3 ADD SWAP1 POP PUSH2 0x392 PUSH0 DUP4 ADD DUP5 PUSH2 0x370 JUMP JUMPDEST SWAP3 SWAP2 POP POP JUMP JUMPDEST PUSH0 PUSH1 0x40 DUP3 ADD SWAP1 POP PUSH2 0x3AB PUSH0 DUP4 ADD DUP6 PUSH2 0x370 JUMP JUMPDEST PUSH2 0x3B8 PUSH1 0x20 DUP4 ADD DUP5 PUSH2 0x370 JUMP JUMPDEST SWAP4 SWAP3 POP POP POP JUMP JUMPDEST PUSH0 DUP2 MLOAD SWAP1 POP SWAP2 SWAP1 POP JUMP JUMPDEST PUSH0 DUP2 SWAP1 POP SWAP3 SWAP2 POP POP JUMP JUMPDEST DUP3 DUP2 DUP4 MCOPY PUSH0 DUP4 DUP4 ADD MSTORE POP POP POP JUMP JUMPDEST PUSH0 PUSH2 0x3EB DUP3 PUSH2 0x3BF JUMP JUMPDEST PUSH2 0x3F5 DUP2 DUP6 PUSH2 0x3C9 JUMP JUMPDEST SWAP4 POP PUSH2 0x405 DUP2 DUP6 PUSH1 0x20 DUP7 ADD PUSH2 0x3D3 JUMP JUMPDEST DUP1 DUP5 ADD SWAP2 POP POP SWAP3 SWAP2 POP POP JUMP JUMPDEST PUSH0 PUSH2 0x41C DUP3 DUP6 PUSH2 0x3E1 JUMP JUMPDEST SWAP2 POP PUSH2 0x428 DUP3 DUP5 PUSH2 0x3E1 JUMP JUMPDEST SWAP2 POP DUP2 SWAP1 POP SWAP4 SWAP3 POP POP POP JUMP JUMPDEST PUSH0 DUP2 PUSH1 0x60 SHL SWAP1 POP SWAP2 SWAP1 POP JUMP JUMPDEST PUSH0 PUSH2 0x44A DUP3 PUSH2 0x434 JUMP JUMPDEST SWAP1 POP SWAP2 SWAP1 POP JUMP JUMPDEST PUSH0 PUSH2 0x45B DUP3 PUSH2 0x440 JUMP JUMPDEST SWAP1 POP SWAP2 SWAP1 POP JUMP JUMPDEST PUSH2 0x473 PUSH2 0x46E DUP3 PUSH2 0x30A JUMP JUMPDEST PUSH2 0x451 JUMP JUMPDEST DUP3 MSTORE POP POP JUMP JUMPDEST PUSH0 DUP2 SWAP1 POP SWAP2 SWAP1 POP JUMP JUMPDEST PUSH0 DUP2 SWAP1 POP SWAP2 SWAP1 POP JUMP JUMPDEST PUSH2 0x49C PUSH2 0x497 DUP3 PUSH2 0x479 JUMP JUMPDEST PUSH2 0x482 JUMP JUMPDEST DUP3 MSTORE POP POP JUMP JUMPDEST PUSH0 PUSH2 0x4AD DUP3 DUP6 PUSH2 0x462 JUMP JUMPDEST PUSH1 0x14 DUP3 ADD SWAP2 POP PUSH2 0x4BD DUP3 DUP5 PUSH2 0x48B JUMP JUMPDEST PUSH1 0x20 DUP3 ADD SWAP2 POP DUP2 SWAP1 POP SWAP4 SWAP3 POP POP POP JUMP INVALID PUSH1 0x80 PUSH1 0x40 MSTORE CALLVALUE DUP1 ISZERO PUSH2 0xF JUMPI PUSH0 PUSH0 REVERT JUMPDEST POP PUSH1 0x40 MLOAD PUSH2 0x732 CODESIZE SUB DUP1 PUSH2 0x732 DUP4 CODECOPY DUP2 DUP2 ADD PUSH1 0x40 MSTORE DUP2 ADD SWAP1 PUSH2 0x31 SWAP2 SWAP1 PUSH2 0x115 JUMP JUMPDEST DUP2 PUSH0 PUSH0 PUSH2 0x100 EXP DUP2 SLOAD DUP2 PUSH20 0xFFFFFFFFFFFFFFFFFFFFFFFFFFFFFFFFFFFFFFFF MUL NOT AND SWAP1 DUP4 PUSH20 0xFFFFFFFFFFFFFFFFFFFFFFFFFFFFFFFFFFFFFFFF AND MUL OR SWAP1 SSTORE POP DUP1 PUSH1 0x1 PUSH0 PUSH2 0x100 EXP DUP2 SLOAD DUP2 PUSH20 0xFFFFFFFFFFFFFFFFFFFFFFFFFFFFFFFFFFFFFFFF MUL NOT AND SWAP1 DUP4 PUSH20 0xFFFFFFFFFFFFFFFFFFFFFFFFFFFFFFFFFFFFFFFF AND MUL OR SWAP1 SSTORE POP POP POP PUSH2 0x153 JUMP JUMPDEST PUSH0 PUSH0 REVERT JUMPDEST PUSH0 PUSH20 0xFFFFFFFFFFFFFFFFFFFFFFFFFFFFFFFFFFFFFFFF DUP3 AND SWAP1 POP SWAP2 SWAP1 POP JUMP JUMPDEST PUSH0 PUSH2 0xE4 DUP3 PUSH2 0xBB JUMP JUMPDEST SWAP1 POP SWAP2 SWAP1 POP JUMP JUMPDEST PUSH2 0xF4 DUP2 PUSH2 0xDA JUMP JUMPDEST DUP2 EQ PUSH2 0xFE JUMPI PUSH0 PUSH0 REVERT JUMPDEST POP JUMP JUMPDEST PUSH0 DUP2 MLOAD SWAP1 POP PUSH2 0x10F DUP2 PUSH2 0xEB JUMP JUMPDEST SWAP3 SWAP2 POP POP JUMP JUMPDEST PUSH0 PUSH0 PUSH1 0x40 DUP4 DUP6 SUB SLT ISZERO PUSH2 0x12B JUMPI PUSH2 0x12A PUSH2 0xB7 JUMP JUMPDEST JUMPDEST PUSH0 PUSH2 0x138 DUP6 DUP3 DUP7 ADD PUSH2 0x101 JUMP JUMPDEST SWAP3 POP POP PUSH1 0x20 PUSH2 0x149 DUP6 DUP3 DUP7 ADD PUSH2 0x101 JUMP JUMPDEST SWAP2 POP POP SWAP3 POP SWAP3 SWAP1 POP JUMP JUMPDEST PUSH2 0x5D2 DUP1 PUSH2 0x160 PUSH0 CODECOPY PUSH0 RETURN INVALID PUSH1 0x80 PUSH1 0x40 MSTORE PUSH1 0x4 CALLDATASIZE LT PUSH2 0x2C JUMPI PUSH0 CALLDATALOAD PUSH1 0xE0 SHR DUP1 PUSH4 0x1626BA7E EQ PUSH2 0x37 JUMPI DUP1 PUSH4 0xB61D27F6 EQ PUSH2 0x73 JUMPI PUSH2 0x33 JUMP JUMPDEST CALLDATASIZE PUSH2 0x33 JUMPI STOP JUMPDEST PUSH0 PUSH0 REVERT JUMPDEST CALLVALUE DUP1 ISZERO PUSH2 0x42 JUMPI PUSH0 PUSH0 REVERT JUMPDEST POP PUSH2 0x5D PUSH1 0x4 DUP1 CALLDATASIZE SUB DUP2 ADD SWAP1 PUSH2 0x58 SWAP2 SWAP1 PUSH2 0x34D JUMP JUMPDEST PUSH2 0x9B JUMP JUMPDEST PUSH1 0x40 MLOAD PUSH2 0x6A SWAP2 SWAP1 PUSH2 0x3C4 JUMP JUMPDEST PUSH1 0x40 MLOAD DUP1 SWAP2 SUB SWAP1 RETURN JUMPDEST CALLVALUE DUP1 ISZERO PUSH2 0x7E JUMPI PUSH0 PUSH0 REVERT JUMPDEST POP PUSH2 0x99 PUSH1 0x4 DUP1 CALLDATASIZE SUB DUP2 ADD SWAP1 PUSH2 0x94 SWAP2 SWAP1 PUSH2 0x46A JUMP JUMPDEST PUSH2 0x145 JUMP JUMPDEST STOP JUMPDEST PUSH0 PUSH0 PUSH2 0xEA DUP6 DUP6 DUP6 DUP1 DUP1 PUSH1 0x1F ADD PUSH1 0x20 DUP1 SWAP2 DIV MUL PUSH1 0x20 ADD PUSH1 0x40 MLOAD SWAP1 DUP2 ADD PUSH1 0x40 MSTORE DUP1 SWAP4 SWAP3 SWAP2 SWAP1 DUP2 DUP2 MSTORE PUSH1 0x20 ADD DUP4 DUP4 DUP1 DUP3 DUP5 CALLDATACOPY PUSH0 DUP2 DUP5 ADD MSTORE PUSH1 0x1F NOT PUSH1 0x1F DUP3 ADD AND SWAP1 POP DUP1 DUP4 ADD SWAP3 POP POP POP POP POP POP POP PUSH2 0x219 JUMP JUMPDEST SWAP1 POP PUSH0 PUSH0 SWAP1 SLOAD SWAP1 PUSH2 0x100 EXP SWAP1 DIV PUSH20 0xFFFFFFFFFFFFFFFFFFFFFFFFFFFFFFFFFFFFFFFF AND PUSH20 0xFFFFFFFFFFFFFFFFFFFFFFFFFFFFFFFFFFFFFFFF AND DUP2 PUSH20 0xFFFFFFFFFFFFFFFFFFFFFFFFFFFFFFFFFFFFFFFF AND EQ SWAP2 POP POP SWAP4 SWAP3 POP POP POP JUMP JUMPDEST PUSH1 0x1 PUSH0 SWAP1 SLOAD SWAP1 PUSH2 0x100 EXP SWAP1 DIV PUSH20 0xFFFFFFFFFFFFFFFFFFFFFFFFFFFFFFFFFFFFFFFF AND PUSH20 0xFFFFFFFFFFFFFFFFFFFFFFFFFFFFFFFFFFFFFFFF AND CALLER PUSH20 0xFFFFFFFFFFFFFFFFFFFFFFFFFFFFFFFFFFFFFFFF AND EQ PUSH2 0x19D JUMPI PUSH0 PUSH0 REVERT JUMPDEST PUSH0 DUP5 PUSH20 0xFFFFFFFFFFFFFFFFFFFFFFFFFFFFFFFFFFFFFFFF AND DUP5 DUP5 DUP5 PUSH1 0x40 MLOAD PUSH2 0x1C6 SWAP3 SWAP2 SWAP1 PUSH2 0x517 JUMP JUMPDEST PUSH0 PUSH1 0x40 MLOAD DUP1 DUP4 SUB DUP2 DUP6 DUP8 GAS CALL SWAP3 POP POP POP RETURNDATASIZE DUP1 PUSH0 DUP2 EQ PUSH2 0x200 JUMPI PUSH1 0x40 MLOAD SWAP2 POP PUSH1 0x1F NOT PUSH1 0x3F RETURNDATASIZE ADD AND DUP3 ADD PUSH1 0x40 MSTORE RETURNDATASIZE DUP3 MSTORE RETURNDATASIZE PUSH0 PUSH1 0x20 DUP5 ADD RETURNDATACOPY PUSH2 0x205 JUMP JUMPDEST PUSH1 0x60 SWAP2 POP JUMPDEST POP POP SWAP1 POP DUP1 PUSH2 0x212 JUMPI PUSH0 PUSH0 REVERT JUMPDEST POP POP POP POP POP JUMP JUMPDEST PUSH0 PUSH0 PUSH0 PUSH0 PUSH2 0x226 DUP6 PUSH2 0x283 JUMP JUMPDEST SWAP3 POP SWAP3 POP SWAP3 POP PUSH1 0x1 DUP7 DUP3 DUP6 DUP6 PUSH1 0x40 MLOAD PUSH0 DUP2 MSTORE PUSH1 0x20 ADD PUSH1 0x40 MSTORE PUSH1 0x40 MLOAD PUSH2 0x24E SWAP5 SWAP4 SWAP3 SWAP2 SWAP1 PUSH2 0x559 JUMP JUMPDEST PUSH1 0x20 PUSH1 0x40 MLOAD PUSH1 0x20 DUP2 SUB SWAP1 DUP1 DUP5 SUB SWAP1 DUP6 GAS STATICCALL ISZERO DUP1 ISZERO PUSH2 0x26E JUMPI RETURNDATASIZE PUSH0 PUSH0 RETURNDATACOPY RETURNDATASIZE PUSH0 REVERT JUMPDEST POP POP POP PUSH1 0x20 PUSH1 0x40 MLOAD SUB MLOAD SWAP4 POP POP POP POP SWAP3 SWAP2 POP POP JUMP JUMPDEST PUSH0 PUSH0 PUSH0 PUSH1 0x41 DUP5 MLOAD EQ PUSH2 0x293 JUMPI PUSH0 PUSH0 REVERT JUMPDEST PUSH1 0x20 DUP5 ADD MLOAD SWAP3 POP PUSH1 0x40 DUP5 ADD MLOAD SWAP2 POP PUSH1 0x60 DUP5 ADD MLOAD PUSH0 BYTE SWAP1 POP SWAP2 SWAP4 SWAP1 SWAP3 POP JUMP JUMPDEST PUSH0 PUSH0 REVERT JUMPDEST PUSH0 PUSH0 REVERT JUMPDEST PUSH0 DUP2 SWAP1 POP SWAP2 SWAP1 POP JUMP JUMPDEST PUSH2 0x2CB DUP2 PUSH2 0x2B9 JUMP JUMPDEST DUP2 EQ PUSH2 0x2D5 JUMPI PUSH0 PUSH0 REVERT JUMPDEST POP JUMP JUMPDEST PUSH0 DUP2 CALLDATALOAD SWAP1 POP PUSH2 0x2E6 DUP2 PUSH2 0x2C2 JUMP JUMPDEST SWAP3 SWAP2 POP POP JUMP JUMPDEST PUSH0 PUSH0 REVERT JUMPDEST PUSH0 PUSH0 REVERT JUMPDEST PUSH0 PUSH0 REVERT JUMPDEST PUSH0 PUSH0 DUP4 PUSH1 0x1F DUP5 ADD SLT PUSH2 0x30D JUMPI PUSH2 0x30C PUSH2 0x2EC JUMP JUMPDEST JUMPDEST DUP3 CALLDATALOAD SWAP1 POP PUSH8 0xFFFFFFFFFFFFFFFF DUP2 GT ISZERO PUSH2 0x32A JUMPI PUSH2 0x329 PUSH2 0x2F0 JUMP JUMPDEST JUMPDEST PUSH1 0x20 DUP4 ADD SWAP2 POP DUP4 PUSH1 0x1 DUP3 MUL DUP4 ADD GT ISZERO PUSH2 0x346 JUMPI PUSH2 0x345 PUSH2 0x2F4 JUMP JUMPDEST JUMPDEST SWAP3 POP SWAP3 SWAP1 POP JUMP JUMPDEST PUSH0 PUSH0 PUSH0 PUSH1 0x40 DUP5 DUP7 SUB SLT ISZERO PUSH2 0x364 JUMPI PUSH2 0x363 PUSH2 0x2B1 JUMP JUMPDEST JUMPDEST PUSH0 PUSH2 0x371 DUP7 DUP3 DUP8 ADD PUSH2 0x2D8 JUMP JUMPDEST SWAP4 POP POP PUSH1 0x20 DUP5 ADD CALLDATALOAD PUSH8 0xFFFFFFFFFFFFFFFF DUP2 GT ISZERO PUSH2 0x392 JUMPI PUSH2 0x391 PUSH2 0x2B5 JUMP JUMPDEST JUMPDEST PUSH2 0x39E DUP7 DUP3 DUP8 ADD PUSH2 0x2F8 JUMP JUMPDEST SWAP3 POP SWAP3 POP POP SWAP3 POP SWAP3 POP SWAP3 JUMP JUMPDEST PUSH0 DUP2 ISZERO ISZERO SWAP1 POP SWAP2 SWAP1 POP JUMP JUMPDEST PUSH2 0x3BE DUP2 PUSH2 0x3AA JUMP JUMPDEST DUP3 MSTORE POP POP JUMP JUMPDEST PUSH0 PUSH1 0x20 DUP3 ADD SWAP1 POP PUSH2 0x3D7 PUSH0 DUP4 ADD DUP5 PUSH2 0x3B5 JUMP JUMPDEST SWAP3 SWAP2 POP POP JUMP JUMPDEST PUSH0 PUSH20 0xFFFFFFFFFFFFFFFFFFFFFFFFFFFFFFFFFFFFFFFF DUP3 AND SWAP1 POP SWAP2 SWAP1 POP JUMP JUMPDEST PUSH0 PUSH2 0x406 DUP3 PUSH2 0x3DD JUMP JUMPDEST SWAP1 POP SWAP2 SWAP1 POP JUMP JUMPDEST PUSH2 0x416 DUP2 PUSH2 0x3FC JUMP JUMPDEST DUP2 EQ PUSH2 0x420 JUMPI PUSH0 PUSH0 REVERT JUMPDEST POP JUMP JUMPDEST PUSH0 DUP2 CALLDATALOAD SWAP1 POP PUSH2 0x431 DUP2 PUSH2 0x40D JUMP JUMPDEST SWAP3 SWAP2 POP POP JUMP JUMPDEST PUSH0 DUP2 SWAP1 POP SWAP2 SWAP1 POP JUMP JUMPDEST PUSH2 0x449 DUP2 PUSH2 0x437 JUMP JUMPDEST DUP2 EQ PUSH2 0x453 JUMPI PUSH0 PUSH0 REVERT JUMPDEST POP JUMP JUMPDEST PUSH0 DUP2 CALLDATALOAD SWAP1 POP PUSH2 0x464 DUP2 PUSH2 0x440 JUMP JUMPDEST SWAP3 SWAP2 POP POP JUMP JUMPDEST PUSH0 PUSH0 PUSH0 PUSH0 PUSH1 0x60 DUP6 DUP8 SUB SLT ISZERO PUSH2 0x482 JUMPI PUSH2 0x481 PUSH2 0x2B1 JUMP JUMPDEST JUMPDEST PUSH0 PUSH2 0x48F DUP8 DUP3 DUP9 ADD PUSH2 0x423 JUMP JUMPDEST SWAP5 POP POP PUSH1 0x20 PUSH2 0x4A0 DUP8 DUP3 DUP9 ADD PUSH2 0x456 JUMP JUMPDEST SWAP4 POP POP PUSH1 0x40 DUP6 ADD CALLDATALOAD PUSH8 0xFFFFFFFFFFFFFFFF DUP2 GT ISZERO PUSH2 0x4C1 JUMPI PUSH2 0x4C0 PUSH2 0x2B5 JUMP JUMPDEST JUMPDEST PUSH2 0x4CD DUP8 DUP3 DUP9 ADD PUSH2 0x2F8 JUMP JUMPDEST SWAP3 POP SWAP3 POP POP SWAP3 SWAP6 SWAP2 SWAP5 POP SWAP3 POP JUMP JUMPDEST PUSH0 DUP2 SWAP1 POP SWAP3 SWAP2 POP POP JUMP JUMPDEST DUP3 DUP2 DUP4 CALLDATACOPY PUSH0 DUP4 DUP4 ADD MSTORE POP POP POP JUMP JUMPDEST PUSH0 PUSH2 0x4FE DUP4 DUP6 PUSH2 0x4DB JUMP JUMPDEST SWAP4 POP PUSH2 0x50B DUP4 DUP6 DUP5 PUSH2 0x4E5 JUMP JUMPDEST DUP3 DUP5 ADD SWAP1 POP SWAP4 SWAP3 POP POP POP JUMP JUMPDEST PUSH0 PUSH2 0x523 DUP3 DUP5 DUP7 PUSH2 0x4F3 JUMP JUMPDEST SWAP2 POP DUP2 SWAP1 POP SWAP4 SWAP3 POP POP POP JUMP JUMPDEST PUSH2 0x538 DUP2 PUSH2 0x2B9 JUMP JUMPDEST DUP3 MSTORE POP POP JUMP JUMPDEST PUSH0 PUSH1 0xFF DUP3 AND SWAP1 POP SWAP2 SWAP1 POP JUMP JUMPDEST PUSH2 0x553 DUP2 PUSH2 0x53E JUMP JUMPDEST DUP3 MSTORE POP POP JUMP JUMPDEST PUSH0 PUSH1 0x80 DUP3 ADD SWAP1 POP PUSH2 0x56C PUSH0 DUP4 ADD DUP8 PUSH2 0x52F JUMP JUMPDEST PUSH2 0x579 PUSH1 0x20 DUP4 ADD DUP7 PUSH2 0x54A JUMP JUMPDEST PUSH2 0x586 PUSH1 0x40 DUP4 ADD DUP6 PUSH2 0x52F JUMP JUMPDEST PUSH2 0x593 PUSH1 0x60 DUP4 ADD DUP5 PUSH2 0x52F JUMP JUMPDEST SWAP6 SWAP5 POP POP POP POP POP JUMP INVALID LOG2 PUSH5 0x6970667358 0x22 SLT KECCAK256 0xA8 PUSH6 0x860D836953BB 0xB4 0xC5 SDIV 0xD2 0xA6 MULMOD 0xF SWAP11 0xCA SWAP11 LOG4 PUSH7 0xF612DC8E0F2FA8 REVERT DUP15 0xD9 DIV 0x2D PUSH5 0x736F6C6343 STOP ADDMOD 0x1E STOP CALLER LOG2 PUSH5 0x6970667358 0x22 SLT KECCAK256 CREATE PUSH29 0xF09F3329B28FE4E3840B5781C4AF426C7B51C4A7A0B938A3ECAD590D3A SWAP16 PUSH5 0x736F6C6343 STOP ADDMOD 0x1E STOP CALLER "
				},
				"gasEstimates": {
					"creation": {
						"codeDepositCost": "625000",
						"executionCost": "infinite",
						"totalCost": "infinite"
					},
					"external": {
						"createAccount(address)": "infinite",
						"getAccount(address)": "infinite"
					}
				},
				"methodIdentifiers": {
					"createAccount(address)": "9859387b",
					"getAccount(address)": "fbcbc0f1"
				}
			},
			"storageLayout": {
				"storage": [
					{
						"astId": 151,
						"contract": "contracts/SmartAccountFactory.sol:SmartAccountFactory",
						"label": "accounts",
						"offset": 0,
						"slot": "0",
						"type": "t_mapping(t_address,t_address)"
					}
				],
				"types": {
					"t_address": {
						"encoding": "inplace",
						"label": "address",
						"numberOfBytes": "20"
					},
					"t_mapping(t_address,t_address)": {
						"encoding": "mapping",
						"key": "t_address",
						"label": "mapping(address => address)",
						"numberOfBytes": "32",
						"value": "t_address"
					}
				}
			},
			"userdoc": {
				"kind": "user",
				"methods": {},
				"version": 1
			}
		}
	}
}