{
  "_format": "hh-sol-artifact-1",
  "contractName": "BingNFT",
  "sourceName": "contracts/BingNFt.sol",
  "abi": [
    {
      "inputs": [],
      "stateMutability": "nonpayable",
      "type": "constructor"
    },
    {
      "inputs": [
        {
          "internalType": "address",
          "name": "sender",
          "type": "address"
        },
        {
          "internalType": "uint256",
          "name": "balance",
          "type": "uint256"
        },
        {
          "internalType": "uint256",
          "name": "needed",
          "type": "uint256"
        },
        {
          "internalType": "uint256",
          "name": "tokenId",
          "type": "uint256"
        }
      ],
      "name": "ERC1155InsufficientBalance",
      "type": "error"
    },
    {
      "inputs": [
        {
          "internalType": "address",
          "name": "approver",
          "type": "address"
        }
      ],
      "name": "ERC1155InvalidApprover",
      "type": "error"
    },
    {
      "inputs": [
        {
          "internalType": "uint256",
          "name": "idsLength",
          "type": "uint256"
        },
        {
          "internalType": "uint256",
          "name": "valuesLength",
          "type": "uint256"
        }
      ],
      "name": "ERC1155InvalidArrayLength",
      "type": "error"
    },
    {
      "inputs": [
        {
          "internalType": "address",
          "name": "operator",
          "type": "address"
        }
      ],
      "name": "ERC1155InvalidOperator",
      "type": "error"
    },
    {
      "inputs": [
        {
          "internalType": "address",
          "name": "receiver",
          "type": "address"
        }
      ],
      "name": "ERC1155InvalidReceiver",
      "type": "error"
    },
    {
      "inputs": [
        {
          "internalType": "address",
          "name": "sender",
          "type": "address"
        }
      ],
      "name": "ERC1155InvalidSender",
      "type": "error"
    },
    {
      "inputs": [
        {
          "internalType": "address",
          "name": "operator",
          "type": "address"
        },
        {
          "internalType": "address",
          "name": "owner",
          "type": "address"
        }
      ],
      "name": "ERC1155MissingApprovalForAll",
      "type": "error"
    },
    {
      "inputs": [
        {
          "internalType": "address",
          "name": "owner",
          "type": "address"
        }
      ],
      "name": "OwnableInvalidOwner",
      "type": "error"
    },
    {
      "inputs": [
        {
          "internalType": "address",
          "name": "account",
          "type": "address"
        }
      ],
      "name": "OwnableUnauthorizedAccount",
      "type": "error"
    },
    {
      "anonymous": false,
      "inputs": [
        {
          "indexed": true,
          "internalType": "address",
          "name": "account",
          "type": "address"
        },
        {
          "indexed": true,
          "internalType": "address",
          "name": "operator",
          "type": "address"
        },
        {
          "indexed": false,
          "internalType": "bool",
          "name": "approved",
          "type": "bool"
        }
      ],
      "name": "ApprovalForAll",
      "type": "event"
    },
    {
      "anonymous": false,
      "inputs": [
        {
          "indexed": true,
          "internalType": "address",
          "name": "previousOwner",
          "type": "address"
        },
        {
          "indexed": true,
          "internalType": "address",
          "name": "newOwner",
          "type": "address"
        }
      ],
      "name": "OwnershipTransferred",
      "type": "event"
    },
    {
      "anonymous": false,
      "inputs": [
        {
          "indexed": true,
          "internalType": "address",
          "name": "operator",
          "type": "address"
        },
        {
          "indexed": true,
          "internalType": "address",
          "name": "from",
          "type": "address"
        },
        {
          "indexed": true,
          "internalType": "address",
          "name": "to",
          "type": "address"
        },
        {
          "indexed": false,
          "internalType": "uint256[]",
          "name": "ids",
          "type": "uint256[]"
        },
        {
          "indexed": false,
          "internalType": "uint256[]",
          "name": "values",
          "type": "uint256[]"
        }
      ],
      "name": "TransferBatch",
      "type": "event"
    },
    {
      "anonymous": false,
      "inputs": [
        {
          "indexed": true,
          "internalType": "address",
          "name": "operator",
          "type": "address"
        },
        {
          "indexed": true,
          "internalType": "address",
          "name": "from",
          "type": "address"
        },
        {
          "indexed": true,
          "internalType": "address",
          "name": "to",
          "type": "address"
        },
        {
          "indexed": false,
          "internalType": "uint256",
          "name": "id",
          "type": "uint256"
        },
        {
          "indexed": false,
          "internalType": "uint256",
          "name": "value",
          "type": "uint256"
        }
      ],
      "name": "TransferSingle",
      "type": "event"
    },
    {
      "anonymous": false,
      "inputs": [
        {
          "indexed": false,
          "internalType": "string",
          "name": "value",
          "type": "string"
        },
        {
          "indexed": true,
          "internalType": "uint256",
          "name": "id",
          "type": "uint256"
        }
      ],
      "name": "URI",
      "type": "event"
    },
    {
      "inputs": [
        {
          "internalType": "uint256",
          "name": "nftid",
          "type": "uint256"
        },
        {
          "internalType": "address",
          "name": "sender",
          "type": "address"
        }
      ],
      "name": "BuyNFT",
      "outputs": [],
      "stateMutability": "payable",
      "type": "function"
    },
    {
      "inputs": [
        {
          "internalType": "address",
          "name": "sender",
          "type": "address"
        },
        {
          "internalType": "uint256",
          "name": "nftid",
          "type": "uint256"
        },
        {
          "internalType": "uint256",
          "name": "token",
          "type": "uint256"
        },
        {
          "internalType": "uint256",
          "name": "price",
          "type": "uint256"
        }
      ],
      "name": "SellNFT",
      "outputs": [],
      "stateMutability": "nonpayable",
      "type": "function"
    },
    {
      "inputs": [
        {
          "internalType": "address",
          "name": "account",
          "type": "address"
        },
        {
          "internalType": "uint256",
          "name": "id",
          "type": "uint256"
        }
      ],
      "name": "balanceOf",
      "outputs": [
        {
          "internalType": "uint256",
          "name": "",
          "type": "uint256"
        }
      ],
      "stateMutability": "view",
      "type": "function"
    },
    {
      "inputs": [
        {
          "internalType": "address[]",
          "name": "accounts",
          "type": "address[]"
        },
        {
          "internalType": "uint256[]",
          "name": "ids",
          "type": "uint256[]"
        }
      ],
      "name": "balanceOfBatch",
      "outputs": [
        {
          "internalType": "uint256[]",
          "name": "",
          "type": "uint256[]"
        }
      ],
      "stateMutability": "view",
      "type": "function"
    },
    {
      "inputs": [
        {
          "internalType": "uint256",
          "name": "nftid",
          "type": "uint256"
        },
        {
          "internalType": "address",
          "name": "sender",
          "type": "address"
        }
      ],
      "name": "cancelSale",
      "outputs": [],
      "stateMutability": "nonpayable",
      "type": "function"
    },
    {
      "inputs": [],
      "name": "getAllNFTIds",
      "outputs": [
        {
          "internalType": "uint256[]",
          "name": "nftids",
          "type": "uint256[]"
        },
        {
          "internalType": "address[]",
          "name": "sellers",
          "type": "address[]"
        },
        {
          "internalType": "uint256[]",
          "name": "tokens",
          "type": "uint256[]"
        },
        {
          "internalType": "uint256[]",
          "name": "prices",
          "type": "uint256[]"
        },
        {
          "internalType": "uint256[]",
          "name": "totalValues",
          "type": "uint256[]"
        },
        {
          "internalType": "bool[]",
          "name": "isForSale",
          "type": "bool[]"
        }
      ],
      "stateMutability": "view",
      "type": "function"
    },
    {
      "inputs": [],
      "name": "getAllNFTIdsForSale",
      "outputs": [
        {
          "internalType": "uint256[]",
          "name": "nftids",
          "type": "uint256[]"
        },
        {
          "internalType": "address[]",
          "name": "sellers",
          "type": "address[]"
        },
        {
          "internalType": "uint256[]",
          "name": "tokens",
          "type": "uint256[]"
        },
        {
          "internalType": "uint256[]",
          "name": "prices",
          "type": "uint256[]"
        },
        {
          "internalType": "uint256[]",
          "name": "totalValues",
          "type": "uint256[]"
        }
      ],
      "stateMutability": "view",
      "type": "function"
    },
    {
      "inputs": [
        {
          "internalType": "address",
          "name": "user",
          "type": "address"
        }
      ],
      "name": "getAllTokenBalances",
      "outputs": [
        {
          "internalType": "uint256[]",
          "name": "tokenIds",
          "type": "uint256[]"
        },
        {
          "internalType": "uint256[]",
          "name": "balances",
          "type": "uint256[]"
        }
      ],
      "stateMutability": "view",
      "type": "function"
    },
    {
      "inputs": [
        {
          "internalType": "address",
          "name": "user",
          "type": "address"
        },
        {
          "internalType": "uint256",
          "name": "tknId",
          "type": "uint256"
        }
      ],
      "name": "getCurrentBalance",
      "outputs": [
        {
          "internalType": "uint256",
          "name": "",
          "type": "uint256"
        }
      ],
      "stateMutability": "view",
      "type": "function"
    },
    {
      "inputs": [],
      "name": "getMarketplaceTotals",
      "outputs": [
        {
          "internalType": "uint256",
          "name": "totalValue",
          "type": "uint256"
        },
        {
          "internalType": "uint256",
          "name": "totalTokens",
          "type": "uint256"
        },
        {
          "internalType": "uint256",
          "name": "itemCount",
          "type": "uint256"
        }
      ],
      "stateMutability": "view",
      "type": "function"
    },
    {
      "inputs": [
        {
          "internalType": "address",
          "name": "user",
          "type": "address"
        }
      ],
      "name": "getMintedTokens",
      "outputs": [
        {
          "internalType": "uint256[]",
          "name": "tokenIds",
          "type": "uint256[]"
        },
        {
          "internalType": "uint256[]",
          "name": "amounts",
          "type": "uint256[]"
        }
      ],
      "stateMutability": "view",
      "type": "function"
    },
    {
      "inputs": [
        {
          "internalType": "uint256",
          "name": "nftid",
          "type": "uint256"
        }
      ],
      "name": "getNFTIdInfo",
      "outputs": [
        {
          "internalType": "address",
          "name": "seller",
          "type": "address"
        },
        {
          "internalType": "uint256",
          "name": "tokens",
          "type": "uint256"
        },
        {
          "internalType": "uint256",
          "name": "price",
          "type": "uint256"
        },
        {
          "internalType": "uint256",
          "name": "totalValue",
          "type": "uint256"
        },
        {
          "internalType": "bool",
          "name": "isForSale",
          "type": "bool"
        }
      ],
      "stateMutability": "view",
      "type": "function"
    },
    {
      "inputs": [
        {
          "internalType": "address",
          "name": "user",
          "type": "address"
        },
        {
          "internalType": "uint256",
          "name": "index",
          "type": "uint256"
        }
      ],
      "name": "getOwnerTokenAtIndex",
      "outputs": [
        {
          "internalType": "uint256",
          "name": "tokenid",
          "type": "uint256"
        },
        {
          "internalType": "uint256",
          "name": "amount",
          "type": "uint256"
        }
      ],
      "stateMutability": "view",
      "type": "function"
    },
    {
      "inputs": [
        {
          "internalType": "address",
          "name": "user",
          "type": "address"
        }
      ],
      "name": "getOwnerTokenCount",
      "outputs": [
        {
          "internalType": "uint256",
          "name": "",
          "type": "uint256"
        }
      ],
      "stateMutability": "view",
      "type": "function"
    },
    {
      "inputs": [
        {
          "internalType": "uint256",
          "name": "nftid",
          "type": "uint256"
        }
      ],
      "name": "getTotalTokensForNFTId",
      "outputs": [
        {
          "internalType": "uint256",
          "name": "totalTokens",
          "type": "uint256"
        }
      ],
      "stateMutability": "view",
      "type": "function"
    },
    {
      "inputs": [
        {
          "internalType": "uint256",
          "name": "nftid",
          "type": "uint256"
        }
      ],
      "name": "getTotalValueForNFTId",
      "outputs": [
        {
          "internalType": "uint256",
          "name": "totalValue",
          "type": "uint256"
        }
      ],
      "stateMutability": "view",
      "type": "function"
    },
    {
      "inputs": [
        {
          "internalType": "uint256",
          "name": "item",
          "type": "uint256"
        }
      ],
      "name": "getall",
      "outputs": [
        {
          "components": [
            {
              "internalType": "address",
              "name": "seller",
              "type": "address"
            },
            {
              "internalType": "uint256",
              "name": "token",
              "type": "uint256"
            },
            {
              "internalType": "uint256",
              "name": "price",
              "type": "uint256"
            }
          ],
          "internalType": "struct BingNFT.Sellstake",
          "name": "",
          "type": "tuple"
        }
      ],
      "stateMutability": "view",
      "type": "function"
    },
    {
      "inputs": [
        {
          "internalType": "address",
          "name": "account",
          "type": "address"
        },
        {
          "internalType": "address",
          "name": "operator",
          "type": "address"
        }
      ],
      "name": "isApprovedForAll",
      "outputs": [
        {
          "internalType": "bool",
          "name": "",
          "type": "bool"
        }
      ],
      "stateMutability": "view",
      "type": "function"
    },
    {
      "inputs": [
        {
          "internalType": "uint256",
          "name": "",
          "type": "uint256"
        }
      ],
      "name": "items",
      "outputs": [
        {
          "internalType": "address",
          "name": "seller",
          "type": "address"
        },
        {
          "internalType": "uint256",
          "name": "token",
          "type": "uint256"
        },
        {
          "internalType": "uint256",
          "name": "price",
          "type": "uint256"
        }
      ],
      "stateMutability": "view",
      "type": "function"
    },
    {
      "inputs": [
        {
          "internalType": "uint256",
          "name": "",
          "type": "uint256"
        }
      ],
      "name": "listNFTids",
      "outputs": [
        {
          "internalType": "uint256",
          "name": "",
          "type": "uint256"
        }
      ],
      "stateMutability": "view",
      "type": "function"
    },
    {
      "inputs": [
        {
          "internalType": "address",
          "name": "operator",
          "type": "address"
        },
        {
          "internalType": "address",
          "name": "from",
          "type": "address"
        },
        {
          "internalType": "uint256[]",
          "name": "ids",
          "type": "uint256[]"
        },
        {
          "internalType": "uint256[]",
          "name": "values",
          "type": "uint256[]"
        },
        {
          "internalType": "bytes",
          "name": "data",
          "type": "bytes"
        }
      ],
      "name": "onERC1155BatchReceived",
      "outputs": [
        {
          "internalType": "bytes4",
          "name": "",
          "type": "bytes4"
        }
      ],
      "stateMutability": "nonpayable",
      "type": "function"
    },
    {
      "inputs": [
        {
          "internalType": "address",
          "name": "operator",
          "type": "address"
        },
        {
          "internalType": "address",
          "name": "from",
          "type": "address"
        },
        {
          "internalType": "uint256",
          "name": "id",
          "type": "uint256"
        },
        {
          "internalType": "uint256",
          "name": "value",
          "type": "uint256"
        },
        {
          "internalType": "bytes",
          "name": "data",
          "type": "bytes"
        }
      ],
      "name": "onERC1155Received",
      "outputs": [
        {
          "internalType": "bytes4",
          "name": "",
          "type": "bytes4"
        }
      ],
      "stateMutability": "nonpayable",
      "type": "function"
    },
    {
      "inputs": [],
      "name": "owner",
      "outputs": [
        {
          "internalType": "address",
          "name": "",
          "type": "address"
        }
      ],
      "stateMutability": "view",
      "type": "function"
    },
    {
      "inputs": [],
      "name": "renounceOwnership",
      "outputs": [],
      "stateMutability": "nonpayable",
      "type": "function"
    },
    {
      "inputs": [
        {
          "internalType": "address",
          "name": "from",
          "type": "address"
        },
        {
          "internalType": "address",
          "name": "to",
          "type": "address"
        },
        {
          "internalType": "uint256[]",
          "name": "ids",
          "type": "uint256[]"
        },
        {
          "internalType": "uint256[]",
          "name": "values",
          "type": "uint256[]"
        },
        {
          "internalType": "bytes",
          "name": "data",
          "type": "bytes"
        }
      ],
      "name": "safeBatchTransferFrom",
      "outputs": [],
      "stateMutability": "nonpayable",
      "type": "function"
    },
    {
      "inputs": [
        {
          "internalType": "address",
          "name": "from",
          "type": "address"
        },
        {
          "internalType": "address",
          "name": "to",
          "type": "address"
        },
        {
          "internalType": "uint256",
          "name": "id",
          "type": "uint256"
        },
        {
          "internalType": "uint256",
          "name": "value",
          "type": "uint256"
        },
        {
          "internalType": "bytes",
          "name": "data",
          "type": "bytes"
        }
      ],
      "name": "safeTransferFrom",
      "outputs": [],
      "stateMutability": "nonpayable",
      "type": "function"
    },
    {
      "inputs": [
        {
          "internalType": "address",
          "name": "operator",
          "type": "address"
        },
        {
          "internalType": "bool",
          "name": "approved",
          "type": "bool"
        }
      ],
      "name": "setApprovalForAll",
      "outputs": [],
      "stateMutability": "nonpayable",
      "type": "function"
    },
    {
      "inputs": [
        {
          "internalType": "string",
          "name": "newuri",
          "type": "string"
        },
        {
          "internalType": "address",
          "name": "sender",
          "type": "address"
        }
      ],
      "name": "settokenURI",
      "outputs": [
        {
          "internalType": "uint256",
          "name": "",
          "type": "uint256"
        }
      ],
      "stateMutability": "nonpayable",
      "type": "function"
    },
    {
      "inputs": [
        {
          "internalType": "bytes4",
          "name": "interfaceId",
          "type": "bytes4"
        }
      ],
      "name": "supportsInterface",
      "outputs": [
        {
          "internalType": "bool",
          "name": "",
          "type": "bool"
        }
      ],
      "stateMutability": "view",
      "type": "function"
    },
    {
      "inputs": [
        {
          "internalType": "address",
          "name": "newOwner",
          "type": "address"
        }
      ],
      "name": "transferOwnership",
      "outputs": [],
      "stateMutability": "nonpayable",
      "type": "function"
    },
    {
      "inputs": [
        {
          "internalType": "uint256",
          "name": "tokenid",
          "type": "uint256"
        }
      ],
      "name": "uri",
      "outputs": [
        {
          "internalType": "string",
          "name": "",
          "type": "string"
        }
      ],
      "stateMutability": "view",
      "type": "function"
    },
    {
      "inputs": [
        {
          "internalType": "address",
          "name": "user",
          "type": "address"
        }
      ],
      "name": "userTokens",
      "outputs": [
        {
          "internalType": "uint256[]",
          "name": "",
          "type": "uint256[]"
        }
      ],
      "stateMutability": "view",
      "type": "function"
    }
  ],
  "bytecode": "0x6080604052604051806060016040528060288152602001615f2460289139600a908161002b9190610485565b5034801561003857600080fd5b5033600a80546100479061029e565b80601f01602080910402602001604051908101604052809291908181526020018280546100739061029e565b80156100c05780601f10610095576101008083540402835291602001916100c0565b820191906000526020600020905b8154815290600101906020018083116100a357829003601f168201915b50505050506100d48161015c60201b60201c565b50600073ffffffffffffffffffffffffffffffffffffffff168173ffffffffffffffffffffffffffffffffffffffff16036101475760006040517f1e4fbdf700000000000000000000000000000000000000000000000000000000815260040161013e9190610598565b60405180910390fd5b6101568161016f60201b60201c565b506105b3565b806002908161016b9190610485565b5050565b6000600360009054906101000a900473ffffffffffffffffffffffffffffffffffffffff16905081600360006101000a81548173ffffffffffffffffffffffffffffffffffffffff021916908373ffffffffffffffffffffffffffffffffffffffff1602179055508173ffffffffffffffffffffffffffffffffffffffff168173ffffffffffffffffffffffffffffffffffffffff167f8be0079c531659141344cd1fd0a4f28419497f9722a3daafe3b4186f6b6457e060405160405180910390a35050565b600081519050919050565b7f4e487b7100000000000000000000000000000000000000000000000000000000600052604160045260246000fd5b7f4e487b7100000000000000000000000000000000000000000000000000000000600052602260045260246000fd5b600060028204905060018216806102b657607f821691505b6020821081036102c9576102c861026f565b5b50919050565b60008190508160005260206000209050919050565b60006020601f8301049050919050565b600082821b905092915050565b6000600883026103317fffffffffffffffffffffffffffffffffffffffffffffffffffffffffffffffff826102f4565b61033b86836102f4565b95508019841693508086168417925050509392505050565b6000819050919050565b6000819050919050565b600061038261037d61037884610353565b61035d565b610353565b9050919050565b6000819050919050565b61039c83610367565b6103b06103a882610389565b848454610301565b825550505050565b600090565b6103c56103b8565b6103d0818484610393565b505050565b5b818110156103f4576103e96000826103bd565b6001810190506103d6565b5050565b601f8211156104395761040a816102cf565b610413846102e4565b81016020851015610422578190505b61043661042e856102e4565b8301826103d5565b50505b505050565b600082821c905092915050565b600061045c6000198460080261043e565b1980831691505092915050565b6000610475838361044b565b9150826002028217905092915050565b61048e82610235565b67ffffffffffffffff8111156104a7576104a6610240565b5b6104b1825461029e565b6104bc8282856103f8565b600060209050601f8311600181146104ef57600084156104dd578287015190505b6104e78582610469565b86555061054f565b601f1984166104fd866102cf565b60005b8281101561052557848901518255600182019150602085019450602081019050610500565b86831015610542578489015161053e601f89168261044b565b8355505b6001600288020188555050505b505050505050565b600073ffffffffffffffffffffffffffffffffffffffff82169050919050565b600061058282610557565b9050919050565b61059281610577565b82525050565b60006020820190506105ad6000830184610589565b92915050565b615962806105c26000396000f3fe6080604052600436106101e15760003560e01c8063813d2ad811610102578063d50bcc7111610095578063f23a6e6111610064578063f23a6e61146107d7578063f242432a14610814578063f2fde38b1461083d578063f9a6d91114610866576101e1565b8063d50bcc71146106f7578063d80a08da14610734578063e985e9c51461075d578063ed498fa81461079a576101e1565b8063b6d75ffe116100d1578063b6d75ffe14610601578063bc197c811461063e578063bfb231d21461067b578063cc0a48d4146106ba576101e1565b8063813d2ad8146105465780638da5cb5b1461056f5780639145d1331461059a578063a22cb465146105d8576101e1565b80632eb2c2d61161017a578063681bec6c11610149578063681bec6c146104775780636d7cdad0146104b5578063715018a6146104f257806375388a0f14610509576101e1565b80632eb2c2d614610396578063434a49a1146103bf5780634e1273f4146103fd5780635901417e1461043a576101e1565b80630c8d4638116101b65780630c8d4638146102bd5780630e89341c146102ec5780631c3fcc60146103295780632dbefa2314610366576101e1565b8062a4de46146101e6578062fdd58e1461022757806301ffc9a714610264578063079fc0f0146102a1575b600080fd5b3480156101f257600080fd5b5061020d60048036038101906102089190613cfc565b610893565b60405161021e959493929190613d94565b60405180910390f35b34801561023357600080fd5b5061024e60048036038101906102499190613e13565b610986565b60405161025b9190613e53565b60405180910390f35b34801561027057600080fd5b5061028b60048036038101906102869190613ec6565b6109e0565b6040516102989190613ef3565b60405180910390f35b6102bb60048036038101906102b69190613f0e565b610a5a565b005b3480156102c957600080fd5b506102d2610cf8565b6040516102e39594939291906140ca565b60405180910390f35b3480156102f857600080fd5b50610313600480360381019061030e9190613cfc565b611159565b60405161032091906141d0565b60405180910390f35b34801561033557600080fd5b50610350600480360381019061034b9190613cfc565b611245565b60405161035d9190614234565b60405180910390f35b34801561037257600080fd5b5061037b6112dc565b60405161038d9695949392919061430d565b60405180910390f35b3480156103a257600080fd5b506103bd60048036038101906103b89190614595565b6116ea565b005b3480156103cb57600080fd5b506103e660048036038101906103e19190614664565b611792565b6040516103f4929190614691565b60405180910390f35b34801561040957600080fd5b50610424600480360381019061041f919061478b565b6119a3565b6040516104319190614803565b60405180910390f35b34801561044657600080fd5b50610461600480360381019061045c9190613cfc565b611aac565b60405161046e9190613e53565b60405180910390f35b34801561048357600080fd5b5061049e60048036038101906104999190614664565b611b41565b6040516104ac929190614691565b60405180910390f35b3480156104c157600080fd5b506104dc60048036038101906104d79190613cfc565b611d52565b6040516104e99190613e53565b60405180910390f35b3480156104fe57600080fd5b50610507611d76565b005b34801561051557600080fd5b50610530600480360381019061052b9190613e13565b611d8a565b60405161053d9190613e53565b60405180910390f35b34801561055257600080fd5b5061056d60048036038101906105689190613f0e565b611de5565b005b34801561057b57600080fd5b5061058461203d565b6040516105919190614825565b60405180910390f35b3480156105a657600080fd5b506105c160048036038101906105bc9190613e13565b612067565b6040516105cf929190614840565b60405180910390f35b3480156105e457600080fd5b506105ff60048036038101906105fa9190614895565b6121a6565b005b34801561060d57600080fd5b5061062860048036038101906106239190613cfc565b6121bc565b6040516106359190613e53565b60405180910390f35b34801561064a57600080fd5b5061066560048036038101906106609190614986565b612267565b6040516106729190614a71565b60405180910390f35b34801561068757600080fd5b506106a2600480360381019061069d9190613cfc565b61227f565b6040516106b193929190614a8c565b60405180910390f35b3480156106c657600080fd5b506106e160048036038101906106dc9190614b64565b6122c9565b6040516106ee9190613e53565b60405180910390f35b34801561070357600080fd5b5061071e60048036038101906107199190614664565b612390565b60405161072b9190613e53565b60405180910390f35b34801561074057600080fd5b5061075b60048036038101906107569190614bc0565b6123dc565b005b34801561076957600080fd5b50610784600480360381019061077f9190614c27565b61273a565b6040516107919190613ef3565b60405180910390f35b3480156107a657600080fd5b506107c160048036038101906107bc9190614664565b6127ce565b6040516107ce9190614803565b60405180910390f35b3480156107e357600080fd5b506107fe60048036038101906107f99190614c67565b612865565b60405161080b9190614a71565b60405180910390f35b34801561082057600080fd5b5061083b60048036038101906108369190614d01565b61287b565b005b34801561084957600080fd5b50610864600480360381019061085f9190614664565b612923565b005b34801561087257600080fd5b5061087b6129a9565b60405161088a93929190614d98565b60405180910390f35b600080600080600080600460008881526020019081526020016000206040518060600160405290816000820160009054906101000a900473ffffffffffffffffffffffffffffffffffffffff1673ffffffffffffffffffffffffffffffffffffffff1673ffffffffffffffffffffffffffffffffffffffff16815260200160018201548152602001600282015481525050905080600001519550806020015194508060400151935084846109479190614dfe565b9250600073ffffffffffffffffffffffffffffffffffffffff168673ffffffffffffffffffffffffffffffffffffffff16141591505091939590929450565b600080600083815260200190815260200160002060008473ffffffffffffffffffffffffffffffffffffffff1673ffffffffffffffffffffffffffffffffffffffff16815260200190815260200160002054905092915050565b60007f4e2312e0000000000000000000000000000000000000000000000000000000007bffffffffffffffffffffffffffffffffffffffffffffffffffffffff1916827bffffffffffffffffffffffffffffffffffffffffffffffffffffffff19161480610a535750610a5282612ada565b5b9050919050565b6000600460008481526020019081526020016000206040518060600160405290816000820160009054906101000a900473ffffffffffffffffffffffffffffffffffffffff1673ffffffffffffffffffffffffffffffffffffffff1673ffffffffffffffffffffffffffffffffffffffff16815260200160018201548152602001600282015481525050905034816040015114610b2c576040517f08c379a0000000000000000000000000000000000000000000000000000000008152600401610b2390614e8c565b60405180910390fd5b806000015173ffffffffffffffffffffffffffffffffffffffff168273ffffffffffffffffffffffffffffffffffffffff1603610b9e576040517f08c379a0000000000000000000000000000000000000000000000000000000008152600401610b9590614ef8565b60405180910390fd5b600073ffffffffffffffffffffffffffffffffffffffff16816000015173ffffffffffffffffffffffffffffffffffffffff1603610c11576040517f08c379a0000000000000000000000000000000000000000000000000000000008152600401610c0890614f64565b60405180910390fd5b610c31308385846020015160405180602001604052806000815250612bbc565b8060200151600560008473ffffffffffffffffffffffffffffffffffffffff1673ffffffffffffffffffffffffffffffffffffffff16815260200190815260200160002060008581526020019081526020016000206000828254610c959190614f84565b92505081905550610ca68284612cc7565b60046000848152602001908152602001600020600080820160006101000a81549073ffffffffffffffffffffffffffffffffffffffff0219169055600182016000905560028201600090555050505050565b60608060608060606000805b600880549050811015610db557600073ffffffffffffffffffffffffffffffffffffffff166004600060088481548110610d4157610d40614fb8565b5b9060005260206000200154815260200190815260200160002060000160009054906101000a900473ffffffffffffffffffffffffffffffffffffffff1673ffffffffffffffffffffffffffffffffffffffff1614610da8578180610da490614fe7565b9250505b8080600101915050610d04565b508067ffffffffffffffff811115610dd057610dcf61439d565b5b604051908082528060200260200182016040528015610dfe5781602001602082028036833780820191505090505b5095508067ffffffffffffffff811115610e1b57610e1a61439d565b5b604051908082528060200260200182016040528015610e495781602001602082028036833780820191505090505b5094508067ffffffffffffffff811115610e6657610e6561439d565b5b604051908082528060200260200182016040528015610e945781602001602082028036833780820191505090505b5093508067ffffffffffffffff811115610eb157610eb061439d565b5b604051908082528060200260200182016040528015610edf5781602001602082028036833780820191505090505b5092508067ffffffffffffffff811115610efc57610efb61439d565b5b604051908082528060200260200182016040528015610f2a5781602001602082028036833780820191505090505b5091506000805b60088054905081101561114f57600060088281548110610f5457610f53614fb8565b5b90600052602060002001549050600073ffffffffffffffffffffffffffffffffffffffff166004600083815260200190815260200160002060000160009054906101000a900473ffffffffffffffffffffffffffffffffffffffff1673ffffffffffffffffffffffffffffffffffffffff16146111415780898481518110610fdf57610fde614fb8565b5b6020026020010181815250506004600082815260200190815260200160002060000160009054906101000a900473ffffffffffffffffffffffffffffffffffffffff1688848151811061103557611034614fb8565b5b602002602001019073ffffffffffffffffffffffffffffffffffffffff16908173ffffffffffffffffffffffffffffffffffffffff1681525050600460008281526020019081526020016000206001015487848151811061109957611098614fb8565b5b60200260200101818152505060046000828152602001908152602001600020600201548684815181106110cf576110ce614fb8565b5b602002602001018181525050600460008281526020019081526020016000206001015460046000838152602001908152602001600020600201546111139190614dfe565b85848151811061112657611125614fb8565b5b602002602001018181525050828061113d90614fe7565b9350505b508080600101915050610f31565b5050509091929394565b6060600060076000848152602001908152602001600020805461117b9061505e565b80601f01602080910402602001604051908101604052809291908181526020018280546111a79061505e565b80156111f45780601f106111c9576101008083540402835291602001916111f4565b820191906000526020600020905b8154815290600101906020018083116111d757829003601f168201915b5050505050905060008151111561120e5780915050611240565b600061121984612d80565b90508060405160200161122c9190615163565b604051602081830303815290604052925050505b919050565b61124d613c7b565b600460008381526020019081526020016000206040518060600160405290816000820160009054906101000a900473ffffffffffffffffffffffffffffffffffffffff1673ffffffffffffffffffffffffffffffffffffffff1673ffffffffffffffffffffffffffffffffffffffff168152602001600182015481526020016002820154815250509050919050565b606080606080606080600060088054905090508067ffffffffffffffff8111156113095761130861439d565b5b6040519080825280602002602001820160405280156113375781602001602082028036833780820191505090505b5096508067ffffffffffffffff8111156113545761135361439d565b5b6040519080825280602002602001820160405280156113825781602001602082028036833780820191505090505b5095508067ffffffffffffffff81111561139f5761139e61439d565b5b6040519080825280602002602001820160405280156113cd5781602001602082028036833780820191505090505b5094508067ffffffffffffffff8111156113ea576113e961439d565b5b6040519080825280602002602001820160405280156114185781602001602082028036833780820191505090505b5093508067ffffffffffffffff8111156114355761143461439d565b5b6040519080825280602002602001820160405280156114635781602001602082028036833780820191505090505b5092508067ffffffffffffffff8111156114805761147f61439d565b5b6040519080825280602002602001820160405280156114ae5781602001602082028036833780820191505090505b50915060005b818110156116e0576000600882815481106114d2576114d1614fb8565b5b90600052602060002001549050808983815181106114f3576114f2614fb8565b5b6020026020010181815250506004600082815260200190815260200160002060000160009054906101000a900473ffffffffffffffffffffffffffffffffffffffff1688838151811061154957611548614fb8565b5b602002602001019073ffffffffffffffffffffffffffffffffffffffff16908173ffffffffffffffffffffffffffffffffffffffff168152505060046000828152602001908152602001600020600101548783815181106115ad576115ac614fb8565b5b60200260200101818152505060046000828152602001908152602001600020600201548683815181106115e3576115e2614fb8565b5b602002602001018181525050600460008281526020019081526020016000206001015460046000838152602001908152602001600020600201546116279190614dfe565b85838151811061163a57611639614fb8565b5b602002602001018181525050600073ffffffffffffffffffffffffffffffffffffffff166004600083815260200190815260200160002060000160009054906101000a900473ffffffffffffffffffffffffffffffffffffffff1673ffffffffffffffffffffffffffffffffffffffff1614158483815181106116c0576116bf614fb8565b5b6020026020010190151590811515815250505080806001019150506114b4565b5050909192939495565b60006116f4612e4e565b90508073ffffffffffffffffffffffffffffffffffffffff168673ffffffffffffffffffffffffffffffffffffffff16141580156117395750611737868261273a565b155b1561177d5780866040517fe237d922000000000000000000000000000000000000000000000000000000008152600401611774929190615190565b60405180910390fd5b61178a8686868686612e56565b505050505050565b6060806000600660008573ffffffffffffffffffffffffffffffffffffffff1673ffffffffffffffffffffffffffffffffffffffff16815260200190815260200160002080548060200260200160405190810160405280929190818152602001828054801561182057602002820191906000526020600020905b81548152602001906001019080831161180c575b50505050509050805167ffffffffffffffff8111156118425761184161439d565b5b6040519080825280602002602001820160405280156118705781602001602082028036833780820191505090505b509250805167ffffffffffffffff81111561188e5761188d61439d565b5b6040519080825280602002602001820160405280156118bc5781602001602082028036833780820191505090505b50915060005b815181101561199c578181815181106118de576118dd614fb8565b5b60200260200101518482815181106118f9576118f8614fb8565b5b602002602001018181525050600560008673ffffffffffffffffffffffffffffffffffffffff1673ffffffffffffffffffffffffffffffffffffffff168152602001908152602001600020600083838151811061195957611958614fb8565b5b602002602001015181526020019081526020016000205483828151811061198357611982614fb8565b5b60200260200101818152505080806001019150506118c2565b5050915091565b606081518351146119ef57815183516040517f5b0599910000000000000000000000000000000000000000000000000000000081526004016119e6929190614840565b60405180910390fd5b6000835167ffffffffffffffff811115611a0c57611a0b61439d565b5b604051908082528060200260200182016040528015611a3a5781602001602082028036833780820191505090505b50905060005b8451811015611aa157611a77611a5f8287612f4e90919063ffffffff16565b611a728387612f6290919063ffffffff16565b610986565b828281518110611a8a57611a89614fb8565b5b602002602001018181525050806001019050611a40565b508091505092915050565b60008073ffffffffffffffffffffffffffffffffffffffff166004600084815260200190815260200160002060000160009054906101000a900473ffffffffffffffffffffffffffffffffffffffff1673ffffffffffffffffffffffffffffffffffffffff1614611b3c57600460008381526020019081526020016000206001015481611b399190614f84565b90505b919050565b6060806000600660008573ffffffffffffffffffffffffffffffffffffffff1673ffffffffffffffffffffffffffffffffffffffff168152602001908152602001600020805480602002602001604051908101604052809291908181526020018280548015611bcf57602002820191906000526020600020905b815481526020019060010190808311611bbb575b50505050509050805167ffffffffffffffff811115611bf157611bf061439d565b5b604051908082528060200260200182016040528015611c1f5781602001602082028036833780820191505090505b509250805167ffffffffffffffff811115611c3d57611c3c61439d565b5b604051908082528060200260200182016040528015611c6b5781602001602082028036833780820191505090505b50915060005b8151811015611d4b57818181518110611c8d57611c8c614fb8565b5b6020026020010151848281518110611ca857611ca7614fb8565b5b602002602001018181525050600560008673ffffffffffffffffffffffffffffffffffffffff1673ffffffffffffffffffffffffffffffffffffffff1681526020019081526020016000206000838381518110611d0857611d07614fb8565b5b6020026020010151815260200190815260200160002054838281518110611d3257611d31614fb8565b5b6020026020010181815250508080600101915050611c71565b5050915091565b60088181548110611d6257600080fd5b906000526020600020016000915090505481565b611d7e612f76565b611d886000612ffd565b565b6000600560008473ffffffffffffffffffffffffffffffffffffffff1673ffffffffffffffffffffffffffffffffffffffff168152602001908152602001600020600083815260200190815260200160002054905092915050565b6000600460008481526020019081526020016000206040518060600160405290816000820160009054906101000a900473ffffffffffffffffffffffffffffffffffffffff1673ffffffffffffffffffffffffffffffffffffffff1673ffffffffffffffffffffffffffffffffffffffff1681526020016001820154815260200160028201548152505090508173ffffffffffffffffffffffffffffffffffffffff16816000015173ffffffffffffffffffffffffffffffffffffffff1614611ee3576040517f08c379a0000000000000000000000000000000000000000000000000000000008152600401611eda90615205565b60405180910390fd5b600073ffffffffffffffffffffffffffffffffffffffff16816000015173ffffffffffffffffffffffffffffffffffffffff1603611f56576040517f08c379a0000000000000000000000000000000000000000000000000000000008152600401611f4d90614f64565b60405180910390fd5b611f76308385846020015160405180602001604052806000815250612bbc565b8060200151600560008473ffffffffffffffffffffffffffffffffffffffff1673ffffffffffffffffffffffffffffffffffffffff16815260200190815260200160002060008581526020019081526020016000206000828254611fda9190614f84565b92505081905550611feb8284612cc7565b60046000848152602001908152602001600020600080820160006101000a81549073ffffffffffffffffffffffffffffffffffffffff0219169055600182016000905560028201600090555050505050565b6000600360009054906101000a900473ffffffffffffffffffffffffffffffffffffffff16905090565b600080600660008573ffffffffffffffffffffffffffffffffffffffff1673ffffffffffffffffffffffffffffffffffffffff1681526020019081526020016000208054905083106120ee576040517f08c379a00000000000000000000000000000000000000000000000000000000081526004016120e590615271565b60405180910390fd5b600660008573ffffffffffffffffffffffffffffffffffffffff1673ffffffffffffffffffffffffffffffffffffffff168152602001908152602001600020838154811061213f5761213e614fb8565b5b90600052602060002001549150600560008573ffffffffffffffffffffffffffffffffffffffff1673ffffffffffffffffffffffffffffffffffffffff16815260200190815260200160002060008381526020019081526020016000205490509250929050565b6121b86121b1612e4e565b83836130c3565b5050565b60008073ffffffffffffffffffffffffffffffffffffffff166004600084815260200190815260200160002060000160009054906101000a900473ffffffffffffffffffffffffffffffffffffffff1673ffffffffffffffffffffffffffffffffffffffff1614612262576004600083815260200190815260200160002060010154600460008481526020019081526020016000206002015461225f9190614dfe565b90505b919050565b600063bc197c8160e01b905098975050505050505050565b60046020528060005260406000206000915090508060000160009054906101000a900473ffffffffffffffffffffffffffffffffffffffff16908060010154908060020154905083565b60008060095490506122ed8382606460405180602001604052806000815250613233565b8360076000838152602001908152602001600020908161230d919061543d565b506064600560008573ffffffffffffffffffffffffffffffffffffffff1673ffffffffffffffffffffffffffffffffffffffff16815260200190815260200160002060008381526020019081526020016000208190555061236e8382612cc7565b6009600081548092919061238190614fe7565b91905055508091505092915050565b6000600660008373ffffffffffffffffffffffffffffffffffffffff1673ffffffffffffffffffffffffffffffffffffffff168152602001908152602001600020805490509050919050565b816123e78585610986565b1015612428576040517f08c379a000000000000000000000000000000000000000000000000000000000815260040161241f9061555b565b60405180910390fd5b6000811161246b576040517f08c379a0000000000000000000000000000000000000000000000000000000008152600401612462906155c7565b60405180910390fd5b600073ffffffffffffffffffffffffffffffffffffffff166004600085815260200190815260200160002060000160009054906101000a900473ffffffffffffffffffffffffffffffffffffffff1673ffffffffffffffffffffffffffffffffffffffff1614612510576040517f08c379a000000000000000000000000000000000000000000000000000000000815260040161250790615633565b60405180910390fd5b60008211612553576040517f08c379a000000000000000000000000000000000000000000000000000000000815260040161254a9061569f565b60405180910390fd5b81600560008673ffffffffffffffffffffffffffffffffffffffff1673ffffffffffffffffffffffffffffffffffffffff16815260200190815260200160002060008581526020019081526020016000205410156125e6576040517f08c379a00000000000000000000000000000000000000000000000000000000081526004016125dd9061570b565b60405180910390fd5b6126028430858560405180602001604052806000815250612bbc565b81600560008673ffffffffffffffffffffffffffffffffffffffff1673ffffffffffffffffffffffffffffffffffffffff16815260200190815260200160002060008581526020019081526020016000206000828254612662919061572b565b9250508190555060405180606001604052808573ffffffffffffffffffffffffffffffffffffffff168152602001838152602001828152506004600085815260200190815260200160002060008201518160000160006101000a81548173ffffffffffffffffffffffffffffffffffffffff021916908373ffffffffffffffffffffffffffffffffffffffff1602179055506020820151816001015560408201518160020155905050600883908060018154018082558091505060019003906000526020600020016000909190919091505550505050565b6000600160008473ffffffffffffffffffffffffffffffffffffffff1673ffffffffffffffffffffffffffffffffffffffff16815260200190815260200160002060008373ffffffffffffffffffffffffffffffffffffffff1673ffffffffffffffffffffffffffffffffffffffff16815260200190815260200160002060009054906101000a900460ff16905092915050565b6060600660008373ffffffffffffffffffffffffffffffffffffffff1673ffffffffffffffffffffffffffffffffffffffff16815260200190815260200160002080548060200260200160405190810160405280929190818152602001828054801561285957602002820191906000526020600020905b815481526020019060010190808311612845575b50505050509050919050565b600063f23a6e6160e01b90509695505050505050565b6000612885612e4e565b90508073ffffffffffffffffffffffffffffffffffffffff168673ffffffffffffffffffffffffffffffffffffffff16141580156128ca57506128c8868261273a565b155b1561290e5780866040517fe237d922000000000000000000000000000000000000000000000000000000008152600401612905929190615190565b60405180910390fd5b61291b8686868686612bbc565b505050505050565b61292b612f76565b600073ffffffffffffffffffffffffffffffffffffffff168173ffffffffffffffffffffffffffffffffffffffff160361299d5760006040517f1e4fbdf70000000000000000000000000000000000000000000000000000000081526004016129949190614825565b60405180910390fd5b6129a681612ffd565b50565b600080600080600090505b600880549050811015612ad4576000600882815481106129d7576129d6614fb8565b5b90600052602060002001549050600073ffffffffffffffffffffffffffffffffffffffff166004600083815260200190815260200160002060000160009054906101000a900473ffffffffffffffffffffffffffffffffffffffff1673ffffffffffffffffffffffffffffffffffffffff1614612ac65760046000828152602001908152602001600020600101546004600083815260200190815260200160002060020154612a869190614dfe565b85612a919190614f84565b9450600460008281526020019081526020016000206001015484612ab59190614f84565b93508280612ac290614fe7565b9350505b5080806001019150506129b4565b50909192565b60007fd9b67a26000000000000000000000000000000000000000000000000000000007bffffffffffffffffffffffffffffffffffffffffffffffffffffffff1916827bffffffffffffffffffffffffffffffffffffffffffffffffffffffff19161480612ba557507f0e89341c000000000000000000000000000000000000000000000000000000007bffffffffffffffffffffffffffffffffffffffffffffffffffffffff1916827bffffffffffffffffffffffffffffffffffffffffffffffffffffffff1916145b80612bb55750612bb4826132cc565b5b9050919050565b600073ffffffffffffffffffffffffffffffffffffffff168473ffffffffffffffffffffffffffffffffffffffff1603612c2e5760006040517f57f447ce000000000000000000000000000000000000000000000000000000008152600401612c259190614825565b60405180910390fd5b600073ffffffffffffffffffffffffffffffffffffffff168573ffffffffffffffffffffffffffffffffffffffff1603612ca05760006040517f01a83514000000000000000000000000000000000000000000000000000000008152600401612c979190614825565b60405180910390fd5b600080612cad8585613336565b91509150612cbe8787848487613366565b50505050505050565b6000600660008473ffffffffffffffffffffffffffffffffffffffff1673ffffffffffffffffffffffffffffffffffffffff168152602001908152602001600020905060005b8180549050811015612d515782828281548110612d2d57612d2c614fb8565b5b906000526020600020015403612d44575050612d7c565b8080600101915050612d0d565b5080829080600181540180825580915050600190039060005260206000200160009091909190915055505b5050565b606060006001612d8f84613418565b01905060008167ffffffffffffffff811115612dae57612dad61439d565b5b6040519080825280601f01601f191660200182016040528015612de05781602001600182028036833780820191505090505b509050600082602001820190505b600115612e43578080600190039150507f3031323334353637383961626364656600000000000000000000000000000000600a86061a8153600a8581612e3757612e3661575f565b5b04945060008503612dee575b819350505050919050565b600033905090565b600073ffffffffffffffffffffffffffffffffffffffff168473ffffffffffffffffffffffffffffffffffffffff1603612ec85760006040517f57f447ce000000000000000000000000000000000000000000000000000000008152600401612ebf9190614825565b60405180910390fd5b600073ffffffffffffffffffffffffffffffffffffffff168573ffffffffffffffffffffffffffffffffffffffff1603612f3a5760006040517f01a83514000000000000000000000000000000000000000000000000000000008152600401612f319190614825565b60405180910390fd5b612f478585858585613366565b5050505050565b600060208202602084010151905092915050565b600060208202602084010151905092915050565b612f7e612e4e565b73ffffffffffffffffffffffffffffffffffffffff16612f9c61203d565b73ffffffffffffffffffffffffffffffffffffffff1614612ffb57612fbf612e4e565b6040517f118cdaa7000000000000000000000000000000000000000000000000000000008152600401612ff29190614825565b60405180910390fd5b565b6000600360009054906101000a900473ffffffffffffffffffffffffffffffffffffffff16905081600360006101000a81548173ffffffffffffffffffffffffffffffffffffffff021916908373ffffffffffffffffffffffffffffffffffffffff1602179055508173ffffffffffffffffffffffffffffffffffffffff168173ffffffffffffffffffffffffffffffffffffffff167f8be0079c531659141344cd1fd0a4f28419497f9722a3daafe3b4186f6b6457e060405160405180910390a35050565b600073ffffffffffffffffffffffffffffffffffffffff168273ffffffffffffffffffffffffffffffffffffffff16036131355760006040517fced3e10000000000000000000000000000000000000000000000000000000000815260040161312c9190614825565b60405180910390fd5b80600160008573ffffffffffffffffffffffffffffffffffffffff1673ffffffffffffffffffffffffffffffffffffffff16815260200190815260200160002060008473ffffffffffffffffffffffffffffffffffffffff1673ffffffffffffffffffffffffffffffffffffffff16815260200190815260200160002060006101000a81548160ff0219169083151502179055508173ffffffffffffffffffffffffffffffffffffffff168373ffffffffffffffffffffffffffffffffffffffff167f17307eab39ab6107e8899845ad3d59bd9653f200f220920489ca2b5937696c31836040516132269190613ef3565b60405180910390a3505050565b600073ffffffffffffffffffffffffffffffffffffffff168473ffffffffffffffffffffffffffffffffffffffff16036132a55760006040517f57f447ce00000000000000000000000000000000000000000000000000000000815260040161329c9190614825565b60405180910390fd5b6000806132b28585613336565b915091506132c4600087848487613366565b505050505050565b60007f01ffc9a7000000000000000000000000000000000000000000000000000000007bffffffffffffffffffffffffffffffffffffffffffffffffffffffff1916827bffffffffffffffffffffffffffffffffffffffffffffffffffffffff1916149050919050565b60608060405191506001825283602083015260408201905060018152826020820152604081016040529250929050565b6133728585858561356b565b600073ffffffffffffffffffffffffffffffffffffffff168473ffffffffffffffffffffffffffffffffffffffff16146134115760006133b0612e4e565b905060018451036134005760006133d1600086612f6290919063ffffffff16565b905060006133e9600086612f6290919063ffffffff16565b90506133f9838989858589613913565b505061340f565b61340e818787878787613ac7565b5b505b5050505050565b600080600090507a184f03e93ff9f4daa797ed6e38ed64bf6a1f0100000000000000008310613476577a184f03e93ff9f4daa797ed6e38ed64bf6a1f010000000000000000838161346c5761346b61575f565b5b0492506040810190505b6d04ee2d6d415b85acef810000000083106134b3576d04ee2d6d415b85acef810000000083816134a9576134a861575f565b5b0492506020810190505b662386f26fc1000083106134e257662386f26fc1000083816134d8576134d761575f565b5b0492506010810190505b6305f5e100831061350b576305f5e10083816135015761350061575f565b5b0492506008810190505b61271083106135305761271083816135265761352561575f565b5b0492506004810190505b6064831061355357606483816135495761354861575f565b5b0492506002810190505b600a8310613562576001810190505b80915050919050565b80518251146135b557815181516040517f5b0599910000000000000000000000000000000000000000000000000000000081526004016135ac929190614840565b60405180910390fd5b60006135bf612e4e565b905060005b83518110156137ce5760006135e28286612f6290919063ffffffff16565b905060006135f98386612f6290919063ffffffff16565b9050600073ffffffffffffffffffffffffffffffffffffffff168873ffffffffffffffffffffffffffffffffffffffff161461372657600080600084815260200190815260200160002060008a73ffffffffffffffffffffffffffffffffffffffff1673ffffffffffffffffffffffffffffffffffffffff168152602001908152602001600020549050818110156136ce57888183856040517f03dee4c50000000000000000000000000000000000000000000000000000000081526004016136c5949392919061578e565b60405180910390fd5b81810360008085815260200190815260200160002060008b73ffffffffffffffffffffffffffffffffffffffff1673ffffffffffffffffffffffffffffffffffffffff16815260200190815260200160002081905550505b600073ffffffffffffffffffffffffffffffffffffffff168773ffffffffffffffffffffffffffffffffffffffff16146137c1578060008084815260200190815260200160002060008973ffffffffffffffffffffffffffffffffffffffff1673ffffffffffffffffffffffffffffffffffffffff16815260200190815260200160002060008282546137b99190614f84565b925050819055505b50508060010190506135c4565b50600183510361388d5760006137ee600085612f6290919063ffffffff16565b90506000613806600085612f6290919063ffffffff16565b90508573ffffffffffffffffffffffffffffffffffffffff168773ffffffffffffffffffffffffffffffffffffffff168473ffffffffffffffffffffffffffffffffffffffff167fc3d58168c5ae7397731d063d5bbf3d657854427343f4c083240f7aacaa2d0f62858560405161387e929190614840565b60405180910390a4505061390c565b8373ffffffffffffffffffffffffffffffffffffffff168573ffffffffffffffffffffffffffffffffffffffff168273ffffffffffffffffffffffffffffffffffffffff167f4a39dc06d4c0dbc64b70af90fd698a233a518aa5d07e595d983b8c0526c8f7fb8686604051613903929190614691565b60405180910390a45b5050505050565b60008473ffffffffffffffffffffffffffffffffffffffff163b1115613abf578373ffffffffffffffffffffffffffffffffffffffff1663f23a6e6187878686866040518663ffffffff1660e01b8152600401613974959493929190615828565b6020604051808303816000875af19250505080156139b057506040513d601f19601f820116820180604052508101906139ad9190615897565b60015b613a34573d80600081146139e0576040519150601f19603f3d011682016040523d82523d6000602084013e6139e5565b606091505b506000815103613a2c57846040517f57f447ce000000000000000000000000000000000000000000000000000000008152600401613a239190614825565b60405180910390fd5b805181602001fd5b63f23a6e6160e01b7bffffffffffffffffffffffffffffffffffffffffffffffffffffffff1916817bffffffffffffffffffffffffffffffffffffffffffffffffffffffff191614613abd57846040517f57f447ce000000000000000000000000000000000000000000000000000000008152600401613ab49190614825565b60405180910390fd5b505b505050505050565b60008473ffffffffffffffffffffffffffffffffffffffff163b1115613c73578373ffffffffffffffffffffffffffffffffffffffff1663bc197c8187878686866040518663ffffffff1660e01b8152600401613b289594939291906158c4565b6020604051808303816000875af1925050508015613b6457506040513d601f19601f82011682018060405250810190613b619190615897565b60015b613be8573d8060008114613b94576040519150601f19603f3d011682016040523d82523d6000602084013e613b99565b606091505b506000815103613be057846040517f57f447ce000000000000000000000000000000000000000000000000000000008152600401613bd79190614825565b60405180910390fd5b805181602001fd5b63bc197c8160e01b7bffffffffffffffffffffffffffffffffffffffffffffffffffffffff1916817bffffffffffffffffffffffffffffffffffffffffffffffffffffffff191614613c7157846040517f57f447ce000000000000000000000000000000000000000000000000000000008152600401613c689190614825565b60405180910390fd5b505b505050505050565b6040518060600160405280600073ffffffffffffffffffffffffffffffffffffffff16815260200160008152602001600081525090565b6000604051905090565b600080fd5b600080fd5b6000819050919050565b613cd981613cc6565b8114613ce457600080fd5b50565b600081359050613cf681613cd0565b92915050565b600060208284031215613d1257613d11613cbc565b5b6000613d2084828501613ce7565b91505092915050565b600073ffffffffffffffffffffffffffffffffffffffff82169050919050565b6000613d5482613d29565b9050919050565b613d6481613d49565b82525050565b613d7381613cc6565b82525050565b60008115159050919050565b613d8e81613d79565b82525050565b600060a082019050613da96000830188613d5b565b613db66020830187613d6a565b613dc36040830186613d6a565b613dd06060830185613d6a565b613ddd6080830184613d85565b9695505050505050565b613df081613d49565b8114613dfb57600080fd5b50565b600081359050613e0d81613de7565b92915050565b60008060408385031215613e2a57613e29613cbc565b5b6000613e3885828601613dfe565b9250506020613e4985828601613ce7565b9150509250929050565b6000602082019050613e686000830184613d6a565b92915050565b60007fffffffff0000000000000000000000000000000000000000000000000000000082169050919050565b613ea381613e6e565b8114613eae57600080fd5b50565b600081359050613ec081613e9a565b92915050565b600060208284031215613edc57613edb613cbc565b5b6000613eea84828501613eb1565b91505092915050565b6000602082019050613f086000830184613d85565b92915050565b60008060408385031215613f2557613f24613cbc565b5b6000613f3385828601613ce7565b9250506020613f4485828601613dfe565b9150509250929050565b600081519050919050565b600082825260208201905092915050565b6000819050602082019050919050565b613f8381613cc6565b82525050565b6000613f958383613f7a565b60208301905092915050565b6000602082019050919050565b6000613fb982613f4e565b613fc38185613f59565b9350613fce83613f6a565b8060005b83811015613fff578151613fe68882613f89565b9750613ff183613fa1565b925050600181019050613fd2565b5085935050505092915050565b600081519050919050565b600082825260208201905092915050565b6000819050602082019050919050565b61404181613d49565b82525050565b60006140538383614038565b60208301905092915050565b6000602082019050919050565b60006140778261400c565b6140818185614017565b935061408c83614028565b8060005b838110156140bd5781516140a48882614047565b97506140af8361405f565b925050600181019050614090565b5085935050505092915050565b600060a08201905081810360008301526140e48188613fae565b905081810360208301526140f8818761406c565b9050818103604083015261410c8186613fae565b905081810360608301526141208185613fae565b905081810360808301526141348184613fae565b90509695505050505050565b600081519050919050565b600082825260208201905092915050565b60005b8381101561417a57808201518184015260208101905061415f565b60008484015250505050565b6000601f19601f8301169050919050565b60006141a282614140565b6141ac818561414b565b93506141bc81856020860161415c565b6141c581614186565b840191505092915050565b600060208201905081810360008301526141ea8184614197565b905092915050565b6060820160008201516142086000850182614038565b50602082015161421b6020850182613f7a565b50604082015161422e6040850182613f7a565b50505050565b600060608201905061424960008301846141f2565b92915050565b600081519050919050565b600082825260208201905092915050565b6000819050602082019050919050565b61428481613d79565b82525050565b6000614296838361427b565b60208301905092915050565b6000602082019050919050565b60006142ba8261424f565b6142c4818561425a565b93506142cf8361426b565b8060005b838110156143005781516142e7888261428a565b97506142f2836142a2565b9250506001810190506142d3565b5085935050505092915050565b600060c08201905081810360008301526143278189613fae565b9050818103602083015261433b818861406c565b9050818103604083015261434f8187613fae565b905081810360608301526143638186613fae565b905081810360808301526143778185613fae565b905081810360a083015261438b81846142af565b9050979650505050505050565b600080fd5b7f4e487b7100000000000000000000000000000000000000000000000000000000600052604160045260246000fd5b6143d582614186565b810181811067ffffffffffffffff821117156143f4576143f361439d565b5b80604052505050565b6000614407613cb2565b905061441382826143cc565b919050565b600067ffffffffffffffff8211156144335761443261439d565b5b602082029050602081019050919050565b600080fd5b600061445c61445784614418565b6143fd565b9050808382526020820190506020840283018581111561447f5761447e614444565b5b835b818110156144a857806144948882613ce7565b845260208401935050602081019050614481565b5050509392505050565b600082601f8301126144c7576144c6614398565b5b81356144d7848260208601614449565b91505092915050565b600080fd5b600067ffffffffffffffff821115614500576144ff61439d565b5b61450982614186565b9050602081019050919050565b82818337600083830152505050565b6000614538614533846144e5565b6143fd565b905082815260208101848484011115614554576145536144e0565b5b61455f848285614516565b509392505050565b600082601f83011261457c5761457b614398565b5b813561458c848260208601614525565b91505092915050565b600080600080600060a086880312156145b1576145b0613cbc565b5b60006145bf88828901613dfe565b95505060206145d088828901613dfe565b945050604086013567ffffffffffffffff8111156145f1576145f0613cc1565b5b6145fd888289016144b2565b935050606086013567ffffffffffffffff81111561461e5761461d613cc1565b5b61462a888289016144b2565b925050608086013567ffffffffffffffff81111561464b5761464a613cc1565b5b61465788828901614567565b9150509295509295909350565b60006020828403121561467a57614679613cbc565b5b600061468884828501613dfe565b91505092915050565b600060408201905081810360008301526146ab8185613fae565b905081810360208301526146bf8184613fae565b90509392505050565b600067ffffffffffffffff8211156146e3576146e261439d565b5b602082029050602081019050919050565b6000614707614702846146c8565b6143fd565b9050808382526020820190506020840283018581111561472a57614729614444565b5b835b81811015614753578061473f8882613dfe565b84526020840193505060208101905061472c565b5050509392505050565b600082601f83011261477257614771614398565b5b81356147828482602086016146f4565b91505092915050565b600080604083850312156147a2576147a1613cbc565b5b600083013567ffffffffffffffff8111156147c0576147bf613cc1565b5b6147cc8582860161475d565b925050602083013567ffffffffffffffff8111156147ed576147ec613cc1565b5b6147f9858286016144b2565b9150509250929050565b6000602082019050818103600083015261481d8184613fae565b905092915050565b600060208201905061483a6000830184613d5b565b92915050565b60006040820190506148556000830185613d6a565b6148626020830184613d6a565b9392505050565b61487281613d79565b811461487d57600080fd5b50565b60008135905061488f81614869565b92915050565b600080604083850312156148ac576148ab613cbc565b5b60006148ba85828601613dfe565b92505060206148cb85828601614880565b9150509250929050565b600080fd5b60008083601f8401126148f0576148ef614398565b5b8235905067ffffffffffffffff81111561490d5761490c6148d5565b5b60208301915083602082028301111561492957614928614444565b5b9250929050565b60008083601f84011261494657614945614398565b5b8235905067ffffffffffffffff811115614963576149626148d5565b5b60208301915083600182028301111561497f5761497e614444565b5b9250929050565b60008060008060008060008060a0898b0312156149a6576149a5613cbc565b5b60006149b48b828c01613dfe565b98505060206149c58b828c01613dfe565b975050604089013567ffffffffffffffff8111156149e6576149e5613cc1565b5b6149f28b828c016148da565b9650965050606089013567ffffffffffffffff811115614a1557614a14613cc1565b5b614a218b828c016148da565b9450945050608089013567ffffffffffffffff811115614a4457614a43613cc1565b5b614a508b828c01614930565b92509250509295985092959890939650565b614a6b81613e6e565b82525050565b6000602082019050614a866000830184614a62565b92915050565b6000606082019050614aa16000830186613d5b565b614aae6020830185613d6a565b614abb6040830184613d6a565b949350505050565b600067ffffffffffffffff821115614ade57614add61439d565b5b614ae782614186565b9050602081019050919050565b6000614b07614b0284614ac3565b6143fd565b905082815260208101848484011115614b2357614b226144e0565b5b614b2e848285614516565b509392505050565b600082601f830112614b4b57614b4a614398565b5b8135614b5b848260208601614af4565b91505092915050565b60008060408385031215614b7b57614b7a613cbc565b5b600083013567ffffffffffffffff811115614b9957614b98613cc1565b5b614ba585828601614b36565b9250506020614bb685828601613dfe565b9150509250929050565b60008060008060808587031215614bda57614bd9613cbc565b5b6000614be887828801613dfe565b9450506020614bf987828801613ce7565b9350506040614c0a87828801613ce7565b9250506060614c1b87828801613ce7565b91505092959194509250565b60008060408385031215614c3e57614c3d613cbc565b5b6000614c4c85828601613dfe565b9250506020614c5d85828601613dfe565b9150509250929050565b60008060008060008060a08789031215614c8457614c83613cbc565b5b6000614c9289828a01613dfe565b9650506020614ca389828a01613dfe565b9550506040614cb489828a01613ce7565b9450506060614cc589828a01613ce7565b935050608087013567ffffffffffffffff811115614ce657614ce5613cc1565b5b614cf289828a01614930565b92509250509295509295509295565b600080600080600060a08688031215614d1d57614d1c613cbc565b5b6000614d2b88828901613dfe565b9550506020614d3c88828901613dfe565b9450506040614d4d88828901613ce7565b9350506060614d5e88828901613ce7565b925050608086013567ffffffffffffffff811115614d7f57614d7e613cc1565b5b614d8b88828901614567565b9150509295509295909350565b6000606082019050614dad6000830186613d6a565b614dba6020830185613d6a565b614dc76040830184613d6a565b949350505050565b7f4e487b7100000000000000000000000000000000000000000000000000000000600052601160045260246000fd5b6000614e0982613cc6565b9150614e1483613cc6565b9250828202614e2281613cc6565b91508282048414831517614e3957614e38614dcf565b5b5092915050565b7f496e636f72726563742070726963650000000000000000000000000000000000600082015250565b6000614e76600f8361414b565b9150614e8182614e40565b602082019050919050565b60006020820190508181036000830152614ea581614e69565b9050919050565b7f43616e6e6f742062757920796f7572206f776e204e4654000000000000000000600082015250565b6000614ee260178361414b565b9150614eed82614eac565b602082019050919050565b60006020820190508181036000830152614f1181614ed5565b9050919050565b7f4e4654206e6f7420666f722073616c6500000000000000000000000000000000600082015250565b6000614f4e60108361414b565b9150614f5982614f18565b602082019050919050565b60006020820190508181036000830152614f7d81614f41565b9050919050565b6000614f8f82613cc6565b9150614f9a83613cc6565b9250828201905080821115614fb257614fb1614dcf565b5b92915050565b7f4e487b7100000000000000000000000000000000000000000000000000000000600052603260045260246000fd5b6000614ff282613cc6565b91507fffffffffffffffffffffffffffffffffffffffffffffffffffffffffffffffff820361502457615023614dcf565b5b600182019050919050565b7f4e487b7100000000000000000000000000000000000000000000000000000000600052602260045260246000fd5b6000600282049050600182168061507657607f821691505b6020821081036150895761508861502f565b5b50919050565b600081905092915050565b7f68747470733a2f2f6d7970726f6a6563742e636f6d2f6d657461646174612f00600082015250565b60006150d0601f8361508f565b91506150db8261509a565b601f82019050919050565b60006150f182614140565b6150fb818561508f565b935061510b81856020860161415c565b80840191505092915050565b7f2e6a736f6e000000000000000000000000000000000000000000000000000000600082015250565b600061514d60058361508f565b915061515882615117565b600582019050919050565b600061516e826150c3565b915061517a82846150e6565b915061518582615140565b915081905092915050565b60006040820190506151a56000830185613d5b565b6151b26020830184613d5b565b9392505050565b7f4f6e6c792073656c6c65722063616e2063616e63656c00000000000000000000600082015250565b60006151ef60168361414b565b91506151fa826151b9565b602082019050919050565b6000602082019050818103600083015261521e816151e2565b9050919050565b7f496e646578206f7574206f6620626f756e647300000000000000000000000000600082015250565b600061525b60138361414b565b915061526682615225565b602082019050919050565b6000602082019050818103600083015261528a8161524e565b9050919050565b60008190508160005260206000209050919050565b60006020601f8301049050919050565b600082821b905092915050565b6000600883026152f37fffffffffffffffffffffffffffffffffffffffffffffffffffffffffffffffff826152b6565b6152fd86836152b6565b95508019841693508086168417925050509392505050565b6000819050919050565b600061533a61533561533084613cc6565b615315565b613cc6565b9050919050565b6000819050919050565b6153548361531f565b61536861536082615341565b8484546152c3565b825550505050565b600090565b61537d615370565b61538881848461534b565b505050565b5b818110156153ac576153a1600082615375565b60018101905061538e565b5050565b601f8211156153f1576153c281615291565b6153cb846152a6565b810160208510156153da578190505b6153ee6153e6856152a6565b83018261538d565b50505b505050565b600082821c905092915050565b6000615414600019846008026153f6565b1980831691505092915050565b600061542d8383615403565b9150826002028217905092915050565b61544682614140565b67ffffffffffffffff81111561545f5761545e61439d565b5b615469825461505e565b6154748282856153b0565b600060209050601f8311600181146154a75760008415615495578287015190505b61549f8582615421565b865550615507565b601f1984166154b586615291565b60005b828110156154dd578489015182556001820191506020850194506020810190506154b8565b868310156154fa57848901516154f6601f891682615403565b8355505b6001600288020188555050505b505050505050565b7f496e73756666696369656e7420746f6b656e7300000000000000000000000000600082015250565b600061554560138361414b565b91506155508261550f565b602082019050919050565b6000602082019050818103600083015261557481615538565b9050919050565b7f5072696365206d7573742062652067726561746572207468616e203000000000600082015250565b60006155b1601c8361414b565b91506155bc8261557b565b602082019050919050565b600060208201905081810360008301526155e0816155a4565b9050919050565b7f4e465420616c726561647920666f722073616c65000000000000000000000000600082015250565b600061561d60148361414b565b9150615628826155e7565b602082019050919050565b6000602082019050818103600083015261564c81615610565b9050919050565b7f4d7573742073656c6c206174206c65617374203120746f6b656e000000000000600082015250565b6000615689601a8361414b565b915061569482615653565b602082019050919050565b600060208201905081810360008301526156b88161567c565b9050919050565b7f4e6f7420656e6f75676820746f6b656e73000000000000000000000000000000600082015250565b60006156f560118361414b565b9150615700826156bf565b602082019050919050565b60006020820190508181036000830152615724816156e8565b9050919050565b600061573682613cc6565b915061574183613cc6565b925082820390508181111561575957615758614dcf565b5b92915050565b7f4e487b7100000000000000000000000000000000000000000000000000000000600052601260045260246000fd5b60006080820190506157a36000830187613d5b565b6157b06020830186613d6a565b6157bd6040830185613d6a565b6157ca6060830184613d6a565b95945050505050565b600081519050919050565b600082825260208201905092915050565b60006157fa826157d3565b61580481856157de565b935061581481856020860161415c565b61581d81614186565b840191505092915050565b600060a08201905061583d6000830188613d5b565b61584a6020830187613d5b565b6158576040830186613d6a565b6158646060830185613d6a565b818103608083015261587681846157ef565b90509695505050505050565b60008151905061589181613e9a565b92915050565b6000602082840312156158ad576158ac613cbc565b5b60006158bb84828501615882565b91505092915050565b600060a0820190506158d96000830188613d5b565b6158e66020830187613d5b565b81810360408301526158f88186613fae565b9050818103606083015261590c8185613fae565b9050818103608083015261592081846157ef565b9050969550505050505056fea2646970667358221220f01a42ff971157bef83a6458f8ac8a633f602e8233e5cd403b3c9dbc166e4a5964736f6c634300081e003368747470733a2f2f6d7970726f6a6563742e636f6d2f6d657461646174612f7b69647d2e6a736f6e",
  "linkReferences": {},
  "deployedLinkReferences": {}
}