{
  "_format": "hh-sol-artifact-1",
  "contractName": "MetaBingNFT",
  "sourceName": "contracts/MetaBingNFT.sol",
  "abi": [
    {
      "inputs": [
        {
          "internalType": "address",
          "name": "_bingNFTAddress",
          "type": "address"
        }
      ],
      "stateMutability": "nonpayable",
      "type": "constructor"
    },
    {
      "anonymous": false,
      "inputs": [
        {
          "indexed": true,
          "internalType": "address",
          "name": "user",
          "type": "address"
        },
        {
          "indexed": false,
          "internalType": "uint256",
          "name": "tokenId",
          "type": "uint256"
        },
        {
          "indexed": false,
          "internalType": "uint256",
          "name": "amount",
          "type": "uint256"
        },
        {
          "indexed": false,
          "internalType": "string",
          "name": "metadata",
          "type": "string"
        }
      ],
      "name": "NFTMinted",
      "type": "event"
    },
    {
      "inputs": [
        {
          "internalType": "uint256",
          "name": "nftid",
          "type": "uint256"
        }
      ],
      "name": "BuyNFT",
      "outputs": [],
      "stateMutability": "payable",
      "type": "function"
    },
    {
      "inputs": [
        {
          "internalType": "uint256",
          "name": "nftid",
          "type": "uint256"
        },
        {
          "internalType": "uint256",
          "name": "token",
          "type": "uint256"
        },
        {
          "internalType": "uint256",
          "name": "price",
          "type": "uint256"
        }
      ],
      "name": "SellNFT",
      "outputs": [],
      "stateMutability": "nonpayable",
      "type": "function"
    },
    {
      "inputs": [],
      "name": "bingNFT",
      "outputs": [
        {
          "internalType": "contract BingNFT",
          "name": "",
          "type": "address"
        }
      ],
      "stateMutability": "view",
      "type": "function"
    },
    {
      "inputs": [
        {
          "internalType": "uint256",
          "name": "nftid",
          "type": "uint256"
        }
      ],
      "name": "cancelSale",
      "outputs": [],
      "stateMutability": "nonpayable",
      "type": "function"
    },
    {
      "inputs": [
        {
          "internalType": "address",
          "name": "user",
          "type": "address"
        }
      ],
      "name": "getAllTokenBalances",
      "outputs": [
        {
          "internalType": "uint256[]",
          "name": "tokenIds",
          "type": "uint256[]"
        },
        {
          "internalType": "uint256[]",
          "name": "balances",
          "type": "uint256[]"
        }
      ],
      "stateMutability": "view",
      "type": "function"
    },
    {
      "inputs": [],
      "name": "getContractInfo",
      "outputs": [
        {
          "internalType": "address",
          "name": "nftContract",
          "type": "address"
        },
        {
          "internalType": "address",
          "name": "contractOwner",
          "type": "address"
        }
      ],
      "stateMutability": "view",
      "type": "function"
    },
    {
      "inputs": [
        {
          "internalType": "address",
          "name": "user",
          "type": "address"
        },
        {
          "internalType": "uint256",
          "name": "tknId",
          "type": "uint256"
        }
      ],
      "name": "getCurrentBalance",
      "outputs": [
        {
          "internalType": "uint256",
          "name": "",
          "type": "uint256"
        }
      ],
      "stateMutability": "view",
      "type": "function"
    },
    {
      "inputs": [
        {
          "internalType": "address",
          "name": "user",
          "type": "address"
        }
      ],
      "name": "getMintedTokens",
      "outputs": [
        {
          "internalType": "uint256[]",
          "name": "tokenIds",
          "type": "uint256[]"
        },
        {
          "internalType": "uint256[]",
          "name": "amounts",
          "type": "uint256[]"
        }
      ],
      "stateMutability": "view",
      "type": "function"
    },
    {
      "inputs": [
        {
          "internalType": "address",
          "name": "user",
          "type": "address"
        },
        {
          "internalType": "uint256",
          "name": "index",
          "type": "uint256"
        }
      ],
      "name": "getOwnerTokenAtIndex",
      "outputs": [
        {
          "internalType": "uint256",
          "name": "tokenId",
          "type": "uint256"
        },
        {
          "internalType": "uint256",
          "name": "amount",
          "type": "uint256"
        }
      ],
      "stateMutability": "view",
      "type": "function"
    },
    {
      "inputs": [
        {
          "internalType": "address",
          "name": "user",
          "type": "address"
        }
      ],
      "name": "getOwnerTokenCount",
      "outputs": [
        {
          "internalType": "uint256",
          "name": "",
          "type": "uint256"
        }
      ],
      "stateMutability": "view",
      "type": "function"
    },
    {
      "inputs": [
        {
          "internalType": "uint256",
          "name": "item",
          "type": "uint256"
        }
      ],
      "name": "getall",
      "outputs": [
        {
          "components": [
            {
              "internalType": "address",
              "name": "seller",
              "type": "address"
            },
            {
              "internalType": "uint256",
              "name": "token",
              "type": "uint256"
            },
            {
              "internalType": "uint256",
              "name": "price",
              "type": "uint256"
            }
          ],
          "internalType": "struct BingNFT.Sellstake",
          "name": "",
          "type": "tuple"
        }
      ],
      "stateMutability": "view",
      "type": "function"
    },
    {
      "inputs": [],
      "name": "owner",
      "outputs": [
        {
          "internalType": "address",
          "name": "",
          "type": "address"
        }
      ],
      "stateMutability": "view",
      "type": "function"
    },
    {
      "inputs": [
        {
          "internalType": "string",
          "name": "newURI",
          "type": "string"
        },
        {
          "internalType": "address",
          "name": "sender",
          "type": "address"
        }
      ],
      "name": "setTokenURI",
      "outputs": [],
      "stateMutability": "nonpayable",
      "type": "function"
    },
    {
      "inputs": [
        {
          "internalType": "string",
          "name": "newuri",
          "type": "string"
        }
      ],
      "name": "settokenURI",
      "outputs": [],
      "stateMutability": "nonpayable",
      "type": "function"
    },
    {
      "inputs": [
        {
          "internalType": "address",
          "name": "newOwner",
          "type": "address"
        }
      ],
      "name": "transferOwnership",
      "outputs": [],
      "stateMutability": "nonpayable",
      "type": "function"
    },
    {
      "inputs": [
        {
          "internalType": "uint256",
          "name": "tokenid",
          "type": "uint256"
        }
      ],
      "name": "uri",
      "outputs": [
        {
          "internalType": "string",
          "name": "",
          "type": "string"
        }
      ],
      "stateMutability": "view",
      "type": "function"
    },
    {
      "inputs": [
        {
          "internalType": "address",
          "name": "user",
          "type": "address"
        }
      ],
      "name": "userTokens",
      "outputs": [
        {
          "internalType": "uint256[]",
          "name": "",
          "type": "uint256[]"
        }
      ],
      "stateMutability": "view",
      "type": "function"
    }
  ],
  "bytecode": "0x608060405234801561001057600080fd5b50604051611c52380380611c528339818101604052810190610032919061011c565b806000806101000a81548173ffffffffffffffffffffffffffffffffffffffff021916908373ffffffffffffffffffffffffffffffffffffffff16021790555033600160006101000a81548173ffffffffffffffffffffffffffffffffffffffff021916908373ffffffffffffffffffffffffffffffffffffffff16021790555050610149565b600080fd5b600073ffffffffffffffffffffffffffffffffffffffff82169050919050565b60006100e9826100be565b9050919050565b6100f9816100de565b811461010457600080fd5b50565b600081519050610116816100f0565b92915050565b600060208284031215610132576101316100b9565b5b600061014084828501610107565b91505092915050565b611afa806101586000396000f3fe6080604052600436106100fe5760003560e01c8063823d7af511610095578063bd94b00511610064578063bd94b00514610364578063d244cb5d1461038d578063d50bcc71146103b6578063ed498fa8146103f3578063f2fde38b14610430576100fe565b8063823d7af5146102b65780638da5cb5b146102df5780639145d1331461030a578063a37365e014610348576100fe565b8063434a49a1116100d1578063434a49a1146101d1578063681bec6c1461020f57806375388a0f1461024d5780637cc1f8671461028a576100fe565b80630294c785146101035780630e89341c1461012e5780631c3fcc601461016b57806323a77641146101a8575b600080fd5b34801561010f57600080fd5b50610118610459565b6040516101259190610f4b565b60405180910390f35b34801561013a57600080fd5b5061015560048036038101906101509190610fb0565b61047d565b604051610162919061106d565b60405180910390f35b34801561017757600080fd5b50610192600480360381019061018d9190610fb0565b610525565b60405161019f9190611101565b60405180910390f35b3480156101b457600080fd5b506101cf60048036038101906101ca9190611251565b6105ce565b005b3480156101dd57600080fd5b506101f860048036038101906101f391906112c6565b610670565b6040516102069291906113a2565b60405180910390f35b34801561021b57600080fd5b50610236600480360381019061023191906112c6565b61071b565b6040516102449291906113a2565b60405180910390f35b34801561025957600080fd5b50610274600480360381019061026f91906113d9565b6107c6565b6040516102819190611428565b60405180910390f35b34801561029657600080fd5b5061029f61086d565b6040516102ad929190611452565b60405180910390f35b3480156102c257600080fd5b506102dd60048036038101906102d8919061147b565b6108bc565b005b3480156102eb57600080fd5b506102f46109ef565b60405161030191906114d7565b60405180910390f35b34801561031657600080fd5b50610331600480360381019061032c91906113d9565b610a15565b60405161033f9291906114f2565b60405180910390f35b610362600480360381019061035d9190610fb0565b610abe565b005b34801561037057600080fd5b5061038b60048036038101906103869190610fb0565b610b4f565b005b34801561039957600080fd5b506103b460048036038101906103af919061151b565b610bdf565b005b3480156103c257600080fd5b506103dd60048036038101906103d891906112c6565b610c75565b6040516103ea9190611428565b60405180910390f35b3480156103ff57600080fd5b5061041a600480360381019061041591906112c6565b610d19565b604051610427919061156e565b60405180910390f35b34801561043c57600080fd5b50610457600480360381019061045291906112c6565b610dc1565b005b60008054906101000a900473ffffffffffffffffffffffffffffffffffffffff1681565b606060008054906101000a900473ffffffffffffffffffffffffffffffffffffffff1673ffffffffffffffffffffffffffffffffffffffff16630e89341c836040518263ffffffff1660e01b81526004016104d89190611428565b600060405180830381865afa1580156104f5573d6000803e3d6000fd5b505050506040513d6000823e3d601f19601f8201168201806040525081019061051e9190611600565b9050919050565b61052d610e95565b60008054906101000a900473ffffffffffffffffffffffffffffffffffffffff1673ffffffffffffffffffffffffffffffffffffffff16631c3fcc60836040518263ffffffff1660e01b81526004016105869190611428565b606060405180830381865afa1580156105a3573d6000803e3d6000fd5b505050506040513d601f19601f820116820180604052508101906105c791906116dc565b9050919050565b60008054906101000a900473ffffffffffffffffffffffffffffffffffffffff1673ffffffffffffffffffffffffffffffffffffffff1663cc0a48d482336040518363ffffffff1660e01b8152600401610629929190611709565b6020604051808303816000875af1158015610648573d6000803e3d6000fd5b505050506040513d601f19601f8201168201806040525081019061066c9190611739565b5050565b60608060008054906101000a900473ffffffffffffffffffffffffffffffffffffffff1673ffffffffffffffffffffffffffffffffffffffff1663434a49a1846040518263ffffffff1660e01b81526004016106cc91906114d7565b600060405180830381865afa1580156106e9573d6000803e3d6000fd5b505050506040513d6000823e3d601f19601f82011682018060405250810190610712919061182e565b91509150915091565b60608060008054906101000a900473ffffffffffffffffffffffffffffffffffffffff1673ffffffffffffffffffffffffffffffffffffffff1663681bec6c846040518263ffffffff1660e01b815260040161077791906114d7565b600060405180830381865afa158015610794573d6000803e3d6000fd5b505050506040513d6000823e3d601f19601f820116820180604052508101906107bd919061182e565b91509150915091565b60008060009054906101000a900473ffffffffffffffffffffffffffffffffffffffff1673ffffffffffffffffffffffffffffffffffffffff166375388a0f84846040518363ffffffff1660e01b81526004016108249291906118a6565b602060405180830381865afa158015610841573d6000803e3d6000fd5b505050506040513d601f19601f820116820180604052508101906108659190611739565b905092915050565b60008060008054906101000a900473ffffffffffffffffffffffffffffffffffffffff16600160009054906101000a900473ffffffffffffffffffffffffffffffffffffffff16915091509091565b600160009054906101000a900473ffffffffffffffffffffffffffffffffffffffff1673ffffffffffffffffffffffffffffffffffffffff163373ffffffffffffffffffffffffffffffffffffffff161461094c576040517f08c379a00000000000000000000000000000000000000000000000000000000081526004016109439061191b565b60405180910390fd5b60008054906101000a900473ffffffffffffffffffffffffffffffffffffffff1673ffffffffffffffffffffffffffffffffffffffff1663cc0a48d483836040518363ffffffff1660e01b81526004016109a7929190611709565b6020604051808303816000875af11580156109c6573d6000803e3d6000fd5b505050506040513d601f19601f820116820180604052508101906109ea9190611739565b505050565b600160009054906101000a900473ffffffffffffffffffffffffffffffffffffffff1681565b60008060008054906101000a900473ffffffffffffffffffffffffffffffffffffffff1673ffffffffffffffffffffffffffffffffffffffff16639145d13385856040518363ffffffff1660e01b8152600401610a739291906118a6565b6040805180830381865afa158015610a8f573d6000803e3d6000fd5b505050506040513d601f19601f82011682018060405250810190610ab3919061193b565b915091509250929050565b60008054906101000a900473ffffffffffffffffffffffffffffffffffffffff1673ffffffffffffffffffffffffffffffffffffffff1663079fc0f03483336040518463ffffffff1660e01b8152600401610b1a92919061197b565b6000604051808303818588803b158015610b3357600080fd5b505af1158015610b47573d6000803e3d6000fd5b505050505050565b60008054906101000a900473ffffffffffffffffffffffffffffffffffffffff1673ffffffffffffffffffffffffffffffffffffffff1663813d2ad882336040518363ffffffff1660e01b8152600401610baa92919061197b565b600060405180830381600087803b158015610bc457600080fd5b505af1158015610bd8573d6000803e3d6000fd5b5050505050565b60008054906101000a900473ffffffffffffffffffffffffffffffffffffffff1673ffffffffffffffffffffffffffffffffffffffff1663d80a08da338585856040518563ffffffff1660e01b8152600401610c3e94939291906119a4565b600060405180830381600087803b158015610c5857600080fd5b505af1158015610c6c573d6000803e3d6000fd5b50505050505050565b60008060009054906101000a900473ffffffffffffffffffffffffffffffffffffffff1673ffffffffffffffffffffffffffffffffffffffff1663d50bcc71836040518263ffffffff1660e01b8152600401610cd191906114d7565b602060405180830381865afa158015610cee573d6000803e3d6000fd5b505050506040513d601f19601f82011682018060405250810190610d129190611739565b9050919050565b606060008054906101000a900473ffffffffffffffffffffffffffffffffffffffff1673ffffffffffffffffffffffffffffffffffffffff1663ed498fa8836040518263ffffffff1660e01b8152600401610d7491906114d7565b600060405180830381865afa158015610d91573d6000803e3d6000fd5b505050506040513d6000823e3d601f19601f82011682018060405250810190610dba91906119e9565b9050919050565b600160009054906101000a900473ffffffffffffffffffffffffffffffffffffffff1673ffffffffffffffffffffffffffffffffffffffff163373ffffffffffffffffffffffffffffffffffffffff1614610e51576040517f08c379a0000000000000000000000000000000000000000000000000000000008152600401610e4890611aa4565b60405180910390fd5b80600160006101000a81548173ffffffffffffffffffffffffffffffffffffffff021916908373ffffffffffffffffffffffffffffffffffffffff16021790555050565b6040518060600160405280600073ffffffffffffffffffffffffffffffffffffffff16815260200160008152602001600081525090565b600073ffffffffffffffffffffffffffffffffffffffff82169050919050565b6000819050919050565b6000610f11610f0c610f0784610ecc565b610eec565b610ecc565b9050919050565b6000610f2382610ef6565b9050919050565b6000610f3582610f18565b9050919050565b610f4581610f2a565b82525050565b6000602082019050610f606000830184610f3c565b92915050565b6000604051905090565b600080fd5b600080fd5b6000819050919050565b610f8d81610f7a565b8114610f9857600080fd5b50565b600081359050610faa81610f84565b92915050565b600060208284031215610fc657610fc5610f70565b5b6000610fd484828501610f9b565b91505092915050565b600081519050919050565b600082825260208201905092915050565b60005b83811015611017578082015181840152602081019050610ffc565b60008484015250505050565b6000601f19601f8301169050919050565b600061103f82610fdd565b6110498185610fe8565b9350611059818560208601610ff9565b61106281611023565b840191505092915050565b600060208201905081810360008301526110878184611034565b905092915050565b600061109a82610ecc565b9050919050565b6110aa8161108f565b82525050565b6110b981610f7a565b82525050565b6060820160008201516110d560008501826110a1565b5060208201516110e860208501826110b0565b5060408201516110fb60408501826110b0565b50505050565b600060608201905061111660008301846110bf565b92915050565b600080fd5b600080fd5b7f4e487b7100000000000000000000000000000000000000000000000000000000600052604160045260246000fd5b61115e82611023565b810181811067ffffffffffffffff8211171561117d5761117c611126565b5b80604052505050565b6000611190610f66565b905061119c8282611155565b919050565b600067ffffffffffffffff8211156111bc576111bb611126565b5b6111c582611023565b9050602081019050919050565b82818337600083830152505050565b60006111f46111ef846111a1565b611186565b9050828152602081018484840111156112105761120f611121565b5b61121b8482856111d2565b509392505050565b600082601f8301126112385761123761111c565b5b81356112488482602086016111e1565b91505092915050565b60006020828403121561126757611266610f70565b5b600082013567ffffffffffffffff81111561128557611284610f75565b5b61129184828501611223565b91505092915050565b6112a38161108f565b81146112ae57600080fd5b50565b6000813590506112c08161129a565b92915050565b6000602082840312156112dc576112db610f70565b5b60006112ea848285016112b1565b91505092915050565b600081519050919050565b600082825260208201905092915050565b6000819050602082019050919050565b600061132b83836110b0565b60208301905092915050565b6000602082019050919050565b600061134f826112f3565b61135981856112fe565b93506113648361130f565b8060005b8381101561139557815161137c888261131f565b975061138783611337565b925050600181019050611368565b5085935050505092915050565b600060408201905081810360008301526113bc8185611344565b905081810360208301526113d08184611344565b90509392505050565b600080604083850312156113f0576113ef610f70565b5b60006113fe858286016112b1565b925050602061140f85828601610f9b565b9150509250929050565b61142281610f7a565b82525050565b600060208201905061143d6000830184611419565b92915050565b61144c8161108f565b82525050565b60006040820190506114676000830185611443565b6114746020830184611443565b9392505050565b6000806040838503121561149257611491610f70565b5b600083013567ffffffffffffffff8111156114b0576114af610f75565b5b6114bc85828601611223565b92505060206114cd858286016112b1565b9150509250929050565b60006020820190506114ec6000830184611443565b92915050565b60006040820190506115076000830185611419565b6115146020830184611419565b9392505050565b60008060006060848603121561153457611533610f70565b5b600061154286828701610f9b565b935050602061155386828701610f9b565b925050604061156486828701610f9b565b9150509250925092565b600060208201905081810360008301526115888184611344565b905092915050565b60006115a361159e846111a1565b611186565b9050828152602081018484840111156115bf576115be611121565b5b6115ca848285610ff9565b509392505050565b600082601f8301126115e7576115e661111c565b5b81516115f7848260208601611590565b91505092915050565b60006020828403121561161657611615610f70565b5b600082015167ffffffffffffffff81111561163457611633610f75565b5b611640848285016115d2565b91505092915050565b600080fd5b60008151905061165d8161129a565b92915050565b60008151905061167281610f84565b92915050565b60006060828403121561168e5761168d611649565b5b6116986060611186565b905060006116a88482850161164e565b60008301525060206116bc84828501611663565b60208301525060406116d084828501611663565b60408301525092915050565b6000606082840312156116f2576116f1610f70565b5b600061170084828501611678565b91505092915050565b600060408201905081810360008301526117238185611034565b90506117326020830184611443565b9392505050565b60006020828403121561174f5761174e610f70565b5b600061175d84828501611663565b91505092915050565b600067ffffffffffffffff82111561178157611780611126565b5b602082029050602081019050919050565b600080fd5b60006117aa6117a584611766565b611186565b905080838252602082019050602084028301858111156117cd576117cc611792565b5b835b818110156117f657806117e28882611663565b8452602084019350506020810190506117cf565b5050509392505050565b600082601f8301126118155761181461111c565b5b8151611825848260208601611797565b91505092915050565b6000806040838503121561184557611844610f70565b5b600083015167ffffffffffffffff81111561186357611862610f75565b5b61186f85828601611800565b925050602083015167ffffffffffffffff8111156118905761188f610f75565b5b61189c85828601611800565b9150509250929050565b60006040820190506118bb6000830185611443565b6118c86020830184611419565b9392505050565b7f4f6e6c79206f776e65722063616e207365742055524900000000000000000000600082015250565b6000611905601683610fe8565b9150611910826118cf565b602082019050919050565b60006020820190508181036000830152611934816118f8565b9050919050565b6000806040838503121561195257611951610f70565b5b600061196085828601611663565b925050602061197185828601611663565b9150509250929050565b60006040820190506119906000830185611419565b61199d6020830184611443565b9392505050565b60006080820190506119b96000830187611443565b6119c66020830186611419565b6119d36040830185611419565b6119e06060830184611419565b95945050505050565b6000602082840312156119ff576119fe610f70565b5b600082015167ffffffffffffffff811115611a1d57611a1c610f75565b5b611a2984828501611800565b91505092915050565b7f4f6e6c79206f776e65722063616e207472616e73666572206f776e657273686960008201527f7000000000000000000000000000000000000000000000000000000000000000602082015250565b6000611a8e602183610fe8565b9150611a9982611a32565b604082019050919050565b60006020820190508181036000830152611abd81611a81565b905091905056fea2646970667358221220b95559d2654bae7dde08039cd5ba54699deab1302f8943de82233018f60b7db864736f6c634300081e0033",
  "linkReferences": {},
  "deployedLinkReferences": {}
}