{
  "_format": "hh-sol-artifact-1",
  "contractName": "MetaTransaction",
  "sourceName": "contracts/MetacoinTnx.sol",
  "abi": [
    {
      "inputs": [
        {
          "internalType": "address",
          "name": "_CA",
          "type": "address"
        }
      ],
      "stateMutability": "nonpayable",
      "type": "constructor"
    },
    {
      "inputs": [
        {
          "internalType": "address",
          "name": "accounts",
          "type": "address"
        },
        {
          "internalType": "uint256",
          "name": "tokens",
          "type": "uint256"
        },
        {
          "internalType": "string",
          "name": "messages",
          "type": "string"
        },
        {
          "internalType": "bytes",
          "name": "signature",
          "type": "bytes"
        }
      ],
      "name": "mint",
      "outputs": [],
      "stateMutability": "nonpayable",
      "type": "function"
    }
  ],
  "bytecode": "0x608060405234801561001057600080fd5b50604051610b22380380610b22833981810160405281019061003291906100db565b806000806101000a81548173ffffffffffffffffffffffffffffffffffffffff021916908373ffffffffffffffffffffffffffffffffffffffff16021790555050610108565b600080fd5b600073ffffffffffffffffffffffffffffffffffffffff82169050919050565b60006100a88261007d565b9050919050565b6100b88161009d565b81146100c357600080fd5b50565b6000815190506100d5816100af565b92915050565b6000602082840312156100f1576100f0610078565b5b60006100ff848285016100c6565b91505092915050565b610a0b806101176000396000f3fe608060405234801561001057600080fd5b506004361061002b5760003560e01c8063d2b04fd614610030575b600080fd5b61004a600480360381019061004591906106f6565b61004c565b005b6100578483836100ea565b60008054906101000a900473ffffffffffffffffffffffffffffffffffffffff1673ffffffffffffffffffffffffffffffffffffffff166340c10f1985856040518363ffffffff1660e01b81526004016100b29291906107b3565b600060405180830381600087803b1580156100cc57600080fd5b505af11580156100e0573d6000803e3d6000fd5b5050505050505050565b60006100f58361019a565b90506000806000610105856101da565b9250925092506001848285856040516000815260200160405260405161012e9493929190610811565b6020604051602081039080840390855afa158015610150573d6000803e3d6000fd5b5050506020604051035173ffffffffffffffffffffffffffffffffffffffff168773ffffffffffffffffffffffffffffffffffffffff161461019157600080fd5b50505050505050565b600080825190506101aa81610246565b836040516020016101bc929190610913565b60405160208183030381529060405280519060200120915050919050565b600080600060418451146101ed57600080fd5b6020840151925060408401519150606084015160001a9050601b8160ff16101561023f57601b8161021e9190610971565b9050601b8160ff1614806102355750601c8160ff16145b61023e57600080fd5b5b9193909250565b60606000600161025584610314565b01905060008167ffffffffffffffff8111156102745761027361052a565b5b6040519080825280601f01601f1916602001820160405280156102a65781602001600182028036833780820191505090505b509050600082602001820190505b600115610309578080600190039150507f3031323334353637383961626364656600000000000000000000000000000000600a86061a8153600a85816102fd576102fc6109a6565b5b049450600085036102b4575b819350505050919050565b600080600090507a184f03e93ff9f4daa797ed6e38ed64bf6a1f0100000000000000008310610372577a184f03e93ff9f4daa797ed6e38ed64bf6a1f0100000000000000008381610368576103676109a6565b5b0492506040810190505b6d04ee2d6d415b85acef810000000083106103af576d04ee2d6d415b85acef810000000083816103a5576103a46109a6565b5b0492506020810190505b662386f26fc1000083106103de57662386f26fc1000083816103d4576103d36109a6565b5b0492506010810190505b6305f5e1008310610407576305f5e10083816103fd576103fc6109a6565b5b0492506008810190505b612710831061042c576127108381610422576104216109a6565b5b0492506004810190505b6064831061044f5760648381610445576104446109a6565b5b0492506002810190505b600a831061045e576001810190505b80915050919050565b6000604051905090565b600080fd5b600080fd5b600073ffffffffffffffffffffffffffffffffffffffff82169050919050565b60006104a68261047b565b9050919050565b6104b68161049b565b81146104c157600080fd5b50565b6000813590506104d3816104ad565b92915050565b6000819050919050565b6104ec816104d9565b81146104f757600080fd5b50565b600081359050610509816104e3565b92915050565b600080fd5b600080fd5b6000601f19601f8301169050919050565b7f4e487b7100000000000000000000000000000000000000000000000000000000600052604160045260246000fd5b61056282610519565b810181811067ffffffffffffffff821117156105815761058061052a565b5b80604052505050565b6000610594610467565b90506105a08282610559565b919050565b600067ffffffffffffffff8211156105c0576105bf61052a565b5b6105c982610519565b9050602081019050919050565b82818337600083830152505050565b60006105f86105f3846105a5565b61058a565b90508281526020810184848401111561061457610613610514565b5b61061f8482856105d6565b509392505050565b600082601f83011261063c5761063b61050f565b5b813561064c8482602086016105e5565b91505092915050565b600067ffffffffffffffff8211156106705761066f61052a565b5b61067982610519565b9050602081019050919050565b600061069961069484610655565b61058a565b9050828152602081018484840111156106b5576106b4610514565b5b6106c08482856105d6565b509392505050565b600082601f8301126106dd576106dc61050f565b5b81356106ed848260208601610686565b91505092915050565b600080600080608085870312156107105761070f610471565b5b600061071e878288016104c4565b945050602061072f878288016104fa565b935050604085013567ffffffffffffffff8111156107505761074f610476565b5b61075c87828801610627565b925050606085013567ffffffffffffffff81111561077d5761077c610476565b5b610789878288016106c8565b91505092959194509250565b61079e8161049b565b82525050565b6107ad816104d9565b82525050565b60006040820190506107c86000830185610795565b6107d560208301846107a4565b9392505050565b6000819050919050565b6107ef816107dc565b82525050565b600060ff82169050919050565b61080b816107f5565b82525050565b600060808201905061082660008301876107e6565b6108336020830186610802565b61084060408301856107e6565b61084d60608301846107e6565b95945050505050565b600081905092915050565b7f19457468657265756d205369676e6564204d6573736167653a0a000000000000600082015250565b6000610897601a83610856565b91506108a282610861565b601a82019050919050565b600081519050919050565b60005b838110156108d65780820151818401526020810190506108bb565b60008484015250505050565b60006108ed826108ad565b6108f78185610856565b93506109078185602086016108b8565b80840191505092915050565b600061091e8261088a565b915061092a82856108e2565b915061093682846108e2565b91508190509392505050565b7f4e487b7100000000000000000000000000000000000000000000000000000000600052601160045260246000fd5b600061097c826107f5565b9150610987836107f5565b9250828201905060ff8111156109a05761099f610942565b5b92915050565b7f4e487b7100000000000000000000000000000000000000000000000000000000600052601260045260246000fdfea26469706673582212208284810b1ad7c24733e0797c9f2fb0f40bb568b35f977147f2bf63619276cc1c64736f6c634300081e0033",
  "linkReferences": {},
  "deployedLinkReferences": {}
}