{
  "_format": "hh-sol-artifact-1",
  "contractName": "MetaBingNFT",
  "sourceName": "contracts/MetaBingNFT.sol",
  "abi": [
    {
      "inputs": [
        {
          "internalType": "address",
          "name": "_bingNFTAddress",
          "type": "address"
        }
      ],
      "stateMutability": "nonpayable",
      "type": "constructor"
    },
    {
      "anonymous": false,
      "inputs": [
        {
          "indexed": true,
          "internalType": "address",
          "name": "user",
          "type": "address"
        },
        {
          "indexed": false,
          "internalType": "uint256",
          "name": "tokenId",
          "type": "uint256"
        },
        {
          "indexed": false,
          "internalType": "uint256",
          "name": "amount",
          "type": "uint256"
        },
        {
          "indexed": false,
          "internalType": "string",
          "name": "metadata",
          "type": "string"
        }
      ],
      "name": "NFTMinted",
      "type": "event"
    },
    {
      "inputs": [
        {
          "internalType": "address",
          "name": "sender",
          "type": "address"
        },
        {
          "internalType": "address",
          "name": "receiver",
          "type": "address"
        },
        {
          "internalType": "uint256",
          "name": "nftid",
          "type": "uint256"
        },
        {
          "internalType": "uint256",
          "name": "price",
          "type": "uint256"
        }
      ],
      "name": "BuyNFT",
      "outputs": [],
      "stateMutability": "nonpayable",
      "type": "function"
    },
    {
      "inputs": [
        {
          "internalType": "address",
          "name": "sender",
          "type": "address"
        },
        {
          "internalType": "uint256",
          "name": "nftid",
          "type": "uint256"
        },
        {
          "internalType": "uint256",
          "name": "token",
          "type": "uint256"
        },
        {
          "internalType": "uint256",
          "name": "price",
          "type": "uint256"
        }
      ],
      "name": "SellNFT",
      "outputs": [],
      "stateMutability": "nonpayable",
      "type": "function"
    },
    {
      "inputs": [],
      "name": "bingNFT",
      "outputs": [
        {
          "internalType": "contract BingNFT",
          "name": "",
          "type": "address"
        }
      ],
      "stateMutability": "view",
      "type": "function"
    },
    {
      "inputs": [
        {
          "internalType": "address",
          "name": "sender",
          "type": "address"
        },
        {
          "internalType": "uint256",
          "name": "nftid",
          "type": "uint256"
        }
      ],
      "name": "cancelSale",
      "outputs": [],
      "stateMutability": "nonpayable",
      "type": "function"
    },
    {
      "inputs": [
        {
          "internalType": "address",
          "name": "user",
          "type": "address"
        }
      ],
      "name": "getAllTokenBalances",
      "outputs": [
        {
          "internalType": "uint256[]",
          "name": "tokenIds",
          "type": "uint256[]"
        },
        {
          "internalType": "uint256[]",
          "name": "balances",
          "type": "uint256[]"
        }
      ],
      "stateMutability": "view",
      "type": "function"
    },
    {
      "inputs": [],
      "name": "getContractInfo",
      "outputs": [
        {
          "internalType": "address",
          "name": "nftContract",
          "type": "address"
        },
        {
          "internalType": "address",
          "name": "contractOwner",
          "type": "address"
        }
      ],
      "stateMutability": "view",
      "type": "function"
    },
    {
      "inputs": [
        {
          "internalType": "address",
          "name": "user",
          "type": "address"
        },
        {
          "internalType": "uint256",
          "name": "tknId",
          "type": "uint256"
        }
      ],
      "name": "getCurrentBalance",
      "outputs": [
        {
          "internalType": "uint256",
          "name": "",
          "type": "uint256"
        }
      ],
      "stateMutability": "view",
      "type": "function"
    },
    {
      "inputs": [
        {
          "internalType": "address",
          "name": "user",
          "type": "address"
        }
      ],
      "name": "getMintedTokens",
      "outputs": [
        {
          "internalType": "uint256[]",
          "name": "tokenIds",
          "type": "uint256[]"
        },
        {
          "internalType": "uint256[]",
          "name": "amounts",
          "type": "uint256[]"
        }
      ],
      "stateMutability": "view",
      "type": "function"
    },
    {
      "inputs": [
        {
          "internalType": "address",
          "name": "user",
          "type": "address"
        },
        {
          "internalType": "uint256",
          "name": "index",
          "type": "uint256"
        }
      ],
      "name": "getOwnerTokenAtIndex",
      "outputs": [
        {
          "internalType": "uint256",
          "name": "tokenId",
          "type": "uint256"
        },
        {
          "internalType": "uint256",
          "name": "amount",
          "type": "uint256"
        }
      ],
      "stateMutability": "view",
      "type": "function"
    },
    {
      "inputs": [
        {
          "internalType": "address",
          "name": "user",
          "type": "address"
        }
      ],
      "name": "getOwnerTokenCount",
      "outputs": [
        {
          "internalType": "uint256",
          "name": "",
          "type": "uint256"
        }
      ],
      "stateMutability": "view",
      "type": "function"
    },
    {
      "inputs": [
        {
          "internalType": "address",
          "name": "sender",
          "type": "address"
        },
        {
          "internalType": "uint256",
          "name": "item",
          "type": "uint256"
        }
      ],
      "name": "getall",
      "outputs": [
        {
          "components": [
            {
              "internalType": "address",
              "name": "seller",
              "type": "address"
            },
            {
              "internalType": "uint256",
              "name": "token",
              "type": "uint256"
            },
            {
              "internalType": "uint256",
              "name": "price",
              "type": "uint256"
            }
          ],
          "internalType": "struct BingNFT.Sellstake",
          "name": "",
          "type": "tuple"
        }
      ],
      "stateMutability": "view",
      "type": "function"
    },
    {
      "inputs": [],
      "name": "owner",
      "outputs": [
        {
          "internalType": "address",
          "name": "",
          "type": "address"
        }
      ],
      "stateMutability": "view",
      "type": "function"
    },
    {
      "inputs": [
        {
          "internalType": "string",
          "name": "newURI",
          "type": "string"
        },
        {
          "internalType": "address",
          "name": "sender",
          "type": "address"
        }
      ],
      "name": "setTokenURI",
      "outputs": [],
      "stateMutability": "nonpayable",
      "type": "function"
    },
    {
      "inputs": [
        {
          "internalType": "string",
          "name": "newuri",
          "type": "string"
        }
      ],
      "name": "settokenURI",
      "outputs": [],
      "stateMutability": "nonpayable",
      "type": "function"
    },
    {
      "inputs": [
        {
          "internalType": "address",
          "name": "newOwner",
          "type": "address"
        }
      ],
      "name": "transferOwnership",
      "outputs": [],
      "stateMutability": "nonpayable",
      "type": "function"
    },
    {
      "inputs": [
        {
          "internalType": "uint256",
          "name": "tokenid",
          "type": "uint256"
        }
      ],
      "name": "uri",
      "outputs": [
        {
          "internalType": "string",
          "name": "",
          "type": "string"
        }
      ],
      "stateMutability": "view",
      "type": "function"
    },
    {
      "inputs": [
        {
          "internalType": "address",
          "name": "user",
          "type": "address"
        }
      ],
      "name": "userTokens",
      "outputs": [
        {
          "internalType": "uint256[]",
          "name": "",
          "type": "uint256[]"
        }
      ],
      "stateMutability": "view",
      "type": "function"
    },
    {
      "stateMutability": "payable",
      "type": "receive"
    }
  ],
  "bytecode": "0x608060405234801561001057600080fd5b50604051611d11380380611d118339818101604052810190610032919061011c565b806000806101000a81548173ffffffffffffffffffffffffffffffffffffffff021916908373ffffffffffffffffffffffffffffffffffffffff16021790555033600160006101000a81548173ffffffffffffffffffffffffffffffffffffffff021916908373ffffffffffffffffffffffffffffffffffffffff16021790555050610149565b600080fd5b600073ffffffffffffffffffffffffffffffffffffffff82169050919050565b60006100e9826100be565b9050919050565b6100f9816100de565b811461010457600080fd5b50565b600081519050610116816100f0565b92915050565b600060208284031215610132576101316100b9565b5b600061014084828501610107565b91505092915050565b611bb9806101586000396000f3fe6080604052600436106101025760003560e01c80637cc1f86711610095578063d50bcc7111610064578063d50bcc711461037c578063d80a08da146103b9578063e3567774146103e2578063ed498fa81461040b578063f2fde38b1461044857610109565b80637cc1f867146102be578063823d7af5146102ea5780638da5cb5b146103135780639145d1331461033e57610109565b8063434a49a1116100d1578063434a49a1146101c85780635491a99f14610206578063681bec6c1461024357806375388a0f1461028157610109565b80630294c7851461010e5780630e89341c1461013957806316f3a95b1461017657806323a776411461019f57610109565b3661010957005b600080fd5b34801561011a57600080fd5b50610123610471565b6040516101309190610f4a565b60405180910390f35b34801561014557600080fd5b50610160600480360381019061015b9190610faf565b610495565b60405161016d919061106c565b60405180910390f35b34801561018257600080fd5b5061019d600480360381019061019891906110cc565b61053d565b005b3480156101ab57600080fd5b506101c660048036038101906101c19190611241565b6105ce565b005b3480156101d457600080fd5b506101ef60048036038101906101ea919061128a565b61065e565b6040516101fd929190611375565b60405180910390f35b34801561021257600080fd5b5061022d600480360381019061022891906110cc565b610709565b60405161023a91906113fd565b60405180910390f35b34801561024f57600080fd5b5061026a6004803603810190610265919061128a565b6107b5565b604051610278929190611375565b60405180910390f35b34801561028d57600080fd5b506102a860048036038101906102a391906110cc565b610860565b6040516102b59190611427565b60405180910390f35b3480156102ca57600080fd5b506102d3610907565b6040516102e1929190611451565b60405180910390f35b3480156102f657600080fd5b50610311600480360381019061030c919061147a565b610956565b005b34801561031f57600080fd5b50610328610a77565b60405161033591906114d6565b60405180910390f35b34801561034a57600080fd5b50610365600480360381019061036091906110cc565b610a9d565b6040516103739291906114f1565b60405180910390f35b34801561038857600080fd5b506103a3600480360381019061039e919061128a565b610b46565b6040516103b09190611427565b60405180910390f35b3480156103c557600080fd5b506103e060048036038101906103db919061151a565b610bea565b005b3480156103ee57600080fd5b5061040960048036038101906104049190611581565b610c81565b005b34801561041757600080fd5b50610432600480360381019061042d919061128a565b610d18565b60405161043f91906115e8565b60405180910390f35b34801561045457600080fd5b5061046f600480360381019061046a919061128a565b610dc0565b005b60008054906101000a900473ffffffffffffffffffffffffffffffffffffffff1681565b606060008054906101000a900473ffffffffffffffffffffffffffffffffffffffff1673ffffffffffffffffffffffffffffffffffffffff16630e89341c836040518263ffffffff1660e01b81526004016104f09190611427565b600060405180830381865afa15801561050d573d6000803e3d6000fd5b505050506040513d6000823e3d601f19601f82011682018060405250810190610536919061167a565b9050919050565b60008054906101000a900473ffffffffffffffffffffffffffffffffffffffff1673ffffffffffffffffffffffffffffffffffffffff1663813d2ad882846040518363ffffffff1660e01b81526004016105989291906116c3565b600060405180830381600087803b1580156105b257600080fd5b505af11580156105c6573d6000803e3d6000fd5b505050505050565b60008054906101000a900473ffffffffffffffffffffffffffffffffffffffff1673ffffffffffffffffffffffffffffffffffffffff1663cc0a48d482336040518363ffffffff1660e01b81526004016106299291906116ec565b600060405180830381600087803b15801561064357600080fd5b505af1158015610657573d6000803e3d6000fd5b5050505050565b60608060008054906101000a900473ffffffffffffffffffffffffffffffffffffffff1673ffffffffffffffffffffffffffffffffffffffff1663434a49a1846040518263ffffffff1660e01b81526004016106ba91906114d6565b600060405180830381865afa1580156106d7573d6000803e3d6000fd5b505050506040513d6000823e3d601f19601f8201168201806040525081019061070091906117f9565b91509150915091565b610711610e94565b60008054906101000a900473ffffffffffffffffffffffffffffffffffffffff1673ffffffffffffffffffffffffffffffffffffffff16635491a99f84846040518363ffffffff1660e01b815260040161076c929190611871565b606060405180830381865afa158015610789573d6000803e3d6000fd5b505050506040513d601f19601f820116820180604052508101906107ad9190611918565b905092915050565b60608060008054906101000a900473ffffffffffffffffffffffffffffffffffffffff1673ffffffffffffffffffffffffffffffffffffffff1663681bec6c846040518263ffffffff1660e01b815260040161081191906114d6565b600060405180830381865afa15801561082e573d6000803e3d6000fd5b505050506040513d6000823e3d601f19601f8201168201806040525081019061085791906117f9565b91509150915091565b60008060009054906101000a900473ffffffffffffffffffffffffffffffffffffffff1673ffffffffffffffffffffffffffffffffffffffff166375388a0f84846040518363ffffffff1660e01b81526004016108be929190611871565b602060405180830381865afa1580156108db573d6000803e3d6000fd5b505050506040513d601f19601f820116820180604052508101906108ff9190611945565b905092915050565b60008060008054906101000a900473ffffffffffffffffffffffffffffffffffffffff16600160009054906101000a900473ffffffffffffffffffffffffffffffffffffffff16915091509091565b600160009054906101000a900473ffffffffffffffffffffffffffffffffffffffff1673ffffffffffffffffffffffffffffffffffffffff163373ffffffffffffffffffffffffffffffffffffffff16146109e6576040517f08c379a00000000000000000000000000000000000000000000000000000000081526004016109dd906119be565b60405180910390fd5b60008054906101000a900473ffffffffffffffffffffffffffffffffffffffff1673ffffffffffffffffffffffffffffffffffffffff1663cc0a48d483836040518363ffffffff1660e01b8152600401610a419291906116ec565b600060405180830381600087803b158015610a5b57600080fd5b505af1158015610a6f573d6000803e3d6000fd5b505050505050565b600160009054906101000a900473ffffffffffffffffffffffffffffffffffffffff1681565b60008060008054906101000a900473ffffffffffffffffffffffffffffffffffffffff1673ffffffffffffffffffffffffffffffffffffffff16639145d13385856040518363ffffffff1660e01b8152600401610afb929190611871565b6040805180830381865afa158015610b17573d6000803e3d6000fd5b505050506040513d601f19601f82011682018060405250810190610b3b91906119de565b915091509250929050565b60008060009054906101000a900473ffffffffffffffffffffffffffffffffffffffff1673ffffffffffffffffffffffffffffffffffffffff1663d50bcc71836040518263ffffffff1660e01b8152600401610ba291906114d6565b602060405180830381865afa158015610bbf573d6000803e3d6000fd5b505050506040513d601f19601f82011682018060405250810190610be39190611945565b9050919050565b60008054906101000a900473ffffffffffffffffffffffffffffffffffffffff1673ffffffffffffffffffffffffffffffffffffffff1663d80a08da858585856040518563ffffffff1660e01b8152600401610c499493929190611a1e565b600060405180830381600087803b158015610c6357600080fd5b505af1158015610c77573d6000803e3d6000fd5b5050505050505050565b60008054906101000a900473ffffffffffffffffffffffffffffffffffffffff1673ffffffffffffffffffffffffffffffffffffffff1663e3567774858585856040518563ffffffff1660e01b8152600401610ce09493929190611a63565b600060405180830381600087803b158015610cfa57600080fd5b505af1158015610d0e573d6000803e3d6000fd5b5050505050505050565b606060008054906101000a900473ffffffffffffffffffffffffffffffffffffffff1673ffffffffffffffffffffffffffffffffffffffff1663ed498fa8836040518263ffffffff1660e01b8152600401610d7391906114d6565b600060405180830381865afa158015610d90573d6000803e3d6000fd5b505050506040513d6000823e3d601f19601f82011682018060405250810190610db99190611aa8565b9050919050565b600160009054906101000a900473ffffffffffffffffffffffffffffffffffffffff1673ffffffffffffffffffffffffffffffffffffffff163373ffffffffffffffffffffffffffffffffffffffff1614610e50576040517f08c379a0000000000000000000000000000000000000000000000000000000008152600401610e4790611b63565b60405180910390fd5b80600160006101000a81548173ffffffffffffffffffffffffffffffffffffffff021916908373ffffffffffffffffffffffffffffffffffffffff16021790555050565b6040518060600160405280600073ffffffffffffffffffffffffffffffffffffffff16815260200160008152602001600081525090565b600073ffffffffffffffffffffffffffffffffffffffff82169050919050565b6000819050919050565b6000610f10610f0b610f0684610ecb565b610eeb565b610ecb565b9050919050565b6000610f2282610ef5565b9050919050565b6000610f3482610f17565b9050919050565b610f4481610f29565b82525050565b6000602082019050610f5f6000830184610f3b565b92915050565b6000604051905090565b600080fd5b600080fd5b6000819050919050565b610f8c81610f79565b8114610f9757600080fd5b50565b600081359050610fa981610f83565b92915050565b600060208284031215610fc557610fc4610f6f565b5b6000610fd384828501610f9a565b91505092915050565b600081519050919050565b600082825260208201905092915050565b60005b83811015611016578082015181840152602081019050610ffb565b60008484015250505050565b6000601f19601f8301169050919050565b600061103e82610fdc565b6110488185610fe7565b9350611058818560208601610ff8565b61106181611022565b840191505092915050565b600060208201905081810360008301526110868184611033565b905092915050565b600061109982610ecb565b9050919050565b6110a98161108e565b81146110b457600080fd5b50565b6000813590506110c6816110a0565b92915050565b600080604083850312156110e3576110e2610f6f565b5b60006110f1858286016110b7565b925050602061110285828601610f9a565b9150509250929050565b600080fd5b600080fd5b7f4e487b7100000000000000000000000000000000000000000000000000000000600052604160045260246000fd5b61114e82611022565b810181811067ffffffffffffffff8211171561116d5761116c611116565b5b80604052505050565b6000611180610f65565b905061118c8282611145565b919050565b600067ffffffffffffffff8211156111ac576111ab611116565b5b6111b582611022565b9050602081019050919050565b82818337600083830152505050565b60006111e46111df84611191565b611176565b905082815260208101848484011115611200576111ff611111565b5b61120b8482856111c2565b509392505050565b600082601f8301126112285761122761110c565b5b81356112388482602086016111d1565b91505092915050565b60006020828403121561125757611256610f6f565b5b600082013567ffffffffffffffff81111561127557611274610f74565b5b61128184828501611213565b91505092915050565b6000602082840312156112a05761129f610f6f565b5b60006112ae848285016110b7565b91505092915050565b600081519050919050565b600082825260208201905092915050565b6000819050602082019050919050565b6112ec81610f79565b82525050565b60006112fe83836112e3565b60208301905092915050565b6000602082019050919050565b6000611322826112b7565b61132c81856112c2565b9350611337836112d3565b8060005b8381101561136857815161134f88826112f2565b975061135a8361130a565b92505060018101905061133b565b5085935050505092915050565b6000604082019050818103600083015261138f8185611317565b905081810360208301526113a38184611317565b90509392505050565b6113b58161108e565b82525050565b6060820160008201516113d160008501826113ac565b5060208201516113e460208501826112e3565b5060408201516113f760408501826112e3565b50505050565b600060608201905061141260008301846113bb565b92915050565b61142181610f79565b82525050565b600060208201905061143c6000830184611418565b92915050565b61144b8161108e565b82525050565b60006040820190506114666000830185611442565b6114736020830184611442565b9392505050565b6000806040838503121561149157611490610f6f565b5b600083013567ffffffffffffffff8111156114af576114ae610f74565b5b6114bb85828601611213565b92505060206114cc858286016110b7565b9150509250929050565b60006020820190506114eb6000830184611442565b92915050565b60006040820190506115066000830185611418565b6115136020830184611418565b9392505050565b6000806000806080858703121561153457611533610f6f565b5b6000611542878288016110b7565b945050602061155387828801610f9a565b935050604061156487828801610f9a565b925050606061157587828801610f9a565b91505092959194509250565b6000806000806080858703121561159b5761159a610f6f565b5b60006115a9878288016110b7565b94505060206115ba878288016110b7565b93505060406115cb87828801610f9a565b92505060606115dc87828801610f9a565b91505092959194509250565b600060208201905081810360008301526116028184611317565b905092915050565b600061161d61161884611191565b611176565b90508281526020810184848401111561163957611638611111565b5b611644848285610ff8565b509392505050565b600082601f8301126116615761166061110c565b5b815161167184826020860161160a565b91505092915050565b6000602082840312156116905761168f610f6f565b5b600082015167ffffffffffffffff8111156116ae576116ad610f74565b5b6116ba8482850161164c565b91505092915050565b60006040820190506116d86000830185611418565b6116e56020830184611442565b9392505050565b600060408201905081810360008301526117068185611033565b90506117156020830184611442565b9392505050565b600067ffffffffffffffff82111561173757611736611116565b5b602082029050602081019050919050565b600080fd5b60008151905061175c81610f83565b92915050565b60006117756117708461171c565b611176565b9050808382526020820190506020840283018581111561179857611797611748565b5b835b818110156117c157806117ad888261174d565b84526020840193505060208101905061179a565b5050509392505050565b600082601f8301126117e0576117df61110c565b5b81516117f0848260208601611762565b91505092915050565b600080604083850312156118105761180f610f6f565b5b600083015167ffffffffffffffff81111561182e5761182d610f74565b5b61183a858286016117cb565b925050602083015167ffffffffffffffff81111561185b5761185a610f74565b5b611867858286016117cb565b9150509250929050565b60006040820190506118866000830185611442565b6118936020830184611418565b9392505050565b600080fd5b6000815190506118ae816110a0565b92915050565b6000606082840312156118ca576118c961189a565b5b6118d46060611176565b905060006118e48482850161189f565b60008301525060206118f88482850161174d565b602083015250604061190c8482850161174d565b60408301525092915050565b60006060828403121561192e5761192d610f6f565b5b600061193c848285016118b4565b91505092915050565b60006020828403121561195b5761195a610f6f565b5b60006119698482850161174d565b91505092915050565b7f4f6e6c79206f776e65722063616e207365742055524900000000000000000000600082015250565b60006119a8601683610fe7565b91506119b382611972565b602082019050919050565b600060208201905081810360008301526119d78161199b565b9050919050565b600080604083850312156119f5576119f4610f6f565b5b6000611a038582860161174d565b9250506020611a148582860161174d565b9150509250929050565b6000608082019050611a336000830187611442565b611a406020830186611418565b611a4d6040830185611418565b611a5a6060830184611418565b95945050505050565b6000608082019050611a786000830187611442565b611a856020830186611442565b611a926040830185611418565b611a9f6060830184611418565b95945050505050565b600060208284031215611abe57611abd610f6f565b5b600082015167ffffffffffffffff811115611adc57611adb610f74565b5b611ae8848285016117cb565b91505092915050565b7f4f6e6c79206f776e65722063616e207472616e73666572206f776e657273686960008201527f7000000000000000000000000000000000000000000000000000000000000000602082015250565b6000611b4d602183610fe7565b9150611b5882611af1565b604082019050919050565b60006020820190508181036000830152611b7c81611b40565b905091905056fea26469706673582212204752338af5ae656f37699fca1d792e2170bc035faf660351bb9b6b575f422bef64736f6c634300081e0033",
  "linkReferences": {},
  "deployedLinkReferences": {}
}