{
  "_format": "hh-sol-artifact-1",
  "contractName": "MetaBingNFT",
  "sourceName": "contracts/MetaBingNFT.sol",
  "abi": [
    {
      "inputs": [
        {
          "internalType": "address",
          "name": "_bingNFTAddress",
          "type": "address"
        }
      ],
      "stateMutability": "nonpayable",
      "type": "constructor"
    },
    {
      "anonymous": false,
      "inputs": [
        {
          "indexed": true,
          "internalType": "address",
          "name": "user",
          "type": "address"
        },
        {
          "indexed": false,
          "internalType": "uint256",
          "name": "tokenId",
          "type": "uint256"
        },
        {
          "indexed": false,
          "internalType": "uint256",
          "name": "amount",
          "type": "uint256"
        },
        {
          "indexed": false,
          "internalType": "string",
          "name": "metadata",
          "type": "string"
        }
      ],
      "name": "NFTMinted",
      "type": "event"
    },
    {
      "inputs": [
        {
          "internalType": "address",
          "name": "sender",
          "type": "address"
        },
        {
          "internalType": "uint256",
          "name": "nftid",
          "type": "uint256"
        },
        {
          "internalType": "uint256",
          "name": "price",
          "type": "uint256"
        }
      ],
      "name": "BuyNFT",
      "outputs": [],
      "stateMutability": "nonpayable",
      "type": "function"
    },
    {
      "inputs": [
        {
          "internalType": "address",
          "name": "sender",
          "type": "address"
        },
        {
          "internalType": "uint256",
          "name": "nftid",
          "type": "uint256"
        },
        {
          "internalType": "uint256",
          "name": "token",
          "type": "uint256"
        },
        {
          "internalType": "uint256",
          "name": "price",
          "type": "uint256"
        }
      ],
      "name": "SellNFT",
      "outputs": [],
      "stateMutability": "nonpayable",
      "type": "function"
    },
    {
      "inputs": [],
      "name": "bingNFT",
      "outputs": [
        {
          "internalType": "contract BingNFT",
          "name": "",
          "type": "address"
        }
      ],
      "stateMutability": "view",
      "type": "function"
    },
    {
      "inputs": [
        {
          "internalType": "address",
          "name": "sender",
          "type": "address"
        },
        {
          "internalType": "uint256",
          "name": "nftid",
          "type": "uint256"
        }
      ],
      "name": "cancelSale",
      "outputs": [],
      "stateMutability": "nonpayable",
      "type": "function"
    },
    {
      "inputs": [
        {
          "internalType": "address",
          "name": "user",
          "type": "address"
        }
      ],
      "name": "getAllTokenBalances",
      "outputs": [
        {
          "internalType": "uint256[]",
          "name": "tokenIds",
          "type": "uint256[]"
        },
        {
          "internalType": "uint256[]",
          "name": "balances",
          "type": "uint256[]"
        }
      ],
      "stateMutability": "view",
      "type": "function"
    },
    {
      "inputs": [],
      "name": "getContractInfo",
      "outputs": [
        {
          "internalType": "address",
          "name": "nftContract",
          "type": "address"
        },
        {
          "internalType": "address",
          "name": "contractOwner",
          "type": "address"
        }
      ],
      "stateMutability": "view",
      "type": "function"
    },
    {
      "inputs": [
        {
          "internalType": "address",
          "name": "user",
          "type": "address"
        },
        {
          "internalType": "uint256",
          "name": "tknId",
          "type": "uint256"
        }
      ],
      "name": "getCurrentBalance",
      "outputs": [
        {
          "internalType": "uint256",
          "name": "",
          "type": "uint256"
        }
      ],
      "stateMutability": "view",
      "type": "function"
    },
    {
      "inputs": [
        {
          "internalType": "address",
          "name": "user",
          "type": "address"
        }
      ],
      "name": "getMintedTokens",
      "outputs": [
        {
          "internalType": "uint256[]",
          "name": "tokenIds",
          "type": "uint256[]"
        },
        {
          "internalType": "uint256[]",
          "name": "amounts",
          "type": "uint256[]"
        }
      ],
      "stateMutability": "view",
      "type": "function"
    },
    {
      "inputs": [
        {
          "internalType": "address",
          "name": "user",
          "type": "address"
        },
        {
          "internalType": "uint256",
          "name": "index",
          "type": "uint256"
        }
      ],
      "name": "getOwnerTokenAtIndex",
      "outputs": [
        {
          "internalType": "uint256",
          "name": "tokenId",
          "type": "uint256"
        },
        {
          "internalType": "uint256",
          "name": "amount",
          "type": "uint256"
        }
      ],
      "stateMutability": "view",
      "type": "function"
    },
    {
      "inputs": [
        {
          "internalType": "address",
          "name": "user",
          "type": "address"
        }
      ],
      "name": "getOwnerTokenCount",
      "outputs": [
        {
          "internalType": "uint256",
          "name": "",
          "type": "uint256"
        }
      ],
      "stateMutability": "view",
      "type": "function"
    },
    {
      "inputs": [
        {
          "internalType": "uint256",
          "name": "item",
          "type": "uint256"
        }
      ],
      "name": "getall",
      "outputs": [
        {
          "components": [
            {
              "internalType": "address",
              "name": "seller",
              "type": "address"
            },
            {
              "internalType": "uint256",
              "name": "token",
              "type": "uint256"
            },
            {
              "internalType": "uint256",
              "name": "price",
              "type": "uint256"
            }
          ],
          "internalType": "struct BingNFT.Sellstake",
          "name": "",
          "type": "tuple"
        }
      ],
      "stateMutability": "view",
      "type": "function"
    },
    {
      "inputs": [],
      "name": "owner",
      "outputs": [
        {
          "internalType": "address",
          "name": "",
          "type": "address"
        }
      ],
      "stateMutability": "view",
      "type": "function"
    },
    {
      "inputs": [
        {
          "internalType": "string",
          "name": "newURI",
          "type": "string"
        },
        {
          "internalType": "address",
          "name": "sender",
          "type": "address"
        }
      ],
      "name": "setTokenURI",
      "outputs": [],
      "stateMutability": "nonpayable",
      "type": "function"
    },
    {
      "inputs": [
        {
          "internalType": "string",
          "name": "newuri",
          "type": "string"
        }
      ],
      "name": "settokenURI",
      "outputs": [],
      "stateMutability": "nonpayable",
      "type": "function"
    },
    {
      "inputs": [
        {
          "internalType": "address",
          "name": "newOwner",
          "type": "address"
        }
      ],
      "name": "transferOwnership",
      "outputs": [],
      "stateMutability": "nonpayable",
      "type": "function"
    },
    {
      "inputs": [
        {
          "internalType": "uint256",
          "name": "tokenid",
          "type": "uint256"
        }
      ],
      "name": "uri",
      "outputs": [
        {
          "internalType": "string",
          "name": "",
          "type": "string"
        }
      ],
      "stateMutability": "view",
      "type": "function"
    },
    {
      "inputs": [
        {
          "internalType": "address",
          "name": "user",
          "type": "address"
        }
      ],
      "name": "userTokens",
      "outputs": [
        {
          "internalType": "uint256[]",
          "name": "",
          "type": "uint256[]"
        }
      ],
      "stateMutability": "view",
      "type": "function"
    },
    {
      "stateMutability": "payable",
      "type": "receive"
    }
  ],
  "bytecode": "0x608060405234801561001057600080fd5b50604051611cd5380380611cd58339818101604052810190610032919061011c565b806000806101000a81548173ffffffffffffffffffffffffffffffffffffffff021916908373ffffffffffffffffffffffffffffffffffffffff16021790555033600160006101000a81548173ffffffffffffffffffffffffffffffffffffffff021916908373ffffffffffffffffffffffffffffffffffffffff16021790555050610149565b600080fd5b600073ffffffffffffffffffffffffffffffffffffffff82169050919050565b60006100e9826100be565b9050919050565b6100f9816100de565b811461010457600080fd5b50565b600081519050610116816100f0565b92915050565b600060208284031215610132576101316100b9565b5b600061014084828501610107565b91505092915050565b611b7d806101586000396000f3fe6080604052600436106101025760003560e01c806375388a0f116100955780639145d133116100645780639145d13314610367578063d50bcc71146103a5578063d80a08da146103e2578063ed498fa81461040b578063f2fde38b1461044857610109565b806375388a0f146102aa5780637cc1f867146102e7578063823d7af5146103135780638da5cb5b1461033c57610109565b806323a77641116100d157806323a77641146101dc578063434a49a1146102055780635d96324114610243578063681bec6c1461026c57610109565b80630294c7851461010e5780630e89341c1461013957806316f3a95b146101765780631c3fcc601461019f57610109565b3661010957005b600080fd5b34801561011a57600080fd5b50610123610471565b6040516101309190610f67565b60405180910390f35b34801561014557600080fd5b50610160600480360381019061015b9190610fcc565b610495565b60405161016d9190611089565b60405180910390f35b34801561018257600080fd5b5061019d600480360381019061019891906110e9565b61053d565b005b3480156101ab57600080fd5b506101c660048036038101906101c19190610fcc565b6105ce565b6040516101d39190611189565b60405180910390f35b3480156101e857600080fd5b5061020360048036038101906101fe91906112d9565b610677565b005b34801561021157600080fd5b5061022c60048036038101906102279190611322565b610719565b60405161023a9291906113fe565b60405180910390f35b34801561024f57600080fd5b5061026a60048036038101906102659190611435565b6107c4565b005b34801561027857600080fd5b50610293600480360381019061028e9190611322565b610857565b6040516102a19291906113fe565b60405180910390f35b3480156102b657600080fd5b506102d160048036038101906102cc91906110e9565b610902565b6040516102de9190611497565b60405180910390f35b3480156102f357600080fd5b506102fc6109a9565b60405161030a9291906114c1565b60405180910390f35b34801561031f57600080fd5b5061033a600480360381019061033591906114ea565b6109f8565b005b34801561034857600080fd5b50610351610b2b565b60405161035e9190611546565b60405180910390f35b34801561037357600080fd5b5061038e600480360381019061038991906110e9565b610b51565b60405161039c929190611561565b60405180910390f35b3480156103b157600080fd5b506103cc60048036038101906103c79190611322565b610bfa565b6040516103d99190611497565b60405180910390f35b3480156103ee57600080fd5b506104096004803603810190610404919061158a565b610c9e565b005b34801561041757600080fd5b50610432600480360381019061042d9190611322565b610d35565b60405161043f91906115f1565b60405180910390f35b34801561045457600080fd5b5061046f600480360381019061046a9190611322565b610ddd565b005b60008054906101000a900473ffffffffffffffffffffffffffffffffffffffff1681565b606060008054906101000a900473ffffffffffffffffffffffffffffffffffffffff1673ffffffffffffffffffffffffffffffffffffffff16630e89341c836040518263ffffffff1660e01b81526004016104f09190611497565b600060405180830381865afa15801561050d573d6000803e3d6000fd5b505050506040513d6000823e3d601f19601f820116820180604052508101906105369190611683565b9050919050565b60008054906101000a900473ffffffffffffffffffffffffffffffffffffffff1673ffffffffffffffffffffffffffffffffffffffff1663813d2ad882846040518363ffffffff1660e01b81526004016105989291906116cc565b600060405180830381600087803b1580156105b257600080fd5b505af11580156105c6573d6000803e3d6000fd5b505050505050565b6105d6610eb1565b60008054906101000a900473ffffffffffffffffffffffffffffffffffffffff1673ffffffffffffffffffffffffffffffffffffffff16631c3fcc60836040518263ffffffff1660e01b815260040161062f9190611497565b606060405180830381865afa15801561064c573d6000803e3d6000fd5b505050506040513d601f19601f820116820180604052508101906106709190611788565b9050919050565b60008054906101000a900473ffffffffffffffffffffffffffffffffffffffff1673ffffffffffffffffffffffffffffffffffffffff1663cc0a48d482336040518363ffffffff1660e01b81526004016106d29291906117b5565b6020604051808303816000875af11580156106f1573d6000803e3d6000fd5b505050506040513d601f19601f8201168201806040525081019061071591906117e5565b5050565b60608060008054906101000a900473ffffffffffffffffffffffffffffffffffffffff1673ffffffffffffffffffffffffffffffffffffffff1663434a49a1846040518263ffffffff1660e01b81526004016107759190611546565b600060405180830381865afa158015610792573d6000803e3d6000fd5b505050506040513d6000823e3d601f19601f820116820180604052508101906107bb91906118da565b91509150915091565b60008054906101000a900473ffffffffffffffffffffffffffffffffffffffff1673ffffffffffffffffffffffffffffffffffffffff1663079fc0f08284866040518463ffffffff1660e01b81526004016108209291906116cc565b6000604051808303818588803b15801561083957600080fd5b505af115801561084d573d6000803e3d6000fd5b5050505050505050565b60608060008054906101000a900473ffffffffffffffffffffffffffffffffffffffff1673ffffffffffffffffffffffffffffffffffffffff1663681bec6c846040518263ffffffff1660e01b81526004016108b39190611546565b600060405180830381865afa1580156108d0573d6000803e3d6000fd5b505050506040513d6000823e3d601f19601f820116820180604052508101906108f991906118da565b91509150915091565b60008060009054906101000a900473ffffffffffffffffffffffffffffffffffffffff1673ffffffffffffffffffffffffffffffffffffffff166375388a0f84846040518363ffffffff1660e01b8152600401610960929190611952565b602060405180830381865afa15801561097d573d6000803e3d6000fd5b505050506040513d601f19601f820116820180604052508101906109a191906117e5565b905092915050565b60008060008054906101000a900473ffffffffffffffffffffffffffffffffffffffff16600160009054906101000a900473ffffffffffffffffffffffffffffffffffffffff16915091509091565b600160009054906101000a900473ffffffffffffffffffffffffffffffffffffffff1673ffffffffffffffffffffffffffffffffffffffff163373ffffffffffffffffffffffffffffffffffffffff1614610a88576040517f08c379a0000000000000000000000000000000000000000000000000000000008152600401610a7f906119c7565b60405180910390fd5b60008054906101000a900473ffffffffffffffffffffffffffffffffffffffff1673ffffffffffffffffffffffffffffffffffffffff1663cc0a48d483836040518363ffffffff1660e01b8152600401610ae39291906117b5565b6020604051808303816000875af1158015610b02573d6000803e3d6000fd5b505050506040513d601f19601f82011682018060405250810190610b2691906117e5565b505050565b600160009054906101000a900473ffffffffffffffffffffffffffffffffffffffff1681565b60008060008054906101000a900473ffffffffffffffffffffffffffffffffffffffff1673ffffffffffffffffffffffffffffffffffffffff16639145d13385856040518363ffffffff1660e01b8152600401610baf929190611952565b6040805180830381865afa158015610bcb573d6000803e3d6000fd5b505050506040513d601f19601f82011682018060405250810190610bef91906119e7565b915091509250929050565b60008060009054906101000a900473ffffffffffffffffffffffffffffffffffffffff1673ffffffffffffffffffffffffffffffffffffffff1663d50bcc71836040518263ffffffff1660e01b8152600401610c569190611546565b602060405180830381865afa158015610c73573d6000803e3d6000fd5b505050506040513d601f19601f82011682018060405250810190610c9791906117e5565b9050919050565b60008054906101000a900473ffffffffffffffffffffffffffffffffffffffff1673ffffffffffffffffffffffffffffffffffffffff1663d80a08da858585856040518563ffffffff1660e01b8152600401610cfd9493929190611a27565b600060405180830381600087803b158015610d1757600080fd5b505af1158015610d2b573d6000803e3d6000fd5b5050505050505050565b606060008054906101000a900473ffffffffffffffffffffffffffffffffffffffff1673ffffffffffffffffffffffffffffffffffffffff1663ed498fa8836040518263ffffffff1660e01b8152600401610d909190611546565b600060405180830381865afa158015610dad573d6000803e3d6000fd5b505050506040513d6000823e3d601f19601f82011682018060405250810190610dd69190611a6c565b9050919050565b600160009054906101000a900473ffffffffffffffffffffffffffffffffffffffff1673ffffffffffffffffffffffffffffffffffffffff163373ffffffffffffffffffffffffffffffffffffffff1614610e6d576040517f08c379a0000000000000000000000000000000000000000000000000000000008152600401610e6490611b27565b60405180910390fd5b80600160006101000a81548173ffffffffffffffffffffffffffffffffffffffff021916908373ffffffffffffffffffffffffffffffffffffffff16021790555050565b6040518060600160405280600073ffffffffffffffffffffffffffffffffffffffff16815260200160008152602001600081525090565b600073ffffffffffffffffffffffffffffffffffffffff82169050919050565b6000819050919050565b6000610f2d610f28610f2384610ee8565b610f08565b610ee8565b9050919050565b6000610f3f82610f12565b9050919050565b6000610f5182610f34565b9050919050565b610f6181610f46565b82525050565b6000602082019050610f7c6000830184610f58565b92915050565b6000604051905090565b600080fd5b600080fd5b6000819050919050565b610fa981610f96565b8114610fb457600080fd5b50565b600081359050610fc681610fa0565b92915050565b600060208284031215610fe257610fe1610f8c565b5b6000610ff084828501610fb7565b91505092915050565b600081519050919050565b600082825260208201905092915050565b60005b83811015611033578082015181840152602081019050611018565b60008484015250505050565b6000601f19601f8301169050919050565b600061105b82610ff9565b6110658185611004565b9350611075818560208601611015565b61107e8161103f565b840191505092915050565b600060208201905081810360008301526110a38184611050565b905092915050565b60006110b682610ee8565b9050919050565b6110c6816110ab565b81146110d157600080fd5b50565b6000813590506110e3816110bd565b92915050565b60008060408385031215611100576110ff610f8c565b5b600061110e858286016110d4565b925050602061111f85828601610fb7565b9150509250929050565b611132816110ab565b82525050565b61114181610f96565b82525050565b60608201600082015161115d6000850182611129565b5060208201516111706020850182611138565b5060408201516111836040850182611138565b50505050565b600060608201905061119e6000830184611147565b92915050565b600080fd5b600080fd5b7f4e487b7100000000000000000000000000000000000000000000000000000000600052604160045260246000fd5b6111e68261103f565b810181811067ffffffffffffffff82111715611205576112046111ae565b5b80604052505050565b6000611218610f82565b905061122482826111dd565b919050565b600067ffffffffffffffff821115611244576112436111ae565b5b61124d8261103f565b9050602081019050919050565b82818337600083830152505050565b600061127c61127784611229565b61120e565b905082815260208101848484011115611298576112976111a9565b5b6112a384828561125a565b509392505050565b600082601f8301126112c0576112bf6111a4565b5b81356112d0848260208601611269565b91505092915050565b6000602082840312156112ef576112ee610f8c565b5b600082013567ffffffffffffffff81111561130d5761130c610f91565b5b611319848285016112ab565b91505092915050565b60006020828403121561133857611337610f8c565b5b6000611346848285016110d4565b91505092915050565b600081519050919050565b600082825260208201905092915050565b6000819050602082019050919050565b60006113878383611138565b60208301905092915050565b6000602082019050919050565b60006113ab8261134f565b6113b5818561135a565b93506113c08361136b565b8060005b838110156113f15781516113d8888261137b565b97506113e383611393565b9250506001810190506113c4565b5085935050505092915050565b6000604082019050818103600083015261141881856113a0565b9050818103602083015261142c81846113a0565b90509392505050565b60008060006060848603121561144e5761144d610f8c565b5b600061145c868287016110d4565b935050602061146d86828701610fb7565b925050604061147e86828701610fb7565b9150509250925092565b61149181610f96565b82525050565b60006020820190506114ac6000830184611488565b92915050565b6114bb816110ab565b82525050565b60006040820190506114d660008301856114b2565b6114e360208301846114b2565b9392505050565b6000806040838503121561150157611500610f8c565b5b600083013567ffffffffffffffff81111561151f5761151e610f91565b5b61152b858286016112ab565b925050602061153c858286016110d4565b9150509250929050565b600060208201905061155b60008301846114b2565b92915050565b60006040820190506115766000830185611488565b6115836020830184611488565b9392505050565b600080600080608085870312156115a4576115a3610f8c565b5b60006115b2878288016110d4565b94505060206115c387828801610fb7565b93505060406115d487828801610fb7565b92505060606115e587828801610fb7565b91505092959194509250565b6000602082019050818103600083015261160b81846113a0565b905092915050565b600061162661162184611229565b61120e565b905082815260208101848484011115611642576116416111a9565b5b61164d848285611015565b509392505050565b600082601f83011261166a576116696111a4565b5b815161167a848260208601611613565b91505092915050565b60006020828403121561169957611698610f8c565b5b600082015167ffffffffffffffff8111156116b7576116b6610f91565b5b6116c384828501611655565b91505092915050565b60006040820190506116e16000830185611488565b6116ee60208301846114b2565b9392505050565b600080fd5b600081519050611709816110bd565b92915050565b60008151905061171e81610fa0565b92915050565b60006060828403121561173a576117396116f5565b5b611744606061120e565b90506000611754848285016116fa565b60008301525060206117688482850161170f565b602083015250604061177c8482850161170f565b60408301525092915050565b60006060828403121561179e5761179d610f8c565b5b60006117ac84828501611724565b91505092915050565b600060408201905081810360008301526117cf8185611050565b90506117de60208301846114b2565b9392505050565b6000602082840312156117fb576117fa610f8c565b5b60006118098482850161170f565b91505092915050565b600067ffffffffffffffff82111561182d5761182c6111ae565b5b602082029050602081019050919050565b600080fd5b600061185661185184611812565b61120e565b905080838252602082019050602084028301858111156118795761187861183e565b5b835b818110156118a2578061188e888261170f565b84526020840193505060208101905061187b565b5050509392505050565b600082601f8301126118c1576118c06111a4565b5b81516118d1848260208601611843565b91505092915050565b600080604083850312156118f1576118f0610f8c565b5b600083015167ffffffffffffffff81111561190f5761190e610f91565b5b61191b858286016118ac565b925050602083015167ffffffffffffffff81111561193c5761193b610f91565b5b611948858286016118ac565b9150509250929050565b600060408201905061196760008301856114b2565b6119746020830184611488565b9392505050565b7f4f6e6c79206f776e65722063616e207365742055524900000000000000000000600082015250565b60006119b1601683611004565b91506119bc8261197b565b602082019050919050565b600060208201905081810360008301526119e0816119a4565b9050919050565b600080604083850312156119fe576119fd610f8c565b5b6000611a0c8582860161170f565b9250506020611a1d8582860161170f565b9150509250929050565b6000608082019050611a3c60008301876114b2565b611a496020830186611488565b611a566040830185611488565b611a636060830184611488565b95945050505050565b600060208284031215611a8257611a81610f8c565b5b600082015167ffffffffffffffff811115611aa057611a9f610f91565b5b611aac848285016118ac565b91505092915050565b7f4f6e6c79206f776e65722063616e207472616e73666572206f776e657273686960008201527f7000000000000000000000000000000000000000000000000000000000000000602082015250565b6000611b11602183611004565b9150611b1c82611ab5565b604082019050919050565b60006020820190508181036000830152611b4081611b04565b905091905056fea26469706673582212203e6b7d1b13a0c041b9299aafd24f02baeaadc0297ae7812c8bce28714db2bdc064736f6c634300081e0033",
  "linkReferences": {},
  "deployedLinkReferences": {}
}