{
  "_format": "hh-sol-artifact-1",
  "contractName": "MetaTransaction",
  "sourceName": "contracts/MetacoinTnx.sol",
  "abi": [
    {
      "inputs": [
        {
          "internalType": "address",
          "name": "_CA",
          "type": "address"
        }
      ],
      "stateMutability": "nonpayable",
      "type": "constructor"
    },
    {
      "inputs": [
        {
          "internalType": "address",
          "name": "sender",
          "type": "address"
        },
        {
          "internalType": "address",
          "name": "sendto",
          "type": "address"
        },
        {
          "internalType": "uint256",
          "name": "amount",
          "type": "uint256"
        },
        {
          "internalType": "string",
          "name": "message",
          "type": "string"
        },
        {
          "internalType": "bytes",
          "name": "signature",
          "type": "bytes"
        }
      ],
      "name": "Send",
      "outputs": [],
      "stateMutability": "nonpayable",
      "type": "function"
    },
    {
      "inputs": [
        {
          "internalType": "address",
          "name": "accounts",
          "type": "address"
        },
        {
          "internalType": "uint256",
          "name": "tokens",
          "type": "uint256"
        },
        {
          "internalType": "string",
          "name": "messages",
          "type": "string"
        },
        {
          "internalType": "bytes",
          "name": "signature",
          "type": "bytes"
        }
      ],
      "name": "mint",
      "outputs": [],
      "stateMutability": "nonpayable",
      "type": "function"
    }
  ],
  "bytecode": "0x608060405234801561001057600080fd5b50604051610cd4380380610cd4833981810160405281019061003291906100db565b806000806101000a81548173ffffffffffffffffffffffffffffffffffffffff021916908373ffffffffffffffffffffffffffffffffffffffff16021790555050610108565b600080fd5b600073ffffffffffffffffffffffffffffffffffffffff82169050919050565b60006100a88261007d565b9050919050565b6100b88161009d565b81146100c357600080fd5b50565b6000815190506100d5816100af565b92915050565b6000602082840312156100f1576100f0610078565b5b60006100ff848285016100c6565b91505092915050565b610bbd806101176000396000f3fe608060405234801561001057600080fd5b50600436106100365760003560e01c8063d2b04fd61461003b578063f4de7a2914610057575b600080fd5b610055600480360381019061005091906107be565b610073565b005b610071600480360381019061006c919061085d565b610111565b005b61007e8483836101b2565b60008054906101000a900473ffffffffffffffffffffffffffffffffffffffff1673ffffffffffffffffffffffffffffffffffffffff166340c10f1985856040518363ffffffff1660e01b81526004016100d992919061092e565b600060405180830381600087803b1580156100f357600080fd5b505af1158015610107573d6000803e3d6000fd5b5050505050505050565b61011c8583836101b2565b60008054906101000a900473ffffffffffffffffffffffffffffffffffffffff1673ffffffffffffffffffffffffffffffffffffffff1663beabacc88686866040518463ffffffff1660e01b815260040161017993929190610957565b600060405180830381600087803b15801561019357600080fd5b505af11580156101a7573d6000803e3d6000fd5b505050505050505050565b60006101bd83610262565b905060008060006101cd856102a2565b925092509250600184828585604051600081526020016040526040516101f694939291906109c3565b6020604051602081039080840390855afa158015610218573d6000803e3d6000fd5b5050506020604051035173ffffffffffffffffffffffffffffffffffffffff168773ffffffffffffffffffffffffffffffffffffffff161461025957600080fd5b50505050505050565b600080825190506102728161030e565b83604051602001610284929190610ac5565b60405160208183030381529060405280519060200120915050919050565b600080600060418451146102b557600080fd5b6020840151925060408401519150606084015160001a9050601b8160ff16101561030757601b816102e69190610b23565b9050601b8160ff1614806102fd5750601c8160ff16145b61030657600080fd5b5b9193909250565b60606000600161031d846103dc565b01905060008167ffffffffffffffff81111561033c5761033b6105f2565b5b6040519080825280601f01601f19166020018201604052801561036e5781602001600182028036833780820191505090505b509050600082602001820190505b6001156103d1578080600190039150507f3031323334353637383961626364656600000000000000000000000000000000600a86061a8153600a85816103c5576103c4610b58565b5b0494506000850361037c575b819350505050919050565b600080600090507a184f03e93ff9f4daa797ed6e38ed64bf6a1f010000000000000000831061043a577a184f03e93ff9f4daa797ed6e38ed64bf6a1f01000000000000000083816104305761042f610b58565b5b0492506040810190505b6d04ee2d6d415b85acef81000000008310610477576d04ee2d6d415b85acef8100000000838161046d5761046c610b58565b5b0492506020810190505b662386f26fc1000083106104a657662386f26fc10000838161049c5761049b610b58565b5b0492506010810190505b6305f5e10083106104cf576305f5e10083816104c5576104c4610b58565b5b0492506008810190505b61271083106104f45761271083816104ea576104e9610b58565b5b0492506004810190505b60648310610517576064838161050d5761050c610b58565b5b0492506002810190505b600a8310610526576001810190505b80915050919050565b6000604051905090565b600080fd5b600080fd5b600073ffffffffffffffffffffffffffffffffffffffff82169050919050565b600061056e82610543565b9050919050565b61057e81610563565b811461058957600080fd5b50565b60008135905061059b81610575565b92915050565b6000819050919050565b6105b4816105a1565b81146105bf57600080fd5b50565b6000813590506105d1816105ab565b92915050565b600080fd5b600080fd5b6000601f19601f8301169050919050565b7f4e487b7100000000000000000000000000000000000000000000000000000000600052604160045260246000fd5b61062a826105e1565b810181811067ffffffffffffffff82111715610649576106486105f2565b5b80604052505050565b600061065c61052f565b90506106688282610621565b919050565b600067ffffffffffffffff821115610688576106876105f2565b5b610691826105e1565b9050602081019050919050565b82818337600083830152505050565b60006106c06106bb8461066d565b610652565b9050828152602081018484840111156106dc576106db6105dc565b5b6106e784828561069e565b509392505050565b600082601f830112610704576107036105d7565b5b81356107148482602086016106ad565b91505092915050565b600067ffffffffffffffff821115610738576107376105f2565b5b610741826105e1565b9050602081019050919050565b600061076161075c8461071d565b610652565b90508281526020810184848401111561077d5761077c6105dc565b5b61078884828561069e565b509392505050565b600082601f8301126107a5576107a46105d7565b5b81356107b584826020860161074e565b91505092915050565b600080600080608085870312156107d8576107d7610539565b5b60006107e68782880161058c565b94505060206107f7878288016105c2565b935050604085013567ffffffffffffffff8111156108185761081761053e565b5b610824878288016106ef565b925050606085013567ffffffffffffffff8111156108455761084461053e565b5b61085187828801610790565b91505092959194509250565b600080600080600060a0868803121561087957610878610539565b5b60006108878882890161058c565b95505060206108988882890161058c565b94505060406108a9888289016105c2565b935050606086013567ffffffffffffffff8111156108ca576108c961053e565b5b6108d6888289016106ef565b925050608086013567ffffffffffffffff8111156108f7576108f661053e565b5b61090388828901610790565b9150509295509295909350565b61091981610563565b82525050565b610928816105a1565b82525050565b60006040820190506109436000830185610910565b610950602083018461091f565b9392505050565b600060608201905061096c6000830186610910565b6109796020830185610910565b610986604083018461091f565b949350505050565b6000819050919050565b6109a18161098e565b82525050565b600060ff82169050919050565b6109bd816109a7565b82525050565b60006080820190506109d86000830187610998565b6109e560208301866109b4565b6109f26040830185610998565b6109ff6060830184610998565b95945050505050565b600081905092915050565b7f19457468657265756d205369676e6564204d6573736167653a0a000000000000600082015250565b6000610a49601a83610a08565b9150610a5482610a13565b601a82019050919050565b600081519050919050565b60005b83811015610a88578082015181840152602081019050610a6d565b60008484015250505050565b6000610a9f82610a5f565b610aa98185610a08565b9350610ab9818560208601610a6a565b80840191505092915050565b6000610ad082610a3c565b9150610adc8285610a94565b9150610ae88284610a94565b91508190509392505050565b7f4e487b7100000000000000000000000000000000000000000000000000000000600052601160045260246000fd5b6000610b2e826109a7565b9150610b39836109a7565b9250828201905060ff811115610b5257610b51610af4565b5b92915050565b7f4e487b7100000000000000000000000000000000000000000000000000000000600052601260045260246000fdfea264697066735822122015bc3979bfbbfe983778763d2396c4d64444a8d64295e65cbda37abe47edb1fc64736f6c634300081e0033",
  "linkReferences": {},
  "deployedLinkReferences": {}
}