{
  "_format": "hh-sol-artifact-1",
  "contractName": "SmartFactory",
  "sourceName": "contracts/SmartFactory.sol",
  "abi": [
    {
      "inputs": [
        {
          "internalType": "address",
          "name": "_entryPoint",
          "type": "address"
        }
      ],
      "stateMutability": "nonpayable",
      "type": "constructor"
    },
    {
      "inputs": [
        {
          "internalType": "address",
          "name": "owner",
          "type": "address"
        }
      ],
      "name": "createAcc",
      "outputs": [
        {
          "internalType": "address",
          "name": "smartAccount",
          "type": "address"
        }
      ],
      "stateMutability": "nonpayable",
      "type": "function"
    },
    {
      "inputs": [
        {
          "internalType": "address",
          "name": "owner",
          "type": "address"
        }
      ],
      "name": "getAccount",
      "outputs": [
        {
          "internalType": "address",
          "name": "",
          "type": "address"
        }
      ],
      "stateMutability": "view",
      "type": "function"
    }
  ],
  "bytecode": "0x60a060405234801561001057600080fd5b50604051610dd2380380610dd2833981810160405281019061003291906100cf565b8073ffffffffffffffffffffffffffffffffffffffff1660808173ffffffffffffffffffffffffffffffffffffffff1681525050506100fc565b600080fd5b600073ffffffffffffffffffffffffffffffffffffffff82169050919050565b600061009c82610071565b9050919050565b6100ac81610091565b81146100b757600080fd5b50565b6000815190506100c9816100a3565b92915050565b6000602082840312156100e5576100e461006c565b5b60006100f3848285016100ba565b91505092915050565b608051610cbb610117600039600061015c0152610cbb6000f3fe608060405234801561001057600080fd5b50600436106100365760003560e01c8063bad018821461003b578063fbcbc0f11461006b575b600080fd5b6100556004803603810190610050919061035d565b61009b565b6040516100629190610399565b60405180910390f35b6100856004803603810190610080919061035d565b610285565b6040516100929190610399565b60405180910390f35b60008073ffffffffffffffffffffffffffffffffffffffff166000808473ffffffffffffffffffffffffffffffffffffffff1673ffffffffffffffffffffffffffffffffffffffff16815260200190815260200160002060009054906101000a900473ffffffffffffffffffffffffffffffffffffffff1673ffffffffffffffffffffffffffffffffffffffff161461013357600080fd5b600060405180602001610145906102ed565b6020820181038252601f19601f82011660405250837f000000000000000000000000000000000000000000000000000000000000000060405160200161018c9291906103b4565b6040516020818303038152906040526040516020016101ac92919061044e565b6040516020818303038152906040529050600083426040516020016101d29291906104e5565b604051602081830303815290604052805190602001209050808251602084016000f59250823b61020157600080fd5b826000808673ffffffffffffffffffffffffffffffffffffffff1673ffffffffffffffffffffffffffffffffffffffff16815260200190815260200160002060006101000a81548173ffffffffffffffffffffffffffffffffffffffff021916908373ffffffffffffffffffffffffffffffffffffffff1602179055505050919050565b60008060008373ffffffffffffffffffffffffffffffffffffffff1673ffffffffffffffffffffffffffffffffffffffff16815260200190815260200160002060009054906101000a900473ffffffffffffffffffffffffffffffffffffffff169050919050565b6107748061051283390190565b600080fd5b600073ffffffffffffffffffffffffffffffffffffffff82169050919050565b600061032a826102ff565b9050919050565b61033a8161031f565b811461034557600080fd5b50565b60008135905061035781610331565b92915050565b600060208284031215610373576103726102fa565b5b600061038184828501610348565b91505092915050565b6103938161031f565b82525050565b60006020820190506103ae600083018461038a565b92915050565b60006040820190506103c9600083018561038a565b6103d6602083018461038a565b9392505050565b600081519050919050565b600081905092915050565b60005b838110156104115780820151818401526020810190506103f6565b60008484015250505050565b6000610428826103dd565b61043281856103e8565b93506104428185602086016103f3565b80840191505092915050565b600061045a828561041d565b9150610466828461041d565b91508190509392505050565b60008160601b9050919050565b600061048a82610472565b9050919050565b600061049c8261047f565b9050919050565b6104b46104af8261031f565b610491565b82525050565b6000819050919050565b6000819050919050565b6104df6104da826104ba565b6104c4565b82525050565b60006104f182856104a3565b60148201915061050182846104ce565b602082019150819050939250505056fe608060405234801561001057600080fd5b506040516107743803806107748339818101604052810190610032919061011d565b816000806101000a81548173ffffffffffffffffffffffffffffffffffffffff021916908373ffffffffffffffffffffffffffffffffffffffff16021790555080600160006101000a81548173ffffffffffffffffffffffffffffffffffffffff021916908373ffffffffffffffffffffffffffffffffffffffff160217905550505061015d565b600080fd5b600073ffffffffffffffffffffffffffffffffffffffff82169050919050565b60006100ea826100bf565b9050919050565b6100fa816100df565b811461010557600080fd5b50565b600081519050610117816100f1565b92915050565b60008060408385031215610134576101336100ba565b5b600061014285828601610108565b925050602061015385828601610108565b9150509250929050565b6106088061016c6000396000f3fe60806040526004361061002d5760003560e01c80631626ba7e14610039578063b61d27f61461007657610034565b3661003457005b600080fd5b34801561004557600080fd5b50610060600480360381019061005b919061036c565b61009f565b60405161006d91906103e7565b60405180910390f35b34801561008257600080fd5b5061009d60048036038101906100989190610496565b61014b565b005b6000806100f08585858080601f016020809104026020016040519081016040528093929190818152602001838380828437600081840152601f19601f82011690508083019250505050505050610226565b905060008054906101000a900473ffffffffffffffffffffffffffffffffffffffff1673ffffffffffffffffffffffffffffffffffffffff168173ffffffffffffffffffffffffffffffffffffffff16149150509392505050565b600160009054906101000a900473ffffffffffffffffffffffffffffffffffffffff1673ffffffffffffffffffffffffffffffffffffffff163373ffffffffffffffffffffffffffffffffffffffff16146101a557600080fd5b60008473ffffffffffffffffffffffffffffffffffffffff168484846040516101cf929190610549565b60006040518083038185875af1925050503d806000811461020c576040519150601f19603f3d011682016040523d82523d6000602084013e610211565b606091505b505090508061021f57600080fd5b5050505050565b60008060008061023585610295565b9250925092506001868285856040516000815260200160405260405161025e949392919061058d565b6020604051602081039080840390855afa158015610280573d6000803e3d6000fd5b50505060206040510351935050505092915050565b600080600060418451146102a857600080fd5b6020840151925060408401519150606084015160001a90509193909250565b600080fd5b600080fd5b6000819050919050565b6102e4816102d1565b81146102ef57600080fd5b50565b600081359050610301816102db565b92915050565b600080fd5b600080fd5b600080fd5b60008083601f84011261032c5761032b610307565b5b8235905067ffffffffffffffff8111156103495761034861030c565b5b60208301915083600182028301111561036557610364610311565b5b9250929050565b600080600060408486031215610385576103846102c7565b5b6000610393868287016102f2565b935050602084013567ffffffffffffffff8111156103b4576103b36102cc565b5b6103c086828701610316565b92509250509250925092565b60008115159050919050565b6103e1816103cc565b82525050565b60006020820190506103fc60008301846103d8565b92915050565b600073ffffffffffffffffffffffffffffffffffffffff82169050919050565b600061042d82610402565b9050919050565b61043d81610422565b811461044857600080fd5b50565b60008135905061045a81610434565b92915050565b6000819050919050565b61047381610460565b811461047e57600080fd5b50565b6000813590506104908161046a565b92915050565b600080600080606085870312156104b0576104af6102c7565b5b60006104be8782880161044b565b94505060206104cf87828801610481565b935050604085013567ffffffffffffffff8111156104f0576104ef6102cc565b5b6104fc87828801610316565b925092505092959194509250565b600081905092915050565b82818337600083830152505050565b6000610530838561050a565b935061053d838584610515565b82840190509392505050565b6000610556828486610524565b91508190509392505050565b61056b816102d1565b82525050565b600060ff82169050919050565b61058781610571565b82525050565b60006080820190506105a26000830187610562565b6105af602083018661057e565b6105bc6040830185610562565b6105c96060830184610562565b9594505050505056fea2646970667358221220a46afff658a76563203de2f377597cad56e2447159566c2377862d53458cea6d64736f6c634300081e0033a2646970667358221220efaa9467034a3927585af4be27e434480f54175f0621b6a13b29d841ffec4f5564736f6c634300081e0033",
  "linkReferences": {},
  "deployedLinkReferences": {}
}