{
  "_format": "hh-sol-artifact-1",
  "contractName": "SmartAccount",
  "sourceName": "contracts/SmartAccount.sol",
  "abi": [
    {
      "inputs": [
        {
          "internalType": "address",
          "name": "_owner",
          "type": "address"
        },
        {
          "internalType": "address",
          "name": "_entryPoint",
          "type": "address"
        }
      ],
      "stateMutability": "nonpayable",
      "type": "constructor"
    },
    {
      "inputs": [
        {
          "internalType": "address",
          "name": "contractAddress",
          "type": "address"
        },
        {
          "internalType": "uint256",
          "name": "value",
          "type": "uint256"
        },
        {
          "internalType": "bytes",
          "name": "data",
          "type": "bytes"
        }
      ],
      "name": "execute",
      "outputs": [],
      "stateMutability": "nonpayable",
      "type": "function"
    },
    {
      "inputs": [
        {
          "internalType": "bytes32",
          "name": "_hash",
          "type": "bytes32"
        },
        {
          "internalType": "bytes",
          "name": "signature",
          "type": "bytes"
        }
      ],
      "name": "isValidSignature",
      "outputs": [
        {
          "internalType": "bool",
          "name": "",
          "type": "bool"
        }
      ],
      "stateMutability": "view",
      "type": "function"
    },
    {
      "inputs": [
        {
          "internalType": "address",
          "name": "",
          "type": "address"
        },
        {
          "internalType": "address",
          "name": "",
          "type": "address"
        },
        {
          "internalType": "uint256[]",
          "name": "",
          "type": "uint256[]"
        },
        {
          "internalType": "uint256[]",
          "name": "",
          "type": "uint256[]"
        },
        {
          "internalType": "bytes",
          "name": "",
          "type": "bytes"
        }
      ],
      "name": "onERC1155BatchReceived",
      "outputs": [
        {
          "internalType": "bytes4",
          "name": "",
          "type": "bytes4"
        }
      ],
      "stateMutability": "nonpayable",
      "type": "function"
    },
    {
      "inputs": [
        {
          "internalType": "address",
          "name": "",
          "type": "address"
        },
        {
          "internalType": "address",
          "name": "",
          "type": "address"
        },
        {
          "internalType": "uint256",
          "name": "",
          "type": "uint256"
        },
        {
          "internalType": "uint256",
          "name": "",
          "type": "uint256"
        },
        {
          "internalType": "bytes",
          "name": "",
          "type": "bytes"
        }
      ],
      "name": "onERC1155Received",
      "outputs": [
        {
          "internalType": "bytes4",
          "name": "",
          "type": "bytes4"
        }
      ],
      "stateMutability": "nonpayable",
      "type": "function"
    },
    {
      "inputs": [
        {
          "internalType": "bytes4",
          "name": "interfaceId",
          "type": "bytes4"
        }
      ],
      "name": "supportsInterface",
      "outputs": [
        {
          "internalType": "bool",
          "name": "",
          "type": "bool"
        }
      ],
      "stateMutability": "view",
      "type": "function"
    },
    {
      "stateMutability": "payable",
      "type": "receive"
    }
  ],
  "bytecode": "0x608060405234801561001057600080fd5b50604051610d6e380380610d6e8339818101604052810190610032919061011d565b816000806101000a81548173ffffffffffffffffffffffffffffffffffffffff021916908373ffffffffffffffffffffffffffffffffffffffff16021790555080600160006101000a81548173ffffffffffffffffffffffffffffffffffffffff021916908373ffffffffffffffffffffffffffffffffffffffff160217905550505061015d565b600080fd5b600073ffffffffffffffffffffffffffffffffffffffff82169050919050565b60006100ea826100bf565b9050919050565b6100fa816100df565b811461010557600080fd5b50565b600081519050610117816100f1565b92915050565b60008060408385031215610134576101336100ba565b5b600061014285828601610108565b925050602061015385828601610108565b9150509250929050565b610c028061016c6000396000f3fe60806040526004361061004e5760003560e01c806301ffc9a71461005a5780631626ba7e14610097578063b61d27f6146100d4578063bc197c81146100fd578063f23a6e611461013a57610055565b3661005557005b600080fd5b34801561006657600080fd5b50610081600480360381019061007c9190610519565b610177565b60405161008e9190610561565b60405180910390f35b3480156100a357600080fd5b506100be60048036038101906100b99190610617565b6101f1565b6040516100cb9190610561565b60405180910390f35b3480156100e057600080fd5b506100fb60048036038101906100f6919061070b565b61029d565b005b34801561010957600080fd5b50610124600480360381019061011f9190610983565b610378565b6040516101319190610a61565b60405180910390f35b34801561014657600080fd5b50610161600480360381019061015c9190610a7c565b61038d565b60405161016e9190610a61565b60405180910390f35b60007f4e2312e0000000000000000000000000000000000000000000000000000000007bffffffffffffffffffffffffffffffffffffffffffffffffffffffff1916827bffffffffffffffffffffffffffffffffffffffffffffffffffffffff191614806101ea57506101e9826103a2565b5b9050919050565b6000806102428585858080601f016020809104026020016040519081016040528093929190818152602001838380828437600081840152601f19601f8201169050808301925050505050505061040c565b905060008054906101000a900473ffffffffffffffffffffffffffffffffffffffff1673ffffffffffffffffffffffffffffffffffffffff168173ffffffffffffffffffffffffffffffffffffffff16149150509392505050565b600160009054906101000a900473ffffffffffffffffffffffffffffffffffffffff1673ffffffffffffffffffffffffffffffffffffffff163373ffffffffffffffffffffffffffffffffffffffff16146102f757600080fd5b60008473ffffffffffffffffffffffffffffffffffffffff16848484604051610321929190610b43565b60006040518083038185875af1925050503d806000811461035e576040519150601f19603f3d011682016040523d82523d6000602084013e610363565b606091505b505090508061037157600080fd5b5050505050565b600063bc197c8160e01b905095945050505050565b600063f23a6e6160e01b905095945050505050565b60007f01ffc9a7000000000000000000000000000000000000000000000000000000007bffffffffffffffffffffffffffffffffffffffffffffffffffffffff1916827bffffffffffffffffffffffffffffffffffffffffffffffffffffffff1916149050919050565b60008060008061041b8561047b565b925092509250600186828585604051600081526020016040526040516104449493929190610b87565b6020604051602081039080840390855afa158015610466573d6000803e3d6000fd5b50505060206040510351935050505092915050565b6000806000604184511461048e57600080fd5b6020840151925060408401519150606084015160001a90509193909250565b6000604051905090565b600080fd5b600080fd5b60007fffffffff0000000000000000000000000000000000000000000000000000000082169050919050565b6104f6816104c1565b811461050157600080fd5b50565b600081359050610513816104ed565b92915050565b60006020828403121561052f5761052e6104b7565b5b600061053d84828501610504565b91505092915050565b60008115159050919050565b61055b81610546565b82525050565b60006020820190506105766000830184610552565b92915050565b6000819050919050565b61058f8161057c565b811461059a57600080fd5b50565b6000813590506105ac81610586565b92915050565b600080fd5b600080fd5b600080fd5b60008083601f8401126105d7576105d66105b2565b5b8235905067ffffffffffffffff8111156105f4576105f36105b7565b5b6020830191508360018202830111156106105761060f6105bc565b5b9250929050565b6000806000604084860312156106305761062f6104b7565b5b600061063e8682870161059d565b935050602084013567ffffffffffffffff81111561065f5761065e6104bc565b5b61066b868287016105c1565b92509250509250925092565b600073ffffffffffffffffffffffffffffffffffffffff82169050919050565b60006106a282610677565b9050919050565b6106b281610697565b81146106bd57600080fd5b50565b6000813590506106cf816106a9565b92915050565b6000819050919050565b6106e8816106d5565b81146106f357600080fd5b50565b600081359050610705816106df565b92915050565b60008060008060608587031215610725576107246104b7565b5b6000610733878288016106c0565b9450506020610744878288016106f6565b935050604085013567ffffffffffffffff811115610765576107646104bc565b5b610771878288016105c1565b925092505092959194509250565b6000601f19601f8301169050919050565b7f4e487b7100000000000000000000000000000000000000000000000000000000600052604160045260246000fd5b6107c88261077f565b810181811067ffffffffffffffff821117156107e7576107e6610790565b5b80604052505050565b60006107fa6104ad565b905061080682826107bf565b919050565b600067ffffffffffffffff82111561082657610825610790565b5b602082029050602081019050919050565b600061084a6108458461080b565b6107f0565b9050808382526020820190506020840283018581111561086d5761086c6105bc565b5b835b81811015610896578061088288826106f6565b84526020840193505060208101905061086f565b5050509392505050565b600082601f8301126108b5576108b46105b2565b5b81356108c5848260208601610837565b91505092915050565b600080fd5b600067ffffffffffffffff8211156108ee576108ed610790565b5b6108f78261077f565b9050602081019050919050565b82818337600083830152505050565b6000610926610921846108d3565b6107f0565b905082815260208101848484011115610942576109416108ce565b5b61094d848285610904565b509392505050565b600082601f83011261096a576109696105b2565b5b813561097a848260208601610913565b91505092915050565b600080600080600060a0868803121561099f5761099e6104b7565b5b60006109ad888289016106c0565b95505060206109be888289016106c0565b945050604086013567ffffffffffffffff8111156109df576109de6104bc565b5b6109eb888289016108a0565b935050606086013567ffffffffffffffff811115610a0c57610a0b6104bc565b5b610a18888289016108a0565b925050608086013567ffffffffffffffff811115610a3957610a386104bc565b5b610a4588828901610955565b9150509295509295909350565b610a5b816104c1565b82525050565b6000602082019050610a766000830184610a52565b92915050565b600080600080600060a08688031215610a9857610a976104b7565b5b6000610aa6888289016106c0565b9550506020610ab7888289016106c0565b9450506040610ac8888289016106f6565b9350506060610ad9888289016106f6565b925050608086013567ffffffffffffffff811115610afa57610af96104bc565b5b610b0688828901610955565b9150509295509295909350565b600081905092915050565b6000610b2a8385610b13565b9350610b37838584610904565b82840190509392505050565b6000610b50828486610b1e565b91508190509392505050565b610b658161057c565b82525050565b600060ff82169050919050565b610b8181610b6b565b82525050565b6000608082019050610b9c6000830187610b5c565b610ba96020830186610b78565b610bb66040830185610b5c565b610bc36060830184610b5c565b9594505050505056fea26469706673582212203ca581b4a4d302b165558b70410c354081fbfe9a2593a408296bf61665d08d8464736f6c634300081e0033",
  "linkReferences": {},
  "deployedLinkReferences": {}
}