{
  "_format": "hh-sol-artifact-1",
  "contractName": "SmartAccount",
  "sourceName": "contracts/SmartAccount.sol",
  "abi": [
    {
      "inputs": [
        {
          "internalType": "address",
          "name": "_owner",
          "type": "address"
        },
        {
          "internalType": "address",
          "name": "_entryPoint",
          "type": "address"
        }
      ],
      "stateMutability": "nonpayable",
      "type": "constructor"
    },
    {
      "inputs": [
        {
          "internalType": "address",
          "name": "contractAddress",
          "type": "address"
        },
        {
          "internalType": "uint256",
          "name": "value",
          "type": "uint256"
        },
        {
          "internalType": "bytes",
          "name": "data",
          "type": "bytes"
        }
      ],
      "name": "execute",
      "outputs": [],
      "stateMutability": "nonpayable",
      "type": "function"
    },
    {
      "inputs": [
        {
          "internalType": "bytes32",
          "name": "_hash",
          "type": "bytes32"
        },
        {
          "internalType": "bytes",
          "name": "signature",
          "type": "bytes"
        }
      ],
      "name": "isValidSignature",
      "outputs": [
        {
          "internalType": "bool",
          "name": "",
          "type": "bool"
        }
      ],
      "stateMutability": "view",
      "type": "function"
    },
    {
      "stateMutability": "payable",
      "type": "receive"
    }
  ],
  "bytecode": "0x608060405234801561001057600080fd5b506040516107743803806107748339818101604052810190610032919061011d565b816000806101000a81548173ffffffffffffffffffffffffffffffffffffffff021916908373ffffffffffffffffffffffffffffffffffffffff16021790555080600160006101000a81548173ffffffffffffffffffffffffffffffffffffffff021916908373ffffffffffffffffffffffffffffffffffffffff160217905550505061015d565b600080fd5b600073ffffffffffffffffffffffffffffffffffffffff82169050919050565b60006100ea826100bf565b9050919050565b6100fa816100df565b811461010557600080fd5b50565b600081519050610117816100f1565b92915050565b60008060408385031215610134576101336100ba565b5b600061014285828601610108565b925050602061015385828601610108565b9150509250929050565b6106088061016c6000396000f3fe60806040526004361061002d5760003560e01c80631626ba7e14610039578063b61d27f61461007657610034565b3661003457005b600080fd5b34801561004557600080fd5b50610060600480360381019061005b919061036c565b61009f565b60405161006d91906103e7565b60405180910390f35b34801561008257600080fd5b5061009d60048036038101906100989190610496565b61014b565b005b6000806100f08585858080601f016020809104026020016040519081016040528093929190818152602001838380828437600081840152601f19601f82011690508083019250505050505050610226565b905060008054906101000a900473ffffffffffffffffffffffffffffffffffffffff1673ffffffffffffffffffffffffffffffffffffffff168173ffffffffffffffffffffffffffffffffffffffff16149150509392505050565b600160009054906101000a900473ffffffffffffffffffffffffffffffffffffffff1673ffffffffffffffffffffffffffffffffffffffff163373ffffffffffffffffffffffffffffffffffffffff16146101a557600080fd5b60008473ffffffffffffffffffffffffffffffffffffffff168484846040516101cf929190610549565b60006040518083038185875af1925050503d806000811461020c576040519150601f19603f3d011682016040523d82523d6000602084013e610211565b606091505b505090508061021f57600080fd5b5050505050565b60008060008061023585610295565b9250925092506001868285856040516000815260200160405260405161025e949392919061058d565b6020604051602081039080840390855afa158015610280573d6000803e3d6000fd5b50505060206040510351935050505092915050565b600080600060418451146102a857600080fd5b6020840151925060408401519150606084015160001a90509193909250565b600080fd5b600080fd5b6000819050919050565b6102e4816102d1565b81146102ef57600080fd5b50565b600081359050610301816102db565b92915050565b600080fd5b600080fd5b600080fd5b60008083601f84011261032c5761032b610307565b5b8235905067ffffffffffffffff8111156103495761034861030c565b5b60208301915083600182028301111561036557610364610311565b5b9250929050565b600080600060408486031215610385576103846102c7565b5b6000610393868287016102f2565b935050602084013567ffffffffffffffff8111156103b4576103b36102cc565b5b6103c086828701610316565b92509250509250925092565b60008115159050919050565b6103e1816103cc565b82525050565b60006020820190506103fc60008301846103d8565b92915050565b600073ffffffffffffffffffffffffffffffffffffffff82169050919050565b600061042d82610402565b9050919050565b61043d81610422565b811461044857600080fd5b50565b60008135905061045a81610434565b92915050565b6000819050919050565b61047381610460565b811461047e57600080fd5b50565b6000813590506104908161046a565b92915050565b600080600080606085870312156104b0576104af6102c7565b5b60006104be8782880161044b565b94505060206104cf87828801610481565b935050604085013567ffffffffffffffff8111156104f0576104ef6102cc565b5b6104fc87828801610316565b925092505092959194509250565b600081905092915050565b82818337600083830152505050565b6000610530838561050a565b935061053d838584610515565b82840190509392505050565b6000610556828486610524565b91508190509392505050565b61056b816102d1565b82525050565b600060ff82169050919050565b61058781610571565b82525050565b60006080820190506105a26000830187610562565b6105af602083018661057e565b6105bc6040830185610562565b6105c96060830184610562565b9594505050505056fea2646970667358221220a46afff658a76563203de2f377597cad56e2447159566c2377862d53458cea6d64736f6c634300081e0033",
  "linkReferences": {},
  "deployedLinkReferences": {}
}